{"contracts/RockPaperSciccors.sol":{"RockPaperScissors":{"abi":[{"inputs":[{"internalType":"address","name":"_bankroll","type":"address"},{"internalType":"address","name":"_vrf","type":"address"},{"internalType":"address","name":"link_eth_feed","type":"address"},{"internalType":"address","name":"_forwarder","type":"address"}],"stateMutability":"nonpayable","type":"constructor"},{"inputs":[{"internalType":"address","name":"target","type":"address"}],"name":"AddressEmptyCode","type":"error"},{"inputs":[{"internalType":"address","name":"account","type":"address"}],"name":"AddressInsufficientBalance","type":"error"},{"inputs":[{"internalType":"uint256","name":"requestID","type":"uint256"}],"name":"AwaitingVRF","type":"error"},{"inputs":[{"internalType":"uint256","name":"have","type":"uint256"},{"internalType":"uint256","name":"want","type":"uint256"}],"name":"BlockNumberTooLow","type":"error"},{"inputs":[],"name":"FailedInnerCall","type":"error"},{"inputs":[],"name":"InvalidAction","type":"error"},{"inputs":[{"internalType":"uint256","name":"maxNumBets","type":"uint256"}],"name":"InvalidNumBets","type":"error"},{"inputs":[{"internalType":"uint256","name":"required","type":"uint256"},{"internalType":"uint256","name":"sent","type":"uint256"}],"name":"InvalidValue","type":"error"},{"inputs":[],"name":"NotApprovedBankroll","type":"error"},{"inputs":[],"name":"NotAwaitingVRF","type":"error"},{"inputs":[{"internalType":"address","name":"want","type":"address"},{"internalType":"address","name":"have","type":"address"}],"name":"NotOwner","type":"error"},{"inputs":[{"internalType":"address","name":"have","type":"address"},{"internalType":"address","name":"want","type":"address"}],"name":"OnlyCoordinatorCanFulfill","type":"error"},{"inputs":[{"internalType":"uint256","name":"suspensionTime","type":"uint256"}],"name":"PlayerSuspended","type":"error"},{"inputs":[],"name":"RefundFailed","type":"error"},{"inputs":[{"internalType":"address","name":"token","type":"address"}],"name":"SafeERC20FailedOperation","type":"error"},{"inputs":[],"name":"TransferFailed","type":"error"},{"inputs":[{"internalType":"uint256","name":"wager","type":"uint256"},{"internalType":"uint256","name":"maxWager","type":"uint256"}],"name":"WagerAboveLimit","type":"error"},{"inputs":[],"name":"ZeroWager","type":"error"},{"anonymous":false,"inputs":[{"indexed":true,"internalType":"address","name":"playerAddress","type":"address"},{"indexed":false,"internalType":"uint256","name":"wager","type":"uint256"},{"indexed":false,"internalType":"uint256","name":"payout","type":"uint256"},{"indexed":false,"internalType":"address","name":"tokenAddress","type":"address"},{"indexed":false,"internalType":"uint8[]","name":"outcomes","type":"uint8[]"},{"indexed":false,"internalType":"uint8[]","name":"randomActions","type":"uint8[]"},{"indexed":false,"internalType":"uint256[]","name":"payouts","type":"uint256[]"},{"indexed":false,"internalType":"uint32","name":"numGames","type":"uint32"}],"name":"RockPaperScissors_Outcome_Event","type":"event"},{"anonymous":false,"inputs":[{"indexed":true,"internalType":"address","name":"playerAddress","type":"address"},{"indexed":false,"internalType":"uint256","name":"wager","type":"uint256"},{"indexed":false,"internalType":"address","name":"tokenAddress","type":"address"},{"indexed":false,"internalType":"uint8","name":"action","type":"uint8"},{"indexed":false,"internalType":"uint32","name":"numBets","type":"uint32"},{"indexed":false,"internalType":"uint256","name":"stopGain","type":"uint256"},{"indexed":false,"internalType":"uint256","name":"stopLoss","type":"uint256"},{"indexed":false,"internalType":"uint256","name":"VRFFee","type":"uint256"}],"name":"RockPaperScissors_Play_Event","type":"event"},{"anonymous":false,"inputs":[{"indexed":true,"internalType":"address","name":"player","type":"address"},{"indexed":false,"internalType":"uint256","name":"wager","type":"uint256"},{"indexed":false,"internalType":"address","name":"tokenAddress","type":"address"}],"name":"RockPaperScissors_Refund_Event","type":"event"},{"inputs":[],"name":"Bankroll","outputs":[{"internalType":"contract IBankRoll","name":"","type":"address"}],"stateMutability":"view","type":"function"},{"inputs":[],"name":"ChainLinkVRF","outputs":[{"internalType":"address","name":"","type":"address"}],"stateMutability":"view","type":"function"},{"inputs":[],"name":"IChainLinkVRF","outputs":[{"internalType":"contract IVRFCoordinatorV2","name":"","type":"address"}],"stateMutability":"view","type":"function"},{"inputs":[],"name":"LINK_ETH_FEED","outputs":[{"internalType":"contract AggregatorV3Interface","name":"","type":"address"}],"stateMutability":"view","type":"function"},{"inputs":[{"internalType":"address","name":"player","type":"address"}],"name":"RockPaperScissors_GetState","outputs":[{"components":[{"internalType":"uint256","name":"wager","type":"uint256"},{"internalType":"uint256","name":"stopGain","type":"uint256"},{"internalType":"uint256","name":"stopLoss","type":"uint256"},{"internalType":"uint256","name":"requestID","type":"uint256"},{"internalType":"address","name":"tokenAddress","type":"address"},{"internalType":"uint64","name":"blockNumber","type":"uint64"},{"internalType":"uint32","name":"numBets","type":"uint32"},{"internalType":"uint8","name":"action","type":"uint8"}],"internalType":"struct RockPaperScissors.RockPaperScissorsGame","name":"","type":"tuple"}],"stateMutability":"view","type":"function"},{"inputs":[{"internalType":"uint256","name":"wager","type":"uint256"},{"internalType":"address","name":"tokenAddress","type":"address"},{"internalType":"uint8","name":"action","type":"uint8"},{"internalType":"uint32","name":"numBets","type":"uint32"},{"internalType":"uint256","name":"stopGain","type":"uint256"},{"internalType":"uint256","name":"stopLoss","type":"uint256"}],"name":"RockPaperScissors_Play","outputs":[],"stateMutability":"payable","type":"function"},{"inputs":[],"name":"RockPaperScissors_Refund","outputs":[],"stateMutability":"nonpayable","type":"function"},{"inputs":[],"name":"VRFFees","outputs":[{"internalType":"uint256","name":"","type":"uint256"}],"stateMutability":"view","type":"function"},{"inputs":[],"name":"_trustedForwarder","outputs":[{"internalType":"address","name":"","type":"address"}],"stateMutability":"view","type":"function"},{"inputs":[{"internalType":"uint256","name":"gasAmount","type":"uint256"}],"name":"getVRFFee","outputs":[{"internalType":"uint256","name":"fee","type":"uint256"}],"stateMutability":"view","type":"function"},{"inputs":[{"internalType":"address","name":"forwarder","type":"address"}],"name":"isTrustedForwarder","outputs":[{"internalType":"bool","name":"","type":"bool"}],"stateMutability":"view","type":"function"},{"inputs":[{"internalType":"uint256","name":"requestId","type":"uint256"},{"internalType":"uint256[]","name":"randomWords","type":"uint256[]"}],"name":"rawFulfillRandomWords","outputs":[],"stateMutability":"nonpayable","type":"function"},{"inputs":[{"internalType":"address","name":"to","type":"address"}],"name":"transferFees","outputs":[],"stateMutability":"nonpayable","type":"function"}],"evm":{"bytecode":{"linkReferences":{},"object":"60806040523480156200001157600080fd5b5060405162003c8a38038062003c8a8339818101604052810190620000379190620001f8565b600160008190555083600660006101000a81548173ffffffffffffffffffffffffffffffffffffffff021916908373ffffffffffffffffffffffffffffffffffffffff16021790555082600560006101000a81548173ffffffffffffffffffffffffffffffffffffffff021916908373ffffffffffffffffffffffffffffffffffffffff16021790555081600460006101000a81548173ffffffffffffffffffffffffffffffffffffffff021916908373ffffffffffffffffffffffffffffffffffffffff16021790555082600260006101000a81548173ffffffffffffffffffffffffffffffffffffffff021916908373ffffffffffffffffffffffffffffffffffffffff16021790555080600360006101000a81548173ffffffffffffffffffffffffffffffffffffffff021916908373ffffffffffffffffffffffffffffffffffffffff160217905550505050506200026a565b600080fd5b600073ffffffffffffffffffffffffffffffffffffffff82169050919050565b6000620001c08262000193565b9050919050565b620001d281620001b3565b8114620001de57600080fd5b50565b600081519050620001f281620001c7565b92915050565b600080600080608085870312156200021557620002146200018e565b5b60006200022587828801620001e1565b94505060206200023887828801620001e1565b93505060406200024b87828801620001e1565b92505060606200025e87828801620001e1565b91505092959194509250565b613a10806200027a6000396000f3fe6080604052600436106100c25760003560e01c80638bd161141161007f578063ad17836111610059578063ad17836114610256578063cfea2f6f14610281578063d0bcfc0c146102be578063e18123c2146102e9576100c2565b80638bd16114146101c35780638d7c16d214610200578063953995ea1461022b576100c2565b80630f0aa179146100c75780631fe543e3146100de5780634dd189d51461010757806356c022bb14610132578063572b6c051461015d57806363dc4ef51461019a575b600080fd5b3480156100d357600080fd5b506100dc610305565b005b3480156100ea57600080fd5b5061010560048036038101906101009190612824565b610714565b005b34801561011357600080fd5b5061011c6107d8565b60405161012991906128ff565b60405180910390f35b34801561013e57600080fd5b506101476107fe565b604051610154919061293b565b60405180910390f35b34801561016957600080fd5b50610184600480360381019061017f9190612982565b610824565b60405161019191906129ca565b60405180910390f35b3480156101a657600080fd5b506101c160048036038101906101bc9190612982565b61087e565b005b3480156101cf57600080fd5b506101ea60048036038101906101e591906129e5565b610ad7565b6040516101f79190612a21565b60405180910390f35b34801561020c57600080fd5b50610215610c63565b6040516102229190612a21565b60405180910390f35b34801561023757600080fd5b50610240610c69565b60405161024d919061293b565b60405180910390f35b34801561026257600080fd5b5061026b610c8f565b6040516102789190612a5d565b60405180910390f35b34801561028d57600080fd5b506102a860048036038101906102a39190612982565b610cb5565b6040516102b59190612b96565b60405180910390f35b3480156102ca57600080fd5b506102d3610e02565b6040516102e09190612bd3565b60405180910390f35b61030360048036038101906102fe9190612c46565b610e28565b005b61030d611226565b6000610317611275565b90506000600760008373ffffffffffffffffffffffffffffffffffffffff1673ffffffffffffffffffffffffffffffffffffffff1681526020019081526020016000209050600081600301540361039a576040517f49050b3000000000000000000000000000000000000000000000000000000000815260040160405180910390fd5b43600a6103e88360040160149054906101000a900467ffffffffffffffff166103c39190612d02565b6103cd9190612d02565b67ffffffffffffffff16111561044d5743600a6103e88360040160149054906101000a900467ffffffffffffffff166104069190612d02565b6104109190612d02565b6040517fb4ae675a000000000000000000000000000000000000000000000000000000008152600401610444929190612d6f565b60405180910390fd5b600081600401601c9054906101000a900463ffffffff1663ffffffff1682600001546104799190612d98565b905060008260040160009054906101000a900473ffffffffffffffffffffffffffffffffffffffff169050600860008460030154815260200190815260200160002060006101000a81549073ffffffffffffffffffffffffffffffffffffffff0219169055600760008573ffffffffffffffffffffffffffffffffffffffff1673ffffffffffffffffffffffffffffffffffffffff1681526020019081526020016000206000808201600090556001820160009055600282016000905560038201600090556004820160006101000a81549073ffffffffffffffffffffffffffffffffffffffff02191690556004820160146101000a81549067ffffffffffffffff021916905560048201601c6101000a81549063ffffffff02191690556005820160006101000a81549060ff02191690555050600073ffffffffffffffffffffffffffffffffffffffff168173ffffffffffffffffffffffffffffffffffffffff160361068a5760008473ffffffffffffffffffffffffffffffffffffffff168360405161060790612e0b565b60006040518083038185875af1925050503d8060008114610644576040519150601f19603f3d011682016040523d82523d6000602084013e610649565b606091505b5050905080610684576040517f90b8ec1800000000000000000000000000000000000000000000000000000000815260040160405180910390fd5b506106b6565b6106b584838373ffffffffffffffffffffffffffffffffffffffff166112ac9092919063ffffffff16565b5b8373ffffffffffffffffffffffffffffffffffffffff167f1b240de49ea18064198efe2f74c6cc4fa4139464ff393208f8fa6aa81b07adb283836040516106fe929190612e20565b60405180910390a25050505061071261132b565b565b600260009054906101000a900473ffffffffffffffffffffffffffffffffffffffff1673ffffffffffffffffffffffffffffffffffffffff163373ffffffffffffffffffffffffffffffffffffffff16146107ca5733600260009054906101000a900473ffffffffffffffffffffffffffffffffffffffff166040517f1cf993f40000000000000000000000000000000000000000000000000000000081526004016107c1929190612e49565b60405180910390fd5b6107d48282611335565b5050565b600560009054906101000a900473ffffffffffffffffffffffffffffffffffffffff1681565b600360009054906101000a900473ffffffffffffffffffffffffffffffffffffffff1681565b6000600360009054906101000a900473ffffffffffffffffffffffffffffffffffffffff1673ffffffffffffffffffffffffffffffffffffffff168273ffffffffffffffffffffffffffffffffffffffff16149050919050565b610886611226565b600660009054906101000a900473ffffffffffffffffffffffffffffffffffffffff1673ffffffffffffffffffffffffffffffffffffffff1663893d20e86040518163ffffffff1660e01b8152600401602060405180830381865afa1580156108f3573d6000803e3d6000fd5b505050506040513d601f19601f820116820180604052508101906109179190612e87565b73ffffffffffffffffffffffffffffffffffffffff163373ffffffffffffffffffffffffffffffffffffffff1614610a1857600660009054906101000a900473ffffffffffffffffffffffffffffffffffffffff1673ffffffffffffffffffffffffffffffffffffffff1663893d20e86040518163ffffffff1660e01b8152600401602060405180830381865afa1580156109b6573d6000803e3d6000fd5b505050506040513d601f19601f820116820180604052508101906109da9190612e87565b336040517f23295f0e000000000000000000000000000000000000000000000000000000008152600401610a0f929190612e49565b60405180910390fd5b60006001549050600060018190555060008273ffffffffffffffffffffffffffffffffffffffff1682604051610a4d90612e0b565b60006040518083038185875af1925050503d8060008114610a8a576040519150601f19603f3d011682016040523d82523d6000602084013e610a8f565b606091505b5050905080610aca576040517f90b8ec1800000000000000000000000000000000000000000000000000000000815260040160405180910390fd5b5050610ad461132b565b50565b600080600460009054906101000a900473ffffffffffffffffffffffffffffffffffffffff1673ffffffffffffffffffffffffffffffffffffffff1663feaf968c6040518163ffffffff1660e01b815260040160a060405180830381865afa158015610b47573d6000803e3d6000fd5b505050506040513d601f19601f82011682018060405250810190610b6b9190612f41565b5050509150506000600560009054906101000a900473ffffffffffffffffffffffffffffffffffffffff1673ffffffffffffffffffffffffffffffffffffffff16635fbbc0d26040518163ffffffff1660e01b815260040161012060405180830381865afa158015610be1573d6000803e3d6000fd5b505050506040513d601f19601f82011682018060405250810190610c05919061300c565b50505050505050509050670de0b6b3a7640000828263ffffffff1664e8d4a51000610c309190612d98565b610c3a9190612d98565b610c449190613105565b843a610c509190612d98565b610c5a9190613136565b92505050919050565b60015481565b600260009054906101000a900473ffffffffffffffffffffffffffffffffffffffff1681565b600460009054906101000a900473ffffffffffffffffffffffffffffffffffffffff1681565b610cbd612613565b600760008373ffffffffffffffffffffffffffffffffffffffff1673ffffffffffffffffffffffffffffffffffffffff16815260200190815260200160002060405180610100016040529081600082015481526020016001820154815260200160028201548152602001600382015481526020016004820160009054906101000a900473ffffffffffffffffffffffffffffffffffffffff1673ffffffffffffffffffffffffffffffffffffffff1673ffffffffffffffffffffffffffffffffffffffff1681526020016004820160149054906101000a900467ffffffffffffffff1667ffffffffffffffff1667ffffffffffffffff16815260200160048201601c9054906101000a900463ffffffff1663ffffffff1663ffffffff1681526020016005820160009054906101000a900460ff1660ff1660ff16815250509050919050565b600660009054906101000a900473ffffffffffffffffffffffffffffffffffffffff1681565b610e30611226565b6000610e3a611275565b905060038560ff1610610e79576040517f4a7f394f00000000000000000000000000000000000000000000000000000000815260040160405180910390fd5b6000600760008373ffffffffffffffffffffffffffffffffffffffff1673ffffffffffffffffffffffffffffffffffffffff1681526020019081526020016000206003015414610f4257600760008273ffffffffffffffffffffffffffffffffffffffff1673ffffffffffffffffffffffffffffffffffffffff168152602001908152602001600020600301546040517f440db96e000000000000000000000000000000000000000000000000000000008152600401610f399190612a21565b60405180910390fd5b60008463ffffffff16118015610f5f575060648463ffffffff1611155b610fa15760646040517f93107491000000000000000000000000000000000000000000000000000000008152600401610f9891906131a5565b60405180910390fd5b610fab8787611a5a565b6000610fcd878663ffffffff168a610fc39190612d98565b6210c8e085611bde565b90506000610fda86611f3f565b90506040518061010001604052808a81526020018681526020018581526020018281526020018973ffffffffffffffffffffffffffffffffffffffff1681526020014367ffffffffffffffff1681526020018763ffffffff1681526020018860ff16815250600760008573ffffffffffffffffffffffffffffffffffffffff1673ffffffffffffffffffffffffffffffffffffffff1681526020019081526020016000206000820151816000015560208201518160010155604082015181600201556060820151816003015560808201518160040160006101000a81548173ffffffffffffffffffffffffffffffffffffffff021916908373ffffffffffffffffffffffffffffffffffffffff16021790555060a08201518160040160146101000a81548167ffffffffffffffff021916908367ffffffffffffffff16021790555060c082015181600401601c6101000a81548163ffffffff021916908363ffffffff16021790555060e08201518160050160006101000a81548160ff021916908360ff160217905550905050826008600083815260200190815260200160002060006101000a81548173ffffffffffffffffffffffffffffffffffffffff021916908373ffffffffffffffffffffffffffffffffffffffff1602179055508273ffffffffffffffffffffffffffffffffffffffff167f7d6b56cb76818195a870ec527ceb91f32d9d20269efe736561277d5a0d5227dc8a8a8a8a8a8a8960405161120b97969594939291906131de565b60405180910390a250505061121e61132b565b505050505050565b60026000540361126b576040517f08c379a0000000000000000000000000000000000000000000000000000000008152600401611262906132aa565b60405180910390fd5b6002600081905550565b60006014600036905010158015611291575061129033610824565b5b156112a557601436033560601c90506112a9565b3390505b90565b611326838473ffffffffffffffffffffffffffffffffffffffff1663a9059cbb85856040516024016112df9291906132ca565b604051602081830303815290604052915060e01b6020820180517bffffffffffffffffffffffffffffffffffffffffffffffffffffffff8381831617835250505050612014565b505050565b6001600081905550565b60006008600084815260200190815260200160002060009054906101000a900473ffffffffffffffffffffffffffffffffffffffff169050600073ffffffffffffffffffffffffffffffffffffffff168173ffffffffffffffffffffffffffffffffffffffff16036113a657600080fd5b6000600760008373ffffffffffffffffffffffffffffffffffffffff1673ffffffffffffffffffffffffffffffffffffffff16815260200190815260200160002090506103e88160040160149054906101000a900467ffffffffffffffff1661140f9190612d02565b67ffffffffffffffff1643111561142557600080fd5b600081600401601c9054906101000a900463ffffffff1663ffffffff1667ffffffffffffffff81111561145b5761145a6126e1565b5b6040519080825280602002602001820160405280156114895781602001602082028036833780820191505090505b509050600082600401601c9054906101000a900463ffffffff1663ffffffff1667ffffffffffffffff8111156114c2576114c16126e1565b5b6040519080825280602002602001820160405280156114f05781602001602082028036833780820191505090505b509050600083600401601c9054906101000a900463ffffffff1663ffffffff1667ffffffffffffffff811115611529576115286126e1565b5b6040519080825280602002602001820160405280156115575781602001602082028036833780820191505090505b5090506000806000808760040160009054906101000a900473ffffffffffffffffffffffffffffffffffffffff169050600091505b87600401601c9054906101000a900463ffffffff1663ffffffff168263ffffffff16101561183d57876001015484121561183d5787600201546115ce906132f3565b84131561183d5760038a8363ffffffff16815181106115f0576115ef61333b565b5b6020026020010151611602919061336a565b878363ffffffff168151811061161b5761161a61333b565b5b602002602001019060ff16908160ff168152505061166a8860050160009054906101000a900460ff16888463ffffffff168151811061165d5761165c61333b565b5b60200260200101516120ab565b868363ffffffff16815181106116835761168261333b565b5b602002602001019060ff16908160ff16815250506002868363ffffffff16815181106116b2576116b161333b565b5b602002602001015160ff1603611751576064606389600001546116d59190612d98565b6116df9190613105565b836116ea9190613136565b9250606488600001546116fd9190613105565b84611708919061339b565b935060646063896000015461171d9190612d98565b6117279190613105565b858363ffffffff16815181106117405761173f61333b565b5b60200260200101818152505061182a565b6001868363ffffffff168151811061176c5761176b61333b565b5b602002602001015160ff160361181757606460c6896000015461178f9190612d98565b6117999190613105565b836117a49190613136565b92506064606289600001546117b99190612d98565b6117c39190613105565b846117ce91906133de565b9350606460c689600001546117e39190612d98565b6117ed9190613105565b858363ffffffff16815181106118065761180561333b565b5b60200260200101818152505061182a565b876000015484611827919061339b565b93505b818061183590613422565b92505061158c565b87600001548289600401601c9054906101000a900463ffffffff16611862919061344e565b63ffffffff166118729190612d98565b8361187d9190613136565b92508873ffffffffffffffffffffffffffffffffffffffff167f10926c19b020b305e529b4fbe64764ce71360378f742c3e3d04e62d586bf9c0e8960000154858b60040160009054906101000a900473ffffffffffffffffffffffffffffffffffffffff168a8c8b896040516118f997969594939291906135e4565b60405180910390a26119348189600401601c9054906101000a900463ffffffff1663ffffffff168a6000015461192f9190612d98565b612142565b600860008c815260200190815260200160002060006101000a81549073ffffffffffffffffffffffffffffffffffffffff0219169055600760008a73ffffffffffffffffffffffffffffffffffffffff1673ffffffffffffffffffffffffffffffffffffffff1681526020019081526020016000206000808201600090556001820160009055600282016000905560038201600090556004820160006101000a81549073ffffffffffffffffffffffffffffffffffffffff02191690556004820160146101000a81549067ffffffffffffffff021916905560048201601c6101000a81549063ffffffff02191690556005820160006101000a81549060ff0219169055505060008314611a4d57611a4c898483612293565b5b5050505050505050505050565b60008073ffffffffffffffffffffffffffffffffffffffff168273ffffffffffffffffffffffffffffffffffffffff1603611ad057600660009054906101000a900473ffffffffffffffffffffffffffffffffffffffff1673ffffffffffffffffffffffffffffffffffffffff16319050611b6f565b8173ffffffffffffffffffffffffffffffffffffffff166370a08231600660009054906101000a900473ffffffffffffffffffffffffffffffffffffffff166040518263ffffffff1660e01b8152600401611b2b919061293b565b602060405180830381865afa158015611b48573d6000803e3d6000fd5b505050506040513d601f19601f82011682018060405250810190611b6c9190613668565b90505b60006305f5e1006219b0ad83611b859190612d98565b611b8f9190613105565b905080841115611bd85783816040517fd53662aa000000000000000000000000000000000000000000000000000000008152600401611bcf929190613695565b60405180910390fd5b50505050565b6000600660009054906101000a900473ffffffffffffffffffffffffffffffffffffffff1673ffffffffffffffffffffffffffffffffffffffff1663bfd7f9cc30876040518363ffffffff1660e01b8152600401611c3d929190612e49565b602060405180830381865afa158015611c5a573d6000803e3d6000fd5b505050506040513d601f19601f82011682018060405250810190611c7e91906136ea565b611cb4576040517f51c3b94f00000000000000000000000000000000000000000000000000000000815260040160405180910390fd5b60008403611cee576040517f07375c8400000000000000000000000000000000000000000000000000000000815260040160405180910390fd5b600080600660009054906101000a900473ffffffffffffffffffffffffffffffffffffffff1673ffffffffffffffffffffffffffffffffffffffff16630a5748a8856040518263ffffffff1660e01b8152600401611d4c919061293b565b6040805180830381865afa158015611d68573d6000803e3d6000fd5b505050506040513d601f19601f82011682018060405250810190611d8c9190613717565b915091508115611dd357806040517f6c2775f5000000000000000000000000000000000000000000000000000000008152600401611dca9190612a21565b60405180910390fd5b611ddc85610ad7565b9250600073ffffffffffffffffffffffffffffffffffffffff168773ffffffffffffffffffffffffffffffffffffffff1603611e93578286611e1e9190613136565b341015611e6f578286611e319190613136565b346040517fde9b74a1000000000000000000000000000000000000000000000000000000008152600401611e66929190613695565b60405180910390fd5b611e8e8684611e7e9190613136565b34611e899190613757565b612329565b611f1c565b82341015611eda5782346040517fde9b74a1000000000000000000000000000000000000000000000000000000008152600401611ed1929190613695565b60405180910390fd5b611f078430888a73ffffffffffffffffffffffffffffffffffffffff166123da909392919063ffffffff16565b611f1b8334611f169190613757565b612329565b5b8260016000828254611f2e9190613136565b925050819055505050949350505050565b6000600260009054906101000a900473ffffffffffffffffffffffffffffffffffffffff1673ffffffffffffffffffffffffffffffffffffffff16635d3b1d307fd729dc84e21ae57ffb6be0053bf2b0668aa2aaf300a2a7b2ddf7dc0bb6e875a86102406003622625a0876040518663ffffffff1660e01b8152600401611fca95949392919061389c565b6020604051808303816000875af1158015611fe9573d6000803e3d6000fd5b505050506040513d601f19601f8201168201806040525081019061200d9190613668565b9050919050565b600061203f828473ffffffffffffffffffffffffffffffffffffffff1661245c90919063ffffffff16565b9050600081511415801561206457508080602001905181019061206291906136ea565b155b156120a657826040517f5274afe700000000000000000000000000000000000000000000000000000000815260040161209d919061293b565b60405180910390fd5b505050565b60008160ff168360ff16036120c3576002905061213c565b60008360ff16036120eb5760018260ff16036120e2576000905061213c565b6001905061213c565b60018360ff16036121135760028260ff160361210a576000905061213c565b6001905061213c565b60028360ff160361213b5760008260ff1603612132576000905061213c565b6001905061213c565b5b92915050565b600073ffffffffffffffffffffffffffffffffffffffff168273ffffffffffffffffffffffffffffffffffffffff1603612241576000600660009054906101000a900473ffffffffffffffffffffffffffffffffffffffff1673ffffffffffffffffffffffffffffffffffffffff16826040516121be90612e0b565b60006040518083038185875af1925050503d80600081146121fb576040519150601f19603f3d011682016040523d82523d6000602084013e612200565b606091505b505090508061223b576040517ff0c49d4400000000000000000000000000000000000000000000000000000000815260040160405180910390fd5b5061228f565b61228e600660009054906101000a900473ffffffffffffffffffffffffffffffffffffffff16828473ffffffffffffffffffffffffffffffffffffffff166112ac9092919063ffffffff16565b5b5050565b600660009054906101000a900473ffffffffffffffffffffffffffffffffffffffff1673ffffffffffffffffffffffffffffffffffffffff16636c025ec28484846040518463ffffffff1660e01b81526004016122f2939291906138ef565b600060405180830381600087803b15801561230c57600080fd5b505af1158015612320573d6000803e3d6000fd5b50505050505050565b60008103156123d75760003373ffffffffffffffffffffffffffffffffffffffff168260405161235890612e0b565b60006040518083038185875af1925050503d8060008114612395576040519150601f19603f3d011682016040523d82523d6000602084013e61239a565b606091505b50509050806123d5576040517ff0c49d4400000000000000000000000000000000000000000000000000000000815260040160405180910390fd5b505b50565b612456848573ffffffffffffffffffffffffffffffffffffffff166323b872dd86868660405160240161240f93929190613926565b604051602081830303815290604052915060e01b6020820180517bffffffffffffffffffffffffffffffffffffffffffffffffffffffff8381831617835250505050612014565b50505050565b606061246a83836000612472565b905092915050565b6060814710156124b957306040517fcd7860590000000000000000000000000000000000000000000000000000000081526004016124b0919061293b565b60405180910390fd5b6000808573ffffffffffffffffffffffffffffffffffffffff1684866040516124e291906139c3565b60006040518083038185875af1925050503d806000811461251f576040519150601f19603f3d011682016040523d82523d6000602084013e612524565b606091505b509150915061253486838361253f565b925050509392505050565b6060826125545761254f826125ce565b6125c6565b6000825114801561257c575060008473ffffffffffffffffffffffffffffffffffffffff163b145b156125be57836040517f9996b3150000000000000000000000000000000000000000000000000000000081526004016125b5919061293b565b60405180910390fd5b8190506125c7565b5b9392505050565b6000815111156125e15780518082602001fd5b6040517f1425ea4200000000000000000000000000000000000000000000000000000000815260040160405180910390fd5b60405180610100016040528060008152602001600081526020016000815260200160008152602001600073ffffffffffffffffffffffffffffffffffffffff168152602001600067ffffffffffffffff168152602001600063ffffffff168152602001600060ff1681525090565b6000604051905090565b600080fd5b600080fd5b6000819050919050565b6126a881612695565b81146126b357600080fd5b50565b6000813590506126c58161269f565b92915050565b600080fd5b6000601f19601f8301169050919050565b7f4e487b7100000000000000000000000000000000000000000000000000000000600052604160045260246000fd5b612719826126d0565b810181811067ffffffffffffffff82111715612738576127376126e1565b5b80604052505050565b600061274b612681565b90506127578282612710565b919050565b600067ffffffffffffffff821115612777576127766126e1565b5b602082029050602081019050919050565b600080fd5b60006127a061279b8461275c565b612741565b905080838252602082019050602084028301858111156127c3576127c2612788565b5b835b818110156127ec57806127d888826126b6565b8452602084019350506020810190506127c5565b5050509392505050565b600082601f83011261280b5761280a6126cb565b5b813561281b84826020860161278d565b91505092915050565b6000806040838503121561283b5761283a61268b565b5b6000612849858286016126b6565b925050602083013567ffffffffffffffff81111561286a57612869612690565b5b612876858286016127f6565b9150509250929050565b600073ffffffffffffffffffffffffffffffffffffffff82169050919050565b6000819050919050565b60006128c56128c06128bb84612880565b6128a0565b612880565b9050919050565b60006128d7826128aa565b9050919050565b60006128e9826128cc565b9050919050565b6128f9816128de565b82525050565b600060208201905061291460008301846128f0565b92915050565b600061292582612880565b9050919050565b6129358161291a565b82525050565b6000602082019050612950600083018461292c565b92915050565b61295f8161291a565b811461296a57600080fd5b50565b60008135905061297c81612956565b92915050565b6000602082840312156129985761299761268b565b5b60006129a68482850161296d565b91505092915050565b60008115159050919050565b6129c4816129af565b82525050565b60006020820190506129df60008301846129bb565b92915050565b6000602082840312156129fb576129fa61268b565b5b6000612a09848285016126b6565b91505092915050565b612a1b81612695565b82525050565b6000602082019050612a366000830184612a12565b92915050565b6000612a47826128cc565b9050919050565b612a5781612a3c565b82525050565b6000602082019050612a726000830184612a4e565b92915050565b612a8181612695565b82525050565b612a908161291a565b82525050565b600067ffffffffffffffff82169050919050565b612ab381612a96565b82525050565b600063ffffffff82169050919050565b612ad281612ab9565b82525050565b600060ff82169050919050565b612aee81612ad8565b82525050565b61010082016000820151612b0b6000850182612a78565b506020820151612b1e6020850182612a78565b506040820151612b316040850182612a78565b506060820151612b446060850182612a78565b506080820151612b576080850182612a87565b5060a0820151612b6a60a0850182612aaa565b5060c0820151612b7d60c0850182612ac9565b5060e0820151612b9060e0850182612ae5565b50505050565b600061010082019050612bac6000830184612af4565b92915050565b6000612bbd826128cc565b9050919050565b612bcd81612bb2565b82525050565b6000602082019050612be86000830184612bc4565b92915050565b612bf781612ad8565b8114612c0257600080fd5b50565b600081359050612c1481612bee565b92915050565b612c2381612ab9565b8114612c2e57600080fd5b50565b600081359050612c4081612c1a565b92915050565b60008060008060008060c08789031215612c6357612c6261268b565b5b6000612c7189828a016126b6565b9650506020612c8289828a0161296d565b9550506040612c9389828a01612c05565b9450506060612ca489828a01612c31565b9350506080612cb589828a016126b6565b92505060a0612cc689828a016126b6565b9150509295509295509295565b7f4e487b7100000000000000000000000000000000000000000000000000000000600052601160045260246000fd5b6000612d0d82612a96565b9150612d1883612a96565b9250828201905067ffffffffffffffff811115612d3857612d37612cd3565b5b92915050565b6000612d59612d54612d4f84612a96565b6128a0565b612695565b9050919050565b612d6981612d3e565b82525050565b6000604082019050612d846000830185612a12565b612d916020830184612d60565b9392505050565b6000612da382612695565b9150612dae83612695565b9250828202612dbc81612695565b91508282048414831517612dd357612dd2612cd3565b5b5092915050565b600081905092915050565b50565b6000612df5600083612dda565b9150612e0082612de5565b600082019050919050565b6000612e1682612de8565b9150819050919050565b6000604082019050612e356000830185612a12565b612e42602083018461292c565b9392505050565b6000604082019050612e5e600083018561292c565b612e6b602083018461292c565b9392505050565b600081519050612e8181612956565b92915050565b600060208284031215612e9d57612e9c61268b565b5b6000612eab84828501612e72565b91505092915050565b600069ffffffffffffffffffff82169050919050565b612ed381612eb4565b8114612ede57600080fd5b50565b600081519050612ef081612eca565b92915050565b6000819050919050565b612f0981612ef6565b8114612f1457600080fd5b50565b600081519050612f2681612f00565b92915050565b600081519050612f3b8161269f565b92915050565b600080600080600060a08688031215612f5d57612f5c61268b565b5b6000612f6b88828901612ee1565b9550506020612f7c88828901612f17565b9450506040612f8d88828901612f2c565b9350506060612f9e88828901612f2c565b9250506080612faf88828901612ee1565b9150509295509295909350565b600081519050612fcb81612c1a565b92915050565b600062ffffff82169050919050565b612fe981612fd1565b8114612ff457600080fd5b50565b60008151905061300681612fe0565b92915050565b60008060008060008060008060006101208a8c03121561302f5761302e61268b565b5b600061303d8c828d01612fbc565b995050602061304e8c828d01612fbc565b985050604061305f8c828d01612fbc565b97505060606130708c828d01612fbc565b96505060806130818c828d01612fbc565b95505060a06130928c828d01612ff7565b94505060c06130a38c828d01612ff7565b93505060e06130b48c828d01612ff7565b9250506101006130c68c828d01612ff7565b9150509295985092959850929598565b7f4e487b7100000000000000000000000000000000000000000000000000000000600052601260045260246000fd5b600061311082612695565b915061311b83612695565b92508261312b5761312a6130d6565b5b828204905092915050565b600061314182612695565b915061314c83612695565b925082820190508082111561316457613163612cd3565b5b92915050565b6000819050919050565b600061318f61318a6131858461316a565b6128a0565b612695565b9050919050565b61319f81613174565b82525050565b60006020820190506131ba6000830184613196565b92915050565b6131c981612ad8565b82525050565b6131d881612ab9565b82525050565b600060e0820190506131f3600083018a612a12565b613200602083018961292c565b61320d60408301886131c0565b61321a60608301876131cf565b6132276080830186612a12565b61323460a0830185612a12565b61324160c0830184612a12565b98975050505050505050565b600082825260208201905092915050565b7f5265656e7472616e637947756172643a207265656e7472616e742063616c6c00600082015250565b6000613294601f8361324d565b915061329f8261325e565b602082019050919050565b600060208201905081810360008301526132c381613287565b9050919050565b60006040820190506132df600083018561292c565b6132ec6020830184612a12565b9392505050565b60006132fe82612ef6565b91507f800000000000000000000000000000000000000000000000000000000000000082036133305761332f612cd3565b5b816000039050919050565b7f4e487b7100000000000000000000000000000000000000000000000000000000600052603260045260246000fd5b600061337582612695565b915061338083612695565b9250826133905761338f6130d6565b5b828206905092915050565b60006133a682612ef6565b91506133b183612ef6565b92508282039050818112600084121682821360008512151617156133d8576133d7612cd3565b5b92915050565b60006133e982612ef6565b91506133f483612ef6565b92508282019050828112156000831216838212600084121516171561341c5761341b612cd3565b5b92915050565b600061342d82612ab9565b915063ffffffff820361344357613442612cd3565b5b600182019050919050565b600061345982612ab9565b915061346483612ab9565b9250828203905063ffffffff8111156134805761347f612cd3565b5b92915050565b600081519050919050565b600082825260208201905092915050565b6000819050602082019050919050565b60006134be8383612ae5565b60208301905092915050565b6000602082019050919050565b60006134e282613486565b6134ec8185613491565b93506134f7836134a2565b8060005b8381101561352857815161350f88826134b2565b975061351a836134ca565b9250506001810190506134fb565b5085935050505092915050565b600081519050919050565b600082825260208201905092915050565b6000819050602082019050919050565b600061356d8383612a78565b60208301905092915050565b6000602082019050919050565b600061359182613535565b61359b8185613540565b93506135a683613551565b8060005b838110156135d75781516135be8882613561565b97506135c983613579565b9250506001810190506135aa565b5085935050505092915050565b600060e0820190506135f9600083018a612a12565b6136066020830189612a12565b613613604083018861292c565b818103606083015261362581876134d7565b9050818103608083015261363981866134d7565b905081810360a083015261364d8185613586565b905061365c60c08301846131cf565b98975050505050505050565b60006020828403121561367e5761367d61268b565b5b600061368c84828501612f2c565b91505092915050565b60006040820190506136aa6000830185612a12565b6136b76020830184612a12565b9392505050565b6136c7816129af565b81146136d257600080fd5b50565b6000815190506136e4816136be565b92915050565b600060208284031215613700576136ff61268b565b5b600061370e848285016136d5565b91505092915050565b6000806040838503121561372e5761372d61268b565b5b600061373c858286016136d5565b925050602061374d85828601612f2c565b9150509250929050565b600061376282612695565b915061376d83612695565b925082820390508181111561378557613784612cd3565b5b92915050565b6000819050919050565b6000819050919050565b60008160001b9050919050565b60006137c76137c26137bd8461378b565b61379f565b613795565b9050919050565b6137d7816137ac565b82525050565b6000819050919050565b60006138026137fd6137f8846137dd565b6128a0565b612a96565b9050919050565b613812816137e7565b82525050565b6000819050919050565b600061ffff82169050919050565b600061384b61384661384184613818565b6128a0565b613822565b9050919050565b61385b81613830565b82525050565b6000819050919050565b600061388661388161387c84613861565b6128a0565b612ab9565b9050919050565b6138968161386b565b82525050565b600060a0820190506138b160008301886137ce565b6138be6020830187613809565b6138cb6040830186613852565b6138d8606083018561388d565b6138e560808301846131cf565b9695505050505050565b6000606082019050613904600083018661292c565b6139116020830185612a12565b61391e604083018461292c565b949350505050565b600060608201905061393b600083018661292c565b613948602083018561292c565b6139556040830184612a12565b949350505050565b600081519050919050565b60005b8381101561398657808201518184015260208101905061396b565b60008484015250505050565b600061399d8261395d565b6139a78185612dda565b93506139b7818560208601613968565b80840191505092915050565b60006139cf8284613992565b91508190509291505056fea26469706673582212205cbf3601457867da2765239b2269722d43e99a6f8f80bd96522349f885c4a47864736f6c63430008140033","opcodes":"PUSH1 0x80 PUSH1 0x40 MSTORE CALLVALUE DUP1 ISZERO PUSH3 0x11 JUMPI PUSH1 0x0 DUP1 REVERT JUMPDEST POP PUSH1 0x40 MLOAD PUSH3 0x3C8A CODESIZE SUB DUP1 PUSH3 0x3C8A DUP4 CODECOPY DUP2 DUP2 ADD PUSH1 0x40 MSTORE DUP2 ADD SWAP1 PUSH3 0x37 SWAP2 SWAP1 PUSH3 0x1F8 JUMP JUMPDEST PUSH1 0x1 PUSH1 0x0 DUP2 SWAP1 SSTORE POP DUP4 PUSH1 0x6 PUSH1 0x0 PUSH2 0x100 EXP DUP2 SLOAD DUP2 PUSH20 0xFFFFFFFFFFFFFFFFFFFFFFFFFFFFFFFFFFFFFFFF MUL NOT AND SWAP1 DUP4 PUSH20 0xFFFFFFFFFFFFFFFFFFFFFFFFFFFFFFFFFFFFFFFF AND MUL OR SWAP1 SSTORE POP DUP3 PUSH1 0x5 PUSH1 0x0 PUSH2 0x100 EXP DUP2 SLOAD DUP2 PUSH20 0xFFFFFFFFFFFFFFFFFFFFFFFFFFFFFFFFFFFFFFFF MUL NOT AND SWAP1 DUP4 PUSH20 0xFFFFFFFFFFFFFFFFFFFFFFFFFFFFFFFFFFFFFFFF AND MUL OR SWAP1 SSTORE POP DUP2 PUSH1 0x4 PUSH1 0x0 PUSH2 0x100 EXP DUP2 SLOAD DUP2 PUSH20 0xFFFFFFFFFFFFFFFFFFFFFFFFFFFFFFFFFFFFFFFF MUL NOT AND SWAP1 DUP4 PUSH20 0xFFFFFFFFFFFFFFFFFFFFFFFFFFFFFFFFFFFFFFFF AND MUL OR SWAP1 SSTORE POP DUP3 PUSH1 0x2 PUSH1 0x0 PUSH2 0x100 EXP DUP2 SLOAD DUP2 PUSH20 0xFFFFFFFFFFFFFFFFFFFFFFFFFFFFFFFFFFFFFFFF MUL NOT AND SWAP1 DUP4 PUSH20 0xFFFFFFFFFFFFFFFFFFFFFFFFFFFFFFFFFFFFFFFF AND MUL OR SWAP1 SSTORE POP DUP1 PUSH1 0x3 PUSH1 0x0 PUSH2 0x100 EXP DUP2 SLOAD DUP2 PUSH20 0xFFFFFFFFFFFFFFFFFFFFFFFFFFFFFFFFFFFFFFFF MUL NOT AND SWAP1 DUP4 PUSH20 0xFFFFFFFFFFFFFFFFFFFFFFFFFFFFFFFFFFFFFFFF AND MUL OR SWAP1 SSTORE POP POP POP POP POP PUSH3 0x26A JUMP JUMPDEST PUSH1 0x0 DUP1 REVERT JUMPDEST PUSH1 0x0 PUSH20 0xFFFFFFFFFFFFFFFFFFFFFFFFFFFFFFFFFFFFFFFF DUP3 AND SWAP1 POP SWAP2 SWAP1 POP JUMP JUMPDEST PUSH1 0x0 PUSH3 0x1C0 DUP3 PUSH3 0x193 JUMP JUMPDEST SWAP1 POP SWAP2 SWAP1 POP JUMP JUMPDEST PUSH3 0x1D2 DUP2 PUSH3 0x1B3 JUMP JUMPDEST DUP2 EQ PUSH3 0x1DE JUMPI PUSH1 0x0 DUP1 REVERT JUMPDEST POP JUMP JUMPDEST PUSH1 0x0 DUP2 MLOAD SWAP1 POP PUSH3 0x1F2 DUP2 PUSH3 0x1C7 JUMP JUMPDEST SWAP3 SWAP2 POP POP JUMP JUMPDEST PUSH1 0x0 DUP1 PUSH1 0x0 DUP1 PUSH1 0x80 DUP6 DUP8 SUB SLT ISZERO PUSH3 0x215 JUMPI PUSH3 0x214 PUSH3 0x18E JUMP JUMPDEST JUMPDEST PUSH1 0x0 PUSH3 0x225 DUP8 DUP3 DUP9 ADD PUSH3 0x1E1 JUMP JUMPDEST SWAP5 POP POP PUSH1 0x20 PUSH3 0x238 DUP8 DUP3 DUP9 ADD PUSH3 0x1E1 JUMP JUMPDEST SWAP4 POP POP PUSH1 0x40 PUSH3 0x24B DUP8 DUP3 DUP9 ADD PUSH3 0x1E1 JUMP JUMPDEST SWAP3 POP POP PUSH1 0x60 PUSH3 0x25E DUP8 DUP3 DUP9 ADD PUSH3 0x1E1 JUMP JUMPDEST SWAP2 POP POP SWAP3 SWAP6 SWAP2 SWAP5 POP SWAP3 POP JUMP JUMPDEST PUSH2 0x3A10 DUP1 PUSH3 0x27A PUSH1 0x0 CODECOPY PUSH1 0x0 RETURN INVALID PUSH1 0x80 PUSH1 0x40 MSTORE PUSH1 0x4 CALLDATASIZE LT PUSH2 0xC2 JUMPI PUSH1 0x0 CALLDATALOAD PUSH1 0xE0 SHR DUP1 PUSH4 0x8BD16114 GT PUSH2 0x7F JUMPI DUP1 PUSH4 0xAD178361 GT PUSH2 0x59 JUMPI DUP1 PUSH4 0xAD178361 EQ PUSH2 0x256 JUMPI DUP1 PUSH4 0xCFEA2F6F EQ PUSH2 0x281 JUMPI DUP1 PUSH4 0xD0BCFC0C EQ PUSH2 0x2BE JUMPI DUP1 PUSH4 0xE18123C2 EQ PUSH2 0x2E9 JUMPI PUSH2 0xC2 JUMP JUMPDEST DUP1 PUSH4 0x8BD16114 EQ PUSH2 0x1C3 JUMPI DUP1 PUSH4 0x8D7C16D2 EQ PUSH2 0x200 JUMPI DUP1 PUSH4 0x953995EA EQ PUSH2 0x22B JUMPI PUSH2 0xC2 JUMP JUMPDEST DUP1 PUSH4 0xF0AA179 EQ PUSH2 0xC7 JUMPI DUP1 PUSH4 0x1FE543E3 EQ PUSH2 0xDE JUMPI DUP1 PUSH4 0x4DD189D5 EQ PUSH2 0x107 JUMPI DUP1 PUSH4 0x56C022BB EQ PUSH2 0x132 JUMPI DUP1 PUSH4 0x572B6C05 EQ PUSH2 0x15D JUMPI DUP1 PUSH4 0x63DC4EF5 EQ PUSH2 0x19A JUMPI JUMPDEST PUSH1 0x0 DUP1 REVERT JUMPDEST CALLVALUE DUP1 ISZERO PUSH2 0xD3 JUMPI PUSH1 0x0 DUP1 REVERT JUMPDEST POP PUSH2 0xDC PUSH2 0x305 JUMP JUMPDEST STOP JUMPDEST CALLVALUE DUP1 ISZERO PUSH2 0xEA JUMPI PUSH1 0x0 DUP1 REVERT JUMPDEST POP PUSH2 0x105 PUSH1 0x4 DUP1 CALLDATASIZE SUB DUP2 ADD SWAP1 PUSH2 0x100 SWAP2 SWAP1 PUSH2 0x2824 JUMP JUMPDEST PUSH2 0x714 JUMP JUMPDEST STOP JUMPDEST CALLVALUE DUP1 ISZERO PUSH2 0x113 JUMPI PUSH1 0x0 DUP1 REVERT JUMPDEST POP PUSH2 0x11C PUSH2 0x7D8 JUMP JUMPDEST PUSH1 0x40 MLOAD PUSH2 0x129 SWAP2 SWAP1 PUSH2 0x28FF JUMP JUMPDEST PUSH1 0x40 MLOAD DUP1 SWAP2 SUB SWAP1 RETURN JUMPDEST CALLVALUE DUP1 ISZERO PUSH2 0x13E JUMPI PUSH1 0x0 DUP1 REVERT JUMPDEST POP PUSH2 0x147 PUSH2 0x7FE JUMP JUMPDEST PUSH1 0x40 MLOAD PUSH2 0x154 SWAP2 SWAP1 PUSH2 0x293B JUMP JUMPDEST PUSH1 0x40 MLOAD DUP1 SWAP2 SUB SWAP1 RETURN JUMPDEST CALLVALUE DUP1 ISZERO PUSH2 0x169 JUMPI PUSH1 0x0 DUP1 REVERT JUMPDEST POP PUSH2 0x184 PUSH1 0x4 DUP1 CALLDATASIZE SUB DUP2 ADD SWAP1 PUSH2 0x17F SWAP2 SWAP1 PUSH2 0x2982 JUMP JUMPDEST PUSH2 0x824 JUMP JUMPDEST PUSH1 0x40 MLOAD PUSH2 0x191 SWAP2 SWAP1 PUSH2 0x29CA JUMP JUMPDEST PUSH1 0x40 MLOAD DUP1 SWAP2 SUB SWAP1 RETURN JUMPDEST CALLVALUE DUP1 ISZERO PUSH2 0x1A6 JUMPI PUSH1 0x0 DUP1 REVERT JUMPDEST POP PUSH2 0x1C1 PUSH1 0x4 DUP1 CALLDATASIZE SUB DUP2 ADD SWAP1 PUSH2 0x1BC SWAP2 SWAP1 PUSH2 0x2982 JUMP JUMPDEST PUSH2 0x87E JUMP JUMPDEST STOP JUMPDEST CALLVALUE DUP1 ISZERO PUSH2 0x1CF JUMPI PUSH1 0x0 DUP1 REVERT JUMPDEST POP PUSH2 0x1EA PUSH1 0x4 DUP1 CALLDATASIZE SUB DUP2 ADD SWAP1 PUSH2 0x1E5 SWAP2 SWAP1 PUSH2 0x29E5 JUMP JUMPDEST PUSH2 0xAD7 JUMP JUMPDEST PUSH1 0x40 MLOAD PUSH2 0x1F7 SWAP2 SWAP1 PUSH2 0x2A21 JUMP JUMPDEST PUSH1 0x40 MLOAD DUP1 SWAP2 SUB SWAP1 RETURN JUMPDEST CALLVALUE DUP1 ISZERO PUSH2 0x20C JUMPI PUSH1 0x0 DUP1 REVERT JUMPDEST POP PUSH2 0x215 PUSH2 0xC63 JUMP JUMPDEST PUSH1 0x40 MLOAD PUSH2 0x222 SWAP2 SWAP1 PUSH2 0x2A21 JUMP JUMPDEST PUSH1 0x40 MLOAD DUP1 SWAP2 SUB SWAP1 RETURN JUMPDEST CALLVALUE DUP1 ISZERO PUSH2 0x237 JUMPI PUSH1 0x0 DUP1 REVERT JUMPDEST POP PUSH2 0x240 PUSH2 0xC69 JUMP JUMPDEST PUSH1 0x40 MLOAD PUSH2 0x24D SWAP2 SWAP1 PUSH2 0x293B JUMP JUMPDEST PUSH1 0x40 MLOAD DUP1 SWAP2 SUB SWAP1 RETURN JUMPDEST CALLVALUE DUP1 ISZERO PUSH2 0x262 JUMPI PUSH1 0x0 DUP1 REVERT JUMPDEST POP PUSH2 0x26B PUSH2 0xC8F JUMP JUMPDEST PUSH1 0x40 MLOAD PUSH2 0x278 SWAP2 SWAP1 PUSH2 0x2A5D JUMP JUMPDEST PUSH1 0x40 MLOAD DUP1 SWAP2 SUB SWAP1 RETURN JUMPDEST CALLVALUE DUP1 ISZERO PUSH2 0x28D JUMPI PUSH1 0x0 DUP1 REVERT JUMPDEST POP PUSH2 0x2A8 PUSH1 0x4 DUP1 CALLDATASIZE SUB DUP2 ADD SWAP1 PUSH2 0x2A3 SWAP2 SWAP1 PUSH2 0x2982 JUMP JUMPDEST PUSH2 0xCB5 JUMP JUMPDEST PUSH1 0x40 MLOAD PUSH2 0x2B5 SWAP2 SWAP1 PUSH2 0x2B96 JUMP JUMPDEST PUSH1 0x40 MLOAD DUP1 SWAP2 SUB SWAP1 RETURN JUMPDEST CALLVALUE DUP1 ISZERO PUSH2 0x2CA JUMPI PUSH1 0x0 DUP1 REVERT JUMPDEST POP PUSH2 0x2D3 PUSH2 0xE02 JUMP JUMPDEST PUSH1 0x40 MLOAD PUSH2 0x2E0 SWAP2 SWAP1 PUSH2 0x2BD3 JUMP JUMPDEST PUSH1 0x40 MLOAD DUP1 SWAP2 SUB SWAP1 RETURN JUMPDEST PUSH2 0x303 PUSH1 0x4 DUP1 CALLDATASIZE SUB DUP2 ADD SWAP1 PUSH2 0x2FE SWAP2 SWAP1 PUSH2 0x2C46 JUMP JUMPDEST PUSH2 0xE28 JUMP JUMPDEST STOP JUMPDEST PUSH2 0x30D PUSH2 0x1226 JUMP JUMPDEST PUSH1 0x0 PUSH2 0x317 PUSH2 0x1275 JUMP JUMPDEST SWAP1 POP PUSH1 0x0 PUSH1 0x7 PUSH1 0x0 DUP4 PUSH20 0xFFFFFFFFFFFFFFFFFFFFFFFFFFFFFFFFFFFFFFFF AND PUSH20 0xFFFFFFFFFFFFFFFFFFFFFFFFFFFFFFFFFFFFFFFF AND DUP2 MSTORE PUSH1 0x20 ADD SWAP1 DUP2 MSTORE PUSH1 0x20 ADD PUSH1 0x0 KECCAK256 SWAP1 POP PUSH1 0x0 DUP2 PUSH1 0x3 ADD SLOAD SUB PUSH2 0x39A JUMPI PUSH1 0x40 MLOAD PUSH32 0x49050B3000000000000000000000000000000000000000000000000000000000 DUP2 MSTORE PUSH1 0x4 ADD PUSH1 0x40 MLOAD DUP1 SWAP2 SUB SWAP1 REVERT JUMPDEST NUMBER PUSH1 0xA PUSH2 0x3E8 DUP4 PUSH1 0x4 ADD PUSH1 0x14 SWAP1 SLOAD SWAP1 PUSH2 0x100 EXP SWAP1 DIV PUSH8 0xFFFFFFFFFFFFFFFF AND PUSH2 0x3C3 SWAP2 SWAP1 PUSH2 0x2D02 JUMP JUMPDEST PUSH2 0x3CD SWAP2 SWAP1 PUSH2 0x2D02 JUMP JUMPDEST PUSH8 0xFFFFFFFFFFFFFFFF AND GT ISZERO PUSH2 0x44D JUMPI NUMBER PUSH1 0xA PUSH2 0x3E8 DUP4 PUSH1 0x4 ADD PUSH1 0x14 SWAP1 SLOAD SWAP1 PUSH2 0x100 EXP SWAP1 DIV PUSH8 0xFFFFFFFFFFFFFFFF AND PUSH2 0x406 SWAP2 SWAP1 PUSH2 0x2D02 JUMP JUMPDEST PUSH2 0x410 SWAP2 SWAP1 PUSH2 0x2D02 JUMP JUMPDEST PUSH1 0x40 MLOAD PUSH32 0xB4AE675A00000000000000000000000000000000000000000000000000000000 DUP2 MSTORE PUSH1 0x4 ADD PUSH2 0x444 SWAP3 SWAP2 SWAP1 PUSH2 0x2D6F JUMP JUMPDEST PUSH1 0x40 MLOAD DUP1 SWAP2 SUB SWAP1 REVERT JUMPDEST PUSH1 0x0 DUP2 PUSH1 0x4 ADD PUSH1 0x1C SWAP1 SLOAD SWAP1 PUSH2 0x100 EXP SWAP1 DIV PUSH4 0xFFFFFFFF AND PUSH4 0xFFFFFFFF AND DUP3 PUSH1 0x0 ADD SLOAD PUSH2 0x479 SWAP2 SWAP1 PUSH2 0x2D98 JUMP JUMPDEST SWAP1 POP PUSH1 0x0 DUP3 PUSH1 0x4 ADD PUSH1 0x0 SWAP1 SLOAD SWAP1 PUSH2 0x100 EXP SWAP1 DIV PUSH20 0xFFFFFFFFFFFFFFFFFFFFFFFFFFFFFFFFFFFFFFFF AND SWAP1 POP PUSH1 0x8 PUSH1 0x0 DUP5 PUSH1 0x3 ADD SLOAD DUP2 MSTORE PUSH1 0x20 ADD SWAP1 DUP2 MSTORE PUSH1 0x20 ADD PUSH1 0x0 KECCAK256 PUSH1 0x0 PUSH2 0x100 EXP DUP2 SLOAD SWAP1 PUSH20 0xFFFFFFFFFFFFFFFFFFFFFFFFFFFFFFFFFFFFFFFF MUL NOT AND SWAP1 SSTORE PUSH1 0x7 PUSH1 0x0 DUP6 PUSH20 0xFFFFFFFFFFFFFFFFFFFFFFFFFFFFFFFFFFFFFFFF AND PUSH20 0xFFFFFFFFFFFFFFFFFFFFFFFFFFFFFFFFFFFFFFFF AND DUP2 MSTORE PUSH1 0x20 ADD SWAP1 DUP2 MSTORE PUSH1 0x20 ADD PUSH1 0x0 KECCAK256 PUSH1 0x0 DUP1 DUP3 ADD PUSH1 0x0 SWAP1 SSTORE PUSH1 0x1 DUP3 ADD PUSH1 0x0 SWAP1 SSTORE PUSH1 0x2 DUP3 ADD PUSH1 0x0 SWAP1 SSTORE PUSH1 0x3 DUP3 ADD PUSH1 0x0 SWAP1 SSTORE PUSH1 0x4 DUP3 ADD PUSH1 0x0 PUSH2 0x100 EXP DUP2 SLOAD SWAP1 PUSH20 0xFFFFFFFFFFFFFFFFFFFFFFFFFFFFFFFFFFFFFFFF MUL NOT AND SWAP1 SSTORE PUSH1 0x4 DUP3 ADD PUSH1 0x14 PUSH2 0x100 EXP DUP2 SLOAD SWAP1 PUSH8 0xFFFFFFFFFFFFFFFF MUL NOT AND SWAP1 SSTORE PUSH1 0x4 DUP3 ADD PUSH1 0x1C PUSH2 0x100 EXP DUP2 SLOAD SWAP1 PUSH4 0xFFFFFFFF MUL NOT AND SWAP1 SSTORE PUSH1 0x5 DUP3 ADD PUSH1 0x0 PUSH2 0x100 EXP DUP2 SLOAD SWAP1 PUSH1 0xFF MUL NOT AND SWAP1 SSTORE POP POP PUSH1 0x0 PUSH20 0xFFFFFFFFFFFFFFFFFFFFFFFFFFFFFFFFFFFFFFFF AND DUP2 PUSH20 0xFFFFFFFFFFFFFFFFFFFFFFFFFFFFFFFFFFFFFFFF AND SUB PUSH2 0x68A JUMPI PUSH1 0x0 DUP5 PUSH20 0xFFFFFFFFFFFFFFFFFFFFFFFFFFFFFFFFFFFFFFFF AND DUP4 PUSH1 0x40 MLOAD PUSH2 0x607 SWAP1 PUSH2 0x2E0B JUMP JUMPDEST PUSH1 0x0 PUSH1 0x40 MLOAD DUP1 DUP4 SUB DUP2 DUP6 DUP8 GAS CALL SWAP3 POP POP POP RETURNDATASIZE DUP1 PUSH1 0x0 DUP2 EQ PUSH2 0x644 JUMPI PUSH1 0x40 MLOAD SWAP2 POP PUSH1 0x1F NOT PUSH1 0x3F RETURNDATASIZE ADD AND DUP3 ADD PUSH1 0x40 MSTORE RETURNDATASIZE DUP3 MSTORE RETURNDATASIZE PUSH1 0x0 PUSH1 0x20 DUP5 ADD RETURNDATACOPY PUSH2 0x649 JUMP JUMPDEST PUSH1 0x60 SWAP2 POP JUMPDEST POP POP SWAP1 POP DUP1 PUSH2 0x684 JUMPI PUSH1 0x40 MLOAD PUSH32 0x90B8EC1800000000000000000000000000000000000000000000000000000000 DUP2 MSTORE PUSH1 0x4 ADD PUSH1 0x40 MLOAD DUP1 SWAP2 SUB SWAP1 REVERT JUMPDEST POP PUSH2 0x6B6 JUMP JUMPDEST PUSH2 0x6B5 DUP5 DUP4 DUP4 PUSH20 0xFFFFFFFFFFFFFFFFFFFFFFFFFFFFFFFFFFFFFFFF AND PUSH2 0x12AC SWAP1 SWAP3 SWAP2 SWAP1 PUSH4 0xFFFFFFFF AND JUMP JUMPDEST JUMPDEST DUP4 PUSH20 0xFFFFFFFFFFFFFFFFFFFFFFFFFFFFFFFFFFFFFFFF AND PUSH32 0x1B240DE49EA18064198EFE2F74C6CC4FA4139464FF393208F8FA6AA81B07ADB2 DUP4 DUP4 PUSH1 0x40 MLOAD PUSH2 0x6FE SWAP3 SWAP2 SWAP1 PUSH2 0x2E20 JUMP JUMPDEST PUSH1 0x40 MLOAD DUP1 SWAP2 SUB SWAP1 LOG2 POP POP POP POP PUSH2 0x712 PUSH2 0x132B JUMP JUMPDEST JUMP JUMPDEST PUSH1 0x2 PUSH1 0x0 SWAP1 SLOAD SWAP1 PUSH2 0x100 EXP SWAP1 DIV PUSH20 0xFFFFFFFFFFFFFFFFFFFFFFFFFFFFFFFFFFFFFFFF AND PUSH20 0xFFFFFFFFFFFFFFFFFFFFFFFFFFFFFFFFFFFFFFFF AND CALLER PUSH20 0xFFFFFFFFFFFFFFFFFFFFFFFFFFFFFFFFFFFFFFFF AND EQ PUSH2 0x7CA JUMPI CALLER PUSH1 0x2 PUSH1 0x0 SWAP1 SLOAD SWAP1 PUSH2 0x100 EXP SWAP1 DIV PUSH20 0xFFFFFFFFFFFFFFFFFFFFFFFFFFFFFFFFFFFFFFFF AND PUSH1 0x40 MLOAD PUSH32 0x1CF993F400000000000000000000000000000000000000000000000000000000 DUP2 MSTORE PUSH1 0x4 ADD PUSH2 0x7C1 SWAP3 SWAP2 SWAP1 PUSH2 0x2E49 JUMP JUMPDEST PUSH1 0x40 MLOAD DUP1 SWAP2 SUB SWAP1 REVERT JUMPDEST PUSH2 0x7D4 DUP3 DUP3 PUSH2 0x1335 JUMP JUMPDEST POP POP JUMP JUMPDEST PUSH1 0x5 PUSH1 0x0 SWAP1 SLOAD SWAP1 PUSH2 0x100 EXP SWAP1 DIV PUSH20 0xFFFFFFFFFFFFFFFFFFFFFFFFFFFFFFFFFFFFFFFF AND DUP2 JUMP JUMPDEST PUSH1 0x3 PUSH1 0x0 SWAP1 SLOAD SWAP1 PUSH2 0x100 EXP SWAP1 DIV PUSH20 0xFFFFFFFFFFFFFFFFFFFFFFFFFFFFFFFFFFFFFFFF AND DUP2 JUMP JUMPDEST PUSH1 0x0 PUSH1 0x3 PUSH1 0x0 SWAP1 SLOAD SWAP1 PUSH2 0x100 EXP SWAP1 DIV PUSH20 0xFFFFFFFFFFFFFFFFFFFFFFFFFFFFFFFFFFFFFFFF AND PUSH20 0xFFFFFFFFFFFFFFFFFFFFFFFFFFFFFFFFFFFFFFFF AND DUP3 PUSH20 0xFFFFFFFFFFFFFFFFFFFFFFFFFFFFFFFFFFFFFFFF AND EQ SWAP1 POP SWAP2 SWAP1 POP JUMP JUMPDEST PUSH2 0x886 PUSH2 0x1226 JUMP JUMPDEST PUSH1 0x6 PUSH1 0x0 SWAP1 SLOAD SWAP1 PUSH2 0x100 EXP SWAP1 DIV PUSH20 0xFFFFFFFFFFFFFFFFFFFFFFFFFFFFFFFFFFFFFFFF AND PUSH20 0xFFFFFFFFFFFFFFFFFFFFFFFFFFFFFFFFFFFFFFFF AND PUSH4 0x893D20E8 PUSH1 0x40 MLOAD DUP2 PUSH4 0xFFFFFFFF AND PUSH1 0xE0 SHL DUP2 MSTORE PUSH1 0x4 ADD PUSH1 0x20 PUSH1 0x40 MLOAD DUP1 DUP4 SUB DUP2 DUP7 GAS STATICCALL ISZERO DUP1 ISZERO PUSH2 0x8F3 JUMPI RETURNDATASIZE PUSH1 0x0 DUP1 RETURNDATACOPY RETURNDATASIZE PUSH1 0x0 REVERT JUMPDEST POP POP POP POP PUSH1 0x40 MLOAD RETURNDATASIZE PUSH1 0x1F NOT PUSH1 0x1F DUP3 ADD AND DUP3 ADD DUP1 PUSH1 0x40 MSTORE POP DUP2 ADD SWAP1 PUSH2 0x917 SWAP2 SWAP1 PUSH2 0x2E87 JUMP JUMPDEST PUSH20 0xFFFFFFFFFFFFFFFFFFFFFFFFFFFFFFFFFFFFFFFF AND CALLER PUSH20 0xFFFFFFFFFFFFFFFFFFFFFFFFFFFFFFFFFFFFFFFF AND EQ PUSH2 0xA18 JUMPI PUSH1 0x6 PUSH1 0x0 SWAP1 SLOAD SWAP1 PUSH2 0x100 EXP SWAP1 DIV PUSH20 0xFFFFFFFFFFFFFFFFFFFFFFFFFFFFFFFFFFFFFFFF AND PUSH20 0xFFFFFFFFFFFFFFFFFFFFFFFFFFFFFFFFFFFFFFFF AND PUSH4 0x893D20E8 PUSH1 0x40 MLOAD DUP2 PUSH4 0xFFFFFFFF AND PUSH1 0xE0 SHL DUP2 MSTORE PUSH1 0x4 ADD PUSH1 0x20 PUSH1 0x40 MLOAD DUP1 DUP4 SUB DUP2 DUP7 GAS STATICCALL ISZERO DUP1 ISZERO PUSH2 0x9B6 JUMPI RETURNDATASIZE PUSH1 0x0 DUP1 RETURNDATACOPY RETURNDATASIZE PUSH1 0x0 REVERT JUMPDEST POP POP POP POP PUSH1 0x40 MLOAD RETURNDATASIZE PUSH1 0x1F NOT PUSH1 0x1F DUP3 ADD AND DUP3 ADD DUP1 PUSH1 0x40 MSTORE POP DUP2 ADD SWAP1 PUSH2 0x9DA SWAP2 SWAP1 PUSH2 0x2E87 JUMP JUMPDEST CALLER PUSH1 0x40 MLOAD PUSH32 0x23295F0E00000000000000000000000000000000000000000000000000000000 DUP2 MSTORE PUSH1 0x4 ADD PUSH2 0xA0F SWAP3 SWAP2 SWAP1 PUSH2 0x2E49 JUMP JUMPDEST PUSH1 0x40 MLOAD DUP1 SWAP2 SUB SWAP1 REVERT JUMPDEST PUSH1 0x0 PUSH1 0x1 SLOAD SWAP1 POP PUSH1 0x0 PUSH1 0x1 DUP2 SWAP1 SSTORE POP PUSH1 0x0 DUP3 PUSH20 0xFFFFFFFFFFFFFFFFFFFFFFFFFFFFFFFFFFFFFFFF AND DUP3 PUSH1 0x40 MLOAD PUSH2 0xA4D SWAP1 PUSH2 0x2E0B JUMP JUMPDEST PUSH1 0x0 PUSH1 0x40 MLOAD DUP1 DUP4 SUB DUP2 DUP6 DUP8 GAS CALL SWAP3 POP POP POP RETURNDATASIZE DUP1 PUSH1 0x0 DUP2 EQ PUSH2 0xA8A JUMPI PUSH1 0x40 MLOAD SWAP2 POP PUSH1 0x1F NOT PUSH1 0x3F RETURNDATASIZE ADD AND DUP3 ADD PUSH1 0x40 MSTORE RETURNDATASIZE DUP3 MSTORE RETURNDATASIZE PUSH1 0x0 PUSH1 0x20 DUP5 ADD RETURNDATACOPY PUSH2 0xA8F JUMP JUMPDEST PUSH1 0x60 SWAP2 POP JUMPDEST POP POP SWAP1 POP DUP1 PUSH2 0xACA JUMPI PUSH1 0x40 MLOAD PUSH32 0x90B8EC1800000000000000000000000000000000000000000000000000000000 DUP2 MSTORE PUSH1 0x4 ADD PUSH1 0x40 MLOAD DUP1 SWAP2 SUB SWAP1 REVERT JUMPDEST POP POP PUSH2 0xAD4 PUSH2 0x132B JUMP JUMPDEST POP JUMP JUMPDEST PUSH1 0x0 DUP1 PUSH1 0x4 PUSH1 0x0 SWAP1 SLOAD SWAP1 PUSH2 0x100 EXP SWAP1 DIV PUSH20 0xFFFFFFFFFFFFFFFFFFFFFFFFFFFFFFFFFFFFFFFF AND PUSH20 0xFFFFFFFFFFFFFFFFFFFFFFFFFFFFFFFFFFFFFFFF AND PUSH4 0xFEAF968C PUSH1 0x40 MLOAD DUP2 PUSH4 0xFFFFFFFF AND PUSH1 0xE0 SHL DUP2 MSTORE PUSH1 0x4 ADD PUSH1 0xA0 PUSH1 0x40 MLOAD DUP1 DUP4 SUB DUP2 DUP7 GAS STATICCALL ISZERO DUP1 ISZERO PUSH2 0xB47 JUMPI RETURNDATASIZE PUSH1 0x0 DUP1 RETURNDATACOPY RETURNDATASIZE PUSH1 0x0 REVERT JUMPDEST POP POP POP POP PUSH1 0x40 MLOAD RETURNDATASIZE PUSH1 0x1F NOT PUSH1 0x1F DUP3 ADD AND DUP3 ADD DUP1 PUSH1 0x40 MSTORE POP DUP2 ADD SWAP1 PUSH2 0xB6B SWAP2 SWAP1 PUSH2 0x2F41 JUMP JUMPDEST POP POP POP SWAP2 POP POP PUSH1 0x0 PUSH1 0x5 PUSH1 0x0 SWAP1 SLOAD SWAP1 PUSH2 0x100 EXP SWAP1 DIV PUSH20 0xFFFFFFFFFFFFFFFFFFFFFFFFFFFFFFFFFFFFFFFF AND PUSH20 0xFFFFFFFFFFFFFFFFFFFFFFFFFFFFFFFFFFFFFFFF AND PUSH4 0x5FBBC0D2 PUSH1 0x40 MLOAD DUP2 PUSH4 0xFFFFFFFF AND PUSH1 0xE0 SHL DUP2 MSTORE PUSH1 0x4 ADD PUSH2 0x120 PUSH1 0x40 MLOAD DUP1 DUP4 SUB DUP2 DUP7 GAS STATICCALL ISZERO DUP1 ISZERO PUSH2 0xBE1 JUMPI RETURNDATASIZE PUSH1 0x0 DUP1 RETURNDATACOPY RETURNDATASIZE PUSH1 0x0 REVERT JUMPDEST POP POP POP POP PUSH1 0x40 MLOAD RETURNDATASIZE PUSH1 0x1F NOT PUSH1 0x1F DUP3 ADD AND DUP3 ADD DUP1 PUSH1 0x40 MSTORE POP DUP2 ADD SWAP1 PUSH2 0xC05 SWAP2 SWAP1 PUSH2 0x300C JUMP JUMPDEST POP POP POP POP POP POP POP POP SWAP1 POP PUSH8 0xDE0B6B3A7640000 DUP3 DUP3 PUSH4 0xFFFFFFFF AND PUSH5 0xE8D4A51000 PUSH2 0xC30 SWAP2 SWAP1 PUSH2 0x2D98 JUMP JUMPDEST PUSH2 0xC3A SWAP2 SWAP1 PUSH2 0x2D98 JUMP JUMPDEST PUSH2 0xC44 SWAP2 SWAP1 PUSH2 0x3105 JUMP JUMPDEST DUP5 GASPRICE PUSH2 0xC50 SWAP2 SWAP1 PUSH2 0x2D98 JUMP JUMPDEST PUSH2 0xC5A SWAP2 SWAP1 PUSH2 0x3136 JUMP JUMPDEST SWAP3 POP POP POP SWAP2 SWAP1 POP JUMP JUMPDEST PUSH1 0x1 SLOAD DUP2 JUMP JUMPDEST PUSH1 0x2 PUSH1 0x0 SWAP1 SLOAD SWAP1 PUSH2 0x100 EXP SWAP1 DIV PUSH20 0xFFFFFFFFFFFFFFFFFFFFFFFFFFFFFFFFFFFFFFFF AND DUP2 JUMP JUMPDEST PUSH1 0x4 PUSH1 0x0 SWAP1 SLOAD SWAP1 PUSH2 0x100 EXP SWAP1 DIV PUSH20 0xFFFFFFFFFFFFFFFFFFFFFFFFFFFFFFFFFFFFFFFF AND DUP2 JUMP JUMPDEST PUSH2 0xCBD PUSH2 0x2613 JUMP JUMPDEST PUSH1 0x7 PUSH1 0x0 DUP4 PUSH20 0xFFFFFFFFFFFFFFFFFFFFFFFFFFFFFFFFFFFFFFFF AND PUSH20 0xFFFFFFFFFFFFFFFFFFFFFFFFFFFFFFFFFFFFFFFF AND DUP2 MSTORE PUSH1 0x20 ADD SWAP1 DUP2 MSTORE PUSH1 0x20 ADD PUSH1 0x0 KECCAK256 PUSH1 0x40 MLOAD DUP1 PUSH2 0x100 ADD PUSH1 0x40 MSTORE SWAP1 DUP2 PUSH1 0x0 DUP3 ADD SLOAD DUP2 MSTORE PUSH1 0x20 ADD PUSH1 0x1 DUP3 ADD SLOAD DUP2 MSTORE PUSH1 0x20 ADD PUSH1 0x2 DUP3 ADD SLOAD DUP2 MSTORE PUSH1 0x20 ADD PUSH1 0x3 DUP3 ADD SLOAD DUP2 MSTORE PUSH1 0x20 ADD PUSH1 0x4 DUP3 ADD PUSH1 0x0 SWAP1 SLOAD SWAP1 PUSH2 0x100 EXP SWAP1 DIV PUSH20 0xFFFFFFFFFFFFFFFFFFFFFFFFFFFFFFFFFFFFFFFF AND PUSH20 0xFFFFFFFFFFFFFFFFFFFFFFFFFFFFFFFFFFFFFFFF AND PUSH20 0xFFFFFFFFFFFFFFFFFFFFFFFFFFFFFFFFFFFFFFFF AND DUP2 MSTORE PUSH1 0x20 ADD PUSH1 0x4 DUP3 ADD PUSH1 0x14 SWAP1 SLOAD SWAP1 PUSH2 0x100 EXP SWAP1 DIV PUSH8 0xFFFFFFFFFFFFFFFF AND PUSH8 0xFFFFFFFFFFFFFFFF AND PUSH8 0xFFFFFFFFFFFFFFFF AND DUP2 MSTORE PUSH1 0x20 ADD PUSH1 0x4 DUP3 ADD PUSH1 0x1C SWAP1 SLOAD SWAP1 PUSH2 0x100 EXP SWAP1 DIV PUSH4 0xFFFFFFFF AND PUSH4 0xFFFFFFFF AND PUSH4 0xFFFFFFFF AND DUP2 MSTORE PUSH1 0x20 ADD PUSH1 0x5 DUP3 ADD PUSH1 0x0 SWAP1 SLOAD SWAP1 PUSH2 0x100 EXP SWAP1 DIV PUSH1 0xFF AND PUSH1 0xFF AND PUSH1 0xFF AND DUP2 MSTORE POP POP SWAP1 POP SWAP2 SWAP1 POP JUMP JUMPDEST PUSH1 0x6 PUSH1 0x0 SWAP1 SLOAD SWAP1 PUSH2 0x100 EXP SWAP1 DIV PUSH20 0xFFFFFFFFFFFFFFFFFFFFFFFFFFFFFFFFFFFFFFFF AND DUP2 JUMP JUMPDEST PUSH2 0xE30 PUSH2 0x1226 JUMP JUMPDEST PUSH1 0x0 PUSH2 0xE3A PUSH2 0x1275 JUMP JUMPDEST SWAP1 POP PUSH1 0x3 DUP6 PUSH1 0xFF AND LT PUSH2 0xE79 JUMPI PUSH1 0x40 MLOAD PUSH32 0x4A7F394F00000000000000000000000000000000000000000000000000000000 DUP2 MSTORE PUSH1 0x4 ADD PUSH1 0x40 MLOAD DUP1 SWAP2 SUB SWAP1 REVERT JUMPDEST PUSH1 0x0 PUSH1 0x7 PUSH1 0x0 DUP4 PUSH20 0xFFFFFFFFFFFFFFFFFFFFFFFFFFFFFFFFFFFFFFFF AND PUSH20 0xFFFFFFFFFFFFFFFFFFFFFFFFFFFFFFFFFFFFFFFF AND DUP2 MSTORE PUSH1 0x20 ADD SWAP1 DUP2 MSTORE PUSH1 0x20 ADD PUSH1 0x0 KECCAK256 PUSH1 0x3 ADD SLOAD EQ PUSH2 0xF42 JUMPI PUSH1 0x7 PUSH1 0x0 DUP3 PUSH20 0xFFFFFFFFFFFFFFFFFFFFFFFFFFFFFFFFFFFFFFFF AND PUSH20 0xFFFFFFFFFFFFFFFFFFFFFFFFFFFFFFFFFFFFFFFF AND DUP2 MSTORE PUSH1 0x20 ADD SWAP1 DUP2 MSTORE PUSH1 0x20 ADD PUSH1 0x0 KECCAK256 PUSH1 0x3 ADD SLOAD PUSH1 0x40 MLOAD PUSH32 0x440DB96E00000000000000000000000000000000000000000000000000000000 DUP2 MSTORE PUSH1 0x4 ADD PUSH2 0xF39 SWAP2 SWAP1 PUSH2 0x2A21 JUMP JUMPDEST PUSH1 0x40 MLOAD DUP1 SWAP2 SUB SWAP1 REVERT JUMPDEST PUSH1 0x0 DUP5 PUSH4 0xFFFFFFFF AND GT DUP1 ISZERO PUSH2 0xF5F JUMPI POP PUSH1 0x64 DUP5 PUSH4 0xFFFFFFFF AND GT ISZERO JUMPDEST PUSH2 0xFA1 JUMPI PUSH1 0x64 PUSH1 0x40 MLOAD PUSH32 0x9310749100000000000000000000000000000000000000000000000000000000 DUP2 MSTORE PUSH1 0x4 ADD PUSH2 0xF98 SWAP2 SWAP1 PUSH2 0x31A5 JUMP JUMPDEST PUSH1 0x40 MLOAD DUP1 SWAP2 SUB SWAP1 REVERT JUMPDEST PUSH2 0xFAB DUP8 DUP8 PUSH2 0x1A5A JUMP JUMPDEST PUSH1 0x0 PUSH2 0xFCD DUP8 DUP7 PUSH4 0xFFFFFFFF AND DUP11 PUSH2 0xFC3 SWAP2 SWAP1 PUSH2 0x2D98 JUMP JUMPDEST PUSH3 0x10C8E0 DUP6 PUSH2 0x1BDE JUMP JUMPDEST SWAP1 POP PUSH1 0x0 PUSH2 0xFDA DUP7 PUSH2 0x1F3F JUMP JUMPDEST SWAP1 POP PUSH1 0x40 MLOAD DUP1 PUSH2 0x100 ADD PUSH1 0x40 MSTORE DUP1 DUP11 DUP2 MSTORE PUSH1 0x20 ADD DUP7 DUP2 MSTORE PUSH1 0x20 ADD DUP6 DUP2 MSTORE PUSH1 0x20 ADD DUP3 DUP2 MSTORE PUSH1 0x20 ADD DUP10 PUSH20 0xFFFFFFFFFFFFFFFFFFFFFFFFFFFFFFFFFFFFFFFF AND DUP2 MSTORE PUSH1 0x20 ADD NUMBER PUSH8 0xFFFFFFFFFFFFFFFF AND DUP2 MSTORE PUSH1 0x20 ADD DUP8 PUSH4 0xFFFFFFFF AND DUP2 MSTORE PUSH1 0x20 ADD DUP9 PUSH1 0xFF AND DUP2 MSTORE POP PUSH1 0x7 PUSH1 0x0 DUP6 PUSH20 0xFFFFFFFFFFFFFFFFFFFFFFFFFFFFFFFFFFFFFFFF AND PUSH20 0xFFFFFFFFFFFFFFFFFFFFFFFFFFFFFFFFFFFFFFFF AND DUP2 MSTORE PUSH1 0x20 ADD SWAP1 DUP2 MSTORE PUSH1 0x20 ADD PUSH1 0x0 KECCAK256 PUSH1 0x0 DUP3 ADD MLOAD DUP2 PUSH1 0x0 ADD SSTORE PUSH1 0x20 DUP3 ADD MLOAD DUP2 PUSH1 0x1 ADD SSTORE PUSH1 0x40 DUP3 ADD MLOAD DUP2 PUSH1 0x2 ADD SSTORE PUSH1 0x60 DUP3 ADD MLOAD DUP2 PUSH1 0x3 ADD SSTORE PUSH1 0x80 DUP3 ADD MLOAD DUP2 PUSH1 0x4 ADD PUSH1 0x0 PUSH2 0x100 EXP DUP2 SLOAD DUP2 PUSH20 0xFFFFFFFFFFFFFFFFFFFFFFFFFFFFFFFFFFFFFFFF MUL NOT AND SWAP1 DUP4 PUSH20 0xFFFFFFFFFFFFFFFFFFFFFFFFFFFFFFFFFFFFFFFF AND MUL OR SWAP1 SSTORE POP PUSH1 0xA0 DUP3 ADD MLOAD DUP2 PUSH1 0x4 ADD PUSH1 0x14 PUSH2 0x100 EXP DUP2 SLOAD DUP2 PUSH8 0xFFFFFFFFFFFFFFFF MUL NOT AND SWAP1 DUP4 PUSH8 0xFFFFFFFFFFFFFFFF AND MUL OR SWAP1 SSTORE POP PUSH1 0xC0 DUP3 ADD MLOAD DUP2 PUSH1 0x4 ADD PUSH1 0x1C PUSH2 0x100 EXP DUP2 SLOAD DUP2 PUSH4 0xFFFFFFFF MUL NOT AND SWAP1 DUP4 PUSH4 0xFFFFFFFF AND MUL OR SWAP1 SSTORE POP PUSH1 0xE0 DUP3 ADD MLOAD DUP2 PUSH1 0x5 ADD PUSH1 0x0 PUSH2 0x100 EXP DUP2 SLOAD DUP2 PUSH1 0xFF MUL NOT AND SWAP1 DUP4 PUSH1 0xFF AND MUL OR SWAP1 SSTORE POP SWAP1 POP POP DUP3 PUSH1 0x8 PUSH1 0x0 DUP4 DUP2 MSTORE PUSH1 0x20 ADD SWAP1 DUP2 MSTORE PUSH1 0x20 ADD PUSH1 0x0 KECCAK256 PUSH1 0x0 PUSH2 0x100 EXP DUP2 SLOAD DUP2 PUSH20 0xFFFFFFFFFFFFFFFFFFFFFFFFFFFFFFFFFFFFFFFF MUL NOT AND SWAP1 DUP4 PUSH20 0xFFFFFFFFFFFFFFFFFFFFFFFFFFFFFFFFFFFFFFFF AND MUL OR SWAP1 SSTORE POP DUP3 PUSH20 0xFFFFFFFFFFFFFFFFFFFFFFFFFFFFFFFFFFFFFFFF AND PUSH32 0x7D6B56CB76818195A870EC527CEB91F32D9D20269EFE736561277D5A0D5227DC DUP11 DUP11 DUP11 DUP11 DUP11 DUP11 DUP10 PUSH1 0x40 MLOAD PUSH2 0x120B SWAP8 SWAP7 SWAP6 SWAP5 SWAP4 SWAP3 SWAP2 SWAP1 PUSH2 0x31DE JUMP JUMPDEST PUSH1 0x40 MLOAD DUP1 SWAP2 SUB SWAP1 LOG2 POP POP POP PUSH2 0x121E PUSH2 0x132B JUMP JUMPDEST POP POP POP POP POP POP JUMP JUMPDEST PUSH1 0x2 PUSH1 0x0 SLOAD SUB PUSH2 0x126B JUMPI PUSH1 0x40 MLOAD PUSH32 0x8C379A000000000000000000000000000000000000000000000000000000000 DUP2 MSTORE PUSH1 0x4 ADD PUSH2 0x1262 SWAP1 PUSH2 0x32AA JUMP JUMPDEST PUSH1 0x40 MLOAD DUP1 SWAP2 SUB SWAP1 REVERT JUMPDEST PUSH1 0x2 PUSH1 0x0 DUP2 SWAP1 SSTORE POP JUMP JUMPDEST PUSH1 0x0 PUSH1 0x14 PUSH1 0x0 CALLDATASIZE SWAP1 POP LT ISZERO DUP1 ISZERO PUSH2 0x1291 JUMPI POP PUSH2 0x1290 CALLER PUSH2 0x824 JUMP JUMPDEST JUMPDEST ISZERO PUSH2 0x12A5 JUMPI PUSH1 0x14 CALLDATASIZE SUB CALLDATALOAD PUSH1 0x60 SHR SWAP1 POP PUSH2 0x12A9 JUMP JUMPDEST CALLER SWAP1 POP JUMPDEST SWAP1 JUMP JUMPDEST PUSH2 0x1326 DUP4 DUP5 PUSH20 0xFFFFFFFFFFFFFFFFFFFFFFFFFFFFFFFFFFFFFFFF AND PUSH4 0xA9059CBB DUP6 DUP6 PUSH1 0x40 MLOAD PUSH1 0x24 ADD PUSH2 0x12DF SWAP3 SWAP2 SWAP1 PUSH2 0x32CA JUMP JUMPDEST PUSH1 0x40 MLOAD PUSH1 0x20 DUP2 DUP4 SUB SUB DUP2 MSTORE SWAP1 PUSH1 0x40 MSTORE SWAP2 POP PUSH1 0xE0 SHL PUSH1 0x20 DUP3 ADD DUP1 MLOAD PUSH28 0xFFFFFFFFFFFFFFFFFFFFFFFFFFFFFFFFFFFFFFFFFFFFFFFFFFFFFFFF DUP4 DUP2 DUP4 AND OR DUP4 MSTORE POP POP POP POP PUSH2 0x2014 JUMP JUMPDEST POP POP POP JUMP JUMPDEST PUSH1 0x1 PUSH1 0x0 DUP2 SWAP1 SSTORE POP JUMP JUMPDEST PUSH1 0x0 PUSH1 0x8 PUSH1 0x0 DUP5 DUP2 MSTORE PUSH1 0x20 ADD SWAP1 DUP2 MSTORE PUSH1 0x20 ADD PUSH1 0x0 KECCAK256 PUSH1 0x0 SWAP1 SLOAD SWAP1 PUSH2 0x100 EXP SWAP1 DIV PUSH20 0xFFFFFFFFFFFFFFFFFFFFFFFFFFFFFFFFFFFFFFFF AND SWAP1 POP PUSH1 0x0 PUSH20 0xFFFFFFFFFFFFFFFFFFFFFFFFFFFFFFFFFFFFFFFF AND DUP2 PUSH20 0xFFFFFFFFFFFFFFFFFFFFFFFFFFFFFFFFFFFFFFFF AND SUB PUSH2 0x13A6 JUMPI PUSH1 0x0 DUP1 REVERT JUMPDEST PUSH1 0x0 PUSH1 0x7 PUSH1 0x0 DUP4 PUSH20 0xFFFFFFFFFFFFFFFFFFFFFFFFFFFFFFFFFFFFFFFF AND PUSH20 0xFFFFFFFFFFFFFFFFFFFFFFFFFFFFFFFFFFFFFFFF AND DUP2 MSTORE PUSH1 0x20 ADD SWAP1 DUP2 MSTORE PUSH1 0x20 ADD PUSH1 0x0 KECCAK256 SWAP1 POP PUSH2 0x3E8 DUP2 PUSH1 0x4 ADD PUSH1 0x14 SWAP1 SLOAD SWAP1 PUSH2 0x100 EXP SWAP1 DIV PUSH8 0xFFFFFFFFFFFFFFFF AND PUSH2 0x140F SWAP2 SWAP1 PUSH2 0x2D02 JUMP JUMPDEST PUSH8 0xFFFFFFFFFFFFFFFF AND NUMBER GT ISZERO PUSH2 0x1425 JUMPI PUSH1 0x0 DUP1 REVERT JUMPDEST PUSH1 0x0 DUP2 PUSH1 0x4 ADD PUSH1 0x1C SWAP1 SLOAD SWAP1 PUSH2 0x100 EXP SWAP1 DIV PUSH4 0xFFFFFFFF AND PUSH4 0xFFFFFFFF AND PUSH8 0xFFFFFFFFFFFFFFFF DUP2 GT ISZERO PUSH2 0x145B JUMPI PUSH2 0x145A PUSH2 0x26E1 JUMP JUMPDEST JUMPDEST PUSH1 0x40 MLOAD SWAP1 DUP1 DUP3 MSTORE DUP1 PUSH1 0x20 MUL PUSH1 0x20 ADD DUP3 ADD PUSH1 0x40 MSTORE DUP1 ISZERO PUSH2 0x1489 JUMPI DUP2 PUSH1 0x20 ADD PUSH1 0x20 DUP3 MUL DUP1 CALLDATASIZE DUP4 CALLDATACOPY DUP1 DUP3 ADD SWAP2 POP POP SWAP1 POP JUMPDEST POP SWAP1 POP PUSH1 0x0 DUP3 PUSH1 0x4 ADD PUSH1 0x1C SWAP1 SLOAD SWAP1 PUSH2 0x100 EXP SWAP1 DIV PUSH4 0xFFFFFFFF AND PUSH4 0xFFFFFFFF AND PUSH8 0xFFFFFFFFFFFFFFFF DUP2 GT ISZERO PUSH2 0x14C2 JUMPI PUSH2 0x14C1 PUSH2 0x26E1 JUMP JUMPDEST JUMPDEST PUSH1 0x40 MLOAD SWAP1 DUP1 DUP3 MSTORE DUP1 PUSH1 0x20 MUL PUSH1 0x20 ADD DUP3 ADD PUSH1 0x40 MSTORE DUP1 ISZERO PUSH2 0x14F0 JUMPI DUP2 PUSH1 0x20 ADD PUSH1 0x20 DUP3 MUL DUP1 CALLDATASIZE DUP4 CALLDATACOPY DUP1 DUP3 ADD SWAP2 POP POP SWAP1 POP JUMPDEST POP SWAP1 POP PUSH1 0x0 DUP4 PUSH1 0x4 ADD PUSH1 0x1C SWAP1 SLOAD SWAP1 PUSH2 0x100 EXP SWAP1 DIV PUSH4 0xFFFFFFFF AND PUSH4 0xFFFFFFFF AND PUSH8 0xFFFFFFFFFFFFFFFF DUP2 GT ISZERO PUSH2 0x1529 JUMPI PUSH2 0x1528 PUSH2 0x26E1 JUMP JUMPDEST JUMPDEST PUSH1 0x40 MLOAD SWAP1 DUP1 DUP3 MSTORE DUP1 PUSH1 0x20 MUL PUSH1 0x20 ADD DUP3 ADD PUSH1 0x40 MSTORE DUP1 ISZERO PUSH2 0x1557 JUMPI DUP2 PUSH1 0x20 ADD PUSH1 0x20 DUP3 MUL DUP1 CALLDATASIZE DUP4 CALLDATACOPY DUP1 DUP3 ADD SWAP2 POP POP SWAP1 POP JUMPDEST POP SWAP1 POP PUSH1 0x0 DUP1 PUSH1 0x0 DUP1 DUP8 PUSH1 0x4 ADD PUSH1 0x0 SWAP1 SLOAD SWAP1 PUSH2 0x100 EXP SWAP1 DIV PUSH20 0xFFFFFFFFFFFFFFFFFFFFFFFFFFFFFFFFFFFFFFFF AND SWAP1 POP PUSH1 0x0 SWAP2 POP JUMPDEST DUP8 PUSH1 0x4 ADD PUSH1 0x1C SWAP1 SLOAD SWAP1 PUSH2 0x100 EXP SWAP1 DIV PUSH4 0xFFFFFFFF AND PUSH4 0xFFFFFFFF AND DUP3 PUSH4 0xFFFFFFFF AND LT ISZERO PUSH2 0x183D JUMPI DUP8 PUSH1 0x1 ADD SLOAD DUP5 SLT ISZERO PUSH2 0x183D JUMPI DUP8 PUSH1 0x2 ADD SLOAD PUSH2 0x15CE SWAP1 PUSH2 0x32F3 JUMP JUMPDEST DUP5 SGT ISZERO PUSH2 0x183D JUMPI PUSH1 0x3 DUP11 DUP4 PUSH4 0xFFFFFFFF AND DUP2 MLOAD DUP2 LT PUSH2 0x15F0 JUMPI PUSH2 0x15EF PUSH2 0x333B JUMP JUMPDEST JUMPDEST PUSH1 0x20 MUL PUSH1 0x20 ADD ADD MLOAD PUSH2 0x1602 SWAP2 SWAP1 PUSH2 0x336A JUMP JUMPDEST DUP8 DUP4 PUSH4 0xFFFFFFFF AND DUP2 MLOAD DUP2 LT PUSH2 0x161B JUMPI PUSH2 0x161A PUSH2 0x333B JUMP JUMPDEST JUMPDEST PUSH1 0x20 MUL PUSH1 0x20 ADD ADD SWAP1 PUSH1 0xFF AND SWAP1 DUP2 PUSH1 0xFF AND DUP2 MSTORE POP POP PUSH2 0x166A DUP9 PUSH1 0x5 ADD PUSH1 0x0 SWAP1 SLOAD SWAP1 PUSH2 0x100 EXP SWAP1 DIV PUSH1 0xFF AND DUP9 DUP5 PUSH4 0xFFFFFFFF AND DUP2 MLOAD DUP2 LT PUSH2 0x165D JUMPI PUSH2 0x165C PUSH2 0x333B JUMP JUMPDEST JUMPDEST PUSH1 0x20 MUL PUSH1 0x20 ADD ADD MLOAD PUSH2 0x20AB JUMP JUMPDEST DUP7 DUP4 PUSH4 0xFFFFFFFF AND DUP2 MLOAD DUP2 LT PUSH2 0x1683 JUMPI PUSH2 0x1682 PUSH2 0x333B JUMP JUMPDEST JUMPDEST PUSH1 0x20 MUL PUSH1 0x20 ADD ADD SWAP1 PUSH1 0xFF AND SWAP1 DUP2 PUSH1 0xFF AND DUP2 MSTORE POP POP PUSH1 0x2 DUP7 DUP4 PUSH4 0xFFFFFFFF AND DUP2 MLOAD DUP2 LT PUSH2 0x16B2 JUMPI PUSH2 0x16B1 PUSH2 0x333B JUMP JUMPDEST JUMPDEST PUSH1 0x20 MUL PUSH1 0x20 ADD ADD MLOAD PUSH1 0xFF AND SUB PUSH2 0x1751 JUMPI PUSH1 0x64 PUSH1 0x63 DUP10 PUSH1 0x0 ADD SLOAD PUSH2 0x16D5 SWAP2 SWAP1 PUSH2 0x2D98 JUMP JUMPDEST PUSH2 0x16DF SWAP2 SWAP1 PUSH2 0x3105 JUMP JUMPDEST DUP4 PUSH2 0x16EA SWAP2 SWAP1 PUSH2 0x3136 JUMP JUMPDEST SWAP3 POP PUSH1 0x64 DUP9 PUSH1 0x0 ADD SLOAD PUSH2 0x16FD SWAP2 SWAP1 PUSH2 0x3105 JUMP JUMPDEST DUP5 PUSH2 0x1708 SWAP2 SWAP1 PUSH2 0x339B JUMP JUMPDEST SWAP4 POP PUSH1 0x64 PUSH1 0x63 DUP10 PUSH1 0x0 ADD SLOAD PUSH2 0x171D SWAP2 SWAP1 PUSH2 0x2D98 JUMP JUMPDEST PUSH2 0x1727 SWAP2 SWAP1 PUSH2 0x3105 JUMP JUMPDEST DUP6 DUP4 PUSH4 0xFFFFFFFF AND DUP2 MLOAD DUP2 LT PUSH2 0x1740 JUMPI PUSH2 0x173F PUSH2 0x333B JUMP JUMPDEST JUMPDEST PUSH1 0x20 MUL PUSH1 0x20 ADD ADD DUP2 DUP2 MSTORE POP POP PUSH2 0x182A JUMP JUMPDEST PUSH1 0x1 DUP7 DUP4 PUSH4 0xFFFFFFFF AND DUP2 MLOAD DUP2 LT PUSH2 0x176C JUMPI PUSH2 0x176B PUSH2 0x333B JUMP JUMPDEST JUMPDEST PUSH1 0x20 MUL PUSH1 0x20 ADD ADD MLOAD PUSH1 0xFF AND SUB PUSH2 0x1817 JUMPI PUSH1 0x64 PUSH1 0xC6 DUP10 PUSH1 0x0 ADD SLOAD PUSH2 0x178F SWAP2 SWAP1 PUSH2 0x2D98 JUMP JUMPDEST PUSH2 0x1799 SWAP2 SWAP1 PUSH2 0x3105 JUMP JUMPDEST DUP4 PUSH2 0x17A4 SWAP2 SWAP1 PUSH2 0x3136 JUMP JUMPDEST SWAP3 POP PUSH1 0x64 PUSH1 0x62 DUP10 PUSH1 0x0 ADD SLOAD PUSH2 0x17B9 SWAP2 SWAP1 PUSH2 0x2D98 JUMP JUMPDEST PUSH2 0x17C3 SWAP2 SWAP1 PUSH2 0x3105 JUMP JUMPDEST DUP5 PUSH2 0x17CE SWAP2 SWAP1 PUSH2 0x33DE JUMP JUMPDEST SWAP4 POP PUSH1 0x64 PUSH1 0xC6 DUP10 PUSH1 0x0 ADD SLOAD PUSH2 0x17E3 SWAP2 SWAP1 PUSH2 0x2D98 JUMP JUMPDEST PUSH2 0x17ED SWAP2 SWAP1 PUSH2 0x3105 JUMP JUMPDEST DUP6 DUP4 PUSH4 0xFFFFFFFF AND DUP2 MLOAD DUP2 LT PUSH2 0x1806 JUMPI PUSH2 0x1805 PUSH2 0x333B JUMP JUMPDEST JUMPDEST PUSH1 0x20 MUL PUSH1 0x20 ADD ADD DUP2 DUP2 MSTORE POP POP PUSH2 0x182A JUMP JUMPDEST DUP8 PUSH1 0x0 ADD SLOAD DUP5 PUSH2 0x1827 SWAP2 SWAP1 PUSH2 0x339B JUMP JUMPDEST SWAP4 POP JUMPDEST DUP2 DUP1 PUSH2 0x1835 SWAP1 PUSH2 0x3422 JUMP JUMPDEST SWAP3 POP POP PUSH2 0x158C JUMP JUMPDEST DUP8 PUSH1 0x0 ADD SLOAD DUP3 DUP10 PUSH1 0x4 ADD PUSH1 0x1C SWAP1 SLOAD SWAP1 PUSH2 0x100 EXP SWAP1 DIV PUSH4 0xFFFFFFFF AND PUSH2 0x1862 SWAP2 SWAP1 PUSH2 0x344E JUMP JUMPDEST PUSH4 0xFFFFFFFF AND PUSH2 0x1872 SWAP2 SWAP1 PUSH2 0x2D98 JUMP JUMPDEST DUP4 PUSH2 0x187D SWAP2 SWAP1 PUSH2 0x3136 JUMP JUMPDEST SWAP3 POP DUP9 PUSH20 0xFFFFFFFFFFFFFFFFFFFFFFFFFFFFFFFFFFFFFFFF AND PUSH32 0x10926C19B020B305E529B4FBE64764CE71360378F742C3E3D04E62D586BF9C0E DUP10 PUSH1 0x0 ADD SLOAD DUP6 DUP12 PUSH1 0x4 ADD PUSH1 0x0 SWAP1 SLOAD SWAP1 PUSH2 0x100 EXP SWAP1 DIV PUSH20 0xFFFFFFFFFFFFFFFFFFFFFFFFFFFFFFFFFFFFFFFF AND DUP11 DUP13 DUP12 DUP10 PUSH1 0x40 MLOAD PUSH2 0x18F9 SWAP8 SWAP7 SWAP6 SWAP5 SWAP4 SWAP3 SWAP2 SWAP1 PUSH2 0x35E4 JUMP JUMPDEST PUSH1 0x40 MLOAD DUP1 SWAP2 SUB SWAP1 LOG2 PUSH2 0x1934 DUP2 DUP10 PUSH1 0x4 ADD PUSH1 0x1C SWAP1 SLOAD SWAP1 PUSH2 0x100 EXP SWAP1 DIV PUSH4 0xFFFFFFFF AND PUSH4 0xFFFFFFFF AND DUP11 PUSH1 0x0 ADD SLOAD PUSH2 0x192F SWAP2 SWAP1 PUSH2 0x2D98 JUMP JUMPDEST PUSH2 0x2142 JUMP JUMPDEST PUSH1 0x8 PUSH1 0x0 DUP13 DUP2 MSTORE PUSH1 0x20 ADD SWAP1 DUP2 MSTORE PUSH1 0x20 ADD PUSH1 0x0 KECCAK256 PUSH1 0x0 PUSH2 0x100 EXP DUP2 SLOAD SWAP1 PUSH20 0xFFFFFFFFFFFFFFFFFFFFFFFFFFFFFFFFFFFFFFFF MUL NOT AND SWAP1 SSTORE PUSH1 0x7 PUSH1 0x0 DUP11 PUSH20 0xFFFFFFFFFFFFFFFFFFFFFFFFFFFFFFFFFFFFFFFF AND PUSH20 0xFFFFFFFFFFFFFFFFFFFFFFFFFFFFFFFFFFFFFFFF AND DUP2 MSTORE PUSH1 0x20 ADD SWAP1 DUP2 MSTORE PUSH1 0x20 ADD PUSH1 0x0 KECCAK256 PUSH1 0x0 DUP1 DUP3 ADD PUSH1 0x0 SWAP1 SSTORE PUSH1 0x1 DUP3 ADD PUSH1 0x0 SWAP1 SSTORE PUSH1 0x2 DUP3 ADD PUSH1 0x0 SWAP1 SSTORE PUSH1 0x3 DUP3 ADD PUSH1 0x0 SWAP1 SSTORE PUSH1 0x4 DUP3 ADD PUSH1 0x0 PUSH2 0x100 EXP DUP2 SLOAD SWAP1 PUSH20 0xFFFFFFFFFFFFFFFFFFFFFFFFFFFFFFFFFFFFFFFF MUL NOT AND SWAP1 SSTORE PUSH1 0x4 DUP3 ADD PUSH1 0x14 PUSH2 0x100 EXP DUP2 SLOAD SWAP1 PUSH8 0xFFFFFFFFFFFFFFFF MUL NOT AND SWAP1 SSTORE PUSH1 0x4 DUP3 ADD PUSH1 0x1C PUSH2 0x100 EXP DUP2 SLOAD SWAP1 PUSH4 0xFFFFFFFF MUL NOT AND SWAP1 SSTORE PUSH1 0x5 DUP3 ADD PUSH1 0x0 PUSH2 0x100 EXP DUP2 SLOAD SWAP1 PUSH1 0xFF MUL NOT AND SWAP1 SSTORE POP POP PUSH1 0x0 DUP4 EQ PUSH2 0x1A4D JUMPI PUSH2 0x1A4C DUP10 DUP5 DUP4 PUSH2 0x2293 JUMP JUMPDEST JUMPDEST POP POP POP POP POP POP POP POP POP POP POP JUMP JUMPDEST PUSH1 0x0 DUP1 PUSH20 0xFFFFFFFFFFFFFFFFFFFFFFFFFFFFFFFFFFFFFFFF AND DUP3 PUSH20 0xFFFFFFFFFFFFFFFFFFFFFFFFFFFFFFFFFFFFFFFF AND SUB PUSH2 0x1AD0 JUMPI PUSH1 0x6 PUSH1 0x0 SWAP1 SLOAD SWAP1 PUSH2 0x100 EXP SWAP1 DIV PUSH20 0xFFFFFFFFFFFFFFFFFFFFFFFFFFFFFFFFFFFFFFFF AND PUSH20 0xFFFFFFFFFFFFFFFFFFFFFFFFFFFFFFFFFFFFFFFF AND BALANCE SWAP1 POP PUSH2 0x1B6F JUMP JUMPDEST DUP2 PUSH20 0xFFFFFFFFFFFFFFFFFFFFFFFFFFFFFFFFFFFFFFFF AND PUSH4 0x70A08231 PUSH1 0x6 PUSH1 0x0 SWAP1 SLOAD SWAP1 PUSH2 0x100 EXP SWAP1 DIV PUSH20 0xFFFFFFFFFFFFFFFFFFFFFFFFFFFFFFFFFFFFFFFF AND PUSH1 0x40 MLOAD DUP3 PUSH4 0xFFFFFFFF AND PUSH1 0xE0 SHL DUP2 MSTORE PUSH1 0x4 ADD PUSH2 0x1B2B SWAP2 SWAP1 PUSH2 0x293B JUMP JUMPDEST PUSH1 0x20 PUSH1 0x40 MLOAD DUP1 DUP4 SUB DUP2 DUP7 GAS STATICCALL ISZERO DUP1 ISZERO PUSH2 0x1B48 JUMPI RETURNDATASIZE PUSH1 0x0 DUP1 RETURNDATACOPY RETURNDATASIZE PUSH1 0x0 REVERT JUMPDEST POP POP POP POP PUSH1 0x40 MLOAD RETURNDATASIZE PUSH1 0x1F NOT PUSH1 0x1F DUP3 ADD AND DUP3 ADD DUP1 PUSH1 0x40 MSTORE POP DUP2 ADD SWAP1 PUSH2 0x1B6C SWAP2 SWAP1 PUSH2 0x3668 JUMP JUMPDEST SWAP1 POP JUMPDEST PUSH1 0x0 PUSH4 0x5F5E100 PUSH3 0x19B0AD DUP4 PUSH2 0x1B85 SWAP2 SWAP1 PUSH2 0x2D98 JUMP JUMPDEST PUSH2 0x1B8F SWAP2 SWAP1 PUSH2 0x3105 JUMP JUMPDEST SWAP1 POP DUP1 DUP5 GT ISZERO PUSH2 0x1BD8 JUMPI DUP4 DUP2 PUSH1 0x40 MLOAD PUSH32 0xD53662AA00000000000000000000000000000000000000000000000000000000 DUP2 MSTORE PUSH1 0x4 ADD PUSH2 0x1BCF SWAP3 SWAP2 SWAP1 PUSH2 0x3695 JUMP JUMPDEST PUSH1 0x40 MLOAD DUP1 SWAP2 SUB SWAP1 REVERT JUMPDEST POP POP POP POP JUMP JUMPDEST PUSH1 0x0 PUSH1 0x6 PUSH1 0x0 SWAP1 SLOAD SWAP1 PUSH2 0x100 EXP SWAP1 DIV PUSH20 0xFFFFFFFFFFFFFFFFFFFFFFFFFFFFFFFFFFFFFFFF AND PUSH20 0xFFFFFFFFFFFFFFFFFFFFFFFFFFFFFFFFFFFFFFFF AND PUSH4 0xBFD7F9CC ADDRESS DUP8 PUSH1 0x40 MLOAD DUP4 PUSH4 0xFFFFFFFF AND PUSH1 0xE0 SHL DUP2 MSTORE PUSH1 0x4 ADD PUSH2 0x1C3D SWAP3 SWAP2 SWAP1 PUSH2 0x2E49 JUMP JUMPDEST PUSH1 0x20 PUSH1 0x40 MLOAD DUP1 DUP4 SUB DUP2 DUP7 GAS STATICCALL ISZERO DUP1 ISZERO PUSH2 0x1C5A JUMPI RETURNDATASIZE PUSH1 0x0 DUP1 RETURNDATACOPY RETURNDATASIZE PUSH1 0x0 REVERT JUMPDEST POP POP POP POP PUSH1 0x40 MLOAD RETURNDATASIZE PUSH1 0x1F NOT PUSH1 0x1F DUP3 ADD AND DUP3 ADD DUP1 PUSH1 0x40 MSTORE POP DUP2 ADD SWAP1 PUSH2 0x1C7E SWAP2 SWAP1 PUSH2 0x36EA JUMP JUMPDEST PUSH2 0x1CB4 JUMPI PUSH1 0x40 MLOAD PUSH32 0x51C3B94F00000000000000000000000000000000000000000000000000000000 DUP2 MSTORE PUSH1 0x4 ADD PUSH1 0x40 MLOAD DUP1 SWAP2 SUB SWAP1 REVERT JUMPDEST PUSH1 0x0 DUP5 SUB PUSH2 0x1CEE JUMPI PUSH1 0x40 MLOAD PUSH32 0x7375C8400000000000000000000000000000000000000000000000000000000 DUP2 MSTORE PUSH1 0x4 ADD PUSH1 0x40 MLOAD DUP1 SWAP2 SUB SWAP1 REVERT JUMPDEST PUSH1 0x0 DUP1 PUSH1 0x6 PUSH1 0x0 SWAP1 SLOAD SWAP1 PUSH2 0x100 EXP SWAP1 DIV PUSH20 0xFFFFFFFFFFFFFFFFFFFFFFFFFFFFFFFFFFFFFFFF AND PUSH20 0xFFFFFFFFFFFFFFFFFFFFFFFFFFFFFFFFFFFFFFFF AND PUSH4 0xA5748A8 DUP6 PUSH1 0x40 MLOAD DUP3 PUSH4 0xFFFFFFFF AND PUSH1 0xE0 SHL DUP2 MSTORE PUSH1 0x4 ADD PUSH2 0x1D4C SWAP2 SWAP1 PUSH2 0x293B JUMP JUMPDEST PUSH1 0x40 DUP1 MLOAD DUP1 DUP4 SUB DUP2 DUP7 GAS STATICCALL ISZERO DUP1 ISZERO PUSH2 0x1D68 JUMPI RETURNDATASIZE PUSH1 0x0 DUP1 RETURNDATACOPY RETURNDATASIZE PUSH1 0x0 REVERT JUMPDEST POP POP POP POP PUSH1 0x40 MLOAD RETURNDATASIZE PUSH1 0x1F NOT PUSH1 0x1F DUP3 ADD AND DUP3 ADD DUP1 PUSH1 0x40 MSTORE POP DUP2 ADD SWAP1 PUSH2 0x1D8C SWAP2 SWAP1 PUSH2 0x3717 JUMP JUMPDEST SWAP2 POP SWAP2 POP DUP2 ISZERO PUSH2 0x1DD3 JUMPI DUP1 PUSH1 0x40 MLOAD PUSH32 0x6C2775F500000000000000000000000000000000000000000000000000000000 DUP2 MSTORE PUSH1 0x4 ADD PUSH2 0x1DCA SWAP2 SWAP1 PUSH2 0x2A21 JUMP JUMPDEST PUSH1 0x40 MLOAD DUP1 SWAP2 SUB SWAP1 REVERT JUMPDEST PUSH2 0x1DDC DUP6 PUSH2 0xAD7 JUMP JUMPDEST SWAP3 POP PUSH1 0x0 PUSH20 0xFFFFFFFFFFFFFFFFFFFFFFFFFFFFFFFFFFFFFFFF AND DUP8 PUSH20 0xFFFFFFFFFFFFFFFFFFFFFFFFFFFFFFFFFFFFFFFF AND SUB PUSH2 0x1E93 JUMPI DUP3 DUP7 PUSH2 0x1E1E SWAP2 SWAP1 PUSH2 0x3136 JUMP JUMPDEST CALLVALUE LT ISZERO PUSH2 0x1E6F JUMPI DUP3 DUP7 PUSH2 0x1E31 SWAP2 SWAP1 PUSH2 0x3136 JUMP JUMPDEST CALLVALUE PUSH1 0x40 MLOAD PUSH32 0xDE9B74A100000000000000000000000000000000000000000000000000000000 DUP2 MSTORE PUSH1 0x4 ADD PUSH2 0x1E66 SWAP3 SWAP2 SWAP1 PUSH2 0x3695 JUMP JUMPDEST PUSH1 0x40 MLOAD DUP1 SWAP2 SUB SWAP1 REVERT JUMPDEST PUSH2 0x1E8E DUP7 DUP5 PUSH2 0x1E7E SWAP2 SWAP1 PUSH2 0x3136 JUMP JUMPDEST CALLVALUE PUSH2 0x1E89 SWAP2 SWAP1 PUSH2 0x3757 JUMP JUMPDEST PUSH2 0x2329 JUMP JUMPDEST PUSH2 0x1F1C JUMP JUMPDEST DUP3 CALLVALUE LT ISZERO PUSH2 0x1EDA JUMPI DUP3 CALLVALUE PUSH1 0x40 MLOAD PUSH32 0xDE9B74A100000000000000000000000000000000000000000000000000000000 DUP2 MSTORE PUSH1 0x4 ADD PUSH2 0x1ED1 SWAP3 SWAP2 SWAP1 PUSH2 0x3695 JUMP JUMPDEST PUSH1 0x40 MLOAD DUP1 SWAP2 SUB SWAP1 REVERT JUMPDEST PUSH2 0x1F07 DUP5 ADDRESS DUP9 DUP11 PUSH20 0xFFFFFFFFFFFFFFFFFFFFFFFFFFFFFFFFFFFFFFFF AND PUSH2 0x23DA SWAP1 SWAP4 SWAP3 SWAP2 SWAP1 PUSH4 0xFFFFFFFF AND JUMP JUMPDEST PUSH2 0x1F1B DUP4 CALLVALUE PUSH2 0x1F16 SWAP2 SWAP1 PUSH2 0x3757 JUMP JUMPDEST PUSH2 0x2329 JUMP JUMPDEST JUMPDEST DUP3 PUSH1 0x1 PUSH1 0x0 DUP3 DUP3 SLOAD PUSH2 0x1F2E SWAP2 SWAP1 PUSH2 0x3136 JUMP JUMPDEST SWAP3 POP POP DUP2 SWAP1 SSTORE POP POP POP SWAP5 SWAP4 POP POP POP POP JUMP JUMPDEST PUSH1 0x0 PUSH1 0x2 PUSH1 0x0 SWAP1 SLOAD SWAP1 PUSH2 0x100 EXP SWAP1 DIV PUSH20 0xFFFFFFFFFFFFFFFFFFFFFFFFFFFFFFFFFFFFFFFF AND PUSH20 0xFFFFFFFFFFFFFFFFFFFFFFFFFFFFFFFFFFFFFFFF AND PUSH4 0x5D3B1D30 PUSH32 0xD729DC84E21AE57FFB6BE0053BF2B0668AA2AAF300A2A7B2DDF7DC0BB6E875A8 PUSH2 0x240 PUSH1 0x3 PUSH3 0x2625A0 DUP8 PUSH1 0x40 MLOAD DUP7 PUSH4 0xFFFFFFFF AND PUSH1 0xE0 SHL DUP2 MSTORE PUSH1 0x4 ADD PUSH2 0x1FCA SWAP6 SWAP5 SWAP4 SWAP3 SWAP2 SWAP1 PUSH2 0x389C JUMP JUMPDEST PUSH1 0x20 PUSH1 0x40 MLOAD DUP1 DUP4 SUB DUP2 PUSH1 0x0 DUP8 GAS CALL ISZERO DUP1 ISZERO PUSH2 0x1FE9 JUMPI RETURNDATASIZE PUSH1 0x0 DUP1 RETURNDATACOPY RETURNDATASIZE PUSH1 0x0 REVERT JUMPDEST POP POP POP POP PUSH1 0x40 MLOAD RETURNDATASIZE PUSH1 0x1F NOT PUSH1 0x1F DUP3 ADD AND DUP3 ADD DUP1 PUSH1 0x40 MSTORE POP DUP2 ADD SWAP1 PUSH2 0x200D SWAP2 SWAP1 PUSH2 0x3668 JUMP JUMPDEST SWAP1 POP SWAP2 SWAP1 POP JUMP JUMPDEST PUSH1 0x0 PUSH2 0x203F DUP3 DUP5 PUSH20 0xFFFFFFFFFFFFFFFFFFFFFFFFFFFFFFFFFFFFFFFF AND PUSH2 0x245C SWAP1 SWAP2 SWAP1 PUSH4 0xFFFFFFFF AND JUMP JUMPDEST SWAP1 POP PUSH1 0x0 DUP2 MLOAD EQ ISZERO DUP1 ISZERO PUSH2 0x2064 JUMPI POP DUP1 DUP1 PUSH1 0x20 ADD SWAP1 MLOAD DUP2 ADD SWAP1 PUSH2 0x2062 SWAP2 SWAP1 PUSH2 0x36EA JUMP JUMPDEST ISZERO JUMPDEST ISZERO PUSH2 0x20A6 JUMPI DUP3 PUSH1 0x40 MLOAD PUSH32 0x5274AFE700000000000000000000000000000000000000000000000000000000 DUP2 MSTORE PUSH1 0x4 ADD PUSH2 0x209D SWAP2 SWAP1 PUSH2 0x293B JUMP JUMPDEST PUSH1 0x40 MLOAD DUP1 SWAP2 SUB SWAP1 REVERT JUMPDEST POP POP POP JUMP JUMPDEST PUSH1 0x0 DUP2 PUSH1 0xFF AND DUP4 PUSH1 0xFF AND SUB PUSH2 0x20C3 JUMPI PUSH1 0x2 SWAP1 POP PUSH2 0x213C JUMP JUMPDEST PUSH1 0x0 DUP4 PUSH1 0xFF AND SUB PUSH2 0x20EB JUMPI PUSH1 0x1 DUP3 PUSH1 0xFF AND SUB PUSH2 0x20E2 JUMPI PUSH1 0x0 SWAP1 POP PUSH2 0x213C JUMP JUMPDEST PUSH1 0x1 SWAP1 POP PUSH2 0x213C JUMP JUMPDEST PUSH1 0x1 DUP4 PUSH1 0xFF AND SUB PUSH2 0x2113 JUMPI PUSH1 0x2 DUP3 PUSH1 0xFF AND SUB PUSH2 0x210A JUMPI PUSH1 0x0 SWAP1 POP PUSH2 0x213C JUMP JUMPDEST PUSH1 0x1 SWAP1 POP PUSH2 0x213C JUMP JUMPDEST PUSH1 0x2 DUP4 PUSH1 0xFF AND SUB PUSH2 0x213B JUMPI PUSH1 0x0 DUP3 PUSH1 0xFF AND SUB PUSH2 0x2132 JUMPI PUSH1 0x0 SWAP1 POP PUSH2 0x213C JUMP JUMPDEST PUSH1 0x1 SWAP1 POP PUSH2 0x213C JUMP JUMPDEST JUMPDEST SWAP3 SWAP2 POP POP JUMP JUMPDEST PUSH1 0x0 PUSH20 0xFFFFFFFFFFFFFFFFFFFFFFFFFFFFFFFFFFFFFFFF AND DUP3 PUSH20 0xFFFFFFFFFFFFFFFFFFFFFFFFFFFFFFFFFFFFFFFF AND SUB PUSH2 0x2241 JUMPI PUSH1 0x0 PUSH1 0x6 PUSH1 0x0 SWAP1 SLOAD SWAP1 PUSH2 0x100 EXP SWAP1 DIV PUSH20 0xFFFFFFFFFFFFFFFFFFFFFFFFFFFFFFFFFFFFFFFF AND PUSH20 0xFFFFFFFFFFFFFFFFFFFFFFFFFFFFFFFFFFFFFFFF AND DUP3 PUSH1 0x40 MLOAD PUSH2 0x21BE SWAP1 PUSH2 0x2E0B JUMP JUMPDEST PUSH1 0x0 PUSH1 0x40 MLOAD DUP1 DUP4 SUB DUP2 DUP6 DUP8 GAS CALL SWAP3 POP POP POP RETURNDATASIZE DUP1 PUSH1 0x0 DUP2 EQ PUSH2 0x21FB JUMPI PUSH1 0x40 MLOAD SWAP2 POP PUSH1 0x1F NOT PUSH1 0x3F RETURNDATASIZE ADD AND DUP3 ADD PUSH1 0x40 MSTORE RETURNDATASIZE DUP3 MSTORE RETURNDATASIZE PUSH1 0x0 PUSH1 0x20 DUP5 ADD RETURNDATACOPY PUSH2 0x2200 JUMP JUMPDEST PUSH1 0x60 SWAP2 POP JUMPDEST POP POP SWAP1 POP DUP1 PUSH2 0x223B JUMPI PUSH1 0x40 MLOAD PUSH32 0xF0C49D4400000000000000000000000000000000000000000000000000000000 DUP2 MSTORE PUSH1 0x4 ADD PUSH1 0x40 MLOAD DUP1 SWAP2 SUB SWAP1 REVERT JUMPDEST POP PUSH2 0x228F JUMP JUMPDEST PUSH2 0x228E PUSH1 0x6 PUSH1 0x0 SWAP1 SLOAD SWAP1 PUSH2 0x100 EXP SWAP1 DIV PUSH20 0xFFFFFFFFFFFFFFFFFFFFFFFFFFFFFFFFFFFFFFFF AND DUP3 DUP5 PUSH20 0xFFFFFFFFFFFFFFFFFFFFFFFFFFFFFFFFFFFFFFFF AND PUSH2 0x12AC SWAP1 SWAP3 SWAP2 SWAP1 PUSH4 0xFFFFFFFF AND JUMP JUMPDEST JUMPDEST POP POP JUMP JUMPDEST PUSH1 0x6 PUSH1 0x0 SWAP1 SLOAD SWAP1 PUSH2 0x100 EXP SWAP1 DIV PUSH20 0xFFFFFFFFFFFFFFFFFFFFFFFFFFFFFFFFFFFFFFFF AND PUSH20 0xFFFFFFFFFFFFFFFFFFFFFFFFFFFFFFFFFFFFFFFF AND PUSH4 0x6C025EC2 DUP5 DUP5 DUP5 PUSH1 0x40 MLOAD DUP5 PUSH4 0xFFFFFFFF AND PUSH1 0xE0 SHL DUP2 MSTORE PUSH1 0x4 ADD PUSH2 0x22F2 SWAP4 SWAP3 SWAP2 SWAP1 PUSH2 0x38EF JUMP JUMPDEST PUSH1 0x0 PUSH1 0x40 MLOAD DUP1 DUP4 SUB DUP2 PUSH1 0x0 DUP8 DUP1 EXTCODESIZE ISZERO DUP1 ISZERO PUSH2 0x230C JUMPI PUSH1 0x0 DUP1 REVERT JUMPDEST POP GAS CALL ISZERO DUP1 ISZERO PUSH2 0x2320 JUMPI RETURNDATASIZE PUSH1 0x0 DUP1 RETURNDATACOPY RETURNDATASIZE PUSH1 0x0 REVERT JUMPDEST POP POP POP POP POP POP POP JUMP JUMPDEST PUSH1 0x0 DUP2 SUB ISZERO PUSH2 0x23D7 JUMPI PUSH1 0x0 CALLER PUSH20 0xFFFFFFFFFFFFFFFFFFFFFFFFFFFFFFFFFFFFFFFF AND DUP3 PUSH1 0x40 MLOAD PUSH2 0x2358 SWAP1 PUSH2 0x2E0B JUMP JUMPDEST PUSH1 0x0 PUSH1 0x40 MLOAD DUP1 DUP4 SUB DUP2 DUP6 DUP8 GAS CALL SWAP3 POP POP POP RETURNDATASIZE DUP1 PUSH1 0x0 DUP2 EQ PUSH2 0x2395 JUMPI PUSH1 0x40 MLOAD SWAP2 POP PUSH1 0x1F NOT PUSH1 0x3F RETURNDATASIZE ADD AND DUP3 ADD PUSH1 0x40 MSTORE RETURNDATASIZE DUP3 MSTORE RETURNDATASIZE PUSH1 0x0 PUSH1 0x20 DUP5 ADD RETURNDATACOPY PUSH2 0x239A JUMP JUMPDEST PUSH1 0x60 SWAP2 POP JUMPDEST POP POP SWAP1 POP DUP1 PUSH2 0x23D5 JUMPI PUSH1 0x40 MLOAD PUSH32 0xF0C49D4400000000000000000000000000000000000000000000000000000000 DUP2 MSTORE PUSH1 0x4 ADD PUSH1 0x40 MLOAD DUP1 SWAP2 SUB SWAP1 REVERT JUMPDEST POP JUMPDEST POP JUMP JUMPDEST PUSH2 0x2456 DUP5 DUP6 PUSH20 0xFFFFFFFFFFFFFFFFFFFFFFFFFFFFFFFFFFFFFFFF AND PUSH4 0x23B872DD DUP7 DUP7 DUP7 PUSH1 0x40 MLOAD PUSH1 0x24 ADD PUSH2 0x240F SWAP4 SWAP3 SWAP2 SWAP1 PUSH2 0x3926 JUMP JUMPDEST PUSH1 0x40 MLOAD PUSH1 0x20 DUP2 DUP4 SUB SUB DUP2 MSTORE SWAP1 PUSH1 0x40 MSTORE SWAP2 POP PUSH1 0xE0 SHL PUSH1 0x20 DUP3 ADD DUP1 MLOAD PUSH28 0xFFFFFFFFFFFFFFFFFFFFFFFFFFFFFFFFFFFFFFFFFFFFFFFFFFFFFFFF DUP4 DUP2 DUP4 AND OR DUP4 MSTORE POP POP POP POP PUSH2 0x2014 JUMP JUMPDEST POP POP POP POP JUMP JUMPDEST PUSH1 0x60 PUSH2 0x246A DUP4 DUP4 PUSH1 0x0 PUSH2 0x2472 JUMP JUMPDEST SWAP1 POP SWAP3 SWAP2 POP POP JUMP JUMPDEST PUSH1 0x60 DUP2 SELFBALANCE LT ISZERO PUSH2 0x24B9 JUMPI ADDRESS PUSH1 0x40 MLOAD PUSH32 0xCD78605900000000000000000000000000000000000000000000000000000000 DUP2 MSTORE PUSH1 0x4 ADD PUSH2 0x24B0 SWAP2 SWAP1 PUSH2 0x293B JUMP JUMPDEST PUSH1 0x40 MLOAD DUP1 SWAP2 SUB SWAP1 REVERT JUMPDEST PUSH1 0x0 DUP1 DUP6 PUSH20 0xFFFFFFFFFFFFFFFFFFFFFFFFFFFFFFFFFFFFFFFF AND DUP5 DUP7 PUSH1 0x40 MLOAD PUSH2 0x24E2 SWAP2 SWAP1 PUSH2 0x39C3 JUMP JUMPDEST PUSH1 0x0 PUSH1 0x40 MLOAD DUP1 DUP4 SUB DUP2 DUP6 DUP8 GAS CALL SWAP3 POP POP POP RETURNDATASIZE DUP1 PUSH1 0x0 DUP2 EQ PUSH2 0x251F JUMPI PUSH1 0x40 MLOAD SWAP2 POP PUSH1 0x1F NOT PUSH1 0x3F RETURNDATASIZE ADD AND DUP3 ADD PUSH1 0x40 MSTORE RETURNDATASIZE DUP3 MSTORE RETURNDATASIZE PUSH1 0x0 PUSH1 0x20 DUP5 ADD RETURNDATACOPY PUSH2 0x2524 JUMP JUMPDEST PUSH1 0x60 SWAP2 POP JUMPDEST POP SWAP2 POP SWAP2 POP PUSH2 0x2534 DUP7 DUP4 DUP4 PUSH2 0x253F JUMP JUMPDEST SWAP3 POP POP POP SWAP4 SWAP3 POP POP POP JUMP JUMPDEST PUSH1 0x60 DUP3 PUSH2 0x2554 JUMPI PUSH2 0x254F DUP3 PUSH2 0x25CE JUMP JUMPDEST PUSH2 0x25C6 JUMP JUMPDEST PUSH1 0x0 DUP3 MLOAD EQ DUP1 ISZERO PUSH2 0x257C JUMPI POP PUSH1 0x0 DUP5 PUSH20 0xFFFFFFFFFFFFFFFFFFFFFFFFFFFFFFFFFFFFFFFF AND EXTCODESIZE EQ JUMPDEST ISZERO PUSH2 0x25BE JUMPI DUP4 PUSH1 0x40 MLOAD PUSH32 0x9996B31500000000000000000000000000000000000000000000000000000000 DUP2 MSTORE PUSH1 0x4 ADD PUSH2 0x25B5 SWAP2 SWAP1 PUSH2 0x293B JUMP JUMPDEST PUSH1 0x40 MLOAD DUP1 SWAP2 SUB SWAP1 REVERT JUMPDEST DUP2 SWAP1 POP PUSH2 0x25C7 JUMP JUMPDEST JUMPDEST SWAP4 SWAP3 POP POP POP JUMP JUMPDEST PUSH1 0x0 DUP2 MLOAD GT ISZERO PUSH2 0x25E1 JUMPI DUP1 MLOAD DUP1 DUP3 PUSH1 0x20 ADD REVERT JUMPDEST PUSH1 0x40 MLOAD PUSH32 0x1425EA4200000000000000000000000000000000000000000000000000000000 DUP2 MSTORE PUSH1 0x4 ADD PUSH1 0x40 MLOAD DUP1 SWAP2 SUB SWAP1 REVERT JUMPDEST PUSH1 0x40 MLOAD DUP1 PUSH2 0x100 ADD PUSH1 0x40 MSTORE DUP1 PUSH1 0x0 DUP2 MSTORE PUSH1 0x20 ADD PUSH1 0x0 DUP2 MSTORE PUSH1 0x20 ADD PUSH1 0x0 DUP2 MSTORE PUSH1 0x20 ADD PUSH1 0x0 DUP2 MSTORE PUSH1 0x20 ADD PUSH1 0x0 PUSH20 0xFFFFFFFFFFFFFFFFFFFFFFFFFFFFFFFFFFFFFFFF AND DUP2 MSTORE PUSH1 0x20 ADD PUSH1 0x0 PUSH8 0xFFFFFFFFFFFFFFFF AND DUP2 MSTORE PUSH1 0x20 ADD PUSH1 0x0 PUSH4 0xFFFFFFFF AND DUP2 MSTORE PUSH1 0x20 ADD PUSH1 0x0 PUSH1 0xFF AND DUP2 MSTORE POP SWAP1 JUMP JUMPDEST PUSH1 0x0 PUSH1 0x40 MLOAD SWAP1 POP SWAP1 JUMP JUMPDEST PUSH1 0x0 DUP1 REVERT JUMPDEST PUSH1 0x0 DUP1 REVERT JUMPDEST PUSH1 0x0 DUP2 SWAP1 POP SWAP2 SWAP1 POP JUMP JUMPDEST PUSH2 0x26A8 DUP2 PUSH2 0x2695 JUMP JUMPDEST DUP2 EQ PUSH2 0x26B3 JUMPI PUSH1 0x0 DUP1 REVERT JUMPDEST POP JUMP JUMPDEST PUSH1 0x0 DUP2 CALLDATALOAD SWAP1 POP PUSH2 0x26C5 DUP2 PUSH2 0x269F JUMP JUMPDEST SWAP3 SWAP2 POP POP JUMP JUMPDEST PUSH1 0x0 DUP1 REVERT JUMPDEST PUSH1 0x0 PUSH1 0x1F NOT PUSH1 0x1F DUP4 ADD AND SWAP1 POP SWAP2 SWAP1 POP JUMP JUMPDEST PUSH32 0x4E487B7100000000000000000000000000000000000000000000000000000000 PUSH1 0x0 MSTORE PUSH1 0x41 PUSH1 0x4 MSTORE PUSH1 0x24 PUSH1 0x0 REVERT JUMPDEST PUSH2 0x2719 DUP3 PUSH2 0x26D0 JUMP JUMPDEST DUP2 ADD DUP2 DUP2 LT PUSH8 0xFFFFFFFFFFFFFFFF DUP3 GT OR ISZERO PUSH2 0x2738 JUMPI PUSH2 0x2737 PUSH2 0x26E1 JUMP JUMPDEST JUMPDEST DUP1 PUSH1 0x40 MSTORE POP POP POP JUMP JUMPDEST PUSH1 0x0 PUSH2 0x274B PUSH2 0x2681 JUMP JUMPDEST SWAP1 POP PUSH2 0x2757 DUP3 DUP3 PUSH2 0x2710 JUMP JUMPDEST SWAP2 SWAP1 POP JUMP JUMPDEST PUSH1 0x0 PUSH8 0xFFFFFFFFFFFFFFFF DUP3 GT ISZERO PUSH2 0x2777 JUMPI PUSH2 0x2776 PUSH2 0x26E1 JUMP JUMPDEST JUMPDEST PUSH1 0x20 DUP3 MUL SWAP1 POP PUSH1 0x20 DUP2 ADD SWAP1 POP SWAP2 SWAP1 POP JUMP JUMPDEST PUSH1 0x0 DUP1 REVERT JUMPDEST PUSH1 0x0 PUSH2 0x27A0 PUSH2 0x279B DUP5 PUSH2 0x275C JUMP JUMPDEST PUSH2 0x2741 JUMP JUMPDEST SWAP1 POP DUP1 DUP4 DUP3 MSTORE PUSH1 0x20 DUP3 ADD SWAP1 POP PUSH1 0x20 DUP5 MUL DUP4 ADD DUP6 DUP2 GT ISZERO PUSH2 0x27C3 JUMPI PUSH2 0x27C2 PUSH2 0x2788 JUMP JUMPDEST JUMPDEST DUP4 JUMPDEST DUP2 DUP2 LT ISZERO PUSH2 0x27EC JUMPI DUP1 PUSH2 0x27D8 DUP9 DUP3 PUSH2 0x26B6 JUMP JUMPDEST DUP5 MSTORE PUSH1 0x20 DUP5 ADD SWAP4 POP POP PUSH1 0x20 DUP2 ADD SWAP1 POP PUSH2 0x27C5 JUMP JUMPDEST POP POP POP SWAP4 SWAP3 POP POP POP JUMP JUMPDEST PUSH1 0x0 DUP3 PUSH1 0x1F DUP4 ADD SLT PUSH2 0x280B JUMPI PUSH2 0x280A PUSH2 0x26CB JUMP JUMPDEST JUMPDEST DUP2 CALLDATALOAD PUSH2 0x281B DUP5 DUP3 PUSH1 0x20 DUP7 ADD PUSH2 0x278D JUMP JUMPDEST SWAP2 POP POP SWAP3 SWAP2 POP POP JUMP JUMPDEST PUSH1 0x0 DUP1 PUSH1 0x40 DUP4 DUP6 SUB SLT ISZERO PUSH2 0x283B JUMPI PUSH2 0x283A PUSH2 0x268B JUMP JUMPDEST JUMPDEST PUSH1 0x0 PUSH2 0x2849 DUP6 DUP3 DUP7 ADD PUSH2 0x26B6 JUMP JUMPDEST SWAP3 POP POP PUSH1 0x20 DUP4 ADD CALLDATALOAD PUSH8 0xFFFFFFFFFFFFFFFF DUP2 GT ISZERO PUSH2 0x286A JUMPI PUSH2 0x2869 PUSH2 0x2690 JUMP JUMPDEST JUMPDEST PUSH2 0x2876 DUP6 DUP3 DUP7 ADD PUSH2 0x27F6 JUMP JUMPDEST SWAP2 POP POP SWAP3 POP SWAP3 SWAP1 POP JUMP JUMPDEST PUSH1 0x0 PUSH20 0xFFFFFFFFFFFFFFFFFFFFFFFFFFFFFFFFFFFFFFFF DUP3 AND SWAP1 POP SWAP2 SWAP1 POP JUMP JUMPDEST PUSH1 0x0 DUP2 SWAP1 POP SWAP2 SWAP1 POP JUMP JUMPDEST PUSH1 0x0 PUSH2 0x28C5 PUSH2 0x28C0 PUSH2 0x28BB DUP5 PUSH2 0x2880 JUMP JUMPDEST PUSH2 0x28A0 JUMP JUMPDEST PUSH2 0x2880 JUMP JUMPDEST SWAP1 POP SWAP2 SWAP1 POP JUMP JUMPDEST PUSH1 0x0 PUSH2 0x28D7 DUP3 PUSH2 0x28AA JUMP JUMPDEST SWAP1 POP SWAP2 SWAP1 POP JUMP JUMPDEST PUSH1 0x0 PUSH2 0x28E9 DUP3 PUSH2 0x28CC JUMP JUMPDEST SWAP1 POP SWAP2 SWAP1 POP JUMP JUMPDEST PUSH2 0x28F9 DUP2 PUSH2 0x28DE JUMP JUMPDEST DUP3 MSTORE POP POP JUMP JUMPDEST PUSH1 0x0 PUSH1 0x20 DUP3 ADD SWAP1 POP PUSH2 0x2914 PUSH1 0x0 DUP4 ADD DUP5 PUSH2 0x28F0 JUMP JUMPDEST SWAP3 SWAP2 POP POP JUMP JUMPDEST PUSH1 0x0 PUSH2 0x2925 DUP3 PUSH2 0x2880 JUMP JUMPDEST SWAP1 POP SWAP2 SWAP1 POP JUMP JUMPDEST PUSH2 0x2935 DUP2 PUSH2 0x291A JUMP JUMPDEST DUP3 MSTORE POP POP JUMP JUMPDEST PUSH1 0x0 PUSH1 0x20 DUP3 ADD SWAP1 POP PUSH2 0x2950 PUSH1 0x0 DUP4 ADD DUP5 PUSH2 0x292C JUMP JUMPDEST SWAP3 SWAP2 POP POP JUMP JUMPDEST PUSH2 0x295F DUP2 PUSH2 0x291A JUMP JUMPDEST DUP2 EQ PUSH2 0x296A JUMPI PUSH1 0x0 DUP1 REVERT JUMPDEST POP JUMP JUMPDEST PUSH1 0x0 DUP2 CALLDATALOAD SWAP1 POP PUSH2 0x297C DUP2 PUSH2 0x2956 JUMP JUMPDEST SWAP3 SWAP2 POP POP JUMP JUMPDEST PUSH1 0x0 PUSH1 0x20 DUP3 DUP5 SUB SLT ISZERO PUSH2 0x2998 JUMPI PUSH2 0x2997 PUSH2 0x268B JUMP JUMPDEST JUMPDEST PUSH1 0x0 PUSH2 0x29A6 DUP5 DUP3 DUP6 ADD PUSH2 0x296D JUMP JUMPDEST SWAP2 POP POP SWAP3 SWAP2 POP POP JUMP JUMPDEST PUSH1 0x0 DUP2 ISZERO ISZERO SWAP1 POP SWAP2 SWAP1 POP JUMP JUMPDEST PUSH2 0x29C4 DUP2 PUSH2 0x29AF JUMP JUMPDEST DUP3 MSTORE POP POP JUMP JUMPDEST PUSH1 0x0 PUSH1 0x20 DUP3 ADD SWAP1 POP PUSH2 0x29DF PUSH1 0x0 DUP4 ADD DUP5 PUSH2 0x29BB JUMP JUMPDEST SWAP3 SWAP2 POP POP JUMP JUMPDEST PUSH1 0x0 PUSH1 0x20 DUP3 DUP5 SUB SLT ISZERO PUSH2 0x29FB JUMPI PUSH2 0x29FA PUSH2 0x268B JUMP JUMPDEST JUMPDEST PUSH1 0x0 PUSH2 0x2A09 DUP5 DUP3 DUP6 ADD PUSH2 0x26B6 JUMP JUMPDEST SWAP2 POP POP SWAP3 SWAP2 POP POP JUMP JUMPDEST PUSH2 0x2A1B DUP2 PUSH2 0x2695 JUMP JUMPDEST DUP3 MSTORE POP POP JUMP JUMPDEST PUSH1 0x0 PUSH1 0x20 DUP3 ADD SWAP1 POP PUSH2 0x2A36 PUSH1 0x0 DUP4 ADD DUP5 PUSH2 0x2A12 JUMP JUMPDEST SWAP3 SWAP2 POP POP JUMP JUMPDEST PUSH1 0x0 PUSH2 0x2A47 DUP3 PUSH2 0x28CC JUMP JUMPDEST SWAP1 POP SWAP2 SWAP1 POP JUMP JUMPDEST PUSH2 0x2A57 DUP2 PUSH2 0x2A3C JUMP JUMPDEST DUP3 MSTORE POP POP JUMP JUMPDEST PUSH1 0x0 PUSH1 0x20 DUP3 ADD SWAP1 POP PUSH2 0x2A72 PUSH1 0x0 DUP4 ADD DUP5 PUSH2 0x2A4E JUMP JUMPDEST SWAP3 SWAP2 POP POP JUMP JUMPDEST PUSH2 0x2A81 DUP2 PUSH2 0x2695 JUMP JUMPDEST DUP3 MSTORE POP POP JUMP JUMPDEST PUSH2 0x2A90 DUP2 PUSH2 0x291A JUMP JUMPDEST DUP3 MSTORE POP POP JUMP JUMPDEST PUSH1 0x0 PUSH8 0xFFFFFFFFFFFFFFFF DUP3 AND SWAP1 POP SWAP2 SWAP1 POP JUMP JUMPDEST PUSH2 0x2AB3 DUP2 PUSH2 0x2A96 JUMP JUMPDEST DUP3 MSTORE POP POP JUMP JUMPDEST PUSH1 0x0 PUSH4 0xFFFFFFFF DUP3 AND SWAP1 POP SWAP2 SWAP1 POP JUMP JUMPDEST PUSH2 0x2AD2 DUP2 PUSH2 0x2AB9 JUMP JUMPDEST DUP3 MSTORE POP POP JUMP JUMPDEST PUSH1 0x0 PUSH1 0xFF DUP3 AND SWAP1 POP SWAP2 SWAP1 POP JUMP JUMPDEST PUSH2 0x2AEE DUP2 PUSH2 0x2AD8 JUMP JUMPDEST DUP3 MSTORE POP POP JUMP JUMPDEST PUSH2 0x100 DUP3 ADD PUSH1 0x0 DUP3 ADD MLOAD PUSH2 0x2B0B PUSH1 0x0 DUP6 ADD DUP3 PUSH2 0x2A78 JUMP JUMPDEST POP PUSH1 0x20 DUP3 ADD MLOAD PUSH2 0x2B1E PUSH1 0x20 DUP6 ADD DUP3 PUSH2 0x2A78 JUMP JUMPDEST POP PUSH1 0x40 DUP3 ADD MLOAD PUSH2 0x2B31 PUSH1 0x40 DUP6 ADD DUP3 PUSH2 0x2A78 JUMP JUMPDEST POP PUSH1 0x60 DUP3 ADD MLOAD PUSH2 0x2B44 PUSH1 0x60 DUP6 ADD DUP3 PUSH2 0x2A78 JUMP JUMPDEST POP PUSH1 0x80 DUP3 ADD MLOAD PUSH2 0x2B57 PUSH1 0x80 DUP6 ADD DUP3 PUSH2 0x2A87 JUMP JUMPDEST POP PUSH1 0xA0 DUP3 ADD MLOAD PUSH2 0x2B6A PUSH1 0xA0 DUP6 ADD DUP3 PUSH2 0x2AAA JUMP JUMPDEST POP PUSH1 0xC0 DUP3 ADD MLOAD PUSH2 0x2B7D PUSH1 0xC0 DUP6 ADD DUP3 PUSH2 0x2AC9 JUMP JUMPDEST POP PUSH1 0xE0 DUP3 ADD MLOAD PUSH2 0x2B90 PUSH1 0xE0 DUP6 ADD DUP3 PUSH2 0x2AE5 JUMP JUMPDEST POP POP POP POP JUMP JUMPDEST PUSH1 0x0 PUSH2 0x100 DUP3 ADD SWAP1 POP PUSH2 0x2BAC PUSH1 0x0 DUP4 ADD DUP5 PUSH2 0x2AF4 JUMP JUMPDEST SWAP3 SWAP2 POP POP JUMP JUMPDEST PUSH1 0x0 PUSH2 0x2BBD DUP3 PUSH2 0x28CC JUMP JUMPDEST SWAP1 POP SWAP2 SWAP1 POP JUMP JUMPDEST PUSH2 0x2BCD DUP2 PUSH2 0x2BB2 JUMP JUMPDEST DUP3 MSTORE POP POP JUMP JUMPDEST PUSH1 0x0 PUSH1 0x20 DUP3 ADD SWAP1 POP PUSH2 0x2BE8 PUSH1 0x0 DUP4 ADD DUP5 PUSH2 0x2BC4 JUMP JUMPDEST SWAP3 SWAP2 POP POP JUMP JUMPDEST PUSH2 0x2BF7 DUP2 PUSH2 0x2AD8 JUMP JUMPDEST DUP2 EQ PUSH2 0x2C02 JUMPI PUSH1 0x0 DUP1 REVERT JUMPDEST POP JUMP JUMPDEST PUSH1 0x0 DUP2 CALLDATALOAD SWAP1 POP PUSH2 0x2C14 DUP2 PUSH2 0x2BEE JUMP JUMPDEST SWAP3 SWAP2 POP POP JUMP JUMPDEST PUSH2 0x2C23 DUP2 PUSH2 0x2AB9 JUMP JUMPDEST DUP2 EQ PUSH2 0x2C2E JUMPI PUSH1 0x0 DUP1 REVERT JUMPDEST POP JUMP JUMPDEST PUSH1 0x0 DUP2 CALLDATALOAD SWAP1 POP PUSH2 0x2C40 DUP2 PUSH2 0x2C1A JUMP JUMPDEST SWAP3 SWAP2 POP POP JUMP JUMPDEST PUSH1 0x0 DUP1 PUSH1 0x0 DUP1 PUSH1 0x0 DUP1 PUSH1 0xC0 DUP8 DUP10 SUB SLT ISZERO PUSH2 0x2C63 JUMPI PUSH2 0x2C62 PUSH2 0x268B JUMP JUMPDEST JUMPDEST PUSH1 0x0 PUSH2 0x2C71 DUP10 DUP3 DUP11 ADD PUSH2 0x26B6 JUMP JUMPDEST SWAP7 POP POP PUSH1 0x20 PUSH2 0x2C82 DUP10 DUP3 DUP11 ADD PUSH2 0x296D JUMP JUMPDEST SWAP6 POP POP PUSH1 0x40 PUSH2 0x2C93 DUP10 DUP3 DUP11 ADD PUSH2 0x2C05 JUMP JUMPDEST SWAP5 POP POP PUSH1 0x60 PUSH2 0x2CA4 DUP10 DUP3 DUP11 ADD PUSH2 0x2C31 JUMP JUMPDEST SWAP4 POP POP PUSH1 0x80 PUSH2 0x2CB5 DUP10 DUP3 DUP11 ADD PUSH2 0x26B6 JUMP JUMPDEST SWAP3 POP POP PUSH1 0xA0 PUSH2 0x2CC6 DUP10 DUP3 DUP11 ADD PUSH2 0x26B6 JUMP JUMPDEST SWAP2 POP POP SWAP3 SWAP6 POP SWAP3 SWAP6 POP SWAP3 SWAP6 JUMP JUMPDEST PUSH32 0x4E487B7100000000000000000000000000000000000000000000000000000000 PUSH1 0x0 MSTORE PUSH1 0x11 PUSH1 0x4 MSTORE PUSH1 0x24 PUSH1 0x0 REVERT JUMPDEST PUSH1 0x0 PUSH2 0x2D0D DUP3 PUSH2 0x2A96 JUMP JUMPDEST SWAP2 POP PUSH2 0x2D18 DUP4 PUSH2 0x2A96 JUMP JUMPDEST SWAP3 POP DUP3 DUP3 ADD SWAP1 POP PUSH8 0xFFFFFFFFFFFFFFFF DUP2 GT ISZERO PUSH2 0x2D38 JUMPI PUSH2 0x2D37 PUSH2 0x2CD3 JUMP JUMPDEST JUMPDEST SWAP3 SWAP2 POP POP JUMP JUMPDEST PUSH1 0x0 PUSH2 0x2D59 PUSH2 0x2D54 PUSH2 0x2D4F DUP5 PUSH2 0x2A96 JUMP JUMPDEST PUSH2 0x28A0 JUMP JUMPDEST PUSH2 0x2695 JUMP JUMPDEST SWAP1 POP SWAP2 SWAP1 POP JUMP JUMPDEST PUSH2 0x2D69 DUP2 PUSH2 0x2D3E JUMP JUMPDEST DUP3 MSTORE POP POP JUMP JUMPDEST PUSH1 0x0 PUSH1 0x40 DUP3 ADD SWAP1 POP PUSH2 0x2D84 PUSH1 0x0 DUP4 ADD DUP6 PUSH2 0x2A12 JUMP JUMPDEST PUSH2 0x2D91 PUSH1 0x20 DUP4 ADD DUP5 PUSH2 0x2D60 JUMP JUMPDEST SWAP4 SWAP3 POP POP POP JUMP JUMPDEST PUSH1 0x0 PUSH2 0x2DA3 DUP3 PUSH2 0x2695 JUMP JUMPDEST SWAP2 POP PUSH2 0x2DAE DUP4 PUSH2 0x2695 JUMP JUMPDEST SWAP3 POP DUP3 DUP3 MUL PUSH2 0x2DBC DUP2 PUSH2 0x2695 JUMP JUMPDEST SWAP2 POP DUP3 DUP3 DIV DUP5 EQ DUP4 ISZERO OR PUSH2 0x2DD3 JUMPI PUSH2 0x2DD2 PUSH2 0x2CD3 JUMP JUMPDEST JUMPDEST POP SWAP3 SWAP2 POP POP JUMP JUMPDEST PUSH1 0x0 DUP2 SWAP1 POP SWAP3 SWAP2 POP POP JUMP JUMPDEST POP JUMP JUMPDEST PUSH1 0x0 PUSH2 0x2DF5 PUSH1 0x0 DUP4 PUSH2 0x2DDA JUMP JUMPDEST SWAP2 POP PUSH2 0x2E00 DUP3 PUSH2 0x2DE5 JUMP JUMPDEST PUSH1 0x0 DUP3 ADD SWAP1 POP SWAP2 SWAP1 POP JUMP JUMPDEST PUSH1 0x0 PUSH2 0x2E16 DUP3 PUSH2 0x2DE8 JUMP JUMPDEST SWAP2 POP DUP2 SWAP1 POP SWAP2 SWAP1 POP JUMP JUMPDEST PUSH1 0x0 PUSH1 0x40 DUP3 ADD SWAP1 POP PUSH2 0x2E35 PUSH1 0x0 DUP4 ADD DUP6 PUSH2 0x2A12 JUMP JUMPDEST PUSH2 0x2E42 PUSH1 0x20 DUP4 ADD DUP5 PUSH2 0x292C JUMP JUMPDEST SWAP4 SWAP3 POP POP POP JUMP JUMPDEST PUSH1 0x0 PUSH1 0x40 DUP3 ADD SWAP1 POP PUSH2 0x2E5E PUSH1 0x0 DUP4 ADD DUP6 PUSH2 0x292C JUMP JUMPDEST PUSH2 0x2E6B PUSH1 0x20 DUP4 ADD DUP5 PUSH2 0x292C JUMP JUMPDEST SWAP4 SWAP3 POP POP POP JUMP JUMPDEST PUSH1 0x0 DUP2 MLOAD SWAP1 POP PUSH2 0x2E81 DUP2 PUSH2 0x2956 JUMP JUMPDEST SWAP3 SWAP2 POP POP JUMP JUMPDEST PUSH1 0x0 PUSH1 0x20 DUP3 DUP5 SUB SLT ISZERO PUSH2 0x2E9D JUMPI PUSH2 0x2E9C PUSH2 0x268B JUMP JUMPDEST JUMPDEST PUSH1 0x0 PUSH2 0x2EAB DUP5 DUP3 DUP6 ADD PUSH2 0x2E72 JUMP JUMPDEST SWAP2 POP POP SWAP3 SWAP2 POP POP JUMP JUMPDEST PUSH1 0x0 PUSH10 0xFFFFFFFFFFFFFFFFFFFF DUP3 AND SWAP1 POP SWAP2 SWAP1 POP JUMP JUMPDEST PUSH2 0x2ED3 DUP2 PUSH2 0x2EB4 JUMP JUMPDEST DUP2 EQ PUSH2 0x2EDE JUMPI PUSH1 0x0 DUP1 REVERT JUMPDEST POP JUMP JUMPDEST PUSH1 0x0 DUP2 MLOAD SWAP1 POP PUSH2 0x2EF0 DUP2 PUSH2 0x2ECA JUMP JUMPDEST SWAP3 SWAP2 POP POP JUMP JUMPDEST PUSH1 0x0 DUP2 SWAP1 POP SWAP2 SWAP1 POP JUMP JUMPDEST PUSH2 0x2F09 DUP2 PUSH2 0x2EF6 JUMP JUMPDEST DUP2 EQ PUSH2 0x2F14 JUMPI PUSH1 0x0 DUP1 REVERT JUMPDEST POP JUMP JUMPDEST PUSH1 0x0 DUP2 MLOAD SWAP1 POP PUSH2 0x2F26 DUP2 PUSH2 0x2F00 JUMP JUMPDEST SWAP3 SWAP2 POP POP JUMP JUMPDEST PUSH1 0x0 DUP2 MLOAD SWAP1 POP PUSH2 0x2F3B DUP2 PUSH2 0x269F JUMP JUMPDEST SWAP3 SWAP2 POP POP JUMP JUMPDEST PUSH1 0x0 DUP1 PUSH1 0x0 DUP1 PUSH1 0x0 PUSH1 0xA0 DUP7 DUP9 SUB SLT ISZERO PUSH2 0x2F5D JUMPI PUSH2 0x2F5C PUSH2 0x268B JUMP JUMPDEST JUMPDEST PUSH1 0x0 PUSH2 0x2F6B DUP9 DUP3 DUP10 ADD PUSH2 0x2EE1 JUMP JUMPDEST SWAP6 POP POP PUSH1 0x20 PUSH2 0x2F7C DUP9 DUP3 DUP10 ADD PUSH2 0x2F17 JUMP JUMPDEST SWAP5 POP POP PUSH1 0x40 PUSH2 0x2F8D DUP9 DUP3 DUP10 ADD PUSH2 0x2F2C JUMP JUMPDEST SWAP4 POP POP PUSH1 0x60 PUSH2 0x2F9E DUP9 DUP3 DUP10 ADD PUSH2 0x2F2C JUMP JUMPDEST SWAP3 POP POP PUSH1 0x80 PUSH2 0x2FAF DUP9 DUP3 DUP10 ADD PUSH2 0x2EE1 JUMP JUMPDEST SWAP2 POP POP SWAP3 SWAP6 POP SWAP3 SWAP6 SWAP1 SWAP4 POP JUMP JUMPDEST PUSH1 0x0 DUP2 MLOAD SWAP1 POP PUSH2 0x2FCB DUP2 PUSH2 0x2C1A JUMP JUMPDEST SWAP3 SWAP2 POP POP JUMP JUMPDEST PUSH1 0x0 PUSH3 0xFFFFFF DUP3 AND SWAP1 POP SWAP2 SWAP1 POP JUMP JUMPDEST PUSH2 0x2FE9 DUP2 PUSH2 0x2FD1 JUMP JUMPDEST DUP2 EQ PUSH2 0x2FF4 JUMPI PUSH1 0x0 DUP1 REVERT JUMPDEST POP JUMP JUMPDEST PUSH1 0x0 DUP2 MLOAD SWAP1 POP PUSH2 0x3006 DUP2 PUSH2 0x2FE0 JUMP JUMPDEST SWAP3 SWAP2 POP POP JUMP JUMPDEST PUSH1 0x0 DUP1 PUSH1 0x0 DUP1 PUSH1 0x0 DUP1 PUSH1 0x0 DUP1 PUSH1 0x0 PUSH2 0x120 DUP11 DUP13 SUB SLT ISZERO PUSH2 0x302F JUMPI PUSH2 0x302E PUSH2 0x268B JUMP JUMPDEST JUMPDEST PUSH1 0x0 PUSH2 0x303D DUP13 DUP3 DUP14 ADD PUSH2 0x2FBC JUMP JUMPDEST SWAP10 POP POP PUSH1 0x20 PUSH2 0x304E DUP13 DUP3 DUP14 ADD PUSH2 0x2FBC JUMP JUMPDEST SWAP9 POP POP PUSH1 0x40 PUSH2 0x305F DUP13 DUP3 DUP14 ADD PUSH2 0x2FBC JUMP JUMPDEST SWAP8 POP POP PUSH1 0x60 PUSH2 0x3070 DUP13 DUP3 DUP14 ADD PUSH2 0x2FBC JUMP JUMPDEST SWAP7 POP POP PUSH1 0x80 PUSH2 0x3081 DUP13 DUP3 DUP14 ADD PUSH2 0x2FBC JUMP JUMPDEST SWAP6 POP POP PUSH1 0xA0 PUSH2 0x3092 DUP13 DUP3 DUP14 ADD PUSH2 0x2FF7 JUMP JUMPDEST SWAP5 POP POP PUSH1 0xC0 PUSH2 0x30A3 DUP13 DUP3 DUP14 ADD PUSH2 0x2FF7 JUMP JUMPDEST SWAP4 POP POP PUSH1 0xE0 PUSH2 0x30B4 DUP13 DUP3 DUP14 ADD PUSH2 0x2FF7 JUMP JUMPDEST SWAP3 POP POP PUSH2 0x100 PUSH2 0x30C6 DUP13 DUP3 DUP14 ADD PUSH2 0x2FF7 JUMP JUMPDEST SWAP2 POP POP SWAP3 SWAP6 SWAP9 POP SWAP3 SWAP6 SWAP9 POP SWAP3 SWAP6 SWAP9 JUMP JUMPDEST PUSH32 0x4E487B7100000000000000000000000000000000000000000000000000000000 PUSH1 0x0 MSTORE PUSH1 0x12 PUSH1 0x4 MSTORE PUSH1 0x24 PUSH1 0x0 REVERT JUMPDEST PUSH1 0x0 PUSH2 0x3110 DUP3 PUSH2 0x2695 JUMP JUMPDEST SWAP2 POP PUSH2 0x311B DUP4 PUSH2 0x2695 JUMP JUMPDEST SWAP3 POP DUP3 PUSH2 0x312B JUMPI PUSH2 0x312A PUSH2 0x30D6 JUMP JUMPDEST JUMPDEST DUP3 DUP3 DIV SWAP1 POP SWAP3 SWAP2 POP POP JUMP JUMPDEST PUSH1 0x0 PUSH2 0x3141 DUP3 PUSH2 0x2695 JUMP JUMPDEST SWAP2 POP PUSH2 0x314C DUP4 PUSH2 0x2695 JUMP JUMPDEST SWAP3 POP DUP3 DUP3 ADD SWAP1 POP DUP1 DUP3 GT ISZERO PUSH2 0x3164 JUMPI PUSH2 0x3163 PUSH2 0x2CD3 JUMP JUMPDEST JUMPDEST SWAP3 SWAP2 POP POP JUMP JUMPDEST PUSH1 0x0 DUP2 SWAP1 POP SWAP2 SWAP1 POP JUMP JUMPDEST PUSH1 0x0 PUSH2 0x318F PUSH2 0x318A PUSH2 0x3185 DUP5 PUSH2 0x316A JUMP JUMPDEST PUSH2 0x28A0 JUMP JUMPDEST PUSH2 0x2695 JUMP JUMPDEST SWAP1 POP SWAP2 SWAP1 POP JUMP JUMPDEST PUSH2 0x319F DUP2 PUSH2 0x3174 JUMP JUMPDEST DUP3 MSTORE POP POP JUMP JUMPDEST PUSH1 0x0 PUSH1 0x20 DUP3 ADD SWAP1 POP PUSH2 0x31BA PUSH1 0x0 DUP4 ADD DUP5 PUSH2 0x3196 JUMP JUMPDEST SWAP3 SWAP2 POP POP JUMP JUMPDEST PUSH2 0x31C9 DUP2 PUSH2 0x2AD8 JUMP JUMPDEST DUP3 MSTORE POP POP JUMP JUMPDEST PUSH2 0x31D8 DUP2 PUSH2 0x2AB9 JUMP JUMPDEST DUP3 MSTORE POP POP JUMP JUMPDEST PUSH1 0x0 PUSH1 0xE0 DUP3 ADD SWAP1 POP PUSH2 0x31F3 PUSH1 0x0 DUP4 ADD DUP11 PUSH2 0x2A12 JUMP JUMPDEST PUSH2 0x3200 PUSH1 0x20 DUP4 ADD DUP10 PUSH2 0x292C JUMP JUMPDEST PUSH2 0x320D PUSH1 0x40 DUP4 ADD DUP9 PUSH2 0x31C0 JUMP JUMPDEST PUSH2 0x321A PUSH1 0x60 DUP4 ADD DUP8 PUSH2 0x31CF JUMP JUMPDEST PUSH2 0x3227 PUSH1 0x80 DUP4 ADD DUP7 PUSH2 0x2A12 JUMP JUMPDEST PUSH2 0x3234 PUSH1 0xA0 DUP4 ADD DUP6 PUSH2 0x2A12 JUMP JUMPDEST PUSH2 0x3241 PUSH1 0xC0 DUP4 ADD DUP5 PUSH2 0x2A12 JUMP JUMPDEST SWAP9 SWAP8 POP POP POP POP POP POP POP POP JUMP JUMPDEST PUSH1 0x0 DUP3 DUP3 MSTORE PUSH1 0x20 DUP3 ADD SWAP1 POP SWAP3 SWAP2 POP POP JUMP JUMPDEST PUSH32 0x5265656E7472616E637947756172643A207265656E7472616E742063616C6C00 PUSH1 0x0 DUP3 ADD MSTORE POP JUMP JUMPDEST PUSH1 0x0 PUSH2 0x3294 PUSH1 0x1F DUP4 PUSH2 0x324D JUMP JUMPDEST SWAP2 POP PUSH2 0x329F DUP3 PUSH2 0x325E JUMP JUMPDEST PUSH1 0x20 DUP3 ADD SWAP1 POP SWAP2 SWAP1 POP JUMP JUMPDEST PUSH1 0x0 PUSH1 0x20 DUP3 ADD SWAP1 POP DUP2 DUP2 SUB PUSH1 0x0 DUP4 ADD MSTORE PUSH2 0x32C3 DUP2 PUSH2 0x3287 JUMP JUMPDEST SWAP1 POP SWAP2 SWAP1 POP JUMP JUMPDEST PUSH1 0x0 PUSH1 0x40 DUP3 ADD SWAP1 POP PUSH2 0x32DF PUSH1 0x0 DUP4 ADD DUP6 PUSH2 0x292C JUMP JUMPDEST PUSH2 0x32EC PUSH1 0x20 DUP4 ADD DUP5 PUSH2 0x2A12 JUMP JUMPDEST SWAP4 SWAP3 POP POP POP JUMP JUMPDEST PUSH1 0x0 PUSH2 0x32FE DUP3 PUSH2 0x2EF6 JUMP JUMPDEST SWAP2 POP PUSH32 0x8000000000000000000000000000000000000000000000000000000000000000 DUP3 SUB PUSH2 0x3330 JUMPI PUSH2 0x332F PUSH2 0x2CD3 JUMP JUMPDEST JUMPDEST DUP2 PUSH1 0x0 SUB SWAP1 POP SWAP2 SWAP1 POP JUMP JUMPDEST PUSH32 0x4E487B7100000000000000000000000000000000000000000000000000000000 PUSH1 0x0 MSTORE PUSH1 0x32 PUSH1 0x4 MSTORE PUSH1 0x24 PUSH1 0x0 REVERT JUMPDEST PUSH1 0x0 PUSH2 0x3375 DUP3 PUSH2 0x2695 JUMP JUMPDEST SWAP2 POP PUSH2 0x3380 DUP4 PUSH2 0x2695 JUMP JUMPDEST SWAP3 POP DUP3 PUSH2 0x3390 JUMPI PUSH2 0x338F PUSH2 0x30D6 JUMP JUMPDEST JUMPDEST DUP3 DUP3 MOD SWAP1 POP SWAP3 SWAP2 POP POP JUMP JUMPDEST PUSH1 0x0 PUSH2 0x33A6 DUP3 PUSH2 0x2EF6 JUMP JUMPDEST SWAP2 POP PUSH2 0x33B1 DUP4 PUSH2 0x2EF6 JUMP JUMPDEST SWAP3 POP DUP3 DUP3 SUB SWAP1 POP DUP2 DUP2 SLT PUSH1 0x0 DUP5 SLT AND DUP3 DUP3 SGT PUSH1 0x0 DUP6 SLT ISZERO AND OR ISZERO PUSH2 0x33D8 JUMPI PUSH2 0x33D7 PUSH2 0x2CD3 JUMP JUMPDEST JUMPDEST SWAP3 SWAP2 POP POP JUMP JUMPDEST PUSH1 0x0 PUSH2 0x33E9 DUP3 PUSH2 0x2EF6 JUMP JUMPDEST SWAP2 POP PUSH2 0x33F4 DUP4 PUSH2 0x2EF6 JUMP JUMPDEST SWAP3 POP DUP3 DUP3 ADD SWAP1 POP DUP3 DUP2 SLT ISZERO PUSH1 0x0 DUP4 SLT AND DUP4 DUP3 SLT PUSH1 0x0 DUP5 SLT ISZERO AND OR ISZERO PUSH2 0x341C JUMPI PUSH2 0x341B PUSH2 0x2CD3 JUMP JUMPDEST JUMPDEST SWAP3 SWAP2 POP POP JUMP JUMPDEST PUSH1 0x0 PUSH2 0x342D DUP3 PUSH2 0x2AB9 JUMP JUMPDEST SWAP2 POP PUSH4 0xFFFFFFFF DUP3 SUB PUSH2 0x3443 JUMPI PUSH2 0x3442 PUSH2 0x2CD3 JUMP JUMPDEST JUMPDEST PUSH1 0x1 DUP3 ADD SWAP1 POP SWAP2 SWAP1 POP JUMP JUMPDEST PUSH1 0x0 PUSH2 0x3459 DUP3 PUSH2 0x2AB9 JUMP JUMPDEST SWAP2 POP PUSH2 0x3464 DUP4 PUSH2 0x2AB9 JUMP JUMPDEST SWAP3 POP DUP3 DUP3 SUB SWAP1 POP PUSH4 0xFFFFFFFF DUP2 GT ISZERO PUSH2 0x3480 JUMPI PUSH2 0x347F PUSH2 0x2CD3 JUMP JUMPDEST JUMPDEST SWAP3 SWAP2 POP POP JUMP JUMPDEST PUSH1 0x0 DUP2 MLOAD SWAP1 POP SWAP2 SWAP1 POP JUMP JUMPDEST PUSH1 0x0 DUP3 DUP3 MSTORE PUSH1 0x20 DUP3 ADD SWAP1 POP SWAP3 SWAP2 POP POP JUMP JUMPDEST PUSH1 0x0 DUP2 SWAP1 POP PUSH1 0x20 DUP3 ADD SWAP1 POP SWAP2 SWAP1 POP JUMP JUMPDEST PUSH1 0x0 PUSH2 0x34BE DUP4 DUP4 PUSH2 0x2AE5 JUMP JUMPDEST PUSH1 0x20 DUP4 ADD SWAP1 POP SWAP3 SWAP2 POP POP JUMP JUMPDEST PUSH1 0x0 PUSH1 0x20 DUP3 ADD SWAP1 POP SWAP2 SWAP1 POP JUMP JUMPDEST PUSH1 0x0 PUSH2 0x34E2 DUP3 PUSH2 0x3486 JUMP JUMPDEST PUSH2 0x34EC DUP2 DUP6 PUSH2 0x3491 JUMP JUMPDEST SWAP4 POP PUSH2 0x34F7 DUP4 PUSH2 0x34A2 JUMP JUMPDEST DUP1 PUSH1 0x0 JUMPDEST DUP4 DUP2 LT ISZERO PUSH2 0x3528 JUMPI DUP2 MLOAD PUSH2 0x350F DUP9 DUP3 PUSH2 0x34B2 JUMP JUMPDEST SWAP8 POP PUSH2 0x351A DUP4 PUSH2 0x34CA JUMP JUMPDEST SWAP3 POP POP PUSH1 0x1 DUP2 ADD SWAP1 POP PUSH2 0x34FB JUMP JUMPDEST POP DUP6 SWAP4 POP POP POP POP SWAP3 SWAP2 POP POP JUMP JUMPDEST PUSH1 0x0 DUP2 MLOAD SWAP1 POP SWAP2 SWAP1 POP JUMP JUMPDEST PUSH1 0x0 DUP3 DUP3 MSTORE PUSH1 0x20 DUP3 ADD SWAP1 POP SWAP3 SWAP2 POP POP JUMP JUMPDEST PUSH1 0x0 DUP2 SWAP1 POP PUSH1 0x20 DUP3 ADD SWAP1 POP SWAP2 SWAP1 POP JUMP JUMPDEST PUSH1 0x0 PUSH2 0x356D DUP4 DUP4 PUSH2 0x2A78 JUMP JUMPDEST PUSH1 0x20 DUP4 ADD SWAP1 POP SWAP3 SWAP2 POP POP JUMP JUMPDEST PUSH1 0x0 PUSH1 0x20 DUP3 ADD SWAP1 POP SWAP2 SWAP1 POP JUMP JUMPDEST PUSH1 0x0 PUSH2 0x3591 DUP3 PUSH2 0x3535 JUMP JUMPDEST PUSH2 0x359B DUP2 DUP6 PUSH2 0x3540 JUMP JUMPDEST SWAP4 POP PUSH2 0x35A6 DUP4 PUSH2 0x3551 JUMP JUMPDEST DUP1 PUSH1 0x0 JUMPDEST DUP4 DUP2 LT ISZERO PUSH2 0x35D7 JUMPI DUP2 MLOAD PUSH2 0x35BE DUP9 DUP3 PUSH2 0x3561 JUMP JUMPDEST SWAP8 POP PUSH2 0x35C9 DUP4 PUSH2 0x3579 JUMP JUMPDEST SWAP3 POP POP PUSH1 0x1 DUP2 ADD SWAP1 POP PUSH2 0x35AA JUMP JUMPDEST POP DUP6 SWAP4 POP POP POP POP SWAP3 SWAP2 POP POP JUMP JUMPDEST PUSH1 0x0 PUSH1 0xE0 DUP3 ADD SWAP1 POP PUSH2 0x35F9 PUSH1 0x0 DUP4 ADD DUP11 PUSH2 0x2A12 JUMP JUMPDEST PUSH2 0x3606 PUSH1 0x20 DUP4 ADD DUP10 PUSH2 0x2A12 JUMP JUMPDEST PUSH2 0x3613 PUSH1 0x40 DUP4 ADD DUP9 PUSH2 0x292C JUMP JUMPDEST DUP2 DUP2 SUB PUSH1 0x60 DUP4 ADD MSTORE PUSH2 0x3625 DUP2 DUP8 PUSH2 0x34D7 JUMP JUMPDEST SWAP1 POP DUP2 DUP2 SUB PUSH1 0x80 DUP4 ADD MSTORE PUSH2 0x3639 DUP2 DUP7 PUSH2 0x34D7 JUMP JUMPDEST SWAP1 POP DUP2 DUP2 SUB PUSH1 0xA0 DUP4 ADD MSTORE PUSH2 0x364D DUP2 DUP6 PUSH2 0x3586 JUMP JUMPDEST SWAP1 POP PUSH2 0x365C PUSH1 0xC0 DUP4 ADD DUP5 PUSH2 0x31CF JUMP JUMPDEST SWAP9 SWAP8 POP POP POP POP POP POP POP POP JUMP JUMPDEST PUSH1 0x0 PUSH1 0x20 DUP3 DUP5 SUB SLT ISZERO PUSH2 0x367E JUMPI PUSH2 0x367D PUSH2 0x268B JUMP JUMPDEST JUMPDEST PUSH1 0x0 PUSH2 0x368C DUP5 DUP3 DUP6 ADD PUSH2 0x2F2C JUMP JUMPDEST SWAP2 POP POP SWAP3 SWAP2 POP POP JUMP JUMPDEST PUSH1 0x0 PUSH1 0x40 DUP3 ADD SWAP1 POP PUSH2 0x36AA PUSH1 0x0 DUP4 ADD DUP6 PUSH2 0x2A12 JUMP JUMPDEST PUSH2 0x36B7 PUSH1 0x20 DUP4 ADD DUP5 PUSH2 0x2A12 JUMP JUMPDEST SWAP4 SWAP3 POP POP POP JUMP JUMPDEST PUSH2 0x36C7 DUP2 PUSH2 0x29AF JUMP JUMPDEST DUP2 EQ PUSH2 0x36D2 JUMPI PUSH1 0x0 DUP1 REVERT JUMPDEST POP JUMP JUMPDEST PUSH1 0x0 DUP2 MLOAD SWAP1 POP PUSH2 0x36E4 DUP2 PUSH2 0x36BE JUMP JUMPDEST SWAP3 SWAP2 POP POP JUMP JUMPDEST PUSH1 0x0 PUSH1 0x20 DUP3 DUP5 SUB SLT ISZERO PUSH2 0x3700 JUMPI PUSH2 0x36FF PUSH2 0x268B JUMP JUMPDEST JUMPDEST PUSH1 0x0 PUSH2 0x370E DUP5 DUP3 DUP6 ADD PUSH2 0x36D5 JUMP JUMPDEST SWAP2 POP POP SWAP3 SWAP2 POP POP JUMP JUMPDEST PUSH1 0x0 DUP1 PUSH1 0x40 DUP4 DUP6 SUB SLT ISZERO PUSH2 0x372E JUMPI PUSH2 0x372D PUSH2 0x268B JUMP JUMPDEST JUMPDEST PUSH1 0x0 PUSH2 0x373C DUP6 DUP3 DUP7 ADD PUSH2 0x36D5 JUMP JUMPDEST SWAP3 POP POP PUSH1 0x20 PUSH2 0x374D DUP6 DUP3 DUP7 ADD PUSH2 0x2F2C JUMP JUMPDEST SWAP2 POP POP SWAP3 POP SWAP3 SWAP1 POP JUMP JUMPDEST PUSH1 0x0 PUSH2 0x3762 DUP3 PUSH2 0x2695 JUMP JUMPDEST SWAP2 POP PUSH2 0x376D DUP4 PUSH2 0x2695 JUMP JUMPDEST SWAP3 POP DUP3 DUP3 SUB SWAP1 POP DUP2 DUP2 GT ISZERO PUSH2 0x3785 JUMPI PUSH2 0x3784 PUSH2 0x2CD3 JUMP JUMPDEST JUMPDEST SWAP3 SWAP2 POP POP JUMP JUMPDEST PUSH1 0x0 DUP2 SWAP1 POP SWAP2 SWAP1 POP JUMP JUMPDEST PUSH1 0x0 DUP2 SWAP1 POP SWAP2 SWAP1 POP JUMP JUMPDEST PUSH1 0x0 DUP2 PUSH1 0x0 SHL SWAP1 POP SWAP2 SWAP1 POP JUMP JUMPDEST PUSH1 0x0 PUSH2 0x37C7 PUSH2 0x37C2 PUSH2 0x37BD DUP5 PUSH2 0x378B JUMP JUMPDEST PUSH2 0x379F JUMP JUMPDEST PUSH2 0x3795 JUMP JUMPDEST SWAP1 POP SWAP2 SWAP1 POP JUMP JUMPDEST PUSH2 0x37D7 DUP2 PUSH2 0x37AC JUMP JUMPDEST DUP3 MSTORE POP POP JUMP JUMPDEST PUSH1 0x0 DUP2 SWAP1 POP SWAP2 SWAP1 POP JUMP JUMPDEST PUSH1 0x0 PUSH2 0x3802 PUSH2 0x37FD PUSH2 0x37F8 DUP5 PUSH2 0x37DD JUMP JUMPDEST PUSH2 0x28A0 JUMP JUMPDEST PUSH2 0x2A96 JUMP JUMPDEST SWAP1 POP SWAP2 SWAP1 POP JUMP JUMPDEST PUSH2 0x3812 DUP2 PUSH2 0x37E7 JUMP JUMPDEST DUP3 MSTORE POP POP JUMP JUMPDEST PUSH1 0x0 DUP2 SWAP1 POP SWAP2 SWAP1 POP JUMP JUMPDEST PUSH1 0x0 PUSH2 0xFFFF DUP3 AND SWAP1 POP SWAP2 SWAP1 POP JUMP JUMPDEST PUSH1 0x0 PUSH2 0x384B PUSH2 0x3846 PUSH2 0x3841 DUP5 PUSH2 0x3818 JUMP JUMPDEST PUSH2 0x28A0 JUMP JUMPDEST PUSH2 0x3822 JUMP JUMPDEST SWAP1 POP SWAP2 SWAP1 POP JUMP JUMPDEST PUSH2 0x385B DUP2 PUSH2 0x3830 JUMP JUMPDEST DUP3 MSTORE POP POP JUMP JUMPDEST PUSH1 0x0 DUP2 SWAP1 POP SWAP2 SWAP1 POP JUMP JUMPDEST PUSH1 0x0 PUSH2 0x3886 PUSH2 0x3881 PUSH2 0x387C DUP5 PUSH2 0x3861 JUMP JUMPDEST PUSH2 0x28A0 JUMP JUMPDEST PUSH2 0x2AB9 JUMP JUMPDEST SWAP1 POP SWAP2 SWAP1 POP JUMP JUMPDEST PUSH2 0x3896 DUP2 PUSH2 0x386B JUMP JUMPDEST DUP3 MSTORE POP POP JUMP JUMPDEST PUSH1 0x0 PUSH1 0xA0 DUP3 ADD SWAP1 POP PUSH2 0x38B1 PUSH1 0x0 DUP4 ADD DUP9 PUSH2 0x37CE JUMP JUMPDEST PUSH2 0x38BE PUSH1 0x20 DUP4 ADD DUP8 PUSH2 0x3809 JUMP JUMPDEST PUSH2 0x38CB PUSH1 0x40 DUP4 ADD DUP7 PUSH2 0x3852 JUMP JUMPDEST PUSH2 0x38D8 PUSH1 0x60 DUP4 ADD DUP6 PUSH2 0x388D JUMP JUMPDEST PUSH2 0x38E5 PUSH1 0x80 DUP4 ADD DUP5 PUSH2 0x31CF JUMP JUMPDEST SWAP7 SWAP6 POP POP POP POP POP POP JUMP JUMPDEST PUSH1 0x0 PUSH1 0x60 DUP3 ADD SWAP1 POP PUSH2 0x3904 PUSH1 0x0 DUP4 ADD DUP7 PUSH2 0x292C JUMP JUMPDEST PUSH2 0x3911 PUSH1 0x20 DUP4 ADD DUP6 PUSH2 0x2A12 JUMP JUMPDEST PUSH2 0x391E PUSH1 0x40 DUP4 ADD DUP5 PUSH2 0x292C JUMP JUMPDEST SWAP5 SWAP4 POP POP POP POP JUMP JUMPDEST PUSH1 0x0 PUSH1 0x60 DUP3 ADD SWAP1 POP PUSH2 0x393B PUSH1 0x0 DUP4 ADD DUP7 PUSH2 0x292C JUMP JUMPDEST PUSH2 0x3948 PUSH1 0x20 DUP4 ADD DUP6 PUSH2 0x292C JUMP JUMPDEST PUSH2 0x3955 PUSH1 0x40 DUP4 ADD DUP5 PUSH2 0x2A12 JUMP JUMPDEST SWAP5 SWAP4 POP POP POP POP JUMP JUMPDEST PUSH1 0x0 DUP2 MLOAD SWAP1 POP SWAP2 SWAP1 POP JUMP JUMPDEST PUSH1 0x0 JUMPDEST DUP4 DUP2 LT ISZERO PUSH2 0x3986 JUMPI DUP1 DUP3 ADD MLOAD DUP2 DUP5 ADD MSTORE PUSH1 0x20 DUP2 ADD SWAP1 POP PUSH2 0x396B JUMP JUMPDEST PUSH1 0x0 DUP5 DUP5 ADD MSTORE POP POP POP POP JUMP JUMPDEST PUSH1 0x0 PUSH2 0x399D DUP3 PUSH2 0x395D JUMP JUMPDEST PUSH2 0x39A7 DUP2 DUP6 PUSH2 0x2DDA JUMP JUMPDEST SWAP4 POP PUSH2 0x39B7 DUP2 DUP6 PUSH1 0x20 DUP7 ADD PUSH2 0x3968 JUMP JUMPDEST DUP1 DUP5 ADD SWAP2 POP POP SWAP3 SWAP2 POP POP JUMP JUMPDEST PUSH1 0x0 PUSH2 0x39CF DUP3 DUP5 PUSH2 0x3992 JUMP JUMPDEST SWAP2 POP DUP2 SWAP1 POP SWAP3 SWAP2 POP POP JUMP INVALID LOG2 PUSH5 0x6970667358 0x22 SLT KECCAK256 0x5C 0xBF CALLDATASIZE ADD GASLIMIT PUSH25 0x67DA2765239B2269722D43E99A6F8F80BD96522349F885C4A4 PUSH25 0x64736F6C634300081400330000000000000000000000000000 "},"methodIdentifiers":{"Bankroll()":"d0bcfc0c","ChainLinkVRF()":"953995ea","IChainLinkVRF()":"4dd189d5","LINK_ETH_FEED()":"ad178361","RockPaperScissors_GetState(address)":"cfea2f6f","RockPaperScissors_Play(uint256,address,uint8,uint32,uint256,uint256)":"e18123c2","RockPaperScissors_Refund()":"0f0aa179","VRFFees()":"8d7c16d2","_trustedForwarder()":"56c022bb","getVRFFee(uint256)":"8bd16114","isTrustedForwarder(address)":"572b6c05","rawFulfillRandomWords(uint256,uint256[])":"1fe543e3","transferFees(address)":"63dc4ef5"}}}}}