{
  "_format": "hh-sol-artifact-1",
  "contractName": "Dice",
  "sourceName": "contracts/RedDice.sol",
  "abi": [
    {
      "inputs": [
        {
          "internalType": "address",
          "name": "_bankroll",
          "type": "address"
        },
        {
          "internalType": "address",
          "name": "_vrf",
          "type": "address"
        },
        {
          "internalType": "address",
          "name": "link_eth_feed",
          "type": "address"
        },
        {
          "internalType": "address",
          "name": "_forwarder",
          "type": "address"
        },
        {
          "internalType": "address",
          "name": "_token",
          "type": "address"
        }
      ],
      "stateMutability": "nonpayable",
      "type": "constructor"
    },
    {
      "inputs": [
        {
          "internalType": "uint256",
          "name": "required",
          "type": "uint256"
        },
        {
          "internalType": "uint256",
          "name": "sent",
          "type": "uint256"
        }
      ],
      "name": "InvalidValue",
      "type": "error"
    },
    {
      "inputs": [],
      "name": "NotApprovedBankroll",
      "type": "error"
    },
    {
      "inputs": [
        {
          "internalType": "address",
          "name": "want",
          "type": "address"
        },
        {
          "internalType": "address",
          "name": "have",
          "type": "address"
        }
      ],
      "name": "NotOwner",
      "type": "error"
    },
    {
      "inputs": [
        {
          "internalType": "uint256",
          "name": "suspensionTime",
          "type": "uint256"
        }
      ],
      "name": "PlayerSuspended",
      "type": "error"
    },
    {
      "inputs": [],
      "name": "RefundFailed",
      "type": "error"
    },
    {
      "inputs": [],
      "name": "TransferFailed",
      "type": "error"
    },
    {
      "inputs": [],
      "name": "ZeroWager",
      "type": "error"
    },
    {
      "anonymous": false,
      "inputs": [
        {
          "indexed": true,
          "internalType": "address",
          "name": "referrer",
          "type": "address"
        },
        {
          "indexed": true,
          "internalType": "address",
          "name": "referee",
          "type": "address"
        },
        {
          "indexed": false,
          "internalType": "uint256",
          "name": "reward",
          "type": "uint256"
        }
      ],
      "name": "ReferralReward",
      "type": "event"
    },
    {
      "anonymous": false,
      "inputs": [
        {
          "indexed": true,
          "internalType": "address",
          "name": "player",
          "type": "address"
        },
        {
          "indexed": false,
          "internalType": "uint256",
          "name": "amount",
          "type": "uint256"
        }
      ],
      "name": "TokensEarned",
      "type": "event"
    },
    {
      "inputs": [],
      "name": "Bankroll",
      "outputs": [
        {
          "internalType": "contract IBankRoll",
          "name": "",
          "type": "address"
        }
      ],
      "stateMutability": "view",
      "type": "function"
    },
    {
      "inputs": [],
      "name": "ChainLinkVRF",
      "outputs": [
        {
          "internalType": "address",
          "name": "",
          "type": "address"
        }
      ],
      "stateMutability": "view",
      "type": "function"
    },
    {
      "inputs": [
        {
          "internalType": "uint256",
          "name": "wager",
          "type": "uint256"
        },
        {
          "internalType": "uint32",
          "name": "multiplier",
          "type": "uint32"
        },
        {
          "internalType": "address",
          "name": "tokenAddress",
          "type": "address"
        },
        {
          "internalType": "bool",
          "name": "isOver",
          "type": "bool"
        },
        {
          "internalType": "uint32",
          "name": "numBets",
          "type": "uint32"
        },
        {
          "internalType": "uint256",
          "name": "stopGain",
          "type": "uint256"
        },
        {
          "internalType": "uint256",
          "name": "stopLoss",
          "type": "uint256"
        },
        {
          "internalType": "uint256",
          "name": "payout",
          "type": "uint256"
        }
      ],
      "name": "Dice_Play",
      "outputs": [],
      "stateMutability": "payable",
      "type": "function"
    },
    {
      "inputs": [],
      "name": "IChainLinkVRF",
      "outputs": [
        {
          "internalType": "contract IVRFCoordinatorV2",
          "name": "",
          "type": "address"
        }
      ],
      "stateMutability": "view",
      "type": "function"
    },
    {
      "inputs": [],
      "name": "LINK_ETH_FEED",
      "outputs": [
        {
          "internalType": "contract AggregatorV3Interface",
          "name": "",
          "type": "address"
        }
      ],
      "stateMutability": "view",
      "type": "function"
    },
    {
      "inputs": [],
      "name": "VRFFees",
      "outputs": [
        {
          "internalType": "uint256",
          "name": "",
          "type": "uint256"
        }
      ],
      "stateMutability": "view",
      "type": "function"
    },
    {
      "inputs": [],
      "name": "_trustedForwarder",
      "outputs": [
        {
          "internalType": "address",
          "name": "",
          "type": "address"
        }
      ],
      "stateMutability": "view",
      "type": "function"
    },
    {
      "inputs": [],
      "name": "claimTokens",
      "outputs": [],
      "stateMutability": "nonpayable",
      "type": "function"
    },
    {
      "inputs": [
        {
          "internalType": "uint256",
          "name": "gasAmount",
          "type": "uint256"
        }
      ],
      "name": "getVRFFee",
      "outputs": [
        {
          "internalType": "uint256",
          "name": "fee",
          "type": "uint256"
        }
      ],
      "stateMutability": "view",
      "type": "function"
    },
    {
      "inputs": [
        {
          "internalType": "address",
          "name": "forwarder",
          "type": "address"
        }
      ],
      "name": "isTrustedForwarder",
      "outputs": [
        {
          "internalType": "bool",
          "name": "",
          "type": "bool"
        }
      ],
      "stateMutability": "view",
      "type": "function"
    },
    {
      "inputs": [
        {
          "internalType": "uint256",
          "name": "",
          "type": "uint256"
        }
      ],
      "name": "leaderboard",
      "outputs": [
        {
          "internalType": "address",
          "name": "",
          "type": "address"
        }
      ],
      "stateMutability": "view",
      "type": "function"
    },
    {
      "inputs": [
        {
          "internalType": "address",
          "name": "",
          "type": "address"
        }
      ],
      "name": "playerEarnedTokens",
      "outputs": [
        {
          "internalType": "uint256",
          "name": "",
          "type": "uint256"
        }
      ],
      "stateMutability": "view",
      "type": "function"
    },
    {
      "inputs": [
        {
          "internalType": "address",
          "name": "",
          "type": "address"
        }
      ],
      "name": "playerEarnings",
      "outputs": [
        {
          "internalType": "uint256",
          "name": "",
          "type": "uint256"
        }
      ],
      "stateMutability": "view",
      "type": "function"
    },
    {
      "inputs": [
        {
          "internalType": "address",
          "name": "",
          "type": "address"
        }
      ],
      "name": "playerReferrers",
      "outputs": [
        {
          "internalType": "address",
          "name": "",
          "type": "address"
        }
      ],
      "stateMutability": "view",
      "type": "function"
    },
    {
      "inputs": [
        {
          "internalType": "address",
          "name": "referee",
          "type": "address"
        }
      ],
      "name": "referPlayer",
      "outputs": [],
      "stateMutability": "nonpayable",
      "type": "function"
    },
    {
      "inputs": [],
      "name": "token",
      "outputs": [
        {
          "internalType": "contract IERC20",
          "name": "",
          "type": "address"
        }
      ],
      "stateMutability": "view",
      "type": "function"
    },
    {
      "inputs": [
        {
          "internalType": "address",
          "name": "to",
          "type": "address"
        }
      ],
      "name": "transferFees",
      "outputs": [],
      "stateMutability": "nonpayable",
      "type": "function"
    }
  ],
  "bytecode": "0x60806040523480156200001157600080fd5b5060405162001bbc38038062001bbc8339818101604052810190620000379190620000f5565b600160008190555080600760006101000a81548173ffffffffffffffffffffffffffffffffffffffff021916908373ffffffffffffffffffffffffffffffffffffffff16021790555050505050506200017d565b600080fd5b600073ffffffffffffffffffffffffffffffffffffffff82169050919050565b6000620000bd8262000090565b9050919050565b620000cf81620000b0565b8114620000db57600080fd5b50565b600081519050620000ef81620000c4565b92915050565b600080600080600060a086880312156200011457620001136200008b565b5b60006200012488828901620000de565b95505060206200013788828901620000de565b94505060406200014a88828901620000de565b93505060606200015d88828901620000de565b92505060806200017088828901620000de565b9150509295509295909350565b611a2f806200018d6000396000f3fe6080604052600436106100fe5760003560e01c80638aeae28f11610095578063ad17836111610064578063ad17836114610328578063bf36839914610353578063d0bcfc0c14610390578063f77a1fcb146103bb578063fc0c546a146103f8576100fe565b80638aeae28f1461026c5780638bd16114146102955780638d7c16d2146102d2578063953995ea146102fd576100fe565b8063572b6c05116100d1578063572b6c05146101ad5780635f8719ba146101ea57806363dc4ef51461020657806369f927731461022f576100fe565b80631ba4a7ec1461010357806348c54b9d146101405780634dd189d51461015757806356c022bb14610182575b600080fd5b34801561010f57600080fd5b5061012a600480360381019061012591906110fb565b610423565b6040516101379190611141565b60405180910390f35b34801561014c57600080fd5b5061015561043b565b005b34801561016357600080fd5b5061016c6105c0565b60405161017991906111bb565b60405180910390f35b34801561018e57600080fd5b506101976105e6565b6040516101a491906111e5565b60405180910390f35b3480156101b957600080fd5b506101d460048036038101906101cf91906110fb565b61060c565b6040516101e1919061121b565b60405180910390f35b61020460048036038101906101ff91906112ca565b610666565b005b34801561021257600080fd5b5061022d600480360381019061022891906110fb565b6108c6565b005b34801561023b57600080fd5b50610256600480360381019061025191906110fb565b610b1f565b6040516102639190611141565b60405180910390f35b34801561027857600080fd5b50610293600480360381019061028e91906110fb565b610b37565b005b3480156102a157600080fd5b506102bc60048036038101906102b79190611380565b610c8d565b6040516102c99190611141565b60405180910390f35b3480156102de57600080fd5b506102e7610e19565b6040516102f49190611141565b60405180910390f35b34801561030957600080fd5b50610312610e1f565b60405161031f91906111e5565b60405180910390f35b34801561033457600080fd5b5061033d610e45565b60405161034a91906113ce565b60405180910390f35b34801561035f57600080fd5b5061037a60048036038101906103759190611380565b610e6b565b60405161038791906111e5565b60405180910390f35b34801561039c57600080fd5b506103a5610eaa565b6040516103b2919061140a565b60405180910390f35b3480156103c757600080fd5b506103e260048036038101906103dd91906110fb565b610ed0565b6040516103ef91906111e5565b60405180910390f35b34801561040457600080fd5b5061040d610f03565b60405161041a9190611446565b60405180910390f35b60086020528060005260406000206000915090505481565b600060086000610449610f29565b73ffffffffffffffffffffffffffffffffffffffff1673ffffffffffffffffffffffffffffffffffffffff168152602001908152602001600020549050600081116104c9576040517f08c379a00000000000000000000000000000000000000000000000000000000081526004016104c0906114be565b60405180910390fd5b6000600860006104d7610f29565b73ffffffffffffffffffffffffffffffffffffffff1673ffffffffffffffffffffffffffffffffffffffff16815260200190815260200160002081905550600760009054906101000a900473ffffffffffffffffffffffffffffffffffffffff1673ffffffffffffffffffffffffffffffffffffffff1663a9059cbb61055b610f29565b836040518363ffffffff1660e01b81526004016105799291906114de565b6020604051808303816000875af1158015610598573d6000803e3d6000fd5b505050506040513d601f19601f820116820180604052508101906105bc919061151c565b5050565b600560009054906101000a900473ffffffffffffffffffffffffffffffffffffffff1681565b600360009054906101000a900473ffffffffffffffffffffffffffffffffffffffff1681565b6000600360009054906101000a900473ffffffffffffffffffffffffffffffffffffffff1673ffffffffffffffffffffffffffffffffffffffff168273ffffffffffffffffffffffffffffffffffffffff16149050919050565b61066e610f60565b600061067982610faf565b90508060086000610688610f29565b73ffffffffffffffffffffffffffffffffffffffff1673ffffffffffffffffffffffffffffffffffffffff16815260200190815260200160002060008282546106d19190611578565b925050819055506106e0610f29565b73ffffffffffffffffffffffffffffffffffffffff167f949b66d6baaf4912605d046be8fef8d8dac6040bb52018e69a7a805279fbeb15826040516107259190611141565b60405180910390a260006009600061073b610f29565b73ffffffffffffffffffffffffffffffffffffffff1673ffffffffffffffffffffffffffffffffffffffff16815260200190815260200160002060009054906101000a900473ffffffffffffffffffffffffffffffffffffffff169050600073ffffffffffffffffffffffffffffffffffffffff168173ffffffffffffffffffffffffffffffffffffffff16146108a1576000600a836107db91906115db565b905080600860008473ffffffffffffffffffffffffffffffffffffffff1673ffffffffffffffffffffffffffffffffffffffff168152602001908152602001600020600082825461082c9190611578565b9250508190555061083b610f29565b73ffffffffffffffffffffffffffffffffffffffff168273ffffffffffffffffffffffffffffffffffffffff167f53958b9c644a1d5529da7c36929d59417eb9a996f08e02a52632bfe20c92ef48836040516108979190611141565b60405180910390a3505b6108b26108ac610f29565b83610fd1565b50506108bc61108e565b5050505050505050565b6108ce610f60565b600660009054906101000a900473ffffffffffffffffffffffffffffffffffffffff1673ffffffffffffffffffffffffffffffffffffffff1663893d20e86040518163ffffffff1660e01b8152600401602060405180830381865afa15801561093b573d6000803e3d6000fd5b505050506040513d601f19601f8201168201806040525081019061095f9190611621565b73ffffffffffffffffffffffffffffffffffffffff163373ffffffffffffffffffffffffffffffffffffffff1614610a6057600660009054906101000a900473ffffffffffffffffffffffffffffffffffffffff1673ffffffffffffffffffffffffffffffffffffffff1663893d20e86040518163ffffffff1660e01b8152600401602060405180830381865afa1580156109fe573d6000803e3d6000fd5b505050506040513d601f19601f82011682018060405250810190610a229190611621565b336040517f23295f0e000000000000000000000000000000000000000000000000000000008152600401610a5792919061164e565b60405180910390fd5b60006001549050600060018190555060008273ffffffffffffffffffffffffffffffffffffffff1682604051610a95906116a8565b60006040518083038185875af1925050503d8060008114610ad2576040519150601f19603f3d011682016040523d82523d6000602084013e610ad7565b606091505b5050905080610b12576040517f90b8ec1800000000000000000000000000000000000000000000000000000000815260040160405180910390fd5b5050610b1c61108e565b50565b600b6020528060005260406000206000915090505481565b600073ffffffffffffffffffffffffffffffffffffffff16600960008373ffffffffffffffffffffffffffffffffffffffff1673ffffffffffffffffffffffffffffffffffffffff16815260200190815260200160002060009054906101000a900473ffffffffffffffffffffffffffffffffffffffff1673ffffffffffffffffffffffffffffffffffffffff1614610c05576040517f08c379a0000000000000000000000000000000000000000000000000000000008152600401610bfc90611709565b60405180910390fd5b610c0d610f29565b600960008373ffffffffffffffffffffffffffffffffffffffff1673ffffffffffffffffffffffffffffffffffffffff16815260200190815260200160002060006101000a81548173ffffffffffffffffffffffffffffffffffffffff021916908373ffffffffffffffffffffffffffffffffffffffff16021790555050565b600080600460009054906101000a900473ffffffffffffffffffffffffffffffffffffffff1673ffffffffffffffffffffffffffffffffffffffff1663feaf968c6040518163ffffffff1660e01b815260040160a060405180830381865afa158015610cfd573d6000803e3d6000fd5b505050506040513d601f19601f82011682018060405250810190610d2191906117b6565b5050509150506000600560009054906101000a900473ffffffffffffffffffffffffffffffffffffffff1673ffffffffffffffffffffffffffffffffffffffff16635fbbc0d26040518163ffffffff1660e01b815260040161012060405180830381865afa158015610d97573d6000803e3d6000fd5b505050506040513d601f19601f82011682018060405250810190610dbb9190611881565b50505050505050509050670de0b6b3a7640000828263ffffffff1664e8d4a51000610de6919061194b565b610df0919061194b565b610dfa91906115db565b843a610e06919061194b565b610e109190611578565b92505050919050565b60015481565b600260009054906101000a900473ffffffffffffffffffffffffffffffffffffffff1681565b600460009054906101000a900473ffffffffffffffffffffffffffffffffffffffff1681565b600a8181548110610e7b57600080fd5b906000526020600020016000915054906101000a900473ffffffffffffffffffffffffffffffffffffffff1681565b600660009054906101000a900473ffffffffffffffffffffffffffffffffffffffff1681565b60096020528060005260406000206000915054906101000a900473ffffffffffffffffffffffffffffffffffffffff1681565b600760009054906101000a900473ffffffffffffffffffffffffffffffffffffffff1681565b60006014600036905010158015610f455750610f443361060c565b5b15610f5957601436033560601c9050610f5d565b3390505b90565b600260005403610fa5576040517f08c379a0000000000000000000000000000000000000000000000000000000008152600401610f9c906119d9565b60405180910390fd5b6002600081905550565b60006064600a83610fc0919061194b565b610fca91906115db565b9050919050565b600a829080600181540180825580915050600190039060005260206000200160009091909190916101000a81548173ffffffffffffffffffffffffffffffffffffffff021916908373ffffffffffffffffffffffffffffffffffffffff16021790555080600b60008473ffffffffffffffffffffffffffffffffffffffff1673ffffffffffffffffffffffffffffffffffffffff16815260200190815260200160002060008282546110839190611578565b925050819055505050565b6001600081905550565b600080fd5b600073ffffffffffffffffffffffffffffffffffffffff82169050919050565b60006110c88261109d565b9050919050565b6110d8816110bd565b81146110e357600080fd5b50565b6000813590506110f5816110cf565b92915050565b60006020828403121561111157611110611098565b5b600061111f848285016110e6565b91505092915050565b6000819050919050565b61113b81611128565b82525050565b60006020820190506111566000830184611132565b92915050565b6000819050919050565b600061118161117c6111778461109d565b61115c565b61109d565b9050919050565b600061119382611166565b9050919050565b60006111a582611188565b9050919050565b6111b58161119a565b82525050565b60006020820190506111d060008301846111ac565b92915050565b6111df816110bd565b82525050565b60006020820190506111fa60008301846111d6565b92915050565b60008115159050919050565b61121581611200565b82525050565b6000602082019050611230600083018461120c565b92915050565b61123f81611128565b811461124a57600080fd5b50565b60008135905061125c81611236565b92915050565b600063ffffffff82169050919050565b61127b81611262565b811461128657600080fd5b50565b60008135905061129881611272565b92915050565b6112a781611200565b81146112b257600080fd5b50565b6000813590506112c48161129e565b92915050565b600080600080600080600080610100898b0312156112eb576112ea611098565b5b60006112f98b828c0161124d565b985050602061130a8b828c01611289565b975050604061131b8b828c016110e6565b965050606061132c8b828c016112b5565b955050608061133d8b828c01611289565b94505060a061134e8b828c0161124d565b93505060c061135f8b828c0161124d565b92505060e06113708b828c0161124d565b9150509295985092959890939650565b60006020828403121561139657611395611098565b5b60006113a48482850161124d565b91505092915050565b60006113b882611188565b9050919050565b6113c8816113ad565b82525050565b60006020820190506113e360008301846113bf565b92915050565b60006113f482611188565b9050919050565b611404816113e9565b82525050565b600060208201905061141f60008301846113fb565b92915050565b600061143082611188565b9050919050565b61144081611425565b82525050565b600060208201905061145b6000830184611437565b92915050565b600082825260208201905092915050565b7f4e6f206561726e656420746f6b656e7320746f20636c61696d2e000000000000600082015250565b60006114a8601a83611461565b91506114b382611472565b602082019050919050565b600060208201905081810360008301526114d78161149b565b9050919050565b60006040820190506114f360008301856111d6565b6115006020830184611132565b9392505050565b6000815190506115168161129e565b92915050565b60006020828403121561153257611531611098565b5b600061154084828501611507565b91505092915050565b7f4e487b7100000000000000000000000000000000000000000000000000000000600052601160045260246000fd5b600061158382611128565b915061158e83611128565b92508282019050808211156115a6576115a5611549565b5b92915050565b7f4e487b7100000000000000000000000000000000000000000000000000000000600052601260045260246000fd5b60006115e682611128565b91506115f183611128565b925082611601576116006115ac565b5b828204905092915050565b60008151905061161b816110cf565b92915050565b60006020828403121561163757611636611098565b5b60006116458482850161160c565b91505092915050565b600060408201905061166360008301856111d6565b61167060208301846111d6565b9392505050565b600081905092915050565b50565b6000611692600083611677565b915061169d82611682565b600082019050919050565b60006116b382611685565b9150819050919050565b7f506c6179657220697320616c72656164792072656665727265642e0000000000600082015250565b60006116f3601b83611461565b91506116fe826116bd565b602082019050919050565b60006020820190508181036000830152611722816116e6565b9050919050565b600069ffffffffffffffffffff82169050919050565b61174881611729565b811461175357600080fd5b50565b6000815190506117658161173f565b92915050565b6000819050919050565b61177e8161176b565b811461178957600080fd5b50565b60008151905061179b81611775565b92915050565b6000815190506117b081611236565b92915050565b600080600080600060a086880312156117d2576117d1611098565b5b60006117e088828901611756565b95505060206117f18882890161178c565b9450506040611802888289016117a1565b9350506060611813888289016117a1565b925050608061182488828901611756565b9150509295509295909350565b60008151905061184081611272565b92915050565b600062ffffff82169050919050565b61185e81611846565b811461186957600080fd5b50565b60008151905061187b81611855565b92915050565b60008060008060008060008060006101208a8c0312156118a4576118a3611098565b5b60006118b28c828d01611831565b99505060206118c38c828d01611831565b98505060406118d48c828d01611831565b97505060606118e58c828d01611831565b96505060806118f68c828d01611831565b95505060a06119078c828d0161186c565b94505060c06119188c828d0161186c565b93505060e06119298c828d0161186c565b92505061010061193b8c828d0161186c565b9150509295985092959850929598565b600061195682611128565b915061196183611128565b925082820261196f81611128565b9150828204841483151761198657611985611549565b5b5092915050565b7f5265656e7472616e637947756172643a207265656e7472616e742063616c6c00600082015250565b60006119c3601f83611461565b91506119ce8261198d565b602082019050919050565b600060208201905081810360008301526119f2816119b6565b905091905056fea2646970667358221220b46361de4ab8573eed1ef906c51f7b2218d6de12ff200a36c8185e7c86611fd264736f6c63430008140033",
  "linkReferences": {},
  "deployedLinkReferences": {}
}