{
  "_format": "hh-sol-artifact-1",
  "contractName": "Common",
  "sourceName": "contracts/Common.sol",
  "abi": [
    {
      "inputs": [
        {
          "internalType": "uint256",
          "name": "required",
          "type": "uint256"
        },
        {
          "internalType": "uint256",
          "name": "sent",
          "type": "uint256"
        }
      ],
      "name": "InvalidValue",
      "type": "error"
    },
    {
      "inputs": [],
      "name": "NotApprovedBankroll",
      "type": "error"
    },
    {
      "inputs": [
        {
          "internalType": "address",
          "name": "want",
          "type": "address"
        },
        {
          "internalType": "address",
          "name": "have",
          "type": "address"
        }
      ],
      "name": "NotOwner",
      "type": "error"
    },
    {
      "inputs": [
        {
          "internalType": "uint256",
          "name": "suspensionTime",
          "type": "uint256"
        }
      ],
      "name": "PlayerSuspended",
      "type": "error"
    },
    {
      "inputs": [],
      "name": "RefundFailed",
      "type": "error"
    },
    {
      "inputs": [],
      "name": "TransferFailed",
      "type": "error"
    },
    {
      "inputs": [],
      "name": "ZeroWager",
      "type": "error"
    },
    {
      "inputs": [],
      "name": "Bankroll",
      "outputs": [
        {
          "internalType": "contract IBankRoll",
          "name": "",
          "type": "address"
        }
      ],
      "stateMutability": "view",
      "type": "function"
    },
    {
      "inputs": [],
      "name": "ChainLinkVRF",
      "outputs": [
        {
          "internalType": "address",
          "name": "",
          "type": "address"
        }
      ],
      "stateMutability": "view",
      "type": "function"
    },
    {
      "inputs": [],
      "name": "IChainLinkVRF",
      "outputs": [
        {
          "internalType": "contract IVRFCoordinatorV2",
          "name": "",
          "type": "address"
        }
      ],
      "stateMutability": "view",
      "type": "function"
    },
    {
      "inputs": [],
      "name": "LINK_ETH_FEED",
      "outputs": [
        {
          "internalType": "contract AggregatorV3Interface",
          "name": "",
          "type": "address"
        }
      ],
      "stateMutability": "view",
      "type": "function"
    },
    {
      "inputs": [],
      "name": "VRFFees",
      "outputs": [
        {
          "internalType": "uint256",
          "name": "",
          "type": "uint256"
        }
      ],
      "stateMutability": "view",
      "type": "function"
    },
    {
      "inputs": [],
      "name": "_trustedForwarder",
      "outputs": [
        {
          "internalType": "address",
          "name": "",
          "type": "address"
        }
      ],
      "stateMutability": "view",
      "type": "function"
    },
    {
      "inputs": [
        {
          "internalType": "uint256",
          "name": "gasAmount",
          "type": "uint256"
        }
      ],
      "name": "getVRFFee",
      "outputs": [
        {
          "internalType": "uint256",
          "name": "fee",
          "type": "uint256"
        }
      ],
      "stateMutability": "view",
      "type": "function"
    },
    {
      "inputs": [
        {
          "internalType": "address",
          "name": "forwarder",
          "type": "address"
        }
      ],
      "name": "isTrustedForwarder",
      "outputs": [
        {
          "internalType": "bool",
          "name": "",
          "type": "bool"
        }
      ],
      "stateMutability": "view",
      "type": "function"
    },
    {
      "inputs": [
        {
          "internalType": "address",
          "name": "to",
          "type": "address"
        }
      ],
      "name": "transferFees",
      "outputs": [],
      "stateMutability": "nonpayable",
      "type": "function"
    }
  ],
  "bytecode": "0x608060405234801561001057600080fd5b506001600081905550610e45806100286000396000f3fe608060405234801561001057600080fd5b50600436106100935760003560e01c80638bd16114116100665780638bd16114146101205780638d7c16d214610150578063953995ea1461016e578063ad1783611461018c578063d0bcfc0c146101aa57610093565b80634dd189d51461009857806356c022bb146100b6578063572b6c05146100d457806363dc4ef514610104575b600080fd5b6100a06101c8565b6040516100ad91906107a3565b60405180910390f35b6100be6101ee565b6040516100cb91906107df565b60405180910390f35b6100ee60048036038101906100e9919061082b565b610214565b6040516100fb9190610873565b60405180910390f35b61011e6004803603810190610119919061082b565b61026e565b005b61013a600480360381019061013591906108c4565b6104c7565b6040516101479190610900565b60405180910390f35b610158610653565b6040516101659190610900565b60405180910390f35b610176610659565b60405161018391906107df565b60405180910390f35b61019461067f565b6040516101a1919061093c565b60405180910390f35b6101b26106a5565b6040516101bf9190610978565b60405180910390f35b600560009054906101000a900473ffffffffffffffffffffffffffffffffffffffff1681565b600360009054906101000a900473ffffffffffffffffffffffffffffffffffffffff1681565b6000600360009054906101000a900473ffffffffffffffffffffffffffffffffffffffff1673ffffffffffffffffffffffffffffffffffffffff168273ffffffffffffffffffffffffffffffffffffffff16149050919050565b6102766106cb565b600660009054906101000a900473ffffffffffffffffffffffffffffffffffffffff1673ffffffffffffffffffffffffffffffffffffffff1663893d20e86040518163ffffffff1660e01b8152600401602060405180830381865afa1580156102e3573d6000803e3d6000fd5b505050506040513d601f19601f8201168201806040525081019061030791906109a8565b73ffffffffffffffffffffffffffffffffffffffff163373ffffffffffffffffffffffffffffffffffffffff161461040857600660009054906101000a900473ffffffffffffffffffffffffffffffffffffffff1673ffffffffffffffffffffffffffffffffffffffff1663893d20e86040518163ffffffff1660e01b8152600401602060405180830381865afa1580156103a6573d6000803e3d6000fd5b505050506040513d601f19601f820116820180604052508101906103ca91906109a8565b336040517f23295f0e0000000000000000000000000000000000000000000000000000000081526004016103ff9291906109d5565b60405180910390fd5b60006001549050600060018190555060008273ffffffffffffffffffffffffffffffffffffffff168260405161043d90610a2f565b60006040518083038185875af1925050503d806000811461047a576040519150601f19603f3d011682016040523d82523d6000602084013e61047f565b606091505b50509050806104ba576040517f90b8ec1800000000000000000000000000000000000000000000000000000000815260040160405180910390fd5b50506104c461071a565b50565b600080600460009054906101000a900473ffffffffffffffffffffffffffffffffffffffff1673ffffffffffffffffffffffffffffffffffffffff1663feaf968c6040518163ffffffff1660e01b815260040160a060405180830381865afa158015610537573d6000803e3d6000fd5b505050506040513d601f19601f8201168201806040525081019061055b9190610ad1565b5050509150506000600560009054906101000a900473ffffffffffffffffffffffffffffffffffffffff1673ffffffffffffffffffffffffffffffffffffffff16635fbbc0d26040518163ffffffff1660e01b815260040161012060405180830381865afa1580156105d1573d6000803e3d6000fd5b505050506040513d601f19601f820116820180604052508101906105f59190610bc3565b50505050505050509050670de0b6b3a7640000828263ffffffff1664e8d4a510006106209190610cbc565b61062a9190610cbc565b6106349190610d2d565b843a6106409190610cbc565b61064a9190610d5e565b92505050919050565b60015481565b600260009054906101000a900473ffffffffffffffffffffffffffffffffffffffff1681565b600460009054906101000a900473ffffffffffffffffffffffffffffffffffffffff1681565b600660009054906101000a900473ffffffffffffffffffffffffffffffffffffffff1681565b600260005403610710576040517f08c379a000000000000000000000000000000000000000000000000000000000815260040161070790610def565b60405180910390fd5b6002600081905550565b6001600081905550565b600073ffffffffffffffffffffffffffffffffffffffff82169050919050565b6000819050919050565b600061076961076461075f84610724565b610744565b610724565b9050919050565b600061077b8261074e565b9050919050565b600061078d82610770565b9050919050565b61079d81610782565b82525050565b60006020820190506107b86000830184610794565b92915050565b60006107c982610724565b9050919050565b6107d9816107be565b82525050565b60006020820190506107f460008301846107d0565b92915050565b600080fd5b610808816107be565b811461081357600080fd5b50565b600081359050610825816107ff565b92915050565b600060208284031215610841576108406107fa565b5b600061084f84828501610816565b91505092915050565b60008115159050919050565b61086d81610858565b82525050565b60006020820190506108886000830184610864565b92915050565b6000819050919050565b6108a18161088e565b81146108ac57600080fd5b50565b6000813590506108be81610898565b92915050565b6000602082840312156108da576108d96107fa565b5b60006108e8848285016108af565b91505092915050565b6108fa8161088e565b82525050565b600060208201905061091560008301846108f1565b92915050565b600061092682610770565b9050919050565b6109368161091b565b82525050565b6000602082019050610951600083018461092d565b92915050565b600061096282610770565b9050919050565b61097281610957565b82525050565b600060208201905061098d6000830184610969565b92915050565b6000815190506109a2816107ff565b92915050565b6000602082840312156109be576109bd6107fa565b5b60006109cc84828501610993565b91505092915050565b60006040820190506109ea60008301856107d0565b6109f760208301846107d0565b9392505050565b600081905092915050565b50565b6000610a196000836109fe565b9150610a2482610a09565b600082019050919050565b6000610a3a82610a0c565b9150819050919050565b600069ffffffffffffffffffff82169050919050565b610a6381610a44565b8114610a6e57600080fd5b50565b600081519050610a8081610a5a565b92915050565b6000819050919050565b610a9981610a86565b8114610aa457600080fd5b50565b600081519050610ab681610a90565b92915050565b600081519050610acb81610898565b92915050565b600080600080600060a08688031215610aed57610aec6107fa565b5b6000610afb88828901610a71565b9550506020610b0c88828901610aa7565b9450506040610b1d88828901610abc565b9350506060610b2e88828901610abc565b9250506080610b3f88828901610a71565b9150509295509295909350565b600063ffffffff82169050919050565b610b6581610b4c565b8114610b7057600080fd5b50565b600081519050610b8281610b5c565b92915050565b600062ffffff82169050919050565b610ba081610b88565b8114610bab57600080fd5b50565b600081519050610bbd81610b97565b92915050565b60008060008060008060008060006101208a8c031215610be657610be56107fa565b5b6000610bf48c828d01610b73565b9950506020610c058c828d01610b73565b9850506040610c168c828d01610b73565b9750506060610c278c828d01610b73565b9650506080610c388c828d01610b73565b95505060a0610c498c828d01610bae565b94505060c0610c5a8c828d01610bae565b93505060e0610c6b8c828d01610bae565b925050610100610c7d8c828d01610bae565b9150509295985092959850929598565b7f4e487b7100000000000000000000000000000000000000000000000000000000600052601160045260246000fd5b6000610cc78261088e565b9150610cd28361088e565b9250828202610ce08161088e565b91508282048414831517610cf757610cf6610c8d565b5b5092915050565b7f4e487b7100000000000000000000000000000000000000000000000000000000600052601260045260246000fd5b6000610d388261088e565b9150610d438361088e565b925082610d5357610d52610cfe565b5b828204905092915050565b6000610d698261088e565b9150610d748361088e565b9250828201905080821115610d8c57610d8b610c8d565b5b92915050565b600082825260208201905092915050565b7f5265656e7472616e637947756172643a207265656e7472616e742063616c6c00600082015250565b6000610dd9601f83610d92565b9150610de482610da3565b602082019050919050565b60006020820190508181036000830152610e0881610dcc565b905091905056fea26469706673582212203ebb5b929b2727230266aa72ddaf68a5655c178bacebf49fb5f74222d293df5864736f6c63430008140033",
  "linkReferences": {},
  "deployedLinkReferences": {}
}