{
	"data": {
		"bytecode": {
			"linkReferences": {},
			"object": "608060405234801562000010575f80fd5b5060405162003962380380620039628339818101604052810190620000369190620001ec565b60015f819055508360065f6101000a81548173ffffffffffffffffffffffffffffffffffffffff021916908373ffffffffffffffffffffffffffffffffffffffff1602179055508260055f6101000a81548173ffffffffffffffffffffffffffffffffffffffff021916908373ffffffffffffffffffffffffffffffffffffffff1602179055508160045f6101000a81548173ffffffffffffffffffffffffffffffffffffffff021916908373ffffffffffffffffffffffffffffffffffffffff1602179055508260025f6101000a81548173ffffffffffffffffffffffffffffffffffffffff021916908373ffffffffffffffffffffffffffffffffffffffff1602179055508060035f6101000a81548173ffffffffffffffffffffffffffffffffffffffff021916908373ffffffffffffffffffffffffffffffffffffffff160217905550505050506200025b565b5f80fd5b5f73ffffffffffffffffffffffffffffffffffffffff82169050919050565b5f620001b6826200018b565b9050919050565b620001c881620001aa565b8114620001d3575f80fd5b50565b5f81519050620001e681620001bd565b92915050565b5f805f806080858703121562000207576200020662000187565b5b5f6200021687828801620001d6565b94505060206200022987828801620001d6565b93505060406200023c87828801620001d6565b92505060606200024f87828801620001d6565b91505092959194509250565b6136f980620002695f395ff3fe6080604052600436106100c1575f3560e01c80636d9747731161007e5780638d7c16d2116100585780638d7c16d21461024f578063953995ea14610279578063ad178361146102a3578063d0bcfc0c146102cd576100c1565b80636d974773146101bb5780637df31284146101d75780638bd1611414610213576100c1565b80631fe543e3146100c55780634dd189d5146100ed578063522d2c241461011757806356c022bb1461012d578063572b6c051461015757806363dc4ef514610193575b5f80fd5b3480156100d0575f80fd5b506100eb60048036038101906100e691906125dc565b6102f7565b005b3480156100f8575f80fd5b506101016103b9565b60405161010e91906126b0565b60405180910390f35b348015610122575f80fd5b5061012b6103de565b005b348015610138575f80fd5b506101416107d3565b60405161014e91906126e9565b60405180910390f35b348015610162575f80fd5b5061017d6004803603810190610178919061272c565b6107f8565b60405161018a9190612771565b60405180910390f35b34801561019e575f80fd5b506101b960048036038101906101b4919061272c565b610850565b005b6101d560048036038101906101d091906127ed565b610a9d565b005b3480156101e2575f80fd5b506101fd60048036038101906101f8919061272c565b610e4a565b60405161020a9190612974565b60405180910390f35b34801561021e575f80fd5b506102396004803603810190610234919061298e565b610f90565b60405161024691906129c8565b60405180910390f35b34801561025a575f80fd5b50610263611114565b60405161027091906129c8565b60405180910390f35b348015610284575f80fd5b5061028d61111a565b60405161029a91906126e9565b60405180910390f35b3480156102ae575f80fd5b506102b761113f565b6040516102c49190612a01565b60405180910390f35b3480156102d8575f80fd5b506102e1611164565b6040516102ee9190612a3a565b60405180910390f35b60025f9054906101000a900473ffffffffffffffffffffffffffffffffffffffff1673ffffffffffffffffffffffffffffffffffffffff163373ffffffffffffffffffffffffffffffffffffffff16146103ab573360025f9054906101000a900473ffffffffffffffffffffffffffffffffffffffff166040517f1cf993f40000000000000000000000000000000000000000000000000000000081526004016103a2929190612a53565b60405180910390fd5b6103b58282611189565b5050565b60055f9054906101000a900473ffffffffffffffffffffffffffffffffffffffff1681565b6103e66117e9565b5f6103ef611836565b90505f60075f8373ffffffffffffffffffffffffffffffffffffffff1673ffffffffffffffffffffffffffffffffffffffff1681526020019081526020015f2090505f81600301540361046e576040517f49050b3000000000000000000000000000000000000000000000000000000000815260040160405180910390fd5b43600a6103e88360040160149054906101000a900467ffffffffffffffff166104979190612aa7565b6104a19190612aa7565b67ffffffffffffffff1611156105215743600a6103e88360040160149054906101000a900467ffffffffffffffff166104da9190612aa7565b6104e49190612aa7565b6040517fb4ae675a000000000000000000000000000000000000000000000000000000008152600401610518929190612b12565b60405180910390fd5b5f81600401601c9054906101000a900463ffffffff1663ffffffff16825f015461054b9190612b39565b90505f826004015f9054906101000a900473ffffffffffffffffffffffffffffffffffffffff16905060085f846003015481526020019081526020015f205f6101000a81549073ffffffffffffffffffffffffffffffffffffffff021916905560075f8573ffffffffffffffffffffffffffffffffffffffff1673ffffffffffffffffffffffffffffffffffffffff1681526020019081526020015f205f8082015f9055600182015f9055600282015f9055600382015f9055600482015f6101000a81549073ffffffffffffffffffffffffffffffffffffffff02191690556004820160146101000a81549067ffffffffffffffff021916905560048201601c6101000a81549063ffffffff0219169055600582015f6101000a81549060ff021916905550505f73ffffffffffffffffffffffffffffffffffffffff168173ffffffffffffffffffffffffffffffffffffffff1603610749575f8473ffffffffffffffffffffffffffffffffffffffff16836040516106c990612ba7565b5f6040518083038185875af1925050503d805f8114610703576040519150601f19603f3d011682016040523d82523d5f602084013e610708565b606091505b5050905080610743576040517f90b8ec1800000000000000000000000000000000000000000000000000000000815260040160405180910390fd5b50610775565b61077484838373ffffffffffffffffffffffffffffffffffffffff1661186b9092919063ffffffff16565b5b8373ffffffffffffffffffffffffffffffffffffffff167f60f5ec2f86c0cf8ae72815b61b05473a9382c1c34a74749680302b342c04138a83836040516107bd929190612bbb565b60405180910390a2505050506107d16118ea565b565b60035f9054906101000a900473ffffffffffffffffffffffffffffffffffffffff1681565b5f60035f9054906101000a900473ffffffffffffffffffffffffffffffffffffffff1673ffffffffffffffffffffffffffffffffffffffff168273ffffffffffffffffffffffffffffffffffffffff16149050919050565b6108586117e9565b60065f9054906101000a900473ffffffffffffffffffffffffffffffffffffffff1673ffffffffffffffffffffffffffffffffffffffff1663893d20e86040518163ffffffff1660e01b8152600401602060405180830381865afa1580156108c2573d5f803e3d5ffd5b505050506040513d601f19601f820116820180604052508101906108e69190612bf6565b73ffffffffffffffffffffffffffffffffffffffff163373ffffffffffffffffffffffffffffffffffffffff16146109e45760065f9054906101000a900473ffffffffffffffffffffffffffffffffffffffff1673ffffffffffffffffffffffffffffffffffffffff1663893d20e86040518163ffffffff1660e01b8152600401602060405180830381865afa158015610982573d5f803e3d5ffd5b505050506040513d601f19601f820116820180604052508101906109a69190612bf6565b336040517f23295f0e0000000000000000000000000000000000000000000000000000000081526004016109db929190612a53565b60405180910390fd5b5f60015490505f6001819055505f8273ffffffffffffffffffffffffffffffffffffffff1682604051610a1690612ba7565b5f6040518083038185875af1925050503d805f8114610a50576040519150601f19603f3d011682016040523d82523d5f602084013e610a55565b606091505b5050905080610a90576040517f90b8ec1800000000000000000000000000000000000000000000000000000000815260040160405180910390fd5b5050610a9a6118ea565b50565b610aa56117e9565b5f610aae611836565b90505f60075f8373ffffffffffffffffffffffffffffffffffffffff1673ffffffffffffffffffffffffffffffffffffffff1681526020019081526020015f206003015414610b745760075f8273ffffffffffffffffffffffffffffffffffffffff1673ffffffffffffffffffffffffffffffffffffffff1681526020019081526020015f20600301546040517f440db96e000000000000000000000000000000000000000000000000000000008152600401610b6b91906129c8565b60405180910390fd5b5f8463ffffffff16118015610b90575060648463ffffffff1611155b610bd25760646040517f93107491000000000000000000000000000000000000000000000000000000008152600401610bc99190612c5a565b60405180910390fd5b610bdc87876118f3565b5f610bfd878663ffffffff168a610bf39190612b39565b620f424085611a71565b90505f610c0986611dc7565b90506040518061010001604052808a81526020018681526020018581526020018281526020018973ffffffffffffffffffffffffffffffffffffffff1681526020014367ffffffffffffffff1681526020018763ffffffff16815260200188151581525060075f8573ffffffffffffffffffffffffffffffffffffffff1673ffffffffffffffffffffffffffffffffffffffff1681526020019081526020015f205f820151815f01556020820151816001015560408201518160020155606082015181600301556080820151816004015f6101000a81548173ffffffffffffffffffffffffffffffffffffffff021916908373ffffffffffffffffffffffffffffffffffffffff16021790555060a08201518160040160146101000a81548167ffffffffffffffff021916908367ffffffffffffffff16021790555060c082015181600401601c6101000a81548163ffffffff021916908363ffffffff16021790555060e0820151816005015f6101000a81548160ff0219169083151502179055509050508260085f8381526020019081526020015f205f6101000a81548173ffffffffffffffffffffffffffffffffffffffff021916908373ffffffffffffffffffffffffffffffffffffffff1602179055508273ffffffffffffffffffffffffffffffffffffffff167f9802308245dc39ec39c453355c93a84c961f728db54b5adeaad1cd29aa6f3f738a8a8a8a8a8a89604051610e2f9796959493929190612c82565b60405180910390a2505050610e426118ea565b505050505050565b610e526123e3565b60075f8373ffffffffffffffffffffffffffffffffffffffff1673ffffffffffffffffffffffffffffffffffffffff1681526020019081526020015f20604051806101000160405290815f8201548152602001600182015481526020016002820154815260200160038201548152602001600482015f9054906101000a900473ffffffffffffffffffffffffffffffffffffffff1673ffffffffffffffffffffffffffffffffffffffff1673ffffffffffffffffffffffffffffffffffffffff1681526020016004820160149054906101000a900467ffffffffffffffff1667ffffffffffffffff1667ffffffffffffffff16815260200160048201601c9054906101000a900463ffffffff1663ffffffff1663ffffffff168152602001600582015f9054906101000a900460ff1615151515815250509050919050565b5f8060045f9054906101000a900473ffffffffffffffffffffffffffffffffffffffff1673ffffffffffffffffffffffffffffffffffffffff1663feaf968c6040518163ffffffff1660e01b815260040160a060405180830381865afa158015610ffc573d5f803e3d5ffd5b505050506040513d601f19601f820116820180604052508101906110209190612d75565b5050509150505f60055f9054906101000a900473ffffffffffffffffffffffffffffffffffffffff1673ffffffffffffffffffffffffffffffffffffffff16635fbbc0d26040518163ffffffff1660e01b815260040161012060405180830381865afa158015611092573d5f803e3d5ffd5b505050506040513d601f19601f820116820180604052508101906110b69190612e38565b50505050505050509050670de0b6b3a7640000828263ffffffff1664e8d4a510006110e19190612b39565b6110eb9190612b39565b6110f59190612f29565b843a6111019190612b39565b61110b9190612f59565b92505050919050565b60015481565b60025f9054906101000a900473ffffffffffffffffffffffffffffffffffffffff1681565b60045f9054906101000a900473ffffffffffffffffffffffffffffffffffffffff1681565b60065f9054906101000a900473ffffffffffffffffffffffffffffffffffffffff1681565b5f60085f8481526020019081526020015f205f9054906101000a900473ffffffffffffffffffffffffffffffffffffffff1690505f73ffffffffffffffffffffffffffffffffffffffff168173ffffffffffffffffffffffffffffffffffffffff16036111f4575f80fd5b5f60075f8373ffffffffffffffffffffffffffffffffffffffff1673ffffffffffffffffffffffffffffffffffffffff1681526020019081526020015f2090506103e88160040160149054906101000a900467ffffffffffffffff1661125a9190612aa7565b67ffffffffffffffff1643111561126f575f80fd5b5f805f8084600401601c9054906101000a900463ffffffff1663ffffffff1667ffffffffffffffff8111156112a7576112a66124a0565b5b6040519080825280602002602001820160405280156112d55781602001602082028036833780820191505090505b5090505f85600401601c9054906101000a900463ffffffff1663ffffffff1667ffffffffffffffff81111561130d5761130c6124a0565b5b60405190808252806020026020018201604052801561133b5781602001602082028036833780820191505090505b5090505f866004015f9054906101000a900473ffffffffffffffffffffffffffffffffffffffff1690505f93505b86600401601c9054906101000a900463ffffffff1663ffffffff168463ffffffff1610156116035786600101548612156116035786600201546113ab90612f8c565b861315611603576002898563ffffffff16815181106113cd576113cc612fd2565b5b60200260200101516113df9190612fff565b838563ffffffff16815181106113f8576113f7612fd2565b5b602002602001019060ff16908160ff16815250506001838563ffffffff168151811061142757611426612fd2565b5b602002602001015160ff16148015611453575060011515876005015f9054906101000a900460ff161515145b156114f657612710612648885f015461146c9190612b39565b6114769190612f29565b86611481919061302f565b9550612710614d58885f01546114979190612b39565b6114a19190612f29565b856114ac9190612f59565b9450612710614d58885f01546114c29190612b39565b6114cc9190612f29565b828563ffffffff16815181106114e5576114e4612fd2565b5b6020026020010181815250506115f0565b5f838563ffffffff16815181106115105761150f612fd2565b5b602002602001015160ff1614801561153b57505f1515876005015f9054906101000a900460ff161515145b156115de57612710612648885f01546115549190612b39565b61155e9190612f29565b86611569919061302f565b9550612710614d58885f015461157f9190612b39565b6115899190612f29565b856115949190612f59565b9450612710614d58885f01546115aa9190612b39565b6115b49190612f29565b828563ffffffff16815181106115cd576115cc612fd2565b5b6020026020010181815250506115f0565b865f0154866115ed9190613070565b95505b83806115fb906130b0565b945050611369565b865f01548488600401601c9054906101000a900463ffffffff1661162791906130db565b63ffffffff166116379190612b39565b856116429190612f59565b94508773ffffffffffffffffffffffffffffffffffffffff167f063ba2c91a70f945b84c24531b0de813d66f430987169cb7d878431c04cb0004885f0154878487878a6040516116979695949392919061327d565b60405180910390a26116d18188600401601c9054906101000a900463ffffffff1663ffffffff16895f01546116cc9190612b39565b611e97565b60085f8b81526020019081526020015f205f6101000a81549073ffffffffffffffffffffffffffffffffffffffff021916905560075f8973ffffffffffffffffffffffffffffffffffffffff1673ffffffffffffffffffffffffffffffffffffffff1681526020019081526020015f205f8082015f9055600182015f9055600282015f9055600382015f9055600482015f6101000a81549073ffffffffffffffffffffffffffffffffffffffff02191690556004820160146101000a81549067ffffffffffffffff021916905560048201601c6101000a81549063ffffffff0219169055600582015f6101000a81549060ff021916905550505f85146117dd576117dc888683611fe1565b5b50505050505050505050565b60025f540361182d576040517f08c379a000000000000000000000000000000000000000000000000000000000815260040161182490613344565b60405180910390fd5b60025f81905550565b5f60145f36905010158015611850575061184f336107f8565b5b1561186457601436033560601c9050611868565b3390505b90565b6118e5838473ffffffffffffffffffffffffffffffffffffffff1663a9059cbb858560405160240161189e929190613362565b604051602081830303815290604052915060e01b6020820180517bffffffffffffffffffffffffffffffffffffffffffffffffffffffff8381831617835250505050612071565b505050565b60015f81905550565b5f8073ffffffffffffffffffffffffffffffffffffffff168273ffffffffffffffffffffffffffffffffffffffff16036119675760065f9054906101000a900473ffffffffffffffffffffffffffffffffffffffff1673ffffffffffffffffffffffffffffffffffffffff16319050611a03565b8173ffffffffffffffffffffffffffffffffffffffff166370a0823160065f9054906101000a900473ffffffffffffffffffffffffffffffffffffffff166040518263ffffffff1660e01b81526004016119c191906126e9565b602060405180830381865afa1580156119dc573d5f803e3d5ffd5b505050506040513d601f19601f82011682018060405250810190611a009190613389565b90505b5f6305f5e1006211209083611a189190612b39565b611a229190612f29565b905080841115611a6b5783816040517fd53662aa000000000000000000000000000000000000000000000000000000008152600401611a629291906133b4565b60405180910390fd5b50505050565b5f60065f9054906101000a900473ffffffffffffffffffffffffffffffffffffffff1673ffffffffffffffffffffffffffffffffffffffff1663bfd7f9cc30876040518363ffffffff1660e01b8152600401611ace929190612a53565b602060405180830381865afa158015611ae9573d5f803e3d5ffd5b505050506040513d601f19601f82011682018060405250810190611b0d91906133ef565b611b43576040517f51c3b94f00000000000000000000000000000000000000000000000000000000815260040160405180910390fd5b5f8403611b7c576040517f07375c8400000000000000000000000000000000000000000000000000000000815260040160405180910390fd5b5f8060065f9054906101000a900473ffffffffffffffffffffffffffffffffffffffff1673ffffffffffffffffffffffffffffffffffffffff16630a5748a8856040518263ffffffff1660e01b8152600401611bd891906126e9565b6040805180830381865afa158015611bf2573d5f803e3d5ffd5b505050506040513d601f19601f82011682018060405250810190611c16919061341a565b915091508115611c5d57806040517f6c2775f5000000000000000000000000000000000000000000000000000000008152600401611c5491906129c8565b60405180910390fd5b611c6685610f90565b92505f73ffffffffffffffffffffffffffffffffffffffff168773ffffffffffffffffffffffffffffffffffffffff1603611d1c578286611ca79190612f59565b341015611cf8578286611cba9190612f59565b346040517fde9b74a1000000000000000000000000000000000000000000000000000000008152600401611cef9291906133b4565b60405180910390fd5b611d178684611d079190612f59565b34611d129190613458565b612106565b611da5565b82341015611d635782346040517fde9b74a1000000000000000000000000000000000000000000000000000000008152600401611d5a9291906133b4565b60405180910390fd5b611d908430888a73ffffffffffffffffffffffffffffffffffffffff166121b2909392919063ffffffff16565b611da48334611d9f9190613458565b612106565b5b8260015f828254611db69190612f59565b925050819055505050949350505050565b5f60025f9054906101000a900473ffffffffffffffffffffffffffffffffffffffff1673ffffffffffffffffffffffffffffffffffffffff16635d3b1d307fd729dc84e21ae57ffb6be0053bf2b0668aa2aaf300a2a7b2ddf7dc0bb6e875a86102406003622625a0876040518663ffffffff1660e01b8152600401611e50959493929190613590565b6020604051808303815f875af1158015611e6c573d5f803e3d5ffd5b505050506040513d601f19601f82011682018060405250810190611e909190613389565b9050919050565b5f73ffffffffffffffffffffffffffffffffffffffff168273ffffffffffffffffffffffffffffffffffffffff1603611f90575f60065f9054906101000a900473ffffffffffffffffffffffffffffffffffffffff1673ffffffffffffffffffffffffffffffffffffffff1682604051611f1090612ba7565b5f6040518083038185875af1925050503d805f8114611f4a576040519150601f19603f3d011682016040523d82523d5f602084013e611f4f565b606091505b5050905080611f8a576040517ff0c49d4400000000000000000000000000000000000000000000000000000000815260040160405180910390fd5b50611fdd565b611fdc60065f9054906101000a900473ffffffffffffffffffffffffffffffffffffffff16828473ffffffffffffffffffffffffffffffffffffffff1661186b9092919063ffffffff16565b5b5050565b60065f9054906101000a900473ffffffffffffffffffffffffffffffffffffffff1673ffffffffffffffffffffffffffffffffffffffff16636c025ec28484846040518463ffffffff1660e01b815260040161203f939291906135e1565b5f604051808303815f87803b158015612056575f80fd5b505af1158015612068573d5f803e3d5ffd5b50505050505050565b5f61209b828473ffffffffffffffffffffffffffffffffffffffff1661223490919063ffffffff16565b90505f8151141580156120bf5750808060200190518101906120bd91906133ef565b155b1561210157826040517f5274afe70000000000000000000000000000000000000000000000000000000081526004016120f891906126e9565b60405180910390fd5b505050565b5f8103156121af575f3373ffffffffffffffffffffffffffffffffffffffff168260405161213390612ba7565b5f6040518083038185875af1925050503d805f811461216d576040519150601f19603f3d011682016040523d82523d5f602084013e612172565b606091505b50509050806121ad576040517ff0c49d4400000000000000000000000000000000000000000000000000000000815260040160405180910390fd5b505b50565b61222e848573ffffffffffffffffffffffffffffffffffffffff166323b872dd8686866040516024016121e793929190613616565b604051602081830303815290604052915060e01b6020820180517bffffffffffffffffffffffffffffffffffffffffffffffffffffffff8381831617835250505050612071565b50505050565b606061224183835f612249565b905092915050565b60608147101561229057306040517fcd78605900000000000000000000000000000000000000000000000000000000815260040161228791906126e9565b60405180910390fd5b5f808573ffffffffffffffffffffffffffffffffffffffff1684866040516122b891906136ad565b5f6040518083038185875af1925050503d805f81146122f2576040519150601f19603f3d011682016040523d82523d5f602084013e6122f7565b606091505b5091509150612307868383612312565b925050509392505050565b606082612327576123228261239f565b612397565b5f825114801561234d57505f8473ffffffffffffffffffffffffffffffffffffffff163b145b1561238f57836040517f9996b31500000000000000000000000000000000000000000000000000000000815260040161238691906126e9565b60405180910390fd5b819050612398565b5b9392505050565b5f815111156123b15780518082602001fd5b6040517f1425ea4200000000000000000000000000000000000000000000000000000000815260040160405180910390fd5b6040518061010001604052805f81526020015f81526020015f81526020015f81526020015f73ffffffffffffffffffffffffffffffffffffffff1681526020015f67ffffffffffffffff1681526020015f63ffffffff1681526020015f151581525090565b5f604051905090565b5f80fd5b5f80fd5b5f819050919050565b61246b81612459565b8114612475575f80fd5b50565b5f8135905061248681612462565b92915050565b5f80fd5b5f601f19601f8301169050919050565b7f4e487b71000000000000000000000000000000000000000000000000000000005f52604160045260245ffd5b6124d682612490565b810181811067ffffffffffffffff821117156124f5576124f46124a0565b5b80604052505050565b5f612507612448565b905061251382826124cd565b919050565b5f67ffffffffffffffff821115612532576125316124a0565b5b602082029050602081019050919050565b5f80fd5b5f61255961255484612518565b6124fe565b9050808382526020820190506020840283018581111561257c5761257b612543565b5b835b818110156125a557806125918882612478565b84526020840193505060208101905061257e565b5050509392505050565b5f82601f8301126125c3576125c261248c565b5b81356125d3848260208601612547565b91505092915050565b5f80604083850312156125f2576125f1612451565b5b5f6125ff85828601612478565b925050602083013567ffffffffffffffff8111156126205761261f612455565b5b61262c858286016125af565b9150509250929050565b5f73ffffffffffffffffffffffffffffffffffffffff82169050919050565b5f819050919050565b5f61267861267361266e84612636565b612655565b612636565b9050919050565b5f6126898261265e565b9050919050565b5f61269a8261267f565b9050919050565b6126aa81612690565b82525050565b5f6020820190506126c35f8301846126a1565b92915050565b5f6126d382612636565b9050919050565b6126e3816126c9565b82525050565b5f6020820190506126fc5f8301846126da565b92915050565b61270b816126c9565b8114612715575f80fd5b50565b5f8135905061272681612702565b92915050565b5f6020828403121561274157612740612451565b5b5f61274e84828501612718565b91505092915050565b5f8115159050919050565b61276b81612757565b82525050565b5f6020820190506127845f830184612762565b92915050565b61279381612757565b811461279d575f80fd5b50565b5f813590506127ae8161278a565b92915050565b5f63ffffffff82169050919050565b6127cc816127b4565b81146127d6575f80fd5b50565b5f813590506127e7816127c3565b92915050565b5f805f805f8060c0878903121561280757612806612451565b5b5f61281489828a01612478565b965050602061282589828a01612718565b955050604061283689828a016127a0565b945050606061284789828a016127d9565b935050608061285889828a01612478565b92505060a061286989828a01612478565b9150509295509295509295565b61287f81612459565b82525050565b61288e816126c9565b82525050565b5f67ffffffffffffffff82169050919050565b6128b081612894565b82525050565b6128bf816127b4565b82525050565b6128ce81612757565b82525050565b61010082015f8201516128e95f850182612876565b5060208201516128fc6020850182612876565b50604082015161290f6040850182612876565b5060608201516129226060850182612876565b5060808201516129356080850182612885565b5060a082015161294860a08501826128a7565b5060c082015161295b60c08501826128b6565b5060e082015161296e60e08501826128c5565b50505050565b5f610100820190506129885f8301846128d4565b92915050565b5f602082840312156129a3576129a2612451565b5b5f6129b084828501612478565b91505092915050565b6129c281612459565b82525050565b5f6020820190506129db5f8301846129b9565b92915050565b5f6129eb8261267f565b9050919050565b6129fb816129e1565b82525050565b5f602082019050612a145f8301846129f2565b92915050565b5f612a248261267f565b9050919050565b612a3481612a1a565b82525050565b5f602082019050612a4d5f830184612a2b565b92915050565b5f604082019050612a665f8301856126da565b612a7360208301846126da565b9392505050565b7f4e487b71000000000000000000000000000000000000000000000000000000005f52601160045260245ffd5b5f612ab182612894565b9150612abc83612894565b9250828201905067ffffffffffffffff811115612adc57612adb612a7a565b5b92915050565b5f612afc612af7612af284612894565b612655565b612459565b9050919050565b612b0c81612ae2565b82525050565b5f604082019050612b255f8301856129b9565b612b326020830184612b03565b9392505050565b5f612b4382612459565b9150612b4e83612459565b9250828202612b5c81612459565b91508282048414831517612b7357612b72612a7a565b5b5092915050565b5f81905092915050565b50565b5f612b925f83612b7a565b9150612b9d82612b84565b5f82019050919050565b5f612bb182612b87565b9150819050919050565b5f604082019050612bce5f8301856129b9565b612bdb60208301846126da565b9392505050565b5f81519050612bf081612702565b92915050565b5f60208284031215612c0b57612c0a612451565b5b5f612c1884828501612be2565b91505092915050565b5f819050919050565b5f612c44612c3f612c3a84612c21565b612655565b612459565b9050919050565b612c5481612c2a565b82525050565b5f602082019050612c6d5f830184612c4b565b92915050565b612c7c816127b4565b82525050565b5f60e082019050612c955f83018a6129b9565b612ca260208301896126da565b612caf6040830188612762565b612cbc6060830187612c73565b612cc960808301866129b9565b612cd660a08301856129b9565b612ce360c08301846129b9565b98975050505050505050565b5f69ffffffffffffffffffff82169050919050565b612d0d81612cef565b8114612d17575f80fd5b50565b5f81519050612d2881612d04565b92915050565b5f819050919050565b612d4081612d2e565b8114612d4a575f80fd5b50565b5f81519050612d5b81612d37565b92915050565b5f81519050612d6f81612462565b92915050565b5f805f805f60a08688031215612d8e57612d8d612451565b5b5f612d9b88828901612d1a565b9550506020612dac88828901612d4d565b9450506040612dbd88828901612d61565b9350506060612dce88828901612d61565b9250506080612ddf88828901612d1a565b9150509295509295909350565b5f81519050612dfa816127c3565b92915050565b5f62ffffff82169050919050565b612e1781612e00565b8114612e21575f80fd5b50565b5f81519050612e3281612e0e565b92915050565b5f805f805f805f805f6101208a8c031215612e5657612e55612451565b5b5f612e638c828d01612dec565b9950506020612e748c828d01612dec565b9850506040612e858c828d01612dec565b9750506060612e968c828d01612dec565b9650506080612ea78c828d01612dec565b95505060a0612eb88c828d01612e24565b94505060c0612ec98c828d01612e24565b93505060e0612eda8c828d01612e24565b925050610100612eec8c828d01612e24565b9150509295985092959850929598565b7f4e487b71000000000000000000000000000000000000000000000000000000005f52601260045260245ffd5b5f612f3382612459565b9150612f3e83612459565b925082612f4e57612f4d612efc565b5b828204905092915050565b5f612f6382612459565b9150612f6e83612459565b9250828201905080821115612f8657612f85612a7a565b5b92915050565b5f612f9682612d2e565b91507f80000000000000000000000000000000000000000000000000000000000000008203612fc857612fc7612a7a565b5b815f039050919050565b7f4e487b71000000000000000000000000000000000000000000000000000000005f52603260045260245ffd5b5f61300982612459565b915061301483612459565b92508261302457613023612efc565b5b828206905092915050565b5f61303982612d2e565b915061304483612d2e565b92508282019050828112155f8312168382125f84121516171561306a57613069612a7a565b5b92915050565b5f61307a82612d2e565b915061308583612d2e565b925082820390508181125f8412168282135f8512151617156130aa576130a9612a7a565b5b92915050565b5f6130ba826127b4565b915063ffffffff82036130d0576130cf612a7a565b5b600182019050919050565b5f6130e5826127b4565b91506130f0836127b4565b9250828203905063ffffffff81111561310c5761310b612a7a565b5b92915050565b5f81519050919050565b5f82825260208201905092915050565b5f819050602082019050919050565b5f60ff82169050919050565b6131508161313b565b82525050565b5f6131618383613147565b60208301905092915050565b5f602082019050919050565b5f61318382613112565b61318d818561311c565b93506131988361312c565b805f5b838110156131c85781516131af8882613156565b97506131ba8361316d565b92505060018101905061319b565b5085935050505092915050565b5f81519050919050565b5f82825260208201905092915050565b5f819050602082019050919050565b5f6132098383612876565b60208301905092915050565b5f602082019050919050565b5f61322b826131d5565b61323581856131df565b9350613240836131ef565b805f5b8381101561327057815161325788826131fe565b975061326283613215565b925050600181019050613243565b5085935050505092915050565b5f60c0820190506132905f8301896129b9565b61329d60208301886129b9565b6132aa60408301876126da565b81810360608301526132bc8186613179565b905081810360808301526132d08185613221565b90506132df60a0830184612c73565b979650505050505050565b5f82825260208201905092915050565b7f5265656e7472616e637947756172643a207265656e7472616e742063616c6c005f82015250565b5f61332e601f836132ea565b9150613339826132fa565b602082019050919050565b5f6020820190508181035f83015261335b81613322565b9050919050565b5f6040820190506133755f8301856126da565b61338260208301846129b9565b9392505050565b5f6020828403121561339e5761339d612451565b5b5f6133ab84828501612d61565b91505092915050565b5f6040820190506133c75f8301856129b9565b6133d460208301846129b9565b9392505050565b5f815190506133e98161278a565b92915050565b5f6020828403121561340457613403612451565b5b5f613411848285016133db565b91505092915050565b5f80604083850312156134305761342f612451565b5b5f61343d858286016133db565b925050602061344e85828601612d61565b9150509250929050565b5f61346282612459565b915061346d83612459565b925082820390508181111561348557613484612a7a565b5b92915050565b5f819050919050565b5f819050919050565b5f815f1b9050919050565b5f6134c26134bd6134b88461348b565b61349d565b613494565b9050919050565b6134d2816134a8565b82525050565b5f819050919050565b5f6134fb6134f66134f1846134d8565b612655565b612894565b9050919050565b61350b816134e1565b82525050565b5f819050919050565b5f61ffff82169050919050565b5f61354161353c61353784613511565b612655565b61351a565b9050919050565b61355181613527565b82525050565b5f819050919050565b5f61357a61357561357084613557565b612655565b6127b4565b9050919050565b61358a81613560565b82525050565b5f60a0820190506135a35f8301886134c9565b6135b06020830187613502565b6135bd6040830186613548565b6135ca6060830185613581565b6135d76080830184612c73565b9695505050505050565b5f6060820190506135f45f8301866126da565b61360160208301856129b9565b61360e60408301846126da565b949350505050565b5f6060820190506136295f8301866126da565b61363660208301856126da565b61364360408301846129b9565b949350505050565b5f81519050919050565b5f5b83811015613672578082015181840152602081019050613657565b5f8484015250505050565b5f6136878261364b565b6136918185612b7a565b93506136a1818560208601613655565b80840191505092915050565b5f6136b8828461367d565b91508190509291505056fea2646970667358221220f499d1e926481582d3651dd95264136aed8215436ac2f26624d186f83aecf1ac64736f6c63430008150033",
			"opcodes": "PUSH1 0x80 PUSH1 0x40 MSTORE CALLVALUE DUP1 ISZERO PUSH3 0x10 JUMPI PUSH0 DUP1 REVERT JUMPDEST POP PUSH1 0x40 MLOAD PUSH3 0x3962 CODESIZE SUB DUP1 PUSH3 0x3962 DUP4 CODECOPY DUP2 DUP2 ADD PUSH1 0x40 MSTORE DUP2 ADD SWAP1 PUSH3 0x36 SWAP2 SWAP1 PUSH3 0x1EC JUMP JUMPDEST PUSH1 0x1 PUSH0 DUP2 SWAP1 SSTORE POP DUP4 PUSH1 0x6 PUSH0 PUSH2 0x100 EXP DUP2 SLOAD DUP2 PUSH20 0xFFFFFFFFFFFFFFFFFFFFFFFFFFFFFFFFFFFFFFFF MUL NOT AND SWAP1 DUP4 PUSH20 0xFFFFFFFFFFFFFFFFFFFFFFFFFFFFFFFFFFFFFFFF AND MUL OR SWAP1 SSTORE POP DUP3 PUSH1 0x5 PUSH0 PUSH2 0x100 EXP DUP2 SLOAD DUP2 PUSH20 0xFFFFFFFFFFFFFFFFFFFFFFFFFFFFFFFFFFFFFFFF MUL NOT AND SWAP1 DUP4 PUSH20 0xFFFFFFFFFFFFFFFFFFFFFFFFFFFFFFFFFFFFFFFF AND MUL OR SWAP1 SSTORE POP DUP2 PUSH1 0x4 PUSH0 PUSH2 0x100 EXP DUP2 SLOAD DUP2 PUSH20 0xFFFFFFFFFFFFFFFFFFFFFFFFFFFFFFFFFFFFFFFF MUL NOT AND SWAP1 DUP4 PUSH20 0xFFFFFFFFFFFFFFFFFFFFFFFFFFFFFFFFFFFFFFFF AND MUL OR SWAP1 SSTORE POP DUP3 PUSH1 0x2 PUSH0 PUSH2 0x100 EXP DUP2 SLOAD DUP2 PUSH20 0xFFFFFFFFFFFFFFFFFFFFFFFFFFFFFFFFFFFFFFFF MUL NOT AND SWAP1 DUP4 PUSH20 0xFFFFFFFFFFFFFFFFFFFFFFFFFFFFFFFFFFFFFFFF AND MUL OR SWAP1 SSTORE POP DUP1 PUSH1 0x3 PUSH0 PUSH2 0x100 EXP DUP2 SLOAD DUP2 PUSH20 0xFFFFFFFFFFFFFFFFFFFFFFFFFFFFFFFFFFFFFFFF MUL NOT AND SWAP1 DUP4 PUSH20 0xFFFFFFFFFFFFFFFFFFFFFFFFFFFFFFFFFFFFFFFF AND MUL OR SWAP1 SSTORE POP POP POP POP POP PUSH3 0x25B JUMP JUMPDEST PUSH0 DUP1 REVERT JUMPDEST PUSH0 PUSH20 0xFFFFFFFFFFFFFFFFFFFFFFFFFFFFFFFFFFFFFFFF DUP3 AND SWAP1 POP SWAP2 SWAP1 POP JUMP JUMPDEST PUSH0 PUSH3 0x1B6 DUP3 PUSH3 0x18B JUMP JUMPDEST SWAP1 POP SWAP2 SWAP1 POP JUMP JUMPDEST PUSH3 0x1C8 DUP2 PUSH3 0x1AA JUMP JUMPDEST DUP2 EQ PUSH3 0x1D3 JUMPI PUSH0 DUP1 REVERT JUMPDEST POP JUMP JUMPDEST PUSH0 DUP2 MLOAD SWAP1 POP PUSH3 0x1E6 DUP2 PUSH3 0x1BD JUMP JUMPDEST SWAP3 SWAP2 POP POP JUMP JUMPDEST PUSH0 DUP1 PUSH0 DUP1 PUSH1 0x80 DUP6 DUP8 SUB SLT ISZERO PUSH3 0x207 JUMPI PUSH3 0x206 PUSH3 0x187 JUMP JUMPDEST JUMPDEST PUSH0 PUSH3 0x216 DUP8 DUP3 DUP9 ADD PUSH3 0x1D6 JUMP JUMPDEST SWAP5 POP POP PUSH1 0x20 PUSH3 0x229 DUP8 DUP3 DUP9 ADD PUSH3 0x1D6 JUMP JUMPDEST SWAP4 POP POP PUSH1 0x40 PUSH3 0x23C DUP8 DUP3 DUP9 ADD PUSH3 0x1D6 JUMP JUMPDEST SWAP3 POP POP PUSH1 0x60 PUSH3 0x24F DUP8 DUP3 DUP9 ADD PUSH3 0x1D6 JUMP JUMPDEST SWAP2 POP POP SWAP3 SWAP6 SWAP2 SWAP5 POP SWAP3 POP JUMP JUMPDEST PUSH2 0x36F9 DUP1 PUSH3 0x269 PUSH0 CODECOPY PUSH0 RETURN INVALID PUSH1 0x80 PUSH1 0x40 MSTORE PUSH1 0x4 CALLDATASIZE LT PUSH2 0xC1 JUMPI PUSH0 CALLDATALOAD PUSH1 0xE0 SHR DUP1 PUSH4 0x6D974773 GT PUSH2 0x7E JUMPI DUP1 PUSH4 0x8D7C16D2 GT PUSH2 0x58 JUMPI DUP1 PUSH4 0x8D7C16D2 EQ PUSH2 0x24F JUMPI DUP1 PUSH4 0x953995EA EQ PUSH2 0x279 JUMPI DUP1 PUSH4 0xAD178361 EQ PUSH2 0x2A3 JUMPI DUP1 PUSH4 0xD0BCFC0C EQ PUSH2 0x2CD JUMPI PUSH2 0xC1 JUMP JUMPDEST DUP1 PUSH4 0x6D974773 EQ PUSH2 0x1BB JUMPI DUP1 PUSH4 0x7DF31284 EQ PUSH2 0x1D7 JUMPI DUP1 PUSH4 0x8BD16114 EQ PUSH2 0x213 JUMPI PUSH2 0xC1 JUMP JUMPDEST DUP1 PUSH4 0x1FE543E3 EQ PUSH2 0xC5 JUMPI DUP1 PUSH4 0x4DD189D5 EQ PUSH2 0xED JUMPI DUP1 PUSH4 0x522D2C24 EQ PUSH2 0x117 JUMPI DUP1 PUSH4 0x56C022BB EQ PUSH2 0x12D JUMPI DUP1 PUSH4 0x572B6C05 EQ PUSH2 0x157 JUMPI DUP1 PUSH4 0x63DC4EF5 EQ PUSH2 0x193 JUMPI JUMPDEST PUSH0 DUP1 REVERT JUMPDEST CALLVALUE DUP1 ISZERO PUSH2 0xD0 JUMPI PUSH0 DUP1 REVERT JUMPDEST POP PUSH2 0xEB PUSH1 0x4 DUP1 CALLDATASIZE SUB DUP2 ADD SWAP1 PUSH2 0xE6 SWAP2 SWAP1 PUSH2 0x25DC JUMP JUMPDEST PUSH2 0x2F7 JUMP JUMPDEST STOP JUMPDEST CALLVALUE DUP1 ISZERO PUSH2 0xF8 JUMPI PUSH0 DUP1 REVERT JUMPDEST POP PUSH2 0x101 PUSH2 0x3B9 JUMP JUMPDEST PUSH1 0x40 MLOAD PUSH2 0x10E SWAP2 SWAP1 PUSH2 0x26B0 JUMP JUMPDEST PUSH1 0x40 MLOAD DUP1 SWAP2 SUB SWAP1 RETURN JUMPDEST CALLVALUE DUP1 ISZERO PUSH2 0x122 JUMPI PUSH0 DUP1 REVERT JUMPDEST POP PUSH2 0x12B PUSH2 0x3DE JUMP JUMPDEST STOP JUMPDEST CALLVALUE DUP1 ISZERO PUSH2 0x138 JUMPI PUSH0 DUP1 REVERT JUMPDEST POP PUSH2 0x141 PUSH2 0x7D3 JUMP JUMPDEST PUSH1 0x40 MLOAD PUSH2 0x14E SWAP2 SWAP1 PUSH2 0x26E9 JUMP JUMPDEST PUSH1 0x40 MLOAD DUP1 SWAP2 SUB SWAP1 RETURN JUMPDEST CALLVALUE DUP1 ISZERO PUSH2 0x162 JUMPI PUSH0 DUP1 REVERT JUMPDEST POP PUSH2 0x17D PUSH1 0x4 DUP1 CALLDATASIZE SUB DUP2 ADD SWAP1 PUSH2 0x178 SWAP2 SWAP1 PUSH2 0x272C JUMP JUMPDEST PUSH2 0x7F8 JUMP JUMPDEST PUSH1 0x40 MLOAD PUSH2 0x18A SWAP2 SWAP1 PUSH2 0x2771 JUMP JUMPDEST PUSH1 0x40 MLOAD DUP1 SWAP2 SUB SWAP1 RETURN JUMPDEST CALLVALUE DUP1 ISZERO PUSH2 0x19E JUMPI PUSH0 DUP1 REVERT JUMPDEST POP PUSH2 0x1B9 PUSH1 0x4 DUP1 CALLDATASIZE SUB DUP2 ADD SWAP1 PUSH2 0x1B4 SWAP2 SWAP1 PUSH2 0x272C JUMP JUMPDEST PUSH2 0x850 JUMP JUMPDEST STOP JUMPDEST PUSH2 0x1D5 PUSH1 0x4 DUP1 CALLDATASIZE SUB DUP2 ADD SWAP1 PUSH2 0x1D0 SWAP2 SWAP1 PUSH2 0x27ED JUMP JUMPDEST PUSH2 0xA9D JUMP JUMPDEST STOP JUMPDEST CALLVALUE DUP1 ISZERO PUSH2 0x1E2 JUMPI PUSH0 DUP1 REVERT JUMPDEST POP PUSH2 0x1FD PUSH1 0x4 DUP1 CALLDATASIZE SUB DUP2 ADD SWAP1 PUSH2 0x1F8 SWAP2 SWAP1 PUSH2 0x272C JUMP JUMPDEST PUSH2 0xE4A JUMP JUMPDEST PUSH1 0x40 MLOAD PUSH2 0x20A SWAP2 SWAP1 PUSH2 0x2974 JUMP JUMPDEST PUSH1 0x40 MLOAD DUP1 SWAP2 SUB SWAP1 RETURN JUMPDEST CALLVALUE DUP1 ISZERO PUSH2 0x21E JUMPI PUSH0 DUP1 REVERT JUMPDEST POP PUSH2 0x239 PUSH1 0x4 DUP1 CALLDATASIZE SUB DUP2 ADD SWAP1 PUSH2 0x234 SWAP2 SWAP1 PUSH2 0x298E JUMP JUMPDEST PUSH2 0xF90 JUMP JUMPDEST PUSH1 0x40 MLOAD PUSH2 0x246 SWAP2 SWAP1 PUSH2 0x29C8 JUMP JUMPDEST PUSH1 0x40 MLOAD DUP1 SWAP2 SUB SWAP1 RETURN JUMPDEST CALLVALUE DUP1 ISZERO PUSH2 0x25A JUMPI PUSH0 DUP1 REVERT JUMPDEST POP PUSH2 0x263 PUSH2 0x1114 JUMP JUMPDEST PUSH1 0x40 MLOAD PUSH2 0x270 SWAP2 SWAP1 PUSH2 0x29C8 JUMP JUMPDEST PUSH1 0x40 MLOAD DUP1 SWAP2 SUB SWAP1 RETURN JUMPDEST CALLVALUE DUP1 ISZERO PUSH2 0x284 JUMPI PUSH0 DUP1 REVERT JUMPDEST POP PUSH2 0x28D PUSH2 0x111A JUMP JUMPDEST PUSH1 0x40 MLOAD PUSH2 0x29A SWAP2 SWAP1 PUSH2 0x26E9 JUMP JUMPDEST PUSH1 0x40 MLOAD DUP1 SWAP2 SUB SWAP1 RETURN JUMPDEST CALLVALUE DUP1 ISZERO PUSH2 0x2AE JUMPI PUSH0 DUP1 REVERT JUMPDEST POP PUSH2 0x2B7 PUSH2 0x113F JUMP JUMPDEST PUSH1 0x40 MLOAD PUSH2 0x2C4 SWAP2 SWAP1 PUSH2 0x2A01 JUMP JUMPDEST PUSH1 0x40 MLOAD DUP1 SWAP2 SUB SWAP1 RETURN JUMPDEST CALLVALUE DUP1 ISZERO PUSH2 0x2D8 JUMPI PUSH0 DUP1 REVERT JUMPDEST POP PUSH2 0x2E1 PUSH2 0x1164 JUMP JUMPDEST PUSH1 0x40 MLOAD PUSH2 0x2EE SWAP2 SWAP1 PUSH2 0x2A3A JUMP JUMPDEST PUSH1 0x40 MLOAD DUP1 SWAP2 SUB SWAP1 RETURN JUMPDEST PUSH1 0x2 PUSH0 SWAP1 SLOAD SWAP1 PUSH2 0x100 EXP SWAP1 DIV PUSH20 0xFFFFFFFFFFFFFFFFFFFFFFFFFFFFFFFFFFFFFFFF AND PUSH20 0xFFFFFFFFFFFFFFFFFFFFFFFFFFFFFFFFFFFFFFFF AND CALLER PUSH20 0xFFFFFFFFFFFFFFFFFFFFFFFFFFFFFFFFFFFFFFFF AND EQ PUSH2 0x3AB JUMPI CALLER PUSH1 0x2 PUSH0 SWAP1 SLOAD SWAP1 PUSH2 0x100 EXP SWAP1 DIV PUSH20 0xFFFFFFFFFFFFFFFFFFFFFFFFFFFFFFFFFFFFFFFF AND PUSH1 0x40 MLOAD PUSH32 0x1CF993F400000000000000000000000000000000000000000000000000000000 DUP2 MSTORE PUSH1 0x4 ADD PUSH2 0x3A2 SWAP3 SWAP2 SWAP1 PUSH2 0x2A53 JUMP JUMPDEST PUSH1 0x40 MLOAD DUP1 SWAP2 SUB SWAP1 REVERT JUMPDEST PUSH2 0x3B5 DUP3 DUP3 PUSH2 0x1189 JUMP JUMPDEST POP POP JUMP JUMPDEST PUSH1 0x5 PUSH0 SWAP1 SLOAD SWAP1 PUSH2 0x100 EXP SWAP1 DIV PUSH20 0xFFFFFFFFFFFFFFFFFFFFFFFFFFFFFFFFFFFFFFFF AND DUP2 JUMP JUMPDEST PUSH2 0x3E6 PUSH2 0x17E9 JUMP JUMPDEST PUSH0 PUSH2 0x3EF PUSH2 0x1836 JUMP JUMPDEST SWAP1 POP PUSH0 PUSH1 0x7 PUSH0 DUP4 PUSH20 0xFFFFFFFFFFFFFFFFFFFFFFFFFFFFFFFFFFFFFFFF AND PUSH20 0xFFFFFFFFFFFFFFFFFFFFFFFFFFFFFFFFFFFFFFFF AND DUP2 MSTORE PUSH1 0x20 ADD SWAP1 DUP2 MSTORE PUSH1 0x20 ADD PUSH0 KECCAK256 SWAP1 POP PUSH0 DUP2 PUSH1 0x3 ADD SLOAD SUB PUSH2 0x46E JUMPI PUSH1 0x40 MLOAD PUSH32 0x49050B3000000000000000000000000000000000000000000000000000000000 DUP2 MSTORE PUSH1 0x4 ADD PUSH1 0x40 MLOAD DUP1 SWAP2 SUB SWAP1 REVERT JUMPDEST NUMBER PUSH1 0xA PUSH2 0x3E8 DUP4 PUSH1 0x4 ADD PUSH1 0x14 SWAP1 SLOAD SWAP1 PUSH2 0x100 EXP SWAP1 DIV PUSH8 0xFFFFFFFFFFFFFFFF AND PUSH2 0x497 SWAP2 SWAP1 PUSH2 0x2AA7 JUMP JUMPDEST PUSH2 0x4A1 SWAP2 SWAP1 PUSH2 0x2AA7 JUMP JUMPDEST PUSH8 0xFFFFFFFFFFFFFFFF AND GT ISZERO PUSH2 0x521 JUMPI NUMBER PUSH1 0xA PUSH2 0x3E8 DUP4 PUSH1 0x4 ADD PUSH1 0x14 SWAP1 SLOAD SWAP1 PUSH2 0x100 EXP SWAP1 DIV PUSH8 0xFFFFFFFFFFFFFFFF AND PUSH2 0x4DA SWAP2 SWAP1 PUSH2 0x2AA7 JUMP JUMPDEST PUSH2 0x4E4 SWAP2 SWAP1 PUSH2 0x2AA7 JUMP JUMPDEST PUSH1 0x40 MLOAD PUSH32 0xB4AE675A00000000000000000000000000000000000000000000000000000000 DUP2 MSTORE PUSH1 0x4 ADD PUSH2 0x518 SWAP3 SWAP2 SWAP1 PUSH2 0x2B12 JUMP JUMPDEST PUSH1 0x40 MLOAD DUP1 SWAP2 SUB SWAP1 REVERT JUMPDEST PUSH0 DUP2 PUSH1 0x4 ADD PUSH1 0x1C SWAP1 SLOAD SWAP1 PUSH2 0x100 EXP SWAP1 DIV PUSH4 0xFFFFFFFF AND PUSH4 0xFFFFFFFF AND DUP3 PUSH0 ADD SLOAD PUSH2 0x54B SWAP2 SWAP1 PUSH2 0x2B39 JUMP JUMPDEST SWAP1 POP PUSH0 DUP3 PUSH1 0x4 ADD PUSH0 SWAP1 SLOAD SWAP1 PUSH2 0x100 EXP SWAP1 DIV PUSH20 0xFFFFFFFFFFFFFFFFFFFFFFFFFFFFFFFFFFFFFFFF AND SWAP1 POP PUSH1 0x8 PUSH0 DUP5 PUSH1 0x3 ADD SLOAD DUP2 MSTORE PUSH1 0x20 ADD SWAP1 DUP2 MSTORE PUSH1 0x20 ADD PUSH0 KECCAK256 PUSH0 PUSH2 0x100 EXP DUP2 SLOAD SWAP1 PUSH20 0xFFFFFFFFFFFFFFFFFFFFFFFFFFFFFFFFFFFFFFFF MUL NOT AND SWAP1 SSTORE PUSH1 0x7 PUSH0 DUP6 PUSH20 0xFFFFFFFFFFFFFFFFFFFFFFFFFFFFFFFFFFFFFFFF AND PUSH20 0xFFFFFFFFFFFFFFFFFFFFFFFFFFFFFFFFFFFFFFFF AND DUP2 MSTORE PUSH1 0x20 ADD SWAP1 DUP2 MSTORE PUSH1 0x20 ADD PUSH0 KECCAK256 PUSH0 DUP1 DUP3 ADD PUSH0 SWAP1 SSTORE PUSH1 0x1 DUP3 ADD PUSH0 SWAP1 SSTORE PUSH1 0x2 DUP3 ADD PUSH0 SWAP1 SSTORE PUSH1 0x3 DUP3 ADD PUSH0 SWAP1 SSTORE PUSH1 0x4 DUP3 ADD PUSH0 PUSH2 0x100 EXP DUP2 SLOAD SWAP1 PUSH20 0xFFFFFFFFFFFFFFFFFFFFFFFFFFFFFFFFFFFFFFFF MUL NOT AND SWAP1 SSTORE PUSH1 0x4 DUP3 ADD PUSH1 0x14 PUSH2 0x100 EXP DUP2 SLOAD SWAP1 PUSH8 0xFFFFFFFFFFFFFFFF MUL NOT AND SWAP1 SSTORE PUSH1 0x4 DUP3 ADD PUSH1 0x1C PUSH2 0x100 EXP DUP2 SLOAD SWAP1 PUSH4 0xFFFFFFFF MUL NOT AND SWAP1 SSTORE PUSH1 0x5 DUP3 ADD PUSH0 PUSH2 0x100 EXP DUP2 SLOAD SWAP1 PUSH1 0xFF MUL NOT AND SWAP1 SSTORE POP POP PUSH0 PUSH20 0xFFFFFFFFFFFFFFFFFFFFFFFFFFFFFFFFFFFFFFFF AND DUP2 PUSH20 0xFFFFFFFFFFFFFFFFFFFFFFFFFFFFFFFFFFFFFFFF AND SUB PUSH2 0x749 JUMPI PUSH0 DUP5 PUSH20 0xFFFFFFFFFFFFFFFFFFFFFFFFFFFFFFFFFFFFFFFF AND DUP4 PUSH1 0x40 MLOAD PUSH2 0x6C9 SWAP1 PUSH2 0x2BA7 JUMP JUMPDEST PUSH0 PUSH1 0x40 MLOAD DUP1 DUP4 SUB DUP2 DUP6 DUP8 GAS CALL SWAP3 POP POP POP RETURNDATASIZE DUP1 PUSH0 DUP2 EQ PUSH2 0x703 JUMPI PUSH1 0x40 MLOAD SWAP2 POP PUSH1 0x1F NOT PUSH1 0x3F RETURNDATASIZE ADD AND DUP3 ADD PUSH1 0x40 MSTORE RETURNDATASIZE DUP3 MSTORE RETURNDATASIZE PUSH0 PUSH1 0x20 DUP5 ADD RETURNDATACOPY PUSH2 0x708 JUMP JUMPDEST PUSH1 0x60 SWAP2 POP JUMPDEST POP POP SWAP1 POP DUP1 PUSH2 0x743 JUMPI PUSH1 0x40 MLOAD PUSH32 0x90B8EC1800000000000000000000000000000000000000000000000000000000 DUP2 MSTORE PUSH1 0x4 ADD PUSH1 0x40 MLOAD DUP1 SWAP2 SUB SWAP1 REVERT JUMPDEST POP PUSH2 0x775 JUMP JUMPDEST PUSH2 0x774 DUP5 DUP4 DUP4 PUSH20 0xFFFFFFFFFFFFFFFFFFFFFFFFFFFFFFFFFFFFFFFF AND PUSH2 0x186B SWAP1 SWAP3 SWAP2 SWAP1 PUSH4 0xFFFFFFFF AND JUMP JUMPDEST JUMPDEST DUP4 PUSH20 0xFFFFFFFFFFFFFFFFFFFFFFFFFFFFFFFFFFFFFFFF AND PUSH32 0x60F5EC2F86C0CF8AE72815B61B05473A9382C1C34A74749680302B342C04138A DUP4 DUP4 PUSH1 0x40 MLOAD PUSH2 0x7BD SWAP3 SWAP2 SWAP1 PUSH2 0x2BBB JUMP JUMPDEST PUSH1 0x40 MLOAD DUP1 SWAP2 SUB SWAP1 LOG2 POP POP POP POP PUSH2 0x7D1 PUSH2 0x18EA JUMP JUMPDEST JUMP JUMPDEST PUSH1 0x3 PUSH0 SWAP1 SLOAD SWAP1 PUSH2 0x100 EXP SWAP1 DIV PUSH20 0xFFFFFFFFFFFFFFFFFFFFFFFFFFFFFFFFFFFFFFFF AND DUP2 JUMP JUMPDEST PUSH0 PUSH1 0x3 PUSH0 SWAP1 SLOAD SWAP1 PUSH2 0x100 EXP SWAP1 DIV PUSH20 0xFFFFFFFFFFFFFFFFFFFFFFFFFFFFFFFFFFFFFFFF AND PUSH20 0xFFFFFFFFFFFFFFFFFFFFFFFFFFFFFFFFFFFFFFFF AND DUP3 PUSH20 0xFFFFFFFFFFFFFFFFFFFFFFFFFFFFFFFFFFFFFFFF AND EQ SWAP1 POP SWAP2 SWAP1 POP JUMP JUMPDEST PUSH2 0x858 PUSH2 0x17E9 JUMP JUMPDEST PUSH1 0x6 PUSH0 SWAP1 SLOAD SWAP1 PUSH2 0x100 EXP SWAP1 DIV PUSH20 0xFFFFFFFFFFFFFFFFFFFFFFFFFFFFFFFFFFFFFFFF AND PUSH20 0xFFFFFFFFFFFFFFFFFFFFFFFFFFFFFFFFFFFFFFFF AND PUSH4 0x893D20E8 PUSH1 0x40 MLOAD DUP2 PUSH4 0xFFFFFFFF AND PUSH1 0xE0 SHL DUP2 MSTORE PUSH1 0x4 ADD PUSH1 0x20 PUSH1 0x40 MLOAD DUP1 DUP4 SUB DUP2 DUP7 GAS STATICCALL ISZERO DUP1 ISZERO PUSH2 0x8C2 JUMPI RETURNDATASIZE PUSH0 DUP1 RETURNDATACOPY RETURNDATASIZE PUSH0 REVERT JUMPDEST POP POP POP POP PUSH1 0x40 MLOAD RETURNDATASIZE PUSH1 0x1F NOT PUSH1 0x1F DUP3 ADD AND DUP3 ADD DUP1 PUSH1 0x40 MSTORE POP DUP2 ADD SWAP1 PUSH2 0x8E6 SWAP2 SWAP1 PUSH2 0x2BF6 JUMP JUMPDEST PUSH20 0xFFFFFFFFFFFFFFFFFFFFFFFFFFFFFFFFFFFFFFFF AND CALLER PUSH20 0xFFFFFFFFFFFFFFFFFFFFFFFFFFFFFFFFFFFFFFFF AND EQ PUSH2 0x9E4 JUMPI PUSH1 0x6 PUSH0 SWAP1 SLOAD SWAP1 PUSH2 0x100 EXP SWAP1 DIV PUSH20 0xFFFFFFFFFFFFFFFFFFFFFFFFFFFFFFFFFFFFFFFF AND PUSH20 0xFFFFFFFFFFFFFFFFFFFFFFFFFFFFFFFFFFFFFFFF AND PUSH4 0x893D20E8 PUSH1 0x40 MLOAD DUP2 PUSH4 0xFFFFFFFF AND PUSH1 0xE0 SHL DUP2 MSTORE PUSH1 0x4 ADD PUSH1 0x20 PUSH1 0x40 MLOAD DUP1 DUP4 SUB DUP2 DUP7 GAS STATICCALL ISZERO DUP1 ISZERO PUSH2 0x982 JUMPI RETURNDATASIZE PUSH0 DUP1 RETURNDATACOPY RETURNDATASIZE PUSH0 REVERT JUMPDEST POP POP POP POP PUSH1 0x40 MLOAD RETURNDATASIZE PUSH1 0x1F NOT PUSH1 0x1F DUP3 ADD AND DUP3 ADD DUP1 PUSH1 0x40 MSTORE POP DUP2 ADD SWAP1 PUSH2 0x9A6 SWAP2 SWAP1 PUSH2 0x2BF6 JUMP JUMPDEST CALLER PUSH1 0x40 MLOAD PUSH32 0x23295F0E00000000000000000000000000000000000000000000000000000000 DUP2 MSTORE PUSH1 0x4 ADD PUSH2 0x9DB SWAP3 SWAP2 SWAP1 PUSH2 0x2A53 JUMP JUMPDEST PUSH1 0x40 MLOAD DUP1 SWAP2 SUB SWAP1 REVERT JUMPDEST PUSH0 PUSH1 0x1 SLOAD SWAP1 POP PUSH0 PUSH1 0x1 DUP2 SWAP1 SSTORE POP PUSH0 DUP3 PUSH20 0xFFFFFFFFFFFFFFFFFFFFFFFFFFFFFFFFFFFFFFFF AND DUP3 PUSH1 0x40 MLOAD PUSH2 0xA16 SWAP1 PUSH2 0x2BA7 JUMP JUMPDEST PUSH0 PUSH1 0x40 MLOAD DUP1 DUP4 SUB DUP2 DUP6 DUP8 GAS CALL SWAP3 POP POP POP RETURNDATASIZE DUP1 PUSH0 DUP2 EQ PUSH2 0xA50 JUMPI PUSH1 0x40 MLOAD SWAP2 POP PUSH1 0x1F NOT PUSH1 0x3F RETURNDATASIZE ADD AND DUP3 ADD PUSH1 0x40 MSTORE RETURNDATASIZE DUP3 MSTORE RETURNDATASIZE PUSH0 PUSH1 0x20 DUP5 ADD RETURNDATACOPY PUSH2 0xA55 JUMP JUMPDEST PUSH1 0x60 SWAP2 POP JUMPDEST POP POP SWAP1 POP DUP1 PUSH2 0xA90 JUMPI PUSH1 0x40 MLOAD PUSH32 0x90B8EC1800000000000000000000000000000000000000000000000000000000 DUP2 MSTORE PUSH1 0x4 ADD PUSH1 0x40 MLOAD DUP1 SWAP2 SUB SWAP1 REVERT JUMPDEST POP POP PUSH2 0xA9A PUSH2 0x18EA JUMP JUMPDEST POP JUMP JUMPDEST PUSH2 0xAA5 PUSH2 0x17E9 JUMP JUMPDEST PUSH0 PUSH2 0xAAE PUSH2 0x1836 JUMP JUMPDEST SWAP1 POP PUSH0 PUSH1 0x7 PUSH0 DUP4 PUSH20 0xFFFFFFFFFFFFFFFFFFFFFFFFFFFFFFFFFFFFFFFF AND PUSH20 0xFFFFFFFFFFFFFFFFFFFFFFFFFFFFFFFFFFFFFFFF AND DUP2 MSTORE PUSH1 0x20 ADD SWAP1 DUP2 MSTORE PUSH1 0x20 ADD PUSH0 KECCAK256 PUSH1 0x3 ADD SLOAD EQ PUSH2 0xB74 JUMPI PUSH1 0x7 PUSH0 DUP3 PUSH20 0xFFFFFFFFFFFFFFFFFFFFFFFFFFFFFFFFFFFFFFFF AND PUSH20 0xFFFFFFFFFFFFFFFFFFFFFFFFFFFFFFFFFFFFFFFF AND DUP2 MSTORE PUSH1 0x20 ADD SWAP1 DUP2 MSTORE PUSH1 0x20 ADD PUSH0 KECCAK256 PUSH1 0x3 ADD SLOAD PUSH1 0x40 MLOAD PUSH32 0x440DB96E00000000000000000000000000000000000000000000000000000000 DUP2 MSTORE PUSH1 0x4 ADD PUSH2 0xB6B SWAP2 SWAP1 PUSH2 0x29C8 JUMP JUMPDEST PUSH1 0x40 MLOAD DUP1 SWAP2 SUB SWAP1 REVERT JUMPDEST PUSH0 DUP5 PUSH4 0xFFFFFFFF AND GT DUP1 ISZERO PUSH2 0xB90 JUMPI POP PUSH1 0x64 DUP5 PUSH4 0xFFFFFFFF AND GT ISZERO JUMPDEST PUSH2 0xBD2 JUMPI PUSH1 0x64 PUSH1 0x40 MLOAD PUSH32 0x9310749100000000000000000000000000000000000000000000000000000000 DUP2 MSTORE PUSH1 0x4 ADD PUSH2 0xBC9 SWAP2 SWAP1 PUSH2 0x2C5A JUMP JUMPDEST PUSH1 0x40 MLOAD DUP1 SWAP2 SUB SWAP1 REVERT JUMPDEST PUSH2 0xBDC DUP8 DUP8 PUSH2 0x18F3 JUMP JUMPDEST PUSH0 PUSH2 0xBFD DUP8 DUP7 PUSH4 0xFFFFFFFF AND DUP11 PUSH2 0xBF3 SWAP2 SWAP1 PUSH2 0x2B39 JUMP JUMPDEST PUSH3 0xF4240 DUP6 PUSH2 0x1A71 JUMP JUMPDEST SWAP1 POP PUSH0 PUSH2 0xC09 DUP7 PUSH2 0x1DC7 JUMP JUMPDEST SWAP1 POP PUSH1 0x40 MLOAD DUP1 PUSH2 0x100 ADD PUSH1 0x40 MSTORE DUP1 DUP11 DUP2 MSTORE PUSH1 0x20 ADD DUP7 DUP2 MSTORE PUSH1 0x20 ADD DUP6 DUP2 MSTORE PUSH1 0x20 ADD DUP3 DUP2 MSTORE PUSH1 0x20 ADD DUP10 PUSH20 0xFFFFFFFFFFFFFFFFFFFFFFFFFFFFFFFFFFFFFFFF AND DUP2 MSTORE PUSH1 0x20 ADD NUMBER PUSH8 0xFFFFFFFFFFFFFFFF AND DUP2 MSTORE PUSH1 0x20 ADD DUP8 PUSH4 0xFFFFFFFF AND DUP2 MSTORE PUSH1 0x20 ADD DUP9 ISZERO ISZERO DUP2 MSTORE POP PUSH1 0x7 PUSH0 DUP6 PUSH20 0xFFFFFFFFFFFFFFFFFFFFFFFFFFFFFFFFFFFFFFFF AND PUSH20 0xFFFFFFFFFFFFFFFFFFFFFFFFFFFFFFFFFFFFFFFF AND DUP2 MSTORE PUSH1 0x20 ADD SWAP1 DUP2 MSTORE PUSH1 0x20 ADD PUSH0 KECCAK256 PUSH0 DUP3 ADD MLOAD DUP2 PUSH0 ADD SSTORE PUSH1 0x20 DUP3 ADD MLOAD DUP2 PUSH1 0x1 ADD SSTORE PUSH1 0x40 DUP3 ADD MLOAD DUP2 PUSH1 0x2 ADD SSTORE PUSH1 0x60 DUP3 ADD MLOAD DUP2 PUSH1 0x3 ADD SSTORE PUSH1 0x80 DUP3 ADD MLOAD DUP2 PUSH1 0x4 ADD PUSH0 PUSH2 0x100 EXP DUP2 SLOAD DUP2 PUSH20 0xFFFFFFFFFFFFFFFFFFFFFFFFFFFFFFFFFFFFFFFF MUL NOT AND SWAP1 DUP4 PUSH20 0xFFFFFFFFFFFFFFFFFFFFFFFFFFFFFFFFFFFFFFFF AND MUL OR SWAP1 SSTORE POP PUSH1 0xA0 DUP3 ADD MLOAD DUP2 PUSH1 0x4 ADD PUSH1 0x14 PUSH2 0x100 EXP DUP2 SLOAD DUP2 PUSH8 0xFFFFFFFFFFFFFFFF MUL NOT AND SWAP1 DUP4 PUSH8 0xFFFFFFFFFFFFFFFF AND MUL OR SWAP1 SSTORE POP PUSH1 0xC0 DUP3 ADD MLOAD DUP2 PUSH1 0x4 ADD PUSH1 0x1C PUSH2 0x100 EXP DUP2 SLOAD DUP2 PUSH4 0xFFFFFFFF MUL NOT AND SWAP1 DUP4 PUSH4 0xFFFFFFFF AND MUL OR SWAP1 SSTORE POP PUSH1 0xE0 DUP3 ADD MLOAD DUP2 PUSH1 0x5 ADD PUSH0 PUSH2 0x100 EXP DUP2 SLOAD DUP2 PUSH1 0xFF MUL NOT AND SWAP1 DUP4 ISZERO ISZERO MUL OR SWAP1 SSTORE POP SWAP1 POP POP DUP3 PUSH1 0x8 PUSH0 DUP4 DUP2 MSTORE PUSH1 0x20 ADD SWAP1 DUP2 MSTORE PUSH1 0x20 ADD PUSH0 KECCAK256 PUSH0 PUSH2 0x100 EXP DUP2 SLOAD DUP2 PUSH20 0xFFFFFFFFFFFFFFFFFFFFFFFFFFFFFFFFFFFFFFFF MUL NOT AND SWAP1 DUP4 PUSH20 0xFFFFFFFFFFFFFFFFFFFFFFFFFFFFFFFFFFFFFFFF AND MUL OR SWAP1 SSTORE POP DUP3 PUSH20 0xFFFFFFFFFFFFFFFFFFFFFFFFFFFFFFFFFFFFFFFF AND PUSH32 0x9802308245DC39EC39C453355C93A84C961F728DB54B5ADEAAD1CD29AA6F3F73 DUP11 DUP11 DUP11 DUP11 DUP11 DUP11 DUP10 PUSH1 0x40 MLOAD PUSH2 0xE2F SWAP8 SWAP7 SWAP6 SWAP5 SWAP4 SWAP3 SWAP2 SWAP1 PUSH2 0x2C82 JUMP JUMPDEST PUSH1 0x40 MLOAD DUP1 SWAP2 SUB SWAP1 LOG2 POP POP POP PUSH2 0xE42 PUSH2 0x18EA JUMP JUMPDEST POP POP POP POP POP POP JUMP JUMPDEST PUSH2 0xE52 PUSH2 0x23E3 JUMP JUMPDEST PUSH1 0x7 PUSH0 DUP4 PUSH20 0xFFFFFFFFFFFFFFFFFFFFFFFFFFFFFFFFFFFFFFFF AND PUSH20 0xFFFFFFFFFFFFFFFFFFFFFFFFFFFFFFFFFFFFFFFF AND DUP2 MSTORE PUSH1 0x20 ADD SWAP1 DUP2 MSTORE PUSH1 0x20 ADD PUSH0 KECCAK256 PUSH1 0x40 MLOAD DUP1 PUSH2 0x100 ADD PUSH1 0x40 MSTORE SWAP1 DUP2 PUSH0 DUP3 ADD SLOAD DUP2 MSTORE PUSH1 0x20 ADD PUSH1 0x1 DUP3 ADD SLOAD DUP2 MSTORE PUSH1 0x20 ADD PUSH1 0x2 DUP3 ADD SLOAD DUP2 MSTORE PUSH1 0x20 ADD PUSH1 0x3 DUP3 ADD SLOAD DUP2 MSTORE PUSH1 0x20 ADD PUSH1 0x4 DUP3 ADD PUSH0 SWAP1 SLOAD SWAP1 PUSH2 0x100 EXP SWAP1 DIV PUSH20 0xFFFFFFFFFFFFFFFFFFFFFFFFFFFFFFFFFFFFFFFF AND PUSH20 0xFFFFFFFFFFFFFFFFFFFFFFFFFFFFFFFFFFFFFFFF AND PUSH20 0xFFFFFFFFFFFFFFFFFFFFFFFFFFFFFFFFFFFFFFFF AND DUP2 MSTORE PUSH1 0x20 ADD PUSH1 0x4 DUP3 ADD PUSH1 0x14 SWAP1 SLOAD SWAP1 PUSH2 0x100 EXP SWAP1 DIV PUSH8 0xFFFFFFFFFFFFFFFF AND PUSH8 0xFFFFFFFFFFFFFFFF AND PUSH8 0xFFFFFFFFFFFFFFFF AND DUP2 MSTORE PUSH1 0x20 ADD PUSH1 0x4 DUP3 ADD PUSH1 0x1C SWAP1 SLOAD SWAP1 PUSH2 0x100 EXP SWAP1 DIV PUSH4 0xFFFFFFFF AND PUSH4 0xFFFFFFFF AND PUSH4 0xFFFFFFFF AND DUP2 MSTORE PUSH1 0x20 ADD PUSH1 0x5 DUP3 ADD PUSH0 SWAP1 SLOAD SWAP1 PUSH2 0x100 EXP SWAP1 DIV PUSH1 0xFF AND ISZERO ISZERO ISZERO ISZERO DUP2 MSTORE POP POP SWAP1 POP SWAP2 SWAP1 POP JUMP JUMPDEST PUSH0 DUP1 PUSH1 0x4 PUSH0 SWAP1 SLOAD SWAP1 PUSH2 0x100 EXP SWAP1 DIV PUSH20 0xFFFFFFFFFFFFFFFFFFFFFFFFFFFFFFFFFFFFFFFF AND PUSH20 0xFFFFFFFFFFFFFFFFFFFFFFFFFFFFFFFFFFFFFFFF AND PUSH4 0xFEAF968C PUSH1 0x40 MLOAD DUP2 PUSH4 0xFFFFFFFF AND PUSH1 0xE0 SHL DUP2 MSTORE PUSH1 0x4 ADD PUSH1 0xA0 PUSH1 0x40 MLOAD DUP1 DUP4 SUB DUP2 DUP7 GAS STATICCALL ISZERO DUP1 ISZERO PUSH2 0xFFC JUMPI RETURNDATASIZE PUSH0 DUP1 RETURNDATACOPY RETURNDATASIZE PUSH0 REVERT JUMPDEST POP POP POP POP PUSH1 0x40 MLOAD RETURNDATASIZE PUSH1 0x1F NOT PUSH1 0x1F DUP3 ADD AND DUP3 ADD DUP1 PUSH1 0x40 MSTORE POP DUP2 ADD SWAP1 PUSH2 0x1020 SWAP2 SWAP1 PUSH2 0x2D75 JUMP JUMPDEST POP POP POP SWAP2 POP POP PUSH0 PUSH1 0x5 PUSH0 SWAP1 SLOAD SWAP1 PUSH2 0x100 EXP SWAP1 DIV PUSH20 0xFFFFFFFFFFFFFFFFFFFFFFFFFFFFFFFFFFFFFFFF AND PUSH20 0xFFFFFFFFFFFFFFFFFFFFFFFFFFFFFFFFFFFFFFFF AND PUSH4 0x5FBBC0D2 PUSH1 0x40 MLOAD DUP2 PUSH4 0xFFFFFFFF AND PUSH1 0xE0 SHL DUP2 MSTORE PUSH1 0x4 ADD PUSH2 0x120 PUSH1 0x40 MLOAD DUP1 DUP4 SUB DUP2 DUP7 GAS STATICCALL ISZERO DUP1 ISZERO PUSH2 0x1092 JUMPI RETURNDATASIZE PUSH0 DUP1 RETURNDATACOPY RETURNDATASIZE PUSH0 REVERT JUMPDEST POP POP POP POP PUSH1 0x40 MLOAD RETURNDATASIZE PUSH1 0x1F NOT PUSH1 0x1F DUP3 ADD AND DUP3 ADD DUP1 PUSH1 0x40 MSTORE POP DUP2 ADD SWAP1 PUSH2 0x10B6 SWAP2 SWAP1 PUSH2 0x2E38 JUMP JUMPDEST POP POP POP POP POP POP POP POP SWAP1 POP PUSH8 0xDE0B6B3A7640000 DUP3 DUP3 PUSH4 0xFFFFFFFF AND PUSH5 0xE8D4A51000 PUSH2 0x10E1 SWAP2 SWAP1 PUSH2 0x2B39 JUMP JUMPDEST PUSH2 0x10EB SWAP2 SWAP1 PUSH2 0x2B39 JUMP JUMPDEST PUSH2 0x10F5 SWAP2 SWAP1 PUSH2 0x2F29 JUMP JUMPDEST DUP5 GASPRICE PUSH2 0x1101 SWAP2 SWAP1 PUSH2 0x2B39 JUMP JUMPDEST PUSH2 0x110B SWAP2 SWAP1 PUSH2 0x2F59 JUMP JUMPDEST SWAP3 POP POP POP SWAP2 SWAP1 POP JUMP JUMPDEST PUSH1 0x1 SLOAD DUP2 JUMP JUMPDEST PUSH1 0x2 PUSH0 SWAP1 SLOAD SWAP1 PUSH2 0x100 EXP SWAP1 DIV PUSH20 0xFFFFFFFFFFFFFFFFFFFFFFFFFFFFFFFFFFFFFFFF AND DUP2 JUMP JUMPDEST PUSH1 0x4 PUSH0 SWAP1 SLOAD SWAP1 PUSH2 0x100 EXP SWAP1 DIV PUSH20 0xFFFFFFFFFFFFFFFFFFFFFFFFFFFFFFFFFFFFFFFF AND DUP2 JUMP JUMPDEST PUSH1 0x6 PUSH0 SWAP1 SLOAD SWAP1 PUSH2 0x100 EXP SWAP1 DIV PUSH20 0xFFFFFFFFFFFFFFFFFFFFFFFFFFFFFFFFFFFFFFFF AND DUP2 JUMP JUMPDEST PUSH0 PUSH1 0x8 PUSH0 DUP5 DUP2 MSTORE PUSH1 0x20 ADD SWAP1 DUP2 MSTORE PUSH1 0x20 ADD PUSH0 KECCAK256 PUSH0 SWAP1 SLOAD SWAP1 PUSH2 0x100 EXP SWAP1 DIV PUSH20 0xFFFFFFFFFFFFFFFFFFFFFFFFFFFFFFFFFFFFFFFF AND SWAP1 POP PUSH0 PUSH20 0xFFFFFFFFFFFFFFFFFFFFFFFFFFFFFFFFFFFFFFFF AND DUP2 PUSH20 0xFFFFFFFFFFFFFFFFFFFFFFFFFFFFFFFFFFFFFFFF AND SUB PUSH2 0x11F4 JUMPI PUSH0 DUP1 REVERT JUMPDEST PUSH0 PUSH1 0x7 PUSH0 DUP4 PUSH20 0xFFFFFFFFFFFFFFFFFFFFFFFFFFFFFFFFFFFFFFFF AND PUSH20 0xFFFFFFFFFFFFFFFFFFFFFFFFFFFFFFFFFFFFFFFF AND DUP2 MSTORE PUSH1 0x20 ADD SWAP1 DUP2 MSTORE PUSH1 0x20 ADD PUSH0 KECCAK256 SWAP1 POP PUSH2 0x3E8 DUP2 PUSH1 0x4 ADD PUSH1 0x14 SWAP1 SLOAD SWAP1 PUSH2 0x100 EXP SWAP1 DIV PUSH8 0xFFFFFFFFFFFFFFFF AND PUSH2 0x125A SWAP2 SWAP1 PUSH2 0x2AA7 JUMP JUMPDEST PUSH8 0xFFFFFFFFFFFFFFFF AND NUMBER GT ISZERO PUSH2 0x126F JUMPI PUSH0 DUP1 REVERT JUMPDEST PUSH0 DUP1 PUSH0 DUP1 DUP5 PUSH1 0x4 ADD PUSH1 0x1C SWAP1 SLOAD SWAP1 PUSH2 0x100 EXP SWAP1 DIV PUSH4 0xFFFFFFFF AND PUSH4 0xFFFFFFFF AND PUSH8 0xFFFFFFFFFFFFFFFF DUP2 GT ISZERO PUSH2 0x12A7 JUMPI PUSH2 0x12A6 PUSH2 0x24A0 JUMP JUMPDEST JUMPDEST PUSH1 0x40 MLOAD SWAP1 DUP1 DUP3 MSTORE DUP1 PUSH1 0x20 MUL PUSH1 0x20 ADD DUP3 ADD PUSH1 0x40 MSTORE DUP1 ISZERO PUSH2 0x12D5 JUMPI DUP2 PUSH1 0x20 ADD PUSH1 0x20 DUP3 MUL DUP1 CALLDATASIZE DUP4 CALLDATACOPY DUP1 DUP3 ADD SWAP2 POP POP SWAP1 POP JUMPDEST POP SWAP1 POP PUSH0 DUP6 PUSH1 0x4 ADD PUSH1 0x1C SWAP1 SLOAD SWAP1 PUSH2 0x100 EXP SWAP1 DIV PUSH4 0xFFFFFFFF AND PUSH4 0xFFFFFFFF AND PUSH8 0xFFFFFFFFFFFFFFFF DUP2 GT ISZERO PUSH2 0x130D JUMPI PUSH2 0x130C PUSH2 0x24A0 JUMP JUMPDEST JUMPDEST PUSH1 0x40 MLOAD SWAP1 DUP1 DUP3 MSTORE DUP1 PUSH1 0x20 MUL PUSH1 0x20 ADD DUP3 ADD PUSH1 0x40 MSTORE DUP1 ISZERO PUSH2 0x133B JUMPI DUP2 PUSH1 0x20 ADD PUSH1 0x20 DUP3 MUL DUP1 CALLDATASIZE DUP4 CALLDATACOPY DUP1 DUP3 ADD SWAP2 POP POP SWAP1 POP JUMPDEST POP SWAP1 POP PUSH0 DUP7 PUSH1 0x4 ADD PUSH0 SWAP1 SLOAD SWAP1 PUSH2 0x100 EXP SWAP1 DIV PUSH20 0xFFFFFFFFFFFFFFFFFFFFFFFFFFFFFFFFFFFFFFFF AND SWAP1 POP PUSH0 SWAP4 POP JUMPDEST DUP7 PUSH1 0x4 ADD PUSH1 0x1C SWAP1 SLOAD SWAP1 PUSH2 0x100 EXP SWAP1 DIV PUSH4 0xFFFFFFFF AND PUSH4 0xFFFFFFFF AND DUP5 PUSH4 0xFFFFFFFF AND LT ISZERO PUSH2 0x1603 JUMPI DUP7 PUSH1 0x1 ADD SLOAD DUP7 SLT ISZERO PUSH2 0x1603 JUMPI DUP7 PUSH1 0x2 ADD SLOAD PUSH2 0x13AB SWAP1 PUSH2 0x2F8C JUMP JUMPDEST DUP7 SGT ISZERO PUSH2 0x1603 JUMPI PUSH1 0x2 DUP10 DUP6 PUSH4 0xFFFFFFFF AND DUP2 MLOAD DUP2 LT PUSH2 0x13CD JUMPI PUSH2 0x13CC PUSH2 0x2FD2 JUMP JUMPDEST JUMPDEST PUSH1 0x20 MUL PUSH1 0x20 ADD ADD MLOAD PUSH2 0x13DF SWAP2 SWAP1 PUSH2 0x2FFF JUMP JUMPDEST DUP4 DUP6 PUSH4 0xFFFFFFFF AND DUP2 MLOAD DUP2 LT PUSH2 0x13F8 JUMPI PUSH2 0x13F7 PUSH2 0x2FD2 JUMP JUMPDEST JUMPDEST PUSH1 0x20 MUL PUSH1 0x20 ADD ADD SWAP1 PUSH1 0xFF AND SWAP1 DUP2 PUSH1 0xFF AND DUP2 MSTORE POP POP PUSH1 0x1 DUP4 DUP6 PUSH4 0xFFFFFFFF AND DUP2 MLOAD DUP2 LT PUSH2 0x1427 JUMPI PUSH2 0x1426 PUSH2 0x2FD2 JUMP JUMPDEST JUMPDEST PUSH1 0x20 MUL PUSH1 0x20 ADD ADD MLOAD PUSH1 0xFF AND EQ DUP1 ISZERO PUSH2 0x1453 JUMPI POP PUSH1 0x1 ISZERO ISZERO DUP8 PUSH1 0x5 ADD PUSH0 SWAP1 SLOAD SWAP1 PUSH2 0x100 EXP SWAP1 DIV PUSH1 0xFF AND ISZERO ISZERO EQ JUMPDEST ISZERO PUSH2 0x14F6 JUMPI PUSH2 0x2710 PUSH2 0x2648 DUP9 PUSH0 ADD SLOAD PUSH2 0x146C SWAP2 SWAP1 PUSH2 0x2B39 JUMP JUMPDEST PUSH2 0x1476 SWAP2 SWAP1 PUSH2 0x2F29 JUMP JUMPDEST DUP7 PUSH2 0x1481 SWAP2 SWAP1 PUSH2 0x302F JUMP JUMPDEST SWAP6 POP PUSH2 0x2710 PUSH2 0x4D58 DUP9 PUSH0 ADD SLOAD PUSH2 0x1497 SWAP2 SWAP1 PUSH2 0x2B39 JUMP JUMPDEST PUSH2 0x14A1 SWAP2 SWAP1 PUSH2 0x2F29 JUMP JUMPDEST DUP6 PUSH2 0x14AC SWAP2 SWAP1 PUSH2 0x2F59 JUMP JUMPDEST SWAP5 POP PUSH2 0x2710 PUSH2 0x4D58 DUP9 PUSH0 ADD SLOAD PUSH2 0x14C2 SWAP2 SWAP1 PUSH2 0x2B39 JUMP JUMPDEST PUSH2 0x14CC SWAP2 SWAP1 PUSH2 0x2F29 JUMP JUMPDEST DUP3 DUP6 PUSH4 0xFFFFFFFF AND DUP2 MLOAD DUP2 LT PUSH2 0x14E5 JUMPI PUSH2 0x14E4 PUSH2 0x2FD2 JUMP JUMPDEST JUMPDEST PUSH1 0x20 MUL PUSH1 0x20 ADD ADD DUP2 DUP2 MSTORE POP POP PUSH2 0x15F0 JUMP JUMPDEST PUSH0 DUP4 DUP6 PUSH4 0xFFFFFFFF AND DUP2 MLOAD DUP2 LT PUSH2 0x1510 JUMPI PUSH2 0x150F PUSH2 0x2FD2 JUMP JUMPDEST JUMPDEST PUSH1 0x20 MUL PUSH1 0x20 ADD ADD MLOAD PUSH1 0xFF AND EQ DUP1 ISZERO PUSH2 0x153B JUMPI POP PUSH0 ISZERO ISZERO DUP8 PUSH1 0x5 ADD PUSH0 SWAP1 SLOAD SWAP1 PUSH2 0x100 EXP SWAP1 DIV PUSH1 0xFF AND ISZERO ISZERO EQ JUMPDEST ISZERO PUSH2 0x15DE JUMPI PUSH2 0x2710 PUSH2 0x2648 DUP9 PUSH0 ADD SLOAD PUSH2 0x1554 SWAP2 SWAP1 PUSH2 0x2B39 JUMP JUMPDEST PUSH2 0x155E SWAP2 SWAP1 PUSH2 0x2F29 JUMP JUMPDEST DUP7 PUSH2 0x1569 SWAP2 SWAP1 PUSH2 0x302F JUMP JUMPDEST SWAP6 POP PUSH2 0x2710 PUSH2 0x4D58 DUP9 PUSH0 ADD SLOAD PUSH2 0x157F SWAP2 SWAP1 PUSH2 0x2B39 JUMP JUMPDEST PUSH2 0x1589 SWAP2 SWAP1 PUSH2 0x2F29 JUMP JUMPDEST DUP6 PUSH2 0x1594 SWAP2 SWAP1 PUSH2 0x2F59 JUMP JUMPDEST SWAP5 POP PUSH2 0x2710 PUSH2 0x4D58 DUP9 PUSH0 ADD SLOAD PUSH2 0x15AA SWAP2 SWAP1 PUSH2 0x2B39 JUMP JUMPDEST PUSH2 0x15B4 SWAP2 SWAP1 PUSH2 0x2F29 JUMP JUMPDEST DUP3 DUP6 PUSH4 0xFFFFFFFF AND DUP2 MLOAD DUP2 LT PUSH2 0x15CD JUMPI PUSH2 0x15CC PUSH2 0x2FD2 JUMP JUMPDEST JUMPDEST PUSH1 0x20 MUL PUSH1 0x20 ADD ADD DUP2 DUP2 MSTORE POP POP PUSH2 0x15F0 JUMP JUMPDEST DUP7 PUSH0 ADD SLOAD DUP7 PUSH2 0x15ED SWAP2 SWAP1 PUSH2 0x3070 JUMP JUMPDEST SWAP6 POP JUMPDEST DUP4 DUP1 PUSH2 0x15FB SWAP1 PUSH2 0x30B0 JUMP JUMPDEST SWAP5 POP POP PUSH2 0x1369 JUMP JUMPDEST DUP7 PUSH0 ADD SLOAD DUP5 DUP9 PUSH1 0x4 ADD PUSH1 0x1C SWAP1 SLOAD SWAP1 PUSH2 0x100 EXP SWAP1 DIV PUSH4 0xFFFFFFFF AND PUSH2 0x1627 SWAP2 SWAP1 PUSH2 0x30DB JUMP JUMPDEST PUSH4 0xFFFFFFFF AND PUSH2 0x1637 SWAP2 SWAP1 PUSH2 0x2B39 JUMP JUMPDEST DUP6 PUSH2 0x1642 SWAP2 SWAP1 PUSH2 0x2F59 JUMP JUMPDEST SWAP5 POP DUP8 PUSH20 0xFFFFFFFFFFFFFFFFFFFFFFFFFFFFFFFFFFFFFFFF AND PUSH32 0x63BA2C91A70F945B84C24531B0DE813D66F430987169CB7D878431C04CB0004 DUP9 PUSH0 ADD SLOAD DUP8 DUP5 DUP8 DUP8 DUP11 PUSH1 0x40 MLOAD PUSH2 0x1697 SWAP7 SWAP6 SWAP5 SWAP4 SWAP3 SWAP2 SWAP1 PUSH2 0x327D JUMP JUMPDEST PUSH1 0x40 MLOAD DUP1 SWAP2 SUB SWAP1 LOG2 PUSH2 0x16D1 DUP2 DUP9 PUSH1 0x4 ADD PUSH1 0x1C SWAP1 SLOAD SWAP1 PUSH2 0x100 EXP SWAP1 DIV PUSH4 0xFFFFFFFF AND PUSH4 0xFFFFFFFF AND DUP10 PUSH0 ADD SLOAD PUSH2 0x16CC SWAP2 SWAP1 PUSH2 0x2B39 JUMP JUMPDEST PUSH2 0x1E97 JUMP JUMPDEST PUSH1 0x8 PUSH0 DUP12 DUP2 MSTORE PUSH1 0x20 ADD SWAP1 DUP2 MSTORE PUSH1 0x20 ADD PUSH0 KECCAK256 PUSH0 PUSH2 0x100 EXP DUP2 SLOAD SWAP1 PUSH20 0xFFFFFFFFFFFFFFFFFFFFFFFFFFFFFFFFFFFFFFFF MUL NOT AND SWAP1 SSTORE PUSH1 0x7 PUSH0 DUP10 PUSH20 0xFFFFFFFFFFFFFFFFFFFFFFFFFFFFFFFFFFFFFFFF AND PUSH20 0xFFFFFFFFFFFFFFFFFFFFFFFFFFFFFFFFFFFFFFFF AND DUP2 MSTORE PUSH1 0x20 ADD SWAP1 DUP2 MSTORE PUSH1 0x20 ADD PUSH0 KECCAK256 PUSH0 DUP1 DUP3 ADD PUSH0 SWAP1 SSTORE PUSH1 0x1 DUP3 ADD PUSH0 SWAP1 SSTORE PUSH1 0x2 DUP3 ADD PUSH0 SWAP1 SSTORE PUSH1 0x3 DUP3 ADD PUSH0 SWAP1 SSTORE PUSH1 0x4 DUP3 ADD PUSH0 PUSH2 0x100 EXP DUP2 SLOAD SWAP1 PUSH20 0xFFFFFFFFFFFFFFFFFFFFFFFFFFFFFFFFFFFFFFFF MUL NOT AND SWAP1 SSTORE PUSH1 0x4 DUP3 ADD PUSH1 0x14 PUSH2 0x100 EXP DUP2 SLOAD SWAP1 PUSH8 0xFFFFFFFFFFFFFFFF MUL NOT AND SWAP1 SSTORE PUSH1 0x4 DUP3 ADD PUSH1 0x1C PUSH2 0x100 EXP DUP2 SLOAD SWAP1 PUSH4 0xFFFFFFFF MUL NOT AND SWAP1 SSTORE PUSH1 0x5 DUP3 ADD PUSH0 PUSH2 0x100 EXP DUP2 SLOAD SWAP1 PUSH1 0xFF MUL NOT AND SWAP1 SSTORE POP POP PUSH0 DUP6 EQ PUSH2 0x17DD JUMPI PUSH2 0x17DC DUP9 DUP7 DUP4 PUSH2 0x1FE1 JUMP JUMPDEST JUMPDEST POP POP POP POP POP POP POP POP POP POP JUMP JUMPDEST PUSH1 0x2 PUSH0 SLOAD SUB PUSH2 0x182D JUMPI PUSH1 0x40 MLOAD PUSH32 0x8C379A000000000000000000000000000000000000000000000000000000000 DUP2 MSTORE PUSH1 0x4 ADD PUSH2 0x1824 SWAP1 PUSH2 0x3344 JUMP JUMPDEST PUSH1 0x40 MLOAD DUP1 SWAP2 SUB SWAP1 REVERT JUMPDEST PUSH1 0x2 PUSH0 DUP2 SWAP1 SSTORE POP JUMP JUMPDEST PUSH0 PUSH1 0x14 PUSH0 CALLDATASIZE SWAP1 POP LT ISZERO DUP1 ISZERO PUSH2 0x1850 JUMPI POP PUSH2 0x184F CALLER PUSH2 0x7F8 JUMP JUMPDEST JUMPDEST ISZERO PUSH2 0x1864 JUMPI PUSH1 0x14 CALLDATASIZE SUB CALLDATALOAD PUSH1 0x60 SHR SWAP1 POP PUSH2 0x1868 JUMP JUMPDEST CALLER SWAP1 POP JUMPDEST SWAP1 JUMP JUMPDEST PUSH2 0x18E5 DUP4 DUP5 PUSH20 0xFFFFFFFFFFFFFFFFFFFFFFFFFFFFFFFFFFFFFFFF AND PUSH4 0xA9059CBB DUP6 DUP6 PUSH1 0x40 MLOAD PUSH1 0x24 ADD PUSH2 0x189E SWAP3 SWAP2 SWAP1 PUSH2 0x3362 JUMP JUMPDEST PUSH1 0x40 MLOAD PUSH1 0x20 DUP2 DUP4 SUB SUB DUP2 MSTORE SWAP1 PUSH1 0x40 MSTORE SWAP2 POP PUSH1 0xE0 SHL PUSH1 0x20 DUP3 ADD DUP1 MLOAD PUSH28 0xFFFFFFFFFFFFFFFFFFFFFFFFFFFFFFFFFFFFFFFFFFFFFFFFFFFFFFFF DUP4 DUP2 DUP4 AND OR DUP4 MSTORE POP POP POP POP PUSH2 0x2071 JUMP JUMPDEST POP POP POP JUMP JUMPDEST PUSH1 0x1 PUSH0 DUP2 SWAP1 SSTORE POP JUMP JUMPDEST PUSH0 DUP1 PUSH20 0xFFFFFFFFFFFFFFFFFFFFFFFFFFFFFFFFFFFFFFFF AND DUP3 PUSH20 0xFFFFFFFFFFFFFFFFFFFFFFFFFFFFFFFFFFFFFFFF AND SUB PUSH2 0x1967 JUMPI PUSH1 0x6 PUSH0 SWAP1 SLOAD SWAP1 PUSH2 0x100 EXP SWAP1 DIV PUSH20 0xFFFFFFFFFFFFFFFFFFFFFFFFFFFFFFFFFFFFFFFF AND PUSH20 0xFFFFFFFFFFFFFFFFFFFFFFFFFFFFFFFFFFFFFFFF AND BALANCE SWAP1 POP PUSH2 0x1A03 JUMP JUMPDEST DUP2 PUSH20 0xFFFFFFFFFFFFFFFFFFFFFFFFFFFFFFFFFFFFFFFF AND PUSH4 0x70A08231 PUSH1 0x6 PUSH0 SWAP1 SLOAD SWAP1 PUSH2 0x100 EXP SWAP1 DIV PUSH20 0xFFFFFFFFFFFFFFFFFFFFFFFFFFFFFFFFFFFFFFFF AND PUSH1 0x40 MLOAD DUP3 PUSH4 0xFFFFFFFF AND PUSH1 0xE0 SHL DUP2 MSTORE PUSH1 0x4 ADD PUSH2 0x19C1 SWAP2 SWAP1 PUSH2 0x26E9 JUMP JUMPDEST PUSH1 0x20 PUSH1 0x40 MLOAD DUP1 DUP4 SUB DUP2 DUP7 GAS STATICCALL ISZERO DUP1 ISZERO PUSH2 0x19DC JUMPI RETURNDATASIZE PUSH0 DUP1 RETURNDATACOPY RETURNDATASIZE PUSH0 REVERT JUMPDEST POP POP POP POP PUSH1 0x40 MLOAD RETURNDATASIZE PUSH1 0x1F NOT PUSH1 0x1F DUP3 ADD AND DUP3 ADD DUP1 PUSH1 0x40 MSTORE POP DUP2 ADD SWAP1 PUSH2 0x1A00 SWAP2 SWAP1 PUSH2 0x3389 JUMP JUMPDEST SWAP1 POP JUMPDEST PUSH0 PUSH4 0x5F5E100 PUSH3 0x112090 DUP4 PUSH2 0x1A18 SWAP2 SWAP1 PUSH2 0x2B39 JUMP JUMPDEST PUSH2 0x1A22 SWAP2 SWAP1 PUSH2 0x2F29 JUMP JUMPDEST SWAP1 POP DUP1 DUP5 GT ISZERO PUSH2 0x1A6B JUMPI DUP4 DUP2 PUSH1 0x40 MLOAD PUSH32 0xD53662AA00000000000000000000000000000000000000000000000000000000 DUP2 MSTORE PUSH1 0x4 ADD PUSH2 0x1A62 SWAP3 SWAP2 SWAP1 PUSH2 0x33B4 JUMP JUMPDEST PUSH1 0x40 MLOAD DUP1 SWAP2 SUB SWAP1 REVERT JUMPDEST POP POP POP POP JUMP JUMPDEST PUSH0 PUSH1 0x6 PUSH0 SWAP1 SLOAD SWAP1 PUSH2 0x100 EXP SWAP1 DIV PUSH20 0xFFFFFFFFFFFFFFFFFFFFFFFFFFFFFFFFFFFFFFFF AND PUSH20 0xFFFFFFFFFFFFFFFFFFFFFFFFFFFFFFFFFFFFFFFF AND PUSH4 0xBFD7F9CC ADDRESS DUP8 PUSH1 0x40 MLOAD DUP4 PUSH4 0xFFFFFFFF AND PUSH1 0xE0 SHL DUP2 MSTORE PUSH1 0x4 ADD PUSH2 0x1ACE SWAP3 SWAP2 SWAP1 PUSH2 0x2A53 JUMP JUMPDEST PUSH1 0x20 PUSH1 0x40 MLOAD DUP1 DUP4 SUB DUP2 DUP7 GAS STATICCALL ISZERO DUP1 ISZERO PUSH2 0x1AE9 JUMPI RETURNDATASIZE PUSH0 DUP1 RETURNDATACOPY RETURNDATASIZE PUSH0 REVERT JUMPDEST POP POP POP POP PUSH1 0x40 MLOAD RETURNDATASIZE PUSH1 0x1F NOT PUSH1 0x1F DUP3 ADD AND DUP3 ADD DUP1 PUSH1 0x40 MSTORE POP DUP2 ADD SWAP1 PUSH2 0x1B0D SWAP2 SWAP1 PUSH2 0x33EF JUMP JUMPDEST PUSH2 0x1B43 JUMPI PUSH1 0x40 MLOAD PUSH32 0x51C3B94F00000000000000000000000000000000000000000000000000000000 DUP2 MSTORE PUSH1 0x4 ADD PUSH1 0x40 MLOAD DUP1 SWAP2 SUB SWAP1 REVERT JUMPDEST PUSH0 DUP5 SUB PUSH2 0x1B7C JUMPI PUSH1 0x40 MLOAD PUSH32 0x7375C8400000000000000000000000000000000000000000000000000000000 DUP2 MSTORE PUSH1 0x4 ADD PUSH1 0x40 MLOAD DUP1 SWAP2 SUB SWAP1 REVERT JUMPDEST PUSH0 DUP1 PUSH1 0x6 PUSH0 SWAP1 SLOAD SWAP1 PUSH2 0x100 EXP SWAP1 DIV PUSH20 0xFFFFFFFFFFFFFFFFFFFFFFFFFFFFFFFFFFFFFFFF AND PUSH20 0xFFFFFFFFFFFFFFFFFFFFFFFFFFFFFFFFFFFFFFFF AND PUSH4 0xA5748A8 DUP6 PUSH1 0x40 MLOAD DUP3 PUSH4 0xFFFFFFFF AND PUSH1 0xE0 SHL DUP2 MSTORE PUSH1 0x4 ADD PUSH2 0x1BD8 SWAP2 SWAP1 PUSH2 0x26E9 JUMP JUMPDEST PUSH1 0x40 DUP1 MLOAD DUP1 DUP4 SUB DUP2 DUP7 GAS STATICCALL ISZERO DUP1 ISZERO PUSH2 0x1BF2 JUMPI RETURNDATASIZE PUSH0 DUP1 RETURNDATACOPY RETURNDATASIZE PUSH0 REVERT JUMPDEST POP POP POP POP PUSH1 0x40 MLOAD RETURNDATASIZE PUSH1 0x1F NOT PUSH1 0x1F DUP3 ADD AND DUP3 ADD DUP1 PUSH1 0x40 MSTORE POP DUP2 ADD SWAP1 PUSH2 0x1C16 SWAP2 SWAP1 PUSH2 0x341A JUMP JUMPDEST SWAP2 POP SWAP2 POP DUP2 ISZERO PUSH2 0x1C5D JUMPI DUP1 PUSH1 0x40 MLOAD PUSH32 0x6C2775F500000000000000000000000000000000000000000000000000000000 DUP2 MSTORE PUSH1 0x4 ADD PUSH2 0x1C54 SWAP2 SWAP1 PUSH2 0x29C8 JUMP JUMPDEST PUSH1 0x40 MLOAD DUP1 SWAP2 SUB SWAP1 REVERT JUMPDEST PUSH2 0x1C66 DUP6 PUSH2 0xF90 JUMP JUMPDEST SWAP3 POP PUSH0 PUSH20 0xFFFFFFFFFFFFFFFFFFFFFFFFFFFFFFFFFFFFFFFF AND DUP8 PUSH20 0xFFFFFFFFFFFFFFFFFFFFFFFFFFFFFFFFFFFFFFFF AND SUB PUSH2 0x1D1C JUMPI DUP3 DUP7 PUSH2 0x1CA7 SWAP2 SWAP1 PUSH2 0x2F59 JUMP JUMPDEST CALLVALUE LT ISZERO PUSH2 0x1CF8 JUMPI DUP3 DUP7 PUSH2 0x1CBA SWAP2 SWAP1 PUSH2 0x2F59 JUMP JUMPDEST CALLVALUE PUSH1 0x40 MLOAD PUSH32 0xDE9B74A100000000000000000000000000000000000000000000000000000000 DUP2 MSTORE PUSH1 0x4 ADD PUSH2 0x1CEF SWAP3 SWAP2 SWAP1 PUSH2 0x33B4 JUMP JUMPDEST PUSH1 0x40 MLOAD DUP1 SWAP2 SUB SWAP1 REVERT JUMPDEST PUSH2 0x1D17 DUP7 DUP5 PUSH2 0x1D07 SWAP2 SWAP1 PUSH2 0x2F59 JUMP JUMPDEST CALLVALUE PUSH2 0x1D12 SWAP2 SWAP1 PUSH2 0x3458 JUMP JUMPDEST PUSH2 0x2106 JUMP JUMPDEST PUSH2 0x1DA5 JUMP JUMPDEST DUP3 CALLVALUE LT ISZERO PUSH2 0x1D63 JUMPI DUP3 CALLVALUE PUSH1 0x40 MLOAD PUSH32 0xDE9B74A100000000000000000000000000000000000000000000000000000000 DUP2 MSTORE PUSH1 0x4 ADD PUSH2 0x1D5A SWAP3 SWAP2 SWAP1 PUSH2 0x33B4 JUMP JUMPDEST PUSH1 0x40 MLOAD DUP1 SWAP2 SUB SWAP1 REVERT JUMPDEST PUSH2 0x1D90 DUP5 ADDRESS DUP9 DUP11 PUSH20 0xFFFFFFFFFFFFFFFFFFFFFFFFFFFFFFFFFFFFFFFF AND PUSH2 0x21B2 SWAP1 SWAP4 SWAP3 SWAP2 SWAP1 PUSH4 0xFFFFFFFF AND JUMP JUMPDEST PUSH2 0x1DA4 DUP4 CALLVALUE PUSH2 0x1D9F SWAP2 SWAP1 PUSH2 0x3458 JUMP JUMPDEST PUSH2 0x2106 JUMP JUMPDEST JUMPDEST DUP3 PUSH1 0x1 PUSH0 DUP3 DUP3 SLOAD PUSH2 0x1DB6 SWAP2 SWAP1 PUSH2 0x2F59 JUMP JUMPDEST SWAP3 POP POP DUP2 SWAP1 SSTORE POP POP POP SWAP5 SWAP4 POP POP POP POP JUMP JUMPDEST PUSH0 PUSH1 0x2 PUSH0 SWAP1 SLOAD SWAP1 PUSH2 0x100 EXP SWAP1 DIV PUSH20 0xFFFFFFFFFFFFFFFFFFFFFFFFFFFFFFFFFFFFFFFF AND PUSH20 0xFFFFFFFFFFFFFFFFFFFFFFFFFFFFFFFFFFFFFFFF AND PUSH4 0x5D3B1D30 PUSH32 0xD729DC84E21AE57FFB6BE0053BF2B0668AA2AAF300A2A7B2DDF7DC0BB6E875A8 PUSH2 0x240 PUSH1 0x3 PUSH3 0x2625A0 DUP8 PUSH1 0x40 MLOAD DUP7 PUSH4 0xFFFFFFFF AND PUSH1 0xE0 SHL DUP2 MSTORE PUSH1 0x4 ADD PUSH2 0x1E50 SWAP6 SWAP5 SWAP4 SWAP3 SWAP2 SWAP1 PUSH2 0x3590 JUMP JUMPDEST PUSH1 0x20 PUSH1 0x40 MLOAD DUP1 DUP4 SUB DUP2 PUSH0 DUP8 GAS CALL ISZERO DUP1 ISZERO PUSH2 0x1E6C JUMPI RETURNDATASIZE PUSH0 DUP1 RETURNDATACOPY RETURNDATASIZE PUSH0 REVERT JUMPDEST POP POP POP POP PUSH1 0x40 MLOAD RETURNDATASIZE PUSH1 0x1F NOT PUSH1 0x1F DUP3 ADD AND DUP3 ADD DUP1 PUSH1 0x40 MSTORE POP DUP2 ADD SWAP1 PUSH2 0x1E90 SWAP2 SWAP1 PUSH2 0x3389 JUMP JUMPDEST SWAP1 POP SWAP2 SWAP1 POP JUMP JUMPDEST PUSH0 PUSH20 0xFFFFFFFFFFFFFFFFFFFFFFFFFFFFFFFFFFFFFFFF AND DUP3 PUSH20 0xFFFFFFFFFFFFFFFFFFFFFFFFFFFFFFFFFFFFFFFF AND SUB PUSH2 0x1F90 JUMPI PUSH0 PUSH1 0x6 PUSH0 SWAP1 SLOAD SWAP1 PUSH2 0x100 EXP SWAP1 DIV PUSH20 0xFFFFFFFFFFFFFFFFFFFFFFFFFFFFFFFFFFFFFFFF AND PUSH20 0xFFFFFFFFFFFFFFFFFFFFFFFFFFFFFFFFFFFFFFFF AND DUP3 PUSH1 0x40 MLOAD PUSH2 0x1F10 SWAP1 PUSH2 0x2BA7 JUMP JUMPDEST PUSH0 PUSH1 0x40 MLOAD DUP1 DUP4 SUB DUP2 DUP6 DUP8 GAS CALL SWAP3 POP POP POP RETURNDATASIZE DUP1 PUSH0 DUP2 EQ PUSH2 0x1F4A JUMPI PUSH1 0x40 MLOAD SWAP2 POP PUSH1 0x1F NOT PUSH1 0x3F RETURNDATASIZE ADD AND DUP3 ADD PUSH1 0x40 MSTORE RETURNDATASIZE DUP3 MSTORE RETURNDATASIZE PUSH0 PUSH1 0x20 DUP5 ADD RETURNDATACOPY PUSH2 0x1F4F JUMP JUMPDEST PUSH1 0x60 SWAP2 POP JUMPDEST POP POP SWAP1 POP DUP1 PUSH2 0x1F8A JUMPI PUSH1 0x40 MLOAD PUSH32 0xF0C49D4400000000000000000000000000000000000000000000000000000000 DUP2 MSTORE PUSH1 0x4 ADD PUSH1 0x40 MLOAD DUP1 SWAP2 SUB SWAP1 REVERT JUMPDEST POP PUSH2 0x1FDD JUMP JUMPDEST PUSH2 0x1FDC PUSH1 0x6 PUSH0 SWAP1 SLOAD SWAP1 PUSH2 0x100 EXP SWAP1 DIV PUSH20 0xFFFFFFFFFFFFFFFFFFFFFFFFFFFFFFFFFFFFFFFF AND DUP3 DUP5 PUSH20 0xFFFFFFFFFFFFFFFFFFFFFFFFFFFFFFFFFFFFFFFF AND PUSH2 0x186B SWAP1 SWAP3 SWAP2 SWAP1 PUSH4 0xFFFFFFFF AND JUMP JUMPDEST JUMPDEST POP POP JUMP JUMPDEST PUSH1 0x6 PUSH0 SWAP1 SLOAD SWAP1 PUSH2 0x100 EXP SWAP1 DIV PUSH20 0xFFFFFFFFFFFFFFFFFFFFFFFFFFFFFFFFFFFFFFFF AND PUSH20 0xFFFFFFFFFFFFFFFFFFFFFFFFFFFFFFFFFFFFFFFF AND PUSH4 0x6C025EC2 DUP5 DUP5 DUP5 PUSH1 0x40 MLOAD DUP5 PUSH4 0xFFFFFFFF AND PUSH1 0xE0 SHL DUP2 MSTORE PUSH1 0x4 ADD PUSH2 0x203F SWAP4 SWAP3 SWAP2 SWAP1 PUSH2 0x35E1 JUMP JUMPDEST PUSH0 PUSH1 0x40 MLOAD DUP1 DUP4 SUB DUP2 PUSH0 DUP8 DUP1 EXTCODESIZE ISZERO DUP1 ISZERO PUSH2 0x2056 JUMPI PUSH0 DUP1 REVERT JUMPDEST POP GAS CALL ISZERO DUP1 ISZERO PUSH2 0x2068 JUMPI RETURNDATASIZE PUSH0 DUP1 RETURNDATACOPY RETURNDATASIZE PUSH0 REVERT JUMPDEST POP POP POP POP POP POP POP JUMP JUMPDEST PUSH0 PUSH2 0x209B DUP3 DUP5 PUSH20 0xFFFFFFFFFFFFFFFFFFFFFFFFFFFFFFFFFFFFFFFF AND PUSH2 0x2234 SWAP1 SWAP2 SWAP1 PUSH4 0xFFFFFFFF AND JUMP JUMPDEST SWAP1 POP PUSH0 DUP2 MLOAD EQ ISZERO DUP1 ISZERO PUSH2 0x20BF JUMPI POP DUP1 DUP1 PUSH1 0x20 ADD SWAP1 MLOAD DUP2 ADD SWAP1 PUSH2 0x20BD SWAP2 SWAP1 PUSH2 0x33EF JUMP JUMPDEST ISZERO JUMPDEST ISZERO PUSH2 0x2101 JUMPI DUP3 PUSH1 0x40 MLOAD PUSH32 0x5274AFE700000000000000000000000000000000000000000000000000000000 DUP2 MSTORE PUSH1 0x4 ADD PUSH2 0x20F8 SWAP2 SWAP1 PUSH2 0x26E9 JUMP JUMPDEST PUSH1 0x40 MLOAD DUP1 SWAP2 SUB SWAP1 REVERT JUMPDEST POP POP POP JUMP JUMPDEST PUSH0 DUP2 SUB ISZERO PUSH2 0x21AF JUMPI PUSH0 CALLER PUSH20 0xFFFFFFFFFFFFFFFFFFFFFFFFFFFFFFFFFFFFFFFF AND DUP3 PUSH1 0x40 MLOAD PUSH2 0x2133 SWAP1 PUSH2 0x2BA7 JUMP JUMPDEST PUSH0 PUSH1 0x40 MLOAD DUP1 DUP4 SUB DUP2 DUP6 DUP8 GAS CALL SWAP3 POP POP POP RETURNDATASIZE DUP1 PUSH0 DUP2 EQ PUSH2 0x216D JUMPI PUSH1 0x40 MLOAD SWAP2 POP PUSH1 0x1F NOT PUSH1 0x3F RETURNDATASIZE ADD AND DUP3 ADD PUSH1 0x40 MSTORE RETURNDATASIZE DUP3 MSTORE RETURNDATASIZE PUSH0 PUSH1 0x20 DUP5 ADD RETURNDATACOPY PUSH2 0x2172 JUMP JUMPDEST PUSH1 0x60 SWAP2 POP JUMPDEST POP POP SWAP1 POP DUP1 PUSH2 0x21AD JUMPI PUSH1 0x40 MLOAD PUSH32 0xF0C49D4400000000000000000000000000000000000000000000000000000000 DUP2 MSTORE PUSH1 0x4 ADD PUSH1 0x40 MLOAD DUP1 SWAP2 SUB SWAP1 REVERT JUMPDEST POP JUMPDEST POP JUMP JUMPDEST PUSH2 0x222E DUP5 DUP6 PUSH20 0xFFFFFFFFFFFFFFFFFFFFFFFFFFFFFFFFFFFFFFFF AND PUSH4 0x23B872DD DUP7 DUP7 DUP7 PUSH1 0x40 MLOAD PUSH1 0x24 ADD PUSH2 0x21E7 SWAP4 SWAP3 SWAP2 SWAP1 PUSH2 0x3616 JUMP JUMPDEST PUSH1 0x40 MLOAD PUSH1 0x20 DUP2 DUP4 SUB SUB DUP2 MSTORE SWAP1 PUSH1 0x40 MSTORE SWAP2 POP PUSH1 0xE0 SHL PUSH1 0x20 DUP3 ADD DUP1 MLOAD PUSH28 0xFFFFFFFFFFFFFFFFFFFFFFFFFFFFFFFFFFFFFFFFFFFFFFFFFFFFFFFF DUP4 DUP2 DUP4 AND OR DUP4 MSTORE POP POP POP POP PUSH2 0x2071 JUMP JUMPDEST POP POP POP POP JUMP JUMPDEST PUSH1 0x60 PUSH2 0x2241 DUP4 DUP4 PUSH0 PUSH2 0x2249 JUMP JUMPDEST SWAP1 POP SWAP3 SWAP2 POP POP JUMP JUMPDEST PUSH1 0x60 DUP2 SELFBALANCE LT ISZERO PUSH2 0x2290 JUMPI ADDRESS PUSH1 0x40 MLOAD PUSH32 0xCD78605900000000000000000000000000000000000000000000000000000000 DUP2 MSTORE PUSH1 0x4 ADD PUSH2 0x2287 SWAP2 SWAP1 PUSH2 0x26E9 JUMP JUMPDEST PUSH1 0x40 MLOAD DUP1 SWAP2 SUB SWAP1 REVERT JUMPDEST PUSH0 DUP1 DUP6 PUSH20 0xFFFFFFFFFFFFFFFFFFFFFFFFFFFFFFFFFFFFFFFF AND DUP5 DUP7 PUSH1 0x40 MLOAD PUSH2 0x22B8 SWAP2 SWAP1 PUSH2 0x36AD JUMP JUMPDEST PUSH0 PUSH1 0x40 MLOAD DUP1 DUP4 SUB DUP2 DUP6 DUP8 GAS CALL SWAP3 POP POP POP RETURNDATASIZE DUP1 PUSH0 DUP2 EQ PUSH2 0x22F2 JUMPI PUSH1 0x40 MLOAD SWAP2 POP PUSH1 0x1F NOT PUSH1 0x3F RETURNDATASIZE ADD AND DUP3 ADD PUSH1 0x40 MSTORE RETURNDATASIZE DUP3 MSTORE RETURNDATASIZE PUSH0 PUSH1 0x20 DUP5 ADD RETURNDATACOPY PUSH2 0x22F7 JUMP JUMPDEST PUSH1 0x60 SWAP2 POP JUMPDEST POP SWAP2 POP SWAP2 POP PUSH2 0x2307 DUP7 DUP4 DUP4 PUSH2 0x2312 JUMP JUMPDEST SWAP3 POP POP POP SWAP4 SWAP3 POP POP POP JUMP JUMPDEST PUSH1 0x60 DUP3 PUSH2 0x2327 JUMPI PUSH2 0x2322 DUP3 PUSH2 0x239F JUMP JUMPDEST PUSH2 0x2397 JUMP JUMPDEST PUSH0 DUP3 MLOAD EQ DUP1 ISZERO PUSH2 0x234D JUMPI POP PUSH0 DUP5 PUSH20 0xFFFFFFFFFFFFFFFFFFFFFFFFFFFFFFFFFFFFFFFF AND EXTCODESIZE EQ JUMPDEST ISZERO PUSH2 0x238F JUMPI DUP4 PUSH1 0x40 MLOAD PUSH32 0x9996B31500000000000000000000000000000000000000000000000000000000 DUP2 MSTORE PUSH1 0x4 ADD PUSH2 0x2386 SWAP2 SWAP1 PUSH2 0x26E9 JUMP JUMPDEST PUSH1 0x40 MLOAD DUP1 SWAP2 SUB SWAP1 REVERT JUMPDEST DUP2 SWAP1 POP PUSH2 0x2398 JUMP JUMPDEST JUMPDEST SWAP4 SWAP3 POP POP POP JUMP JUMPDEST PUSH0 DUP2 MLOAD GT ISZERO PUSH2 0x23B1 JUMPI DUP1 MLOAD DUP1 DUP3 PUSH1 0x20 ADD REVERT JUMPDEST PUSH1 0x40 MLOAD PUSH32 0x1425EA4200000000000000000000000000000000000000000000000000000000 DUP2 MSTORE PUSH1 0x4 ADD PUSH1 0x40 MLOAD DUP1 SWAP2 SUB SWAP1 REVERT JUMPDEST PUSH1 0x40 MLOAD DUP1 PUSH2 0x100 ADD PUSH1 0x40 MSTORE DUP1 PUSH0 DUP2 MSTORE PUSH1 0x20 ADD PUSH0 DUP2 MSTORE PUSH1 0x20 ADD PUSH0 DUP2 MSTORE PUSH1 0x20 ADD PUSH0 DUP2 MSTORE PUSH1 0x20 ADD PUSH0 PUSH20 0xFFFFFFFFFFFFFFFFFFFFFFFFFFFFFFFFFFFFFFFF AND DUP2 MSTORE PUSH1 0x20 ADD PUSH0 PUSH8 0xFFFFFFFFFFFFFFFF AND DUP2 MSTORE PUSH1 0x20 ADD PUSH0 PUSH4 0xFFFFFFFF AND DUP2 MSTORE PUSH1 0x20 ADD PUSH0 ISZERO ISZERO DUP2 MSTORE POP SWAP1 JUMP JUMPDEST PUSH0 PUSH1 0x40 MLOAD SWAP1 POP SWAP1 JUMP JUMPDEST PUSH0 DUP1 REVERT JUMPDEST PUSH0 DUP1 REVERT JUMPDEST PUSH0 DUP2 SWAP1 POP SWAP2 SWAP1 POP JUMP JUMPDEST PUSH2 0x246B DUP2 PUSH2 0x2459 JUMP JUMPDEST DUP2 EQ PUSH2 0x2475 JUMPI PUSH0 DUP1 REVERT JUMPDEST POP JUMP JUMPDEST PUSH0 DUP2 CALLDATALOAD SWAP1 POP PUSH2 0x2486 DUP2 PUSH2 0x2462 JUMP JUMPDEST SWAP3 SWAP2 POP POP JUMP JUMPDEST PUSH0 DUP1 REVERT JUMPDEST PUSH0 PUSH1 0x1F NOT PUSH1 0x1F DUP4 ADD AND SWAP1 POP SWAP2 SWAP1 POP JUMP JUMPDEST PUSH32 0x4E487B7100000000000000000000000000000000000000000000000000000000 PUSH0 MSTORE PUSH1 0x41 PUSH1 0x4 MSTORE PUSH1 0x24 PUSH0 REVERT JUMPDEST PUSH2 0x24D6 DUP3 PUSH2 0x2490 JUMP JUMPDEST DUP2 ADD DUP2 DUP2 LT PUSH8 0xFFFFFFFFFFFFFFFF DUP3 GT OR ISZERO PUSH2 0x24F5 JUMPI PUSH2 0x24F4 PUSH2 0x24A0 JUMP JUMPDEST JUMPDEST DUP1 PUSH1 0x40 MSTORE POP POP POP JUMP JUMPDEST PUSH0 PUSH2 0x2507 PUSH2 0x2448 JUMP JUMPDEST SWAP1 POP PUSH2 0x2513 DUP3 DUP3 PUSH2 0x24CD JUMP JUMPDEST SWAP2 SWAP1 POP JUMP JUMPDEST PUSH0 PUSH8 0xFFFFFFFFFFFFFFFF DUP3 GT ISZERO PUSH2 0x2532 JUMPI PUSH2 0x2531 PUSH2 0x24A0 JUMP JUMPDEST JUMPDEST PUSH1 0x20 DUP3 MUL SWAP1 POP PUSH1 0x20 DUP2 ADD SWAP1 POP SWAP2 SWAP1 POP JUMP JUMPDEST PUSH0 DUP1 REVERT JUMPDEST PUSH0 PUSH2 0x2559 PUSH2 0x2554 DUP5 PUSH2 0x2518 JUMP JUMPDEST PUSH2 0x24FE JUMP JUMPDEST SWAP1 POP DUP1 DUP4 DUP3 MSTORE PUSH1 0x20 DUP3 ADD SWAP1 POP PUSH1 0x20 DUP5 MUL DUP4 ADD DUP6 DUP2 GT ISZERO PUSH2 0x257C JUMPI PUSH2 0x257B PUSH2 0x2543 JUMP JUMPDEST JUMPDEST DUP4 JUMPDEST DUP2 DUP2 LT ISZERO PUSH2 0x25A5 JUMPI DUP1 PUSH2 0x2591 DUP9 DUP3 PUSH2 0x2478 JUMP JUMPDEST DUP5 MSTORE PUSH1 0x20 DUP5 ADD SWAP4 POP POP PUSH1 0x20 DUP2 ADD SWAP1 POP PUSH2 0x257E JUMP JUMPDEST POP POP POP SWAP4 SWAP3 POP POP POP JUMP JUMPDEST PUSH0 DUP3 PUSH1 0x1F DUP4 ADD SLT PUSH2 0x25C3 JUMPI PUSH2 0x25C2 PUSH2 0x248C JUMP JUMPDEST JUMPDEST DUP2 CALLDATALOAD PUSH2 0x25D3 DUP5 DUP3 PUSH1 0x20 DUP7 ADD PUSH2 0x2547 JUMP JUMPDEST SWAP2 POP POP SWAP3 SWAP2 POP POP JUMP JUMPDEST PUSH0 DUP1 PUSH1 0x40 DUP4 DUP6 SUB SLT ISZERO PUSH2 0x25F2 JUMPI PUSH2 0x25F1 PUSH2 0x2451 JUMP JUMPDEST JUMPDEST PUSH0 PUSH2 0x25FF DUP6 DUP3 DUP7 ADD PUSH2 0x2478 JUMP JUMPDEST SWAP3 POP POP PUSH1 0x20 DUP4 ADD CALLDATALOAD PUSH8 0xFFFFFFFFFFFFFFFF DUP2 GT ISZERO PUSH2 0x2620 JUMPI PUSH2 0x261F PUSH2 0x2455 JUMP JUMPDEST JUMPDEST PUSH2 0x262C DUP6 DUP3 DUP7 ADD PUSH2 0x25AF JUMP JUMPDEST SWAP2 POP POP SWAP3 POP SWAP3 SWAP1 POP JUMP JUMPDEST PUSH0 PUSH20 0xFFFFFFFFFFFFFFFFFFFFFFFFFFFFFFFFFFFFFFFF DUP3 AND SWAP1 POP SWAP2 SWAP1 POP JUMP JUMPDEST PUSH0 DUP2 SWAP1 POP SWAP2 SWAP1 POP JUMP JUMPDEST PUSH0 PUSH2 0x2678 PUSH2 0x2673 PUSH2 0x266E DUP5 PUSH2 0x2636 JUMP JUMPDEST PUSH2 0x2655 JUMP JUMPDEST PUSH2 0x2636 JUMP JUMPDEST SWAP1 POP SWAP2 SWAP1 POP JUMP JUMPDEST PUSH0 PUSH2 0x2689 DUP3 PUSH2 0x265E JUMP JUMPDEST SWAP1 POP SWAP2 SWAP1 POP JUMP JUMPDEST PUSH0 PUSH2 0x269A DUP3 PUSH2 0x267F JUMP JUMPDEST SWAP1 POP SWAP2 SWAP1 POP JUMP JUMPDEST PUSH2 0x26AA DUP2 PUSH2 0x2690 JUMP JUMPDEST DUP3 MSTORE POP POP JUMP JUMPDEST PUSH0 PUSH1 0x20 DUP3 ADD SWAP1 POP PUSH2 0x26C3 PUSH0 DUP4 ADD DUP5 PUSH2 0x26A1 JUMP JUMPDEST SWAP3 SWAP2 POP POP JUMP JUMPDEST PUSH0 PUSH2 0x26D3 DUP3 PUSH2 0x2636 JUMP JUMPDEST SWAP1 POP SWAP2 SWAP1 POP JUMP JUMPDEST PUSH2 0x26E3 DUP2 PUSH2 0x26C9 JUMP JUMPDEST DUP3 MSTORE POP POP JUMP JUMPDEST PUSH0 PUSH1 0x20 DUP3 ADD SWAP1 POP PUSH2 0x26FC PUSH0 DUP4 ADD DUP5 PUSH2 0x26DA JUMP JUMPDEST SWAP3 SWAP2 POP POP JUMP JUMPDEST PUSH2 0x270B DUP2 PUSH2 0x26C9 JUMP JUMPDEST DUP2 EQ PUSH2 0x2715 JUMPI PUSH0 DUP1 REVERT JUMPDEST POP JUMP JUMPDEST PUSH0 DUP2 CALLDATALOAD SWAP1 POP PUSH2 0x2726 DUP2 PUSH2 0x2702 JUMP JUMPDEST SWAP3 SWAP2 POP POP JUMP JUMPDEST PUSH0 PUSH1 0x20 DUP3 DUP5 SUB SLT ISZERO PUSH2 0x2741 JUMPI PUSH2 0x2740 PUSH2 0x2451 JUMP JUMPDEST JUMPDEST PUSH0 PUSH2 0x274E DUP5 DUP3 DUP6 ADD PUSH2 0x2718 JUMP JUMPDEST SWAP2 POP POP SWAP3 SWAP2 POP POP JUMP JUMPDEST PUSH0 DUP2 ISZERO ISZERO SWAP1 POP SWAP2 SWAP1 POP JUMP JUMPDEST PUSH2 0x276B DUP2 PUSH2 0x2757 JUMP JUMPDEST DUP3 MSTORE POP POP JUMP JUMPDEST PUSH0 PUSH1 0x20 DUP3 ADD SWAP1 POP PUSH2 0x2784 PUSH0 DUP4 ADD DUP5 PUSH2 0x2762 JUMP JUMPDEST SWAP3 SWAP2 POP POP JUMP JUMPDEST PUSH2 0x2793 DUP2 PUSH2 0x2757 JUMP JUMPDEST DUP2 EQ PUSH2 0x279D JUMPI PUSH0 DUP1 REVERT JUMPDEST POP JUMP JUMPDEST PUSH0 DUP2 CALLDATALOAD SWAP1 POP PUSH2 0x27AE DUP2 PUSH2 0x278A JUMP JUMPDEST SWAP3 SWAP2 POP POP JUMP JUMPDEST PUSH0 PUSH4 0xFFFFFFFF DUP3 AND SWAP1 POP SWAP2 SWAP1 POP JUMP JUMPDEST PUSH2 0x27CC DUP2 PUSH2 0x27B4 JUMP JUMPDEST DUP2 EQ PUSH2 0x27D6 JUMPI PUSH0 DUP1 REVERT JUMPDEST POP JUMP JUMPDEST PUSH0 DUP2 CALLDATALOAD SWAP1 POP PUSH2 0x27E7 DUP2 PUSH2 0x27C3 JUMP JUMPDEST SWAP3 SWAP2 POP POP JUMP JUMPDEST PUSH0 DUP1 PUSH0 DUP1 PUSH0 DUP1 PUSH1 0xC0 DUP8 DUP10 SUB SLT ISZERO PUSH2 0x2807 JUMPI PUSH2 0x2806 PUSH2 0x2451 JUMP JUMPDEST JUMPDEST PUSH0 PUSH2 0x2814 DUP10 DUP3 DUP11 ADD PUSH2 0x2478 JUMP JUMPDEST SWAP7 POP POP PUSH1 0x20 PUSH2 0x2825 DUP10 DUP3 DUP11 ADD PUSH2 0x2718 JUMP JUMPDEST SWAP6 POP POP PUSH1 0x40 PUSH2 0x2836 DUP10 DUP3 DUP11 ADD PUSH2 0x27A0 JUMP JUMPDEST SWAP5 POP POP PUSH1 0x60 PUSH2 0x2847 DUP10 DUP3 DUP11 ADD PUSH2 0x27D9 JUMP JUMPDEST SWAP4 POP POP PUSH1 0x80 PUSH2 0x2858 DUP10 DUP3 DUP11 ADD PUSH2 0x2478 JUMP JUMPDEST SWAP3 POP POP PUSH1 0xA0 PUSH2 0x2869 DUP10 DUP3 DUP11 ADD PUSH2 0x2478 JUMP JUMPDEST SWAP2 POP POP SWAP3 SWAP6 POP SWAP3 SWAP6 POP SWAP3 SWAP6 JUMP JUMPDEST PUSH2 0x287F DUP2 PUSH2 0x2459 JUMP JUMPDEST DUP3 MSTORE POP POP JUMP JUMPDEST PUSH2 0x288E DUP2 PUSH2 0x26C9 JUMP JUMPDEST DUP3 MSTORE POP POP JUMP JUMPDEST PUSH0 PUSH8 0xFFFFFFFFFFFFFFFF DUP3 AND SWAP1 POP SWAP2 SWAP1 POP JUMP JUMPDEST PUSH2 0x28B0 DUP2 PUSH2 0x2894 JUMP JUMPDEST DUP3 MSTORE POP POP JUMP JUMPDEST PUSH2 0x28BF DUP2 PUSH2 0x27B4 JUMP JUMPDEST DUP3 MSTORE POP POP JUMP JUMPDEST PUSH2 0x28CE DUP2 PUSH2 0x2757 JUMP JUMPDEST DUP3 MSTORE POP POP JUMP JUMPDEST PUSH2 0x100 DUP3 ADD PUSH0 DUP3 ADD MLOAD PUSH2 0x28E9 PUSH0 DUP6 ADD DUP3 PUSH2 0x2876 JUMP JUMPDEST POP PUSH1 0x20 DUP3 ADD MLOAD PUSH2 0x28FC PUSH1 0x20 DUP6 ADD DUP3 PUSH2 0x2876 JUMP JUMPDEST POP PUSH1 0x40 DUP3 ADD MLOAD PUSH2 0x290F PUSH1 0x40 DUP6 ADD DUP3 PUSH2 0x2876 JUMP JUMPDEST POP PUSH1 0x60 DUP3 ADD MLOAD PUSH2 0x2922 PUSH1 0x60 DUP6 ADD DUP3 PUSH2 0x2876 JUMP JUMPDEST POP PUSH1 0x80 DUP3 ADD MLOAD PUSH2 0x2935 PUSH1 0x80 DUP6 ADD DUP3 PUSH2 0x2885 JUMP JUMPDEST POP PUSH1 0xA0 DUP3 ADD MLOAD PUSH2 0x2948 PUSH1 0xA0 DUP6 ADD DUP3 PUSH2 0x28A7 JUMP JUMPDEST POP PUSH1 0xC0 DUP3 ADD MLOAD PUSH2 0x295B PUSH1 0xC0 DUP6 ADD DUP3 PUSH2 0x28B6 JUMP JUMPDEST POP PUSH1 0xE0 DUP3 ADD MLOAD PUSH2 0x296E PUSH1 0xE0 DUP6 ADD DUP3 PUSH2 0x28C5 JUMP JUMPDEST POP POP POP POP JUMP JUMPDEST PUSH0 PUSH2 0x100 DUP3 ADD SWAP1 POP PUSH2 0x2988 PUSH0 DUP4 ADD DUP5 PUSH2 0x28D4 JUMP JUMPDEST SWAP3 SWAP2 POP POP JUMP JUMPDEST PUSH0 PUSH1 0x20 DUP3 DUP5 SUB SLT ISZERO PUSH2 0x29A3 JUMPI PUSH2 0x29A2 PUSH2 0x2451 JUMP JUMPDEST JUMPDEST PUSH0 PUSH2 0x29B0 DUP5 DUP3 DUP6 ADD PUSH2 0x2478 JUMP JUMPDEST SWAP2 POP POP SWAP3 SWAP2 POP POP JUMP JUMPDEST PUSH2 0x29C2 DUP2 PUSH2 0x2459 JUMP JUMPDEST DUP3 MSTORE POP POP JUMP JUMPDEST PUSH0 PUSH1 0x20 DUP3 ADD SWAP1 POP PUSH2 0x29DB PUSH0 DUP4 ADD DUP5 PUSH2 0x29B9 JUMP JUMPDEST SWAP3 SWAP2 POP POP JUMP JUMPDEST PUSH0 PUSH2 0x29EB DUP3 PUSH2 0x267F JUMP JUMPDEST SWAP1 POP SWAP2 SWAP1 POP JUMP JUMPDEST PUSH2 0x29FB DUP2 PUSH2 0x29E1 JUMP JUMPDEST DUP3 MSTORE POP POP JUMP JUMPDEST PUSH0 PUSH1 0x20 DUP3 ADD SWAP1 POP PUSH2 0x2A14 PUSH0 DUP4 ADD DUP5 PUSH2 0x29F2 JUMP JUMPDEST SWAP3 SWAP2 POP POP JUMP JUMPDEST PUSH0 PUSH2 0x2A24 DUP3 PUSH2 0x267F JUMP JUMPDEST SWAP1 POP SWAP2 SWAP1 POP JUMP JUMPDEST PUSH2 0x2A34 DUP2 PUSH2 0x2A1A JUMP JUMPDEST DUP3 MSTORE POP POP JUMP JUMPDEST PUSH0 PUSH1 0x20 DUP3 ADD SWAP1 POP PUSH2 0x2A4D PUSH0 DUP4 ADD DUP5 PUSH2 0x2A2B JUMP JUMPDEST SWAP3 SWAP2 POP POP JUMP JUMPDEST PUSH0 PUSH1 0x40 DUP3 ADD SWAP1 POP PUSH2 0x2A66 PUSH0 DUP4 ADD DUP6 PUSH2 0x26DA JUMP JUMPDEST PUSH2 0x2A73 PUSH1 0x20 DUP4 ADD DUP5 PUSH2 0x26DA JUMP JUMPDEST SWAP4 SWAP3 POP POP POP JUMP JUMPDEST PUSH32 0x4E487B7100000000000000000000000000000000000000000000000000000000 PUSH0 MSTORE PUSH1 0x11 PUSH1 0x4 MSTORE PUSH1 0x24 PUSH0 REVERT JUMPDEST PUSH0 PUSH2 0x2AB1 DUP3 PUSH2 0x2894 JUMP JUMPDEST SWAP2 POP PUSH2 0x2ABC DUP4 PUSH2 0x2894 JUMP JUMPDEST SWAP3 POP DUP3 DUP3 ADD SWAP1 POP PUSH8 0xFFFFFFFFFFFFFFFF DUP2 GT ISZERO PUSH2 0x2ADC JUMPI PUSH2 0x2ADB PUSH2 0x2A7A JUMP JUMPDEST JUMPDEST SWAP3 SWAP2 POP POP JUMP JUMPDEST PUSH0 PUSH2 0x2AFC PUSH2 0x2AF7 PUSH2 0x2AF2 DUP5 PUSH2 0x2894 JUMP JUMPDEST PUSH2 0x2655 JUMP JUMPDEST PUSH2 0x2459 JUMP JUMPDEST SWAP1 POP SWAP2 SWAP1 POP JUMP JUMPDEST PUSH2 0x2B0C DUP2 PUSH2 0x2AE2 JUMP JUMPDEST DUP3 MSTORE POP POP JUMP JUMPDEST PUSH0 PUSH1 0x40 DUP3 ADD SWAP1 POP PUSH2 0x2B25 PUSH0 DUP4 ADD DUP6 PUSH2 0x29B9 JUMP JUMPDEST PUSH2 0x2B32 PUSH1 0x20 DUP4 ADD DUP5 PUSH2 0x2B03 JUMP JUMPDEST SWAP4 SWAP3 POP POP POP JUMP JUMPDEST PUSH0 PUSH2 0x2B43 DUP3 PUSH2 0x2459 JUMP JUMPDEST SWAP2 POP PUSH2 0x2B4E DUP4 PUSH2 0x2459 JUMP JUMPDEST SWAP3 POP DUP3 DUP3 MUL PUSH2 0x2B5C DUP2 PUSH2 0x2459 JUMP JUMPDEST SWAP2 POP DUP3 DUP3 DIV DUP5 EQ DUP4 ISZERO OR PUSH2 0x2B73 JUMPI PUSH2 0x2B72 PUSH2 0x2A7A JUMP JUMPDEST JUMPDEST POP SWAP3 SWAP2 POP POP JUMP JUMPDEST PUSH0 DUP2 SWAP1 POP SWAP3 SWAP2 POP POP JUMP JUMPDEST POP JUMP JUMPDEST PUSH0 PUSH2 0x2B92 PUSH0 DUP4 PUSH2 0x2B7A JUMP JUMPDEST SWAP2 POP PUSH2 0x2B9D DUP3 PUSH2 0x2B84 JUMP JUMPDEST PUSH0 DUP3 ADD SWAP1 POP SWAP2 SWAP1 POP JUMP JUMPDEST PUSH0 PUSH2 0x2BB1 DUP3 PUSH2 0x2B87 JUMP JUMPDEST SWAP2 POP DUP2 SWAP1 POP SWAP2 SWAP1 POP JUMP JUMPDEST PUSH0 PUSH1 0x40 DUP3 ADD SWAP1 POP PUSH2 0x2BCE PUSH0 DUP4 ADD DUP6 PUSH2 0x29B9 JUMP JUMPDEST PUSH2 0x2BDB PUSH1 0x20 DUP4 ADD DUP5 PUSH2 0x26DA JUMP JUMPDEST SWAP4 SWAP3 POP POP POP JUMP JUMPDEST PUSH0 DUP2 MLOAD SWAP1 POP PUSH2 0x2BF0 DUP2 PUSH2 0x2702 JUMP JUMPDEST SWAP3 SWAP2 POP POP JUMP JUMPDEST PUSH0 PUSH1 0x20 DUP3 DUP5 SUB SLT ISZERO PUSH2 0x2C0B JUMPI PUSH2 0x2C0A PUSH2 0x2451 JUMP JUMPDEST JUMPDEST PUSH0 PUSH2 0x2C18 DUP5 DUP3 DUP6 ADD PUSH2 0x2BE2 JUMP JUMPDEST SWAP2 POP POP SWAP3 SWAP2 POP POP JUMP JUMPDEST PUSH0 DUP2 SWAP1 POP SWAP2 SWAP1 POP JUMP JUMPDEST PUSH0 PUSH2 0x2C44 PUSH2 0x2C3F PUSH2 0x2C3A DUP5 PUSH2 0x2C21 JUMP JUMPDEST PUSH2 0x2655 JUMP JUMPDEST PUSH2 0x2459 JUMP JUMPDEST SWAP1 POP SWAP2 SWAP1 POP JUMP JUMPDEST PUSH2 0x2C54 DUP2 PUSH2 0x2C2A JUMP JUMPDEST DUP3 MSTORE POP POP JUMP JUMPDEST PUSH0 PUSH1 0x20 DUP3 ADD SWAP1 POP PUSH2 0x2C6D PUSH0 DUP4 ADD DUP5 PUSH2 0x2C4B JUMP JUMPDEST SWAP3 SWAP2 POP POP JUMP JUMPDEST PUSH2 0x2C7C DUP2 PUSH2 0x27B4 JUMP JUMPDEST DUP3 MSTORE POP POP JUMP JUMPDEST PUSH0 PUSH1 0xE0 DUP3 ADD SWAP1 POP PUSH2 0x2C95 PUSH0 DUP4 ADD DUP11 PUSH2 0x29B9 JUMP JUMPDEST PUSH2 0x2CA2 PUSH1 0x20 DUP4 ADD DUP10 PUSH2 0x26DA JUMP JUMPDEST PUSH2 0x2CAF PUSH1 0x40 DUP4 ADD DUP9 PUSH2 0x2762 JUMP JUMPDEST PUSH2 0x2CBC PUSH1 0x60 DUP4 ADD DUP8 PUSH2 0x2C73 JUMP JUMPDEST PUSH2 0x2CC9 PUSH1 0x80 DUP4 ADD DUP7 PUSH2 0x29B9 JUMP JUMPDEST PUSH2 0x2CD6 PUSH1 0xA0 DUP4 ADD DUP6 PUSH2 0x29B9 JUMP JUMPDEST PUSH2 0x2CE3 PUSH1 0xC0 DUP4 ADD DUP5 PUSH2 0x29B9 JUMP JUMPDEST SWAP9 SWAP8 POP POP POP POP POP POP POP POP JUMP JUMPDEST PUSH0 PUSH10 0xFFFFFFFFFFFFFFFFFFFF DUP3 AND SWAP1 POP SWAP2 SWAP1 POP JUMP JUMPDEST PUSH2 0x2D0D DUP2 PUSH2 0x2CEF JUMP JUMPDEST DUP2 EQ PUSH2 0x2D17 JUMPI PUSH0 DUP1 REVERT JUMPDEST POP JUMP JUMPDEST PUSH0 DUP2 MLOAD SWAP1 POP PUSH2 0x2D28 DUP2 PUSH2 0x2D04 JUMP JUMPDEST SWAP3 SWAP2 POP POP JUMP JUMPDEST PUSH0 DUP2 SWAP1 POP SWAP2 SWAP1 POP JUMP JUMPDEST PUSH2 0x2D40 DUP2 PUSH2 0x2D2E JUMP JUMPDEST DUP2 EQ PUSH2 0x2D4A JUMPI PUSH0 DUP1 REVERT JUMPDEST POP JUMP JUMPDEST PUSH0 DUP2 MLOAD SWAP1 POP PUSH2 0x2D5B DUP2 PUSH2 0x2D37 JUMP JUMPDEST SWAP3 SWAP2 POP POP JUMP JUMPDEST PUSH0 DUP2 MLOAD SWAP1 POP PUSH2 0x2D6F DUP2 PUSH2 0x2462 JUMP JUMPDEST SWAP3 SWAP2 POP POP JUMP JUMPDEST PUSH0 DUP1 PUSH0 DUP1 PUSH0 PUSH1 0xA0 DUP7 DUP9 SUB SLT ISZERO PUSH2 0x2D8E JUMPI PUSH2 0x2D8D PUSH2 0x2451 JUMP JUMPDEST JUMPDEST PUSH0 PUSH2 0x2D9B DUP9 DUP3 DUP10 ADD PUSH2 0x2D1A JUMP JUMPDEST SWAP6 POP POP PUSH1 0x20 PUSH2 0x2DAC DUP9 DUP3 DUP10 ADD PUSH2 0x2D4D JUMP JUMPDEST SWAP5 POP POP PUSH1 0x40 PUSH2 0x2DBD DUP9 DUP3 DUP10 ADD PUSH2 0x2D61 JUMP JUMPDEST SWAP4 POP POP PUSH1 0x60 PUSH2 0x2DCE DUP9 DUP3 DUP10 ADD PUSH2 0x2D61 JUMP JUMPDEST SWAP3 POP POP PUSH1 0x80 PUSH2 0x2DDF DUP9 DUP3 DUP10 ADD PUSH2 0x2D1A JUMP JUMPDEST SWAP2 POP POP SWAP3 SWAP6 POP SWAP3 SWAP6 SWAP1 SWAP4 POP JUMP JUMPDEST PUSH0 DUP2 MLOAD SWAP1 POP PUSH2 0x2DFA DUP2 PUSH2 0x27C3 JUMP JUMPDEST SWAP3 SWAP2 POP POP JUMP JUMPDEST PUSH0 PUSH3 0xFFFFFF DUP3 AND SWAP1 POP SWAP2 SWAP1 POP JUMP JUMPDEST PUSH2 0x2E17 DUP2 PUSH2 0x2E00 JUMP JUMPDEST DUP2 EQ PUSH2 0x2E21 JUMPI PUSH0 DUP1 REVERT JUMPDEST POP JUMP JUMPDEST PUSH0 DUP2 MLOAD SWAP1 POP PUSH2 0x2E32 DUP2 PUSH2 0x2E0E JUMP JUMPDEST SWAP3 SWAP2 POP POP JUMP JUMPDEST PUSH0 DUP1 PUSH0 DUP1 PUSH0 DUP1 PUSH0 DUP1 PUSH0 PUSH2 0x120 DUP11 DUP13 SUB SLT ISZERO PUSH2 0x2E56 JUMPI PUSH2 0x2E55 PUSH2 0x2451 JUMP JUMPDEST JUMPDEST PUSH0 PUSH2 0x2E63 DUP13 DUP3 DUP14 ADD PUSH2 0x2DEC JUMP JUMPDEST SWAP10 POP POP PUSH1 0x20 PUSH2 0x2E74 DUP13 DUP3 DUP14 ADD PUSH2 0x2DEC JUMP JUMPDEST SWAP9 POP POP PUSH1 0x40 PUSH2 0x2E85 DUP13 DUP3 DUP14 ADD PUSH2 0x2DEC JUMP JUMPDEST SWAP8 POP POP PUSH1 0x60 PUSH2 0x2E96 DUP13 DUP3 DUP14 ADD PUSH2 0x2DEC JUMP JUMPDEST SWAP7 POP POP PUSH1 0x80 PUSH2 0x2EA7 DUP13 DUP3 DUP14 ADD PUSH2 0x2DEC JUMP JUMPDEST SWAP6 POP POP PUSH1 0xA0 PUSH2 0x2EB8 DUP13 DUP3 DUP14 ADD PUSH2 0x2E24 JUMP JUMPDEST SWAP5 POP POP PUSH1 0xC0 PUSH2 0x2EC9 DUP13 DUP3 DUP14 ADD PUSH2 0x2E24 JUMP JUMPDEST SWAP4 POP POP PUSH1 0xE0 PUSH2 0x2EDA DUP13 DUP3 DUP14 ADD PUSH2 0x2E24 JUMP JUMPDEST SWAP3 POP POP PUSH2 0x100 PUSH2 0x2EEC DUP13 DUP3 DUP14 ADD PUSH2 0x2E24 JUMP JUMPDEST SWAP2 POP POP SWAP3 SWAP6 SWAP9 POP SWAP3 SWAP6 SWAP9 POP SWAP3 SWAP6 SWAP9 JUMP JUMPDEST PUSH32 0x4E487B7100000000000000000000000000000000000000000000000000000000 PUSH0 MSTORE PUSH1 0x12 PUSH1 0x4 MSTORE PUSH1 0x24 PUSH0 REVERT JUMPDEST PUSH0 PUSH2 0x2F33 DUP3 PUSH2 0x2459 JUMP JUMPDEST SWAP2 POP PUSH2 0x2F3E DUP4 PUSH2 0x2459 JUMP JUMPDEST SWAP3 POP DUP3 PUSH2 0x2F4E JUMPI PUSH2 0x2F4D PUSH2 0x2EFC JUMP JUMPDEST JUMPDEST DUP3 DUP3 DIV SWAP1 POP SWAP3 SWAP2 POP POP JUMP JUMPDEST PUSH0 PUSH2 0x2F63 DUP3 PUSH2 0x2459 JUMP JUMPDEST SWAP2 POP PUSH2 0x2F6E DUP4 PUSH2 0x2459 JUMP JUMPDEST SWAP3 POP DUP3 DUP3 ADD SWAP1 POP DUP1 DUP3 GT ISZERO PUSH2 0x2F86 JUMPI PUSH2 0x2F85 PUSH2 0x2A7A JUMP JUMPDEST JUMPDEST SWAP3 SWAP2 POP POP JUMP JUMPDEST PUSH0 PUSH2 0x2F96 DUP3 PUSH2 0x2D2E JUMP JUMPDEST SWAP2 POP PUSH32 0x8000000000000000000000000000000000000000000000000000000000000000 DUP3 SUB PUSH2 0x2FC8 JUMPI PUSH2 0x2FC7 PUSH2 0x2A7A JUMP JUMPDEST JUMPDEST DUP2 PUSH0 SUB SWAP1 POP SWAP2 SWAP1 POP JUMP JUMPDEST PUSH32 0x4E487B7100000000000000000000000000000000000000000000000000000000 PUSH0 MSTORE PUSH1 0x32 PUSH1 0x4 MSTORE PUSH1 0x24 PUSH0 REVERT JUMPDEST PUSH0 PUSH2 0x3009 DUP3 PUSH2 0x2459 JUMP JUMPDEST SWAP2 POP PUSH2 0x3014 DUP4 PUSH2 0x2459 JUMP JUMPDEST SWAP3 POP DUP3 PUSH2 0x3024 JUMPI PUSH2 0x3023 PUSH2 0x2EFC JUMP JUMPDEST JUMPDEST DUP3 DUP3 MOD SWAP1 POP SWAP3 SWAP2 POP POP JUMP JUMPDEST PUSH0 PUSH2 0x3039 DUP3 PUSH2 0x2D2E JUMP JUMPDEST SWAP2 POP PUSH2 0x3044 DUP4 PUSH2 0x2D2E JUMP JUMPDEST SWAP3 POP DUP3 DUP3 ADD SWAP1 POP DUP3 DUP2 SLT ISZERO PUSH0 DUP4 SLT AND DUP4 DUP3 SLT PUSH0 DUP5 SLT ISZERO AND OR ISZERO PUSH2 0x306A JUMPI PUSH2 0x3069 PUSH2 0x2A7A JUMP JUMPDEST JUMPDEST SWAP3 SWAP2 POP POP JUMP JUMPDEST PUSH0 PUSH2 0x307A DUP3 PUSH2 0x2D2E JUMP JUMPDEST SWAP2 POP PUSH2 0x3085 DUP4 PUSH2 0x2D2E JUMP JUMPDEST SWAP3 POP DUP3 DUP3 SUB SWAP1 POP DUP2 DUP2 SLT PUSH0 DUP5 SLT AND DUP3 DUP3 SGT PUSH0 DUP6 SLT ISZERO AND OR ISZERO PUSH2 0x30AA JUMPI PUSH2 0x30A9 PUSH2 0x2A7A JUMP JUMPDEST JUMPDEST SWAP3 SWAP2 POP POP JUMP JUMPDEST PUSH0 PUSH2 0x30BA DUP3 PUSH2 0x27B4 JUMP JUMPDEST SWAP2 POP PUSH4 0xFFFFFFFF DUP3 SUB PUSH2 0x30D0 JUMPI PUSH2 0x30CF PUSH2 0x2A7A JUMP JUMPDEST JUMPDEST PUSH1 0x1 DUP3 ADD SWAP1 POP SWAP2 SWAP1 POP JUMP JUMPDEST PUSH0 PUSH2 0x30E5 DUP3 PUSH2 0x27B4 JUMP JUMPDEST SWAP2 POP PUSH2 0x30F0 DUP4 PUSH2 0x27B4 JUMP JUMPDEST SWAP3 POP DUP3 DUP3 SUB SWAP1 POP PUSH4 0xFFFFFFFF DUP2 GT ISZERO PUSH2 0x310C JUMPI PUSH2 0x310B PUSH2 0x2A7A JUMP JUMPDEST JUMPDEST SWAP3 SWAP2 POP POP JUMP JUMPDEST PUSH0 DUP2 MLOAD SWAP1 POP SWAP2 SWAP1 POP JUMP JUMPDEST PUSH0 DUP3 DUP3 MSTORE PUSH1 0x20 DUP3 ADD SWAP1 POP SWAP3 SWAP2 POP POP JUMP JUMPDEST PUSH0 DUP2 SWAP1 POP PUSH1 0x20 DUP3 ADD SWAP1 POP SWAP2 SWAP1 POP JUMP JUMPDEST PUSH0 PUSH1 0xFF DUP3 AND SWAP1 POP SWAP2 SWAP1 POP JUMP JUMPDEST PUSH2 0x3150 DUP2 PUSH2 0x313B JUMP JUMPDEST DUP3 MSTORE POP POP JUMP JUMPDEST PUSH0 PUSH2 0x3161 DUP4 DUP4 PUSH2 0x3147 JUMP JUMPDEST PUSH1 0x20 DUP4 ADD SWAP1 POP SWAP3 SWAP2 POP POP JUMP JUMPDEST PUSH0 PUSH1 0x20 DUP3 ADD SWAP1 POP SWAP2 SWAP1 POP JUMP JUMPDEST PUSH0 PUSH2 0x3183 DUP3 PUSH2 0x3112 JUMP JUMPDEST PUSH2 0x318D DUP2 DUP6 PUSH2 0x311C JUMP JUMPDEST SWAP4 POP PUSH2 0x3198 DUP4 PUSH2 0x312C JUMP JUMPDEST DUP1 PUSH0 JUMPDEST DUP4 DUP2 LT ISZERO PUSH2 0x31C8 JUMPI DUP2 MLOAD PUSH2 0x31AF DUP9 DUP3 PUSH2 0x3156 JUMP JUMPDEST SWAP8 POP PUSH2 0x31BA DUP4 PUSH2 0x316D JUMP JUMPDEST SWAP3 POP POP PUSH1 0x1 DUP2 ADD SWAP1 POP PUSH2 0x319B JUMP JUMPDEST POP DUP6 SWAP4 POP POP POP POP SWAP3 SWAP2 POP POP JUMP JUMPDEST PUSH0 DUP2 MLOAD SWAP1 POP SWAP2 SWAP1 POP JUMP JUMPDEST PUSH0 DUP3 DUP3 MSTORE PUSH1 0x20 DUP3 ADD SWAP1 POP SWAP3 SWAP2 POP POP JUMP JUMPDEST PUSH0 DUP2 SWAP1 POP PUSH1 0x20 DUP3 ADD SWAP1 POP SWAP2 SWAP1 POP JUMP JUMPDEST PUSH0 PUSH2 0x3209 DUP4 DUP4 PUSH2 0x2876 JUMP JUMPDEST PUSH1 0x20 DUP4 ADD SWAP1 POP SWAP3 SWAP2 POP POP JUMP JUMPDEST PUSH0 PUSH1 0x20 DUP3 ADD SWAP1 POP SWAP2 SWAP1 POP JUMP JUMPDEST PUSH0 PUSH2 0x322B DUP3 PUSH2 0x31D5 JUMP JUMPDEST PUSH2 0x3235 DUP2 DUP6 PUSH2 0x31DF JUMP JUMPDEST SWAP4 POP PUSH2 0x3240 DUP4 PUSH2 0x31EF JUMP JUMPDEST DUP1 PUSH0 JUMPDEST DUP4 DUP2 LT ISZERO PUSH2 0x3270 JUMPI DUP2 MLOAD PUSH2 0x3257 DUP9 DUP3 PUSH2 0x31FE JUMP JUMPDEST SWAP8 POP PUSH2 0x3262 DUP4 PUSH2 0x3215 JUMP JUMPDEST SWAP3 POP POP PUSH1 0x1 DUP2 ADD SWAP1 POP PUSH2 0x3243 JUMP JUMPDEST POP DUP6 SWAP4 POP POP POP POP SWAP3 SWAP2 POP POP JUMP JUMPDEST PUSH0 PUSH1 0xC0 DUP3 ADD SWAP1 POP PUSH2 0x3290 PUSH0 DUP4 ADD DUP10 PUSH2 0x29B9 JUMP JUMPDEST PUSH2 0x329D PUSH1 0x20 DUP4 ADD DUP9 PUSH2 0x29B9 JUMP JUMPDEST PUSH2 0x32AA PUSH1 0x40 DUP4 ADD DUP8 PUSH2 0x26DA JUMP JUMPDEST DUP2 DUP2 SUB PUSH1 0x60 DUP4 ADD MSTORE PUSH2 0x32BC DUP2 DUP7 PUSH2 0x3179 JUMP JUMPDEST SWAP1 POP DUP2 DUP2 SUB PUSH1 0x80 DUP4 ADD MSTORE PUSH2 0x32D0 DUP2 DUP6 PUSH2 0x3221 JUMP JUMPDEST SWAP1 POP PUSH2 0x32DF PUSH1 0xA0 DUP4 ADD DUP5 PUSH2 0x2C73 JUMP JUMPDEST SWAP8 SWAP7 POP POP POP POP POP POP POP JUMP JUMPDEST PUSH0 DUP3 DUP3 MSTORE PUSH1 0x20 DUP3 ADD SWAP1 POP SWAP3 SWAP2 POP POP JUMP JUMPDEST PUSH32 0x5265656E7472616E637947756172643A207265656E7472616E742063616C6C00 PUSH0 DUP3 ADD MSTORE POP JUMP JUMPDEST PUSH0 PUSH2 0x332E PUSH1 0x1F DUP4 PUSH2 0x32EA JUMP JUMPDEST SWAP2 POP PUSH2 0x3339 DUP3 PUSH2 0x32FA JUMP JUMPDEST PUSH1 0x20 DUP3 ADD SWAP1 POP SWAP2 SWAP1 POP JUMP JUMPDEST PUSH0 PUSH1 0x20 DUP3 ADD SWAP1 POP DUP2 DUP2 SUB PUSH0 DUP4 ADD MSTORE PUSH2 0x335B DUP2 PUSH2 0x3322 JUMP JUMPDEST SWAP1 POP SWAP2 SWAP1 POP JUMP JUMPDEST PUSH0 PUSH1 0x40 DUP3 ADD SWAP1 POP PUSH2 0x3375 PUSH0 DUP4 ADD DUP6 PUSH2 0x26DA JUMP JUMPDEST PUSH2 0x3382 PUSH1 0x20 DUP4 ADD DUP5 PUSH2 0x29B9 JUMP JUMPDEST SWAP4 SWAP3 POP POP POP JUMP JUMPDEST PUSH0 PUSH1 0x20 DUP3 DUP5 SUB SLT ISZERO PUSH2 0x339E JUMPI PUSH2 0x339D PUSH2 0x2451 JUMP JUMPDEST JUMPDEST PUSH0 PUSH2 0x33AB DUP5 DUP3 DUP6 ADD PUSH2 0x2D61 JUMP JUMPDEST SWAP2 POP POP SWAP3 SWAP2 POP POP JUMP JUMPDEST PUSH0 PUSH1 0x40 DUP3 ADD SWAP1 POP PUSH2 0x33C7 PUSH0 DUP4 ADD DUP6 PUSH2 0x29B9 JUMP JUMPDEST PUSH2 0x33D4 PUSH1 0x20 DUP4 ADD DUP5 PUSH2 0x29B9 JUMP JUMPDEST SWAP4 SWAP3 POP POP POP JUMP JUMPDEST PUSH0 DUP2 MLOAD SWAP1 POP PUSH2 0x33E9 DUP2 PUSH2 0x278A JUMP JUMPDEST SWAP3 SWAP2 POP POP JUMP JUMPDEST PUSH0 PUSH1 0x20 DUP3 DUP5 SUB SLT ISZERO PUSH2 0x3404 JUMPI PUSH2 0x3403 PUSH2 0x2451 JUMP JUMPDEST JUMPDEST PUSH0 PUSH2 0x3411 DUP5 DUP3 DUP6 ADD PUSH2 0x33DB JUMP JUMPDEST SWAP2 POP POP SWAP3 SWAP2 POP POP JUMP JUMPDEST PUSH0 DUP1 PUSH1 0x40 DUP4 DUP6 SUB SLT ISZERO PUSH2 0x3430 JUMPI PUSH2 0x342F PUSH2 0x2451 JUMP JUMPDEST JUMPDEST PUSH0 PUSH2 0x343D DUP6 DUP3 DUP7 ADD PUSH2 0x33DB JUMP JUMPDEST SWAP3 POP POP PUSH1 0x20 PUSH2 0x344E DUP6 DUP3 DUP7 ADD PUSH2 0x2D61 JUMP JUMPDEST SWAP2 POP POP SWAP3 POP SWAP3 SWAP1 POP JUMP JUMPDEST PUSH0 PUSH2 0x3462 DUP3 PUSH2 0x2459 JUMP JUMPDEST SWAP2 POP PUSH2 0x346D DUP4 PUSH2 0x2459 JUMP JUMPDEST SWAP3 POP DUP3 DUP3 SUB SWAP1 POP DUP2 DUP2 GT ISZERO PUSH2 0x3485 JUMPI PUSH2 0x3484 PUSH2 0x2A7A JUMP JUMPDEST JUMPDEST SWAP3 SWAP2 POP POP JUMP JUMPDEST PUSH0 DUP2 SWAP1 POP SWAP2 SWAP1 POP JUMP JUMPDEST PUSH0 DUP2 SWAP1 POP SWAP2 SWAP1 POP JUMP JUMPDEST PUSH0 DUP2 PUSH0 SHL SWAP1 POP SWAP2 SWAP1 POP JUMP JUMPDEST PUSH0 PUSH2 0x34C2 PUSH2 0x34BD PUSH2 0x34B8 DUP5 PUSH2 0x348B JUMP JUMPDEST PUSH2 0x349D JUMP JUMPDEST PUSH2 0x3494 JUMP JUMPDEST SWAP1 POP SWAP2 SWAP1 POP JUMP JUMPDEST PUSH2 0x34D2 DUP2 PUSH2 0x34A8 JUMP JUMPDEST DUP3 MSTORE POP POP JUMP JUMPDEST PUSH0 DUP2 SWAP1 POP SWAP2 SWAP1 POP JUMP JUMPDEST PUSH0 PUSH2 0x34FB PUSH2 0x34F6 PUSH2 0x34F1 DUP5 PUSH2 0x34D8 JUMP JUMPDEST PUSH2 0x2655 JUMP JUMPDEST PUSH2 0x2894 JUMP JUMPDEST SWAP1 POP SWAP2 SWAP1 POP JUMP JUMPDEST PUSH2 0x350B DUP2 PUSH2 0x34E1 JUMP JUMPDEST DUP3 MSTORE POP POP JUMP JUMPDEST PUSH0 DUP2 SWAP1 POP SWAP2 SWAP1 POP JUMP JUMPDEST PUSH0 PUSH2 0xFFFF DUP3 AND SWAP1 POP SWAP2 SWAP1 POP JUMP JUMPDEST PUSH0 PUSH2 0x3541 PUSH2 0x353C PUSH2 0x3537 DUP5 PUSH2 0x3511 JUMP JUMPDEST PUSH2 0x2655 JUMP JUMPDEST PUSH2 0x351A JUMP JUMPDEST SWAP1 POP SWAP2 SWAP1 POP JUMP JUMPDEST PUSH2 0x3551 DUP2 PUSH2 0x3527 JUMP JUMPDEST DUP3 MSTORE POP POP JUMP JUMPDEST PUSH0 DUP2 SWAP1 POP SWAP2 SWAP1 POP JUMP JUMPDEST PUSH0 PUSH2 0x357A PUSH2 0x3575 PUSH2 0x3570 DUP5 PUSH2 0x3557 JUMP JUMPDEST PUSH2 0x2655 JUMP JUMPDEST PUSH2 0x27B4 JUMP JUMPDEST SWAP1 POP SWAP2 SWAP1 POP JUMP JUMPDEST PUSH2 0x358A DUP2 PUSH2 0x3560 JUMP JUMPDEST DUP3 MSTORE POP POP JUMP JUMPDEST PUSH0 PUSH1 0xA0 DUP3 ADD SWAP1 POP PUSH2 0x35A3 PUSH0 DUP4 ADD DUP9 PUSH2 0x34C9 JUMP JUMPDEST PUSH2 0x35B0 PUSH1 0x20 DUP4 ADD DUP8 PUSH2 0x3502 JUMP JUMPDEST PUSH2 0x35BD PUSH1 0x40 DUP4 ADD DUP7 PUSH2 0x3548 JUMP JUMPDEST PUSH2 0x35CA PUSH1 0x60 DUP4 ADD DUP6 PUSH2 0x3581 JUMP JUMPDEST PUSH2 0x35D7 PUSH1 0x80 DUP4 ADD DUP5 PUSH2 0x2C73 JUMP JUMPDEST SWAP7 SWAP6 POP POP POP POP POP POP JUMP JUMPDEST PUSH0 PUSH1 0x60 DUP3 ADD SWAP1 POP PUSH2 0x35F4 PUSH0 DUP4 ADD DUP7 PUSH2 0x26DA JUMP JUMPDEST PUSH2 0x3601 PUSH1 0x20 DUP4 ADD DUP6 PUSH2 0x29B9 JUMP JUMPDEST PUSH2 0x360E PUSH1 0x40 DUP4 ADD DUP5 PUSH2 0x26DA JUMP JUMPDEST SWAP5 SWAP4 POP POP POP POP JUMP JUMPDEST PUSH0 PUSH1 0x60 DUP3 ADD SWAP1 POP PUSH2 0x3629 PUSH0 DUP4 ADD DUP7 PUSH2 0x26DA JUMP JUMPDEST PUSH2 0x3636 PUSH1 0x20 DUP4 ADD DUP6 PUSH2 0x26DA JUMP JUMPDEST PUSH2 0x3643 PUSH1 0x40 DUP4 ADD DUP5 PUSH2 0x29B9 JUMP JUMPDEST SWAP5 SWAP4 POP POP POP POP JUMP JUMPDEST PUSH0 DUP2 MLOAD SWAP1 POP SWAP2 SWAP1 POP JUMP JUMPDEST PUSH0 JUMPDEST DUP4 DUP2 LT ISZERO PUSH2 0x3672 JUMPI DUP1 DUP3 ADD MLOAD DUP2 DUP5 ADD MSTORE PUSH1 0x20 DUP2 ADD SWAP1 POP PUSH2 0x3657 JUMP JUMPDEST PUSH0 DUP5 DUP5 ADD MSTORE POP POP POP POP JUMP JUMPDEST PUSH0 PUSH2 0x3687 DUP3 PUSH2 0x364B JUMP JUMPDEST PUSH2 0x3691 DUP2 DUP6 PUSH2 0x2B7A JUMP JUMPDEST SWAP4 POP PUSH2 0x36A1 DUP2 DUP6 PUSH1 0x20 DUP7 ADD PUSH2 0x3655 JUMP JUMPDEST DUP1 DUP5 ADD SWAP2 POP POP SWAP3 SWAP2 POP POP JUMP JUMPDEST PUSH0 PUSH2 0x36B8 DUP3 DUP5 PUSH2 0x367D JUMP JUMPDEST SWAP2 POP DUP2 SWAP1 POP SWAP3 SWAP2 POP POP JUMP INVALID LOG2 PUSH5 0x6970667358 0x22 SLT KECCAK256 DELEGATECALL SWAP10 0xD1 0xE9 0x26 BASEFEE ISZERO DUP3 0xD3 PUSH6 0x1DD95264136A 0xED DUP3 ISZERO NUMBER PUSH11 0xC2F26624D186F83AECF1AC PUSH5 0x736F6C6343 STOP ADDMOD ISZERO STOP CALLER "
		},
		"gasEstimates": {
			"creation": {
				"codeDepositCost": "2814600",
				"executionCost": "infinite",
				"totalCost": "infinite"
			},
			"external": {
				"Bankroll()": "infinite",
				"ChainLinkVRF()": "2552",
				"CoinFlip_GetState(address)": "infinite",
				"CoinFlip_Play(uint256,address,bool,uint32,uint256,uint256)": "infinite",
				"CoinFlip_Refund()": "infinite",
				"IChainLinkVRF()": "infinite",
				"LINK_ETH_FEED()": "infinite",
				"VRFFees()": "2447",
				"_trustedForwarder()": "2575",
				"getVRFFee(uint256)": "infinite",
				"isTrustedForwarder(address)": "2889",
				"rawFulfillRandomWords(uint256,uint256[])": "infinite",
				"transferFees(address)": "infinite"
			},
			"internal": {
				"_kellyWager(uint256,address)": "infinite",
				"fulfillRandomWords(uint256,uint256[] memory)": "infinite"
			}
		},
		"methodIdentifiers": {
			"Bankroll()": "d0bcfc0c",
			"ChainLinkVRF()": "953995ea",
			"CoinFlip_GetState(address)": "7df31284",
			"CoinFlip_Play(uint256,address,bool,uint32,uint256,uint256)": "6d974773",
			"CoinFlip_Refund()": "522d2c24",
			"IChainLinkVRF()": "4dd189d5",
			"LINK_ETH_FEED()": "ad178361",
			"VRFFees()": "8d7c16d2",
			"_trustedForwarder()": "56c022bb",
			"getVRFFee(uint256)": "8bd16114",
			"isTrustedForwarder(address)": "572b6c05",
			"rawFulfillRandomWords(uint256,uint256[])": "1fe543e3",
			"transferFees(address)": "63dc4ef5"
		}
	},
	"abi": [
		{
			"inputs": [
				{
					"internalType": "address",
					"name": "_bankroll",
					"type": "address"
				},
				{
					"internalType": "address",
					"name": "_vrf",
					"type": "address"
				},
				{
					"internalType": "address",
					"name": "link_eth_feed",
					"type": "address"
				},
				{
					"internalType": "address",
					"name": "_forwarder",
					"type": "address"
				}
			],
			"stateMutability": "nonpayable",
			"type": "constructor"
		},
		{
			"inputs": [
				{
					"internalType": "address",
					"name": "target",
					"type": "address"
				}
			],
			"name": "AddressEmptyCode",
			"type": "error"
		},
		{
			"inputs": [
				{
					"internalType": "address",
					"name": "account",
					"type": "address"
				}
			],
			"name": "AddressInsufficientBalance",
			"type": "error"
		},
		{
			"inputs": [
				{
					"internalType": "uint256",
					"name": "requestID",
					"type": "uint256"
				}
			],
			"name": "AwaitingVRF",
			"type": "error"
		},
		{
			"inputs": [
				{
					"internalType": "uint256",
					"name": "have",
					"type": "uint256"
				},
				{
					"internalType": "uint256",
					"name": "want",
					"type": "uint256"
				}
			],
			"name": "BlockNumberTooLow",
			"type": "error"
		},
		{
			"inputs": [],
			"name": "FailedInnerCall",
			"type": "error"
		},
		{
			"inputs": [
				{
					"internalType": "uint256",
					"name": "maxNumBets",
					"type": "uint256"
				}
			],
			"name": "InvalidNumBets",
			"type": "error"
		},
		{
			"inputs": [
				{
					"internalType": "uint256",
					"name": "required",
					"type": "uint256"
				},
				{
					"internalType": "uint256",
					"name": "sent",
					"type": "uint256"
				}
			],
			"name": "InvalidValue",
			"type": "error"
		},
		{
			"inputs": [],
			"name": "NotApprovedBankroll",
			"type": "error"
		},
		{
			"inputs": [],
			"name": "NotAwaitingVRF",
			"type": "error"
		},
		{
			"inputs": [
				{
					"internalType": "address",
					"name": "want",
					"type": "address"
				},
				{
					"internalType": "address",
					"name": "have",
					"type": "address"
				}
			],
			"name": "NotOwner",
			"type": "error"
		},
		{
			"inputs": [
				{
					"internalType": "address",
					"name": "have",
					"type": "address"
				},
				{
					"internalType": "address",
					"name": "want",
					"type": "address"
				}
			],
			"name": "OnlyCoordinatorCanFulfill",
			"type": "error"
		},
		{
			"inputs": [
				{
					"internalType": "uint256",
					"name": "suspensionTime",
					"type": "uint256"
				}
			],
			"name": "PlayerSuspended",
			"type": "error"
		},
		{
			"inputs": [],
			"name": "RefundFailed",
			"type": "error"
		},
		{
			"inputs": [
				{
					"internalType": "address",
					"name": "token",
					"type": "address"
				}
			],
			"name": "SafeERC20FailedOperation",
			"type": "error"
		},
		{
			"inputs": [],
			"name": "TransferFailed",
			"type": "error"
		},
		{
			"inputs": [
				{
					"internalType": "uint256",
					"name": "wager",
					"type": "uint256"
				},
				{
					"internalType": "uint256",
					"name": "maxWager",
					"type": "uint256"
				}
			],
			"name": "WagerAboveLimit",
			"type": "error"
		},
		{
			"inputs": [],
			"name": "ZeroWager",
			"type": "error"
		},
		{
			"anonymous": false,
			"inputs": [
				{
					"indexed": true,
					"internalType": "address",
					"name": "playerAddress",
					"type": "address"
				},
				{
					"indexed": false,
					"internalType": "uint256",
					"name": "wager",
					"type": "uint256"
				},
				{
					"indexed": false,
					"internalType": "uint256",
					"name": "payout",
					"type": "uint256"
				},
				{
					"indexed": false,
					"internalType": "address",
					"name": "tokenAddress",
					"type": "address"
				},
				{
					"indexed": false,
					"internalType": "uint8[]",
					"name": "coinOutcomes",
					"type": "uint8[]"
				},
				{
					"indexed": false,
					"internalType": "uint256[]",
					"name": "payouts",
					"type": "uint256[]"
				},
				{
					"indexed": false,
					"internalType": "uint32",
					"name": "numGames",
					"type": "uint32"
				}
			],
			"name": "CoinFlip_Outcome_Event",
			"type": "event"
		},
		{
			"anonymous": false,
			"inputs": [
				{
					"indexed": true,
					"internalType": "address",
					"name": "playerAddress",
					"type": "address"
				},
				{
					"indexed": false,
					"internalType": "uint256",
					"name": "wager",
					"type": "uint256"
				},
				{
					"indexed": false,
					"internalType": "address",
					"name": "tokenAddress",
					"type": "address"
				},
				{
					"indexed": false,
					"internalType": "bool",
					"name": "isHeads",
					"type": "bool"
				},
				{
					"indexed": false,
					"internalType": "uint32",
					"name": "numBets",
					"type": "uint32"
				},
				{
					"indexed": false,
					"internalType": "uint256",
					"name": "stopGain",
					"type": "uint256"
				},
				{
					"indexed": false,
					"internalType": "uint256",
					"name": "stopLoss",
					"type": "uint256"
				},
				{
					"indexed": false,
					"internalType": "uint256",
					"name": "VRFFee",
					"type": "uint256"
				}
			],
			"name": "CoinFlip_Play_Event",
			"type": "event"
		},
		{
			"anonymous": false,
			"inputs": [
				{
					"indexed": true,
					"internalType": "address",
					"name": "player",
					"type": "address"
				},
				{
					"indexed": false,
					"internalType": "uint256",
					"name": "wager",
					"type": "uint256"
				},
				{
					"indexed": false,
					"internalType": "address",
					"name": "tokenAddress",
					"type": "address"
				}
			],
			"name": "CoinFlip_Refund_Event",
			"type": "event"
		},
		{
			"inputs": [],
			"name": "Bankroll",
			"outputs": [
				{
					"internalType": "contract IBankRoll",
					"name": "",
					"type": "address"
				}
			],
			"stateMutability": "view",
			"type": "function"
		},
		{
			"inputs": [],
			"name": "ChainLinkVRF",
			"outputs": [
				{
					"internalType": "address",
					"name": "",
					"type": "address"
				}
			],
			"stateMutability": "view",
			"type": "function"
		},
		{
			"inputs": [
				{
					"internalType": "address",
					"name": "player",
					"type": "address"
				}
			],
			"name": "CoinFlip_GetState",
			"outputs": [
				{
					"components": [
						{
							"internalType": "uint256",
							"name": "wager",
							"type": "uint256"
						},
						{
							"internalType": "uint256",
							"name": "stopGain",
							"type": "uint256"
						},
						{
							"internalType": "uint256",
							"name": "stopLoss",
							"type": "uint256"
						},
						{
							"internalType": "uint256",
							"name": "requestID",
							"type": "uint256"
						},
						{
							"internalType": "address",
							"name": "tokenAddress",
							"type": "address"
						},
						{
							"internalType": "uint64",
							"name": "blockNumber",
							"type": "uint64"
						},
						{
							"internalType": "uint32",
							"name": "numBets",
							"type": "uint32"
						},
						{
							"internalType": "bool",
							"name": "isHeads",
							"type": "bool"
						}
					],
					"internalType": "struct CoinFlip.CoinFlipGame",
					"name": "",
					"type": "tuple"
				}
			],
			"stateMutability": "view",
			"type": "function"
		},
		{
			"inputs": [
				{
					"internalType": "uint256",
					"name": "wager",
					"type": "uint256"
				},
				{
					"internalType": "address",
					"name": "tokenAddress",
					"type": "address"
				},
				{
					"internalType": "bool",
					"name": "isHeads",
					"type": "bool"
				},
				{
					"internalType": "uint32",
					"name": "numBets",
					"type": "uint32"
				},
				{
					"internalType": "uint256",
					"name": "stopGain",
					"type": "uint256"
				},
				{
					"internalType": "uint256",
					"name": "stopLoss",
					"type": "uint256"
				}
			],
			"name": "CoinFlip_Play",
			"outputs": [],
			"stateMutability": "payable",
			"type": "function"
		},
		{
			"inputs": [],
			"name": "CoinFlip_Refund",
			"outputs": [],
			"stateMutability": "nonpayable",
			"type": "function"
		},
		{
			"inputs": [],
			"name": "IChainLinkVRF",
			"outputs": [
				{
					"internalType": "contract IVRFCoordinatorV2",
					"name": "",
					"type": "address"
				}
			],
			"stateMutability": "view",
			"type": "function"
		},
		{
			"inputs": [],
			"name": "LINK_ETH_FEED",
			"outputs": [
				{
					"internalType": "contract AggregatorV3Interface",
					"name": "",
					"type": "address"
				}
			],
			"stateMutability": "view",
			"type": "function"
		},
		{
			"inputs": [],
			"name": "VRFFees",
			"outputs": [
				{
					"internalType": "uint256",
					"name": "",
					"type": "uint256"
				}
			],
			"stateMutability": "view",
			"type": "function"
		},
		{
			"inputs": [],
			"name": "_trustedForwarder",
			"outputs": [
				{
					"internalType": "address",
					"name": "",
					"type": "address"
				}
			],
			"stateMutability": "view",
			"type": "function"
		},
		{
			"inputs": [
				{
					"internalType": "uint256",
					"name": "gasAmount",
					"type": "uint256"
				}
			],
			"name": "getVRFFee",
			"outputs": [
				{
					"internalType": "uint256",
					"name": "fee",
					"type": "uint256"
				}
			],
			"stateMutability": "view",
			"type": "function"
		},
		{
			"inputs": [
				{
					"internalType": "address",
					"name": "forwarder",
					"type": "address"
				}
			],
			"name": "isTrustedForwarder",
			"outputs": [
				{
					"internalType": "bool",
					"name": "",
					"type": "bool"
				}
			],
			"stateMutability": "view",
			"type": "function"
		},
		{
			"inputs": [
				{
					"internalType": "uint256",
					"name": "requestId",
					"type": "uint256"
				},
				{
					"internalType": "uint256[]",
					"name": "randomWords",
					"type": "uint256[]"
				}
			],
			"name": "rawFulfillRandomWords",
			"outputs": [],
			"stateMutability": "nonpayable",
			"type": "function"
		},
		{
			"inputs": [
				{
					"internalType": "address",
					"name": "to",
					"type": "address"
				}
			],
			"name": "transferFees",
			"outputs": [],
			"stateMutability": "nonpayable",
			"type": "function"
		}
	]
}