{
	"data": {
		"bytecode": {
			"linkReferences": {},
			"object": "608060405234801562000010575f80fd5b5060405162005cba38038062005cba833981810160405281019062000036919062000403565b60015f819055508460065f6101000a81548173ffffffffffffffffffffffffffffffffffffffff021916908373ffffffffffffffffffffffffffffffffffffffff1602179055508360055f6101000a81548173ffffffffffffffffffffffffffffffffffffffff021916908373ffffffffffffffffffffffffffffffffffffffff1602179055508260045f6101000a81548173ffffffffffffffffffffffffffffffffffffffff021916908373ffffffffffffffffffffffffffffffffffffffff1602179055508360025f6101000a81548173ffffffffffffffffffffffffffffffffffffffff021916908373ffffffffffffffffffffffffffffffffffffffff1602179055506200014e816200019960201b60201c565b8160035f6101000a81548173ffffffffffffffffffffffffffffffffffffffff021916908373ffffffffffffffffffffffffffffffffffffffff160217905550505050505062000571565b5f5b6018811015620001fc57818160188110620001bb57620001ba62000488565b5b602002015160ff16600a5f600184620001d59190620004eb565b81526020019081526020015f20819055508080620001f39062000525565b9150506200019b565b5050565b5f604051905090565b5f80fd5b5f73ffffffffffffffffffffffffffffffffffffffff82169050919050565b5f62000238826200020d565b9050919050565b6200024a816200022c565b811462000255575f80fd5b50565b5f8151905062000268816200023f565b92915050565b5f80fd5b5f601f19601f8301169050919050565b7f4e487b71000000000000000000000000000000000000000000000000000000005f52604160045260245ffd5b620002ba8262000272565b810181811067ffffffffffffffff82111715620002dc57620002db62000282565b5b80604052505050565b5f620002f062000200565b9050620002fe8282620002af565b919050565b5f67ffffffffffffffff82111562000320576200031f62000282565b5b602082029050919050565b5f80fd5b5f60ff82169050919050565b62000346816200032f565b811462000351575f80fd5b50565b5f8151905062000364816200033b565b92915050565b5f620003806200037a8462000303565b620002e5565b905080602084028301858111156200039d576200039c6200032b565b5b835b81811015620003ca5780620003b5888262000354565b8452602084019350506020810190506200039f565b5050509392505050565b5f82601f830112620003eb57620003ea6200026e565b5b6018620003fa8482856200036a565b91505092915050565b5f805f805f610380868803121562000420576200041f62000209565b5b5f6200042f8882890162000258565b9550506020620004428882890162000258565b9450506040620004558882890162000258565b9350506060620004688882890162000258565b92505060806200047b88828901620003d4565b9150509295509295909350565b7f4e487b71000000000000000000000000000000000000000000000000000000005f52603260045260245ffd5b5f819050919050565b7f4e487b71000000000000000000000000000000000000000000000000000000005f52601160045260245ffd5b5f620004f782620004b5565b91506200050483620004b5565b92508282019050808211156200051f576200051e620004be565b5b92915050565b5f6200053182620004b5565b91507fffffffffffffffffffffffffffffffffffffffffffffffffffffffffffffffff8203620005665762000565620004be565b5b600182019050919050565b61573b806200057f5f395ff3fe608060405260043610610108575f3560e01c80638bd1611411610094578063ad17836111610063578063ad1783611461034e578063b5f2da9714610378578063c6318aad1461038e578063d0bcfc0c146103b8578063eb5d8075146103e257610108565b80638bd16114146102965780638d7c16d2146102d2578063953995ea146102fc578063a6d18c511461032657610108565b80634dd189d5116100db5780634dd189d5146101a257806350ffd786146101cc57806356c022bb14610208578063572b6c051461023257806363dc4ef51461026e57610108565b80630f53b8261461010c5780631fe543e31461012257806320ade0031461014a578063320a513514610186575b5f80fd5b348015610117575f80fd5b506101206103fe565b005b34801561012d575f80fd5b5061014860048036038101906101439190613723565b610930565b005b348015610155575f80fd5b50610170600480360381019061016b91906137d7565b6109f2565b60405161017d91906139c3565b60405180910390f35b6101a0600480360381019061019b9190613a28565b610c1c565b005b3480156101ad575f80fd5b506101b6611006565b6040516101c39190613ac3565b60405180910390f35b3480156101d7575f80fd5b506101f260048036038101906101ed9190613adc565b61102b565b6040516101ff9190613b29565b60405180910390f35b348015610213575f80fd5b5061021c611055565b6040516102299190613b51565b60405180910390f35b34801561023d575f80fd5b50610258600480360381019061025391906137d7565b61107a565b6040516102659190613b79565b60405180910390f35b348015610279575f80fd5b50610294600480360381019061028f91906137d7565b6110d2565b005b3480156102a1575f80fd5b506102bc60048036038101906102b79190613b92565b61131f565b6040516102c99190613b29565b60405180910390f35b3480156102dd575f80fd5b506102e66114a3565b6040516102f39190613b29565b60405180910390f35b348015610307575f80fd5b506103106114a9565b60405161031d9190613b51565b60405180910390f35b348015610331575f80fd5b5061034c60048036038101906103479190613b92565b6114ce565b005b348015610359575f80fd5b506103626115fb565b60405161036f9190613bdd565b60405180910390f35b348015610383575f80fd5b5061038c611620565b005b348015610399575f80fd5b506103a2611963565b6040516103af9190613c8c565b60405180910390f35b3480156103c3575f80fd5b506103cc6119c7565b6040516103d99190613cc6565b60405180910390f35b6103fc60048036038101906103f79190613d09565b6119ec565b005b610406611dae565b5f61040f611dfb565b90505f60075f8373ffffffffffffffffffffffffffffffffffffffff1673ffffffffffffffffffffffffffffffffffffffff1681526020019081526020015f2060030160109054906101000a900460ff1660ff160361049a576040517f43050d9600000000000000000000000000000000000000000000000000000000815260040160405180910390fd5b5f60075f8373ffffffffffffffffffffffffffffffffffffffff1673ffffffffffffffffffffffffffffffffffffffff1681526020019081526020015f206002015403610513576040517f90a7340b00000000000000000000000000000000000000000000000000000000815260040160405180910390fd5b43600a6103e860075f8573ffffffffffffffffffffffffffffffffffffffff1673ffffffffffffffffffffffffffffffffffffffff1681526020019081526020015f206003015f9054906101000a900467ffffffffffffffff166105779190613daf565b6105819190613daf565b67ffffffffffffffff16111561063c5743600a6103e860075f8573ffffffffffffffffffffffffffffffffffffffff1673ffffffffffffffffffffffffffffffffffffffff1681526020019081526020015f206003015f9054906101000a900467ffffffffffffffff166105f59190613daf565b6105ff9190613daf565b6040517fb4ae675a000000000000000000000000000000000000000000000000000000008152600401610633929190613e1a565b60405180910390fd5b5f60075f8373ffffffffffffffffffffffffffffffffffffffff1673ffffffffffffffffffffffffffffffffffffffff1681526020019081526020015f206001015490505f60075f8473ffffffffffffffffffffffffffffffffffffffff1673ffffffffffffffffffffffffffffffffffffffff1681526020019081526020015f205f015f9054906101000a900473ffffffffffffffffffffffffffffffffffffffff16905060075f8473ffffffffffffffffffffffffffffffffffffffff1673ffffffffffffffffffffffffffffffffffffffff1681526020019081526020015f205f8082015f6101000a81549073ffffffffffffffffffffffffffffffffffffffff0219169055600182015f9055600282015f9055600382015f6101000a81549067ffffffffffffffff02191690556003820160086101000a81549067ffffffffffffffff02191690556003820160106101000a81549060ff0219169055600482015f6107ab9190613410565b600582015f6107ba9190613410565b600682015f6101000a81549060ff021916905550505f73ffffffffffffffffffffffffffffffffffffffff168173ffffffffffffffffffffffffffffffffffffffff16036108a7575f8373ffffffffffffffffffffffffffffffffffffffff168360405161082790613e6e565b5f6040518083038185875af1925050503d805f8114610861576040519150601f19603f3d011682016040523d82523d5f602084013e610866565b606091505b50509050806108a1576040517f90b8ec1800000000000000000000000000000000000000000000000000000000815260040160405180910390fd5b506108d3565b6108d283838373ffffffffffffffffffffffffffffffffffffffff16611e309092919063ffffffff16565b5b8273ffffffffffffffffffffffffffffffffffffffff167f47d03d5b779b98ffcf8d141c72233e07e1eefe64744ce9d5288aea98eaf6bc9c838360405161091b929190613e82565b60405180910390a250505061092e611eaf565b565b60025f9054906101000a900473ffffffffffffffffffffffffffffffffffffffff1673ffffffffffffffffffffffffffffffffffffffff163373ffffffffffffffffffffffffffffffffffffffff16146109e4573360025f9054906101000a900473ffffffffffffffffffffffffffffffffffffffff166040517f1cf993f40000000000000000000000000000000000000000000000000000000081526004016109db929190613ea9565b60405180910390fd5b6109ee8282611eb8565b5050565b6109fa613416565b60075f8373ffffffffffffffffffffffffffffffffffffffff1673ffffffffffffffffffffffffffffffffffffffff1681526020019081526020015f20604051806101200160405290815f82015f9054906101000a900473ffffffffffffffffffffffffffffffffffffffff1673ffffffffffffffffffffffffffffffffffffffff1673ffffffffffffffffffffffffffffffffffffffff1681526020016001820154815260200160028201548152602001600382015f9054906101000a900467ffffffffffffffff1667ffffffffffffffff1667ffffffffffffffff1681526020016003820160089054906101000a900467ffffffffffffffff1667ffffffffffffffff1667ffffffffffffffff1681526020016003820160109054906101000a900460ff1660ff1660ff16815260200160048201601980602002604051908101604052809291908260198015610b8a576020028201915f905b82829054906101000a900460ff161515815260200190600101906020825f01049283019260010382029150808411610b555790505b5050505050815260200160058201601980602002604051908101604052809291908260198015610bf2576020028201915f905b82829054906101000a900460ff161515815260200190600101906020825f01049283019260010382029150808411610bbd5790505b50505050508152602001600682015f9054906101000a900460ff1615151515815250509050919050565b610c24611dae565b5f610c2d611dfb565b90505f60075f8373ffffffffffffffffffffffffffffffffffffffff1673ffffffffffffffffffffffffffffffffffffffff1681526020019081526020015f2090505f8160030160109054906101000a900460ff1660ff1603610cbc576040517f43050d9600000000000000000000000000000000000000000000000000000000815260040160405180910390fd5b5f816002015414610d085780600201546040517f440db96e000000000000000000000000000000000000000000000000000000008152600401610cff9190613b29565b60405180910390fd5b5f805f5b60198160ff161015610e1c57868160ff1660198110610d2e57610d2d613ed0565b5b602002016020810190610d419190613efd565b15610dc657836004018160ff1660198110610d5f57610d5e613ed0565b5b602091828204019190069054906101000a900460ff1615610db757806040517f63926f51000000000000000000000000000000000000000000000000000000008152600401610dae9190613f37565b60405180910390fd5b8180610dc290613f5f565b9250505b836004018160ff1660198110610ddf57610dde613ed0565b5b602091828204019190069054906101000a900460ff1615610e09578280610e0590613f5f565b9350505b8080610e1490613f8a565b915050610d0c565b505f8163ffffffff161480610e665750600a5f8460030160109054906101000a900460ff1660ff1681526020019081526020015f20548282610e5e9190613fb2565b63ffffffff16115b15610eda578181610e779190613fb2565b600a5f8560030160109054906101000a900460ff1660ff1681526020019081526020015f20546040517f6efca6fe000000000000000000000000000000000000000000000000000000008152600401610ed1929190613ff8565b60405180910390fd5b5f610ee76207a1206127ae565b90505f610ef383612832565b90508560085f8381526020019081526020015f205f6101000a81548173ffffffffffffffffffffffffffffffffffffffff021916908373ffffffffffffffffffffffffffffffffffffffff1602179055508785600501906019610f57929190613496565b5086856006015f6101000a81548160ff02191690831515021790555080856002018190555043856003015f6101000a81548167ffffffffffffffff021916908367ffffffffffffffff1602179055508573ffffffffffffffffffffffffffffffffffffffff167f676c918f37fe2b3bf042543e3fdaf058ce52fd6fde49a5303cf971d7037f84ec83604051610fec9190613b29565b60405180910390a2505050505050611002611eaf565b5050565b60055f9054906101000a900473ffffffffffffffffffffffffffffffffffffffff1681565b5f60095f8481526020019081526020015f205f8381526020019081526020015f2054905092915050565b60035f9054906101000a900473ffffffffffffffffffffffffffffffffffffffff1681565b5f60035f9054906101000a900473ffffffffffffffffffffffffffffffffffffffff1673ffffffffffffffffffffffffffffffffffffffff168273ffffffffffffffffffffffffffffffffffffffff16149050919050565b6110da611dae565b60065f9054906101000a900473ffffffffffffffffffffffffffffffffffffffff1673ffffffffffffffffffffffffffffffffffffffff1663893d20e86040518163ffffffff1660e01b8152600401602060405180830381865afa158015611144573d5f803e3d5ffd5b505050506040513d601f19601f820116820180604052508101906111689190614033565b73ffffffffffffffffffffffffffffffffffffffff163373ffffffffffffffffffffffffffffffffffffffff16146112665760065f9054906101000a900473ffffffffffffffffffffffffffffffffffffffff1673ffffffffffffffffffffffffffffffffffffffff1663893d20e86040518163ffffffff1660e01b8152600401602060405180830381865afa158015611204573d5f803e3d5ffd5b505050506040513d601f19601f820116820180604052508101906112289190614033565b336040517f23295f0e00000000000000000000000000000000000000000000000000000000815260040161125d929190613ea9565b60405180910390fd5b5f60015490505f6001819055505f8273ffffffffffffffffffffffffffffffffffffffff168260405161129890613e6e565b5f6040518083038185875af1925050503d805f81146112d2576040519150601f19603f3d011682016040523d82523d5f602084013e6112d7565b606091505b5050905080611312576040517f90b8ec1800000000000000000000000000000000000000000000000000000000815260040160405180910390fd5b505061131c611eaf565b50565b5f8060045f9054906101000a900473ffffffffffffffffffffffffffffffffffffffff1673ffffffffffffffffffffffffffffffffffffffff1663feaf968c6040518163ffffffff1660e01b815260040160a060405180830381865afa15801561138b573d5f803e3d5ffd5b505050506040513d601f19601f820116820180604052508101906113af91906140e4565b5050509150505f60055f9054906101000a900473ffffffffffffffffffffffffffffffffffffffff1673ffffffffffffffffffffffffffffffffffffffff16635fbbc0d26040518163ffffffff1660e01b815260040161012060405180830381865afa158015611421573d5f803e3d5ffd5b505050506040513d601f19601f8201168201806040525081019061144591906141bd565b50505050505050509050670de0b6b3a7640000828263ffffffff1664e8d4a510006114709190614281565b61147a9190614281565b61148491906142ef565b843a6114909190614281565b61149a919061431f565b92505050919050565b60015481565b60025f9054906101000a900473ffffffffffffffffffffffffffffffffffffffff1681565b5f8114806114dd575060198110155b156114e6575f80fd5b5f60095f8381526020019081526020015f205f600181526020019081526020015f205414611512575f80fd5b5f600190505b8160196115259190614352565b81116115f7575f600190505f600190505f5b83811015611591578085601961154d9190614352565b6115579190614352565b836115629190614281565b92508060196115719190614352565b8261157c9190614281565b9150808061158990614385565b915050611537565b5080633b9aca00836115a39190614281565b6115ad91906142ef565b65090105fbb8006115be91906142ef565b60095f8681526020019081526020015f205f8581526020019081526020015f2081905550505080806115ef90614385565b915050611518565b5050565b60045f9054906101000a900473ffffffffffffffffffffffffffffffffffffffff1681565b611628611dae565b5f611631611dfb565b90505f60075f8373ffffffffffffffffffffffffffffffffffffffff1673ffffffffffffffffffffffffffffffffffffffff1681526020019081526020015f2090505f8160030160109054906101000a900460ff1660ff16036116c0576040517f43050d9600000000000000000000000000000000000000000000000000000000815260040160405180910390fd5b5f81600201541461170c5780600201546040517f440db96e0000000000000000000000000000000000000000000000000000000081526004016117039190613b29565b60405180910390fd5b5f8160030160109054906101000a900460ff1690505f82600401601980602002604051908101604052809291908260198015611780576020028201915f905b82829054906101000a900460ff161515815260200190600101906020825f0104928301926001038202915080841161174b5790505b505050505090505f8360030160089054906101000a900467ffffffffffffffff1667ffffffffffffffff1690505f846001015490505f61271082846117c59190614281565b6117cf91906142ef565b90505f865f015f9054906101000a900473ffffffffffffffffffffffffffffffffffffffff1690506118018184612902565b60075f8973ffffffffffffffffffffffffffffffffffffffff1673ffffffffffffffffffffffffffffffffffffffff1681526020019081526020015f205f8082015f6101000a81549073ffffffffffffffffffffffffffffffffffffffff0219169055600182015f9055600282015f9055600382015f6101000a81549067ffffffffffffffff02191690556003820160086101000a81549067ffffffffffffffff02191690556003820160106101000a81549060ff0219169055600482015f6118ca9190613410565b600582015f6118d99190613410565b600682015f6101000a81549060ff021916905550506118f9888383612a4c565b8773ffffffffffffffffffffffffffffffffffffffff167f1fe1dd196606ad2650d7969421fce1457a68ab5ef856f561b02c43d85e2b23058484848a8a8a6040516119499695949392919061445c565b60405180910390a25050505050505050611961611eaf565b565b61196b61352e565b5f5b60188110156119c357600a5f600183611986919061431f565b81526020019081526020015f20548282601881106119a7576119a6613ed0565b5b60200201818152505080806119bb90614385565b91505061196d565b5090565b60065f9054906101000a900473ffffffffffffffffffffffffffffffffffffffff1681565b6119f4611dae565b5f6119fd611dfb565b905060018460ff1610158015611a17575060188460ff1611155b611a4d576040517f822cb1a000000000000000000000000000000000000000000000000000000000815260040160405180910390fd5b5f60075f8373ffffffffffffffffffffffffffffffffffffffff1673ffffffffffffffffffffffffffffffffffffffff1681526020019081526020015f2090505f816002015414611ad95780600201546040517f440db96e000000000000000000000000000000000000000000000000000000008152600401611ad09190613b29565b60405180910390fd5b5f8160030160109054906101000a900460ff1660ff1614611b26576040517fc56fb25300000000000000000000000000000000000000000000000000000000815260040160405180910390fd5b5f805f90505b60198160ff161015611b8857858160ff1660198110611b4e57611b4d613ed0565b5b602002016020810190611b619190613efd565b15611b75578180611b7190613f5f565b9250505b8080611b8090613f8a565b915050611b2c565b505f600a5f8860ff1681526020019081526020015f205490505f8263ffffffff161480611bba5750808263ffffffff16115b15611bfe5781816040517f6efca6fe000000000000000000000000000000000000000000000000000000008152600401611bf5929190613ff8565b60405180910390fd5b611c0d8989838a60ff16612adc565b5f611c1d898b6207a12088612c83565b90505f611c2984612832565b90508560085f8381526020019081526020015f205f6101000a81548173ffffffffffffffffffffffffffffffffffffffff021916908373ffffffffffffffffffffffffffffffffffffffff160217905550888560030160106101000a81548160ff021916908360ff1602179055508a856001018190555089855f015f6101000a81548173ffffffffffffffffffffffffffffffffffffffff021916908373ffffffffffffffffffffffffffffffffffffffff16021790555086856006015f6101000a81548160ff0219169083151502179055508785600501906019611d0f929190613496565b5080856002018190555043856003015f6101000a81548167ffffffffffffffff021916908367ffffffffffffffff1602179055508573ffffffffffffffffffffffffffffffffffffffff167f06b735e3b542c1e7f37c869cdc85e44e5653bb9d7df7669703552379dc5d89b58c8c8c8b87604051611d919594939291906144bd565b60405180910390a2505050505050611da7611eaf565b5050505050565b60025f5403611df2576040517f08c379a0000000000000000000000000000000000000000000000000000000008152600401611de990614568565b60405180910390fd5b60025f81905550565b5f60145f36905010158015611e155750611e143361107a565b5b15611e2957601436033560601c9050611e2d565b3390505b90565b611eaa838473ffffffffffffffffffffffffffffffffffffffff1663a9059cbb8585604051602401611e63929190614586565b604051602081830303815290604052915060e01b6020820180517bffffffffffffffffffffffffffffffffffffffffffffffffffffffff8381831617835250505050612fd9565b505050565b60015f81905550565b5f60085f8481526020019081526020015f205f9054906101000a900473ffffffffffffffffffffffffffffffffffffffff1690505f73ffffffffffffffffffffffffffffffffffffffff168173ffffffffffffffffffffffffffffffffffffffff1603611f23575f80fd5b60085f8481526020019081526020015f205f6101000a81549073ffffffffffffffffffffffffffffffffffffffff02191690555f60075f8373ffffffffffffffffffffffffffffffffffffffff1673ffffffffffffffffffffffffffffffffffffffff1681526020019081526020015f2090506103e8816003015f9054906101000a900467ffffffffffffffff16611fbb9190613daf565b67ffffffffffffffff16431115611fd0575f80fd5b5f8160030160109054906101000a900460ff1690505f805f90505b601981101561204e576001151584600401826019811061200e5761200d613ed0565b5b602091828204019190069054906101000a900460ff1615150361203b57600182612038919061431f565b91505b808061204690614385565b915050611feb565b50612057613551565b5f600190505f805f90505b601981101561223a575f8760030160109054906101000a900460ff1660ff1614806120ac57508660030160109054906101000a900460ff1660ff168560196120aa9190614352565b145b1561211f578660050181601981106120c7576120c6613ed0565b5b602091828204019190069054906101000a900460ff161561211a5760018760040182601981106120fa576120f9613ed0565b5b602091828204019190066101000a81548160ff0219169083151502179055505b612227565b86600501816019811061213557612134613ed0565b5b602091828204019190069054906101000a900460ff1615612226575f61219889838860196121639190614352565b8b60030160109054906101000a900460ff1660ff168e888151811061218b5761218a613ed0565b5b602002602001015161306e565b90505f1515811515036122065760018860030160108282829054906101000a900460ff166121c691906145ad565b92506101000a81548160ff021916908360ff16021790555060018583601981106121f3576121f2613ed0565b5b6020020190151590811515815250505f93505b600186612213919061431f565b9550600183612222919061431f565b9250505b5b808061223290614385565b915050612062565b5081612490575f1515866006015f9054906101000a900460ff161515036122e3578673ffffffffffffffffffffffffffffffffffffffff167fa2c15df8b18610ebd81258461bf85a580874824addb5419f1a723080a1cbb9df87600101545f895f015f9054906101000a900473ffffffffffffffffffffffffffffffffffffffff1689888c6004015f6040516122d697969594939291906152ee565b60405180910390a2612367565b8673ffffffffffffffffffffffffffffffffffffffff167feac20db8d33062f61bf7dd8f8c6fb0ce14563dec2fa4726683f5bb14c01241b487600101545f895f015f9054906101000a900473ffffffffffffffffffffffffffffffffffffffff1689888c6004015f60405161235e97969594939291906152ee565b60405180910390a25b612397865f015f9054906101000a900473ffffffffffffffffffffffffffffffffffffffff168760010154612902565b60075f8873ffffffffffffffffffffffffffffffffffffffff1673ffffffffffffffffffffffffffffffffffffffff1681526020019081526020015f205f8082015f6101000a81549073ffffffffffffffffffffffffffffffffffffffff0219169055600182015f9055600282015f9055600382015f6101000a81549067ffffffffffffffff02191690556003820160086101000a81549067ffffffffffffffff02191690556003820160106101000a81549060ff0219169055600482015f6124609190613410565b600582015f61246f9190613410565b600682015f6101000a81549060ff02191690555050505050505050506127aa565b5f60095f8860030160109054906101000a900460ff1660ff1681526020019081526020015f205f8681526020019081526020015f205490505f1515876006015f9054906101000a900460ff161515036125cc57808760030160086101000a81548167ffffffffffffffff021916908367ffffffffffffffff1602179055505f87600201819055508773ffffffffffffffffffffffffffffffffffffffff167fa2c15df8b18610ebd81258461bf85a580874824addb5419f1a723080a1cbb9df88600101546127108a60010154856125679190614281565b61257191906142ef565b8a5f015f9054906101000a900473ffffffffffffffffffffffffffffffffffffffff168b60030160109054906101000a900460ff16898d600401886040516125bf979695949392919061535e565b60405180910390a26127a1565b5f876001015490505f885f015f9054906101000a900473ffffffffffffffffffffffffffffffffffffffff1690508973ffffffffffffffffffffffffffffffffffffffff167feac20db8d33062f61bf7dd8f8c6fb0ce14563dec2fa4726683f5bb14c01241b48361271085876126429190614281565b61264c91906142ef565b848d60030160109054906101000a900460ff168b8f6004018a604051612678979695949392919061535e565b60405180910390a261268e818a60010154612902565b60075f8b73ffffffffffffffffffffffffffffffffffffffff1673ffffffffffffffffffffffffffffffffffffffff1681526020019081526020015f205f8082015f6101000a81549073ffffffffffffffffffffffffffffffffffffffff0219169055600182015f9055600282015f9055600382015f6101000a81549067ffffffffffffffff02191690556003820160086101000a81549067ffffffffffffffff02191690556003820160106101000a81549060ff0219169055600482015f6127579190613410565b600582015f6127669190613410565b600682015f6101000a81549060ff0219169055505061279e8a612710848661278e9190614281565b61279891906142ef565b83612a4c565b50505b50505050505050505b5050565b5f6127b88261131f565b9050803410156128015780346040517fde9b74a10000000000000000000000000000000000000000000000000000000081526004016127f89291906153ce565b60405180910390fd5b61281581346128109190614352565b613133565b8060015f828254612826919061431f565b92505081905550919050565b5f60025f9054906101000a900473ffffffffffffffffffffffffffffffffffffffff1673ffffffffffffffffffffffffffffffffffffffff16635d3b1d307fd729dc84e21ae57ffb6be0053bf2b0668aa2aaf300a2a7b2ddf7dc0bb6e875a86102406003622625a0876040518663ffffffff1660e01b81526004016128bb9594939291906154fa565b6020604051808303815f875af11580156128d7573d5f803e3d5ffd5b505050506040513d601f19601f820116820180604052508101906128fb919061554b565b9050919050565b5f73ffffffffffffffffffffffffffffffffffffffff168273ffffffffffffffffffffffffffffffffffffffff16036129fb575f60065f9054906101000a900473ffffffffffffffffffffffffffffffffffffffff1673ffffffffffffffffffffffffffffffffffffffff168260405161297b90613e6e565b5f6040518083038185875af1925050503d805f81146129b5576040519150601f19603f3d011682016040523d82523d5f602084013e6129ba565b606091505b50509050806129f5576040517ff0c49d4400000000000000000000000000000000000000000000000000000000815260040160405180910390fd5b50612a48565b612a4760065f9054906101000a900473ffffffffffffffffffffffffffffffffffffffff16828473ffffffffffffffffffffffffffffffffffffffff16611e309092919063ffffffff16565b5b5050565b60065f9054906101000a900473ffffffffffffffffffffffffffffffffffffffff1673ffffffffffffffffffffffffffffffffffffffff16636c025ec28484846040518463ffffffff1660e01b8152600401612aaa93929190615576565b5f604051808303815f87803b158015612ac1575f80fd5b505af1158015612ad3573d5f803e3d5ffd5b50505050505050565b5f8073ffffffffffffffffffffffffffffffffffffffff168473ffffffffffffffffffffffffffffffffffffffff1603612b505760065f9054906101000a900473ffffffffffffffffffffffffffffffffffffffff1673ffffffffffffffffffffffffffffffffffffffff16319050612bec565b8373ffffffffffffffffffffffffffffffffffffffff166370a0823160065f9054906101000a900473ffffffffffffffffffffffffffffffffffffffff166040518263ffffffff1660e01b8152600401612baa9190613b51565b602060405180830381865afa158015612bc5573d5f803e3d5ffd5b505050506040513d601f19601f82011682018060405250810190612be9919061554b565b90505b5f61271060095f8581526020019081526020015f205f8681526020019081526020015f2054612c1b9190614352565b606e83612c289190614281565b612c3291906142ef565b905080861115612c7b5785816040517fd53662aa000000000000000000000000000000000000000000000000000000008152600401612c729291906153ce565b60405180910390fd5b505050505050565b5f60065f9054906101000a900473ffffffffffffffffffffffffffffffffffffffff1673ffffffffffffffffffffffffffffffffffffffff1663bfd7f9cc30876040518363ffffffff1660e01b8152600401612ce0929190613ea9565b602060405180830381865afa158015612cfb573d5f803e3d5ffd5b505050506040513d601f19601f82011682018060405250810190612d1f91906155bf565b612d55576040517f51c3b94f00000000000000000000000000000000000000000000000000000000815260040160405180910390fd5b5f8403612d8e576040517f07375c8400000000000000000000000000000000000000000000000000000000815260040160405180910390fd5b5f8060065f9054906101000a900473ffffffffffffffffffffffffffffffffffffffff1673ffffffffffffffffffffffffffffffffffffffff16630a5748a8856040518263ffffffff1660e01b8152600401612dea9190613b51565b6040805180830381865afa158015612e04573d5f803e3d5ffd5b505050506040513d601f19601f82011682018060405250810190612e2891906155ea565b915091508115612e6f57806040517f6c2775f5000000000000000000000000000000000000000000000000000000008152600401612e669190613b29565b60405180910390fd5b612e788561131f565b92505f73ffffffffffffffffffffffffffffffffffffffff168773ffffffffffffffffffffffffffffffffffffffff1603612f2e578286612eb9919061431f565b341015612f0a578286612ecc919061431f565b346040517fde9b74a1000000000000000000000000000000000000000000000000000000008152600401612f019291906153ce565b60405180910390fd5b612f298684612f19919061431f565b34612f249190614352565b613133565b612fb7565b82341015612f755782346040517fde9b74a1000000000000000000000000000000000000000000000000000000008152600401612f6c9291906153ce565b60405180910390fd5b612fa28430888a73ffffffffffffffffffffffffffffffffffffffff166131df909392919063ffffffff16565b612fb68334612fb19190614352565b613133565b5b8260015f828254612fc8919061431f565b925050819055505050949350505050565b5f613003828473ffffffffffffffffffffffffffffffffffffffff1661326190919063ffffffff16565b90505f81511415801561302757508080602001905181019061302591906155bf565b155b1561306957826040517f5274afe70000000000000000000000000000000000000000000000000000000081526004016130609190613b51565b60405180910390fd5b505050565b5f80846127108561307f9190614281565b61308991906142ef565b6127106130969190614352565b90505f81612710856130a89190615628565b116130b257600190505b600160075f8a73ffffffffffffffffffffffffffffffffffffffff1673ffffffffffffffffffffffffffffffffffffffff1681526020019081526020015f20600401886019811061310657613105613ed0565b5b602091828204019190066101000a81548160ff021916908315150217905550809250505095945050505050565b5f8103156131dc575f3373ffffffffffffffffffffffffffffffffffffffff168260405161316090613e6e565b5f6040518083038185875af1925050503d805f811461319a576040519150601f19603f3d011682016040523d82523d5f602084013e61319f565b606091505b50509050806131da576040517ff0c49d4400000000000000000000000000000000000000000000000000000000815260040160405180910390fd5b505b50565b61325b848573ffffffffffffffffffffffffffffffffffffffff166323b872dd86868660405160240161321493929190615658565b604051602081830303815290604052915060e01b6020820180517bffffffffffffffffffffffffffffffffffffffffffffffffffffffff8381831617835250505050612fd9565b50505050565b606061326e83835f613276565b905092915050565b6060814710156132bd57306040517fcd7860590000000000000000000000000000000000000000000000000000000081526004016132b49190613b51565b60405180910390fd5b5f808573ffffffffffffffffffffffffffffffffffffffff1684866040516132e591906156ef565b5f6040518083038185875af1925050503d805f811461331f576040519150601f19603f3d011682016040523d82523d5f602084013e613324565b606091505b509150915061333486838361333f565b925050509392505050565b6060826133545761334f826133cc565b6133c4565b5f825114801561337a57505f8473ffffffffffffffffffffffffffffffffffffffff163b145b156133bc57836040517f9996b3150000000000000000000000000000000000000000000000000000000081526004016133b39190613b51565b60405180910390fd5b8190506133c5565b5b9392505050565b5f815111156133de5780518082602001fd5b6040517f1425ea4200000000000000000000000000000000000000000000000000000000815260040160405180910390fd5b505f9055565b6040518061012001604052805f73ffffffffffffffffffffffffffffffffffffffff1681526020015f81526020015f81526020015f67ffffffffffffffff1681526020015f67ffffffffffffffff1681526020015f60ff16815260200161347b613551565b8152602001613488613551565b81526020015f151581525090565b826019601f0160209004810192821561351d579160200282015f5b838211156134ef578335151583826101000a81548160ff02191690831515021790555092602001926001016020815f010492830192600103026134b1565b801561351b5782816101000a81549060ff02191690556001016020815f010492830192600103026134ef565b505b50905061352a9190613574565b5090565b604051806103000160405280601890602082028036833780820191505090505090565b604051806103200160405280601990602082028036833780820191505090505090565b5b8082111561358b575f815f905550600101613575565b5090565b5f604051905090565b5f80fd5b5f80fd5b5f819050919050565b6135b2816135a0565b81146135bc575f80fd5b50565b5f813590506135cd816135a9565b92915050565b5f80fd5b5f601f19601f8301169050919050565b7f4e487b71000000000000000000000000000000000000000000000000000000005f52604160045260245ffd5b61361d826135d7565b810181811067ffffffffffffffff8211171561363c5761363b6135e7565b5b80604052505050565b5f61364e61358f565b905061365a8282613614565b919050565b5f67ffffffffffffffff821115613679576136786135e7565b5b602082029050602081019050919050565b5f80fd5b5f6136a061369b8461365f565b613645565b905080838252602082019050602084028301858111156136c3576136c261368a565b5b835b818110156136ec57806136d888826135bf565b8452602084019350506020810190506136c5565b5050509392505050565b5f82601f83011261370a576137096135d3565b5b813561371a84826020860161368e565b91505092915050565b5f806040838503121561373957613738613598565b5b5f613746858286016135bf565b925050602083013567ffffffffffffffff8111156137675761376661359c565b5b613773858286016136f6565b9150509250929050565b5f73ffffffffffffffffffffffffffffffffffffffff82169050919050565b5f6137a68261377d565b9050919050565b6137b68161379c565b81146137c0575f80fd5b50565b5f813590506137d1816137ad565b92915050565b5f602082840312156137ec576137eb613598565b5b5f6137f9848285016137c3565b91505092915050565b61380b8161379c565b82525050565b61381a816135a0565b82525050565b5f67ffffffffffffffff82169050919050565b61383c81613820565b82525050565b5f60ff82169050919050565b61385781613842565b82525050565b5f60199050919050565b5f81905092915050565b5f819050919050565b5f8115159050919050565b61388e8161387a565b82525050565b5f61389f8383613885565b60208301905092915050565b5f602082019050919050565b6138c08161385d565b6138ca8184613867565b92506138d582613871565b805f5b838110156139055781516138ec8782613894565b96506138f7836138ab565b9250506001810190506138d8565b505050505050565b61072082015f8201516139225f850182613802565b5060208201516139356020850182613811565b5060408201516139486040850182613811565b50606082015161395b6060850182613833565b50608082015161396e6080850182613833565b5060a082015161398160a085018261384e565b5060c082015161399460c08501826138b7565b5060e08201516139a86103e08501826138b7565b506101008201516139bd610700850182613885565b50505050565b5f610720820190506139d75f83018461390d565b92915050565b5f819050826020601902820111156139f8576139f761368a565b5b92915050565b613a078161387a565b8114613a11575f80fd5b50565b5f81359050613a22816139fe565b92915050565b5f806103408385031215613a3f57613a3e613598565b5b5f613a4c858286016139dd565b925050610320613a5e85828601613a14565b9150509250929050565b5f819050919050565b5f613a8b613a86613a818461377d565b613a68565b61377d565b9050919050565b5f613a9c82613a71565b9050919050565b5f613aad82613a92565b9050919050565b613abd81613aa3565b82525050565b5f602082019050613ad65f830184613ab4565b92915050565b5f8060408385031215613af257613af1613598565b5b5f613aff858286016135bf565b9250506020613b10858286016135bf565b9150509250929050565b613b23816135a0565b82525050565b5f602082019050613b3c5f830184613b1a565b92915050565b613b4b8161379c565b82525050565b5f602082019050613b645f830184613b42565b92915050565b613b738161387a565b82525050565b5f602082019050613b8c5f830184613b6a565b92915050565b5f60208284031215613ba757613ba6613598565b5b5f613bb4848285016135bf565b91505092915050565b5f613bc782613a92565b9050919050565b613bd781613bbd565b82525050565b5f602082019050613bf05f830184613bce565b92915050565b5f60189050919050565b5f81905092915050565b5f819050919050565b5f613c1e8383613811565b60208301905092915050565b5f602082019050919050565b613c3f81613bf6565b613c498184613c00565b9250613c5482613c0a565b805f5b83811015613c84578151613c6b8782613c13565b9650613c7683613c2a565b925050600181019050613c57565b505050505050565b5f61030082019050613ca05f830184613c36565b92915050565b5f613cb082613a92565b9050919050565b613cc081613ca6565b82525050565b5f602082019050613cd95f830184613cb7565b92915050565b613ce881613842565b8114613cf2575f80fd5b50565b5f81359050613d0381613cdf565b92915050565b5f805f805f6103a08688031215613d2357613d22613598565b5b5f613d30888289016135bf565b9550506020613d41888289016137c3565b9450506040613d5288828901613cf5565b9350506060613d63888289016139dd565b925050610380613d7588828901613a14565b9150509295509295909350565b7f4e487b71000000000000000000000000000000000000000000000000000000005f52601160045260245ffd5b5f613db982613820565b9150613dc483613820565b9250828201905067ffffffffffffffff811115613de457613de3613d82565b5b92915050565b5f613e04613dff613dfa84613820565b613a68565b6135a0565b9050919050565b613e1481613dea565b82525050565b5f604082019050613e2d5f830185613b1a565b613e3a6020830184613e0b565b9392505050565b5f81905092915050565b50565b5f613e595f83613e41565b9150613e6482613e4b565b5f82019050919050565b5f613e7882613e4e565b9150819050919050565b5f604082019050613e955f830185613b1a565b613ea26020830184613b42565b9392505050565b5f604082019050613ebc5f830185613b42565b613ec96020830184613b42565b9392505050565b7f4e487b71000000000000000000000000000000000000000000000000000000005f52603260045260245ffd5b5f60208284031215613f1257613f11613598565b5b5f613f1f84828501613a14565b91505092915050565b613f3181613842565b82525050565b5f602082019050613f4a5f830184613f28565b92915050565b5f63ffffffff82169050919050565b5f613f6982613f50565b915063ffffffff8203613f7f57613f7e613d82565b5b600182019050919050565b5f613f9482613842565b915060ff8203613fa757613fa6613d82565b5b600182019050919050565b5f613fbc82613f50565b9150613fc783613f50565b9250828201905063ffffffff811115613fe357613fe2613d82565b5b92915050565b613ff281613f50565b82525050565b5f60408201905061400b5f830185613fe9565b6140186020830184613b1a565b9392505050565b5f8151905061402d816137ad565b92915050565b5f6020828403121561404857614047613598565b5b5f6140558482850161401f565b91505092915050565b5f69ffffffffffffffffffff82169050919050565b61407c8161405e565b8114614086575f80fd5b50565b5f8151905061409781614073565b92915050565b5f819050919050565b6140af8161409d565b81146140b9575f80fd5b50565b5f815190506140ca816140a6565b92915050565b5f815190506140de816135a9565b92915050565b5f805f805f60a086880312156140fd576140fc613598565b5b5f61410a88828901614089565b955050602061411b888289016140bc565b945050604061412c888289016140d0565b935050606061413d888289016140d0565b925050608061414e88828901614089565b9150509295509295909350565b61416481613f50565b811461416e575f80fd5b50565b5f8151905061417f8161415b565b92915050565b5f62ffffff82169050919050565b61419c81614185565b81146141a6575f80fd5b50565b5f815190506141b781614193565b92915050565b5f805f805f805f805f6101208a8c0312156141db576141da613598565b5b5f6141e88c828d01614171565b99505060206141f98c828d01614171565b985050604061420a8c828d01614171565b975050606061421b8c828d01614171565b965050608061422c8c828d01614171565b95505060a061423d8c828d016141a9565b94505060c061424e8c828d016141a9565b93505060e061425f8c828d016141a9565b9250506101006142718c828d016141a9565b9150509295985092959850929598565b5f61428b826135a0565b9150614296836135a0565b92508282026142a4816135a0565b915082820484148315176142bb576142ba613d82565b5b5092915050565b7f4e487b71000000000000000000000000000000000000000000000000000000005f52601260045260245ffd5b5f6142f9826135a0565b9150614304836135a0565b925082614314576143136142c2565b5b828204905092915050565b5f614329826135a0565b9150614334836135a0565b925082820190508082111561434c5761434b613d82565b5b92915050565b5f61435c826135a0565b9150614367836135a0565b925082820390508181111561437f5761437e613d82565b5b92915050565b5f61438f826135a0565b91507fffffffffffffffffffffffffffffffffffffffffffffffffffffffffffffffff82036143c1576143c0613d82565b5b600182019050919050565b5f6143e66143e16143dc84613842565b613a68565b6135a0565b9050919050565b6143f6816143cc565b82525050565b5f81905092915050565b61440f8161385d565b61441981846143fc565b925061442482613871565b805f5b8381101561445457815161443b8782613894565b9650614446836138ab565b925050600181019050614427565b505050505050565b5f6103c0820190506144705f830189613b1a565b61447d6020830188613b1a565b61448a6040830187613b42565b61449760608301866143ed565b6144a46080830185614406565b6144b26103a0830184613b1a565b979650505050505050565b5f60a0820190506144d05f830188613b1a565b6144dd6020830187613b42565b6144ea6040830186613f28565b6144f76060830185613b6a565b6145046080830184613b1a565b9695505050505050565b5f82825260208201905092915050565b7f5265656e7472616e637947756172643a207265656e7472616e742063616c6c005f82015250565b5f614552601f8361450e565b915061455d8261451e565b602082019050919050565b5f6020820190508181035f83015261457f81614546565b9050919050565b5f6040820190506145995f830185613b42565b6145a66020830184613b1a565b9392505050565b5f6145b782613842565b91506145c283613842565b9250828203905060ff8111156145db576145da613d82565b5b92915050565b5f819050919050565b5f6146046145ff6145fa846145e1565b613a68565b6135a0565b9050919050565b614614816145ea565b82525050565b5f60199050919050565b5f819050919050565b5f815f1c9050919050565b5f60ff82169050919050565b5f6146566146518361462d565b614638565b9050919050565b5f8160081c9050919050565b5f61467b6146768361465d565b614638565b9050919050565b5f8160101c9050919050565b5f6146a061469b83614682565b614638565b9050919050565b5f8160181c9050919050565b5f6146c56146c0836146a7565b614638565b9050919050565b5f8160201c9050919050565b5f6146ea6146e5836146cc565b614638565b9050919050565b5f8160281c9050919050565b5f61470f61470a836146f1565b614638565b9050919050565b5f8160301c9050919050565b5f61473461472f83614716565b614638565b9050919050565b5f8160381c9050919050565b5f6147596147548361473b565b614638565b9050919050565b5f8160401c9050919050565b5f61477e61477983614760565b614638565b9050919050565b5f8160481c9050919050565b5f6147a361479e83614785565b614638565b9050919050565b5f8160501c9050919050565b5f6147c86147c3836147aa565b614638565b9050919050565b5f8160581c9050919050565b5f6147ed6147e8836147cf565b614638565b9050919050565b5f8160601c9050919050565b5f61481261480d836147f4565b614638565b9050919050565b5f8160681c9050919050565b5f61483761483283614819565b614638565b9050919050565b5f8160701c9050919050565b5f61485c6148578361483e565b614638565b9050919050565b5f8160781c9050919050565b5f61488161487c83614863565b614638565b9050919050565b5f8160801c9050919050565b5f6148a66148a183614888565b614638565b9050919050565b5f8160881c9050919050565b5f6148cb6148c6836148ad565b614638565b9050919050565b5f8160901c9050919050565b5f6148f06148eb836148d2565b614638565b9050919050565b5f8160981c9050919050565b5f614915614910836148f7565b614638565b9050919050565b5f8160a01c9050919050565b5f61493a6149358361491c565b614638565b9050919050565b5f8160a81c9050919050565b5f61495f61495a83614941565b614638565b9050919050565b5f8160b01c9050919050565b5f61498461497f83614966565b614638565b9050919050565b5f8160b81c9050919050565b5f6149a96149a48361498b565b614638565b9050919050565b5f8160c01c9050919050565b5f6149ce6149c9836149b0565b614638565b9050919050565b5f8160c81c9050919050565b5f6149f36149ee836149d5565b614638565b9050919050565b5f8160d01c9050919050565b5f614a18614a13836149fa565b614638565b9050919050565b5f8160d81c9050919050565b5f614a3d614a3883614a1f565b614638565b9050919050565b5f8160e01c9050919050565b5f614a62614a5d83614a44565b614638565b9050919050565b5f8160e81c9050919050565b5f614a87614a8283614a69565b614638565b9050919050565b5f8160f01c9050919050565b5f614aac614aa783614a8e565b614638565b9050919050565b5f8160f81c9050919050565b5f614ad1614acc83614ab3565b614638565b9050919050565b614ae18161461a565b614aeb81846143fc565b925082614af783614624565b5f8015614e22575b83600160200382011015614e21578154614b2187614b1c83614644565b613885565b602087019650614b3987614b3483614669565b613885565b602087019650614b5187614b4c8361468e565b613885565b602087019650614b6987614b64836146b3565b613885565b602087019650614b8187614b7c836146d8565b613885565b602087019650614b9987614b94836146fd565b613885565b602087019650614bb187614bac83614722565b613885565b602087019650614bc987614bc483614747565b613885565b602087019650614be187614bdc8361476c565b613885565b602087019650614bf987614bf483614791565b613885565b602087019650614c1187614c0c836147b6565b613885565b602087019650614c2987614c24836147db565b613885565b602087019650614c4187614c3c83614800565b613885565b602087019650614c5987614c5483614825565b613885565b602087019650614c7187614c6c8361484a565b613885565b602087019650614c8987614c848361486f565b613885565b602087019650614ca187614c9c83614894565b613885565b602087019650614cb987614cb4836148b9565b613885565b602087019650614cd187614ccc836148de565b613885565b602087019650614ce987614ce483614903565b613885565b602087019650614d0187614cfc83614928565b613885565b602087019650614d1987614d148361494d565b613885565b602087019650614d3187614d2c83614972565b613885565b602087019650614d4987614d4483614997565b613885565b602087019650614d6187614d5c836149bc565b613885565b602087019650614d7987614d74836149e1565b613885565b602087019650614d9187614d8c83614a06565b613885565b602087019650614da987614da483614a2b565b613885565b602087019650614dc187614dbc83614a50565b613885565b602087019650614dd987614dd483614a75565b613885565b602087019650614df187614dec83614a9a565b613885565b602087019650614e0987614e0483614abf565b613885565b60208701965060018301925050602081019050614aff565b5b6001156152e6578154600115614e5157614e4487614e3f83614644565b613885565b6020870196506001820191505b600115614e7757614e6a87614e6583614669565b613885565b6020870196506001820191505b600115614e9d57614e9087614e8b8361468e565b613885565b6020870196506001820191505b600115614ec357614eb687614eb1836146b3565b613885565b6020870196506001820191505b600115614ee957614edc87614ed7836146d8565b613885565b6020870196506001820191505b600115614f0f57614f0287614efd836146fd565b613885565b6020870196506001820191505b600115614f3557614f2887614f2383614722565b613885565b6020870196506001820191505b600115614f5b57614f4e87614f4983614747565b613885565b6020870196506001820191505b600115614f8157614f7487614f6f8361476c565b613885565b6020870196506001820191505b600115614fa757614f9a87614f9583614791565b613885565b6020870196506001820191505b600115614fcd57614fc087614fbb836147b6565b613885565b6020870196506001820191505b600115614ff357614fe687614fe1836147db565b613885565b6020870196506001820191505b6001156150195761500c8761500783614800565b613885565b6020870196506001820191505b60011561503f576150328761502d83614825565b613885565b6020870196506001820191505b60011561506557615058876150538361484a565b613885565b6020870196506001820191505b60011561508b5761507e876150798361486f565b613885565b6020870196506001820191505b6001156150b1576150a48761509f83614894565b613885565b6020870196506001820191505b6001156150d7576150ca876150c5836148b9565b613885565b6020870196506001820191505b6001156150fd576150f0876150eb836148de565b613885565b6020870196506001820191505b600115615123576151168761511183614903565b613885565b6020870196506001820191505b6001156151495761513c8761513783614928565b613885565b6020870196506001820191505b60011561516f576151628761515d8361494d565b613885565b6020870196506001820191505b600115615195576151888761518383614972565b613885565b6020870196506001820191505b6001156151bb576151ae876151a983614997565b613885565b6020870196506001820191505b6001156151e1576151d4876151cf836149bc565b613885565b6020870196506001820191505b5f15615206576151f9876151f4836149e1565b613885565b6020870196506001820191505b5f1561522b5761521e8761521983614a06565b613885565b6020870196506001820191505b5f15615250576152438761523e83614a2b565b613885565b6020870196506001820191505b5f15615275576152688761526383614a50565b613885565b6020870196506001820191505b5f1561529a5761528d8761528883614a75565b613885565b6020870196506001820191505b5f156152bf576152b2876152ad83614a9a565b613885565b6020870196506001820191505b5f156152e4576152d7876152d283614abf565b613885565b6020870196506001820191505b505b505050505050565b5f6106e0820190506153025f83018a613b1a565b61530f602083018961460b565b61531c6040830188613b42565b61532960608301876143ed565b6153366080830186614406565b6153446103a0830185614ad8565b6153526106c083018461460b565b98975050505050505050565b5f6106e0820190506153725f83018a613b1a565b61537f6020830189613b1a565b61538c6040830188613b42565b61539960608301876143ed565b6153a66080830186614406565b6153b46103a0830185614ad8565b6153c26106c0830184613b1a565b98975050505050505050565b5f6040820190506153e15f830185613b1a565b6153ee6020830184613b1a565b9392505050565b5f819050919050565b5f819050919050565b5f815f1b9050919050565b5f61542c615427615422846153f5565b615407565b6153fe565b9050919050565b61543c81615412565b82525050565b5f819050919050565b5f61546561546061545b84615442565b613a68565b613820565b9050919050565b6154758161544b565b82525050565b5f819050919050565b5f61ffff82169050919050565b5f6154ab6154a66154a18461547b565b613a68565b615484565b9050919050565b6154bb81615491565b82525050565b5f819050919050565b5f6154e46154df6154da846154c1565b613a68565b613f50565b9050919050565b6154f4816154ca565b82525050565b5f60a08201905061550d5f830188615433565b61551a602083018761546c565b61552760408301866154b2565b61553460608301856154eb565b6155416080830184613fe9565b9695505050505050565b5f602082840312156155605761555f613598565b5b5f61556d848285016140d0565b91505092915050565b5f6060820190506155895f830186613b42565b6155966020830185613b1a565b6155a36040830184613b42565b949350505050565b5f815190506155b9816139fe565b92915050565b5f602082840312156155d4576155d3613598565b5b5f6155e1848285016155ab565b91505092915050565b5f8060408385031215615600576155ff613598565b5b5f61560d858286016155ab565b925050602061561e858286016140d0565b9150509250929050565b5f615632826135a0565b915061563d836135a0565b92508261564d5761564c6142c2565b5b828206905092915050565b5f60608201905061566b5f830186613b42565b6156786020830185613b42565b6156856040830184613b1a565b949350505050565b5f81519050919050565b5f5b838110156156b4578082015181840152602081019050615699565b5f8484015250505050565b5f6156c98261568d565b6156d38185613e41565b93506156e3818560208601615697565b80840191505092915050565b5f6156fa82846156bf565b91508190509291505056fea2646970667358221220036c26488b33bf37212f60005a8433da7a483f1e80f725825de44ac9c2842e0b64736f6c63430008140033",
			"opcodes": "PUSH1 0x80 PUSH1 0x40 MSTORE CALLVALUE DUP1 ISZERO PUSH3 0x10 JUMPI PUSH0 DUP1 REVERT JUMPDEST POP PUSH1 0x40 MLOAD PUSH3 0x5CBA CODESIZE SUB DUP1 PUSH3 0x5CBA DUP4 CODECOPY DUP2 DUP2 ADD PUSH1 0x40 MSTORE DUP2 ADD SWAP1 PUSH3 0x36 SWAP2 SWAP1 PUSH3 0x403 JUMP JUMPDEST PUSH1 0x1 PUSH0 DUP2 SWAP1 SSTORE POP DUP5 PUSH1 0x6 PUSH0 PUSH2 0x100 EXP DUP2 SLOAD DUP2 PUSH20 0xFFFFFFFFFFFFFFFFFFFFFFFFFFFFFFFFFFFFFFFF MUL NOT AND SWAP1 DUP4 PUSH20 0xFFFFFFFFFFFFFFFFFFFFFFFFFFFFFFFFFFFFFFFF AND MUL OR SWAP1 SSTORE POP DUP4 PUSH1 0x5 PUSH0 PUSH2 0x100 EXP DUP2 SLOAD DUP2 PUSH20 0xFFFFFFFFFFFFFFFFFFFFFFFFFFFFFFFFFFFFFFFF MUL NOT AND SWAP1 DUP4 PUSH20 0xFFFFFFFFFFFFFFFFFFFFFFFFFFFFFFFFFFFFFFFF AND MUL OR SWAP1 SSTORE POP DUP3 PUSH1 0x4 PUSH0 PUSH2 0x100 EXP DUP2 SLOAD DUP2 PUSH20 0xFFFFFFFFFFFFFFFFFFFFFFFFFFFFFFFFFFFFFFFF MUL NOT AND SWAP1 DUP4 PUSH20 0xFFFFFFFFFFFFFFFFFFFFFFFFFFFFFFFFFFFFFFFF AND MUL OR SWAP1 SSTORE POP DUP4 PUSH1 0x2 PUSH0 PUSH2 0x100 EXP DUP2 SLOAD DUP2 PUSH20 0xFFFFFFFFFFFFFFFFFFFFFFFFFFFFFFFFFFFFFFFF MUL NOT AND SWAP1 DUP4 PUSH20 0xFFFFFFFFFFFFFFFFFFFFFFFFFFFFFFFFFFFFFFFF AND MUL OR SWAP1 SSTORE POP PUSH3 0x14E DUP2 PUSH3 0x199 PUSH1 0x20 SHL PUSH1 0x20 SHR JUMP JUMPDEST DUP2 PUSH1 0x3 PUSH0 PUSH2 0x100 EXP DUP2 SLOAD DUP2 PUSH20 0xFFFFFFFFFFFFFFFFFFFFFFFFFFFFFFFFFFFFFFFF MUL NOT AND SWAP1 DUP4 PUSH20 0xFFFFFFFFFFFFFFFFFFFFFFFFFFFFFFFFFFFFFFFF AND MUL OR SWAP1 SSTORE POP POP POP POP POP POP PUSH3 0x571 JUMP JUMPDEST PUSH0 JUMPDEST PUSH1 0x18 DUP2 LT ISZERO PUSH3 0x1FC JUMPI DUP2 DUP2 PUSH1 0x18 DUP2 LT PUSH3 0x1BB JUMPI PUSH3 0x1BA PUSH3 0x488 JUMP JUMPDEST JUMPDEST PUSH1 0x20 MUL ADD MLOAD PUSH1 0xFF AND PUSH1 0xA PUSH0 PUSH1 0x1 DUP5 PUSH3 0x1D5 SWAP2 SWAP1 PUSH3 0x4EB JUMP JUMPDEST DUP2 MSTORE PUSH1 0x20 ADD SWAP1 DUP2 MSTORE PUSH1 0x20 ADD PUSH0 KECCAK256 DUP2 SWAP1 SSTORE POP DUP1 DUP1 PUSH3 0x1F3 SWAP1 PUSH3 0x525 JUMP JUMPDEST SWAP2 POP POP PUSH3 0x19B JUMP JUMPDEST POP POP JUMP JUMPDEST PUSH0 PUSH1 0x40 MLOAD SWAP1 POP SWAP1 JUMP JUMPDEST PUSH0 DUP1 REVERT JUMPDEST PUSH0 PUSH20 0xFFFFFFFFFFFFFFFFFFFFFFFFFFFFFFFFFFFFFFFF DUP3 AND SWAP1 POP SWAP2 SWAP1 POP JUMP JUMPDEST PUSH0 PUSH3 0x238 DUP3 PUSH3 0x20D JUMP JUMPDEST SWAP1 POP SWAP2 SWAP1 POP JUMP JUMPDEST PUSH3 0x24A DUP2 PUSH3 0x22C JUMP JUMPDEST DUP2 EQ PUSH3 0x255 JUMPI PUSH0 DUP1 REVERT JUMPDEST POP JUMP JUMPDEST PUSH0 DUP2 MLOAD SWAP1 POP PUSH3 0x268 DUP2 PUSH3 0x23F JUMP JUMPDEST SWAP3 SWAP2 POP POP JUMP JUMPDEST PUSH0 DUP1 REVERT JUMPDEST PUSH0 PUSH1 0x1F NOT PUSH1 0x1F DUP4 ADD AND SWAP1 POP SWAP2 SWAP1 POP JUMP JUMPDEST PUSH32 0x4E487B7100000000000000000000000000000000000000000000000000000000 PUSH0 MSTORE PUSH1 0x41 PUSH1 0x4 MSTORE PUSH1 0x24 PUSH0 REVERT JUMPDEST PUSH3 0x2BA DUP3 PUSH3 0x272 JUMP JUMPDEST DUP2 ADD DUP2 DUP2 LT PUSH8 0xFFFFFFFFFFFFFFFF DUP3 GT OR ISZERO PUSH3 0x2DC JUMPI PUSH3 0x2DB PUSH3 0x282 JUMP JUMPDEST JUMPDEST DUP1 PUSH1 0x40 MSTORE POP POP POP JUMP JUMPDEST PUSH0 PUSH3 0x2F0 PUSH3 0x200 JUMP JUMPDEST SWAP1 POP PUSH3 0x2FE DUP3 DUP3 PUSH3 0x2AF JUMP JUMPDEST SWAP2 SWAP1 POP JUMP JUMPDEST PUSH0 PUSH8 0xFFFFFFFFFFFFFFFF DUP3 GT ISZERO PUSH3 0x320 JUMPI PUSH3 0x31F PUSH3 0x282 JUMP JUMPDEST JUMPDEST PUSH1 0x20 DUP3 MUL SWAP1 POP SWAP2 SWAP1 POP JUMP JUMPDEST PUSH0 DUP1 REVERT JUMPDEST PUSH0 PUSH1 0xFF DUP3 AND SWAP1 POP SWAP2 SWAP1 POP JUMP JUMPDEST PUSH3 0x346 DUP2 PUSH3 0x32F JUMP JUMPDEST DUP2 EQ PUSH3 0x351 JUMPI PUSH0 DUP1 REVERT JUMPDEST POP JUMP JUMPDEST PUSH0 DUP2 MLOAD SWAP1 POP PUSH3 0x364 DUP2 PUSH3 0x33B JUMP JUMPDEST SWAP3 SWAP2 POP POP JUMP JUMPDEST PUSH0 PUSH3 0x380 PUSH3 0x37A DUP5 PUSH3 0x303 JUMP JUMPDEST PUSH3 0x2E5 JUMP JUMPDEST SWAP1 POP DUP1 PUSH1 0x20 DUP5 MUL DUP4 ADD DUP6 DUP2 GT ISZERO PUSH3 0x39D JUMPI PUSH3 0x39C PUSH3 0x32B JUMP JUMPDEST JUMPDEST DUP4 JUMPDEST DUP2 DUP2 LT ISZERO PUSH3 0x3CA JUMPI DUP1 PUSH3 0x3B5 DUP9 DUP3 PUSH3 0x354 JUMP JUMPDEST DUP5 MSTORE PUSH1 0x20 DUP5 ADD SWAP4 POP POP PUSH1 0x20 DUP2 ADD SWAP1 POP PUSH3 0x39F JUMP JUMPDEST POP POP POP SWAP4 SWAP3 POP POP POP JUMP JUMPDEST PUSH0 DUP3 PUSH1 0x1F DUP4 ADD SLT PUSH3 0x3EB JUMPI PUSH3 0x3EA PUSH3 0x26E JUMP JUMPDEST JUMPDEST PUSH1 0x18 PUSH3 0x3FA DUP5 DUP3 DUP6 PUSH3 0x36A JUMP JUMPDEST SWAP2 POP POP SWAP3 SWAP2 POP POP JUMP JUMPDEST PUSH0 DUP1 PUSH0 DUP1 PUSH0 PUSH2 0x380 DUP7 DUP9 SUB SLT ISZERO PUSH3 0x420 JUMPI PUSH3 0x41F PUSH3 0x209 JUMP JUMPDEST JUMPDEST PUSH0 PUSH3 0x42F DUP9 DUP3 DUP10 ADD PUSH3 0x258 JUMP JUMPDEST SWAP6 POP POP PUSH1 0x20 PUSH3 0x442 DUP9 DUP3 DUP10 ADD PUSH3 0x258 JUMP JUMPDEST SWAP5 POP POP PUSH1 0x40 PUSH3 0x455 DUP9 DUP3 DUP10 ADD PUSH3 0x258 JUMP JUMPDEST SWAP4 POP POP PUSH1 0x60 PUSH3 0x468 DUP9 DUP3 DUP10 ADD PUSH3 0x258 JUMP JUMPDEST SWAP3 POP POP PUSH1 0x80 PUSH3 0x47B DUP9 DUP3 DUP10 ADD PUSH3 0x3D4 JUMP JUMPDEST SWAP2 POP POP SWAP3 SWAP6 POP SWAP3 SWAP6 SWAP1 SWAP4 POP JUMP JUMPDEST PUSH32 0x4E487B7100000000000000000000000000000000000000000000000000000000 PUSH0 MSTORE PUSH1 0x32 PUSH1 0x4 MSTORE PUSH1 0x24 PUSH0 REVERT JUMPDEST PUSH0 DUP2 SWAP1 POP SWAP2 SWAP1 POP JUMP JUMPDEST PUSH32 0x4E487B7100000000000000000000000000000000000000000000000000000000 PUSH0 MSTORE PUSH1 0x11 PUSH1 0x4 MSTORE PUSH1 0x24 PUSH0 REVERT JUMPDEST PUSH0 PUSH3 0x4F7 DUP3 PUSH3 0x4B5 JUMP JUMPDEST SWAP2 POP PUSH3 0x504 DUP4 PUSH3 0x4B5 JUMP JUMPDEST SWAP3 POP DUP3 DUP3 ADD SWAP1 POP DUP1 DUP3 GT ISZERO PUSH3 0x51F JUMPI PUSH3 0x51E PUSH3 0x4BE JUMP JUMPDEST JUMPDEST SWAP3 SWAP2 POP POP JUMP JUMPDEST PUSH0 PUSH3 0x531 DUP3 PUSH3 0x4B5 JUMP JUMPDEST SWAP2 POP PUSH32 0xFFFFFFFFFFFFFFFFFFFFFFFFFFFFFFFFFFFFFFFFFFFFFFFFFFFFFFFFFFFFFFFF DUP3 SUB PUSH3 0x566 JUMPI PUSH3 0x565 PUSH3 0x4BE JUMP JUMPDEST JUMPDEST PUSH1 0x1 DUP3 ADD SWAP1 POP SWAP2 SWAP1 POP JUMP JUMPDEST PUSH2 0x573B DUP1 PUSH3 0x57F PUSH0 CODECOPY PUSH0 RETURN INVALID PUSH1 0x80 PUSH1 0x40 MSTORE PUSH1 0x4 CALLDATASIZE LT PUSH2 0x108 JUMPI PUSH0 CALLDATALOAD PUSH1 0xE0 SHR DUP1 PUSH4 0x8BD16114 GT PUSH2 0x94 JUMPI DUP1 PUSH4 0xAD178361 GT PUSH2 0x63 JUMPI DUP1 PUSH4 0xAD178361 EQ PUSH2 0x34E JUMPI DUP1 PUSH4 0xB5F2DA97 EQ PUSH2 0x378 JUMPI DUP1 PUSH4 0xC6318AAD EQ PUSH2 0x38E JUMPI DUP1 PUSH4 0xD0BCFC0C EQ PUSH2 0x3B8 JUMPI DUP1 PUSH4 0xEB5D8075 EQ PUSH2 0x3E2 JUMPI PUSH2 0x108 JUMP JUMPDEST DUP1 PUSH4 0x8BD16114 EQ PUSH2 0x296 JUMPI DUP1 PUSH4 0x8D7C16D2 EQ PUSH2 0x2D2 JUMPI DUP1 PUSH4 0x953995EA EQ PUSH2 0x2FC JUMPI DUP1 PUSH4 0xA6D18C51 EQ PUSH2 0x326 JUMPI PUSH2 0x108 JUMP JUMPDEST DUP1 PUSH4 0x4DD189D5 GT PUSH2 0xDB JUMPI DUP1 PUSH4 0x4DD189D5 EQ PUSH2 0x1A2 JUMPI DUP1 PUSH4 0x50FFD786 EQ PUSH2 0x1CC JUMPI DUP1 PUSH4 0x56C022BB EQ PUSH2 0x208 JUMPI DUP1 PUSH4 0x572B6C05 EQ PUSH2 0x232 JUMPI DUP1 PUSH4 0x63DC4EF5 EQ PUSH2 0x26E JUMPI PUSH2 0x108 JUMP JUMPDEST DUP1 PUSH4 0xF53B826 EQ PUSH2 0x10C JUMPI DUP1 PUSH4 0x1FE543E3 EQ PUSH2 0x122 JUMPI DUP1 PUSH4 0x20ADE003 EQ PUSH2 0x14A JUMPI DUP1 PUSH4 0x320A5135 EQ PUSH2 0x186 JUMPI JUMPDEST PUSH0 DUP1 REVERT JUMPDEST CALLVALUE DUP1 ISZERO PUSH2 0x117 JUMPI PUSH0 DUP1 REVERT JUMPDEST POP PUSH2 0x120 PUSH2 0x3FE JUMP JUMPDEST STOP JUMPDEST CALLVALUE DUP1 ISZERO PUSH2 0x12D JUMPI PUSH0 DUP1 REVERT JUMPDEST POP PUSH2 0x148 PUSH1 0x4 DUP1 CALLDATASIZE SUB DUP2 ADD SWAP1 PUSH2 0x143 SWAP2 SWAP1 PUSH2 0x3723 JUMP JUMPDEST PUSH2 0x930 JUMP JUMPDEST STOP JUMPDEST CALLVALUE DUP1 ISZERO PUSH2 0x155 JUMPI PUSH0 DUP1 REVERT JUMPDEST POP PUSH2 0x170 PUSH1 0x4 DUP1 CALLDATASIZE SUB DUP2 ADD SWAP1 PUSH2 0x16B SWAP2 SWAP1 PUSH2 0x37D7 JUMP JUMPDEST PUSH2 0x9F2 JUMP JUMPDEST PUSH1 0x40 MLOAD PUSH2 0x17D SWAP2 SWAP1 PUSH2 0x39C3 JUMP JUMPDEST PUSH1 0x40 MLOAD DUP1 SWAP2 SUB SWAP1 RETURN JUMPDEST PUSH2 0x1A0 PUSH1 0x4 DUP1 CALLDATASIZE SUB DUP2 ADD SWAP1 PUSH2 0x19B SWAP2 SWAP1 PUSH2 0x3A28 JUMP JUMPDEST PUSH2 0xC1C JUMP JUMPDEST STOP JUMPDEST CALLVALUE DUP1 ISZERO PUSH2 0x1AD JUMPI PUSH0 DUP1 REVERT JUMPDEST POP PUSH2 0x1B6 PUSH2 0x1006 JUMP JUMPDEST PUSH1 0x40 MLOAD PUSH2 0x1C3 SWAP2 SWAP1 PUSH2 0x3AC3 JUMP JUMPDEST PUSH1 0x40 MLOAD DUP1 SWAP2 SUB SWAP1 RETURN JUMPDEST CALLVALUE DUP1 ISZERO PUSH2 0x1D7 JUMPI PUSH0 DUP1 REVERT JUMPDEST POP PUSH2 0x1F2 PUSH1 0x4 DUP1 CALLDATASIZE SUB DUP2 ADD SWAP1 PUSH2 0x1ED SWAP2 SWAP1 PUSH2 0x3ADC JUMP JUMPDEST PUSH2 0x102B JUMP JUMPDEST PUSH1 0x40 MLOAD PUSH2 0x1FF SWAP2 SWAP1 PUSH2 0x3B29 JUMP JUMPDEST PUSH1 0x40 MLOAD DUP1 SWAP2 SUB SWAP1 RETURN JUMPDEST CALLVALUE DUP1 ISZERO PUSH2 0x213 JUMPI PUSH0 DUP1 REVERT JUMPDEST POP PUSH2 0x21C PUSH2 0x1055 JUMP JUMPDEST PUSH1 0x40 MLOAD PUSH2 0x229 SWAP2 SWAP1 PUSH2 0x3B51 JUMP JUMPDEST PUSH1 0x40 MLOAD DUP1 SWAP2 SUB SWAP1 RETURN JUMPDEST CALLVALUE DUP1 ISZERO PUSH2 0x23D JUMPI PUSH0 DUP1 REVERT JUMPDEST POP PUSH2 0x258 PUSH1 0x4 DUP1 CALLDATASIZE SUB DUP2 ADD SWAP1 PUSH2 0x253 SWAP2 SWAP1 PUSH2 0x37D7 JUMP JUMPDEST PUSH2 0x107A JUMP JUMPDEST PUSH1 0x40 MLOAD PUSH2 0x265 SWAP2 SWAP1 PUSH2 0x3B79 JUMP JUMPDEST PUSH1 0x40 MLOAD DUP1 SWAP2 SUB SWAP1 RETURN JUMPDEST CALLVALUE DUP1 ISZERO PUSH2 0x279 JUMPI PUSH0 DUP1 REVERT JUMPDEST POP PUSH2 0x294 PUSH1 0x4 DUP1 CALLDATASIZE SUB DUP2 ADD SWAP1 PUSH2 0x28F SWAP2 SWAP1 PUSH2 0x37D7 JUMP JUMPDEST PUSH2 0x10D2 JUMP JUMPDEST STOP JUMPDEST CALLVALUE DUP1 ISZERO PUSH2 0x2A1 JUMPI PUSH0 DUP1 REVERT JUMPDEST POP PUSH2 0x2BC PUSH1 0x4 DUP1 CALLDATASIZE SUB DUP2 ADD SWAP1 PUSH2 0x2B7 SWAP2 SWAP1 PUSH2 0x3B92 JUMP JUMPDEST PUSH2 0x131F JUMP JUMPDEST PUSH1 0x40 MLOAD PUSH2 0x2C9 SWAP2 SWAP1 PUSH2 0x3B29 JUMP JUMPDEST PUSH1 0x40 MLOAD DUP1 SWAP2 SUB SWAP1 RETURN JUMPDEST CALLVALUE DUP1 ISZERO PUSH2 0x2DD JUMPI PUSH0 DUP1 REVERT JUMPDEST POP PUSH2 0x2E6 PUSH2 0x14A3 JUMP JUMPDEST PUSH1 0x40 MLOAD PUSH2 0x2F3 SWAP2 SWAP1 PUSH2 0x3B29 JUMP JUMPDEST PUSH1 0x40 MLOAD DUP1 SWAP2 SUB SWAP1 RETURN JUMPDEST CALLVALUE DUP1 ISZERO PUSH2 0x307 JUMPI PUSH0 DUP1 REVERT JUMPDEST POP PUSH2 0x310 PUSH2 0x14A9 JUMP JUMPDEST PUSH1 0x40 MLOAD PUSH2 0x31D SWAP2 SWAP1 PUSH2 0x3B51 JUMP JUMPDEST PUSH1 0x40 MLOAD DUP1 SWAP2 SUB SWAP1 RETURN JUMPDEST CALLVALUE DUP1 ISZERO PUSH2 0x331 JUMPI PUSH0 DUP1 REVERT JUMPDEST POP PUSH2 0x34C PUSH1 0x4 DUP1 CALLDATASIZE SUB DUP2 ADD SWAP1 PUSH2 0x347 SWAP2 SWAP1 PUSH2 0x3B92 JUMP JUMPDEST PUSH2 0x14CE JUMP JUMPDEST STOP JUMPDEST CALLVALUE DUP1 ISZERO PUSH2 0x359 JUMPI PUSH0 DUP1 REVERT JUMPDEST POP PUSH2 0x362 PUSH2 0x15FB JUMP JUMPDEST PUSH1 0x40 MLOAD PUSH2 0x36F SWAP2 SWAP1 PUSH2 0x3BDD JUMP JUMPDEST PUSH1 0x40 MLOAD DUP1 SWAP2 SUB SWAP1 RETURN JUMPDEST CALLVALUE DUP1 ISZERO PUSH2 0x383 JUMPI PUSH0 DUP1 REVERT JUMPDEST POP PUSH2 0x38C PUSH2 0x1620 JUMP JUMPDEST STOP JUMPDEST CALLVALUE DUP1 ISZERO PUSH2 0x399 JUMPI PUSH0 DUP1 REVERT JUMPDEST POP PUSH2 0x3A2 PUSH2 0x1963 JUMP JUMPDEST PUSH1 0x40 MLOAD PUSH2 0x3AF SWAP2 SWAP1 PUSH2 0x3C8C JUMP JUMPDEST PUSH1 0x40 MLOAD DUP1 SWAP2 SUB SWAP1 RETURN JUMPDEST CALLVALUE DUP1 ISZERO PUSH2 0x3C3 JUMPI PUSH0 DUP1 REVERT JUMPDEST POP PUSH2 0x3CC PUSH2 0x19C7 JUMP JUMPDEST PUSH1 0x40 MLOAD PUSH2 0x3D9 SWAP2 SWAP1 PUSH2 0x3CC6 JUMP JUMPDEST PUSH1 0x40 MLOAD DUP1 SWAP2 SUB SWAP1 RETURN JUMPDEST PUSH2 0x3FC PUSH1 0x4 DUP1 CALLDATASIZE SUB DUP2 ADD SWAP1 PUSH2 0x3F7 SWAP2 SWAP1 PUSH2 0x3D09 JUMP JUMPDEST PUSH2 0x19EC JUMP JUMPDEST STOP JUMPDEST PUSH2 0x406 PUSH2 0x1DAE JUMP JUMPDEST PUSH0 PUSH2 0x40F PUSH2 0x1DFB JUMP JUMPDEST SWAP1 POP PUSH0 PUSH1 0x7 PUSH0 DUP4 PUSH20 0xFFFFFFFFFFFFFFFFFFFFFFFFFFFFFFFFFFFFFFFF AND PUSH20 0xFFFFFFFFFFFFFFFFFFFFFFFFFFFFFFFFFFFFFFFF AND DUP2 MSTORE PUSH1 0x20 ADD SWAP1 DUP2 MSTORE PUSH1 0x20 ADD PUSH0 KECCAK256 PUSH1 0x3 ADD PUSH1 0x10 SWAP1 SLOAD SWAP1 PUSH2 0x100 EXP SWAP1 DIV PUSH1 0xFF AND PUSH1 0xFF AND SUB PUSH2 0x49A JUMPI PUSH1 0x40 MLOAD PUSH32 0x43050D9600000000000000000000000000000000000000000000000000000000 DUP2 MSTORE PUSH1 0x4 ADD PUSH1 0x40 MLOAD DUP1 SWAP2 SUB SWAP1 REVERT JUMPDEST PUSH0 PUSH1 0x7 PUSH0 DUP4 PUSH20 0xFFFFFFFFFFFFFFFFFFFFFFFFFFFFFFFFFFFFFFFF AND PUSH20 0xFFFFFFFFFFFFFFFFFFFFFFFFFFFFFFFFFFFFFFFF AND DUP2 MSTORE PUSH1 0x20 ADD SWAP1 DUP2 MSTORE PUSH1 0x20 ADD PUSH0 KECCAK256 PUSH1 0x2 ADD SLOAD SUB PUSH2 0x513 JUMPI PUSH1 0x40 MLOAD PUSH32 0x90A7340B00000000000000000000000000000000000000000000000000000000 DUP2 MSTORE PUSH1 0x4 ADD PUSH1 0x40 MLOAD DUP1 SWAP2 SUB SWAP1 REVERT JUMPDEST NUMBER PUSH1 0xA PUSH2 0x3E8 PUSH1 0x7 PUSH0 DUP6 PUSH20 0xFFFFFFFFFFFFFFFFFFFFFFFFFFFFFFFFFFFFFFFF AND PUSH20 0xFFFFFFFFFFFFFFFFFFFFFFFFFFFFFFFFFFFFFFFF AND DUP2 MSTORE PUSH1 0x20 ADD SWAP1 DUP2 MSTORE PUSH1 0x20 ADD PUSH0 KECCAK256 PUSH1 0x3 ADD PUSH0 SWAP1 SLOAD SWAP1 PUSH2 0x100 EXP SWAP1 DIV PUSH8 0xFFFFFFFFFFFFFFFF AND PUSH2 0x577 SWAP2 SWAP1 PUSH2 0x3DAF JUMP JUMPDEST PUSH2 0x581 SWAP2 SWAP1 PUSH2 0x3DAF JUMP JUMPDEST PUSH8 0xFFFFFFFFFFFFFFFF AND GT ISZERO PUSH2 0x63C JUMPI NUMBER PUSH1 0xA PUSH2 0x3E8 PUSH1 0x7 PUSH0 DUP6 PUSH20 0xFFFFFFFFFFFFFFFFFFFFFFFFFFFFFFFFFFFFFFFF AND PUSH20 0xFFFFFFFFFFFFFFFFFFFFFFFFFFFFFFFFFFFFFFFF AND DUP2 MSTORE PUSH1 0x20 ADD SWAP1 DUP2 MSTORE PUSH1 0x20 ADD PUSH0 KECCAK256 PUSH1 0x3 ADD PUSH0 SWAP1 SLOAD SWAP1 PUSH2 0x100 EXP SWAP1 DIV PUSH8 0xFFFFFFFFFFFFFFFF AND PUSH2 0x5F5 SWAP2 SWAP1 PUSH2 0x3DAF JUMP JUMPDEST PUSH2 0x5FF SWAP2 SWAP1 PUSH2 0x3DAF JUMP JUMPDEST PUSH1 0x40 MLOAD PUSH32 0xB4AE675A00000000000000000000000000000000000000000000000000000000 DUP2 MSTORE PUSH1 0x4 ADD PUSH2 0x633 SWAP3 SWAP2 SWAP1 PUSH2 0x3E1A JUMP JUMPDEST PUSH1 0x40 MLOAD DUP1 SWAP2 SUB SWAP1 REVERT JUMPDEST PUSH0 PUSH1 0x7 PUSH0 DUP4 PUSH20 0xFFFFFFFFFFFFFFFFFFFFFFFFFFFFFFFFFFFFFFFF AND PUSH20 0xFFFFFFFFFFFFFFFFFFFFFFFFFFFFFFFFFFFFFFFF AND DUP2 MSTORE PUSH1 0x20 ADD SWAP1 DUP2 MSTORE PUSH1 0x20 ADD PUSH0 KECCAK256 PUSH1 0x1 ADD SLOAD SWAP1 POP PUSH0 PUSH1 0x7 PUSH0 DUP5 PUSH20 0xFFFFFFFFFFFFFFFFFFFFFFFFFFFFFFFFFFFFFFFF AND PUSH20 0xFFFFFFFFFFFFFFFFFFFFFFFFFFFFFFFFFFFFFFFF AND DUP2 MSTORE PUSH1 0x20 ADD SWAP1 DUP2 MSTORE PUSH1 0x20 ADD PUSH0 KECCAK256 PUSH0 ADD PUSH0 SWAP1 SLOAD SWAP1 PUSH2 0x100 EXP SWAP1 DIV PUSH20 0xFFFFFFFFFFFFFFFFFFFFFFFFFFFFFFFFFFFFFFFF AND SWAP1 POP PUSH1 0x7 PUSH0 DUP5 PUSH20 0xFFFFFFFFFFFFFFFFFFFFFFFFFFFFFFFFFFFFFFFF AND PUSH20 0xFFFFFFFFFFFFFFFFFFFFFFFFFFFFFFFFFFFFFFFF AND DUP2 MSTORE PUSH1 0x20 ADD SWAP1 DUP2 MSTORE PUSH1 0x20 ADD PUSH0 KECCAK256 PUSH0 DUP1 DUP3 ADD PUSH0 PUSH2 0x100 EXP DUP2 SLOAD SWAP1 PUSH20 0xFFFFFFFFFFFFFFFFFFFFFFFFFFFFFFFFFFFFFFFF MUL NOT AND SWAP1 SSTORE PUSH1 0x1 DUP3 ADD PUSH0 SWAP1 SSTORE PUSH1 0x2 DUP3 ADD PUSH0 SWAP1 SSTORE PUSH1 0x3 DUP3 ADD PUSH0 PUSH2 0x100 EXP DUP2 SLOAD SWAP1 PUSH8 0xFFFFFFFFFFFFFFFF MUL NOT AND SWAP1 SSTORE PUSH1 0x3 DUP3 ADD PUSH1 0x8 PUSH2 0x100 EXP DUP2 SLOAD SWAP1 PUSH8 0xFFFFFFFFFFFFFFFF MUL NOT AND SWAP1 SSTORE PUSH1 0x3 DUP3 ADD PUSH1 0x10 PUSH2 0x100 EXP DUP2 SLOAD SWAP1 PUSH1 0xFF MUL NOT AND SWAP1 SSTORE PUSH1 0x4 DUP3 ADD PUSH0 PUSH2 0x7AB SWAP2 SWAP1 PUSH2 0x3410 JUMP JUMPDEST PUSH1 0x5 DUP3 ADD PUSH0 PUSH2 0x7BA SWAP2 SWAP1 PUSH2 0x3410 JUMP JUMPDEST PUSH1 0x6 DUP3 ADD PUSH0 PUSH2 0x100 EXP DUP2 SLOAD SWAP1 PUSH1 0xFF MUL NOT AND SWAP1 SSTORE POP POP PUSH0 PUSH20 0xFFFFFFFFFFFFFFFFFFFFFFFFFFFFFFFFFFFFFFFF AND DUP2 PUSH20 0xFFFFFFFFFFFFFFFFFFFFFFFFFFFFFFFFFFFFFFFF AND SUB PUSH2 0x8A7 JUMPI PUSH0 DUP4 PUSH20 0xFFFFFFFFFFFFFFFFFFFFFFFFFFFFFFFFFFFFFFFF AND DUP4 PUSH1 0x40 MLOAD PUSH2 0x827 SWAP1 PUSH2 0x3E6E JUMP JUMPDEST PUSH0 PUSH1 0x40 MLOAD DUP1 DUP4 SUB DUP2 DUP6 DUP8 GAS CALL SWAP3 POP POP POP RETURNDATASIZE DUP1 PUSH0 DUP2 EQ PUSH2 0x861 JUMPI PUSH1 0x40 MLOAD SWAP2 POP PUSH1 0x1F NOT PUSH1 0x3F RETURNDATASIZE ADD AND DUP3 ADD PUSH1 0x40 MSTORE RETURNDATASIZE DUP3 MSTORE RETURNDATASIZE PUSH0 PUSH1 0x20 DUP5 ADD RETURNDATACOPY PUSH2 0x866 JUMP JUMPDEST PUSH1 0x60 SWAP2 POP JUMPDEST POP POP SWAP1 POP DUP1 PUSH2 0x8A1 JUMPI PUSH1 0x40 MLOAD PUSH32 0x90B8EC1800000000000000000000000000000000000000000000000000000000 DUP2 MSTORE PUSH1 0x4 ADD PUSH1 0x40 MLOAD DUP1 SWAP2 SUB SWAP1 REVERT JUMPDEST POP PUSH2 0x8D3 JUMP JUMPDEST PUSH2 0x8D2 DUP4 DUP4 DUP4 PUSH20 0xFFFFFFFFFFFFFFFFFFFFFFFFFFFFFFFFFFFFFFFF AND PUSH2 0x1E30 SWAP1 SWAP3 SWAP2 SWAP1 PUSH4 0xFFFFFFFF AND JUMP JUMPDEST JUMPDEST DUP3 PUSH20 0xFFFFFFFFFFFFFFFFFFFFFFFFFFFFFFFFFFFFFFFF AND PUSH32 0x47D03D5B779B98FFCF8D141C72233E07E1EEFE64744CE9D5288AEA98EAF6BC9C DUP4 DUP4 PUSH1 0x40 MLOAD PUSH2 0x91B SWAP3 SWAP2 SWAP1 PUSH2 0x3E82 JUMP JUMPDEST PUSH1 0x40 MLOAD DUP1 SWAP2 SUB SWAP1 LOG2 POP POP POP PUSH2 0x92E PUSH2 0x1EAF JUMP JUMPDEST JUMP JUMPDEST PUSH1 0x2 PUSH0 SWAP1 SLOAD SWAP1 PUSH2 0x100 EXP SWAP1 DIV PUSH20 0xFFFFFFFFFFFFFFFFFFFFFFFFFFFFFFFFFFFFFFFF AND PUSH20 0xFFFFFFFFFFFFFFFFFFFFFFFFFFFFFFFFFFFFFFFF AND CALLER PUSH20 0xFFFFFFFFFFFFFFFFFFFFFFFFFFFFFFFFFFFFFFFF AND EQ PUSH2 0x9E4 JUMPI CALLER PUSH1 0x2 PUSH0 SWAP1 SLOAD SWAP1 PUSH2 0x100 EXP SWAP1 DIV PUSH20 0xFFFFFFFFFFFFFFFFFFFFFFFFFFFFFFFFFFFFFFFF AND PUSH1 0x40 MLOAD PUSH32 0x1CF993F400000000000000000000000000000000000000000000000000000000 DUP2 MSTORE PUSH1 0x4 ADD PUSH2 0x9DB SWAP3 SWAP2 SWAP1 PUSH2 0x3EA9 JUMP JUMPDEST PUSH1 0x40 MLOAD DUP1 SWAP2 SUB SWAP1 REVERT JUMPDEST PUSH2 0x9EE DUP3 DUP3 PUSH2 0x1EB8 JUMP JUMPDEST POP POP JUMP JUMPDEST PUSH2 0x9FA PUSH2 0x3416 JUMP JUMPDEST PUSH1 0x7 PUSH0 DUP4 PUSH20 0xFFFFFFFFFFFFFFFFFFFFFFFFFFFFFFFFFFFFFFFF AND PUSH20 0xFFFFFFFFFFFFFFFFFFFFFFFFFFFFFFFFFFFFFFFF AND DUP2 MSTORE PUSH1 0x20 ADD SWAP1 DUP2 MSTORE PUSH1 0x20 ADD PUSH0 KECCAK256 PUSH1 0x40 MLOAD DUP1 PUSH2 0x120 ADD PUSH1 0x40 MSTORE SWAP1 DUP2 PUSH0 DUP3 ADD PUSH0 SWAP1 SLOAD SWAP1 PUSH2 0x100 EXP SWAP1 DIV PUSH20 0xFFFFFFFFFFFFFFFFFFFFFFFFFFFFFFFFFFFFFFFF AND PUSH20 0xFFFFFFFFFFFFFFFFFFFFFFFFFFFFFFFFFFFFFFFF AND PUSH20 0xFFFFFFFFFFFFFFFFFFFFFFFFFFFFFFFFFFFFFFFF AND DUP2 MSTORE PUSH1 0x20 ADD PUSH1 0x1 DUP3 ADD SLOAD DUP2 MSTORE PUSH1 0x20 ADD PUSH1 0x2 DUP3 ADD SLOAD DUP2 MSTORE PUSH1 0x20 ADD PUSH1 0x3 DUP3 ADD PUSH0 SWAP1 SLOAD SWAP1 PUSH2 0x100 EXP SWAP1 DIV PUSH8 0xFFFFFFFFFFFFFFFF AND PUSH8 0xFFFFFFFFFFFFFFFF AND PUSH8 0xFFFFFFFFFFFFFFFF AND DUP2 MSTORE PUSH1 0x20 ADD PUSH1 0x3 DUP3 ADD PUSH1 0x8 SWAP1 SLOAD SWAP1 PUSH2 0x100 EXP SWAP1 DIV PUSH8 0xFFFFFFFFFFFFFFFF AND PUSH8 0xFFFFFFFFFFFFFFFF AND PUSH8 0xFFFFFFFFFFFFFFFF AND DUP2 MSTORE PUSH1 0x20 ADD PUSH1 0x3 DUP3 ADD PUSH1 0x10 SWAP1 SLOAD SWAP1 PUSH2 0x100 EXP SWAP1 DIV PUSH1 0xFF AND PUSH1 0xFF AND PUSH1 0xFF AND DUP2 MSTORE PUSH1 0x20 ADD PUSH1 0x4 DUP3 ADD PUSH1 0x19 DUP1 PUSH1 0x20 MUL PUSH1 0x40 MLOAD SWAP1 DUP2 ADD PUSH1 0x40 MSTORE DUP1 SWAP3 SWAP2 SWAP1 DUP3 PUSH1 0x19 DUP1 ISZERO PUSH2 0xB8A JUMPI PUSH1 0x20 MUL DUP3 ADD SWAP2 PUSH0 SWAP1 JUMPDEST DUP3 DUP3 SWAP1 SLOAD SWAP1 PUSH2 0x100 EXP SWAP1 DIV PUSH1 0xFF AND ISZERO ISZERO DUP2 MSTORE PUSH1 0x20 ADD SWAP1 PUSH1 0x1 ADD SWAP1 PUSH1 0x20 DUP3 PUSH0 ADD DIV SWAP3 DUP4 ADD SWAP3 PUSH1 0x1 SUB DUP3 MUL SWAP2 POP DUP1 DUP5 GT PUSH2 0xB55 JUMPI SWAP1 POP JUMPDEST POP POP POP POP POP DUP2 MSTORE PUSH1 0x20 ADD PUSH1 0x5 DUP3 ADD PUSH1 0x19 DUP1 PUSH1 0x20 MUL PUSH1 0x40 MLOAD SWAP1 DUP2 ADD PUSH1 0x40 MSTORE DUP1 SWAP3 SWAP2 SWAP1 DUP3 PUSH1 0x19 DUP1 ISZERO PUSH2 0xBF2 JUMPI PUSH1 0x20 MUL DUP3 ADD SWAP2 PUSH0 SWAP1 JUMPDEST DUP3 DUP3 SWAP1 SLOAD SWAP1 PUSH2 0x100 EXP SWAP1 DIV PUSH1 0xFF AND ISZERO ISZERO DUP2 MSTORE PUSH1 0x20 ADD SWAP1 PUSH1 0x1 ADD SWAP1 PUSH1 0x20 DUP3 PUSH0 ADD DIV SWAP3 DUP4 ADD SWAP3 PUSH1 0x1 SUB DUP3 MUL SWAP2 POP DUP1 DUP5 GT PUSH2 0xBBD JUMPI SWAP1 POP JUMPDEST POP POP POP POP POP DUP2 MSTORE PUSH1 0x20 ADD PUSH1 0x6 DUP3 ADD PUSH0 SWAP1 SLOAD SWAP1 PUSH2 0x100 EXP SWAP1 DIV PUSH1 0xFF AND ISZERO ISZERO ISZERO ISZERO DUP2 MSTORE POP POP SWAP1 POP SWAP2 SWAP1 POP JUMP JUMPDEST PUSH2 0xC24 PUSH2 0x1DAE JUMP JUMPDEST PUSH0 PUSH2 0xC2D PUSH2 0x1DFB JUMP JUMPDEST SWAP1 POP PUSH0 PUSH1 0x7 PUSH0 DUP4 PUSH20 0xFFFFFFFFFFFFFFFFFFFFFFFFFFFFFFFFFFFFFFFF AND PUSH20 0xFFFFFFFFFFFFFFFFFFFFFFFFFFFFFFFFFFFFFFFF AND DUP2 MSTORE PUSH1 0x20 ADD SWAP1 DUP2 MSTORE PUSH1 0x20 ADD PUSH0 KECCAK256 SWAP1 POP PUSH0 DUP2 PUSH1 0x3 ADD PUSH1 0x10 SWAP1 SLOAD SWAP1 PUSH2 0x100 EXP SWAP1 DIV PUSH1 0xFF AND PUSH1 0xFF AND SUB PUSH2 0xCBC JUMPI PUSH1 0x40 MLOAD PUSH32 0x43050D9600000000000000000000000000000000000000000000000000000000 DUP2 MSTORE PUSH1 0x4 ADD PUSH1 0x40 MLOAD DUP1 SWAP2 SUB SWAP1 REVERT JUMPDEST PUSH0 DUP2 PUSH1 0x2 ADD SLOAD EQ PUSH2 0xD08 JUMPI DUP1 PUSH1 0x2 ADD SLOAD PUSH1 0x40 MLOAD PUSH32 0x440DB96E00000000000000000000000000000000000000000000000000000000 DUP2 MSTORE PUSH1 0x4 ADD PUSH2 0xCFF SWAP2 SWAP1 PUSH2 0x3B29 JUMP JUMPDEST PUSH1 0x40 MLOAD DUP1 SWAP2 SUB SWAP1 REVERT JUMPDEST PUSH0 DUP1 PUSH0 JUMPDEST PUSH1 0x19 DUP2 PUSH1 0xFF AND LT ISZERO PUSH2 0xE1C JUMPI DUP7 DUP2 PUSH1 0xFF AND PUSH1 0x19 DUP2 LT PUSH2 0xD2E JUMPI PUSH2 0xD2D PUSH2 0x3ED0 JUMP JUMPDEST JUMPDEST PUSH1 0x20 MUL ADD PUSH1 0x20 DUP2 ADD SWAP1 PUSH2 0xD41 SWAP2 SWAP1 PUSH2 0x3EFD JUMP JUMPDEST ISZERO PUSH2 0xDC6 JUMPI DUP4 PUSH1 0x4 ADD DUP2 PUSH1 0xFF AND PUSH1 0x19 DUP2 LT PUSH2 0xD5F JUMPI PUSH2 0xD5E PUSH2 0x3ED0 JUMP JUMPDEST JUMPDEST PUSH1 0x20 SWAP2 DUP3 DUP3 DIV ADD SWAP2 SWAP1 MOD SWAP1 SLOAD SWAP1 PUSH2 0x100 EXP SWAP1 DIV PUSH1 0xFF AND ISZERO PUSH2 0xDB7 JUMPI DUP1 PUSH1 0x40 MLOAD PUSH32 0x63926F5100000000000000000000000000000000000000000000000000000000 DUP2 MSTORE PUSH1 0x4 ADD PUSH2 0xDAE SWAP2 SWAP1 PUSH2 0x3F37 JUMP JUMPDEST PUSH1 0x40 MLOAD DUP1 SWAP2 SUB SWAP1 REVERT JUMPDEST DUP2 DUP1 PUSH2 0xDC2 SWAP1 PUSH2 0x3F5F JUMP JUMPDEST SWAP3 POP POP JUMPDEST DUP4 PUSH1 0x4 ADD DUP2 PUSH1 0xFF AND PUSH1 0x19 DUP2 LT PUSH2 0xDDF JUMPI PUSH2 0xDDE PUSH2 0x3ED0 JUMP JUMPDEST JUMPDEST PUSH1 0x20 SWAP2 DUP3 DUP3 DIV ADD SWAP2 SWAP1 MOD SWAP1 SLOAD SWAP1 PUSH2 0x100 EXP SWAP1 DIV PUSH1 0xFF AND ISZERO PUSH2 0xE09 JUMPI DUP3 DUP1 PUSH2 0xE05 SWAP1 PUSH2 0x3F5F JUMP JUMPDEST SWAP4 POP POP JUMPDEST DUP1 DUP1 PUSH2 0xE14 SWAP1 PUSH2 0x3F8A JUMP JUMPDEST SWAP2 POP POP PUSH2 0xD0C JUMP JUMPDEST POP PUSH0 DUP2 PUSH4 0xFFFFFFFF AND EQ DUP1 PUSH2 0xE66 JUMPI POP PUSH1 0xA PUSH0 DUP5 PUSH1 0x3 ADD PUSH1 0x10 SWAP1 SLOAD SWAP1 PUSH2 0x100 EXP SWAP1 DIV PUSH1 0xFF AND PUSH1 0xFF AND DUP2 MSTORE PUSH1 0x20 ADD SWAP1 DUP2 MSTORE PUSH1 0x20 ADD PUSH0 KECCAK256 SLOAD DUP3 DUP3 PUSH2 0xE5E SWAP2 SWAP1 PUSH2 0x3FB2 JUMP JUMPDEST PUSH4 0xFFFFFFFF AND GT JUMPDEST ISZERO PUSH2 0xEDA JUMPI DUP2 DUP2 PUSH2 0xE77 SWAP2 SWAP1 PUSH2 0x3FB2 JUMP JUMPDEST PUSH1 0xA PUSH0 DUP6 PUSH1 0x3 ADD PUSH1 0x10 SWAP1 SLOAD SWAP1 PUSH2 0x100 EXP SWAP1 DIV PUSH1 0xFF AND PUSH1 0xFF AND DUP2 MSTORE PUSH1 0x20 ADD SWAP1 DUP2 MSTORE PUSH1 0x20 ADD PUSH0 KECCAK256 SLOAD PUSH1 0x40 MLOAD PUSH32 0x6EFCA6FE00000000000000000000000000000000000000000000000000000000 DUP2 MSTORE PUSH1 0x4 ADD PUSH2 0xED1 SWAP3 SWAP2 SWAP1 PUSH2 0x3FF8 JUMP JUMPDEST PUSH1 0x40 MLOAD DUP1 SWAP2 SUB SWAP1 REVERT JUMPDEST PUSH0 PUSH2 0xEE7 PUSH3 0x7A120 PUSH2 0x27AE JUMP JUMPDEST SWAP1 POP PUSH0 PUSH2 0xEF3 DUP4 PUSH2 0x2832 JUMP JUMPDEST SWAP1 POP DUP6 PUSH1 0x8 PUSH0 DUP4 DUP2 MSTORE PUSH1 0x20 ADD SWAP1 DUP2 MSTORE PUSH1 0x20 ADD PUSH0 KECCAK256 PUSH0 PUSH2 0x100 EXP DUP2 SLOAD DUP2 PUSH20 0xFFFFFFFFFFFFFFFFFFFFFFFFFFFFFFFFFFFFFFFF MUL NOT AND SWAP1 DUP4 PUSH20 0xFFFFFFFFFFFFFFFFFFFFFFFFFFFFFFFFFFFFFFFF AND MUL OR SWAP1 SSTORE POP DUP8 DUP6 PUSH1 0x5 ADD SWAP1 PUSH1 0x19 PUSH2 0xF57 SWAP3 SWAP2 SWAP1 PUSH2 0x3496 JUMP JUMPDEST POP DUP7 DUP6 PUSH1 0x6 ADD PUSH0 PUSH2 0x100 EXP DUP2 SLOAD DUP2 PUSH1 0xFF MUL NOT AND SWAP1 DUP4 ISZERO ISZERO MUL OR SWAP1 SSTORE POP DUP1 DUP6 PUSH1 0x2 ADD DUP2 SWAP1 SSTORE POP NUMBER DUP6 PUSH1 0x3 ADD PUSH0 PUSH2 0x100 EXP DUP2 SLOAD DUP2 PUSH8 0xFFFFFFFFFFFFFFFF MUL NOT AND SWAP1 DUP4 PUSH8 0xFFFFFFFFFFFFFFFF AND MUL OR SWAP1 SSTORE POP DUP6 PUSH20 0xFFFFFFFFFFFFFFFFFFFFFFFFFFFFFFFFFFFFFFFF AND PUSH32 0x676C918F37FE2B3BF042543E3FDAF058CE52FD6FDE49A5303CF971D7037F84EC DUP4 PUSH1 0x40 MLOAD PUSH2 0xFEC SWAP2 SWAP1 PUSH2 0x3B29 JUMP JUMPDEST PUSH1 0x40 MLOAD DUP1 SWAP2 SUB SWAP1 LOG2 POP POP POP POP POP POP PUSH2 0x1002 PUSH2 0x1EAF JUMP JUMPDEST POP POP JUMP JUMPDEST PUSH1 0x5 PUSH0 SWAP1 SLOAD SWAP1 PUSH2 0x100 EXP SWAP1 DIV PUSH20 0xFFFFFFFFFFFFFFFFFFFFFFFFFFFFFFFFFFFFFFFF AND DUP2 JUMP JUMPDEST PUSH0 PUSH1 0x9 PUSH0 DUP5 DUP2 MSTORE PUSH1 0x20 ADD SWAP1 DUP2 MSTORE PUSH1 0x20 ADD PUSH0 KECCAK256 PUSH0 DUP4 DUP2 MSTORE PUSH1 0x20 ADD SWAP1 DUP2 MSTORE PUSH1 0x20 ADD PUSH0 KECCAK256 SLOAD SWAP1 POP SWAP3 SWAP2 POP POP JUMP JUMPDEST PUSH1 0x3 PUSH0 SWAP1 SLOAD SWAP1 PUSH2 0x100 EXP SWAP1 DIV PUSH20 0xFFFFFFFFFFFFFFFFFFFFFFFFFFFFFFFFFFFFFFFF AND DUP2 JUMP JUMPDEST PUSH0 PUSH1 0x3 PUSH0 SWAP1 SLOAD SWAP1 PUSH2 0x100 EXP SWAP1 DIV PUSH20 0xFFFFFFFFFFFFFFFFFFFFFFFFFFFFFFFFFFFFFFFF AND PUSH20 0xFFFFFFFFFFFFFFFFFFFFFFFFFFFFFFFFFFFFFFFF AND DUP3 PUSH20 0xFFFFFFFFFFFFFFFFFFFFFFFFFFFFFFFFFFFFFFFF AND EQ SWAP1 POP SWAP2 SWAP1 POP JUMP JUMPDEST PUSH2 0x10DA PUSH2 0x1DAE JUMP JUMPDEST PUSH1 0x6 PUSH0 SWAP1 SLOAD SWAP1 PUSH2 0x100 EXP SWAP1 DIV PUSH20 0xFFFFFFFFFFFFFFFFFFFFFFFFFFFFFFFFFFFFFFFF AND PUSH20 0xFFFFFFFFFFFFFFFFFFFFFFFFFFFFFFFFFFFFFFFF AND PUSH4 0x893D20E8 PUSH1 0x40 MLOAD DUP2 PUSH4 0xFFFFFFFF AND PUSH1 0xE0 SHL DUP2 MSTORE PUSH1 0x4 ADD PUSH1 0x20 PUSH1 0x40 MLOAD DUP1 DUP4 SUB DUP2 DUP7 GAS STATICCALL ISZERO DUP1 ISZERO PUSH2 0x1144 JUMPI RETURNDATASIZE PUSH0 DUP1 RETURNDATACOPY RETURNDATASIZE PUSH0 REVERT JUMPDEST POP POP POP POP PUSH1 0x40 MLOAD RETURNDATASIZE PUSH1 0x1F NOT PUSH1 0x1F DUP3 ADD AND DUP3 ADD DUP1 PUSH1 0x40 MSTORE POP DUP2 ADD SWAP1 PUSH2 0x1168 SWAP2 SWAP1 PUSH2 0x4033 JUMP JUMPDEST PUSH20 0xFFFFFFFFFFFFFFFFFFFFFFFFFFFFFFFFFFFFFFFF AND CALLER PUSH20 0xFFFFFFFFFFFFFFFFFFFFFFFFFFFFFFFFFFFFFFFF AND EQ PUSH2 0x1266 JUMPI PUSH1 0x6 PUSH0 SWAP1 SLOAD SWAP1 PUSH2 0x100 EXP SWAP1 DIV PUSH20 0xFFFFFFFFFFFFFFFFFFFFFFFFFFFFFFFFFFFFFFFF AND PUSH20 0xFFFFFFFFFFFFFFFFFFFFFFFFFFFFFFFFFFFFFFFF AND PUSH4 0x893D20E8 PUSH1 0x40 MLOAD DUP2 PUSH4 0xFFFFFFFF AND PUSH1 0xE0 SHL DUP2 MSTORE PUSH1 0x4 ADD PUSH1 0x20 PUSH1 0x40 MLOAD DUP1 DUP4 SUB DUP2 DUP7 GAS STATICCALL ISZERO DUP1 ISZERO PUSH2 0x1204 JUMPI RETURNDATASIZE PUSH0 DUP1 RETURNDATACOPY RETURNDATASIZE PUSH0 REVERT JUMPDEST POP POP POP POP PUSH1 0x40 MLOAD RETURNDATASIZE PUSH1 0x1F NOT PUSH1 0x1F DUP3 ADD AND DUP3 ADD DUP1 PUSH1 0x40 MSTORE POP DUP2 ADD SWAP1 PUSH2 0x1228 SWAP2 SWAP1 PUSH2 0x4033 JUMP JUMPDEST CALLER PUSH1 0x40 MLOAD PUSH32 0x23295F0E00000000000000000000000000000000000000000000000000000000 DUP2 MSTORE PUSH1 0x4 ADD PUSH2 0x125D SWAP3 SWAP2 SWAP1 PUSH2 0x3EA9 JUMP JUMPDEST PUSH1 0x40 MLOAD DUP1 SWAP2 SUB SWAP1 REVERT JUMPDEST PUSH0 PUSH1 0x1 SLOAD SWAP1 POP PUSH0 PUSH1 0x1 DUP2 SWAP1 SSTORE POP PUSH0 DUP3 PUSH20 0xFFFFFFFFFFFFFFFFFFFFFFFFFFFFFFFFFFFFFFFF AND DUP3 PUSH1 0x40 MLOAD PUSH2 0x1298 SWAP1 PUSH2 0x3E6E JUMP JUMPDEST PUSH0 PUSH1 0x40 MLOAD DUP1 DUP4 SUB DUP2 DUP6 DUP8 GAS CALL SWAP3 POP POP POP RETURNDATASIZE DUP1 PUSH0 DUP2 EQ PUSH2 0x12D2 JUMPI PUSH1 0x40 MLOAD SWAP2 POP PUSH1 0x1F NOT PUSH1 0x3F RETURNDATASIZE ADD AND DUP3 ADD PUSH1 0x40 MSTORE RETURNDATASIZE DUP3 MSTORE RETURNDATASIZE PUSH0 PUSH1 0x20 DUP5 ADD RETURNDATACOPY PUSH2 0x12D7 JUMP JUMPDEST PUSH1 0x60 SWAP2 POP JUMPDEST POP POP SWAP1 POP DUP1 PUSH2 0x1312 JUMPI PUSH1 0x40 MLOAD PUSH32 0x90B8EC1800000000000000000000000000000000000000000000000000000000 DUP2 MSTORE PUSH1 0x4 ADD PUSH1 0x40 MLOAD DUP1 SWAP2 SUB SWAP1 REVERT JUMPDEST POP POP PUSH2 0x131C PUSH2 0x1EAF JUMP JUMPDEST POP JUMP JUMPDEST PUSH0 DUP1 PUSH1 0x4 PUSH0 SWAP1 SLOAD SWAP1 PUSH2 0x100 EXP SWAP1 DIV PUSH20 0xFFFFFFFFFFFFFFFFFFFFFFFFFFFFFFFFFFFFFFFF AND PUSH20 0xFFFFFFFFFFFFFFFFFFFFFFFFFFFFFFFFFFFFFFFF AND PUSH4 0xFEAF968C PUSH1 0x40 MLOAD DUP2 PUSH4 0xFFFFFFFF AND PUSH1 0xE0 SHL DUP2 MSTORE PUSH1 0x4 ADD PUSH1 0xA0 PUSH1 0x40 MLOAD DUP1 DUP4 SUB DUP2 DUP7 GAS STATICCALL ISZERO DUP1 ISZERO PUSH2 0x138B JUMPI RETURNDATASIZE PUSH0 DUP1 RETURNDATACOPY RETURNDATASIZE PUSH0 REVERT JUMPDEST POP POP POP POP PUSH1 0x40 MLOAD RETURNDATASIZE PUSH1 0x1F NOT PUSH1 0x1F DUP3 ADD AND DUP3 ADD DUP1 PUSH1 0x40 MSTORE POP DUP2 ADD SWAP1 PUSH2 0x13AF SWAP2 SWAP1 PUSH2 0x40E4 JUMP JUMPDEST POP POP POP SWAP2 POP POP PUSH0 PUSH1 0x5 PUSH0 SWAP1 SLOAD SWAP1 PUSH2 0x100 EXP SWAP1 DIV PUSH20 0xFFFFFFFFFFFFFFFFFFFFFFFFFFFFFFFFFFFFFFFF AND PUSH20 0xFFFFFFFFFFFFFFFFFFFFFFFFFFFFFFFFFFFFFFFF AND PUSH4 0x5FBBC0D2 PUSH1 0x40 MLOAD DUP2 PUSH4 0xFFFFFFFF AND PUSH1 0xE0 SHL DUP2 MSTORE PUSH1 0x4 ADD PUSH2 0x120 PUSH1 0x40 MLOAD DUP1 DUP4 SUB DUP2 DUP7 GAS STATICCALL ISZERO DUP1 ISZERO PUSH2 0x1421 JUMPI RETURNDATASIZE PUSH0 DUP1 RETURNDATACOPY RETURNDATASIZE PUSH0 REVERT JUMPDEST POP POP POP POP PUSH1 0x40 MLOAD RETURNDATASIZE PUSH1 0x1F NOT PUSH1 0x1F DUP3 ADD AND DUP3 ADD DUP1 PUSH1 0x40 MSTORE POP DUP2 ADD SWAP1 PUSH2 0x1445 SWAP2 SWAP1 PUSH2 0x41BD JUMP JUMPDEST POP POP POP POP POP POP POP POP SWAP1 POP PUSH8 0xDE0B6B3A7640000 DUP3 DUP3 PUSH4 0xFFFFFFFF AND PUSH5 0xE8D4A51000 PUSH2 0x1470 SWAP2 SWAP1 PUSH2 0x4281 JUMP JUMPDEST PUSH2 0x147A SWAP2 SWAP1 PUSH2 0x4281 JUMP JUMPDEST PUSH2 0x1484 SWAP2 SWAP1 PUSH2 0x42EF JUMP JUMPDEST DUP5 GASPRICE PUSH2 0x1490 SWAP2 SWAP1 PUSH2 0x4281 JUMP JUMPDEST PUSH2 0x149A SWAP2 SWAP1 PUSH2 0x431F JUMP JUMPDEST SWAP3 POP POP POP SWAP2 SWAP1 POP JUMP JUMPDEST PUSH1 0x1 SLOAD DUP2 JUMP JUMPDEST PUSH1 0x2 PUSH0 SWAP1 SLOAD SWAP1 PUSH2 0x100 EXP SWAP1 DIV PUSH20 0xFFFFFFFFFFFFFFFFFFFFFFFFFFFFFFFFFFFFFFFF AND DUP2 JUMP JUMPDEST PUSH0 DUP2 EQ DUP1 PUSH2 0x14DD JUMPI POP PUSH1 0x19 DUP2 LT ISZERO JUMPDEST ISZERO PUSH2 0x14E6 JUMPI PUSH0 DUP1 REVERT JUMPDEST PUSH0 PUSH1 0x9 PUSH0 DUP4 DUP2 MSTORE PUSH1 0x20 ADD SWAP1 DUP2 MSTORE PUSH1 0x20 ADD PUSH0 KECCAK256 PUSH0 PUSH1 0x1 DUP2 MSTORE PUSH1 0x20 ADD SWAP1 DUP2 MSTORE PUSH1 0x20 ADD PUSH0 KECCAK256 SLOAD EQ PUSH2 0x1512 JUMPI PUSH0 DUP1 REVERT JUMPDEST PUSH0 PUSH1 0x1 SWAP1 POP JUMPDEST DUP2 PUSH1 0x19 PUSH2 0x1525 SWAP2 SWAP1 PUSH2 0x4352 JUMP JUMPDEST DUP2 GT PUSH2 0x15F7 JUMPI PUSH0 PUSH1 0x1 SWAP1 POP PUSH0 PUSH1 0x1 SWAP1 POP PUSH0 JUMPDEST DUP4 DUP2 LT ISZERO PUSH2 0x1591 JUMPI DUP1 DUP6 PUSH1 0x19 PUSH2 0x154D SWAP2 SWAP1 PUSH2 0x4352 JUMP JUMPDEST PUSH2 0x1557 SWAP2 SWAP1 PUSH2 0x4352 JUMP JUMPDEST DUP4 PUSH2 0x1562 SWAP2 SWAP1 PUSH2 0x4281 JUMP JUMPDEST SWAP3 POP DUP1 PUSH1 0x19 PUSH2 0x1571 SWAP2 SWAP1 PUSH2 0x4352 JUMP JUMPDEST DUP3 PUSH2 0x157C SWAP2 SWAP1 PUSH2 0x4281 JUMP JUMPDEST SWAP2 POP DUP1 DUP1 PUSH2 0x1589 SWAP1 PUSH2 0x4385 JUMP JUMPDEST SWAP2 POP POP PUSH2 0x1537 JUMP JUMPDEST POP DUP1 PUSH4 0x3B9ACA00 DUP4 PUSH2 0x15A3 SWAP2 SWAP1 PUSH2 0x4281 JUMP JUMPDEST PUSH2 0x15AD SWAP2 SWAP1 PUSH2 0x42EF JUMP JUMPDEST PUSH6 0x90105FBB800 PUSH2 0x15BE SWAP2 SWAP1 PUSH2 0x42EF JUMP JUMPDEST PUSH1 0x9 PUSH0 DUP7 DUP2 MSTORE PUSH1 0x20 ADD SWAP1 DUP2 MSTORE PUSH1 0x20 ADD PUSH0 KECCAK256 PUSH0 DUP6 DUP2 MSTORE PUSH1 0x20 ADD SWAP1 DUP2 MSTORE PUSH1 0x20 ADD PUSH0 KECCAK256 DUP2 SWAP1 SSTORE POP POP POP DUP1 DUP1 PUSH2 0x15EF SWAP1 PUSH2 0x4385 JUMP JUMPDEST SWAP2 POP POP PUSH2 0x1518 JUMP JUMPDEST POP POP JUMP JUMPDEST PUSH1 0x4 PUSH0 SWAP1 SLOAD SWAP1 PUSH2 0x100 EXP SWAP1 DIV PUSH20 0xFFFFFFFFFFFFFFFFFFFFFFFFFFFFFFFFFFFFFFFF AND DUP2 JUMP JUMPDEST PUSH2 0x1628 PUSH2 0x1DAE JUMP JUMPDEST PUSH0 PUSH2 0x1631 PUSH2 0x1DFB JUMP JUMPDEST SWAP1 POP PUSH0 PUSH1 0x7 PUSH0 DUP4 PUSH20 0xFFFFFFFFFFFFFFFFFFFFFFFFFFFFFFFFFFFFFFFF AND PUSH20 0xFFFFFFFFFFFFFFFFFFFFFFFFFFFFFFFFFFFFFFFF AND DUP2 MSTORE PUSH1 0x20 ADD SWAP1 DUP2 MSTORE PUSH1 0x20 ADD PUSH0 KECCAK256 SWAP1 POP PUSH0 DUP2 PUSH1 0x3 ADD PUSH1 0x10 SWAP1 SLOAD SWAP1 PUSH2 0x100 EXP SWAP1 DIV PUSH1 0xFF AND PUSH1 0xFF AND SUB PUSH2 0x16C0 JUMPI PUSH1 0x40 MLOAD PUSH32 0x43050D9600000000000000000000000000000000000000000000000000000000 DUP2 MSTORE PUSH1 0x4 ADD PUSH1 0x40 MLOAD DUP1 SWAP2 SUB SWAP1 REVERT JUMPDEST PUSH0 DUP2 PUSH1 0x2 ADD SLOAD EQ PUSH2 0x170C JUMPI DUP1 PUSH1 0x2 ADD SLOAD PUSH1 0x40 MLOAD PUSH32 0x440DB96E00000000000000000000000000000000000000000000000000000000 DUP2 MSTORE PUSH1 0x4 ADD PUSH2 0x1703 SWAP2 SWAP1 PUSH2 0x3B29 JUMP JUMPDEST PUSH1 0x40 MLOAD DUP1 SWAP2 SUB SWAP1 REVERT JUMPDEST PUSH0 DUP2 PUSH1 0x3 ADD PUSH1 0x10 SWAP1 SLOAD SWAP1 PUSH2 0x100 EXP SWAP1 DIV PUSH1 0xFF AND SWAP1 POP PUSH0 DUP3 PUSH1 0x4 ADD PUSH1 0x19 DUP1 PUSH1 0x20 MUL PUSH1 0x40 MLOAD SWAP1 DUP2 ADD PUSH1 0x40 MSTORE DUP1 SWAP3 SWAP2 SWAP1 DUP3 PUSH1 0x19 DUP1 ISZERO PUSH2 0x1780 JUMPI PUSH1 0x20 MUL DUP3 ADD SWAP2 PUSH0 SWAP1 JUMPDEST DUP3 DUP3 SWAP1 SLOAD SWAP1 PUSH2 0x100 EXP SWAP1 DIV PUSH1 0xFF AND ISZERO ISZERO DUP2 MSTORE PUSH1 0x20 ADD SWAP1 PUSH1 0x1 ADD SWAP1 PUSH1 0x20 DUP3 PUSH0 ADD DIV SWAP3 DUP4 ADD SWAP3 PUSH1 0x1 SUB DUP3 MUL SWAP2 POP DUP1 DUP5 GT PUSH2 0x174B JUMPI SWAP1 POP JUMPDEST POP POP POP POP POP SWAP1 POP PUSH0 DUP4 PUSH1 0x3 ADD PUSH1 0x8 SWAP1 SLOAD SWAP1 PUSH2 0x100 EXP SWAP1 DIV PUSH8 0xFFFFFFFFFFFFFFFF AND PUSH8 0xFFFFFFFFFFFFFFFF AND SWAP1 POP PUSH0 DUP5 PUSH1 0x1 ADD SLOAD SWAP1 POP PUSH0 PUSH2 0x2710 DUP3 DUP5 PUSH2 0x17C5 SWAP2 SWAP1 PUSH2 0x4281 JUMP JUMPDEST PUSH2 0x17CF SWAP2 SWAP1 PUSH2 0x42EF JUMP JUMPDEST SWAP1 POP PUSH0 DUP7 PUSH0 ADD PUSH0 SWAP1 SLOAD SWAP1 PUSH2 0x100 EXP SWAP1 DIV PUSH20 0xFFFFFFFFFFFFFFFFFFFFFFFFFFFFFFFFFFFFFFFF AND SWAP1 POP PUSH2 0x1801 DUP2 DUP5 PUSH2 0x2902 JUMP JUMPDEST PUSH1 0x7 PUSH0 DUP10 PUSH20 0xFFFFFFFFFFFFFFFFFFFFFFFFFFFFFFFFFFFFFFFF AND PUSH20 0xFFFFFFFFFFFFFFFFFFFFFFFFFFFFFFFFFFFFFFFF AND DUP2 MSTORE PUSH1 0x20 ADD SWAP1 DUP2 MSTORE PUSH1 0x20 ADD PUSH0 KECCAK256 PUSH0 DUP1 DUP3 ADD PUSH0 PUSH2 0x100 EXP DUP2 SLOAD SWAP1 PUSH20 0xFFFFFFFFFFFFFFFFFFFFFFFFFFFFFFFFFFFFFFFF MUL NOT AND SWAP1 SSTORE PUSH1 0x1 DUP3 ADD PUSH0 SWAP1 SSTORE PUSH1 0x2 DUP3 ADD PUSH0 SWAP1 SSTORE PUSH1 0x3 DUP3 ADD PUSH0 PUSH2 0x100 EXP DUP2 SLOAD SWAP1 PUSH8 0xFFFFFFFFFFFFFFFF MUL NOT AND SWAP1 SSTORE PUSH1 0x3 DUP3 ADD PUSH1 0x8 PUSH2 0x100 EXP DUP2 SLOAD SWAP1 PUSH8 0xFFFFFFFFFFFFFFFF MUL NOT AND SWAP1 SSTORE PUSH1 0x3 DUP3 ADD PUSH1 0x10 PUSH2 0x100 EXP DUP2 SLOAD SWAP1 PUSH1 0xFF MUL NOT AND SWAP1 SSTORE PUSH1 0x4 DUP3 ADD PUSH0 PUSH2 0x18CA SWAP2 SWAP1 PUSH2 0x3410 JUMP JUMPDEST PUSH1 0x5 DUP3 ADD PUSH0 PUSH2 0x18D9 SWAP2 SWAP1 PUSH2 0x3410 JUMP JUMPDEST PUSH1 0x6 DUP3 ADD PUSH0 PUSH2 0x100 EXP DUP2 SLOAD SWAP1 PUSH1 0xFF MUL NOT AND SWAP1 SSTORE POP POP PUSH2 0x18F9 DUP9 DUP4 DUP4 PUSH2 0x2A4C JUMP JUMPDEST DUP8 PUSH20 0xFFFFFFFFFFFFFFFFFFFFFFFFFFFFFFFFFFFFFFFF AND PUSH32 0x1FE1DD196606AD2650D7969421FCE1457A68AB5EF856F561B02C43D85E2B2305 DUP5 DUP5 DUP5 DUP11 DUP11 DUP11 PUSH1 0x40 MLOAD PUSH2 0x1949 SWAP7 SWAP6 SWAP5 SWAP4 SWAP3 SWAP2 SWAP1 PUSH2 0x445C JUMP JUMPDEST PUSH1 0x40 MLOAD DUP1 SWAP2 SUB SWAP1 LOG2 POP POP POP POP POP POP POP POP PUSH2 0x1961 PUSH2 0x1EAF JUMP JUMPDEST JUMP JUMPDEST PUSH2 0x196B PUSH2 0x352E JUMP JUMPDEST PUSH0 JUMPDEST PUSH1 0x18 DUP2 LT ISZERO PUSH2 0x19C3 JUMPI PUSH1 0xA PUSH0 PUSH1 0x1 DUP4 PUSH2 0x1986 SWAP2 SWAP1 PUSH2 0x431F JUMP JUMPDEST DUP2 MSTORE PUSH1 0x20 ADD SWAP1 DUP2 MSTORE PUSH1 0x20 ADD PUSH0 KECCAK256 SLOAD DUP3 DUP3 PUSH1 0x18 DUP2 LT PUSH2 0x19A7 JUMPI PUSH2 0x19A6 PUSH2 0x3ED0 JUMP JUMPDEST JUMPDEST PUSH1 0x20 MUL ADD DUP2 DUP2 MSTORE POP POP DUP1 DUP1 PUSH2 0x19BB SWAP1 PUSH2 0x4385 JUMP JUMPDEST SWAP2 POP POP PUSH2 0x196D JUMP JUMPDEST POP SWAP1 JUMP JUMPDEST PUSH1 0x6 PUSH0 SWAP1 SLOAD SWAP1 PUSH2 0x100 EXP SWAP1 DIV PUSH20 0xFFFFFFFFFFFFFFFFFFFFFFFFFFFFFFFFFFFFFFFF AND DUP2 JUMP JUMPDEST PUSH2 0x19F4 PUSH2 0x1DAE JUMP JUMPDEST PUSH0 PUSH2 0x19FD PUSH2 0x1DFB JUMP JUMPDEST SWAP1 POP PUSH1 0x1 DUP5 PUSH1 0xFF AND LT ISZERO DUP1 ISZERO PUSH2 0x1A17 JUMPI POP PUSH1 0x18 DUP5 PUSH1 0xFF AND GT ISZERO JUMPDEST PUSH2 0x1A4D JUMPI PUSH1 0x40 MLOAD PUSH32 0x822CB1A000000000000000000000000000000000000000000000000000000000 DUP2 MSTORE PUSH1 0x4 ADD PUSH1 0x40 MLOAD DUP1 SWAP2 SUB SWAP1 REVERT JUMPDEST PUSH0 PUSH1 0x7 PUSH0 DUP4 PUSH20 0xFFFFFFFFFFFFFFFFFFFFFFFFFFFFFFFFFFFFFFFF AND PUSH20 0xFFFFFFFFFFFFFFFFFFFFFFFFFFFFFFFFFFFFFFFF AND DUP2 MSTORE PUSH1 0x20 ADD SWAP1 DUP2 MSTORE PUSH1 0x20 ADD PUSH0 KECCAK256 SWAP1 POP PUSH0 DUP2 PUSH1 0x2 ADD SLOAD EQ PUSH2 0x1AD9 JUMPI DUP1 PUSH1 0x2 ADD SLOAD PUSH1 0x40 MLOAD PUSH32 0x440DB96E00000000000000000000000000000000000000000000000000000000 DUP2 MSTORE PUSH1 0x4 ADD PUSH2 0x1AD0 SWAP2 SWAP1 PUSH2 0x3B29 JUMP JUMPDEST PUSH1 0x40 MLOAD DUP1 SWAP2 SUB SWAP1 REVERT JUMPDEST PUSH0 DUP2 PUSH1 0x3 ADD PUSH1 0x10 SWAP1 SLOAD SWAP1 PUSH2 0x100 EXP SWAP1 DIV PUSH1 0xFF AND PUSH1 0xFF AND EQ PUSH2 0x1B26 JUMPI PUSH1 0x40 MLOAD PUSH32 0xC56FB25300000000000000000000000000000000000000000000000000000000 DUP2 MSTORE PUSH1 0x4 ADD PUSH1 0x40 MLOAD DUP1 SWAP2 SUB SWAP1 REVERT JUMPDEST PUSH0 DUP1 PUSH0 SWAP1 POP JUMPDEST PUSH1 0x19 DUP2 PUSH1 0xFF AND LT ISZERO PUSH2 0x1B88 JUMPI DUP6 DUP2 PUSH1 0xFF AND PUSH1 0x19 DUP2 LT PUSH2 0x1B4E JUMPI PUSH2 0x1B4D PUSH2 0x3ED0 JUMP JUMPDEST JUMPDEST PUSH1 0x20 MUL ADD PUSH1 0x20 DUP2 ADD SWAP1 PUSH2 0x1B61 SWAP2 SWAP1 PUSH2 0x3EFD JUMP JUMPDEST ISZERO PUSH2 0x1B75 JUMPI DUP2 DUP1 PUSH2 0x1B71 SWAP1 PUSH2 0x3F5F JUMP JUMPDEST SWAP3 POP POP JUMPDEST DUP1 DUP1 PUSH2 0x1B80 SWAP1 PUSH2 0x3F8A JUMP JUMPDEST SWAP2 POP POP PUSH2 0x1B2C JUMP JUMPDEST POP PUSH0 PUSH1 0xA PUSH0 DUP9 PUSH1 0xFF AND DUP2 MSTORE PUSH1 0x20 ADD SWAP1 DUP2 MSTORE PUSH1 0x20 ADD PUSH0 KECCAK256 SLOAD SWAP1 POP PUSH0 DUP3 PUSH4 0xFFFFFFFF AND EQ DUP1 PUSH2 0x1BBA JUMPI POP DUP1 DUP3 PUSH4 0xFFFFFFFF AND GT JUMPDEST ISZERO PUSH2 0x1BFE JUMPI DUP2 DUP2 PUSH1 0x40 MLOAD PUSH32 0x6EFCA6FE00000000000000000000000000000000000000000000000000000000 DUP2 MSTORE PUSH1 0x4 ADD PUSH2 0x1BF5 SWAP3 SWAP2 SWAP1 PUSH2 0x3FF8 JUMP JUMPDEST PUSH1 0x40 MLOAD DUP1 SWAP2 SUB SWAP1 REVERT JUMPDEST PUSH2 0x1C0D DUP10 DUP10 DUP4 DUP11 PUSH1 0xFF AND PUSH2 0x2ADC JUMP JUMPDEST PUSH0 PUSH2 0x1C1D DUP10 DUP12 PUSH3 0x7A120 DUP9 PUSH2 0x2C83 JUMP JUMPDEST SWAP1 POP PUSH0 PUSH2 0x1C29 DUP5 PUSH2 0x2832 JUMP JUMPDEST SWAP1 POP DUP6 PUSH1 0x8 PUSH0 DUP4 DUP2 MSTORE PUSH1 0x20 ADD SWAP1 DUP2 MSTORE PUSH1 0x20 ADD PUSH0 KECCAK256 PUSH0 PUSH2 0x100 EXP DUP2 SLOAD DUP2 PUSH20 0xFFFFFFFFFFFFFFFFFFFFFFFFFFFFFFFFFFFFFFFF MUL NOT AND SWAP1 DUP4 PUSH20 0xFFFFFFFFFFFFFFFFFFFFFFFFFFFFFFFFFFFFFFFF AND MUL OR SWAP1 SSTORE POP DUP9 DUP6 PUSH1 0x3 ADD PUSH1 0x10 PUSH2 0x100 EXP DUP2 SLOAD DUP2 PUSH1 0xFF MUL NOT AND SWAP1 DUP4 PUSH1 0xFF AND MUL OR SWAP1 SSTORE POP DUP11 DUP6 PUSH1 0x1 ADD DUP2 SWAP1 SSTORE POP DUP10 DUP6 PUSH0 ADD PUSH0 PUSH2 0x100 EXP DUP2 SLOAD DUP2 PUSH20 0xFFFFFFFFFFFFFFFFFFFFFFFFFFFFFFFFFFFFFFFF MUL NOT AND SWAP1 DUP4 PUSH20 0xFFFFFFFFFFFFFFFFFFFFFFFFFFFFFFFFFFFFFFFF AND MUL OR SWAP1 SSTORE POP DUP7 DUP6 PUSH1 0x6 ADD PUSH0 PUSH2 0x100 EXP DUP2 SLOAD DUP2 PUSH1 0xFF MUL NOT AND SWAP1 DUP4 ISZERO ISZERO MUL OR SWAP1 SSTORE POP DUP8 DUP6 PUSH1 0x5 ADD SWAP1 PUSH1 0x19 PUSH2 0x1D0F SWAP3 SWAP2 SWAP1 PUSH2 0x3496 JUMP JUMPDEST POP DUP1 DUP6 PUSH1 0x2 ADD DUP2 SWAP1 SSTORE POP NUMBER DUP6 PUSH1 0x3 ADD PUSH0 PUSH2 0x100 EXP DUP2 SLOAD DUP2 PUSH8 0xFFFFFFFFFFFFFFFF MUL NOT AND SWAP1 DUP4 PUSH8 0xFFFFFFFFFFFFFFFF AND MUL OR SWAP1 SSTORE POP DUP6 PUSH20 0xFFFFFFFFFFFFFFFFFFFFFFFFFFFFFFFFFFFFFFFF AND PUSH32 0x6B735E3B542C1E7F37C869CDC85E44E5653BB9D7DF7669703552379DC5D89B5 DUP13 DUP13 DUP13 DUP12 DUP8 PUSH1 0x40 MLOAD PUSH2 0x1D91 SWAP6 SWAP5 SWAP4 SWAP3 SWAP2 SWAP1 PUSH2 0x44BD JUMP JUMPDEST PUSH1 0x40 MLOAD DUP1 SWAP2 SUB SWAP1 LOG2 POP POP POP POP POP POP PUSH2 0x1DA7 PUSH2 0x1EAF JUMP JUMPDEST POP POP POP POP POP JUMP JUMPDEST PUSH1 0x2 PUSH0 SLOAD SUB PUSH2 0x1DF2 JUMPI PUSH1 0x40 MLOAD PUSH32 0x8C379A000000000000000000000000000000000000000000000000000000000 DUP2 MSTORE PUSH1 0x4 ADD PUSH2 0x1DE9 SWAP1 PUSH2 0x4568 JUMP JUMPDEST PUSH1 0x40 MLOAD DUP1 SWAP2 SUB SWAP1 REVERT JUMPDEST PUSH1 0x2 PUSH0 DUP2 SWAP1 SSTORE POP JUMP JUMPDEST PUSH0 PUSH1 0x14 PUSH0 CALLDATASIZE SWAP1 POP LT ISZERO DUP1 ISZERO PUSH2 0x1E15 JUMPI POP PUSH2 0x1E14 CALLER PUSH2 0x107A JUMP JUMPDEST JUMPDEST ISZERO PUSH2 0x1E29 JUMPI PUSH1 0x14 CALLDATASIZE SUB CALLDATALOAD PUSH1 0x60 SHR SWAP1 POP PUSH2 0x1E2D JUMP JUMPDEST CALLER SWAP1 POP JUMPDEST SWAP1 JUMP JUMPDEST PUSH2 0x1EAA DUP4 DUP5 PUSH20 0xFFFFFFFFFFFFFFFFFFFFFFFFFFFFFFFFFFFFFFFF AND PUSH4 0xA9059CBB DUP6 DUP6 PUSH1 0x40 MLOAD PUSH1 0x24 ADD PUSH2 0x1E63 SWAP3 SWAP2 SWAP1 PUSH2 0x4586 JUMP JUMPDEST PUSH1 0x40 MLOAD PUSH1 0x20 DUP2 DUP4 SUB SUB DUP2 MSTORE SWAP1 PUSH1 0x40 MSTORE SWAP2 POP PUSH1 0xE0 SHL PUSH1 0x20 DUP3 ADD DUP1 MLOAD PUSH28 0xFFFFFFFFFFFFFFFFFFFFFFFFFFFFFFFFFFFFFFFFFFFFFFFFFFFFFFFF DUP4 DUP2 DUP4 AND OR DUP4 MSTORE POP POP POP POP PUSH2 0x2FD9 JUMP JUMPDEST POP POP POP JUMP JUMPDEST PUSH1 0x1 PUSH0 DUP2 SWAP1 SSTORE POP JUMP JUMPDEST PUSH0 PUSH1 0x8 PUSH0 DUP5 DUP2 MSTORE PUSH1 0x20 ADD SWAP1 DUP2 MSTORE PUSH1 0x20 ADD PUSH0 KECCAK256 PUSH0 SWAP1 SLOAD SWAP1 PUSH2 0x100 EXP SWAP1 DIV PUSH20 0xFFFFFFFFFFFFFFFFFFFFFFFFFFFFFFFFFFFFFFFF AND SWAP1 POP PUSH0 PUSH20 0xFFFFFFFFFFFFFFFFFFFFFFFFFFFFFFFFFFFFFFFF AND DUP2 PUSH20 0xFFFFFFFFFFFFFFFFFFFFFFFFFFFFFFFFFFFFFFFF AND SUB PUSH2 0x1F23 JUMPI PUSH0 DUP1 REVERT JUMPDEST PUSH1 0x8 PUSH0 DUP5 DUP2 MSTORE PUSH1 0x20 ADD SWAP1 DUP2 MSTORE PUSH1 0x20 ADD PUSH0 KECCAK256 PUSH0 PUSH2 0x100 EXP DUP2 SLOAD SWAP1 PUSH20 0xFFFFFFFFFFFFFFFFFFFFFFFFFFFFFFFFFFFFFFFF MUL NOT AND SWAP1 SSTORE PUSH0 PUSH1 0x7 PUSH0 DUP4 PUSH20 0xFFFFFFFFFFFFFFFFFFFFFFFFFFFFFFFFFFFFFFFF AND PUSH20 0xFFFFFFFFFFFFFFFFFFFFFFFFFFFFFFFFFFFFFFFF AND DUP2 MSTORE PUSH1 0x20 ADD SWAP1 DUP2 MSTORE PUSH1 0x20 ADD PUSH0 KECCAK256 SWAP1 POP PUSH2 0x3E8 DUP2 PUSH1 0x3 ADD PUSH0 SWAP1 SLOAD SWAP1 PUSH2 0x100 EXP SWAP1 DIV PUSH8 0xFFFFFFFFFFFFFFFF AND PUSH2 0x1FBB SWAP2 SWAP1 PUSH2 0x3DAF JUMP JUMPDEST PUSH8 0xFFFFFFFFFFFFFFFF AND NUMBER GT ISZERO PUSH2 0x1FD0 JUMPI PUSH0 DUP1 REVERT JUMPDEST PUSH0 DUP2 PUSH1 0x3 ADD PUSH1 0x10 SWAP1 SLOAD SWAP1 PUSH2 0x100 EXP SWAP1 DIV PUSH1 0xFF AND SWAP1 POP PUSH0 DUP1 PUSH0 SWAP1 POP JUMPDEST PUSH1 0x19 DUP2 LT ISZERO PUSH2 0x204E JUMPI PUSH1 0x1 ISZERO ISZERO DUP5 PUSH1 0x4 ADD DUP3 PUSH1 0x19 DUP2 LT PUSH2 0x200E JUMPI PUSH2 0x200D PUSH2 0x3ED0 JUMP JUMPDEST JUMPDEST PUSH1 0x20 SWAP2 DUP3 DUP3 DIV ADD SWAP2 SWAP1 MOD SWAP1 SLOAD SWAP1 PUSH2 0x100 EXP SWAP1 DIV PUSH1 0xFF AND ISZERO ISZERO SUB PUSH2 0x203B JUMPI PUSH1 0x1 DUP3 PUSH2 0x2038 SWAP2 SWAP1 PUSH2 0x431F JUMP JUMPDEST SWAP2 POP JUMPDEST DUP1 DUP1 PUSH2 0x2046 SWAP1 PUSH2 0x4385 JUMP JUMPDEST SWAP2 POP POP PUSH2 0x1FEB JUMP JUMPDEST POP PUSH2 0x2057 PUSH2 0x3551 JUMP JUMPDEST PUSH0 PUSH1 0x1 SWAP1 POP PUSH0 DUP1 PUSH0 SWAP1 POP JUMPDEST PUSH1 0x19 DUP2 LT ISZERO PUSH2 0x223A JUMPI PUSH0 DUP8 PUSH1 0x3 ADD PUSH1 0x10 SWAP1 SLOAD SWAP1 PUSH2 0x100 EXP SWAP1 DIV PUSH1 0xFF AND PUSH1 0xFF AND EQ DUP1 PUSH2 0x20AC JUMPI POP DUP7 PUSH1 0x3 ADD PUSH1 0x10 SWAP1 SLOAD SWAP1 PUSH2 0x100 EXP SWAP1 DIV PUSH1 0xFF AND PUSH1 0xFF AND DUP6 PUSH1 0x19 PUSH2 0x20AA SWAP2 SWAP1 PUSH2 0x4352 JUMP JUMPDEST EQ JUMPDEST ISZERO PUSH2 0x211F JUMPI DUP7 PUSH1 0x5 ADD DUP2 PUSH1 0x19 DUP2 LT PUSH2 0x20C7 JUMPI PUSH2 0x20C6 PUSH2 0x3ED0 JUMP JUMPDEST JUMPDEST PUSH1 0x20 SWAP2 DUP3 DUP3 DIV ADD SWAP2 SWAP1 MOD SWAP1 SLOAD SWAP1 PUSH2 0x100 EXP SWAP1 DIV PUSH1 0xFF AND ISZERO PUSH2 0x211A JUMPI PUSH1 0x1 DUP8 PUSH1 0x4 ADD DUP3 PUSH1 0x19 DUP2 LT PUSH2 0x20FA JUMPI PUSH2 0x20F9 PUSH2 0x3ED0 JUMP JUMPDEST JUMPDEST PUSH1 0x20 SWAP2 DUP3 DUP3 DIV ADD SWAP2 SWAP1 MOD PUSH2 0x100 EXP DUP2 SLOAD DUP2 PUSH1 0xFF MUL NOT AND SWAP1 DUP4 ISZERO ISZERO MUL OR SWAP1 SSTORE POP JUMPDEST PUSH2 0x2227 JUMP JUMPDEST DUP7 PUSH1 0x5 ADD DUP2 PUSH1 0x19 DUP2 LT PUSH2 0x2135 JUMPI PUSH2 0x2134 PUSH2 0x3ED0 JUMP JUMPDEST JUMPDEST PUSH1 0x20 SWAP2 DUP3 DUP3 DIV ADD SWAP2 SWAP1 MOD SWAP1 SLOAD SWAP1 PUSH2 0x100 EXP SWAP1 DIV PUSH1 0xFF AND ISZERO PUSH2 0x2226 JUMPI PUSH0 PUSH2 0x2198 DUP10 DUP4 DUP9 PUSH1 0x19 PUSH2 0x2163 SWAP2 SWAP1 PUSH2 0x4352 JUMP JUMPDEST DUP12 PUSH1 0x3 ADD PUSH1 0x10 SWAP1 SLOAD SWAP1 PUSH2 0x100 EXP SWAP1 DIV PUSH1 0xFF AND PUSH1 0xFF AND DUP15 DUP9 DUP2 MLOAD DUP2 LT PUSH2 0x218B JUMPI PUSH2 0x218A PUSH2 0x3ED0 JUMP JUMPDEST JUMPDEST PUSH1 0x20 MUL PUSH1 0x20 ADD ADD MLOAD PUSH2 0x306E JUMP JUMPDEST SWAP1 POP PUSH0 ISZERO ISZERO DUP2 ISZERO ISZERO SUB PUSH2 0x2206 JUMPI PUSH1 0x1 DUP9 PUSH1 0x3 ADD PUSH1 0x10 DUP3 DUP3 DUP3 SWAP1 SLOAD SWAP1 PUSH2 0x100 EXP SWAP1 DIV PUSH1 0xFF AND PUSH2 0x21C6 SWAP2 SWAP1 PUSH2 0x45AD JUMP JUMPDEST SWAP3 POP PUSH2 0x100 EXP DUP2 SLOAD DUP2 PUSH1 0xFF MUL NOT AND SWAP1 DUP4 PUSH1 0xFF AND MUL OR SWAP1 SSTORE POP PUSH1 0x1 DUP6 DUP4 PUSH1 0x19 DUP2 LT PUSH2 0x21F3 JUMPI PUSH2 0x21F2 PUSH2 0x3ED0 JUMP JUMPDEST JUMPDEST PUSH1 0x20 MUL ADD SWAP1 ISZERO ISZERO SWAP1 DUP2 ISZERO ISZERO DUP2 MSTORE POP POP PUSH0 SWAP4 POP JUMPDEST PUSH1 0x1 DUP7 PUSH2 0x2213 SWAP2 SWAP1 PUSH2 0x431F JUMP JUMPDEST SWAP6 POP PUSH1 0x1 DUP4 PUSH2 0x2222 SWAP2 SWAP1 PUSH2 0x431F JUMP JUMPDEST SWAP3 POP POP JUMPDEST JUMPDEST DUP1 DUP1 PUSH2 0x2232 SWAP1 PUSH2 0x4385 JUMP JUMPDEST SWAP2 POP POP PUSH2 0x2062 JUMP JUMPDEST POP DUP2 PUSH2 0x2490 JUMPI PUSH0 ISZERO ISZERO DUP7 PUSH1 0x6 ADD PUSH0 SWAP1 SLOAD SWAP1 PUSH2 0x100 EXP SWAP1 DIV PUSH1 0xFF AND ISZERO ISZERO SUB PUSH2 0x22E3 JUMPI DUP7 PUSH20 0xFFFFFFFFFFFFFFFFFFFFFFFFFFFFFFFFFFFFFFFF AND PUSH32 0xA2C15DF8B18610EBD81258461BF85A580874824ADDB5419F1A723080A1CBB9DF DUP8 PUSH1 0x1 ADD SLOAD PUSH0 DUP10 PUSH0 ADD PUSH0 SWAP1 SLOAD SWAP1 PUSH2 0x100 EXP SWAP1 DIV PUSH20 0xFFFFFFFFFFFFFFFFFFFFFFFFFFFFFFFFFFFFFFFF AND DUP10 DUP9 DUP13 PUSH1 0x4 ADD PUSH0 PUSH1 0x40 MLOAD PUSH2 0x22D6 SWAP8 SWAP7 SWAP6 SWAP5 SWAP4 SWAP3 SWAP2 SWAP1 PUSH2 0x52EE JUMP JUMPDEST PUSH1 0x40 MLOAD DUP1 SWAP2 SUB SWAP1 LOG2 PUSH2 0x2367 JUMP JUMPDEST DUP7 PUSH20 0xFFFFFFFFFFFFFFFFFFFFFFFFFFFFFFFFFFFFFFFF AND PUSH32 0xEAC20DB8D33062F61BF7DD8F8C6FB0CE14563DEC2FA4726683F5BB14C01241B4 DUP8 PUSH1 0x1 ADD SLOAD PUSH0 DUP10 PUSH0 ADD PUSH0 SWAP1 SLOAD SWAP1 PUSH2 0x100 EXP SWAP1 DIV PUSH20 0xFFFFFFFFFFFFFFFFFFFFFFFFFFFFFFFFFFFFFFFF AND DUP10 DUP9 DUP13 PUSH1 0x4 ADD PUSH0 PUSH1 0x40 MLOAD PUSH2 0x235E SWAP8 SWAP7 SWAP6 SWAP5 SWAP4 SWAP3 SWAP2 SWAP1 PUSH2 0x52EE JUMP JUMPDEST PUSH1 0x40 MLOAD DUP1 SWAP2 SUB SWAP1 LOG2 JUMPDEST PUSH2 0x2397 DUP7 PUSH0 ADD PUSH0 SWAP1 SLOAD SWAP1 PUSH2 0x100 EXP SWAP1 DIV PUSH20 0xFFFFFFFFFFFFFFFFFFFFFFFFFFFFFFFFFFFFFFFF AND DUP8 PUSH1 0x1 ADD SLOAD PUSH2 0x2902 JUMP JUMPDEST PUSH1 0x7 PUSH0 DUP9 PUSH20 0xFFFFFFFFFFFFFFFFFFFFFFFFFFFFFFFFFFFFFFFF AND PUSH20 0xFFFFFFFFFFFFFFFFFFFFFFFFFFFFFFFFFFFFFFFF AND DUP2 MSTORE PUSH1 0x20 ADD SWAP1 DUP2 MSTORE PUSH1 0x20 ADD PUSH0 KECCAK256 PUSH0 DUP1 DUP3 ADD PUSH0 PUSH2 0x100 EXP DUP2 SLOAD SWAP1 PUSH20 0xFFFFFFFFFFFFFFFFFFFFFFFFFFFFFFFFFFFFFFFF MUL NOT AND SWAP1 SSTORE PUSH1 0x1 DUP3 ADD PUSH0 SWAP1 SSTORE PUSH1 0x2 DUP3 ADD PUSH0 SWAP1 SSTORE PUSH1 0x3 DUP3 ADD PUSH0 PUSH2 0x100 EXP DUP2 SLOAD SWAP1 PUSH8 0xFFFFFFFFFFFFFFFF MUL NOT AND SWAP1 SSTORE PUSH1 0x3 DUP3 ADD PUSH1 0x8 PUSH2 0x100 EXP DUP2 SLOAD SWAP1 PUSH8 0xFFFFFFFFFFFFFFFF MUL NOT AND SWAP1 SSTORE PUSH1 0x3 DUP3 ADD PUSH1 0x10 PUSH2 0x100 EXP DUP2 SLOAD SWAP1 PUSH1 0xFF MUL NOT AND SWAP1 SSTORE PUSH1 0x4 DUP3 ADD PUSH0 PUSH2 0x2460 SWAP2 SWAP1 PUSH2 0x3410 JUMP JUMPDEST PUSH1 0x5 DUP3 ADD PUSH0 PUSH2 0x246F SWAP2 SWAP1 PUSH2 0x3410 JUMP JUMPDEST PUSH1 0x6 DUP3 ADD PUSH0 PUSH2 0x100 EXP DUP2 SLOAD SWAP1 PUSH1 0xFF MUL NOT AND SWAP1 SSTORE POP POP POP POP POP POP POP POP POP PUSH2 0x27AA JUMP JUMPDEST PUSH0 PUSH1 0x9 PUSH0 DUP9 PUSH1 0x3 ADD PUSH1 0x10 SWAP1 SLOAD SWAP1 PUSH2 0x100 EXP SWAP1 DIV PUSH1 0xFF AND PUSH1 0xFF AND DUP2 MSTORE PUSH1 0x20 ADD SWAP1 DUP2 MSTORE PUSH1 0x20 ADD PUSH0 KECCAK256 PUSH0 DUP7 DUP2 MSTORE PUSH1 0x20 ADD SWAP1 DUP2 MSTORE PUSH1 0x20 ADD PUSH0 KECCAK256 SLOAD SWAP1 POP PUSH0 ISZERO ISZERO DUP8 PUSH1 0x6 ADD PUSH0 SWAP1 SLOAD SWAP1 PUSH2 0x100 EXP SWAP1 DIV PUSH1 0xFF AND ISZERO ISZERO SUB PUSH2 0x25CC JUMPI DUP1 DUP8 PUSH1 0x3 ADD PUSH1 0x8 PUSH2 0x100 EXP DUP2 SLOAD DUP2 PUSH8 0xFFFFFFFFFFFFFFFF MUL NOT AND SWAP1 DUP4 PUSH8 0xFFFFFFFFFFFFFFFF AND MUL OR SWAP1 SSTORE POP PUSH0 DUP8 PUSH1 0x2 ADD DUP2 SWAP1 SSTORE POP DUP8 PUSH20 0xFFFFFFFFFFFFFFFFFFFFFFFFFFFFFFFFFFFFFFFF AND PUSH32 0xA2C15DF8B18610EBD81258461BF85A580874824ADDB5419F1A723080A1CBB9DF DUP9 PUSH1 0x1 ADD SLOAD PUSH2 0x2710 DUP11 PUSH1 0x1 ADD SLOAD DUP6 PUSH2 0x2567 SWAP2 SWAP1 PUSH2 0x4281 JUMP JUMPDEST PUSH2 0x2571 SWAP2 SWAP1 PUSH2 0x42EF JUMP JUMPDEST DUP11 PUSH0 ADD PUSH0 SWAP1 SLOAD SWAP1 PUSH2 0x100 EXP SWAP1 DIV PUSH20 0xFFFFFFFFFFFFFFFFFFFFFFFFFFFFFFFFFFFFFFFF AND DUP12 PUSH1 0x3 ADD PUSH1 0x10 SWAP1 SLOAD SWAP1 PUSH2 0x100 EXP SWAP1 DIV PUSH1 0xFF AND DUP10 DUP14 PUSH1 0x4 ADD DUP9 PUSH1 0x40 MLOAD PUSH2 0x25BF SWAP8 SWAP7 SWAP6 SWAP5 SWAP4 SWAP3 SWAP2 SWAP1 PUSH2 0x535E JUMP JUMPDEST PUSH1 0x40 MLOAD DUP1 SWAP2 SUB SWAP1 LOG2 PUSH2 0x27A1 JUMP JUMPDEST PUSH0 DUP8 PUSH1 0x1 ADD SLOAD SWAP1 POP PUSH0 DUP9 PUSH0 ADD PUSH0 SWAP1 SLOAD SWAP1 PUSH2 0x100 EXP SWAP1 DIV PUSH20 0xFFFFFFFFFFFFFFFFFFFFFFFFFFFFFFFFFFFFFFFF AND SWAP1 POP DUP10 PUSH20 0xFFFFFFFFFFFFFFFFFFFFFFFFFFFFFFFFFFFFFFFF AND PUSH32 0xEAC20DB8D33062F61BF7DD8F8C6FB0CE14563DEC2FA4726683F5BB14C01241B4 DUP4 PUSH2 0x2710 DUP6 DUP8 PUSH2 0x2642 SWAP2 SWAP1 PUSH2 0x4281 JUMP JUMPDEST PUSH2 0x264C SWAP2 SWAP1 PUSH2 0x42EF JUMP JUMPDEST DUP5 DUP14 PUSH1 0x3 ADD PUSH1 0x10 SWAP1 SLOAD SWAP1 PUSH2 0x100 EXP SWAP1 DIV PUSH1 0xFF AND DUP12 DUP16 PUSH1 0x4 ADD DUP11 PUSH1 0x40 MLOAD PUSH2 0x2678 SWAP8 SWAP7 SWAP6 SWAP5 SWAP4 SWAP3 SWAP2 SWAP1 PUSH2 0x535E JUMP JUMPDEST PUSH1 0x40 MLOAD DUP1 SWAP2 SUB SWAP1 LOG2 PUSH2 0x268E DUP2 DUP11 PUSH1 0x1 ADD SLOAD PUSH2 0x2902 JUMP JUMPDEST PUSH1 0x7 PUSH0 DUP12 PUSH20 0xFFFFFFFFFFFFFFFFFFFFFFFFFFFFFFFFFFFFFFFF AND PUSH20 0xFFFFFFFFFFFFFFFFFFFFFFFFFFFFFFFFFFFFFFFF AND DUP2 MSTORE PUSH1 0x20 ADD SWAP1 DUP2 MSTORE PUSH1 0x20 ADD PUSH0 KECCAK256 PUSH0 DUP1 DUP3 ADD PUSH0 PUSH2 0x100 EXP DUP2 SLOAD SWAP1 PUSH20 0xFFFFFFFFFFFFFFFFFFFFFFFFFFFFFFFFFFFFFFFF MUL NOT AND SWAP1 SSTORE PUSH1 0x1 DUP3 ADD PUSH0 SWAP1 SSTORE PUSH1 0x2 DUP3 ADD PUSH0 SWAP1 SSTORE PUSH1 0x3 DUP3 ADD PUSH0 PUSH2 0x100 EXP DUP2 SLOAD SWAP1 PUSH8 0xFFFFFFFFFFFFFFFF MUL NOT AND SWAP1 SSTORE PUSH1 0x3 DUP3 ADD PUSH1 0x8 PUSH2 0x100 EXP DUP2 SLOAD SWAP1 PUSH8 0xFFFFFFFFFFFFFFFF MUL NOT AND SWAP1 SSTORE PUSH1 0x3 DUP3 ADD PUSH1 0x10 PUSH2 0x100 EXP DUP2 SLOAD SWAP1 PUSH1 0xFF MUL NOT AND SWAP1 SSTORE PUSH1 0x4 DUP3 ADD PUSH0 PUSH2 0x2757 SWAP2 SWAP1 PUSH2 0x3410 JUMP JUMPDEST PUSH1 0x5 DUP3 ADD PUSH0 PUSH2 0x2766 SWAP2 SWAP1 PUSH2 0x3410 JUMP JUMPDEST PUSH1 0x6 DUP3 ADD PUSH0 PUSH2 0x100 EXP DUP2 SLOAD SWAP1 PUSH1 0xFF MUL NOT AND SWAP1 SSTORE POP POP PUSH2 0x279E DUP11 PUSH2 0x2710 DUP5 DUP7 PUSH2 0x278E SWAP2 SWAP1 PUSH2 0x4281 JUMP JUMPDEST PUSH2 0x2798 SWAP2 SWAP1 PUSH2 0x42EF JUMP JUMPDEST DUP4 PUSH2 0x2A4C JUMP JUMPDEST POP POP JUMPDEST POP POP POP POP POP POP POP POP JUMPDEST POP POP JUMP JUMPDEST PUSH0 PUSH2 0x27B8 DUP3 PUSH2 0x131F JUMP JUMPDEST SWAP1 POP DUP1 CALLVALUE LT ISZERO PUSH2 0x2801 JUMPI DUP1 CALLVALUE PUSH1 0x40 MLOAD PUSH32 0xDE9B74A100000000000000000000000000000000000000000000000000000000 DUP2 MSTORE PUSH1 0x4 ADD PUSH2 0x27F8 SWAP3 SWAP2 SWAP1 PUSH2 0x53CE JUMP JUMPDEST PUSH1 0x40 MLOAD DUP1 SWAP2 SUB SWAP1 REVERT JUMPDEST PUSH2 0x2815 DUP2 CALLVALUE PUSH2 0x2810 SWAP2 SWAP1 PUSH2 0x4352 JUMP JUMPDEST PUSH2 0x3133 JUMP JUMPDEST DUP1 PUSH1 0x1 PUSH0 DUP3 DUP3 SLOAD PUSH2 0x2826 SWAP2 SWAP1 PUSH2 0x431F JUMP JUMPDEST SWAP3 POP POP DUP2 SWAP1 SSTORE POP SWAP2 SWAP1 POP JUMP JUMPDEST PUSH0 PUSH1 0x2 PUSH0 SWAP1 SLOAD SWAP1 PUSH2 0x100 EXP SWAP1 DIV PUSH20 0xFFFFFFFFFFFFFFFFFFFFFFFFFFFFFFFFFFFFFFFF AND PUSH20 0xFFFFFFFFFFFFFFFFFFFFFFFFFFFFFFFFFFFFFFFF AND PUSH4 0x5D3B1D30 PUSH32 0xD729DC84E21AE57FFB6BE0053BF2B0668AA2AAF300A2A7B2DDF7DC0BB6E875A8 PUSH2 0x240 PUSH1 0x3 PUSH3 0x2625A0 DUP8 PUSH1 0x40 MLOAD DUP7 PUSH4 0xFFFFFFFF AND PUSH1 0xE0 SHL DUP2 MSTORE PUSH1 0x4 ADD PUSH2 0x28BB SWAP6 SWAP5 SWAP4 SWAP3 SWAP2 SWAP1 PUSH2 0x54FA JUMP JUMPDEST PUSH1 0x20 PUSH1 0x40 MLOAD DUP1 DUP4 SUB DUP2 PUSH0 DUP8 GAS CALL ISZERO DUP1 ISZERO PUSH2 0x28D7 JUMPI RETURNDATASIZE PUSH0 DUP1 RETURNDATACOPY RETURNDATASIZE PUSH0 REVERT JUMPDEST POP POP POP POP PUSH1 0x40 MLOAD RETURNDATASIZE PUSH1 0x1F NOT PUSH1 0x1F DUP3 ADD AND DUP3 ADD DUP1 PUSH1 0x40 MSTORE POP DUP2 ADD SWAP1 PUSH2 0x28FB SWAP2 SWAP1 PUSH2 0x554B JUMP JUMPDEST SWAP1 POP SWAP2 SWAP1 POP JUMP JUMPDEST PUSH0 PUSH20 0xFFFFFFFFFFFFFFFFFFFFFFFFFFFFFFFFFFFFFFFF AND DUP3 PUSH20 0xFFFFFFFFFFFFFFFFFFFFFFFFFFFFFFFFFFFFFFFF AND SUB PUSH2 0x29FB JUMPI PUSH0 PUSH1 0x6 PUSH0 SWAP1 SLOAD SWAP1 PUSH2 0x100 EXP SWAP1 DIV PUSH20 0xFFFFFFFFFFFFFFFFFFFFFFFFFFFFFFFFFFFFFFFF AND PUSH20 0xFFFFFFFFFFFFFFFFFFFFFFFFFFFFFFFFFFFFFFFF AND DUP3 PUSH1 0x40 MLOAD PUSH2 0x297B SWAP1 PUSH2 0x3E6E JUMP JUMPDEST PUSH0 PUSH1 0x40 MLOAD DUP1 DUP4 SUB DUP2 DUP6 DUP8 GAS CALL SWAP3 POP POP POP RETURNDATASIZE DUP1 PUSH0 DUP2 EQ PUSH2 0x29B5 JUMPI PUSH1 0x40 MLOAD SWAP2 POP PUSH1 0x1F NOT PUSH1 0x3F RETURNDATASIZE ADD AND DUP3 ADD PUSH1 0x40 MSTORE RETURNDATASIZE DUP3 MSTORE RETURNDATASIZE PUSH0 PUSH1 0x20 DUP5 ADD RETURNDATACOPY PUSH2 0x29BA JUMP JUMPDEST PUSH1 0x60 SWAP2 POP JUMPDEST POP POP SWAP1 POP DUP1 PUSH2 0x29F5 JUMPI PUSH1 0x40 MLOAD PUSH32 0xF0C49D4400000000000000000000000000000000000000000000000000000000 DUP2 MSTORE PUSH1 0x4 ADD PUSH1 0x40 MLOAD DUP1 SWAP2 SUB SWAP1 REVERT JUMPDEST POP PUSH2 0x2A48 JUMP JUMPDEST PUSH2 0x2A47 PUSH1 0x6 PUSH0 SWAP1 SLOAD SWAP1 PUSH2 0x100 EXP SWAP1 DIV PUSH20 0xFFFFFFFFFFFFFFFFFFFFFFFFFFFFFFFFFFFFFFFF AND DUP3 DUP5 PUSH20 0xFFFFFFFFFFFFFFFFFFFFFFFFFFFFFFFFFFFFFFFF AND PUSH2 0x1E30 SWAP1 SWAP3 SWAP2 SWAP1 PUSH4 0xFFFFFFFF AND JUMP JUMPDEST JUMPDEST POP POP JUMP JUMPDEST PUSH1 0x6 PUSH0 SWAP1 SLOAD SWAP1 PUSH2 0x100 EXP SWAP1 DIV PUSH20 0xFFFFFFFFFFFFFFFFFFFFFFFFFFFFFFFFFFFFFFFF AND PUSH20 0xFFFFFFFFFFFFFFFFFFFFFFFFFFFFFFFFFFFFFFFF AND PUSH4 0x6C025EC2 DUP5 DUP5 DUP5 PUSH1 0x40 MLOAD DUP5 PUSH4 0xFFFFFFFF AND PUSH1 0xE0 SHL DUP2 MSTORE PUSH1 0x4 ADD PUSH2 0x2AAA SWAP4 SWAP3 SWAP2 SWAP1 PUSH2 0x5576 JUMP JUMPDEST PUSH0 PUSH1 0x40 MLOAD DUP1 DUP4 SUB DUP2 PUSH0 DUP8 DUP1 EXTCODESIZE ISZERO DUP1 ISZERO PUSH2 0x2AC1 JUMPI PUSH0 DUP1 REVERT JUMPDEST POP GAS CALL ISZERO DUP1 ISZERO PUSH2 0x2AD3 JUMPI RETURNDATASIZE PUSH0 DUP1 RETURNDATACOPY RETURNDATASIZE PUSH0 REVERT JUMPDEST POP POP POP POP POP POP POP JUMP JUMPDEST PUSH0 DUP1 PUSH20 0xFFFFFFFFFFFFFFFFFFFFFFFFFFFFFFFFFFFFFFFF AND DUP5 PUSH20 0xFFFFFFFFFFFFFFFFFFFFFFFFFFFFFFFFFFFFFFFF AND SUB PUSH2 0x2B50 JUMPI PUSH1 0x6 PUSH0 SWAP1 SLOAD SWAP1 PUSH2 0x100 EXP SWAP1 DIV PUSH20 0xFFFFFFFFFFFFFFFFFFFFFFFFFFFFFFFFFFFFFFFF AND PUSH20 0xFFFFFFFFFFFFFFFFFFFFFFFFFFFFFFFFFFFFFFFF AND BALANCE SWAP1 POP PUSH2 0x2BEC JUMP JUMPDEST DUP4 PUSH20 0xFFFFFFFFFFFFFFFFFFFFFFFFFFFFFFFFFFFFFFFF AND PUSH4 0x70A08231 PUSH1 0x6 PUSH0 SWAP1 SLOAD SWAP1 PUSH2 0x100 EXP SWAP1 DIV PUSH20 0xFFFFFFFFFFFFFFFFFFFFFFFFFFFFFFFFFFFFFFFF AND PUSH1 0x40 MLOAD DUP3 PUSH4 0xFFFFFFFF AND PUSH1 0xE0 SHL DUP2 MSTORE PUSH1 0x4 ADD PUSH2 0x2BAA SWAP2 SWAP1 PUSH2 0x3B51 JUMP JUMPDEST PUSH1 0x20 PUSH1 0x40 MLOAD DUP1 DUP4 SUB DUP2 DUP7 GAS STATICCALL ISZERO DUP1 ISZERO PUSH2 0x2BC5 JUMPI RETURNDATASIZE PUSH0 DUP1 RETURNDATACOPY RETURNDATASIZE PUSH0 REVERT JUMPDEST POP POP POP POP PUSH1 0x40 MLOAD RETURNDATASIZE PUSH1 0x1F NOT PUSH1 0x1F DUP3 ADD AND DUP3 ADD DUP1 PUSH1 0x40 MSTORE POP DUP2 ADD SWAP1 PUSH2 0x2BE9 SWAP2 SWAP1 PUSH2 0x554B JUMP JUMPDEST SWAP1 POP JUMPDEST PUSH0 PUSH2 0x2710 PUSH1 0x9 PUSH0 DUP6 DUP2 MSTORE PUSH1 0x20 ADD SWAP1 DUP2 MSTORE PUSH1 0x20 ADD PUSH0 KECCAK256 PUSH0 DUP7 DUP2 MSTORE PUSH1 0x20 ADD SWAP1 DUP2 MSTORE PUSH1 0x20 ADD PUSH0 KECCAK256 SLOAD PUSH2 0x2C1B SWAP2 SWAP1 PUSH2 0x4352 JUMP JUMPDEST PUSH1 0x6E DUP4 PUSH2 0x2C28 SWAP2 SWAP1 PUSH2 0x4281 JUMP JUMPDEST PUSH2 0x2C32 SWAP2 SWAP1 PUSH2 0x42EF JUMP JUMPDEST SWAP1 POP DUP1 DUP7 GT ISZERO PUSH2 0x2C7B JUMPI DUP6 DUP2 PUSH1 0x40 MLOAD PUSH32 0xD53662AA00000000000000000000000000000000000000000000000000000000 DUP2 MSTORE PUSH1 0x4 ADD PUSH2 0x2C72 SWAP3 SWAP2 SWAP1 PUSH2 0x53CE JUMP JUMPDEST PUSH1 0x40 MLOAD DUP1 SWAP2 SUB SWAP1 REVERT JUMPDEST POP POP POP POP POP POP JUMP JUMPDEST PUSH0 PUSH1 0x6 PUSH0 SWAP1 SLOAD SWAP1 PUSH2 0x100 EXP SWAP1 DIV PUSH20 0xFFFFFFFFFFFFFFFFFFFFFFFFFFFFFFFFFFFFFFFF AND PUSH20 0xFFFFFFFFFFFFFFFFFFFFFFFFFFFFFFFFFFFFFFFF AND PUSH4 0xBFD7F9CC ADDRESS DUP8 PUSH1 0x40 MLOAD DUP4 PUSH4 0xFFFFFFFF AND PUSH1 0xE0 SHL DUP2 MSTORE PUSH1 0x4 ADD PUSH2 0x2CE0 SWAP3 SWAP2 SWAP1 PUSH2 0x3EA9 JUMP JUMPDEST PUSH1 0x20 PUSH1 0x40 MLOAD DUP1 DUP4 SUB DUP2 DUP7 GAS STATICCALL ISZERO DUP1 ISZERO PUSH2 0x2CFB JUMPI RETURNDATASIZE PUSH0 DUP1 RETURNDATACOPY RETURNDATASIZE PUSH0 REVERT JUMPDEST POP POP POP POP PUSH1 0x40 MLOAD RETURNDATASIZE PUSH1 0x1F NOT PUSH1 0x1F DUP3 ADD AND DUP3 ADD DUP1 PUSH1 0x40 MSTORE POP DUP2 ADD SWAP1 PUSH2 0x2D1F SWAP2 SWAP1 PUSH2 0x55BF JUMP JUMPDEST PUSH2 0x2D55 JUMPI PUSH1 0x40 MLOAD PUSH32 0x51C3B94F00000000000000000000000000000000000000000000000000000000 DUP2 MSTORE PUSH1 0x4 ADD PUSH1 0x40 MLOAD DUP1 SWAP2 SUB SWAP1 REVERT JUMPDEST PUSH0 DUP5 SUB PUSH2 0x2D8E JUMPI PUSH1 0x40 MLOAD PUSH32 0x7375C8400000000000000000000000000000000000000000000000000000000 DUP2 MSTORE PUSH1 0x4 ADD PUSH1 0x40 MLOAD DUP1 SWAP2 SUB SWAP1 REVERT JUMPDEST PUSH0 DUP1 PUSH1 0x6 PUSH0 SWAP1 SLOAD SWAP1 PUSH2 0x100 EXP SWAP1 DIV PUSH20 0xFFFFFFFFFFFFFFFFFFFFFFFFFFFFFFFFFFFFFFFF AND PUSH20 0xFFFFFFFFFFFFFFFFFFFFFFFFFFFFFFFFFFFFFFFF AND PUSH4 0xA5748A8 DUP6 PUSH1 0x40 MLOAD DUP3 PUSH4 0xFFFFFFFF AND PUSH1 0xE0 SHL DUP2 MSTORE PUSH1 0x4 ADD PUSH2 0x2DEA SWAP2 SWAP1 PUSH2 0x3B51 JUMP JUMPDEST PUSH1 0x40 DUP1 MLOAD DUP1 DUP4 SUB DUP2 DUP7 GAS STATICCALL ISZERO DUP1 ISZERO PUSH2 0x2E04 JUMPI RETURNDATASIZE PUSH0 DUP1 RETURNDATACOPY RETURNDATASIZE PUSH0 REVERT JUMPDEST POP POP POP POP PUSH1 0x40 MLOAD RETURNDATASIZE PUSH1 0x1F NOT PUSH1 0x1F DUP3 ADD AND DUP3 ADD DUP1 PUSH1 0x40 MSTORE POP DUP2 ADD SWAP1 PUSH2 0x2E28 SWAP2 SWAP1 PUSH2 0x55EA JUMP JUMPDEST SWAP2 POP SWAP2 POP DUP2 ISZERO PUSH2 0x2E6F JUMPI DUP1 PUSH1 0x40 MLOAD PUSH32 0x6C2775F500000000000000000000000000000000000000000000000000000000 DUP2 MSTORE PUSH1 0x4 ADD PUSH2 0x2E66 SWAP2 SWAP1 PUSH2 0x3B29 JUMP JUMPDEST PUSH1 0x40 MLOAD DUP1 SWAP2 SUB SWAP1 REVERT JUMPDEST PUSH2 0x2E78 DUP6 PUSH2 0x131F JUMP JUMPDEST SWAP3 POP PUSH0 PUSH20 0xFFFFFFFFFFFFFFFFFFFFFFFFFFFFFFFFFFFFFFFF AND DUP8 PUSH20 0xFFFFFFFFFFFFFFFFFFFFFFFFFFFFFFFFFFFFFFFF AND SUB PUSH2 0x2F2E JUMPI DUP3 DUP7 PUSH2 0x2EB9 SWAP2 SWAP1 PUSH2 0x431F JUMP JUMPDEST CALLVALUE LT ISZERO PUSH2 0x2F0A JUMPI DUP3 DUP7 PUSH2 0x2ECC SWAP2 SWAP1 PUSH2 0x431F JUMP JUMPDEST CALLVALUE PUSH1 0x40 MLOAD PUSH32 0xDE9B74A100000000000000000000000000000000000000000000000000000000 DUP2 MSTORE PUSH1 0x4 ADD PUSH2 0x2F01 SWAP3 SWAP2 SWAP1 PUSH2 0x53CE JUMP JUMPDEST PUSH1 0x40 MLOAD DUP1 SWAP2 SUB SWAP1 REVERT JUMPDEST PUSH2 0x2F29 DUP7 DUP5 PUSH2 0x2F19 SWAP2 SWAP1 PUSH2 0x431F JUMP JUMPDEST CALLVALUE PUSH2 0x2F24 SWAP2 SWAP1 PUSH2 0x4352 JUMP JUMPDEST PUSH2 0x3133 JUMP JUMPDEST PUSH2 0x2FB7 JUMP JUMPDEST DUP3 CALLVALUE LT ISZERO PUSH2 0x2F75 JUMPI DUP3 CALLVALUE PUSH1 0x40 MLOAD PUSH32 0xDE9B74A100000000000000000000000000000000000000000000000000000000 DUP2 MSTORE PUSH1 0x4 ADD PUSH2 0x2F6C SWAP3 SWAP2 SWAP1 PUSH2 0x53CE JUMP JUMPDEST PUSH1 0x40 MLOAD DUP1 SWAP2 SUB SWAP1 REVERT JUMPDEST PUSH2 0x2FA2 DUP5 ADDRESS DUP9 DUP11 PUSH20 0xFFFFFFFFFFFFFFFFFFFFFFFFFFFFFFFFFFFFFFFF AND PUSH2 0x31DF SWAP1 SWAP4 SWAP3 SWAP2 SWAP1 PUSH4 0xFFFFFFFF AND JUMP JUMPDEST PUSH2 0x2FB6 DUP4 CALLVALUE PUSH2 0x2FB1 SWAP2 SWAP1 PUSH2 0x4352 JUMP JUMPDEST PUSH2 0x3133 JUMP JUMPDEST JUMPDEST DUP3 PUSH1 0x1 PUSH0 DUP3 DUP3 SLOAD PUSH2 0x2FC8 SWAP2 SWAP1 PUSH2 0x431F JUMP JUMPDEST SWAP3 POP POP DUP2 SWAP1 SSTORE POP POP POP SWAP5 SWAP4 POP POP POP POP JUMP JUMPDEST PUSH0 PUSH2 0x3003 DUP3 DUP5 PUSH20 0xFFFFFFFFFFFFFFFFFFFFFFFFFFFFFFFFFFFFFFFF AND PUSH2 0x3261 SWAP1 SWAP2 SWAP1 PUSH4 0xFFFFFFFF AND JUMP JUMPDEST SWAP1 POP PUSH0 DUP2 MLOAD EQ ISZERO DUP1 ISZERO PUSH2 0x3027 JUMPI POP DUP1 DUP1 PUSH1 0x20 ADD SWAP1 MLOAD DUP2 ADD SWAP1 PUSH2 0x3025 SWAP2 SWAP1 PUSH2 0x55BF JUMP JUMPDEST ISZERO JUMPDEST ISZERO PUSH2 0x3069 JUMPI DUP3 PUSH1 0x40 MLOAD PUSH32 0x5274AFE700000000000000000000000000000000000000000000000000000000 DUP2 MSTORE PUSH1 0x4 ADD PUSH2 0x3060 SWAP2 SWAP1 PUSH2 0x3B51 JUMP JUMPDEST PUSH1 0x40 MLOAD DUP1 SWAP2 SUB SWAP1 REVERT JUMPDEST POP POP POP JUMP JUMPDEST PUSH0 DUP1 DUP5 PUSH2 0x2710 DUP6 PUSH2 0x307F SWAP2 SWAP1 PUSH2 0x4281 JUMP JUMPDEST PUSH2 0x3089 SWAP2 SWAP1 PUSH2 0x42EF JUMP JUMPDEST PUSH2 0x2710 PUSH2 0x3096 SWAP2 SWAP1 PUSH2 0x4352 JUMP JUMPDEST SWAP1 POP PUSH0 DUP2 PUSH2 0x2710 DUP6 PUSH2 0x30A8 SWAP2 SWAP1 PUSH2 0x5628 JUMP JUMPDEST GT PUSH2 0x30B2 JUMPI PUSH1 0x1 SWAP1 POP JUMPDEST PUSH1 0x1 PUSH1 0x7 PUSH0 DUP11 PUSH20 0xFFFFFFFFFFFFFFFFFFFFFFFFFFFFFFFFFFFFFFFF AND PUSH20 0xFFFFFFFFFFFFFFFFFFFFFFFFFFFFFFFFFFFFFFFF AND DUP2 MSTORE PUSH1 0x20 ADD SWAP1 DUP2 MSTORE PUSH1 0x20 ADD PUSH0 KECCAK256 PUSH1 0x4 ADD DUP9 PUSH1 0x19 DUP2 LT PUSH2 0x3106 JUMPI PUSH2 0x3105 PUSH2 0x3ED0 JUMP JUMPDEST JUMPDEST PUSH1 0x20 SWAP2 DUP3 DUP3 DIV ADD SWAP2 SWAP1 MOD PUSH2 0x100 EXP DUP2 SLOAD DUP2 PUSH1 0xFF MUL NOT AND SWAP1 DUP4 ISZERO ISZERO MUL OR SWAP1 SSTORE POP DUP1 SWAP3 POP POP POP SWAP6 SWAP5 POP POP POP POP POP JUMP JUMPDEST PUSH0 DUP2 SUB ISZERO PUSH2 0x31DC JUMPI PUSH0 CALLER PUSH20 0xFFFFFFFFFFFFFFFFFFFFFFFFFFFFFFFFFFFFFFFF AND DUP3 PUSH1 0x40 MLOAD PUSH2 0x3160 SWAP1 PUSH2 0x3E6E JUMP JUMPDEST PUSH0 PUSH1 0x40 MLOAD DUP1 DUP4 SUB DUP2 DUP6 DUP8 GAS CALL SWAP3 POP POP POP RETURNDATASIZE DUP1 PUSH0 DUP2 EQ PUSH2 0x319A JUMPI PUSH1 0x40 MLOAD SWAP2 POP PUSH1 0x1F NOT PUSH1 0x3F RETURNDATASIZE ADD AND DUP3 ADD PUSH1 0x40 MSTORE RETURNDATASIZE DUP3 MSTORE RETURNDATASIZE PUSH0 PUSH1 0x20 DUP5 ADD RETURNDATACOPY PUSH2 0x319F JUMP JUMPDEST PUSH1 0x60 SWAP2 POP JUMPDEST POP POP SWAP1 POP DUP1 PUSH2 0x31DA JUMPI PUSH1 0x40 MLOAD PUSH32 0xF0C49D4400000000000000000000000000000000000000000000000000000000 DUP2 MSTORE PUSH1 0x4 ADD PUSH1 0x40 MLOAD DUP1 SWAP2 SUB SWAP1 REVERT JUMPDEST POP JUMPDEST POP JUMP JUMPDEST PUSH2 0x325B DUP5 DUP6 PUSH20 0xFFFFFFFFFFFFFFFFFFFFFFFFFFFFFFFFFFFFFFFF AND PUSH4 0x23B872DD DUP7 DUP7 DUP7 PUSH1 0x40 MLOAD PUSH1 0x24 ADD PUSH2 0x3214 SWAP4 SWAP3 SWAP2 SWAP1 PUSH2 0x5658 JUMP JUMPDEST PUSH1 0x40 MLOAD PUSH1 0x20 DUP2 DUP4 SUB SUB DUP2 MSTORE SWAP1 PUSH1 0x40 MSTORE SWAP2 POP PUSH1 0xE0 SHL PUSH1 0x20 DUP3 ADD DUP1 MLOAD PUSH28 0xFFFFFFFFFFFFFFFFFFFFFFFFFFFFFFFFFFFFFFFFFFFFFFFFFFFFFFFF DUP4 DUP2 DUP4 AND OR DUP4 MSTORE POP POP POP POP PUSH2 0x2FD9 JUMP JUMPDEST POP POP POP POP JUMP JUMPDEST PUSH1 0x60 PUSH2 0x326E DUP4 DUP4 PUSH0 PUSH2 0x3276 JUMP JUMPDEST SWAP1 POP SWAP3 SWAP2 POP POP JUMP JUMPDEST PUSH1 0x60 DUP2 SELFBALANCE LT ISZERO PUSH2 0x32BD JUMPI ADDRESS PUSH1 0x40 MLOAD PUSH32 0xCD78605900000000000000000000000000000000000000000000000000000000 DUP2 MSTORE PUSH1 0x4 ADD PUSH2 0x32B4 SWAP2 SWAP1 PUSH2 0x3B51 JUMP JUMPDEST PUSH1 0x40 MLOAD DUP1 SWAP2 SUB SWAP1 REVERT JUMPDEST PUSH0 DUP1 DUP6 PUSH20 0xFFFFFFFFFFFFFFFFFFFFFFFFFFFFFFFFFFFFFFFF AND DUP5 DUP7 PUSH1 0x40 MLOAD PUSH2 0x32E5 SWAP2 SWAP1 PUSH2 0x56EF JUMP JUMPDEST PUSH0 PUSH1 0x40 MLOAD DUP1 DUP4 SUB DUP2 DUP6 DUP8 GAS CALL SWAP3 POP POP POP RETURNDATASIZE DUP1 PUSH0 DUP2 EQ PUSH2 0x331F JUMPI PUSH1 0x40 MLOAD SWAP2 POP PUSH1 0x1F NOT PUSH1 0x3F RETURNDATASIZE ADD AND DUP3 ADD PUSH1 0x40 MSTORE RETURNDATASIZE DUP3 MSTORE RETURNDATASIZE PUSH0 PUSH1 0x20 DUP5 ADD RETURNDATACOPY PUSH2 0x3324 JUMP JUMPDEST PUSH1 0x60 SWAP2 POP JUMPDEST POP SWAP2 POP SWAP2 POP PUSH2 0x3334 DUP7 DUP4 DUP4 PUSH2 0x333F JUMP JUMPDEST SWAP3 POP POP POP SWAP4 SWAP3 POP POP POP JUMP JUMPDEST PUSH1 0x60 DUP3 PUSH2 0x3354 JUMPI PUSH2 0x334F DUP3 PUSH2 0x33CC JUMP JUMPDEST PUSH2 0x33C4 JUMP JUMPDEST PUSH0 DUP3 MLOAD EQ DUP1 ISZERO PUSH2 0x337A JUMPI POP PUSH0 DUP5 PUSH20 0xFFFFFFFFFFFFFFFFFFFFFFFFFFFFFFFFFFFFFFFF AND EXTCODESIZE EQ JUMPDEST ISZERO PUSH2 0x33BC JUMPI DUP4 PUSH1 0x40 MLOAD PUSH32 0x9996B31500000000000000000000000000000000000000000000000000000000 DUP2 MSTORE PUSH1 0x4 ADD PUSH2 0x33B3 SWAP2 SWAP1 PUSH2 0x3B51 JUMP JUMPDEST PUSH1 0x40 MLOAD DUP1 SWAP2 SUB SWAP1 REVERT JUMPDEST DUP2 SWAP1 POP PUSH2 0x33C5 JUMP JUMPDEST JUMPDEST SWAP4 SWAP3 POP POP POP JUMP JUMPDEST PUSH0 DUP2 MLOAD GT ISZERO PUSH2 0x33DE JUMPI DUP1 MLOAD DUP1 DUP3 PUSH1 0x20 ADD REVERT JUMPDEST PUSH1 0x40 MLOAD PUSH32 0x1425EA4200000000000000000000000000000000000000000000000000000000 DUP2 MSTORE PUSH1 0x4 ADD PUSH1 0x40 MLOAD DUP1 SWAP2 SUB SWAP1 REVERT JUMPDEST POP PUSH0 SWAP1 SSTORE JUMP JUMPDEST PUSH1 0x40 MLOAD DUP1 PUSH2 0x120 ADD PUSH1 0x40 MSTORE DUP1 PUSH0 PUSH20 0xFFFFFFFFFFFFFFFFFFFFFFFFFFFFFFFFFFFFFFFF AND DUP2 MSTORE PUSH1 0x20 ADD PUSH0 DUP2 MSTORE PUSH1 0x20 ADD PUSH0 DUP2 MSTORE PUSH1 0x20 ADD PUSH0 PUSH8 0xFFFFFFFFFFFFFFFF AND DUP2 MSTORE PUSH1 0x20 ADD PUSH0 PUSH8 0xFFFFFFFFFFFFFFFF AND DUP2 MSTORE PUSH1 0x20 ADD PUSH0 PUSH1 0xFF AND DUP2 MSTORE PUSH1 0x20 ADD PUSH2 0x347B PUSH2 0x3551 JUMP JUMPDEST DUP2 MSTORE PUSH1 0x20 ADD PUSH2 0x3488 PUSH2 0x3551 JUMP JUMPDEST DUP2 MSTORE PUSH1 0x20 ADD PUSH0 ISZERO ISZERO DUP2 MSTORE POP SWAP1 JUMP JUMPDEST DUP3 PUSH1 0x19 PUSH1 0x1F ADD PUSH1 0x20 SWAP1 DIV DUP2 ADD SWAP3 DUP3 ISZERO PUSH2 0x351D JUMPI SWAP2 PUSH1 0x20 MUL DUP3 ADD PUSH0 JUMPDEST DUP4 DUP3 GT ISZERO PUSH2 0x34EF JUMPI DUP4 CALLDATALOAD ISZERO ISZERO DUP4 DUP3 PUSH2 0x100 EXP DUP2 SLOAD DUP2 PUSH1 0xFF MUL NOT AND SWAP1 DUP4 ISZERO ISZERO MUL OR SWAP1 SSTORE POP SWAP3 PUSH1 0x20 ADD SWAP3 PUSH1 0x1 ADD PUSH1 0x20 DUP2 PUSH0 ADD DIV SWAP3 DUP4 ADD SWAP3 PUSH1 0x1 SUB MUL PUSH2 0x34B1 JUMP JUMPDEST DUP1 ISZERO PUSH2 0x351B JUMPI DUP3 DUP2 PUSH2 0x100 EXP DUP2 SLOAD SWAP1 PUSH1 0xFF MUL NOT AND SWAP1 SSTORE PUSH1 0x1 ADD PUSH1 0x20 DUP2 PUSH0 ADD DIV SWAP3 DUP4 ADD SWAP3 PUSH1 0x1 SUB MUL PUSH2 0x34EF JUMP JUMPDEST POP JUMPDEST POP SWAP1 POP PUSH2 0x352A SWAP2 SWAP1 PUSH2 0x3574 JUMP JUMPDEST POP SWAP1 JUMP JUMPDEST PUSH1 0x40 MLOAD DUP1 PUSH2 0x300 ADD PUSH1 0x40 MSTORE DUP1 PUSH1 0x18 SWAP1 PUSH1 0x20 DUP3 MUL DUP1 CALLDATASIZE DUP4 CALLDATACOPY DUP1 DUP3 ADD SWAP2 POP POP SWAP1 POP POP SWAP1 JUMP JUMPDEST PUSH1 0x40 MLOAD DUP1 PUSH2 0x320 ADD PUSH1 0x40 MSTORE DUP1 PUSH1 0x19 SWAP1 PUSH1 0x20 DUP3 MUL DUP1 CALLDATASIZE DUP4 CALLDATACOPY DUP1 DUP3 ADD SWAP2 POP POP SWAP1 POP POP SWAP1 JUMP JUMPDEST JUMPDEST DUP1 DUP3 GT ISZERO PUSH2 0x358B JUMPI PUSH0 DUP2 PUSH0 SWAP1 SSTORE POP PUSH1 0x1 ADD PUSH2 0x3575 JUMP JUMPDEST POP SWAP1 JUMP JUMPDEST PUSH0 PUSH1 0x40 MLOAD SWAP1 POP SWAP1 JUMP JUMPDEST PUSH0 DUP1 REVERT JUMPDEST PUSH0 DUP1 REVERT JUMPDEST PUSH0 DUP2 SWAP1 POP SWAP2 SWAP1 POP JUMP JUMPDEST PUSH2 0x35B2 DUP2 PUSH2 0x35A0 JUMP JUMPDEST DUP2 EQ PUSH2 0x35BC JUMPI PUSH0 DUP1 REVERT JUMPDEST POP JUMP JUMPDEST PUSH0 DUP2 CALLDATALOAD SWAP1 POP PUSH2 0x35CD DUP2 PUSH2 0x35A9 JUMP JUMPDEST SWAP3 SWAP2 POP POP JUMP JUMPDEST PUSH0 DUP1 REVERT JUMPDEST PUSH0 PUSH1 0x1F NOT PUSH1 0x1F DUP4 ADD AND SWAP1 POP SWAP2 SWAP1 POP JUMP JUMPDEST PUSH32 0x4E487B7100000000000000000000000000000000000000000000000000000000 PUSH0 MSTORE PUSH1 0x41 PUSH1 0x4 MSTORE PUSH1 0x24 PUSH0 REVERT JUMPDEST PUSH2 0x361D DUP3 PUSH2 0x35D7 JUMP JUMPDEST DUP2 ADD DUP2 DUP2 LT PUSH8 0xFFFFFFFFFFFFFFFF DUP3 GT OR ISZERO PUSH2 0x363C JUMPI PUSH2 0x363B PUSH2 0x35E7 JUMP JUMPDEST JUMPDEST DUP1 PUSH1 0x40 MSTORE POP POP POP JUMP JUMPDEST PUSH0 PUSH2 0x364E PUSH2 0x358F JUMP JUMPDEST SWAP1 POP PUSH2 0x365A DUP3 DUP3 PUSH2 0x3614 JUMP JUMPDEST SWAP2 SWAP1 POP JUMP JUMPDEST PUSH0 PUSH8 0xFFFFFFFFFFFFFFFF DUP3 GT ISZERO PUSH2 0x3679 JUMPI PUSH2 0x3678 PUSH2 0x35E7 JUMP JUMPDEST JUMPDEST PUSH1 0x20 DUP3 MUL SWAP1 POP PUSH1 0x20 DUP2 ADD SWAP1 POP SWAP2 SWAP1 POP JUMP JUMPDEST PUSH0 DUP1 REVERT JUMPDEST PUSH0 PUSH2 0x36A0 PUSH2 0x369B DUP5 PUSH2 0x365F JUMP JUMPDEST PUSH2 0x3645 JUMP JUMPDEST SWAP1 POP DUP1 DUP4 DUP3 MSTORE PUSH1 0x20 DUP3 ADD SWAP1 POP PUSH1 0x20 DUP5 MUL DUP4 ADD DUP6 DUP2 GT ISZERO PUSH2 0x36C3 JUMPI PUSH2 0x36C2 PUSH2 0x368A JUMP JUMPDEST JUMPDEST DUP4 JUMPDEST DUP2 DUP2 LT ISZERO PUSH2 0x36EC JUMPI DUP1 PUSH2 0x36D8 DUP9 DUP3 PUSH2 0x35BF JUMP JUMPDEST DUP5 MSTORE PUSH1 0x20 DUP5 ADD SWAP4 POP POP PUSH1 0x20 DUP2 ADD SWAP1 POP PUSH2 0x36C5 JUMP JUMPDEST POP POP POP SWAP4 SWAP3 POP POP POP JUMP JUMPDEST PUSH0 DUP3 PUSH1 0x1F DUP4 ADD SLT PUSH2 0x370A JUMPI PUSH2 0x3709 PUSH2 0x35D3 JUMP JUMPDEST JUMPDEST DUP2 CALLDATALOAD PUSH2 0x371A DUP5 DUP3 PUSH1 0x20 DUP7 ADD PUSH2 0x368E JUMP JUMPDEST SWAP2 POP POP SWAP3 SWAP2 POP POP JUMP JUMPDEST PUSH0 DUP1 PUSH1 0x40 DUP4 DUP6 SUB SLT ISZERO PUSH2 0x3739 JUMPI PUSH2 0x3738 PUSH2 0x3598 JUMP JUMPDEST JUMPDEST PUSH0 PUSH2 0x3746 DUP6 DUP3 DUP7 ADD PUSH2 0x35BF JUMP JUMPDEST SWAP3 POP POP PUSH1 0x20 DUP4 ADD CALLDATALOAD PUSH8 0xFFFFFFFFFFFFFFFF DUP2 GT ISZERO PUSH2 0x3767 JUMPI PUSH2 0x3766 PUSH2 0x359C JUMP JUMPDEST JUMPDEST PUSH2 0x3773 DUP6 DUP3 DUP7 ADD PUSH2 0x36F6 JUMP JUMPDEST SWAP2 POP POP SWAP3 POP SWAP3 SWAP1 POP JUMP JUMPDEST PUSH0 PUSH20 0xFFFFFFFFFFFFFFFFFFFFFFFFFFFFFFFFFFFFFFFF DUP3 AND SWAP1 POP SWAP2 SWAP1 POP JUMP JUMPDEST PUSH0 PUSH2 0x37A6 DUP3 PUSH2 0x377D JUMP JUMPDEST SWAP1 POP SWAP2 SWAP1 POP JUMP JUMPDEST PUSH2 0x37B6 DUP2 PUSH2 0x379C JUMP JUMPDEST DUP2 EQ PUSH2 0x37C0 JUMPI PUSH0 DUP1 REVERT JUMPDEST POP JUMP JUMPDEST PUSH0 DUP2 CALLDATALOAD SWAP1 POP PUSH2 0x37D1 DUP2 PUSH2 0x37AD JUMP JUMPDEST SWAP3 SWAP2 POP POP JUMP JUMPDEST PUSH0 PUSH1 0x20 DUP3 DUP5 SUB SLT ISZERO PUSH2 0x37EC JUMPI PUSH2 0x37EB PUSH2 0x3598 JUMP JUMPDEST JUMPDEST PUSH0 PUSH2 0x37F9 DUP5 DUP3 DUP6 ADD PUSH2 0x37C3 JUMP JUMPDEST SWAP2 POP POP SWAP3 SWAP2 POP POP JUMP JUMPDEST PUSH2 0x380B DUP2 PUSH2 0x379C JUMP JUMPDEST DUP3 MSTORE POP POP JUMP JUMPDEST PUSH2 0x381A DUP2 PUSH2 0x35A0 JUMP JUMPDEST DUP3 MSTORE POP POP JUMP JUMPDEST PUSH0 PUSH8 0xFFFFFFFFFFFFFFFF DUP3 AND SWAP1 POP SWAP2 SWAP1 POP JUMP JUMPDEST PUSH2 0x383C DUP2 PUSH2 0x3820 JUMP JUMPDEST DUP3 MSTORE POP POP JUMP JUMPDEST PUSH0 PUSH1 0xFF DUP3 AND SWAP1 POP SWAP2 SWAP1 POP JUMP JUMPDEST PUSH2 0x3857 DUP2 PUSH2 0x3842 JUMP JUMPDEST DUP3 MSTORE POP POP JUMP JUMPDEST PUSH0 PUSH1 0x19 SWAP1 POP SWAP2 SWAP1 POP JUMP JUMPDEST PUSH0 DUP2 SWAP1 POP SWAP3 SWAP2 POP POP JUMP JUMPDEST PUSH0 DUP2 SWAP1 POP SWAP2 SWAP1 POP JUMP JUMPDEST PUSH0 DUP2 ISZERO ISZERO SWAP1 POP SWAP2 SWAP1 POP JUMP JUMPDEST PUSH2 0x388E DUP2 PUSH2 0x387A JUMP JUMPDEST DUP3 MSTORE POP POP JUMP JUMPDEST PUSH0 PUSH2 0x389F DUP4 DUP4 PUSH2 0x3885 JUMP JUMPDEST PUSH1 0x20 DUP4 ADD SWAP1 POP SWAP3 SWAP2 POP POP JUMP JUMPDEST PUSH0 PUSH1 0x20 DUP3 ADD SWAP1 POP SWAP2 SWAP1 POP JUMP JUMPDEST PUSH2 0x38C0 DUP2 PUSH2 0x385D JUMP JUMPDEST PUSH2 0x38CA DUP2 DUP5 PUSH2 0x3867 JUMP JUMPDEST SWAP3 POP PUSH2 0x38D5 DUP3 PUSH2 0x3871 JUMP JUMPDEST DUP1 PUSH0 JUMPDEST DUP4 DUP2 LT ISZERO PUSH2 0x3905 JUMPI DUP2 MLOAD PUSH2 0x38EC DUP8 DUP3 PUSH2 0x3894 JUMP JUMPDEST SWAP7 POP PUSH2 0x38F7 DUP4 PUSH2 0x38AB JUMP JUMPDEST SWAP3 POP POP PUSH1 0x1 DUP2 ADD SWAP1 POP PUSH2 0x38D8 JUMP JUMPDEST POP POP POP POP POP POP JUMP JUMPDEST PUSH2 0x720 DUP3 ADD PUSH0 DUP3 ADD MLOAD PUSH2 0x3922 PUSH0 DUP6 ADD DUP3 PUSH2 0x3802 JUMP JUMPDEST POP PUSH1 0x20 DUP3 ADD MLOAD PUSH2 0x3935 PUSH1 0x20 DUP6 ADD DUP3 PUSH2 0x3811 JUMP JUMPDEST POP PUSH1 0x40 DUP3 ADD MLOAD PUSH2 0x3948 PUSH1 0x40 DUP6 ADD DUP3 PUSH2 0x3811 JUMP JUMPDEST POP PUSH1 0x60 DUP3 ADD MLOAD PUSH2 0x395B PUSH1 0x60 DUP6 ADD DUP3 PUSH2 0x3833 JUMP JUMPDEST POP PUSH1 0x80 DUP3 ADD MLOAD PUSH2 0x396E PUSH1 0x80 DUP6 ADD DUP3 PUSH2 0x3833 JUMP JUMPDEST POP PUSH1 0xA0 DUP3 ADD MLOAD PUSH2 0x3981 PUSH1 0xA0 DUP6 ADD DUP3 PUSH2 0x384E JUMP JUMPDEST POP PUSH1 0xC0 DUP3 ADD MLOAD PUSH2 0x3994 PUSH1 0xC0 DUP6 ADD DUP3 PUSH2 0x38B7 JUMP JUMPDEST POP PUSH1 0xE0 DUP3 ADD MLOAD PUSH2 0x39A8 PUSH2 0x3E0 DUP6 ADD DUP3 PUSH2 0x38B7 JUMP JUMPDEST POP PUSH2 0x100 DUP3 ADD MLOAD PUSH2 0x39BD PUSH2 0x700 DUP6 ADD DUP3 PUSH2 0x3885 JUMP JUMPDEST POP POP POP POP JUMP JUMPDEST PUSH0 PUSH2 0x720 DUP3 ADD SWAP1 POP PUSH2 0x39D7 PUSH0 DUP4 ADD DUP5 PUSH2 0x390D JUMP JUMPDEST SWAP3 SWAP2 POP POP JUMP JUMPDEST PUSH0 DUP2 SWAP1 POP DUP3 PUSH1 0x20 PUSH1 0x19 MUL DUP3 ADD GT ISZERO PUSH2 0x39F8 JUMPI PUSH2 0x39F7 PUSH2 0x368A JUMP JUMPDEST JUMPDEST SWAP3 SWAP2 POP POP JUMP JUMPDEST PUSH2 0x3A07 DUP2 PUSH2 0x387A JUMP JUMPDEST DUP2 EQ PUSH2 0x3A11 JUMPI PUSH0 DUP1 REVERT JUMPDEST POP JUMP JUMPDEST PUSH0 DUP2 CALLDATALOAD SWAP1 POP PUSH2 0x3A22 DUP2 PUSH2 0x39FE JUMP JUMPDEST SWAP3 SWAP2 POP POP JUMP JUMPDEST PUSH0 DUP1 PUSH2 0x340 DUP4 DUP6 SUB SLT ISZERO PUSH2 0x3A3F JUMPI PUSH2 0x3A3E PUSH2 0x3598 JUMP JUMPDEST JUMPDEST PUSH0 PUSH2 0x3A4C DUP6 DUP3 DUP7 ADD PUSH2 0x39DD JUMP JUMPDEST SWAP3 POP POP PUSH2 0x320 PUSH2 0x3A5E DUP6 DUP3 DUP7 ADD PUSH2 0x3A14 JUMP JUMPDEST SWAP2 POP POP SWAP3 POP SWAP3 SWAP1 POP JUMP JUMPDEST PUSH0 DUP2 SWAP1 POP SWAP2 SWAP1 POP JUMP JUMPDEST PUSH0 PUSH2 0x3A8B PUSH2 0x3A86 PUSH2 0x3A81 DUP5 PUSH2 0x377D JUMP JUMPDEST PUSH2 0x3A68 JUMP JUMPDEST PUSH2 0x377D JUMP JUMPDEST SWAP1 POP SWAP2 SWAP1 POP JUMP JUMPDEST PUSH0 PUSH2 0x3A9C DUP3 PUSH2 0x3A71 JUMP JUMPDEST SWAP1 POP SWAP2 SWAP1 POP JUMP JUMPDEST PUSH0 PUSH2 0x3AAD DUP3 PUSH2 0x3A92 JUMP JUMPDEST SWAP1 POP SWAP2 SWAP1 POP JUMP JUMPDEST PUSH2 0x3ABD DUP2 PUSH2 0x3AA3 JUMP JUMPDEST DUP3 MSTORE POP POP JUMP JUMPDEST PUSH0 PUSH1 0x20 DUP3 ADD SWAP1 POP PUSH2 0x3AD6 PUSH0 DUP4 ADD DUP5 PUSH2 0x3AB4 JUMP JUMPDEST SWAP3 SWAP2 POP POP JUMP JUMPDEST PUSH0 DUP1 PUSH1 0x40 DUP4 DUP6 SUB SLT ISZERO PUSH2 0x3AF2 JUMPI PUSH2 0x3AF1 PUSH2 0x3598 JUMP JUMPDEST JUMPDEST PUSH0 PUSH2 0x3AFF DUP6 DUP3 DUP7 ADD PUSH2 0x35BF JUMP JUMPDEST SWAP3 POP POP PUSH1 0x20 PUSH2 0x3B10 DUP6 DUP3 DUP7 ADD PUSH2 0x35BF JUMP JUMPDEST SWAP2 POP POP SWAP3 POP SWAP3 SWAP1 POP JUMP JUMPDEST PUSH2 0x3B23 DUP2 PUSH2 0x35A0 JUMP JUMPDEST DUP3 MSTORE POP POP JUMP JUMPDEST PUSH0 PUSH1 0x20 DUP3 ADD SWAP1 POP PUSH2 0x3B3C PUSH0 DUP4 ADD DUP5 PUSH2 0x3B1A JUMP JUMPDEST SWAP3 SWAP2 POP POP JUMP JUMPDEST PUSH2 0x3B4B DUP2 PUSH2 0x379C JUMP JUMPDEST DUP3 MSTORE POP POP JUMP JUMPDEST PUSH0 PUSH1 0x20 DUP3 ADD SWAP1 POP PUSH2 0x3B64 PUSH0 DUP4 ADD DUP5 PUSH2 0x3B42 JUMP JUMPDEST SWAP3 SWAP2 POP POP JUMP JUMPDEST PUSH2 0x3B73 DUP2 PUSH2 0x387A JUMP JUMPDEST DUP3 MSTORE POP POP JUMP JUMPDEST PUSH0 PUSH1 0x20 DUP3 ADD SWAP1 POP PUSH2 0x3B8C PUSH0 DUP4 ADD DUP5 PUSH2 0x3B6A JUMP JUMPDEST SWAP3 SWAP2 POP POP JUMP JUMPDEST PUSH0 PUSH1 0x20 DUP3 DUP5 SUB SLT ISZERO PUSH2 0x3BA7 JUMPI PUSH2 0x3BA6 PUSH2 0x3598 JUMP JUMPDEST JUMPDEST PUSH0 PUSH2 0x3BB4 DUP5 DUP3 DUP6 ADD PUSH2 0x35BF JUMP JUMPDEST SWAP2 POP POP SWAP3 SWAP2 POP POP JUMP JUMPDEST PUSH0 PUSH2 0x3BC7 DUP3 PUSH2 0x3A92 JUMP JUMPDEST SWAP1 POP SWAP2 SWAP1 POP JUMP JUMPDEST PUSH2 0x3BD7 DUP2 PUSH2 0x3BBD JUMP JUMPDEST DUP3 MSTORE POP POP JUMP JUMPDEST PUSH0 PUSH1 0x20 DUP3 ADD SWAP1 POP PUSH2 0x3BF0 PUSH0 DUP4 ADD DUP5 PUSH2 0x3BCE JUMP JUMPDEST SWAP3 SWAP2 POP POP JUMP JUMPDEST PUSH0 PUSH1 0x18 SWAP1 POP SWAP2 SWAP1 POP JUMP JUMPDEST PUSH0 DUP2 SWAP1 POP SWAP3 SWAP2 POP POP JUMP JUMPDEST PUSH0 DUP2 SWAP1 POP SWAP2 SWAP1 POP JUMP JUMPDEST PUSH0 PUSH2 0x3C1E DUP4 DUP4 PUSH2 0x3811 JUMP JUMPDEST PUSH1 0x20 DUP4 ADD SWAP1 POP SWAP3 SWAP2 POP POP JUMP JUMPDEST PUSH0 PUSH1 0x20 DUP3 ADD SWAP1 POP SWAP2 SWAP1 POP JUMP JUMPDEST PUSH2 0x3C3F DUP2 PUSH2 0x3BF6 JUMP JUMPDEST PUSH2 0x3C49 DUP2 DUP5 PUSH2 0x3C00 JUMP JUMPDEST SWAP3 POP PUSH2 0x3C54 DUP3 PUSH2 0x3C0A JUMP JUMPDEST DUP1 PUSH0 JUMPDEST DUP4 DUP2 LT ISZERO PUSH2 0x3C84 JUMPI DUP2 MLOAD PUSH2 0x3C6B DUP8 DUP3 PUSH2 0x3C13 JUMP JUMPDEST SWAP7 POP PUSH2 0x3C76 DUP4 PUSH2 0x3C2A JUMP JUMPDEST SWAP3 POP POP PUSH1 0x1 DUP2 ADD SWAP1 POP PUSH2 0x3C57 JUMP JUMPDEST POP POP POP POP POP POP JUMP JUMPDEST PUSH0 PUSH2 0x300 DUP3 ADD SWAP1 POP PUSH2 0x3CA0 PUSH0 DUP4 ADD DUP5 PUSH2 0x3C36 JUMP JUMPDEST SWAP3 SWAP2 POP POP JUMP JUMPDEST PUSH0 PUSH2 0x3CB0 DUP3 PUSH2 0x3A92 JUMP JUMPDEST SWAP1 POP SWAP2 SWAP1 POP JUMP JUMPDEST PUSH2 0x3CC0 DUP2 PUSH2 0x3CA6 JUMP JUMPDEST DUP3 MSTORE POP POP JUMP JUMPDEST PUSH0 PUSH1 0x20 DUP3 ADD SWAP1 POP PUSH2 0x3CD9 PUSH0 DUP4 ADD DUP5 PUSH2 0x3CB7 JUMP JUMPDEST SWAP3 SWAP2 POP POP JUMP JUMPDEST PUSH2 0x3CE8 DUP2 PUSH2 0x3842 JUMP JUMPDEST DUP2 EQ PUSH2 0x3CF2 JUMPI PUSH0 DUP1 REVERT JUMPDEST POP JUMP JUMPDEST PUSH0 DUP2 CALLDATALOAD SWAP1 POP PUSH2 0x3D03 DUP2 PUSH2 0x3CDF JUMP JUMPDEST SWAP3 SWAP2 POP POP JUMP JUMPDEST PUSH0 DUP1 PUSH0 DUP1 PUSH0 PUSH2 0x3A0 DUP7 DUP9 SUB SLT ISZERO PUSH2 0x3D23 JUMPI PUSH2 0x3D22 PUSH2 0x3598 JUMP JUMPDEST JUMPDEST PUSH0 PUSH2 0x3D30 DUP9 DUP3 DUP10 ADD PUSH2 0x35BF JUMP JUMPDEST SWAP6 POP POP PUSH1 0x20 PUSH2 0x3D41 DUP9 DUP3 DUP10 ADD PUSH2 0x37C3 JUMP JUMPDEST SWAP5 POP POP PUSH1 0x40 PUSH2 0x3D52 DUP9 DUP3 DUP10 ADD PUSH2 0x3CF5 JUMP JUMPDEST SWAP4 POP POP PUSH1 0x60 PUSH2 0x3D63 DUP9 DUP3 DUP10 ADD PUSH2 0x39DD JUMP JUMPDEST SWAP3 POP POP PUSH2 0x380 PUSH2 0x3D75 DUP9 DUP3 DUP10 ADD PUSH2 0x3A14 JUMP JUMPDEST SWAP2 POP POP SWAP3 SWAP6 POP SWAP3 SWAP6 SWAP1 SWAP4 POP JUMP JUMPDEST PUSH32 0x4E487B7100000000000000000000000000000000000000000000000000000000 PUSH0 MSTORE PUSH1 0x11 PUSH1 0x4 MSTORE PUSH1 0x24 PUSH0 REVERT JUMPDEST PUSH0 PUSH2 0x3DB9 DUP3 PUSH2 0x3820 JUMP JUMPDEST SWAP2 POP PUSH2 0x3DC4 DUP4 PUSH2 0x3820 JUMP JUMPDEST SWAP3 POP DUP3 DUP3 ADD SWAP1 POP PUSH8 0xFFFFFFFFFFFFFFFF DUP2 GT ISZERO PUSH2 0x3DE4 JUMPI PUSH2 0x3DE3 PUSH2 0x3D82 JUMP JUMPDEST JUMPDEST SWAP3 SWAP2 POP POP JUMP JUMPDEST PUSH0 PUSH2 0x3E04 PUSH2 0x3DFF PUSH2 0x3DFA DUP5 PUSH2 0x3820 JUMP JUMPDEST PUSH2 0x3A68 JUMP JUMPDEST PUSH2 0x35A0 JUMP JUMPDEST SWAP1 POP SWAP2 SWAP1 POP JUMP JUMPDEST PUSH2 0x3E14 DUP2 PUSH2 0x3DEA JUMP JUMPDEST DUP3 MSTORE POP POP JUMP JUMPDEST PUSH0 PUSH1 0x40 DUP3 ADD SWAP1 POP PUSH2 0x3E2D PUSH0 DUP4 ADD DUP6 PUSH2 0x3B1A JUMP JUMPDEST PUSH2 0x3E3A PUSH1 0x20 DUP4 ADD DUP5 PUSH2 0x3E0B JUMP JUMPDEST SWAP4 SWAP3 POP POP POP JUMP JUMPDEST PUSH0 DUP2 SWAP1 POP SWAP3 SWAP2 POP POP JUMP JUMPDEST POP JUMP JUMPDEST PUSH0 PUSH2 0x3E59 PUSH0 DUP4 PUSH2 0x3E41 JUMP JUMPDEST SWAP2 POP PUSH2 0x3E64 DUP3 PUSH2 0x3E4B JUMP JUMPDEST PUSH0 DUP3 ADD SWAP1 POP SWAP2 SWAP1 POP JUMP JUMPDEST PUSH0 PUSH2 0x3E78 DUP3 PUSH2 0x3E4E JUMP JUMPDEST SWAP2 POP DUP2 SWAP1 POP SWAP2 SWAP1 POP JUMP JUMPDEST PUSH0 PUSH1 0x40 DUP3 ADD SWAP1 POP PUSH2 0x3E95 PUSH0 DUP4 ADD DUP6 PUSH2 0x3B1A JUMP JUMPDEST PUSH2 0x3EA2 PUSH1 0x20 DUP4 ADD DUP5 PUSH2 0x3B42 JUMP JUMPDEST SWAP4 SWAP3 POP POP POP JUMP JUMPDEST PUSH0 PUSH1 0x40 DUP3 ADD SWAP1 POP PUSH2 0x3EBC PUSH0 DUP4 ADD DUP6 PUSH2 0x3B42 JUMP JUMPDEST PUSH2 0x3EC9 PUSH1 0x20 DUP4 ADD DUP5 PUSH2 0x3B42 JUMP JUMPDEST SWAP4 SWAP3 POP POP POP JUMP JUMPDEST PUSH32 0x4E487B7100000000000000000000000000000000000000000000000000000000 PUSH0 MSTORE PUSH1 0x32 PUSH1 0x4 MSTORE PUSH1 0x24 PUSH0 REVERT JUMPDEST PUSH0 PUSH1 0x20 DUP3 DUP5 SUB SLT ISZERO PUSH2 0x3F12 JUMPI PUSH2 0x3F11 PUSH2 0x3598 JUMP JUMPDEST JUMPDEST PUSH0 PUSH2 0x3F1F DUP5 DUP3 DUP6 ADD PUSH2 0x3A14 JUMP JUMPDEST SWAP2 POP POP SWAP3 SWAP2 POP POP JUMP JUMPDEST PUSH2 0x3F31 DUP2 PUSH2 0x3842 JUMP JUMPDEST DUP3 MSTORE POP POP JUMP JUMPDEST PUSH0 PUSH1 0x20 DUP3 ADD SWAP1 POP PUSH2 0x3F4A PUSH0 DUP4 ADD DUP5 PUSH2 0x3F28 JUMP JUMPDEST SWAP3 SWAP2 POP POP JUMP JUMPDEST PUSH0 PUSH4 0xFFFFFFFF DUP3 AND SWAP1 POP SWAP2 SWAP1 POP JUMP JUMPDEST PUSH0 PUSH2 0x3F69 DUP3 PUSH2 0x3F50 JUMP JUMPDEST SWAP2 POP PUSH4 0xFFFFFFFF DUP3 SUB PUSH2 0x3F7F JUMPI PUSH2 0x3F7E PUSH2 0x3D82 JUMP JUMPDEST JUMPDEST PUSH1 0x1 DUP3 ADD SWAP1 POP SWAP2 SWAP1 POP JUMP JUMPDEST PUSH0 PUSH2 0x3F94 DUP3 PUSH2 0x3842 JUMP JUMPDEST SWAP2 POP PUSH1 0xFF DUP3 SUB PUSH2 0x3FA7 JUMPI PUSH2 0x3FA6 PUSH2 0x3D82 JUMP JUMPDEST JUMPDEST PUSH1 0x1 DUP3 ADD SWAP1 POP SWAP2 SWAP1 POP JUMP JUMPDEST PUSH0 PUSH2 0x3FBC DUP3 PUSH2 0x3F50 JUMP JUMPDEST SWAP2 POP PUSH2 0x3FC7 DUP4 PUSH2 0x3F50 JUMP JUMPDEST SWAP3 POP DUP3 DUP3 ADD SWAP1 POP PUSH4 0xFFFFFFFF DUP2 GT ISZERO PUSH2 0x3FE3 JUMPI PUSH2 0x3FE2 PUSH2 0x3D82 JUMP JUMPDEST JUMPDEST SWAP3 SWAP2 POP POP JUMP JUMPDEST PUSH2 0x3FF2 DUP2 PUSH2 0x3F50 JUMP JUMPDEST DUP3 MSTORE POP POP JUMP JUMPDEST PUSH0 PUSH1 0x40 DUP3 ADD SWAP1 POP PUSH2 0x400B PUSH0 DUP4 ADD DUP6 PUSH2 0x3FE9 JUMP JUMPDEST PUSH2 0x4018 PUSH1 0x20 DUP4 ADD DUP5 PUSH2 0x3B1A JUMP JUMPDEST SWAP4 SWAP3 POP POP POP JUMP JUMPDEST PUSH0 DUP2 MLOAD SWAP1 POP PUSH2 0x402D DUP2 PUSH2 0x37AD JUMP JUMPDEST SWAP3 SWAP2 POP POP JUMP JUMPDEST PUSH0 PUSH1 0x20 DUP3 DUP5 SUB SLT ISZERO PUSH2 0x4048 JUMPI PUSH2 0x4047 PUSH2 0x3598 JUMP JUMPDEST JUMPDEST PUSH0 PUSH2 0x4055 DUP5 DUP3 DUP6 ADD PUSH2 0x401F JUMP JUMPDEST SWAP2 POP POP SWAP3 SWAP2 POP POP JUMP JUMPDEST PUSH0 PUSH10 0xFFFFFFFFFFFFFFFFFFFF DUP3 AND SWAP1 POP SWAP2 SWAP1 POP JUMP JUMPDEST PUSH2 0x407C DUP2 PUSH2 0x405E JUMP JUMPDEST DUP2 EQ PUSH2 0x4086 JUMPI PUSH0 DUP1 REVERT JUMPDEST POP JUMP JUMPDEST PUSH0 DUP2 MLOAD SWAP1 POP PUSH2 0x4097 DUP2 PUSH2 0x4073 JUMP JUMPDEST SWAP3 SWAP2 POP POP JUMP JUMPDEST PUSH0 DUP2 SWAP1 POP SWAP2 SWAP1 POP JUMP JUMPDEST PUSH2 0x40AF DUP2 PUSH2 0x409D JUMP JUMPDEST DUP2 EQ PUSH2 0x40B9 JUMPI PUSH0 DUP1 REVERT JUMPDEST POP JUMP JUMPDEST PUSH0 DUP2 MLOAD SWAP1 POP PUSH2 0x40CA DUP2 PUSH2 0x40A6 JUMP JUMPDEST SWAP3 SWAP2 POP POP JUMP JUMPDEST PUSH0 DUP2 MLOAD SWAP1 POP PUSH2 0x40DE DUP2 PUSH2 0x35A9 JUMP JUMPDEST SWAP3 SWAP2 POP POP JUMP JUMPDEST PUSH0 DUP1 PUSH0 DUP1 PUSH0 PUSH1 0xA0 DUP7 DUP9 SUB SLT ISZERO PUSH2 0x40FD JUMPI PUSH2 0x40FC PUSH2 0x3598 JUMP JUMPDEST JUMPDEST PUSH0 PUSH2 0x410A DUP9 DUP3 DUP10 ADD PUSH2 0x4089 JUMP JUMPDEST SWAP6 POP POP PUSH1 0x20 PUSH2 0x411B DUP9 DUP3 DUP10 ADD PUSH2 0x40BC JUMP JUMPDEST SWAP5 POP POP PUSH1 0x40 PUSH2 0x412C DUP9 DUP3 DUP10 ADD PUSH2 0x40D0 JUMP JUMPDEST SWAP4 POP POP PUSH1 0x60 PUSH2 0x413D DUP9 DUP3 DUP10 ADD PUSH2 0x40D0 JUMP JUMPDEST SWAP3 POP POP PUSH1 0x80 PUSH2 0x414E DUP9 DUP3 DUP10 ADD PUSH2 0x4089 JUMP JUMPDEST SWAP2 POP POP SWAP3 SWAP6 POP SWAP3 SWAP6 SWAP1 SWAP4 POP JUMP JUMPDEST PUSH2 0x4164 DUP2 PUSH2 0x3F50 JUMP JUMPDEST DUP2 EQ PUSH2 0x416E JUMPI PUSH0 DUP1 REVERT JUMPDEST POP JUMP JUMPDEST PUSH0 DUP2 MLOAD SWAP1 POP PUSH2 0x417F DUP2 PUSH2 0x415B JUMP JUMPDEST SWAP3 SWAP2 POP POP JUMP JUMPDEST PUSH0 PUSH3 0xFFFFFF DUP3 AND SWAP1 POP SWAP2 SWAP1 POP JUMP JUMPDEST PUSH2 0x419C DUP2 PUSH2 0x4185 JUMP JUMPDEST DUP2 EQ PUSH2 0x41A6 JUMPI PUSH0 DUP1 REVERT JUMPDEST POP JUMP JUMPDEST PUSH0 DUP2 MLOAD SWAP1 POP PUSH2 0x41B7 DUP2 PUSH2 0x4193 JUMP JUMPDEST SWAP3 SWAP2 POP POP JUMP JUMPDEST PUSH0 DUP1 PUSH0 DUP1 PUSH0 DUP1 PUSH0 DUP1 PUSH0 PUSH2 0x120 DUP11 DUP13 SUB SLT ISZERO PUSH2 0x41DB JUMPI PUSH2 0x41DA PUSH2 0x3598 JUMP JUMPDEST JUMPDEST PUSH0 PUSH2 0x41E8 DUP13 DUP3 DUP14 ADD PUSH2 0x4171 JUMP JUMPDEST SWAP10 POP POP PUSH1 0x20 PUSH2 0x41F9 DUP13 DUP3 DUP14 ADD PUSH2 0x4171 JUMP JUMPDEST SWAP9 POP POP PUSH1 0x40 PUSH2 0x420A DUP13 DUP3 DUP14 ADD PUSH2 0x4171 JUMP JUMPDEST SWAP8 POP POP PUSH1 0x60 PUSH2 0x421B DUP13 DUP3 DUP14 ADD PUSH2 0x4171 JUMP JUMPDEST SWAP7 POP POP PUSH1 0x80 PUSH2 0x422C DUP13 DUP3 DUP14 ADD PUSH2 0x4171 JUMP JUMPDEST SWAP6 POP POP PUSH1 0xA0 PUSH2 0x423D DUP13 DUP3 DUP14 ADD PUSH2 0x41A9 JUMP JUMPDEST SWAP5 POP POP PUSH1 0xC0 PUSH2 0x424E DUP13 DUP3 DUP14 ADD PUSH2 0x41A9 JUMP JUMPDEST SWAP4 POP POP PUSH1 0xE0 PUSH2 0x425F DUP13 DUP3 DUP14 ADD PUSH2 0x41A9 JUMP JUMPDEST SWAP3 POP POP PUSH2 0x100 PUSH2 0x4271 DUP13 DUP3 DUP14 ADD PUSH2 0x41A9 JUMP JUMPDEST SWAP2 POP POP SWAP3 SWAP6 SWAP9 POP SWAP3 SWAP6 SWAP9 POP SWAP3 SWAP6 SWAP9 JUMP JUMPDEST PUSH0 PUSH2 0x428B DUP3 PUSH2 0x35A0 JUMP JUMPDEST SWAP2 POP PUSH2 0x4296 DUP4 PUSH2 0x35A0 JUMP JUMPDEST SWAP3 POP DUP3 DUP3 MUL PUSH2 0x42A4 DUP2 PUSH2 0x35A0 JUMP JUMPDEST SWAP2 POP DUP3 DUP3 DIV DUP5 EQ DUP4 ISZERO OR PUSH2 0x42BB JUMPI PUSH2 0x42BA PUSH2 0x3D82 JUMP JUMPDEST JUMPDEST POP SWAP3 SWAP2 POP POP JUMP JUMPDEST PUSH32 0x4E487B7100000000000000000000000000000000000000000000000000000000 PUSH0 MSTORE PUSH1 0x12 PUSH1 0x4 MSTORE PUSH1 0x24 PUSH0 REVERT JUMPDEST PUSH0 PUSH2 0x42F9 DUP3 PUSH2 0x35A0 JUMP JUMPDEST SWAP2 POP PUSH2 0x4304 DUP4 PUSH2 0x35A0 JUMP JUMPDEST SWAP3 POP DUP3 PUSH2 0x4314 JUMPI PUSH2 0x4313 PUSH2 0x42C2 JUMP JUMPDEST JUMPDEST DUP3 DUP3 DIV SWAP1 POP SWAP3 SWAP2 POP POP JUMP JUMPDEST PUSH0 PUSH2 0x4329 DUP3 PUSH2 0x35A0 JUMP JUMPDEST SWAP2 POP PUSH2 0x4334 DUP4 PUSH2 0x35A0 JUMP JUMPDEST SWAP3 POP DUP3 DUP3 ADD SWAP1 POP DUP1 DUP3 GT ISZERO PUSH2 0x434C JUMPI PUSH2 0x434B PUSH2 0x3D82 JUMP JUMPDEST JUMPDEST SWAP3 SWAP2 POP POP JUMP JUMPDEST PUSH0 PUSH2 0x435C DUP3 PUSH2 0x35A0 JUMP JUMPDEST SWAP2 POP PUSH2 0x4367 DUP4 PUSH2 0x35A0 JUMP JUMPDEST SWAP3 POP DUP3 DUP3 SUB SWAP1 POP DUP2 DUP2 GT ISZERO PUSH2 0x437F JUMPI PUSH2 0x437E PUSH2 0x3D82 JUMP JUMPDEST JUMPDEST SWAP3 SWAP2 POP POP JUMP JUMPDEST PUSH0 PUSH2 0x438F DUP3 PUSH2 0x35A0 JUMP JUMPDEST SWAP2 POP PUSH32 0xFFFFFFFFFFFFFFFFFFFFFFFFFFFFFFFFFFFFFFFFFFFFFFFFFFFFFFFFFFFFFFFF DUP3 SUB PUSH2 0x43C1 JUMPI PUSH2 0x43C0 PUSH2 0x3D82 JUMP JUMPDEST JUMPDEST PUSH1 0x1 DUP3 ADD SWAP1 POP SWAP2 SWAP1 POP JUMP JUMPDEST PUSH0 PUSH2 0x43E6 PUSH2 0x43E1 PUSH2 0x43DC DUP5 PUSH2 0x3842 JUMP JUMPDEST PUSH2 0x3A68 JUMP JUMPDEST PUSH2 0x35A0 JUMP JUMPDEST SWAP1 POP SWAP2 SWAP1 POP JUMP JUMPDEST PUSH2 0x43F6 DUP2 PUSH2 0x43CC JUMP JUMPDEST DUP3 MSTORE POP POP JUMP JUMPDEST PUSH0 DUP2 SWAP1 POP SWAP3 SWAP2 POP POP JUMP JUMPDEST PUSH2 0x440F DUP2 PUSH2 0x385D JUMP JUMPDEST PUSH2 0x4419 DUP2 DUP5 PUSH2 0x43FC JUMP JUMPDEST SWAP3 POP PUSH2 0x4424 DUP3 PUSH2 0x3871 JUMP JUMPDEST DUP1 PUSH0 JUMPDEST DUP4 DUP2 LT ISZERO PUSH2 0x4454 JUMPI DUP2 MLOAD PUSH2 0x443B DUP8 DUP3 PUSH2 0x3894 JUMP JUMPDEST SWAP7 POP PUSH2 0x4446 DUP4 PUSH2 0x38AB JUMP JUMPDEST SWAP3 POP POP PUSH1 0x1 DUP2 ADD SWAP1 POP PUSH2 0x4427 JUMP JUMPDEST POP POP POP POP POP POP JUMP JUMPDEST PUSH0 PUSH2 0x3C0 DUP3 ADD SWAP1 POP PUSH2 0x4470 PUSH0 DUP4 ADD DUP10 PUSH2 0x3B1A JUMP JUMPDEST PUSH2 0x447D PUSH1 0x20 DUP4 ADD DUP9 PUSH2 0x3B1A JUMP JUMPDEST PUSH2 0x448A PUSH1 0x40 DUP4 ADD DUP8 PUSH2 0x3B42 JUMP JUMPDEST PUSH2 0x4497 PUSH1 0x60 DUP4 ADD DUP7 PUSH2 0x43ED JUMP JUMPDEST PUSH2 0x44A4 PUSH1 0x80 DUP4 ADD DUP6 PUSH2 0x4406 JUMP JUMPDEST PUSH2 0x44B2 PUSH2 0x3A0 DUP4 ADD DUP5 PUSH2 0x3B1A JUMP JUMPDEST SWAP8 SWAP7 POP POP POP POP POP POP POP JUMP JUMPDEST PUSH0 PUSH1 0xA0 DUP3 ADD SWAP1 POP PUSH2 0x44D0 PUSH0 DUP4 ADD DUP9 PUSH2 0x3B1A JUMP JUMPDEST PUSH2 0x44DD PUSH1 0x20 DUP4 ADD DUP8 PUSH2 0x3B42 JUMP JUMPDEST PUSH2 0x44EA PUSH1 0x40 DUP4 ADD DUP7 PUSH2 0x3F28 JUMP JUMPDEST PUSH2 0x44F7 PUSH1 0x60 DUP4 ADD DUP6 PUSH2 0x3B6A JUMP JUMPDEST PUSH2 0x4504 PUSH1 0x80 DUP4 ADD DUP5 PUSH2 0x3B1A JUMP JUMPDEST SWAP7 SWAP6 POP POP POP POP POP POP JUMP JUMPDEST PUSH0 DUP3 DUP3 MSTORE PUSH1 0x20 DUP3 ADD SWAP1 POP SWAP3 SWAP2 POP POP JUMP JUMPDEST PUSH32 0x5265656E7472616E637947756172643A207265656E7472616E742063616C6C00 PUSH0 DUP3 ADD MSTORE POP JUMP JUMPDEST PUSH0 PUSH2 0x4552 PUSH1 0x1F DUP4 PUSH2 0x450E JUMP JUMPDEST SWAP2 POP PUSH2 0x455D DUP3 PUSH2 0x451E JUMP JUMPDEST PUSH1 0x20 DUP3 ADD SWAP1 POP SWAP2 SWAP1 POP JUMP JUMPDEST PUSH0 PUSH1 0x20 DUP3 ADD SWAP1 POP DUP2 DUP2 SUB PUSH0 DUP4 ADD MSTORE PUSH2 0x457F DUP2 PUSH2 0x4546 JUMP JUMPDEST SWAP1 POP SWAP2 SWAP1 POP JUMP JUMPDEST PUSH0 PUSH1 0x40 DUP3 ADD SWAP1 POP PUSH2 0x4599 PUSH0 DUP4 ADD DUP6 PUSH2 0x3B42 JUMP JUMPDEST PUSH2 0x45A6 PUSH1 0x20 DUP4 ADD DUP5 PUSH2 0x3B1A JUMP JUMPDEST SWAP4 SWAP3 POP POP POP JUMP JUMPDEST PUSH0 PUSH2 0x45B7 DUP3 PUSH2 0x3842 JUMP JUMPDEST SWAP2 POP PUSH2 0x45C2 DUP4 PUSH2 0x3842 JUMP JUMPDEST SWAP3 POP DUP3 DUP3 SUB SWAP1 POP PUSH1 0xFF DUP2 GT ISZERO PUSH2 0x45DB JUMPI PUSH2 0x45DA PUSH2 0x3D82 JUMP JUMPDEST JUMPDEST SWAP3 SWAP2 POP POP JUMP JUMPDEST PUSH0 DUP2 SWAP1 POP SWAP2 SWAP1 POP JUMP JUMPDEST PUSH0 PUSH2 0x4604 PUSH2 0x45FF PUSH2 0x45FA DUP5 PUSH2 0x45E1 JUMP JUMPDEST PUSH2 0x3A68 JUMP JUMPDEST PUSH2 0x35A0 JUMP JUMPDEST SWAP1 POP SWAP2 SWAP1 POP JUMP JUMPDEST PUSH2 0x4614 DUP2 PUSH2 0x45EA JUMP JUMPDEST DUP3 MSTORE POP POP JUMP JUMPDEST PUSH0 PUSH1 0x19 SWAP1 POP SWAP2 SWAP1 POP JUMP JUMPDEST PUSH0 DUP2 SWAP1 POP SWAP2 SWAP1 POP JUMP JUMPDEST PUSH0 DUP2 PUSH0 SHR SWAP1 POP SWAP2 SWAP1 POP JUMP JUMPDEST PUSH0 PUSH1 0xFF DUP3 AND SWAP1 POP SWAP2 SWAP1 POP JUMP JUMPDEST PUSH0 PUSH2 0x4656 PUSH2 0x4651 DUP4 PUSH2 0x462D JUMP JUMPDEST PUSH2 0x4638 JUMP JUMPDEST SWAP1 POP SWAP2 SWAP1 POP JUMP JUMPDEST PUSH0 DUP2 PUSH1 0x8 SHR SWAP1 POP SWAP2 SWAP1 POP JUMP JUMPDEST PUSH0 PUSH2 0x467B PUSH2 0x4676 DUP4 PUSH2 0x465D JUMP JUMPDEST PUSH2 0x4638 JUMP JUMPDEST SWAP1 POP SWAP2 SWAP1 POP JUMP JUMPDEST PUSH0 DUP2 PUSH1 0x10 SHR SWAP1 POP SWAP2 SWAP1 POP JUMP JUMPDEST PUSH0 PUSH2 0x46A0 PUSH2 0x469B DUP4 PUSH2 0x4682 JUMP JUMPDEST PUSH2 0x4638 JUMP JUMPDEST SWAP1 POP SWAP2 SWAP1 POP JUMP JUMPDEST PUSH0 DUP2 PUSH1 0x18 SHR SWAP1 POP SWAP2 SWAP1 POP JUMP JUMPDEST PUSH0 PUSH2 0x46C5 PUSH2 0x46C0 DUP4 PUSH2 0x46A7 JUMP JUMPDEST PUSH2 0x4638 JUMP JUMPDEST SWAP1 POP SWAP2 SWAP1 POP JUMP JUMPDEST PUSH0 DUP2 PUSH1 0x20 SHR SWAP1 POP SWAP2 SWAP1 POP JUMP JUMPDEST PUSH0 PUSH2 0x46EA PUSH2 0x46E5 DUP4 PUSH2 0x46CC JUMP JUMPDEST PUSH2 0x4638 JUMP JUMPDEST SWAP1 POP SWAP2 SWAP1 POP JUMP JUMPDEST PUSH0 DUP2 PUSH1 0x28 SHR SWAP1 POP SWAP2 SWAP1 POP JUMP JUMPDEST PUSH0 PUSH2 0x470F PUSH2 0x470A DUP4 PUSH2 0x46F1 JUMP JUMPDEST PUSH2 0x4638 JUMP JUMPDEST SWAP1 POP SWAP2 SWAP1 POP JUMP JUMPDEST PUSH0 DUP2 PUSH1 0x30 SHR SWAP1 POP SWAP2 SWAP1 POP JUMP JUMPDEST PUSH0 PUSH2 0x4734 PUSH2 0x472F DUP4 PUSH2 0x4716 JUMP JUMPDEST PUSH2 0x4638 JUMP JUMPDEST SWAP1 POP SWAP2 SWAP1 POP JUMP JUMPDEST PUSH0 DUP2 PUSH1 0x38 SHR SWAP1 POP SWAP2 SWAP1 POP JUMP JUMPDEST PUSH0 PUSH2 0x4759 PUSH2 0x4754 DUP4 PUSH2 0x473B JUMP JUMPDEST PUSH2 0x4638 JUMP JUMPDEST SWAP1 POP SWAP2 SWAP1 POP JUMP JUMPDEST PUSH0 DUP2 PUSH1 0x40 SHR SWAP1 POP SWAP2 SWAP1 POP JUMP JUMPDEST PUSH0 PUSH2 0x477E PUSH2 0x4779 DUP4 PUSH2 0x4760 JUMP JUMPDEST PUSH2 0x4638 JUMP JUMPDEST SWAP1 POP SWAP2 SWAP1 POP JUMP JUMPDEST PUSH0 DUP2 PUSH1 0x48 SHR SWAP1 POP SWAP2 SWAP1 POP JUMP JUMPDEST PUSH0 PUSH2 0x47A3 PUSH2 0x479E DUP4 PUSH2 0x4785 JUMP JUMPDEST PUSH2 0x4638 JUMP JUMPDEST SWAP1 POP SWAP2 SWAP1 POP JUMP JUMPDEST PUSH0 DUP2 PUSH1 0x50 SHR SWAP1 POP SWAP2 SWAP1 POP JUMP JUMPDEST PUSH0 PUSH2 0x47C8 PUSH2 0x47C3 DUP4 PUSH2 0x47AA JUMP JUMPDEST PUSH2 0x4638 JUMP JUMPDEST SWAP1 POP SWAP2 SWAP1 POP JUMP JUMPDEST PUSH0 DUP2 PUSH1 0x58 SHR SWAP1 POP SWAP2 SWAP1 POP JUMP JUMPDEST PUSH0 PUSH2 0x47ED PUSH2 0x47E8 DUP4 PUSH2 0x47CF JUMP JUMPDEST PUSH2 0x4638 JUMP JUMPDEST SWAP1 POP SWAP2 SWAP1 POP JUMP JUMPDEST PUSH0 DUP2 PUSH1 0x60 SHR SWAP1 POP SWAP2 SWAP1 POP JUMP JUMPDEST PUSH0 PUSH2 0x4812 PUSH2 0x480D DUP4 PUSH2 0x47F4 JUMP JUMPDEST PUSH2 0x4638 JUMP JUMPDEST SWAP1 POP SWAP2 SWAP1 POP JUMP JUMPDEST PUSH0 DUP2 PUSH1 0x68 SHR SWAP1 POP SWAP2 SWAP1 POP JUMP JUMPDEST PUSH0 PUSH2 0x4837 PUSH2 0x4832 DUP4 PUSH2 0x4819 JUMP JUMPDEST PUSH2 0x4638 JUMP JUMPDEST SWAP1 POP SWAP2 SWAP1 POP JUMP JUMPDEST PUSH0 DUP2 PUSH1 0x70 SHR SWAP1 POP SWAP2 SWAP1 POP JUMP JUMPDEST PUSH0 PUSH2 0x485C PUSH2 0x4857 DUP4 PUSH2 0x483E JUMP JUMPDEST PUSH2 0x4638 JUMP JUMPDEST SWAP1 POP SWAP2 SWAP1 POP JUMP JUMPDEST PUSH0 DUP2 PUSH1 0x78 SHR SWAP1 POP SWAP2 SWAP1 POP JUMP JUMPDEST PUSH0 PUSH2 0x4881 PUSH2 0x487C DUP4 PUSH2 0x4863 JUMP JUMPDEST PUSH2 0x4638 JUMP JUMPDEST SWAP1 POP SWAP2 SWAP1 POP JUMP JUMPDEST PUSH0 DUP2 PUSH1 0x80 SHR SWAP1 POP SWAP2 SWAP1 POP JUMP JUMPDEST PUSH0 PUSH2 0x48A6 PUSH2 0x48A1 DUP4 PUSH2 0x4888 JUMP JUMPDEST PUSH2 0x4638 JUMP JUMPDEST SWAP1 POP SWAP2 SWAP1 POP JUMP JUMPDEST PUSH0 DUP2 PUSH1 0x88 SHR SWAP1 POP SWAP2 SWAP1 POP JUMP JUMPDEST PUSH0 PUSH2 0x48CB PUSH2 0x48C6 DUP4 PUSH2 0x48AD JUMP JUMPDEST PUSH2 0x4638 JUMP JUMPDEST SWAP1 POP SWAP2 SWAP1 POP JUMP JUMPDEST PUSH0 DUP2 PUSH1 0x90 SHR SWAP1 POP SWAP2 SWAP1 POP JUMP JUMPDEST PUSH0 PUSH2 0x48F0 PUSH2 0x48EB DUP4 PUSH2 0x48D2 JUMP JUMPDEST PUSH2 0x4638 JUMP JUMPDEST SWAP1 POP SWAP2 SWAP1 POP JUMP JUMPDEST PUSH0 DUP2 PUSH1 0x98 SHR SWAP1 POP SWAP2 SWAP1 POP JUMP JUMPDEST PUSH0 PUSH2 0x4915 PUSH2 0x4910 DUP4 PUSH2 0x48F7 JUMP JUMPDEST PUSH2 0x4638 JUMP JUMPDEST SWAP1 POP SWAP2 SWAP1 POP JUMP JUMPDEST PUSH0 DUP2 PUSH1 0xA0 SHR SWAP1 POP SWAP2 SWAP1 POP JUMP JUMPDEST PUSH0 PUSH2 0x493A PUSH2 0x4935 DUP4 PUSH2 0x491C JUMP JUMPDEST PUSH2 0x4638 JUMP JUMPDEST SWAP1 POP SWAP2 SWAP1 POP JUMP JUMPDEST PUSH0 DUP2 PUSH1 0xA8 SHR SWAP1 POP SWAP2 SWAP1 POP JUMP JUMPDEST PUSH0 PUSH2 0x495F PUSH2 0x495A DUP4 PUSH2 0x4941 JUMP JUMPDEST PUSH2 0x4638 JUMP JUMPDEST SWAP1 POP SWAP2 SWAP1 POP JUMP JUMPDEST PUSH0 DUP2 PUSH1 0xB0 SHR SWAP1 POP SWAP2 SWAP1 POP JUMP JUMPDEST PUSH0 PUSH2 0x4984 PUSH2 0x497F DUP4 PUSH2 0x4966 JUMP JUMPDEST PUSH2 0x4638 JUMP JUMPDEST SWAP1 POP SWAP2 SWAP1 POP JUMP JUMPDEST PUSH0 DUP2 PUSH1 0xB8 SHR SWAP1 POP SWAP2 SWAP1 POP JUMP JUMPDEST PUSH0 PUSH2 0x49A9 PUSH2 0x49A4 DUP4 PUSH2 0x498B JUMP JUMPDEST PUSH2 0x4638 JUMP JUMPDEST SWAP1 POP SWAP2 SWAP1 POP JUMP JUMPDEST PUSH0 DUP2 PUSH1 0xC0 SHR SWAP1 POP SWAP2 SWAP1 POP JUMP JUMPDEST PUSH0 PUSH2 0x49CE PUSH2 0x49C9 DUP4 PUSH2 0x49B0 JUMP JUMPDEST PUSH2 0x4638 JUMP JUMPDEST SWAP1 POP SWAP2 SWAP1 POP JUMP JUMPDEST PUSH0 DUP2 PUSH1 0xC8 SHR SWAP1 POP SWAP2 SWAP1 POP JUMP JUMPDEST PUSH0 PUSH2 0x49F3 PUSH2 0x49EE DUP4 PUSH2 0x49D5 JUMP JUMPDEST PUSH2 0x4638 JUMP JUMPDEST SWAP1 POP SWAP2 SWAP1 POP JUMP JUMPDEST PUSH0 DUP2 PUSH1 0xD0 SHR SWAP1 POP SWAP2 SWAP1 POP JUMP JUMPDEST PUSH0 PUSH2 0x4A18 PUSH2 0x4A13 DUP4 PUSH2 0x49FA JUMP JUMPDEST PUSH2 0x4638 JUMP JUMPDEST SWAP1 POP SWAP2 SWAP1 POP JUMP JUMPDEST PUSH0 DUP2 PUSH1 0xD8 SHR SWAP1 POP SWAP2 SWAP1 POP JUMP JUMPDEST PUSH0 PUSH2 0x4A3D PUSH2 0x4A38 DUP4 PUSH2 0x4A1F JUMP JUMPDEST PUSH2 0x4638 JUMP JUMPDEST SWAP1 POP SWAP2 SWAP1 POP JUMP JUMPDEST PUSH0 DUP2 PUSH1 0xE0 SHR SWAP1 POP SWAP2 SWAP1 POP JUMP JUMPDEST PUSH0 PUSH2 0x4A62 PUSH2 0x4A5D DUP4 PUSH2 0x4A44 JUMP JUMPDEST PUSH2 0x4638 JUMP JUMPDEST SWAP1 POP SWAP2 SWAP1 POP JUMP JUMPDEST PUSH0 DUP2 PUSH1 0xE8 SHR SWAP1 POP SWAP2 SWAP1 POP JUMP JUMPDEST PUSH0 PUSH2 0x4A87 PUSH2 0x4A82 DUP4 PUSH2 0x4A69 JUMP JUMPDEST PUSH2 0x4638 JUMP JUMPDEST SWAP1 POP SWAP2 SWAP1 POP JUMP JUMPDEST PUSH0 DUP2 PUSH1 0xF0 SHR SWAP1 POP SWAP2 SWAP1 POP JUMP JUMPDEST PUSH0 PUSH2 0x4AAC PUSH2 0x4AA7 DUP4 PUSH2 0x4A8E JUMP JUMPDEST PUSH2 0x4638 JUMP JUMPDEST SWAP1 POP SWAP2 SWAP1 POP JUMP JUMPDEST PUSH0 DUP2 PUSH1 0xF8 SHR SWAP1 POP SWAP2 SWAP1 POP JUMP JUMPDEST PUSH0 PUSH2 0x4AD1 PUSH2 0x4ACC DUP4 PUSH2 0x4AB3 JUMP JUMPDEST PUSH2 0x4638 JUMP JUMPDEST SWAP1 POP SWAP2 SWAP1 POP JUMP JUMPDEST PUSH2 0x4AE1 DUP2 PUSH2 0x461A JUMP JUMPDEST PUSH2 0x4AEB DUP2 DUP5 PUSH2 0x43FC JUMP JUMPDEST SWAP3 POP DUP3 PUSH2 0x4AF7 DUP4 PUSH2 0x4624 JUMP JUMPDEST PUSH0 DUP1 ISZERO PUSH2 0x4E22 JUMPI JUMPDEST DUP4 PUSH1 0x1 PUSH1 0x20 SUB DUP3 ADD LT ISZERO PUSH2 0x4E21 JUMPI DUP2 SLOAD PUSH2 0x4B21 DUP8 PUSH2 0x4B1C DUP4 PUSH2 0x4644 JUMP JUMPDEST PUSH2 0x3885 JUMP JUMPDEST PUSH1 0x20 DUP8 ADD SWAP7 POP PUSH2 0x4B39 DUP8 PUSH2 0x4B34 DUP4 PUSH2 0x4669 JUMP JUMPDEST PUSH2 0x3885 JUMP JUMPDEST PUSH1 0x20 DUP8 ADD SWAP7 POP PUSH2 0x4B51 DUP8 PUSH2 0x4B4C DUP4 PUSH2 0x468E JUMP JUMPDEST PUSH2 0x3885 JUMP JUMPDEST PUSH1 0x20 DUP8 ADD SWAP7 POP PUSH2 0x4B69 DUP8 PUSH2 0x4B64 DUP4 PUSH2 0x46B3 JUMP JUMPDEST PUSH2 0x3885 JUMP JUMPDEST PUSH1 0x20 DUP8 ADD SWAP7 POP PUSH2 0x4B81 DUP8 PUSH2 0x4B7C DUP4 PUSH2 0x46D8 JUMP JUMPDEST PUSH2 0x3885 JUMP JUMPDEST PUSH1 0x20 DUP8 ADD SWAP7 POP PUSH2 0x4B99 DUP8 PUSH2 0x4B94 DUP4 PUSH2 0x46FD JUMP JUMPDEST PUSH2 0x3885 JUMP JUMPDEST PUSH1 0x20 DUP8 ADD SWAP7 POP PUSH2 0x4BB1 DUP8 PUSH2 0x4BAC DUP4 PUSH2 0x4722 JUMP JUMPDEST PUSH2 0x3885 JUMP JUMPDEST PUSH1 0x20 DUP8 ADD SWAP7 POP PUSH2 0x4BC9 DUP8 PUSH2 0x4BC4 DUP4 PUSH2 0x4747 JUMP JUMPDEST PUSH2 0x3885 JUMP JUMPDEST PUSH1 0x20 DUP8 ADD SWAP7 POP PUSH2 0x4BE1 DUP8 PUSH2 0x4BDC DUP4 PUSH2 0x476C JUMP JUMPDEST PUSH2 0x3885 JUMP JUMPDEST PUSH1 0x20 DUP8 ADD SWAP7 POP PUSH2 0x4BF9 DUP8 PUSH2 0x4BF4 DUP4 PUSH2 0x4791 JUMP JUMPDEST PUSH2 0x3885 JUMP JUMPDEST PUSH1 0x20 DUP8 ADD SWAP7 POP PUSH2 0x4C11 DUP8 PUSH2 0x4C0C DUP4 PUSH2 0x47B6 JUMP JUMPDEST PUSH2 0x3885 JUMP JUMPDEST PUSH1 0x20 DUP8 ADD SWAP7 POP PUSH2 0x4C29 DUP8 PUSH2 0x4C24 DUP4 PUSH2 0x47DB JUMP JUMPDEST PUSH2 0x3885 JUMP JUMPDEST PUSH1 0x20 DUP8 ADD SWAP7 POP PUSH2 0x4C41 DUP8 PUSH2 0x4C3C DUP4 PUSH2 0x4800 JUMP JUMPDEST PUSH2 0x3885 JUMP JUMPDEST PUSH1 0x20 DUP8 ADD SWAP7 POP PUSH2 0x4C59 DUP8 PUSH2 0x4C54 DUP4 PUSH2 0x4825 JUMP JUMPDEST PUSH2 0x3885 JUMP JUMPDEST PUSH1 0x20 DUP8 ADD SWAP7 POP PUSH2 0x4C71 DUP8 PUSH2 0x4C6C DUP4 PUSH2 0x484A JUMP JUMPDEST PUSH2 0x3885 JUMP JUMPDEST PUSH1 0x20 DUP8 ADD SWAP7 POP PUSH2 0x4C89 DUP8 PUSH2 0x4C84 DUP4 PUSH2 0x486F JUMP JUMPDEST PUSH2 0x3885 JUMP JUMPDEST PUSH1 0x20 DUP8 ADD SWAP7 POP PUSH2 0x4CA1 DUP8 PUSH2 0x4C9C DUP4 PUSH2 0x4894 JUMP JUMPDEST PUSH2 0x3885 JUMP JUMPDEST PUSH1 0x20 DUP8 ADD SWAP7 POP PUSH2 0x4CB9 DUP8 PUSH2 0x4CB4 DUP4 PUSH2 0x48B9 JUMP JUMPDEST PUSH2 0x3885 JUMP JUMPDEST PUSH1 0x20 DUP8 ADD SWAP7 POP PUSH2 0x4CD1 DUP8 PUSH2 0x4CCC DUP4 PUSH2 0x48DE JUMP JUMPDEST PUSH2 0x3885 JUMP JUMPDEST PUSH1 0x20 DUP8 ADD SWAP7 POP PUSH2 0x4CE9 DUP8 PUSH2 0x4CE4 DUP4 PUSH2 0x4903 JUMP JUMPDEST PUSH2 0x3885 JUMP JUMPDEST PUSH1 0x20 DUP8 ADD SWAP7 POP PUSH2 0x4D01 DUP8 PUSH2 0x4CFC DUP4 PUSH2 0x4928 JUMP JUMPDEST PUSH2 0x3885 JUMP JUMPDEST PUSH1 0x20 DUP8 ADD SWAP7 POP PUSH2 0x4D19 DUP8 PUSH2 0x4D14 DUP4 PUSH2 0x494D JUMP JUMPDEST PUSH2 0x3885 JUMP JUMPDEST PUSH1 0x20 DUP8 ADD SWAP7 POP PUSH2 0x4D31 DUP8 PUSH2 0x4D2C DUP4 PUSH2 0x4972 JUMP JUMPDEST PUSH2 0x3885 JUMP JUMPDEST PUSH1 0x20 DUP8 ADD SWAP7 POP PUSH2 0x4D49 DUP8 PUSH2 0x4D44 DUP4 PUSH2 0x4997 JUMP JUMPDEST PUSH2 0x3885 JUMP JUMPDEST PUSH1 0x20 DUP8 ADD SWAP7 POP PUSH2 0x4D61 DUP8 PUSH2 0x4D5C DUP4 PUSH2 0x49BC JUMP JUMPDEST PUSH2 0x3885 JUMP JUMPDEST PUSH1 0x20 DUP8 ADD SWAP7 POP PUSH2 0x4D79 DUP8 PUSH2 0x4D74 DUP4 PUSH2 0x49E1 JUMP JUMPDEST PUSH2 0x3885 JUMP JUMPDEST PUSH1 0x20 DUP8 ADD SWAP7 POP PUSH2 0x4D91 DUP8 PUSH2 0x4D8C DUP4 PUSH2 0x4A06 JUMP JUMPDEST PUSH2 0x3885 JUMP JUMPDEST PUSH1 0x20 DUP8 ADD SWAP7 POP PUSH2 0x4DA9 DUP8 PUSH2 0x4DA4 DUP4 PUSH2 0x4A2B JUMP JUMPDEST PUSH2 0x3885 JUMP JUMPDEST PUSH1 0x20 DUP8 ADD SWAP7 POP PUSH2 0x4DC1 DUP8 PUSH2 0x4DBC DUP4 PUSH2 0x4A50 JUMP JUMPDEST PUSH2 0x3885 JUMP JUMPDEST PUSH1 0x20 DUP8 ADD SWAP7 POP PUSH2 0x4DD9 DUP8 PUSH2 0x4DD4 DUP4 PUSH2 0x4A75 JUMP JUMPDEST PUSH2 0x3885 JUMP JUMPDEST PUSH1 0x20 DUP8 ADD SWAP7 POP PUSH2 0x4DF1 DUP8 PUSH2 0x4DEC DUP4 PUSH2 0x4A9A JUMP JUMPDEST PUSH2 0x3885 JUMP JUMPDEST PUSH1 0x20 DUP8 ADD SWAP7 POP PUSH2 0x4E09 DUP8 PUSH2 0x4E04 DUP4 PUSH2 0x4ABF JUMP JUMPDEST PUSH2 0x3885 JUMP JUMPDEST PUSH1 0x20 DUP8 ADD SWAP7 POP PUSH1 0x1 DUP4 ADD SWAP3 POP POP PUSH1 0x20 DUP2 ADD SWAP1 POP PUSH2 0x4AFF JUMP JUMPDEST JUMPDEST PUSH1 0x1 ISZERO PUSH2 0x52E6 JUMPI DUP2 SLOAD PUSH1 0x1 ISZERO PUSH2 0x4E51 JUMPI PUSH2 0x4E44 DUP8 PUSH2 0x4E3F DUP4 PUSH2 0x4644 JUMP JUMPDEST PUSH2 0x3885 JUMP JUMPDEST PUSH1 0x20 DUP8 ADD SWAP7 POP PUSH1 0x1 DUP3 ADD SWAP2 POP JUMPDEST PUSH1 0x1 ISZERO PUSH2 0x4E77 JUMPI PUSH2 0x4E6A DUP8 PUSH2 0x4E65 DUP4 PUSH2 0x4669 JUMP JUMPDEST PUSH2 0x3885 JUMP JUMPDEST PUSH1 0x20 DUP8 ADD SWAP7 POP PUSH1 0x1 DUP3 ADD SWAP2 POP JUMPDEST PUSH1 0x1 ISZERO PUSH2 0x4E9D JUMPI PUSH2 0x4E90 DUP8 PUSH2 0x4E8B DUP4 PUSH2 0x468E JUMP JUMPDEST PUSH2 0x3885 JUMP JUMPDEST PUSH1 0x20 DUP8 ADD SWAP7 POP PUSH1 0x1 DUP3 ADD SWAP2 POP JUMPDEST PUSH1 0x1 ISZERO PUSH2 0x4EC3 JUMPI PUSH2 0x4EB6 DUP8 PUSH2 0x4EB1 DUP4 PUSH2 0x46B3 JUMP JUMPDEST PUSH2 0x3885 JUMP JUMPDEST PUSH1 0x20 DUP8 ADD SWAP7 POP PUSH1 0x1 DUP3 ADD SWAP2 POP JUMPDEST PUSH1 0x1 ISZERO PUSH2 0x4EE9 JUMPI PUSH2 0x4EDC DUP8 PUSH2 0x4ED7 DUP4 PUSH2 0x46D8 JUMP JUMPDEST PUSH2 0x3885 JUMP JUMPDEST PUSH1 0x20 DUP8 ADD SWAP7 POP PUSH1 0x1 DUP3 ADD SWAP2 POP JUMPDEST PUSH1 0x1 ISZERO PUSH2 0x4F0F JUMPI PUSH2 0x4F02 DUP8 PUSH2 0x4EFD DUP4 PUSH2 0x46FD JUMP JUMPDEST PUSH2 0x3885 JUMP JUMPDEST PUSH1 0x20 DUP8 ADD SWAP7 POP PUSH1 0x1 DUP3 ADD SWAP2 POP JUMPDEST PUSH1 0x1 ISZERO PUSH2 0x4F35 JUMPI PUSH2 0x4F28 DUP8 PUSH2 0x4F23 DUP4 PUSH2 0x4722 JUMP JUMPDEST PUSH2 0x3885 JUMP JUMPDEST PUSH1 0x20 DUP8 ADD SWAP7 POP PUSH1 0x1 DUP3 ADD SWAP2 POP JUMPDEST PUSH1 0x1 ISZERO PUSH2 0x4F5B JUMPI PUSH2 0x4F4E DUP8 PUSH2 0x4F49 DUP4 PUSH2 0x4747 JUMP JUMPDEST PUSH2 0x3885 JUMP JUMPDEST PUSH1 0x20 DUP8 ADD SWAP7 POP PUSH1 0x1 DUP3 ADD SWAP2 POP JUMPDEST PUSH1 0x1 ISZERO PUSH2 0x4F81 JUMPI PUSH2 0x4F74 DUP8 PUSH2 0x4F6F DUP4 PUSH2 0x476C JUMP JUMPDEST PUSH2 0x3885 JUMP JUMPDEST PUSH1 0x20 DUP8 ADD SWAP7 POP PUSH1 0x1 DUP3 ADD SWAP2 POP JUMPDEST PUSH1 0x1 ISZERO PUSH2 0x4FA7 JUMPI PUSH2 0x4F9A DUP8 PUSH2 0x4F95 DUP4 PUSH2 0x4791 JUMP JUMPDEST PUSH2 0x3885 JUMP JUMPDEST PUSH1 0x20 DUP8 ADD SWAP7 POP PUSH1 0x1 DUP3 ADD SWAP2 POP JUMPDEST PUSH1 0x1 ISZERO PUSH2 0x4FCD JUMPI PUSH2 0x4FC0 DUP8 PUSH2 0x4FBB DUP4 PUSH2 0x47B6 JUMP JUMPDEST PUSH2 0x3885 JUMP JUMPDEST PUSH1 0x20 DUP8 ADD SWAP7 POP PUSH1 0x1 DUP3 ADD SWAP2 POP JUMPDEST PUSH1 0x1 ISZERO PUSH2 0x4FF3 JUMPI PUSH2 0x4FE6 DUP8 PUSH2 0x4FE1 DUP4 PUSH2 0x47DB JUMP JUMPDEST PUSH2 0x3885 JUMP JUMPDEST PUSH1 0x20 DUP8 ADD SWAP7 POP PUSH1 0x1 DUP3 ADD SWAP2 POP JUMPDEST PUSH1 0x1 ISZERO PUSH2 0x5019 JUMPI PUSH2 0x500C DUP8 PUSH2 0x5007 DUP4 PUSH2 0x4800 JUMP JUMPDEST PUSH2 0x3885 JUMP JUMPDEST PUSH1 0x20 DUP8 ADD SWAP7 POP PUSH1 0x1 DUP3 ADD SWAP2 POP JUMPDEST PUSH1 0x1 ISZERO PUSH2 0x503F JUMPI PUSH2 0x5032 DUP8 PUSH2 0x502D DUP4 PUSH2 0x4825 JUMP JUMPDEST PUSH2 0x3885 JUMP JUMPDEST PUSH1 0x20 DUP8 ADD SWAP7 POP PUSH1 0x1 DUP3 ADD SWAP2 POP JUMPDEST PUSH1 0x1 ISZERO PUSH2 0x5065 JUMPI PUSH2 0x5058 DUP8 PUSH2 0x5053 DUP4 PUSH2 0x484A JUMP JUMPDEST PUSH2 0x3885 JUMP JUMPDEST PUSH1 0x20 DUP8 ADD SWAP7 POP PUSH1 0x1 DUP3 ADD SWAP2 POP JUMPDEST PUSH1 0x1 ISZERO PUSH2 0x508B JUMPI PUSH2 0x507E DUP8 PUSH2 0x5079 DUP4 PUSH2 0x486F JUMP JUMPDEST PUSH2 0x3885 JUMP JUMPDEST PUSH1 0x20 DUP8 ADD SWAP7 POP PUSH1 0x1 DUP3 ADD SWAP2 POP JUMPDEST PUSH1 0x1 ISZERO PUSH2 0x50B1 JUMPI PUSH2 0x50A4 DUP8 PUSH2 0x509F DUP4 PUSH2 0x4894 JUMP JUMPDEST PUSH2 0x3885 JUMP JUMPDEST PUSH1 0x20 DUP8 ADD SWAP7 POP PUSH1 0x1 DUP3 ADD SWAP2 POP JUMPDEST PUSH1 0x1 ISZERO PUSH2 0x50D7 JUMPI PUSH2 0x50CA DUP8 PUSH2 0x50C5 DUP4 PUSH2 0x48B9 JUMP JUMPDEST PUSH2 0x3885 JUMP JUMPDEST PUSH1 0x20 DUP8 ADD SWAP7 POP PUSH1 0x1 DUP3 ADD SWAP2 POP JUMPDEST PUSH1 0x1 ISZERO PUSH2 0x50FD JUMPI PUSH2 0x50F0 DUP8 PUSH2 0x50EB DUP4 PUSH2 0x48DE JUMP JUMPDEST PUSH2 0x3885 JUMP JUMPDEST PUSH1 0x20 DUP8 ADD SWAP7 POP PUSH1 0x1 DUP3 ADD SWAP2 POP JUMPDEST PUSH1 0x1 ISZERO PUSH2 0x5123 JUMPI PUSH2 0x5116 DUP8 PUSH2 0x5111 DUP4 PUSH2 0x4903 JUMP JUMPDEST PUSH2 0x3885 JUMP JUMPDEST PUSH1 0x20 DUP8 ADD SWAP7 POP PUSH1 0x1 DUP3 ADD SWAP2 POP JUMPDEST PUSH1 0x1 ISZERO PUSH2 0x5149 JUMPI PUSH2 0x513C DUP8 PUSH2 0x5137 DUP4 PUSH2 0x4928 JUMP JUMPDEST PUSH2 0x3885 JUMP JUMPDEST PUSH1 0x20 DUP8 ADD SWAP7 POP PUSH1 0x1 DUP3 ADD SWAP2 POP JUMPDEST PUSH1 0x1 ISZERO PUSH2 0x516F JUMPI PUSH2 0x5162 DUP8 PUSH2 0x515D DUP4 PUSH2 0x494D JUMP JUMPDEST PUSH2 0x3885 JUMP JUMPDEST PUSH1 0x20 DUP8 ADD SWAP7 POP PUSH1 0x1 DUP3 ADD SWAP2 POP JUMPDEST PUSH1 0x1 ISZERO PUSH2 0x5195 JUMPI PUSH2 0x5188 DUP8 PUSH2 0x5183 DUP4 PUSH2 0x4972 JUMP JUMPDEST PUSH2 0x3885 JUMP JUMPDEST PUSH1 0x20 DUP8 ADD SWAP7 POP PUSH1 0x1 DUP3 ADD SWAP2 POP JUMPDEST PUSH1 0x1 ISZERO PUSH2 0x51BB JUMPI PUSH2 0x51AE DUP8 PUSH2 0x51A9 DUP4 PUSH2 0x4997 JUMP JUMPDEST PUSH2 0x3885 JUMP JUMPDEST PUSH1 0x20 DUP8 ADD SWAP7 POP PUSH1 0x1 DUP3 ADD SWAP2 POP JUMPDEST PUSH1 0x1 ISZERO PUSH2 0x51E1 JUMPI PUSH2 0x51D4 DUP8 PUSH2 0x51CF DUP4 PUSH2 0x49BC JUMP JUMPDEST PUSH2 0x3885 JUMP JUMPDEST PUSH1 0x20 DUP8 ADD SWAP7 POP PUSH1 0x1 DUP3 ADD SWAP2 POP JUMPDEST PUSH0 ISZERO PUSH2 0x5206 JUMPI PUSH2 0x51F9 DUP8 PUSH2 0x51F4 DUP4 PUSH2 0x49E1 JUMP JUMPDEST PUSH2 0x3885 JUMP JUMPDEST PUSH1 0x20 DUP8 ADD SWAP7 POP PUSH1 0x1 DUP3 ADD SWAP2 POP JUMPDEST PUSH0 ISZERO PUSH2 0x522B JUMPI PUSH2 0x521E DUP8 PUSH2 0x5219 DUP4 PUSH2 0x4A06 JUMP JUMPDEST PUSH2 0x3885 JUMP JUMPDEST PUSH1 0x20 DUP8 ADD SWAP7 POP PUSH1 0x1 DUP3 ADD SWAP2 POP JUMPDEST PUSH0 ISZERO PUSH2 0x5250 JUMPI PUSH2 0x5243 DUP8 PUSH2 0x523E DUP4 PUSH2 0x4A2B JUMP JUMPDEST PUSH2 0x3885 JUMP JUMPDEST PUSH1 0x20 DUP8 ADD SWAP7 POP PUSH1 0x1 DUP3 ADD SWAP2 POP JUMPDEST PUSH0 ISZERO PUSH2 0x5275 JUMPI PUSH2 0x5268 DUP8 PUSH2 0x5263 DUP4 PUSH2 0x4A50 JUMP JUMPDEST PUSH2 0x3885 JUMP JUMPDEST PUSH1 0x20 DUP8 ADD SWAP7 POP PUSH1 0x1 DUP3 ADD SWAP2 POP JUMPDEST PUSH0 ISZERO PUSH2 0x529A JUMPI PUSH2 0x528D DUP8 PUSH2 0x5288 DUP4 PUSH2 0x4A75 JUMP JUMPDEST PUSH2 0x3885 JUMP JUMPDEST PUSH1 0x20 DUP8 ADD SWAP7 POP PUSH1 0x1 DUP3 ADD SWAP2 POP JUMPDEST PUSH0 ISZERO PUSH2 0x52BF JUMPI PUSH2 0x52B2 DUP8 PUSH2 0x52AD DUP4 PUSH2 0x4A9A JUMP JUMPDEST PUSH2 0x3885 JUMP JUMPDEST PUSH1 0x20 DUP8 ADD SWAP7 POP PUSH1 0x1 DUP3 ADD SWAP2 POP JUMPDEST PUSH0 ISZERO PUSH2 0x52E4 JUMPI PUSH2 0x52D7 DUP8 PUSH2 0x52D2 DUP4 PUSH2 0x4ABF JUMP JUMPDEST PUSH2 0x3885 JUMP JUMPDEST PUSH1 0x20 DUP8 ADD SWAP7 POP PUSH1 0x1 DUP3 ADD SWAP2 POP JUMPDEST POP JUMPDEST POP POP POP POP POP POP JUMP JUMPDEST PUSH0 PUSH2 0x6E0 DUP3 ADD SWAP1 POP PUSH2 0x5302 PUSH0 DUP4 ADD DUP11 PUSH2 0x3B1A JUMP JUMPDEST PUSH2 0x530F PUSH1 0x20 DUP4 ADD DUP10 PUSH2 0x460B JUMP JUMPDEST PUSH2 0x531C PUSH1 0x40 DUP4 ADD DUP9 PUSH2 0x3B42 JUMP JUMPDEST PUSH2 0x5329 PUSH1 0x60 DUP4 ADD DUP8 PUSH2 0x43ED JUMP JUMPDEST PUSH2 0x5336 PUSH1 0x80 DUP4 ADD DUP7 PUSH2 0x4406 JUMP JUMPDEST PUSH2 0x5344 PUSH2 0x3A0 DUP4 ADD DUP6 PUSH2 0x4AD8 JUMP JUMPDEST PUSH2 0x5352 PUSH2 0x6C0 DUP4 ADD DUP5 PUSH2 0x460B JUMP JUMPDEST SWAP9 SWAP8 POP POP POP POP POP POP POP POP JUMP JUMPDEST PUSH0 PUSH2 0x6E0 DUP3 ADD SWAP1 POP PUSH2 0x5372 PUSH0 DUP4 ADD DUP11 PUSH2 0x3B1A JUMP JUMPDEST PUSH2 0x537F PUSH1 0x20 DUP4 ADD DUP10 PUSH2 0x3B1A JUMP JUMPDEST PUSH2 0x538C PUSH1 0x40 DUP4 ADD DUP9 PUSH2 0x3B42 JUMP JUMPDEST PUSH2 0x5399 PUSH1 0x60 DUP4 ADD DUP8 PUSH2 0x43ED JUMP JUMPDEST PUSH2 0x53A6 PUSH1 0x80 DUP4 ADD DUP7 PUSH2 0x4406 JUMP JUMPDEST PUSH2 0x53B4 PUSH2 0x3A0 DUP4 ADD DUP6 PUSH2 0x4AD8 JUMP JUMPDEST PUSH2 0x53C2 PUSH2 0x6C0 DUP4 ADD DUP5 PUSH2 0x3B1A JUMP JUMPDEST SWAP9 SWAP8 POP POP POP POP POP POP POP POP JUMP JUMPDEST PUSH0 PUSH1 0x40 DUP3 ADD SWAP1 POP PUSH2 0x53E1 PUSH0 DUP4 ADD DUP6 PUSH2 0x3B1A JUMP JUMPDEST PUSH2 0x53EE PUSH1 0x20 DUP4 ADD DUP5 PUSH2 0x3B1A JUMP JUMPDEST SWAP4 SWAP3 POP POP POP JUMP JUMPDEST PUSH0 DUP2 SWAP1 POP SWAP2 SWAP1 POP JUMP JUMPDEST PUSH0 DUP2 SWAP1 POP SWAP2 SWAP1 POP JUMP JUMPDEST PUSH0 DUP2 PUSH0 SHL SWAP1 POP SWAP2 SWAP1 POP JUMP JUMPDEST PUSH0 PUSH2 0x542C PUSH2 0x5427 PUSH2 0x5422 DUP5 PUSH2 0x53F5 JUMP JUMPDEST PUSH2 0x5407 JUMP JUMPDEST PUSH2 0x53FE JUMP JUMPDEST SWAP1 POP SWAP2 SWAP1 POP JUMP JUMPDEST PUSH2 0x543C DUP2 PUSH2 0x5412 JUMP JUMPDEST DUP3 MSTORE POP POP JUMP JUMPDEST PUSH0 DUP2 SWAP1 POP SWAP2 SWAP1 POP JUMP JUMPDEST PUSH0 PUSH2 0x5465 PUSH2 0x5460 PUSH2 0x545B DUP5 PUSH2 0x5442 JUMP JUMPDEST PUSH2 0x3A68 JUMP JUMPDEST PUSH2 0x3820 JUMP JUMPDEST SWAP1 POP SWAP2 SWAP1 POP JUMP JUMPDEST PUSH2 0x5475 DUP2 PUSH2 0x544B JUMP JUMPDEST DUP3 MSTORE POP POP JUMP JUMPDEST PUSH0 DUP2 SWAP1 POP SWAP2 SWAP1 POP JUMP JUMPDEST PUSH0 PUSH2 0xFFFF DUP3 AND SWAP1 POP SWAP2 SWAP1 POP JUMP JUMPDEST PUSH0 PUSH2 0x54AB PUSH2 0x54A6 PUSH2 0x54A1 DUP5 PUSH2 0x547B JUMP JUMPDEST PUSH2 0x3A68 JUMP JUMPDEST PUSH2 0x5484 JUMP JUMPDEST SWAP1 POP SWAP2 SWAP1 POP JUMP JUMPDEST PUSH2 0x54BB DUP2 PUSH2 0x5491 JUMP JUMPDEST DUP3 MSTORE POP POP JUMP JUMPDEST PUSH0 DUP2 SWAP1 POP SWAP2 SWAP1 POP JUMP JUMPDEST PUSH0 PUSH2 0x54E4 PUSH2 0x54DF PUSH2 0x54DA DUP5 PUSH2 0x54C1 JUMP JUMPDEST PUSH2 0x3A68 JUMP JUMPDEST PUSH2 0x3F50 JUMP JUMPDEST SWAP1 POP SWAP2 SWAP1 POP JUMP JUMPDEST PUSH2 0x54F4 DUP2 PUSH2 0x54CA JUMP JUMPDEST DUP3 MSTORE POP POP JUMP JUMPDEST PUSH0 PUSH1 0xA0 DUP3 ADD SWAP1 POP PUSH2 0x550D PUSH0 DUP4 ADD DUP9 PUSH2 0x5433 JUMP JUMPDEST PUSH2 0x551A PUSH1 0x20 DUP4 ADD DUP8 PUSH2 0x546C JUMP JUMPDEST PUSH2 0x5527 PUSH1 0x40 DUP4 ADD DUP7 PUSH2 0x54B2 JUMP JUMPDEST PUSH2 0x5534 PUSH1 0x60 DUP4 ADD DUP6 PUSH2 0x54EB JUMP JUMPDEST PUSH2 0x5541 PUSH1 0x80 DUP4 ADD DUP5 PUSH2 0x3FE9 JUMP JUMPDEST SWAP7 SWAP6 POP POP POP POP POP POP JUMP JUMPDEST PUSH0 PUSH1 0x20 DUP3 DUP5 SUB SLT ISZERO PUSH2 0x5560 JUMPI PUSH2 0x555F PUSH2 0x3598 JUMP JUMPDEST JUMPDEST PUSH0 PUSH2 0x556D DUP5 DUP3 DUP6 ADD PUSH2 0x40D0 JUMP JUMPDEST SWAP2 POP POP SWAP3 SWAP2 POP POP JUMP JUMPDEST PUSH0 PUSH1 0x60 DUP3 ADD SWAP1 POP PUSH2 0x5589 PUSH0 DUP4 ADD DUP7 PUSH2 0x3B42 JUMP JUMPDEST PUSH2 0x5596 PUSH1 0x20 DUP4 ADD DUP6 PUSH2 0x3B1A JUMP JUMPDEST PUSH2 0x55A3 PUSH1 0x40 DUP4 ADD DUP5 PUSH2 0x3B42 JUMP JUMPDEST SWAP5 SWAP4 POP POP POP POP JUMP JUMPDEST PUSH0 DUP2 MLOAD SWAP1 POP PUSH2 0x55B9 DUP2 PUSH2 0x39FE JUMP JUMPDEST SWAP3 SWAP2 POP POP JUMP JUMPDEST PUSH0 PUSH1 0x20 DUP3 DUP5 SUB SLT ISZERO PUSH2 0x55D4 JUMPI PUSH2 0x55D3 PUSH2 0x3598 JUMP JUMPDEST JUMPDEST PUSH0 PUSH2 0x55E1 DUP5 DUP3 DUP6 ADD PUSH2 0x55AB JUMP JUMPDEST SWAP2 POP POP SWAP3 SWAP2 POP POP JUMP JUMPDEST PUSH0 DUP1 PUSH1 0x40 DUP4 DUP6 SUB SLT ISZERO PUSH2 0x5600 JUMPI PUSH2 0x55FF PUSH2 0x3598 JUMP JUMPDEST JUMPDEST PUSH0 PUSH2 0x560D DUP6 DUP3 DUP7 ADD PUSH2 0x55AB JUMP JUMPDEST SWAP3 POP POP PUSH1 0x20 PUSH2 0x561E DUP6 DUP3 DUP7 ADD PUSH2 0x40D0 JUMP JUMPDEST SWAP2 POP POP SWAP3 POP SWAP3 SWAP1 POP JUMP JUMPDEST PUSH0 PUSH2 0x5632 DUP3 PUSH2 0x35A0 JUMP JUMPDEST SWAP2 POP PUSH2 0x563D DUP4 PUSH2 0x35A0 JUMP JUMPDEST SWAP3 POP DUP3 PUSH2 0x564D JUMPI PUSH2 0x564C PUSH2 0x42C2 JUMP JUMPDEST JUMPDEST DUP3 DUP3 MOD SWAP1 POP SWAP3 SWAP2 POP POP JUMP JUMPDEST PUSH0 PUSH1 0x60 DUP3 ADD SWAP1 POP PUSH2 0x566B PUSH0 DUP4 ADD DUP7 PUSH2 0x3B42 JUMP JUMPDEST PUSH2 0x5678 PUSH1 0x20 DUP4 ADD DUP6 PUSH2 0x3B42 JUMP JUMPDEST PUSH2 0x5685 PUSH1 0x40 DUP4 ADD DUP5 PUSH2 0x3B1A JUMP JUMPDEST SWAP5 SWAP4 POP POP POP POP JUMP JUMPDEST PUSH0 DUP2 MLOAD SWAP1 POP SWAP2 SWAP1 POP JUMP JUMPDEST PUSH0 JUMPDEST DUP4 DUP2 LT ISZERO PUSH2 0x56B4 JUMPI DUP1 DUP3 ADD MLOAD DUP2 DUP5 ADD MSTORE PUSH1 0x20 DUP2 ADD SWAP1 POP PUSH2 0x5699 JUMP JUMPDEST PUSH0 DUP5 DUP5 ADD MSTORE POP POP POP POP JUMP JUMPDEST PUSH0 PUSH2 0x56C9 DUP3 PUSH2 0x568D JUMP JUMPDEST PUSH2 0x56D3 DUP2 DUP6 PUSH2 0x3E41 JUMP JUMPDEST SWAP4 POP PUSH2 0x56E3 DUP2 DUP6 PUSH1 0x20 DUP7 ADD PUSH2 0x5697 JUMP JUMPDEST DUP1 DUP5 ADD SWAP2 POP POP SWAP3 SWAP2 POP POP JUMP JUMPDEST PUSH0 PUSH2 0x56FA DUP3 DUP5 PUSH2 0x56BF JUMP JUMPDEST SWAP2 POP DUP2 SWAP1 POP SWAP3 SWAP2 POP POP JUMP INVALID LOG2 PUSH5 0x6970667358 0x22 SLT KECCAK256 SUB PUSH13 0x26488B33BF37212F60005A8433 0xDA PUSH27 0x483F1E80F725825DE44AC9C2842E0B64736F6C6343000814003300 "
		},
		"gasEstimates": {
			"creation": {
				"codeDepositCost": "4466200",
				"executionCost": "infinite",
				"totalCost": "infinite"
			},
			"external": {
				"Bankroll()": "infinite",
				"ChainLinkVRF()": "2575",
				"IChainLinkVRF()": "infinite",
				"LINK_ETH_FEED()": "infinite",
				"Mines_End()": "infinite",
				"Mines_GetMaxReveal()": "infinite",
				"Mines_GetMultipliers(uint256,uint256)": "infinite",
				"Mines_GetState(address)": "infinite",
				"Mines_Refund()": "infinite",
				"Mines_Reveal(bool[25],bool)": "infinite",
				"Mines_SetMultipliers(uint256)": "infinite",
				"Mines_Start(uint256,address,uint8,bool[25],bool)": "infinite",
				"VRFFees()": "2470",
				"_trustedForwarder()": "2575",
				"getVRFFee(uint256)": "infinite",
				"isTrustedForwarder(address)": "2889",
				"rawFulfillRandomWords(uint256,uint256[])": "infinite",
				"transferFees(address)": "infinite"
			},
			"internal": {
				"_kellyWager(uint256,address,uint256,uint256)": "infinite",
				"_pickTile(address,uint256,uint256,uint256,uint256)": "infinite",
				"_setMaxReveal(uint8[24] memory)": "infinite",
				"fulfillRandomWords(uint256,uint256[] memory)": "infinite"
			}
		},
		"methodIdentifiers": {
			"Bankroll()": "d0bcfc0c",
			"ChainLinkVRF()": "953995ea",
			"IChainLinkVRF()": "4dd189d5",
			"LINK_ETH_FEED()": "ad178361",
			"Mines_End()": "b5f2da97",
			"Mines_GetMaxReveal()": "c6318aad",
			"Mines_GetMultipliers(uint256,uint256)": "50ffd786",
			"Mines_GetState(address)": "20ade003",
			"Mines_Refund()": "0f53b826",
			"Mines_Reveal(bool[25],bool)": "320a5135",
			"Mines_SetMultipliers(uint256)": "a6d18c51",
			"Mines_Start(uint256,address,uint8,bool[25],bool)": "eb5d8075",
			"VRFFees()": "8d7c16d2",
			"_trustedForwarder()": "56c022bb",
			"getVRFFee(uint256)": "8bd16114",
			"isTrustedForwarder(address)": "572b6c05",
			"rawFulfillRandomWords(uint256,uint256[])": "1fe543e3",
			"transferFees(address)": "63dc4ef5"
		}
	},
	"abi": [
		{
			"inputs": [
				{
					"internalType": "address",
					"name": "_bankroll",
					"type": "address"
				},
				{
					"internalType": "address",
					"name": "_vrf",
					"type": "address"
				},
				{
					"internalType": "address",
					"name": "link_eth_feed",
					"type": "address"
				},
				{
					"internalType": "address",
					"name": "_forwarder",
					"type": "address"
				},
				{
					"internalType": "uint8[24]",
					"name": "maxReveal",
					"type": "uint8[24]"
				}
			],
			"stateMutability": "nonpayable",
			"type": "constructor"
		},
		{
			"inputs": [
				{
					"internalType": "address",
					"name": "target",
					"type": "address"
				}
			],
			"name": "AddressEmptyCode",
			"type": "error"
		},
		{
			"inputs": [
				{
					"internalType": "address",
					"name": "account",
					"type": "address"
				}
			],
			"name": "AddressInsufficientBalance",
			"type": "error"
		},
		{
			"inputs": [],
			"name": "AlreadyInGame",
			"type": "error"
		},
		{
			"inputs": [
				{
					"internalType": "uint256",
					"name": "requestID",
					"type": "uint256"
				}
			],
			"name": "AwaitingVRF",
			"type": "error"
		},
		{
			"inputs": [
				{
					"internalType": "uint256",
					"name": "have",
					"type": "uint256"
				},
				{
					"internalType": "uint256",
					"name": "want",
					"type": "uint256"
				}
			],
			"name": "BlockNumberTooLow",
			"type": "error"
		},
		{
			"inputs": [],
			"name": "FailedInnerCall",
			"type": "error"
		},
		{
			"inputs": [],
			"name": "InvalidNumMines",
			"type": "error"
		},
		{
			"inputs": [
				{
					"internalType": "uint32",
					"name": "numberPicked",
					"type": "uint32"
				},
				{
					"internalType": "uint256",
					"name": "maxAllowed",
					"type": "uint256"
				}
			],
			"name": "InvalidNumberToReveal",
			"type": "error"
		},
		{
			"inputs": [
				{
					"internalType": "uint256",
					"name": "required",
					"type": "uint256"
				},
				{
					"internalType": "uint256",
					"name": "sent",
					"type": "uint256"
				}
			],
			"name": "InvalidValue",
			"type": "error"
		},
		{
			"inputs": [],
			"name": "NoRequestPending",
			"type": "error"
		},
		{
			"inputs": [],
			"name": "NotApprovedBankroll",
			"type": "error"
		},
		{
			"inputs": [],
			"name": "NotInGame",
			"type": "error"
		},
		{
			"inputs": [
				{
					"internalType": "address",
					"name": "want",
					"type": "address"
				},
				{
					"internalType": "address",
					"name": "have",
					"type": "address"
				}
			],
			"name": "NotOwner",
			"type": "error"
		},
		{
			"inputs": [
				{
					"internalType": "address",
					"name": "have",
					"type": "address"
				},
				{
					"internalType": "address",
					"name": "want",
					"type": "address"
				}
			],
			"name": "OnlyCoordinatorCanFulfill",
			"type": "error"
		},
		{
			"inputs": [
				{
					"internalType": "uint256",
					"name": "suspensionTime",
					"type": "uint256"
				}
			],
			"name": "PlayerSuspended",
			"type": "error"
		},
		{
			"inputs": [],
			"name": "RefundFailed",
			"type": "error"
		},
		{
			"inputs": [
				{
					"internalType": "address",
					"name": "token",
					"type": "address"
				}
			],
			"name": "SafeERC20FailedOperation",
			"type": "error"
		},
		{
			"inputs": [
				{
					"internalType": "uint8",
					"name": "position",
					"type": "uint8"
				}
			],
			"name": "TileAlreadyRevealed",
			"type": "error"
		},
		{
			"inputs": [],
			"name": "TransferFailed",
			"type": "error"
		},
		{
			"inputs": [
				{
					"internalType": "uint256",
					"name": "wager",
					"type": "uint256"
				},
				{
					"internalType": "uint256",
					"name": "maxWager",
					"type": "uint256"
				}
			],
			"name": "WagerAboveLimit",
			"type": "error"
		},
		{
			"inputs": [],
			"name": "ZeroWager",
			"type": "error"
		},
		{
			"anonymous": false,
			"inputs": [
				{
					"indexed": true,
					"internalType": "address",
					"name": "playerAddress",
					"type": "address"
				},
				{
					"indexed": false,
					"internalType": "uint256",
					"name": "wager",
					"type": "uint256"
				},
				{
					"indexed": false,
					"internalType": "uint256",
					"name": "payout",
					"type": "uint256"
				},
				{
					"indexed": false,
					"internalType": "address",
					"name": "tokenAddress",
					"type": "address"
				},
				{
					"indexed": false,
					"internalType": "uint256",
					"name": "numMines",
					"type": "uint256"
				},
				{
					"indexed": false,
					"internalType": "bool[25]",
					"name": "revealedTiles",
					"type": "bool[25]"
				},
				{
					"indexed": false,
					"internalType": "uint256",
					"name": "multiplier",
					"type": "uint256"
				}
			],
			"name": "Mines_End_Event",
			"type": "event"
		},
		{
			"anonymous": false,
			"inputs": [
				{
					"indexed": true,
					"internalType": "address",
					"name": "playerAddress",
					"type": "address"
				},
				{
					"indexed": false,
					"internalType": "uint256",
					"name": "VRFFee",
					"type": "uint256"
				}
			],
			"name": "Mines_Fee_Event",
			"type": "event"
		},
		{
			"anonymous": false,
			"inputs": [
				{
					"indexed": true,
					"internalType": "address",
					"name": "playerAddress",
					"type": "address"
				},
				{
					"indexed": false,
					"internalType": "uint256",
					"name": "wager",
					"type": "uint256"
				},
				{
					"indexed": false,
					"internalType": "address",
					"name": "tokenAddress",
					"type": "address"
				},
				{
					"indexed": false,
					"internalType": "uint8",
					"name": "numMines",
					"type": "uint8"
				},
				{
					"indexed": false,
					"internalType": "bool",
					"name": "isCashout",
					"type": "bool"
				},
				{
					"indexed": false,
					"internalType": "uint256",
					"name": "VRFFee",
					"type": "uint256"
				}
			],
			"name": "Mines_Play_Event",
			"type": "event"
		},
		{
			"anonymous": false,
			"inputs": [
				{
					"indexed": true,
					"internalType": "address",
					"name": "player",
					"type": "address"
				},
				{
					"indexed": false,
					"internalType": "uint256",
					"name": "wager",
					"type": "uint256"
				},
				{
					"indexed": false,
					"internalType": "address",
					"name": "tokenAddress",
					"type": "address"
				}
			],
			"name": "Mines_Refund_Event",
			"type": "event"
		},
		{
			"anonymous": false,
			"inputs": [
				{
					"indexed": true,
					"internalType": "address",
					"name": "playerAddress",
					"type": "address"
				},
				{
					"indexed": false,
					"internalType": "uint256",
					"name": "wager",
					"type": "uint256"
				},
				{
					"indexed": false,
					"internalType": "uint256",
					"name": "payout",
					"type": "uint256"
				},
				{
					"indexed": false,
					"internalType": "address",
					"name": "tokenAddress",
					"type": "address"
				},
				{
					"indexed": false,
					"internalType": "uint256",
					"name": "numMines",
					"type": "uint256"
				},
				{
					"indexed": false,
					"internalType": "bool[25]",
					"name": "minesTiles",
					"type": "bool[25]"
				},
				{
					"indexed": false,
					"internalType": "bool[25]",
					"name": "revealedTiles",
					"type": "bool[25]"
				},
				{
					"indexed": false,
					"internalType": "uint256",
					"name": "multiplier",
					"type": "uint256"
				}
			],
			"name": "Mines_RevealCashout_Event",
			"type": "event"
		},
		{
			"anonymous": false,
			"inputs": [
				{
					"indexed": true,
					"internalType": "address",
					"name": "playerAddress",
					"type": "address"
				},
				{
					"indexed": false,
					"internalType": "uint256",
					"name": "wager",
					"type": "uint256"
				},
				{
					"indexed": false,
					"internalType": "uint256",
					"name": "payout",
					"type": "uint256"
				},
				{
					"indexed": false,
					"internalType": "address",
					"name": "tokenAddress",
					"type": "address"
				},
				{
					"indexed": false,
					"internalType": "uint256",
					"name": "numMines",
					"type": "uint256"
				},
				{
					"indexed": false,
					"internalType": "bool[25]",
					"name": "minesTiles",
					"type": "bool[25]"
				},
				{
					"indexed": false,
					"internalType": "bool[25]",
					"name": "revealedTiles",
					"type": "bool[25]"
				},
				{
					"indexed": false,
					"internalType": "uint256",
					"name": "multiplier",
					"type": "uint256"
				}
			],
			"name": "Mines_Reveal_Event",
			"type": "event"
		},
		{
			"inputs": [],
			"name": "Bankroll",
			"outputs": [
				{
					"internalType": "contract IBankRoll",
					"name": "",
					"type": "address"
				}
			],
			"stateMutability": "view",
			"type": "function"
		},
		{
			"inputs": [],
			"name": "ChainLinkVRF",
			"outputs": [
				{
					"internalType": "address",
					"name": "",
					"type": "address"
				}
			],
			"stateMutability": "view",
			"type": "function"
		},
		{
			"inputs": [],
			"name": "IChainLinkVRF",
			"outputs": [
				{
					"internalType": "contract IVRFCoordinatorV2",
					"name": "",
					"type": "address"
				}
			],
			"stateMutability": "view",
			"type": "function"
		},
		{
			"inputs": [],
			"name": "LINK_ETH_FEED",
			"outputs": [
				{
					"internalType": "contract AggregatorV3Interface",
					"name": "",
					"type": "address"
				}
			],
			"stateMutability": "view",
			"type": "function"
		},
		{
			"inputs": [],
			"name": "Mines_End",
			"outputs": [],
			"stateMutability": "nonpayable",
			"type": "function"
		},
		{
			"inputs": [],
			"name": "Mines_GetMaxReveal",
			"outputs": [
				{
					"internalType": "uint256[24]",
					"name": "maxReveal",
					"type": "uint256[24]"
				}
			],
			"stateMutability": "view",
			"type": "function"
		},
		{
			"inputs": [
				{
					"internalType": "uint256",
					"name": "numMines",
					"type": "uint256"
				},
				{
					"internalType": "uint256",
					"name": "numRevealed",
					"type": "uint256"
				}
			],
			"name": "Mines_GetMultipliers",
			"outputs": [
				{
					"internalType": "uint256",
					"name": "multiplier",
					"type": "uint256"
				}
			],
			"stateMutability": "view",
			"type": "function"
		},
		{
			"inputs": [
				{
					"internalType": "address",
					"name": "player",
					"type": "address"
				}
			],
			"name": "Mines_GetState",
			"outputs": [
				{
					"components": [
						{
							"internalType": "address",
							"name": "tokenAddress",
							"type": "address"
						},
						{
							"internalType": "uint256",
							"name": "wager",
							"type": "uint256"
						},
						{
							"internalType": "uint256",
							"name": "requestID",
							"type": "uint256"
						},
						{
							"internalType": "uint64",
							"name": "blockNumber",
							"type": "uint64"
						},
						{
							"internalType": "uint64",
							"name": "currentMultiplier",
							"type": "uint64"
						},
						{
							"internalType": "uint8",
							"name": "numMines",
							"type": "uint8"
						},
						{
							"internalType": "bool[25]",
							"name": "revealedTiles",
							"type": "bool[25]"
						},
						{
							"internalType": "bool[25]",
							"name": "tilesPicked",
							"type": "bool[25]"
						},
						{
							"internalType": "bool",
							"name": "isCashout",
							"type": "bool"
						}
					],
					"internalType": "struct Mines.MinesGame",
					"name": "minesState",
					"type": "tuple"
				}
			],
			"stateMutability": "view",
			"type": "function"
		},
		{
			"inputs": [],
			"name": "Mines_Refund",
			"outputs": [],
			"stateMutability": "nonpayable",
			"type": "function"
		},
		{
			"inputs": [
				{
					"internalType": "bool[25]",
					"name": "tiles",
					"type": "bool[25]"
				},
				{
					"internalType": "bool",
					"name": "isCashout",
					"type": "bool"
				}
			],
			"name": "Mines_Reveal",
			"outputs": [],
			"stateMutability": "payable",
			"type": "function"
		},
		{
			"inputs": [
				{
					"internalType": "uint256",
					"name": "numMines",
					"type": "uint256"
				}
			],
			"name": "Mines_SetMultipliers",
			"outputs": [],
			"stateMutability": "nonpayable",
			"type": "function"
		},
		{
			"inputs": [
				{
					"internalType": "uint256",
					"name": "wager",
					"type": "uint256"
				},
				{
					"internalType": "address",
					"name": "tokenAddress",
					"type": "address"
				},
				{
					"internalType": "uint8",
					"name": "numMines",
					"type": "uint8"
				},
				{
					"internalType": "bool[25]",
					"name": "tiles",
					"type": "bool[25]"
				},
				{
					"internalType": "bool",
					"name": "isCashout",
					"type": "bool"
				}
			],
			"name": "Mines_Start",
			"outputs": [],
			"stateMutability": "payable",
			"type": "function"
		},
		{
			"inputs": [],
			"name": "VRFFees",
			"outputs": [
				{
					"internalType": "uint256",
					"name": "",
					"type": "uint256"
				}
			],
			"stateMutability": "view",
			"type": "function"
		},
		{
			"inputs": [],
			"name": "_trustedForwarder",
			"outputs": [
				{
					"internalType": "address",
					"name": "",
					"type": "address"
				}
			],
			"stateMutability": "view",
			"type": "function"
		},
		{
			"inputs": [
				{
					"internalType": "uint256",
					"name": "gasAmount",
					"type": "uint256"
				}
			],
			"name": "getVRFFee",
			"outputs": [
				{
					"internalType": "uint256",
					"name": "fee",
					"type": "uint256"
				}
			],
			"stateMutability": "view",
			"type": "function"
		},
		{
			"inputs": [
				{
					"internalType": "address",
					"name": "forwarder",
					"type": "address"
				}
			],
			"name": "isTrustedForwarder",
			"outputs": [
				{
					"internalType": "bool",
					"name": "",
					"type": "bool"
				}
			],
			"stateMutability": "view",
			"type": "function"
		},
		{
			"inputs": [
				{
					"internalType": "uint256",
					"name": "requestId",
					"type": "uint256"
				},
				{
					"internalType": "uint256[]",
					"name": "randomWords",
					"type": "uint256[]"
				}
			],
			"name": "rawFulfillRandomWords",
			"outputs": [],
			"stateMutability": "nonpayable",
			"type": "function"
		},
		{
			"inputs": [
				{
					"internalType": "address",
					"name": "to",
					"type": "address"
				}
			],
			"name": "transferFees",
			"outputs": [],
			"stateMutability": "nonpayable",
			"type": "function"
		}
	]
}