{
	"data": {
		"bytecode": {
			"linkReferences": {},
			"object": "608060405234801562000010575f80fd5b5060405162004818380380620048188339818101604052810190620000369190620004ac565b60015f819055508360065f6101000a81548173ffffffffffffffffffffffffffffffffffffffff021916908373ffffffffffffffffffffffffffffffffffffffff1602179055508260055f6101000a81548173ffffffffffffffffffffffffffffffffffffffff021916908373ffffffffffffffffffffffffffffffffffffffff1602179055508160045f6101000a81548173ffffffffffffffffffffffffffffffffffffffff021916908373ffffffffffffffffffffffffffffffffffffffff1602179055508260025f6101000a81548173ffffffffffffffffffffffffffffffffffffffff021916908373ffffffffffffffffffffffffffffffffffffffff1602179055508060035f6101000a81548173ffffffffffffffffffffffffffffffffffffffff021916908373ffffffffffffffffffffffffffffffffffffffff1602179055506040518061012001604052806208bee762ffffff1681526020016203acb062ffffff1681526020016205adbe62ffffff1681526020016204163b62ffffff1681526020016206ea6e62ffffff1681526020016207538c62ffffff1681526020016205008962ffffff1681526020016205dd6462ffffff168152602001620723e062ffffff16815250600b5f600381106200021c576200021b6200051b565b5b600902019060096200023092919062000393565b506040518061012001604052806201a67d62ffffff1681526020016201874462ffffff168152602001620189f862ffffff1681526020016201409162ffffff1681526020016201674d62ffffff1681526020016201473c62ffffff168152602001620109fc62ffffff16815260200162010f6362ffffff168152602001620187c062ffffff16815250600b600160038110620002d157620002d06200051b565b5b60090201906009620002e592919062000393565b50604051806101200160405280617a8961ffff16815260200161658e61ffff1681526020016195fa61ffff168152602001616c8b61ffff16815260200161729661ffff16815260200161714c61ffff1681526020016158ec61ffff1681526020016153bf61ffff168152602001616a3661ffff16815250600b6002600381106200037457620003736200051b565b5b6009020190600962000388929190620003df565b505050505062000548565b8260098101928215620003cc579160200282015b82811115620003cb578251829062ffffff16905591602001919060010190620003a7565b5b509050620003db91906200042a565b5090565b826009810192821562000417579160200282015b8281111562000416578251829061ffff16905591602001919060010190620003f3565b5b5090506200042691906200042a565b5090565b5b8082111562000443575f815f9055506001016200042b565b5090565b5f80fd5b5f73ffffffffffffffffffffffffffffffffffffffff82169050919050565b5f62000476826200044b565b9050919050565b62000488816200046a565b811462000493575f80fd5b50565b5f81519050620004a6816200047d565b92915050565b5f805f8060808587031215620004c757620004c662000447565b5b5f620004d68782880162000496565b9450506020620004e98782880162000496565b9350506040620004fc8782880162000496565b92505060606200050f8782880162000496565b91505092959194509250565b7f4e487b71000000000000000000000000000000000000000000000000000000005f52603260045260245ffd5b6142c280620005565f395ff3fe6080604052600436106100e7575f3560e01c80636483adca11610089578063aa73ce1e11610058578063aa73ce1e146102c3578063ad178361146102ff578063d0bcfc0c14610329578063f5d3781214610353576100e7565b80636483adca146102095780638bd16114146102335780638d7c16d21461026f578063953995ea14610299576100e7565b806352ebe739116100c557806352ebe7391461016557806356c022bb1461017b578063572b6c05146101a557806363dc4ef5146101e1576100e7565b80631fe543e3146100eb57806345b9394f146101135780634dd189d51461013b575b5f80fd5b3480156100f6575f80fd5b50610111600480360381019061010c9190612d01565b61036f565b005b34801561011e575f80fd5b5061013960048036038101906101349190612dea565b610431565b005b348015610146575f80fd5b5061014f6107fa565b60405161015c9190612ed5565b60405180910390f35b348015610170575f80fd5b5061017961081f565b005b348015610186575f80fd5b5061018f610c28565b60405161019c9190612f0e565b60405180910390f35b3480156101b0575f80fd5b506101cb60048036038101906101c69190612f51565b610c4d565b6040516101d89190612f96565b60405180910390f35b3480156101ec575f80fd5b5061020760048036038101906102029190612f51565b610ca5565b005b348015610214575f80fd5b5061021d610ef2565b60405161022a9190613182565b60405180910390f35b34801561023e575f80fd5b506102596004803603810190610254919061319c565b611004565b60405161026691906131d6565b60405180910390f35b34801561027a575f80fd5b50610283611188565b60405161029091906131d6565b60405180910390f35b3480156102a4575f80fd5b506102ad61118e565b6040516102ba9190612f0e565b60405180910390f35b3480156102ce575f80fd5b506102e960048036038101906102e49190612f51565b6111b3565b6040516102f69190613302565b60405180910390f35b34801561030a575f80fd5b50610313611318565b604051610320919061333c565b60405180910390f35b348015610334575f80fd5b5061033d61133d565b60405161034a9190613375565b60405180910390f35b61036d600480360381019061036891906133b8565b611362565b005b60025f9054906101000a900473ffffffffffffffffffffffffffffffffffffffff1673ffffffffffffffffffffffffffffffffffffffff163373ffffffffffffffffffffffffffffffffffffffff1614610423573360025f9054906101000a900473ffffffffffffffffffffffffffffffffffffffff166040517f1cf993f400000000000000000000000000000000000000000000000000000000815260040161041a929190613455565b60405180910390fd5b61042d82826117ca565b5050565b60065f9054906101000a900473ffffffffffffffffffffffffffffffffffffffff1673ffffffffffffffffffffffffffffffffffffffff1663893d20e86040518163ffffffff1660e01b8152600401602060405180830381865afa15801561049b573d5f803e3d5ffd5b505050506040513d601f19601f820116820180604052508101906104bf9190613490565b73ffffffffffffffffffffffffffffffffffffffff163373ffffffffffffffffffffffffffffffffffffffff16146105bd5760065f9054906101000a900473ffffffffffffffffffffffffffffffffffffffff1673ffffffffffffffffffffffffffffffffffffffff1663893d20e86040518163ffffffff1660e01b8152600401602060405180830381865afa15801561055b573d5f803e3d5ffd5b505050506040513d601f19601f8201168201806040525081019061057f9190613490565b336040517f23295f0e0000000000000000000000000000000000000000000000000000000081526004016105b4929190613455565b60405180910390fd5b600a5f8260ff1660ff1681526020019081526020015f205f8360ff1660ff1681526020019081526020015f205f9054906101000a900460ff161561063a5781816040517f9e278f400000000000000000000000000000000000000000000000000000000081526004016106319291906134ca565b60405180910390fd5b600182610647919061351e565b60ff1684849050146106a15783839050600183610664919061351e565b6040517f01653d4d000000000000000000000000000000000000000000000000000000008152600401610698929190613582565b60405180910390fd5b60088260ff1610806106b6575060108260ff16115b156106ed576040517f264097e700000000000000000000000000000000000000000000000000000000815260040160405180910390fd5b60038160ff161061072a576040517f376dfd5600000000000000000000000000000000000000000000000000000000815260040160405180910390fd5b5f5b848490508160ff1610156107af5784848260ff168181106107505761074f6135a9565b5b9050602002013560095f8460ff1660ff1681526020019081526020015f205f8560ff1660ff1681526020019081526020015f205f8360ff1660ff1681526020019081526020015f208190555080806107a7906135d6565b91505061072c565b506001600a5f8360ff1660ff1681526020019081526020015f205f8460ff1660ff1681526020019081526020015f205f6101000a81548160ff02191690831515021790555050505050565b60055f9054906101000a900473ffffffffffffffffffffffffffffffffffffffff1681565b610827611d4e565b5f610830611d9b565b90505f60075f8373ffffffffffffffffffffffffffffffffffffffff1673ffffffffffffffffffffffffffffffffffffffff1681526020019081526020015f2090505f8160030154036108af576040517f49050b3000000000000000000000000000000000000000000000000000000000815260040160405180910390fd5b43600a6103e88360040160149054906101000a900467ffffffffffffffff166108d891906135fe565b6108e291906135fe565b67ffffffffffffffff1611156109625743600a6103e88360040160149054906101000a900467ffffffffffffffff1661091b91906135fe565b61092591906135fe565b6040517fb4ae675a000000000000000000000000000000000000000000000000000000008152600401610959929190613669565b60405180910390fd5b5f81600401601c9054906101000a900463ffffffff1663ffffffff16825f015461098c9190613690565b90505f826004015f9054906101000a900473ffffffffffffffffffffffffffffffffffffffff16905060085f846003015481526020019081526020015f205f6101000a81549073ffffffffffffffffffffffffffffffffffffffff021916905560075f8573ffffffffffffffffffffffffffffffffffffffff1673ffffffffffffffffffffffffffffffffffffffff1681526020019081526020015f205f8082015f9055600182015f9055600282015f9055600382015f9055600482015f6101000a81549073ffffffffffffffffffffffffffffffffffffffff02191690556004820160146101000a81549067ffffffffffffffff021916905560048201601c6101000a81549063ffffffff0219169055600582015f6101000a81549060ff02191690556005820160016101000a81549060ff021916905550505f73ffffffffffffffffffffffffffffffffffffffff168173ffffffffffffffffffffffffffffffffffffffff1603610b9e575f8473ffffffffffffffffffffffffffffffffffffffff1683604051610b1e906136fe565b5f6040518083038185875af1925050503d805f8114610b58576040519150601f19603f3d011682016040523d82523d5f602084013e610b5d565b606091505b5050905080610b98576040517f90b8ec1800000000000000000000000000000000000000000000000000000000815260040160405180910390fd5b50610bca565b610bc984838373ffffffffffffffffffffffffffffffffffffffff16611dd09092919063ffffffff16565b5b8373ffffffffffffffffffffffffffffffffffffffff167f4f8e8cee8236ba6bfafb6ee32536c2b0b60e058fa752308d558d7b8fa146dca58383604051610c12929190613712565b60405180910390a250505050610c26611e4f565b565b60035f9054906101000a900473ffffffffffffffffffffffffffffffffffffffff1681565b5f60035f9054906101000a900473ffffffffffffffffffffffffffffffffffffffff1673ffffffffffffffffffffffffffffffffffffffff168273ffffffffffffffffffffffffffffffffffffffff16149050919050565b610cad611d4e565b60065f9054906101000a900473ffffffffffffffffffffffffffffffffffffffff1673ffffffffffffffffffffffffffffffffffffffff1663893d20e86040518163ffffffff1660e01b8152600401602060405180830381865afa158015610d17573d5f803e3d5ffd5b505050506040513d601f19601f82011682018060405250810190610d3b9190613490565b73ffffffffffffffffffffffffffffffffffffffff163373ffffffffffffffffffffffffffffffffffffffff1614610e395760065f9054906101000a900473ffffffffffffffffffffffffffffffffffffffff1673ffffffffffffffffffffffffffffffffffffffff1663893d20e86040518163ffffffff1660e01b8152600401602060405180830381865afa158015610dd7573d5f803e3d5ffd5b505050506040513d601f19601f82011682018060405250810190610dfb9190613490565b336040517f23295f0e000000000000000000000000000000000000000000000000000000008152600401610e30929190613455565b60405180910390fd5b5f60015490505f6001819055505f8273ffffffffffffffffffffffffffffffffffffffff1682604051610e6b906136fe565b5f6040518083038185875af1925050503d805f8114610ea5576040519150601f19603f3d011682016040523d82523d5f602084013e610eaa565b606091505b5050905080610ee5576040517f90b8ec1800000000000000000000000000000000000000000000000000000000815260040160405180910390fd5b5050610eef611e4f565b50565b610efa612a80565b5f5b60038160ff161015611000575f5b60098160ff161015610fec575f5b60118160ff161015610fd85760095f8460ff1660ff1681526020019081526020015f205f600884610f49919061351e565b60ff1660ff1681526020019081526020015f205f8260ff1660ff1681526020019081526020015f2054848460ff1660038110610f8857610f876135a9565b5b60200201518360ff1660098110610fa257610fa16135a9565b5b60200201518260ff1660118110610fbc57610fbb6135a9565b5b6020020181815250508080610fd0906135d6565b915050610f18565b508080610fe4906135d6565b915050610f0a565b508080610ff8906135d6565b915050610efc565b5090565b5f8060045f9054906101000a900473ffffffffffffffffffffffffffffffffffffffff1673ffffffffffffffffffffffffffffffffffffffff1663feaf968c6040518163ffffffff1660e01b815260040160a060405180830381865afa158015611070573d5f803e3d5ffd5b505050506040513d601f19601f8201168201806040525081019061109491906137bf565b5050509150505f60055f9054906101000a900473ffffffffffffffffffffffffffffffffffffffff1673ffffffffffffffffffffffffffffffffffffffff16635fbbc0d26040518163ffffffff1660e01b815260040161012060405180830381865afa158015611106573d5f803e3d5ffd5b505050506040513d601f19601f8201168201806040525081019061112a9190613882565b50505050505050509050670de0b6b3a7640000828263ffffffff1664e8d4a510006111559190613690565b61115f9190613690565b6111699190613973565b843a6111759190613690565b61117f91906139a3565b92505050919050565b60015481565b60025f9054906101000a900473ffffffffffffffffffffffffffffffffffffffff1681565b6111bb612aad565b60075f8373ffffffffffffffffffffffffffffffffffffffff1673ffffffffffffffffffffffffffffffffffffffff1681526020019081526020015f20604051806101200160405290815f8201548152602001600182015481526020016002820154815260200160038201548152602001600482015f9054906101000a900473ffffffffffffffffffffffffffffffffffffffff1673ffffffffffffffffffffffffffffffffffffffff1673ffffffffffffffffffffffffffffffffffffffff1681526020016004820160149054906101000a900467ffffffffffffffff1667ffffffffffffffff1667ffffffffffffffff16815260200160048201601c9054906101000a900463ffffffff1663ffffffff1663ffffffff168152602001600582015f9054906101000a900460ff1660ff1660ff1681526020016005820160019054906101000a900460ff1660ff1660ff16815250509050919050565b60045f9054906101000a900473ffffffffffffffffffffffffffffffffffffffff1681565b60065f9054906101000a900473ffffffffffffffffffffffffffffffffffffffff1681565b61136a611d4e565b5f611373611d9b565b905060088660ff16108061138a575060108660ff16115b156113c1576040517f264097e700000000000000000000000000000000000000000000000000000000815260040160405180910390fd5b60038560ff16106113fe576040517f376dfd5600000000000000000000000000000000000000000000000000000000815260040160405180910390fd5b5f60075f8373ffffffffffffffffffffffffffffffffffffffff1673ffffffffffffffffffffffffffffffffffffffff1681526020019081526020015f2060030154146114c25760075f8273ffffffffffffffffffffffffffffffffffffffff1673ffffffffffffffffffffffffffffffffffffffff1681526020019081526020015f20600301546040517f440db96e0000000000000000000000000000000000000000000000000000000081526004016114b991906131d6565b60405180910390fd5b5f8463ffffffff161180156114de575060648463ffffffff1611155b6115205760646040517f931074910000000000000000000000000000000000000000000000000000000081526004016115179190613a0f565b60405180910390fd5b61152c88888888611e58565b5f61154d888663ffffffff168b6115439190613690565b621e848085612012565b90505f61155986612368565b90506040518061012001604052808b81526020018681526020018581526020018281526020018a73ffffffffffffffffffffffffffffffffffffffff1681526020014367ffffffffffffffff1681526020018763ffffffff1681526020018860ff1681526020018960ff1681525060075f8573ffffffffffffffffffffffffffffffffffffffff1673ffffffffffffffffffffffffffffffffffffffff1681526020019081526020015f205f820151815f01556020820151816001015560408201518160020155606082015181600301556080820151816004015f6101000a81548173ffffffffffffffffffffffffffffffffffffffff021916908373ffffffffffffffffffffffffffffffffffffffff16021790555060a08201518160040160146101000a81548167ffffffffffffffff021916908367ffffffffffffffff16021790555060c082015181600401601c6101000a81548163ffffffff021916908363ffffffff16021790555060e0820151816005015f6101000a81548160ff021916908360ff1602179055506101008201518160050160016101000a81548160ff021916908360ff1602179055509050508260085f8381526020019081526020015f205f6101000a81548173ffffffffffffffffffffffffffffffffffffffff021916908373ffffffffffffffffffffffffffffffffffffffff1602179055508273ffffffffffffffffffffffffffffffffffffffff167fa609597d378f54ccc88b6d97954f5dc34c0de8adeb6c382516a6f8cc1cd24c6b8b8b8b8b8b8b8b8a6040516117ae989796959493929190613a37565b60405180910390a25050506117c1611e4f565b50505050505050565b5f60085f8481526020019081526020015f205f9054906101000a900473ffffffffffffffffffffffffffffffffffffffff1690505f73ffffffffffffffffffffffffffffffffffffffff168173ffffffffffffffffffffffffffffffffffffffff1603611835575f80fd5b5f60075f8373ffffffffffffffffffffffffffffffffffffffff1673ffffffffffffffffffffffffffffffffffffffff1681526020019081526020015f2090506103e88160040160149054906101000a900467ffffffffffffffff1661189b91906135fe565b67ffffffffffffffff164311156118b0575f80fd5b5f81600401601c9054906101000a900463ffffffff1663ffffffff1667ffffffffffffffff8111156118e5576118e4612bc5565b5b6040519080825280602002602001820160405280156119135781602001602082028036833780820191505090505b5090505f82600401601c9054906101000a900463ffffffff1663ffffffff1667ffffffffffffffff81111561194b5761194a612bc5565b5b6040519080825280602002602001820160405280156119795781602001602082028036833780820191505090505b5090505f805f805f876004015f9054906101000a900473ffffffffffffffffffffffffffffffffffffffff1690505f92505b87600401601c9054906101000a900463ffffffff1663ffffffff168363ffffffff161015611b2e578760010154851215611b2e5787600201546119ed90613ab3565b851315611b2e57611a408a8463ffffffff1681518110611a1057611a0f6135a9565b5b60200260200101518960050160019054906101000a900460ff168a6005015f9054906101000a900460ff16612438565b888563ffffffff1681518110611a5957611a586135a9565b5b602002602001018161ffff1661ffff168152508193505050606482895f0154611a829190613690565b611a8c9190613973565b868463ffffffff1681518110611aa557611aa46135a9565b5b602002602001018181525050858363ffffffff1681518110611aca57611ac96135a9565b5b602002602001015184611add91906139a3565b9350875f0154868463ffffffff1681518110611afc57611afb6135a9565b5b6020026020010151611b0e9190613af9565b85611b199190613b39565b94508280611b2690613b7a565b9350506119ab565b875f01548389600401601c9054906101000a900463ffffffff16611b529190613ba5565b63ffffffff16611b629190613690565b84611b6d91906139a3565b93508873ffffffffffffffffffffffffffffffffffffffff167f8e67907f20e5ba79f864289caa2ebae12b7009e941bc3ad33cd47340fd1b523c895f015486848b8d60050160019054906101000a900460ff168e6005015f9054906101000a900460ff168d8b604051611be7989796959493929190613d31565b60405180910390a2611c218189600401601c9054906101000a900463ffffffff1663ffffffff168a5f0154611c1c9190613690565b61250a565b60085f8c81526020019081526020015f205f6101000a81549073ffffffffffffffffffffffffffffffffffffffff021916905560075f8a73ffffffffffffffffffffffffffffffffffffffff1673ffffffffffffffffffffffffffffffffffffffff1681526020019081526020015f205f8082015f9055600182015f9055600282015f9055600382015f9055600482015f6101000a81549073ffffffffffffffffffffffffffffffffffffffff02191690556004820160146101000a81549067ffffffffffffffff021916905560048201601c6101000a81549063ffffffff0219169055600582015f6101000a81549060ff02191690556005820160016101000a81549060ff021916905550505f8414611d4157611d40898583612654565b5b5050505050505050505050565b60025f5403611d92576040517f08c379a0000000000000000000000000000000000000000000000000000000008152600401611d8990613e15565b60405180910390fd5b60025f81905550565b5f60145f36905010158015611db55750611db433610c4d565b5b15611dc957601436033560601c9050611dcd565b3390505b90565b611e4a838473ffffffffffffffffffffffffffffffffffffffff1663a9059cbb8585604051602401611e03929190613e33565b604051602081830303815290604052915060e01b6020820180517bffffffffffffffffffffffffffffffffffffffffffffffffffffffff83818316178352505050506126e4565b505050565b60015f81905550565b5f8073ffffffffffffffffffffffffffffffffffffffff168473ffffffffffffffffffffffffffffffffffffffff1603611ecc5760065f9054906101000a900473ffffffffffffffffffffffffffffffffffffffff1673ffffffffffffffffffffffffffffffffffffffff16319050611f68565b8373ffffffffffffffffffffffffffffffffffffffff166370a0823160065f9054906101000a900473ffffffffffffffffffffffffffffffffffffffff166040518263ffffffff1660e01b8152600401611f269190612f0e565b602060405180830381865afa158015611f41573d5f803e3d5ffd5b505050506040513d601f19601f82011682018060405250810190611f659190613e5a565b90505b5f6305f5e100600b8460ff1660038110611f8557611f846135a9565b5b60090201600886611f969190613e85565b60ff1660098110611faa57611fa96135a9565b5b015483611fb79190613690565b611fc19190613973565b90508086111561200a5785816040517fd53662aa000000000000000000000000000000000000000000000000000000008152600401612001929190613eb9565b60405180910390fd5b505050505050565b5f60065f9054906101000a900473ffffffffffffffffffffffffffffffffffffffff1673ffffffffffffffffffffffffffffffffffffffff1663bfd7f9cc30876040518363ffffffff1660e01b815260040161206f929190613455565b602060405180830381865afa15801561208a573d5f803e3d5ffd5b505050506040513d601f19601f820116820180604052508101906120ae9190613f0a565b6120e4576040517f51c3b94f00000000000000000000000000000000000000000000000000000000815260040160405180910390fd5b5f840361211d576040517f07375c8400000000000000000000000000000000000000000000000000000000815260040160405180910390fd5b5f8060065f9054906101000a900473ffffffffffffffffffffffffffffffffffffffff1673ffffffffffffffffffffffffffffffffffffffff16630a5748a8856040518263ffffffff1660e01b81526004016121799190612f0e565b6040805180830381865afa158015612193573d5f803e3d5ffd5b505050506040513d601f19601f820116820180604052508101906121b79190613f35565b9150915081156121fe57806040517f6c2775f50000000000000000000000000000000000000000000000000000000081526004016121f591906131d6565b60405180910390fd5b61220785611004565b92505f73ffffffffffffffffffffffffffffffffffffffff168773ffffffffffffffffffffffffffffffffffffffff16036122bd57828661224891906139a3565b34101561229957828661225b91906139a3565b346040517fde9b74a1000000000000000000000000000000000000000000000000000000008152600401612290929190613eb9565b60405180910390fd5b6122b886846122a891906139a3565b346122b39190613f73565b612779565b612346565b823410156123045782346040517fde9b74a10000000000000000000000000000000000000000000000000000000081526004016122fb929190613eb9565b60405180910390fd5b6123318430888a73ffffffffffffffffffffffffffffffffffffffff16612825909392919063ffffffff16565b61234583346123409190613f73565b612779565b5b8260015f82825461235791906139a3565b925050819055505050949350505050565b5f60025f9054906101000a900473ffffffffffffffffffffffffffffffffffffffff1673ffffffffffffffffffffffffffffffffffffffff16635d3b1d307fd729dc84e21ae57ffb6be0053bf2b0668aa2aaf300a2a7b2ddf7dc0bb6e875a86102406003622625a0876040518663ffffffff1660e01b81526004016123f195949392919061409e565b6020604051808303815f875af115801561240d573d5f803e3d5ffd5b505050506040513d601f19601f820116820180604052508101906124319190613e5a565b9050919050565b5f805f805b8560ff168160ff1610156124a5575f612459888360ff166128a7565b905080156124815760018361246e91906140fa565b925061247a84836128ba565b9350612491565b60018361248e9190614152565b92505b50808061249d906135d6565b91505061243d565b505f600186836124b591906140fa565b60ff16901c905060095f8660ff1660ff1681526020019081526020015f205f8760ff1660ff1681526020019081526020015f205f8260ff1660ff1681526020019081526020015f205493505050935093915050565b5f73ffffffffffffffffffffffffffffffffffffffff168273ffffffffffffffffffffffffffffffffffffffff1603612603575f60065f9054906101000a900473ffffffffffffffffffffffffffffffffffffffff1673ffffffffffffffffffffffffffffffffffffffff1682604051612583906136fe565b5f6040518083038185875af1925050503d805f81146125bd576040519150601f19603f3d011682016040523d82523d5f602084013e6125c2565b606091505b50509050806125fd576040517ff0c49d4400000000000000000000000000000000000000000000000000000000815260040160405180910390fd5b50612650565b61264f60065f9054906101000a900473ffffffffffffffffffffffffffffffffffffffff16828473ffffffffffffffffffffffffffffffffffffffff16611dd09092919063ffffffff16565b5b5050565b60065f9054906101000a900473ffffffffffffffffffffffffffffffffffffffff1673ffffffffffffffffffffffffffffffffffffffff16636c025ec28484846040518463ffffffff1660e01b81526004016126b2939291906141aa565b5f604051808303815f87803b1580156126c9575f80fd5b505af11580156126db573d5f803e3d5ffd5b50505050505050565b5f61270e828473ffffffffffffffffffffffffffffffffffffffff166128d190919063ffffffff16565b90505f8151141580156127325750808060200190518101906127309190613f0a565b155b1561277457826040517f5274afe700000000000000000000000000000000000000000000000000000000815260040161276b9190612f0e565b60405180910390fd5b505050565b5f810315612822575f3373ffffffffffffffffffffffffffffffffffffffff16826040516127a6906136fe565b5f6040518083038185875af1925050503d805f81146127e0576040519150601f19603f3d011682016040523d82523d5f602084013e6127e5565b606091505b5050905080612820576040517ff0c49d4400000000000000000000000000000000000000000000000000000000815260040160405180910390fd5b505b50565b6128a1848573ffffffffffffffffffffffffffffffffffffffff166323b872dd86868660405160240161285a939291906141df565b604051602081830303815290604052915060e01b6020820180517bffffffffffffffffffffffffffffffffffffffffffffffffffffffff83818316178352505050506126e4565b50505050565b5f80826001901b84161415905092915050565b5f8160ff16600161ffff16901b8317905092915050565b60606128de83835f6128e6565b905092915050565b60608147101561292d57306040517fcd7860590000000000000000000000000000000000000000000000000000000081526004016129249190612f0e565b60405180910390fd5b5f808573ffffffffffffffffffffffffffffffffffffffff1684866040516129559190614276565b5f6040518083038185875af1925050503d805f811461298f576040519150601f19603f3d011682016040523d82523d5f602084013e612994565b606091505b50915091506129a48683836129af565b925050509392505050565b6060826129c4576129bf82612a3c565b612a34565b5f82511480156129ea57505f8473ffffffffffffffffffffffffffffffffffffffff163b145b15612a2c57836040517f9996b315000000000000000000000000000000000000000000000000000000008152600401612a239190612f0e565b60405180910390fd5b819050612a35565b5b9392505050565b5f81511115612a4e5780518082602001fd5b6040517f1425ea4200000000000000000000000000000000000000000000000000000000815260040160405180910390fd5b60405180606001604052806003905b612a97612b1c565b815260200190600190039081612a8f5790505090565b6040518061012001604052805f81526020015f81526020015f81526020015f81526020015f73ffffffffffffffffffffffffffffffffffffffff1681526020015f67ffffffffffffffff1681526020015f63ffffffff1681526020015f60ff1681526020015f60ff1681525090565b6040518061012001604052806009905b612b34612b4a565b815260200190600190039081612b2c5790505090565b604051806102200160405280601190602082028036833780820191505090505090565b5f604051905090565b5f80fd5b5f80fd5b5f819050919050565b612b9081612b7e565b8114612b9a575f80fd5b50565b5f81359050612bab81612b87565b92915050565b5f80fd5b5f601f19601f8301169050919050565b7f4e487b71000000000000000000000000000000000000000000000000000000005f52604160045260245ffd5b612bfb82612bb5565b810181811067ffffffffffffffff82111715612c1a57612c19612bc5565b5b80604052505050565b5f612c2c612b6d565b9050612c388282612bf2565b919050565b5f67ffffffffffffffff821115612c5757612c56612bc5565b5b602082029050602081019050919050565b5f80fd5b5f612c7e612c7984612c3d565b612c23565b90508083825260208201905060208402830185811115612ca157612ca0612c68565b5b835b81811015612cca5780612cb68882612b9d565b845260208401935050602081019050612ca3565b5050509392505050565b5f82601f830112612ce857612ce7612bb1565b5b8135612cf8848260208601612c6c565b91505092915050565b5f8060408385031215612d1757612d16612b76565b5b5f612d2485828601612b9d565b925050602083013567ffffffffffffffff811115612d4557612d44612b7a565b5b612d5185828601612cd4565b9150509250929050565b5f80fd5b5f8083601f840112612d7457612d73612bb1565b5b8235905067ffffffffffffffff811115612d9157612d90612d5b565b5b602083019150836020820283011115612dad57612dac612c68565b5b9250929050565b5f60ff82169050919050565b612dc981612db4565b8114612dd3575f80fd5b50565b5f81359050612de481612dc0565b92915050565b5f805f8060608587031215612e0257612e01612b76565b5b5f85013567ffffffffffffffff811115612e1f57612e1e612b7a565b5b612e2b87828801612d5f565b94509450506020612e3e87828801612dd6565b9250506040612e4f87828801612dd6565b91505092959194509250565b5f73ffffffffffffffffffffffffffffffffffffffff82169050919050565b5f819050919050565b5f612e9d612e98612e9384612e5b565b612e7a565b612e5b565b9050919050565b5f612eae82612e83565b9050919050565b5f612ebf82612ea4565b9050919050565b612ecf81612eb5565b82525050565b5f602082019050612ee85f830184612ec6565b92915050565b5f612ef882612e5b565b9050919050565b612f0881612eee565b82525050565b5f602082019050612f215f830184612eff565b92915050565b612f3081612eee565b8114612f3a575f80fd5b50565b5f81359050612f4b81612f27565b92915050565b5f60208284031215612f6657612f65612b76565b5b5f612f7384828501612f3d565b91505092915050565b5f8115159050919050565b612f9081612f7c565b82525050565b5f602082019050612fa95f830184612f87565b92915050565b5f60039050919050565b5f81905092915050565b5f819050919050565b5f60099050919050565b5f81905092915050565b5f819050919050565b5f60119050919050565b5f81905092915050565b5f819050919050565b61300f81612b7e565b82525050565b5f6130208383613006565b60208301905092915050565b5f602082019050919050565b61304181612fe9565b61304b8184612ff3565b925061305682612ffd565b805f5b8381101561308657815161306d8782613015565b96506130788361302c565b925050600181019050613059565b505050505050565b5f6130998383613038565b6102208301905092915050565b5f602082019050919050565b6130bb81612fcc565b6130c58184612fd6565b92506130d082612fe0565b805f5b838110156131005781516130e7878261308e565b96506130f2836130a6565b9250506001810190506130d3565b505050505050565b5f61311383836130b2565b6113208301905092915050565b5f602082019050919050565b61313581612faf565b61313f8184612fb9565b925061314a82612fc3565b805f5b8381101561317a5781516131618782613108565b965061316c83613120565b92505060018101905061314d565b505050505050565b5f613960820190506131965f83018461312c565b92915050565b5f602082840312156131b1576131b0612b76565b5b5f6131be84828501612b9d565b91505092915050565b6131d081612b7e565b82525050565b5f6020820190506131e95f8301846131c7565b92915050565b6131f881612eee565b82525050565b5f67ffffffffffffffff82169050919050565b61321a816131fe565b82525050565b5f63ffffffff82169050919050565b61323881613220565b82525050565b61324781612db4565b82525050565b61012082015f8201516132625f850182613006565b5060208201516132756020850182613006565b5060408201516132886040850182613006565b50606082015161329b6060850182613006565b5060808201516132ae60808501826131ef565b5060a08201516132c160a0850182613211565b5060c08201516132d460c085018261322f565b5060e08201516132e760e085018261323e565b506101008201516132fc61010085018261323e565b50505050565b5f610120820190506133165f83018461324d565b92915050565b5f61332682612ea4565b9050919050565b6133368161331c565b82525050565b5f60208201905061334f5f83018461332d565b92915050565b5f61335f82612ea4565b9050919050565b61336f81613355565b82525050565b5f6020820190506133885f830184613366565b92915050565b61339781613220565b81146133a1575f80fd5b50565b5f813590506133b28161338e565b92915050565b5f805f805f805f60e0888a0312156133d3576133d2612b76565b5b5f6133e08a828b01612b9d565b97505060206133f18a828b01612f3d565b96505060406134028a828b01612dd6565b95505060606134138a828b01612dd6565b94505060806134248a828b016133a4565b93505060a06134358a828b01612b9d565b92505060c06134468a828b01612b9d565b91505092959891949750929550565b5f6040820190506134685f830185612eff565b6134756020830184612eff565b9392505050565b5f8151905061348a81612f27565b92915050565b5f602082840312156134a5576134a4612b76565b5b5f6134b28482850161347c565b91505092915050565b6134c481612db4565b82525050565b5f6040820190506134dd5f8301856134bb565b6134ea60208301846134bb565b9392505050565b7f4e487b71000000000000000000000000000000000000000000000000000000005f52601160045260245ffd5b5f61352882612db4565b915061353383612db4565b9250828201905060ff81111561354c5761354b6134f1565b5b92915050565b5f61356c61356761356284612db4565b612e7a565b612b7e565b9050919050565b61357c81613552565b82525050565b5f6040820190506135955f8301856131c7565b6135a26020830184613573565b9392505050565b7f4e487b71000000000000000000000000000000000000000000000000000000005f52603260045260245ffd5b5f6135e082612db4565b915060ff82036135f3576135f26134f1565b5b600182019050919050565b5f613608826131fe565b9150613613836131fe565b9250828201905067ffffffffffffffff811115613633576136326134f1565b5b92915050565b5f61365361364e613649846131fe565b612e7a565b612b7e565b9050919050565b61366381613639565b82525050565b5f60408201905061367c5f8301856131c7565b613689602083018461365a565b9392505050565b5f61369a82612b7e565b91506136a583612b7e565b92508282026136b381612b7e565b915082820484148315176136ca576136c96134f1565b5b5092915050565b5f81905092915050565b50565b5f6136e95f836136d1565b91506136f4826136db565b5f82019050919050565b5f613708826136de565b9150819050919050565b5f6040820190506137255f8301856131c7565b6137326020830184612eff565b9392505050565b5f69ffffffffffffffffffff82169050919050565b61375781613739565b8114613761575f80fd5b50565b5f815190506137728161374e565b92915050565b5f819050919050565b61378a81613778565b8114613794575f80fd5b50565b5f815190506137a581613781565b92915050565b5f815190506137b981612b87565b92915050565b5f805f805f60a086880312156137d8576137d7612b76565b5b5f6137e588828901613764565b95505060206137f688828901613797565b9450506040613807888289016137ab565b9350506060613818888289016137ab565b925050608061382988828901613764565b9150509295509295909350565b5f815190506138448161338e565b92915050565b5f62ffffff82169050919050565b6138618161384a565b811461386b575f80fd5b50565b5f8151905061387c81613858565b92915050565b5f805f805f805f805f6101208a8c0312156138a05761389f612b76565b5b5f6138ad8c828d01613836565b99505060206138be8c828d01613836565b98505060406138cf8c828d01613836565b97505060606138e08c828d01613836565b96505060806138f18c828d01613836565b95505060a06139028c828d0161386e565b94505060c06139138c828d0161386e565b93505060e06139248c828d0161386e565b9250506101006139368c828d0161386e565b9150509295985092959850929598565b7f4e487b71000000000000000000000000000000000000000000000000000000005f52601260045260245ffd5b5f61397d82612b7e565b915061398883612b7e565b92508261399857613997613946565b5b828204905092915050565b5f6139ad82612b7e565b91506139b883612b7e565b92508282019050808211156139d0576139cf6134f1565b5b92915050565b5f819050919050565b5f6139f96139f46139ef846139d6565b612e7a565b612b7e565b9050919050565b613a09816139df565b82525050565b5f602082019050613a225f830184613a00565b92915050565b613a3181613220565b82525050565b5f61010082019050613a4b5f83018b6131c7565b613a58602083018a612eff565b613a6560408301896134bb565b613a7260608301886134bb565b613a7f6080830187613a28565b613a8c60a08301866131c7565b613a9960c08301856131c7565b613aa660e08301846131c7565b9998505050505050505050565b5f613abd82613778565b91507f80000000000000000000000000000000000000000000000000000000000000008203613aef57613aee6134f1565b5b815f039050919050565b5f613b0382613778565b9150613b0e83613778565b925082820390508181125f8412168282135f851215161715613b3357613b326134f1565b5b92915050565b5f613b4382613778565b9150613b4e83613778565b92508282019050828112155f8312168382125f841215161715613b7457613b736134f1565b5b92915050565b5f613b8482613220565b915063ffffffff8203613b9a57613b996134f1565b5b600182019050919050565b5f613baf82613220565b9150613bba83613220565b9250828203905063ffffffff811115613bd657613bd56134f1565b5b92915050565b5f81519050919050565b5f82825260208201905092915050565b5f819050602082019050919050565b5f61ffff82169050919050565b613c1b81613c05565b82525050565b5f613c2c8383613c12565b60208301905092915050565b5f602082019050919050565b5f613c4e82613bdc565b613c588185613be6565b9350613c6383613bf6565b805f5b83811015613c93578151613c7a8882613c21565b9750613c8583613c38565b925050600181019050613c66565b5085935050505092915050565b5f81519050919050565b5f82825260208201905092915050565b5f819050602082019050919050565b5f602082019050919050565b5f613cdf82613ca0565b613ce98185613caa565b9350613cf483613cba565b805f5b83811015613d24578151613d0b8882613015565b9750613d1683613cc9565b925050600181019050613cf7565b5085935050505092915050565b5f61010082019050613d455f83018b6131c7565b613d52602083018a6131c7565b613d5f6040830189612eff565b8181036060830152613d718188613c44565b9050613d8060808301876134bb565b613d8d60a08301866134bb565b81810360c0830152613d9f8185613cd5565b9050613dae60e0830184613a28565b9998505050505050505050565b5f82825260208201905092915050565b7f5265656e7472616e637947756172643a207265656e7472616e742063616c6c005f82015250565b5f613dff601f83613dbb565b9150613e0a82613dcb565b602082019050919050565b5f6020820190508181035f830152613e2c81613df3565b9050919050565b5f604082019050613e465f830185612eff565b613e5360208301846131c7565b9392505050565b5f60208284031215613e6f57613e6e612b76565b5b5f613e7c848285016137ab565b91505092915050565b5f613e8f82612db4565b9150613e9a83612db4565b9250828203905060ff811115613eb357613eb26134f1565b5b92915050565b5f604082019050613ecc5f8301856131c7565b613ed960208301846131c7565b9392505050565b613ee981612f7c565b8114613ef3575f80fd5b50565b5f81519050613f0481613ee0565b92915050565b5f60208284031215613f1f57613f1e612b76565b5b5f613f2c84828501613ef6565b91505092915050565b5f8060408385031215613f4b57613f4a612b76565b5b5f613f5885828601613ef6565b9250506020613f69858286016137ab565b9150509250929050565b5f613f7d82612b7e565b9150613f8883612b7e565b9250828203905081811115613fa057613f9f6134f1565b5b92915050565b5f819050919050565b5f819050919050565b5f815f1b9050919050565b5f613fdd613fd8613fd384613fa6565b613fb8565b613faf565b9050919050565b613fed81613fc3565b82525050565b5f819050919050565b5f61401661401161400c84613ff3565b612e7a565b6131fe565b9050919050565b61402681613ffc565b82525050565b5f819050919050565b5f61404f61404a6140458461402c565b612e7a565b613c05565b9050919050565b61405f81614035565b82525050565b5f819050919050565b5f61408861408361407e84614065565b612e7a565b613220565b9050919050565b6140988161406e565b82525050565b5f60a0820190506140b15f830188613fe4565b6140be602083018761401d565b6140cb6040830186614056565b6140d8606083018561408f565b6140e56080830184613a28565b9695505050505050565b5f815f0b9050919050565b5f614104826140ef565b915061410f836140ef565b925082820190507fffffffffffffffffffffffffffffffffffffffffffffffffffffffffffffff808112607f8213171561414c5761414b6134f1565b5b92915050565b5f61415c826140ef565b9150614167836140ef565b92508282039050607f81137fffffffffffffffffffffffffffffffffffffffffffffffffffffffffffffff80821217156141a4576141a36134f1565b5b92915050565b5f6060820190506141bd5f830186612eff565b6141ca60208301856131c7565b6141d76040830184612eff565b949350505050565b5f6060820190506141f25f830186612eff565b6141ff6020830185612eff565b61420c60408301846131c7565b949350505050565b5f81519050919050565b5f5b8381101561423b578082015181840152602081019050614220565b5f8484015250505050565b5f61425082614214565b61425a81856136d1565b935061426a81856020860161421e565b80840191505092915050565b5f6142818284614246565b91508190509291505056fea2646970667358221220096d580bd6376343be1403b6c02fe1ba32f1c5a1dad0a9055987f94df36c1eb964736f6c63430008140033",
			"opcodes": "PUSH1 0x80 PUSH1 0x40 MSTORE CALLVALUE DUP1 ISZERO PUSH3 0x10 JUMPI PUSH0 DUP1 REVERT JUMPDEST POP PUSH1 0x40 MLOAD PUSH3 0x4818 CODESIZE SUB DUP1 PUSH3 0x4818 DUP4 CODECOPY DUP2 DUP2 ADD PUSH1 0x40 MSTORE DUP2 ADD SWAP1 PUSH3 0x36 SWAP2 SWAP1 PUSH3 0x4AC JUMP JUMPDEST PUSH1 0x1 PUSH0 DUP2 SWAP1 SSTORE POP DUP4 PUSH1 0x6 PUSH0 PUSH2 0x100 EXP DUP2 SLOAD DUP2 PUSH20 0xFFFFFFFFFFFFFFFFFFFFFFFFFFFFFFFFFFFFFFFF MUL NOT AND SWAP1 DUP4 PUSH20 0xFFFFFFFFFFFFFFFFFFFFFFFFFFFFFFFFFFFFFFFF AND MUL OR SWAP1 SSTORE POP DUP3 PUSH1 0x5 PUSH0 PUSH2 0x100 EXP DUP2 SLOAD DUP2 PUSH20 0xFFFFFFFFFFFFFFFFFFFFFFFFFFFFFFFFFFFFFFFF MUL NOT AND SWAP1 DUP4 PUSH20 0xFFFFFFFFFFFFFFFFFFFFFFFFFFFFFFFFFFFFFFFF AND MUL OR SWAP1 SSTORE POP DUP2 PUSH1 0x4 PUSH0 PUSH2 0x100 EXP DUP2 SLOAD DUP2 PUSH20 0xFFFFFFFFFFFFFFFFFFFFFFFFFFFFFFFFFFFFFFFF MUL NOT AND SWAP1 DUP4 PUSH20 0xFFFFFFFFFFFFFFFFFFFFFFFFFFFFFFFFFFFFFFFF AND MUL OR SWAP1 SSTORE POP DUP3 PUSH1 0x2 PUSH0 PUSH2 0x100 EXP DUP2 SLOAD DUP2 PUSH20 0xFFFFFFFFFFFFFFFFFFFFFFFFFFFFFFFFFFFFFFFF MUL NOT AND SWAP1 DUP4 PUSH20 0xFFFFFFFFFFFFFFFFFFFFFFFFFFFFFFFFFFFFFFFF AND MUL OR SWAP1 SSTORE POP DUP1 PUSH1 0x3 PUSH0 PUSH2 0x100 EXP DUP2 SLOAD DUP2 PUSH20 0xFFFFFFFFFFFFFFFFFFFFFFFFFFFFFFFFFFFFFFFF MUL NOT AND SWAP1 DUP4 PUSH20 0xFFFFFFFFFFFFFFFFFFFFFFFFFFFFFFFFFFFFFFFF AND MUL OR SWAP1 SSTORE POP PUSH1 0x40 MLOAD DUP1 PUSH2 0x120 ADD PUSH1 0x40 MSTORE DUP1 PUSH3 0x8BEE7 PUSH3 0xFFFFFF AND DUP2 MSTORE PUSH1 0x20 ADD PUSH3 0x3ACB0 PUSH3 0xFFFFFF AND DUP2 MSTORE PUSH1 0x20 ADD PUSH3 0x5ADBE PUSH3 0xFFFFFF AND DUP2 MSTORE PUSH1 0x20 ADD PUSH3 0x4163B PUSH3 0xFFFFFF AND DUP2 MSTORE PUSH1 0x20 ADD PUSH3 0x6EA6E PUSH3 0xFFFFFF AND DUP2 MSTORE PUSH1 0x20 ADD PUSH3 0x7538C PUSH3 0xFFFFFF AND DUP2 MSTORE PUSH1 0x20 ADD PUSH3 0x50089 PUSH3 0xFFFFFF AND DUP2 MSTORE PUSH1 0x20 ADD PUSH3 0x5DD64 PUSH3 0xFFFFFF AND DUP2 MSTORE PUSH1 0x20 ADD PUSH3 0x723E0 PUSH3 0xFFFFFF AND DUP2 MSTORE POP PUSH1 0xB PUSH0 PUSH1 0x3 DUP2 LT PUSH3 0x21C JUMPI PUSH3 0x21B PUSH3 0x51B JUMP JUMPDEST JUMPDEST PUSH1 0x9 MUL ADD SWAP1 PUSH1 0x9 PUSH3 0x230 SWAP3 SWAP2 SWAP1 PUSH3 0x393 JUMP JUMPDEST POP PUSH1 0x40 MLOAD DUP1 PUSH2 0x120 ADD PUSH1 0x40 MSTORE DUP1 PUSH3 0x1A67D PUSH3 0xFFFFFF AND DUP2 MSTORE PUSH1 0x20 ADD PUSH3 0x18744 PUSH3 0xFFFFFF AND DUP2 MSTORE PUSH1 0x20 ADD PUSH3 0x189F8 PUSH3 0xFFFFFF AND DUP2 MSTORE PUSH1 0x20 ADD PUSH3 0x14091 PUSH3 0xFFFFFF AND DUP2 MSTORE PUSH1 0x20 ADD PUSH3 0x1674D PUSH3 0xFFFFFF AND DUP2 MSTORE PUSH1 0x20 ADD PUSH3 0x1473C PUSH3 0xFFFFFF AND DUP2 MSTORE PUSH1 0x20 ADD PUSH3 0x109FC PUSH3 0xFFFFFF AND DUP2 MSTORE PUSH1 0x20 ADD PUSH3 0x10F63 PUSH3 0xFFFFFF AND DUP2 MSTORE PUSH1 0x20 ADD PUSH3 0x187C0 PUSH3 0xFFFFFF AND DUP2 MSTORE POP PUSH1 0xB PUSH1 0x1 PUSH1 0x3 DUP2 LT PUSH3 0x2D1 JUMPI PUSH3 0x2D0 PUSH3 0x51B JUMP JUMPDEST JUMPDEST PUSH1 0x9 MUL ADD SWAP1 PUSH1 0x9 PUSH3 0x2E5 SWAP3 SWAP2 SWAP1 PUSH3 0x393 JUMP JUMPDEST POP PUSH1 0x40 MLOAD DUP1 PUSH2 0x120 ADD PUSH1 0x40 MSTORE DUP1 PUSH2 0x7A89 PUSH2 0xFFFF AND DUP2 MSTORE PUSH1 0x20 ADD PUSH2 0x658E PUSH2 0xFFFF AND DUP2 MSTORE PUSH1 0x20 ADD PUSH2 0x95FA PUSH2 0xFFFF AND DUP2 MSTORE PUSH1 0x20 ADD PUSH2 0x6C8B PUSH2 0xFFFF AND DUP2 MSTORE PUSH1 0x20 ADD PUSH2 0x7296 PUSH2 0xFFFF AND DUP2 MSTORE PUSH1 0x20 ADD PUSH2 0x714C PUSH2 0xFFFF AND DUP2 MSTORE PUSH1 0x20 ADD PUSH2 0x58EC PUSH2 0xFFFF AND DUP2 MSTORE PUSH1 0x20 ADD PUSH2 0x53BF PUSH2 0xFFFF AND DUP2 MSTORE PUSH1 0x20 ADD PUSH2 0x6A36 PUSH2 0xFFFF AND DUP2 MSTORE POP PUSH1 0xB PUSH1 0x2 PUSH1 0x3 DUP2 LT PUSH3 0x374 JUMPI PUSH3 0x373 PUSH3 0x51B JUMP JUMPDEST JUMPDEST PUSH1 0x9 MUL ADD SWAP1 PUSH1 0x9 PUSH3 0x388 SWAP3 SWAP2 SWAP1 PUSH3 0x3DF JUMP JUMPDEST POP POP POP POP POP PUSH3 0x548 JUMP JUMPDEST DUP3 PUSH1 0x9 DUP2 ADD SWAP3 DUP3 ISZERO PUSH3 0x3CC JUMPI SWAP2 PUSH1 0x20 MUL DUP3 ADD JUMPDEST DUP3 DUP2 GT ISZERO PUSH3 0x3CB JUMPI DUP3 MLOAD DUP3 SWAP1 PUSH3 0xFFFFFF AND SWAP1 SSTORE SWAP2 PUSH1 0x20 ADD SWAP2 SWAP1 PUSH1 0x1 ADD SWAP1 PUSH3 0x3A7 JUMP JUMPDEST JUMPDEST POP SWAP1 POP PUSH3 0x3DB SWAP2 SWAP1 PUSH3 0x42A JUMP JUMPDEST POP SWAP1 JUMP JUMPDEST DUP3 PUSH1 0x9 DUP2 ADD SWAP3 DUP3 ISZERO PUSH3 0x417 JUMPI SWAP2 PUSH1 0x20 MUL DUP3 ADD JUMPDEST DUP3 DUP2 GT ISZERO PUSH3 0x416 JUMPI DUP3 MLOAD DUP3 SWAP1 PUSH2 0xFFFF AND SWAP1 SSTORE SWAP2 PUSH1 0x20 ADD SWAP2 SWAP1 PUSH1 0x1 ADD SWAP1 PUSH3 0x3F3 JUMP JUMPDEST JUMPDEST POP SWAP1 POP PUSH3 0x426 SWAP2 SWAP1 PUSH3 0x42A JUMP JUMPDEST POP SWAP1 JUMP JUMPDEST JUMPDEST DUP1 DUP3 GT ISZERO PUSH3 0x443 JUMPI PUSH0 DUP2 PUSH0 SWAP1 SSTORE POP PUSH1 0x1 ADD PUSH3 0x42B JUMP JUMPDEST POP SWAP1 JUMP JUMPDEST PUSH0 DUP1 REVERT JUMPDEST PUSH0 PUSH20 0xFFFFFFFFFFFFFFFFFFFFFFFFFFFFFFFFFFFFFFFF DUP3 AND SWAP1 POP SWAP2 SWAP1 POP JUMP JUMPDEST PUSH0 PUSH3 0x476 DUP3 PUSH3 0x44B JUMP JUMPDEST SWAP1 POP SWAP2 SWAP1 POP JUMP JUMPDEST PUSH3 0x488 DUP2 PUSH3 0x46A JUMP JUMPDEST DUP2 EQ PUSH3 0x493 JUMPI PUSH0 DUP1 REVERT JUMPDEST POP JUMP JUMPDEST PUSH0 DUP2 MLOAD SWAP1 POP PUSH3 0x4A6 DUP2 PUSH3 0x47D JUMP JUMPDEST SWAP3 SWAP2 POP POP JUMP JUMPDEST PUSH0 DUP1 PUSH0 DUP1 PUSH1 0x80 DUP6 DUP8 SUB SLT ISZERO PUSH3 0x4C7 JUMPI PUSH3 0x4C6 PUSH3 0x447 JUMP JUMPDEST JUMPDEST PUSH0 PUSH3 0x4D6 DUP8 DUP3 DUP9 ADD PUSH3 0x496 JUMP JUMPDEST SWAP5 POP POP PUSH1 0x20 PUSH3 0x4E9 DUP8 DUP3 DUP9 ADD PUSH3 0x496 JUMP JUMPDEST SWAP4 POP POP PUSH1 0x40 PUSH3 0x4FC DUP8 DUP3 DUP9 ADD PUSH3 0x496 JUMP JUMPDEST SWAP3 POP POP PUSH1 0x60 PUSH3 0x50F DUP8 DUP3 DUP9 ADD PUSH3 0x496 JUMP JUMPDEST SWAP2 POP POP SWAP3 SWAP6 SWAP2 SWAP5 POP SWAP3 POP JUMP JUMPDEST PUSH32 0x4E487B7100000000000000000000000000000000000000000000000000000000 PUSH0 MSTORE PUSH1 0x32 PUSH1 0x4 MSTORE PUSH1 0x24 PUSH0 REVERT JUMPDEST PUSH2 0x42C2 DUP1 PUSH3 0x556 PUSH0 CODECOPY PUSH0 RETURN INVALID PUSH1 0x80 PUSH1 0x40 MSTORE PUSH1 0x4 CALLDATASIZE LT PUSH2 0xE7 JUMPI PUSH0 CALLDATALOAD PUSH1 0xE0 SHR DUP1 PUSH4 0x6483ADCA GT PUSH2 0x89 JUMPI DUP1 PUSH4 0xAA73CE1E GT PUSH2 0x58 JUMPI DUP1 PUSH4 0xAA73CE1E EQ PUSH2 0x2C3 JUMPI DUP1 PUSH4 0xAD178361 EQ PUSH2 0x2FF JUMPI DUP1 PUSH4 0xD0BCFC0C EQ PUSH2 0x329 JUMPI DUP1 PUSH4 0xF5D37812 EQ PUSH2 0x353 JUMPI PUSH2 0xE7 JUMP JUMPDEST DUP1 PUSH4 0x6483ADCA EQ PUSH2 0x209 JUMPI DUP1 PUSH4 0x8BD16114 EQ PUSH2 0x233 JUMPI DUP1 PUSH4 0x8D7C16D2 EQ PUSH2 0x26F JUMPI DUP1 PUSH4 0x953995EA EQ PUSH2 0x299 JUMPI PUSH2 0xE7 JUMP JUMPDEST DUP1 PUSH4 0x52EBE739 GT PUSH2 0xC5 JUMPI DUP1 PUSH4 0x52EBE739 EQ PUSH2 0x165 JUMPI DUP1 PUSH4 0x56C022BB EQ PUSH2 0x17B JUMPI DUP1 PUSH4 0x572B6C05 EQ PUSH2 0x1A5 JUMPI DUP1 PUSH4 0x63DC4EF5 EQ PUSH2 0x1E1 JUMPI PUSH2 0xE7 JUMP JUMPDEST DUP1 PUSH4 0x1FE543E3 EQ PUSH2 0xEB JUMPI DUP1 PUSH4 0x45B9394F EQ PUSH2 0x113 JUMPI DUP1 PUSH4 0x4DD189D5 EQ PUSH2 0x13B JUMPI JUMPDEST PUSH0 DUP1 REVERT JUMPDEST CALLVALUE DUP1 ISZERO PUSH2 0xF6 JUMPI PUSH0 DUP1 REVERT JUMPDEST POP PUSH2 0x111 PUSH1 0x4 DUP1 CALLDATASIZE SUB DUP2 ADD SWAP1 PUSH2 0x10C SWAP2 SWAP1 PUSH2 0x2D01 JUMP JUMPDEST PUSH2 0x36F JUMP JUMPDEST STOP JUMPDEST CALLVALUE DUP1 ISZERO PUSH2 0x11E JUMPI PUSH0 DUP1 REVERT JUMPDEST POP PUSH2 0x139 PUSH1 0x4 DUP1 CALLDATASIZE SUB DUP2 ADD SWAP1 PUSH2 0x134 SWAP2 SWAP1 PUSH2 0x2DEA JUMP JUMPDEST PUSH2 0x431 JUMP JUMPDEST STOP JUMPDEST CALLVALUE DUP1 ISZERO PUSH2 0x146 JUMPI PUSH0 DUP1 REVERT JUMPDEST POP PUSH2 0x14F PUSH2 0x7FA JUMP JUMPDEST PUSH1 0x40 MLOAD PUSH2 0x15C SWAP2 SWAP1 PUSH2 0x2ED5 JUMP JUMPDEST PUSH1 0x40 MLOAD DUP1 SWAP2 SUB SWAP1 RETURN JUMPDEST CALLVALUE DUP1 ISZERO PUSH2 0x170 JUMPI PUSH0 DUP1 REVERT JUMPDEST POP PUSH2 0x179 PUSH2 0x81F JUMP JUMPDEST STOP JUMPDEST CALLVALUE DUP1 ISZERO PUSH2 0x186 JUMPI PUSH0 DUP1 REVERT JUMPDEST POP PUSH2 0x18F PUSH2 0xC28 JUMP JUMPDEST PUSH1 0x40 MLOAD PUSH2 0x19C SWAP2 SWAP1 PUSH2 0x2F0E JUMP JUMPDEST PUSH1 0x40 MLOAD DUP1 SWAP2 SUB SWAP1 RETURN JUMPDEST CALLVALUE DUP1 ISZERO PUSH2 0x1B0 JUMPI PUSH0 DUP1 REVERT JUMPDEST POP PUSH2 0x1CB PUSH1 0x4 DUP1 CALLDATASIZE SUB DUP2 ADD SWAP1 PUSH2 0x1C6 SWAP2 SWAP1 PUSH2 0x2F51 JUMP JUMPDEST PUSH2 0xC4D JUMP JUMPDEST PUSH1 0x40 MLOAD PUSH2 0x1D8 SWAP2 SWAP1 PUSH2 0x2F96 JUMP JUMPDEST PUSH1 0x40 MLOAD DUP1 SWAP2 SUB SWAP1 RETURN JUMPDEST CALLVALUE DUP1 ISZERO PUSH2 0x1EC JUMPI PUSH0 DUP1 REVERT JUMPDEST POP PUSH2 0x207 PUSH1 0x4 DUP1 CALLDATASIZE SUB DUP2 ADD SWAP1 PUSH2 0x202 SWAP2 SWAP1 PUSH2 0x2F51 JUMP JUMPDEST PUSH2 0xCA5 JUMP JUMPDEST STOP JUMPDEST CALLVALUE DUP1 ISZERO PUSH2 0x214 JUMPI PUSH0 DUP1 REVERT JUMPDEST POP PUSH2 0x21D PUSH2 0xEF2 JUMP JUMPDEST PUSH1 0x40 MLOAD PUSH2 0x22A SWAP2 SWAP1 PUSH2 0x3182 JUMP JUMPDEST PUSH1 0x40 MLOAD DUP1 SWAP2 SUB SWAP1 RETURN JUMPDEST CALLVALUE DUP1 ISZERO PUSH2 0x23E JUMPI PUSH0 DUP1 REVERT JUMPDEST POP PUSH2 0x259 PUSH1 0x4 DUP1 CALLDATASIZE SUB DUP2 ADD SWAP1 PUSH2 0x254 SWAP2 SWAP1 PUSH2 0x319C JUMP JUMPDEST PUSH2 0x1004 JUMP JUMPDEST PUSH1 0x40 MLOAD PUSH2 0x266 SWAP2 SWAP1 PUSH2 0x31D6 JUMP JUMPDEST PUSH1 0x40 MLOAD DUP1 SWAP2 SUB SWAP1 RETURN JUMPDEST CALLVALUE DUP1 ISZERO PUSH2 0x27A JUMPI PUSH0 DUP1 REVERT JUMPDEST POP PUSH2 0x283 PUSH2 0x1188 JUMP JUMPDEST PUSH1 0x40 MLOAD PUSH2 0x290 SWAP2 SWAP1 PUSH2 0x31D6 JUMP JUMPDEST PUSH1 0x40 MLOAD DUP1 SWAP2 SUB SWAP1 RETURN JUMPDEST CALLVALUE DUP1 ISZERO PUSH2 0x2A4 JUMPI PUSH0 DUP1 REVERT JUMPDEST POP PUSH2 0x2AD PUSH2 0x118E JUMP JUMPDEST PUSH1 0x40 MLOAD PUSH2 0x2BA SWAP2 SWAP1 PUSH2 0x2F0E JUMP JUMPDEST PUSH1 0x40 MLOAD DUP1 SWAP2 SUB SWAP1 RETURN JUMPDEST CALLVALUE DUP1 ISZERO PUSH2 0x2CE JUMPI PUSH0 DUP1 REVERT JUMPDEST POP PUSH2 0x2E9 PUSH1 0x4 DUP1 CALLDATASIZE SUB DUP2 ADD SWAP1 PUSH2 0x2E4 SWAP2 SWAP1 PUSH2 0x2F51 JUMP JUMPDEST PUSH2 0x11B3 JUMP JUMPDEST PUSH1 0x40 MLOAD PUSH2 0x2F6 SWAP2 SWAP1 PUSH2 0x3302 JUMP JUMPDEST PUSH1 0x40 MLOAD DUP1 SWAP2 SUB SWAP1 RETURN JUMPDEST CALLVALUE DUP1 ISZERO PUSH2 0x30A JUMPI PUSH0 DUP1 REVERT JUMPDEST POP PUSH2 0x313 PUSH2 0x1318 JUMP JUMPDEST PUSH1 0x40 MLOAD PUSH2 0x320 SWAP2 SWAP1 PUSH2 0x333C JUMP JUMPDEST PUSH1 0x40 MLOAD DUP1 SWAP2 SUB SWAP1 RETURN JUMPDEST CALLVALUE DUP1 ISZERO PUSH2 0x334 JUMPI PUSH0 DUP1 REVERT JUMPDEST POP PUSH2 0x33D PUSH2 0x133D JUMP JUMPDEST PUSH1 0x40 MLOAD PUSH2 0x34A SWAP2 SWAP1 PUSH2 0x3375 JUMP JUMPDEST PUSH1 0x40 MLOAD DUP1 SWAP2 SUB SWAP1 RETURN JUMPDEST PUSH2 0x36D PUSH1 0x4 DUP1 CALLDATASIZE SUB DUP2 ADD SWAP1 PUSH2 0x368 SWAP2 SWAP1 PUSH2 0x33B8 JUMP JUMPDEST PUSH2 0x1362 JUMP JUMPDEST STOP JUMPDEST PUSH1 0x2 PUSH0 SWAP1 SLOAD SWAP1 PUSH2 0x100 EXP SWAP1 DIV PUSH20 0xFFFFFFFFFFFFFFFFFFFFFFFFFFFFFFFFFFFFFFFF AND PUSH20 0xFFFFFFFFFFFFFFFFFFFFFFFFFFFFFFFFFFFFFFFF AND CALLER PUSH20 0xFFFFFFFFFFFFFFFFFFFFFFFFFFFFFFFFFFFFFFFF AND EQ PUSH2 0x423 JUMPI CALLER PUSH1 0x2 PUSH0 SWAP1 SLOAD SWAP1 PUSH2 0x100 EXP SWAP1 DIV PUSH20 0xFFFFFFFFFFFFFFFFFFFFFFFFFFFFFFFFFFFFFFFF AND PUSH1 0x40 MLOAD PUSH32 0x1CF993F400000000000000000000000000000000000000000000000000000000 DUP2 MSTORE PUSH1 0x4 ADD PUSH2 0x41A SWAP3 SWAP2 SWAP1 PUSH2 0x3455 JUMP JUMPDEST PUSH1 0x40 MLOAD DUP1 SWAP2 SUB SWAP1 REVERT JUMPDEST PUSH2 0x42D DUP3 DUP3 PUSH2 0x17CA JUMP JUMPDEST POP POP JUMP JUMPDEST PUSH1 0x6 PUSH0 SWAP1 SLOAD SWAP1 PUSH2 0x100 EXP SWAP1 DIV PUSH20 0xFFFFFFFFFFFFFFFFFFFFFFFFFFFFFFFFFFFFFFFF AND PUSH20 0xFFFFFFFFFFFFFFFFFFFFFFFFFFFFFFFFFFFFFFFF AND PUSH4 0x893D20E8 PUSH1 0x40 MLOAD DUP2 PUSH4 0xFFFFFFFF AND PUSH1 0xE0 SHL DUP2 MSTORE PUSH1 0x4 ADD PUSH1 0x20 PUSH1 0x40 MLOAD DUP1 DUP4 SUB DUP2 DUP7 GAS STATICCALL ISZERO DUP1 ISZERO PUSH2 0x49B JUMPI RETURNDATASIZE PUSH0 DUP1 RETURNDATACOPY RETURNDATASIZE PUSH0 REVERT JUMPDEST POP POP POP POP PUSH1 0x40 MLOAD RETURNDATASIZE PUSH1 0x1F NOT PUSH1 0x1F DUP3 ADD AND DUP3 ADD DUP1 PUSH1 0x40 MSTORE POP DUP2 ADD SWAP1 PUSH2 0x4BF SWAP2 SWAP1 PUSH2 0x3490 JUMP JUMPDEST PUSH20 0xFFFFFFFFFFFFFFFFFFFFFFFFFFFFFFFFFFFFFFFF AND CALLER PUSH20 0xFFFFFFFFFFFFFFFFFFFFFFFFFFFFFFFFFFFFFFFF AND EQ PUSH2 0x5BD JUMPI PUSH1 0x6 PUSH0 SWAP1 SLOAD SWAP1 PUSH2 0x100 EXP SWAP1 DIV PUSH20 0xFFFFFFFFFFFFFFFFFFFFFFFFFFFFFFFFFFFFFFFF AND PUSH20 0xFFFFFFFFFFFFFFFFFFFFFFFFFFFFFFFFFFFFFFFF AND PUSH4 0x893D20E8 PUSH1 0x40 MLOAD DUP2 PUSH4 0xFFFFFFFF AND PUSH1 0xE0 SHL DUP2 MSTORE PUSH1 0x4 ADD PUSH1 0x20 PUSH1 0x40 MLOAD DUP1 DUP4 SUB DUP2 DUP7 GAS STATICCALL ISZERO DUP1 ISZERO PUSH2 0x55B JUMPI RETURNDATASIZE PUSH0 DUP1 RETURNDATACOPY RETURNDATASIZE PUSH0 REVERT JUMPDEST POP POP POP POP PUSH1 0x40 MLOAD RETURNDATASIZE PUSH1 0x1F NOT PUSH1 0x1F DUP3 ADD AND DUP3 ADD DUP1 PUSH1 0x40 MSTORE POP DUP2 ADD SWAP1 PUSH2 0x57F SWAP2 SWAP1 PUSH2 0x3490 JUMP JUMPDEST CALLER PUSH1 0x40 MLOAD PUSH32 0x23295F0E00000000000000000000000000000000000000000000000000000000 DUP2 MSTORE PUSH1 0x4 ADD PUSH2 0x5B4 SWAP3 SWAP2 SWAP1 PUSH2 0x3455 JUMP JUMPDEST PUSH1 0x40 MLOAD DUP1 SWAP2 SUB SWAP1 REVERT JUMPDEST PUSH1 0xA PUSH0 DUP3 PUSH1 0xFF AND PUSH1 0xFF AND DUP2 MSTORE PUSH1 0x20 ADD SWAP1 DUP2 MSTORE PUSH1 0x20 ADD PUSH0 KECCAK256 PUSH0 DUP4 PUSH1 0xFF AND PUSH1 0xFF AND DUP2 MSTORE PUSH1 0x20 ADD SWAP1 DUP2 MSTORE PUSH1 0x20 ADD PUSH0 KECCAK256 PUSH0 SWAP1 SLOAD SWAP1 PUSH2 0x100 EXP SWAP1 DIV PUSH1 0xFF AND ISZERO PUSH2 0x63A JUMPI DUP2 DUP2 PUSH1 0x40 MLOAD PUSH32 0x9E278F4000000000000000000000000000000000000000000000000000000000 DUP2 MSTORE PUSH1 0x4 ADD PUSH2 0x631 SWAP3 SWAP2 SWAP1 PUSH2 0x34CA JUMP JUMPDEST PUSH1 0x40 MLOAD DUP1 SWAP2 SUB SWAP1 REVERT JUMPDEST PUSH1 0x1 DUP3 PUSH2 0x647 SWAP2 SWAP1 PUSH2 0x351E JUMP JUMPDEST PUSH1 0xFF AND DUP5 DUP5 SWAP1 POP EQ PUSH2 0x6A1 JUMPI DUP4 DUP4 SWAP1 POP PUSH1 0x1 DUP4 PUSH2 0x664 SWAP2 SWAP1 PUSH2 0x351E JUMP JUMPDEST PUSH1 0x40 MLOAD PUSH32 0x1653D4D00000000000000000000000000000000000000000000000000000000 DUP2 MSTORE PUSH1 0x4 ADD PUSH2 0x698 SWAP3 SWAP2 SWAP1 PUSH2 0x3582 JUMP JUMPDEST PUSH1 0x40 MLOAD DUP1 SWAP2 SUB SWAP1 REVERT JUMPDEST PUSH1 0x8 DUP3 PUSH1 0xFF AND LT DUP1 PUSH2 0x6B6 JUMPI POP PUSH1 0x10 DUP3 PUSH1 0xFF AND GT JUMPDEST ISZERO PUSH2 0x6ED JUMPI PUSH1 0x40 MLOAD PUSH32 0x264097E700000000000000000000000000000000000000000000000000000000 DUP2 MSTORE PUSH1 0x4 ADD PUSH1 0x40 MLOAD DUP1 SWAP2 SUB SWAP1 REVERT JUMPDEST PUSH1 0x3 DUP2 PUSH1 0xFF AND LT PUSH2 0x72A JUMPI PUSH1 0x40 MLOAD PUSH32 0x376DFD5600000000000000000000000000000000000000000000000000000000 DUP2 MSTORE PUSH1 0x4 ADD PUSH1 0x40 MLOAD DUP1 SWAP2 SUB SWAP1 REVERT JUMPDEST PUSH0 JUMPDEST DUP5 DUP5 SWAP1 POP DUP2 PUSH1 0xFF AND LT ISZERO PUSH2 0x7AF JUMPI DUP5 DUP5 DUP3 PUSH1 0xFF AND DUP2 DUP2 LT PUSH2 0x750 JUMPI PUSH2 0x74F PUSH2 0x35A9 JUMP JUMPDEST JUMPDEST SWAP1 POP PUSH1 0x20 MUL ADD CALLDATALOAD PUSH1 0x9 PUSH0 DUP5 PUSH1 0xFF AND PUSH1 0xFF AND DUP2 MSTORE PUSH1 0x20 ADD SWAP1 DUP2 MSTORE PUSH1 0x20 ADD PUSH0 KECCAK256 PUSH0 DUP6 PUSH1 0xFF AND PUSH1 0xFF AND DUP2 MSTORE PUSH1 0x20 ADD SWAP1 DUP2 MSTORE PUSH1 0x20 ADD PUSH0 KECCAK256 PUSH0 DUP4 PUSH1 0xFF AND PUSH1 0xFF AND DUP2 MSTORE PUSH1 0x20 ADD SWAP1 DUP2 MSTORE PUSH1 0x20 ADD PUSH0 KECCAK256 DUP2 SWAP1 SSTORE POP DUP1 DUP1 PUSH2 0x7A7 SWAP1 PUSH2 0x35D6 JUMP JUMPDEST SWAP2 POP POP PUSH2 0x72C JUMP JUMPDEST POP PUSH1 0x1 PUSH1 0xA PUSH0 DUP4 PUSH1 0xFF AND PUSH1 0xFF AND DUP2 MSTORE PUSH1 0x20 ADD SWAP1 DUP2 MSTORE PUSH1 0x20 ADD PUSH0 KECCAK256 PUSH0 DUP5 PUSH1 0xFF AND PUSH1 0xFF AND DUP2 MSTORE PUSH1 0x20 ADD SWAP1 DUP2 MSTORE PUSH1 0x20 ADD PUSH0 KECCAK256 PUSH0 PUSH2 0x100 EXP DUP2 SLOAD DUP2 PUSH1 0xFF MUL NOT AND SWAP1 DUP4 ISZERO ISZERO MUL OR SWAP1 SSTORE POP POP POP POP POP JUMP JUMPDEST PUSH1 0x5 PUSH0 SWAP1 SLOAD SWAP1 PUSH2 0x100 EXP SWAP1 DIV PUSH20 0xFFFFFFFFFFFFFFFFFFFFFFFFFFFFFFFFFFFFFFFF AND DUP2 JUMP JUMPDEST PUSH2 0x827 PUSH2 0x1D4E JUMP JUMPDEST PUSH0 PUSH2 0x830 PUSH2 0x1D9B JUMP JUMPDEST SWAP1 POP PUSH0 PUSH1 0x7 PUSH0 DUP4 PUSH20 0xFFFFFFFFFFFFFFFFFFFFFFFFFFFFFFFFFFFFFFFF AND PUSH20 0xFFFFFFFFFFFFFFFFFFFFFFFFFFFFFFFFFFFFFFFF AND DUP2 MSTORE PUSH1 0x20 ADD SWAP1 DUP2 MSTORE PUSH1 0x20 ADD PUSH0 KECCAK256 SWAP1 POP PUSH0 DUP2 PUSH1 0x3 ADD SLOAD SUB PUSH2 0x8AF JUMPI PUSH1 0x40 MLOAD PUSH32 0x49050B3000000000000000000000000000000000000000000000000000000000 DUP2 MSTORE PUSH1 0x4 ADD PUSH1 0x40 MLOAD DUP1 SWAP2 SUB SWAP1 REVERT JUMPDEST NUMBER PUSH1 0xA PUSH2 0x3E8 DUP4 PUSH1 0x4 ADD PUSH1 0x14 SWAP1 SLOAD SWAP1 PUSH2 0x100 EXP SWAP1 DIV PUSH8 0xFFFFFFFFFFFFFFFF AND PUSH2 0x8D8 SWAP2 SWAP1 PUSH2 0x35FE JUMP JUMPDEST PUSH2 0x8E2 SWAP2 SWAP1 PUSH2 0x35FE JUMP JUMPDEST PUSH8 0xFFFFFFFFFFFFFFFF AND GT ISZERO PUSH2 0x962 JUMPI NUMBER PUSH1 0xA PUSH2 0x3E8 DUP4 PUSH1 0x4 ADD PUSH1 0x14 SWAP1 SLOAD SWAP1 PUSH2 0x100 EXP SWAP1 DIV PUSH8 0xFFFFFFFFFFFFFFFF AND PUSH2 0x91B SWAP2 SWAP1 PUSH2 0x35FE JUMP JUMPDEST PUSH2 0x925 SWAP2 SWAP1 PUSH2 0x35FE JUMP JUMPDEST PUSH1 0x40 MLOAD PUSH32 0xB4AE675A00000000000000000000000000000000000000000000000000000000 DUP2 MSTORE PUSH1 0x4 ADD PUSH2 0x959 SWAP3 SWAP2 SWAP1 PUSH2 0x3669 JUMP JUMPDEST PUSH1 0x40 MLOAD DUP1 SWAP2 SUB SWAP1 REVERT JUMPDEST PUSH0 DUP2 PUSH1 0x4 ADD PUSH1 0x1C SWAP1 SLOAD SWAP1 PUSH2 0x100 EXP SWAP1 DIV PUSH4 0xFFFFFFFF AND PUSH4 0xFFFFFFFF AND DUP3 PUSH0 ADD SLOAD PUSH2 0x98C SWAP2 SWAP1 PUSH2 0x3690 JUMP JUMPDEST SWAP1 POP PUSH0 DUP3 PUSH1 0x4 ADD PUSH0 SWAP1 SLOAD SWAP1 PUSH2 0x100 EXP SWAP1 DIV PUSH20 0xFFFFFFFFFFFFFFFFFFFFFFFFFFFFFFFFFFFFFFFF AND SWAP1 POP PUSH1 0x8 PUSH0 DUP5 PUSH1 0x3 ADD SLOAD DUP2 MSTORE PUSH1 0x20 ADD SWAP1 DUP2 MSTORE PUSH1 0x20 ADD PUSH0 KECCAK256 PUSH0 PUSH2 0x100 EXP DUP2 SLOAD SWAP1 PUSH20 0xFFFFFFFFFFFFFFFFFFFFFFFFFFFFFFFFFFFFFFFF MUL NOT AND SWAP1 SSTORE PUSH1 0x7 PUSH0 DUP6 PUSH20 0xFFFFFFFFFFFFFFFFFFFFFFFFFFFFFFFFFFFFFFFF AND PUSH20 0xFFFFFFFFFFFFFFFFFFFFFFFFFFFFFFFFFFFFFFFF AND DUP2 MSTORE PUSH1 0x20 ADD SWAP1 DUP2 MSTORE PUSH1 0x20 ADD PUSH0 KECCAK256 PUSH0 DUP1 DUP3 ADD PUSH0 SWAP1 SSTORE PUSH1 0x1 DUP3 ADD PUSH0 SWAP1 SSTORE PUSH1 0x2 DUP3 ADD PUSH0 SWAP1 SSTORE PUSH1 0x3 DUP3 ADD PUSH0 SWAP1 SSTORE PUSH1 0x4 DUP3 ADD PUSH0 PUSH2 0x100 EXP DUP2 SLOAD SWAP1 PUSH20 0xFFFFFFFFFFFFFFFFFFFFFFFFFFFFFFFFFFFFFFFF MUL NOT AND SWAP1 SSTORE PUSH1 0x4 DUP3 ADD PUSH1 0x14 PUSH2 0x100 EXP DUP2 SLOAD SWAP1 PUSH8 0xFFFFFFFFFFFFFFFF MUL NOT AND SWAP1 SSTORE PUSH1 0x4 DUP3 ADD PUSH1 0x1C PUSH2 0x100 EXP DUP2 SLOAD SWAP1 PUSH4 0xFFFFFFFF MUL NOT AND SWAP1 SSTORE PUSH1 0x5 DUP3 ADD PUSH0 PUSH2 0x100 EXP DUP2 SLOAD SWAP1 PUSH1 0xFF MUL NOT AND SWAP1 SSTORE PUSH1 0x5 DUP3 ADD PUSH1 0x1 PUSH2 0x100 EXP DUP2 SLOAD SWAP1 PUSH1 0xFF MUL NOT AND SWAP1 SSTORE POP POP PUSH0 PUSH20 0xFFFFFFFFFFFFFFFFFFFFFFFFFFFFFFFFFFFFFFFF AND DUP2 PUSH20 0xFFFFFFFFFFFFFFFFFFFFFFFFFFFFFFFFFFFFFFFF AND SUB PUSH2 0xB9E JUMPI PUSH0 DUP5 PUSH20 0xFFFFFFFFFFFFFFFFFFFFFFFFFFFFFFFFFFFFFFFF AND DUP4 PUSH1 0x40 MLOAD PUSH2 0xB1E SWAP1 PUSH2 0x36FE JUMP JUMPDEST PUSH0 PUSH1 0x40 MLOAD DUP1 DUP4 SUB DUP2 DUP6 DUP8 GAS CALL SWAP3 POP POP POP RETURNDATASIZE DUP1 PUSH0 DUP2 EQ PUSH2 0xB58 JUMPI PUSH1 0x40 MLOAD SWAP2 POP PUSH1 0x1F NOT PUSH1 0x3F RETURNDATASIZE ADD AND DUP3 ADD PUSH1 0x40 MSTORE RETURNDATASIZE DUP3 MSTORE RETURNDATASIZE PUSH0 PUSH1 0x20 DUP5 ADD RETURNDATACOPY PUSH2 0xB5D JUMP JUMPDEST PUSH1 0x60 SWAP2 POP JUMPDEST POP POP SWAP1 POP DUP1 PUSH2 0xB98 JUMPI PUSH1 0x40 MLOAD PUSH32 0x90B8EC1800000000000000000000000000000000000000000000000000000000 DUP2 MSTORE PUSH1 0x4 ADD PUSH1 0x40 MLOAD DUP1 SWAP2 SUB SWAP1 REVERT JUMPDEST POP PUSH2 0xBCA JUMP JUMPDEST PUSH2 0xBC9 DUP5 DUP4 DUP4 PUSH20 0xFFFFFFFFFFFFFFFFFFFFFFFFFFFFFFFFFFFFFFFF AND PUSH2 0x1DD0 SWAP1 SWAP3 SWAP2 SWAP1 PUSH4 0xFFFFFFFF AND JUMP JUMPDEST JUMPDEST DUP4 PUSH20 0xFFFFFFFFFFFFFFFFFFFFFFFFFFFFFFFFFFFFFFFF AND PUSH32 0x4F8E8CEE8236BA6BFAFB6EE32536C2B0B60E058FA752308D558D7B8FA146DCA5 DUP4 DUP4 PUSH1 0x40 MLOAD PUSH2 0xC12 SWAP3 SWAP2 SWAP1 PUSH2 0x3712 JUMP JUMPDEST PUSH1 0x40 MLOAD DUP1 SWAP2 SUB SWAP1 LOG2 POP POP POP POP PUSH2 0xC26 PUSH2 0x1E4F JUMP JUMPDEST JUMP JUMPDEST PUSH1 0x3 PUSH0 SWAP1 SLOAD SWAP1 PUSH2 0x100 EXP SWAP1 DIV PUSH20 0xFFFFFFFFFFFFFFFFFFFFFFFFFFFFFFFFFFFFFFFF AND DUP2 JUMP JUMPDEST PUSH0 PUSH1 0x3 PUSH0 SWAP1 SLOAD SWAP1 PUSH2 0x100 EXP SWAP1 DIV PUSH20 0xFFFFFFFFFFFFFFFFFFFFFFFFFFFFFFFFFFFFFFFF AND PUSH20 0xFFFFFFFFFFFFFFFFFFFFFFFFFFFFFFFFFFFFFFFF AND DUP3 PUSH20 0xFFFFFFFFFFFFFFFFFFFFFFFFFFFFFFFFFFFFFFFF AND EQ SWAP1 POP SWAP2 SWAP1 POP JUMP JUMPDEST PUSH2 0xCAD PUSH2 0x1D4E JUMP JUMPDEST PUSH1 0x6 PUSH0 SWAP1 SLOAD SWAP1 PUSH2 0x100 EXP SWAP1 DIV PUSH20 0xFFFFFFFFFFFFFFFFFFFFFFFFFFFFFFFFFFFFFFFF AND PUSH20 0xFFFFFFFFFFFFFFFFFFFFFFFFFFFFFFFFFFFFFFFF AND PUSH4 0x893D20E8 PUSH1 0x40 MLOAD DUP2 PUSH4 0xFFFFFFFF AND PUSH1 0xE0 SHL DUP2 MSTORE PUSH1 0x4 ADD PUSH1 0x20 PUSH1 0x40 MLOAD DUP1 DUP4 SUB DUP2 DUP7 GAS STATICCALL ISZERO DUP1 ISZERO PUSH2 0xD17 JUMPI RETURNDATASIZE PUSH0 DUP1 RETURNDATACOPY RETURNDATASIZE PUSH0 REVERT JUMPDEST POP POP POP POP PUSH1 0x40 MLOAD RETURNDATASIZE PUSH1 0x1F NOT PUSH1 0x1F DUP3 ADD AND DUP3 ADD DUP1 PUSH1 0x40 MSTORE POP DUP2 ADD SWAP1 PUSH2 0xD3B SWAP2 SWAP1 PUSH2 0x3490 JUMP JUMPDEST PUSH20 0xFFFFFFFFFFFFFFFFFFFFFFFFFFFFFFFFFFFFFFFF AND CALLER PUSH20 0xFFFFFFFFFFFFFFFFFFFFFFFFFFFFFFFFFFFFFFFF AND EQ PUSH2 0xE39 JUMPI PUSH1 0x6 PUSH0 SWAP1 SLOAD SWAP1 PUSH2 0x100 EXP SWAP1 DIV PUSH20 0xFFFFFFFFFFFFFFFFFFFFFFFFFFFFFFFFFFFFFFFF AND PUSH20 0xFFFFFFFFFFFFFFFFFFFFFFFFFFFFFFFFFFFFFFFF AND PUSH4 0x893D20E8 PUSH1 0x40 MLOAD DUP2 PUSH4 0xFFFFFFFF AND PUSH1 0xE0 SHL DUP2 MSTORE PUSH1 0x4 ADD PUSH1 0x20 PUSH1 0x40 MLOAD DUP1 DUP4 SUB DUP2 DUP7 GAS STATICCALL ISZERO DUP1 ISZERO PUSH2 0xDD7 JUMPI RETURNDATASIZE PUSH0 DUP1 RETURNDATACOPY RETURNDATASIZE PUSH0 REVERT JUMPDEST POP POP POP POP PUSH1 0x40 MLOAD RETURNDATASIZE PUSH1 0x1F NOT PUSH1 0x1F DUP3 ADD AND DUP3 ADD DUP1 PUSH1 0x40 MSTORE POP DUP2 ADD SWAP1 PUSH2 0xDFB SWAP2 SWAP1 PUSH2 0x3490 JUMP JUMPDEST CALLER PUSH1 0x40 MLOAD PUSH32 0x23295F0E00000000000000000000000000000000000000000000000000000000 DUP2 MSTORE PUSH1 0x4 ADD PUSH2 0xE30 SWAP3 SWAP2 SWAP1 PUSH2 0x3455 JUMP JUMPDEST PUSH1 0x40 MLOAD DUP1 SWAP2 SUB SWAP1 REVERT JUMPDEST PUSH0 PUSH1 0x1 SLOAD SWAP1 POP PUSH0 PUSH1 0x1 DUP2 SWAP1 SSTORE POP PUSH0 DUP3 PUSH20 0xFFFFFFFFFFFFFFFFFFFFFFFFFFFFFFFFFFFFFFFF AND DUP3 PUSH1 0x40 MLOAD PUSH2 0xE6B SWAP1 PUSH2 0x36FE JUMP JUMPDEST PUSH0 PUSH1 0x40 MLOAD DUP1 DUP4 SUB DUP2 DUP6 DUP8 GAS CALL SWAP3 POP POP POP RETURNDATASIZE DUP1 PUSH0 DUP2 EQ PUSH2 0xEA5 JUMPI PUSH1 0x40 MLOAD SWAP2 POP PUSH1 0x1F NOT PUSH1 0x3F RETURNDATASIZE ADD AND DUP3 ADD PUSH1 0x40 MSTORE RETURNDATASIZE DUP3 MSTORE RETURNDATASIZE PUSH0 PUSH1 0x20 DUP5 ADD RETURNDATACOPY PUSH2 0xEAA JUMP JUMPDEST PUSH1 0x60 SWAP2 POP JUMPDEST POP POP SWAP1 POP DUP1 PUSH2 0xEE5 JUMPI PUSH1 0x40 MLOAD PUSH32 0x90B8EC1800000000000000000000000000000000000000000000000000000000 DUP2 MSTORE PUSH1 0x4 ADD PUSH1 0x40 MLOAD DUP1 SWAP2 SUB SWAP1 REVERT JUMPDEST POP POP PUSH2 0xEEF PUSH2 0x1E4F JUMP JUMPDEST POP JUMP JUMPDEST PUSH2 0xEFA PUSH2 0x2A80 JUMP JUMPDEST PUSH0 JUMPDEST PUSH1 0x3 DUP2 PUSH1 0xFF AND LT ISZERO PUSH2 0x1000 JUMPI PUSH0 JUMPDEST PUSH1 0x9 DUP2 PUSH1 0xFF AND LT ISZERO PUSH2 0xFEC JUMPI PUSH0 JUMPDEST PUSH1 0x11 DUP2 PUSH1 0xFF AND LT ISZERO PUSH2 0xFD8 JUMPI PUSH1 0x9 PUSH0 DUP5 PUSH1 0xFF AND PUSH1 0xFF AND DUP2 MSTORE PUSH1 0x20 ADD SWAP1 DUP2 MSTORE PUSH1 0x20 ADD PUSH0 KECCAK256 PUSH0 PUSH1 0x8 DUP5 PUSH2 0xF49 SWAP2 SWAP1 PUSH2 0x351E JUMP JUMPDEST PUSH1 0xFF AND PUSH1 0xFF AND DUP2 MSTORE PUSH1 0x20 ADD SWAP1 DUP2 MSTORE PUSH1 0x20 ADD PUSH0 KECCAK256 PUSH0 DUP3 PUSH1 0xFF AND PUSH1 0xFF AND DUP2 MSTORE PUSH1 0x20 ADD SWAP1 DUP2 MSTORE PUSH1 0x20 ADD PUSH0 KECCAK256 SLOAD DUP5 DUP5 PUSH1 0xFF AND PUSH1 0x3 DUP2 LT PUSH2 0xF88 JUMPI PUSH2 0xF87 PUSH2 0x35A9 JUMP JUMPDEST JUMPDEST PUSH1 0x20 MUL ADD MLOAD DUP4 PUSH1 0xFF AND PUSH1 0x9 DUP2 LT PUSH2 0xFA2 JUMPI PUSH2 0xFA1 PUSH2 0x35A9 JUMP JUMPDEST JUMPDEST PUSH1 0x20 MUL ADD MLOAD DUP3 PUSH1 0xFF AND PUSH1 0x11 DUP2 LT PUSH2 0xFBC JUMPI PUSH2 0xFBB PUSH2 0x35A9 JUMP JUMPDEST JUMPDEST PUSH1 0x20 MUL ADD DUP2 DUP2 MSTORE POP POP DUP1 DUP1 PUSH2 0xFD0 SWAP1 PUSH2 0x35D6 JUMP JUMPDEST SWAP2 POP POP PUSH2 0xF18 JUMP JUMPDEST POP DUP1 DUP1 PUSH2 0xFE4 SWAP1 PUSH2 0x35D6 JUMP JUMPDEST SWAP2 POP POP PUSH2 0xF0A JUMP JUMPDEST POP DUP1 DUP1 PUSH2 0xFF8 SWAP1 PUSH2 0x35D6 JUMP JUMPDEST SWAP2 POP POP PUSH2 0xEFC JUMP JUMPDEST POP SWAP1 JUMP JUMPDEST PUSH0 DUP1 PUSH1 0x4 PUSH0 SWAP1 SLOAD SWAP1 PUSH2 0x100 EXP SWAP1 DIV PUSH20 0xFFFFFFFFFFFFFFFFFFFFFFFFFFFFFFFFFFFFFFFF AND PUSH20 0xFFFFFFFFFFFFFFFFFFFFFFFFFFFFFFFFFFFFFFFF AND PUSH4 0xFEAF968C PUSH1 0x40 MLOAD DUP2 PUSH4 0xFFFFFFFF AND PUSH1 0xE0 SHL DUP2 MSTORE PUSH1 0x4 ADD PUSH1 0xA0 PUSH1 0x40 MLOAD DUP1 DUP4 SUB DUP2 DUP7 GAS STATICCALL ISZERO DUP1 ISZERO PUSH2 0x1070 JUMPI RETURNDATASIZE PUSH0 DUP1 RETURNDATACOPY RETURNDATASIZE PUSH0 REVERT JUMPDEST POP POP POP POP PUSH1 0x40 MLOAD RETURNDATASIZE PUSH1 0x1F NOT PUSH1 0x1F DUP3 ADD AND DUP3 ADD DUP1 PUSH1 0x40 MSTORE POP DUP2 ADD SWAP1 PUSH2 0x1094 SWAP2 SWAP1 PUSH2 0x37BF JUMP JUMPDEST POP POP POP SWAP2 POP POP PUSH0 PUSH1 0x5 PUSH0 SWAP1 SLOAD SWAP1 PUSH2 0x100 EXP SWAP1 DIV PUSH20 0xFFFFFFFFFFFFFFFFFFFFFFFFFFFFFFFFFFFFFFFF AND PUSH20 0xFFFFFFFFFFFFFFFFFFFFFFFFFFFFFFFFFFFFFFFF AND PUSH4 0x5FBBC0D2 PUSH1 0x40 MLOAD DUP2 PUSH4 0xFFFFFFFF AND PUSH1 0xE0 SHL DUP2 MSTORE PUSH1 0x4 ADD PUSH2 0x120 PUSH1 0x40 MLOAD DUP1 DUP4 SUB DUP2 DUP7 GAS STATICCALL ISZERO DUP1 ISZERO PUSH2 0x1106 JUMPI RETURNDATASIZE PUSH0 DUP1 RETURNDATACOPY RETURNDATASIZE PUSH0 REVERT JUMPDEST POP POP POP POP PUSH1 0x40 MLOAD RETURNDATASIZE PUSH1 0x1F NOT PUSH1 0x1F DUP3 ADD AND DUP3 ADD DUP1 PUSH1 0x40 MSTORE POP DUP2 ADD SWAP1 PUSH2 0x112A SWAP2 SWAP1 PUSH2 0x3882 JUMP JUMPDEST POP POP POP POP POP POP POP POP SWAP1 POP PUSH8 0xDE0B6B3A7640000 DUP3 DUP3 PUSH4 0xFFFFFFFF AND PUSH5 0xE8D4A51000 PUSH2 0x1155 SWAP2 SWAP1 PUSH2 0x3690 JUMP JUMPDEST PUSH2 0x115F SWAP2 SWAP1 PUSH2 0x3690 JUMP JUMPDEST PUSH2 0x1169 SWAP2 SWAP1 PUSH2 0x3973 JUMP JUMPDEST DUP5 GASPRICE PUSH2 0x1175 SWAP2 SWAP1 PUSH2 0x3690 JUMP JUMPDEST PUSH2 0x117F SWAP2 SWAP1 PUSH2 0x39A3 JUMP JUMPDEST SWAP3 POP POP POP SWAP2 SWAP1 POP JUMP JUMPDEST PUSH1 0x1 SLOAD DUP2 JUMP JUMPDEST PUSH1 0x2 PUSH0 SWAP1 SLOAD SWAP1 PUSH2 0x100 EXP SWAP1 DIV PUSH20 0xFFFFFFFFFFFFFFFFFFFFFFFFFFFFFFFFFFFFFFFF AND DUP2 JUMP JUMPDEST PUSH2 0x11BB PUSH2 0x2AAD JUMP JUMPDEST PUSH1 0x7 PUSH0 DUP4 PUSH20 0xFFFFFFFFFFFFFFFFFFFFFFFFFFFFFFFFFFFFFFFF AND PUSH20 0xFFFFFFFFFFFFFFFFFFFFFFFFFFFFFFFFFFFFFFFF AND DUP2 MSTORE PUSH1 0x20 ADD SWAP1 DUP2 MSTORE PUSH1 0x20 ADD PUSH0 KECCAK256 PUSH1 0x40 MLOAD DUP1 PUSH2 0x120 ADD PUSH1 0x40 MSTORE SWAP1 DUP2 PUSH0 DUP3 ADD SLOAD DUP2 MSTORE PUSH1 0x20 ADD PUSH1 0x1 DUP3 ADD SLOAD DUP2 MSTORE PUSH1 0x20 ADD PUSH1 0x2 DUP3 ADD SLOAD DUP2 MSTORE PUSH1 0x20 ADD PUSH1 0x3 DUP3 ADD SLOAD DUP2 MSTORE PUSH1 0x20 ADD PUSH1 0x4 DUP3 ADD PUSH0 SWAP1 SLOAD SWAP1 PUSH2 0x100 EXP SWAP1 DIV PUSH20 0xFFFFFFFFFFFFFFFFFFFFFFFFFFFFFFFFFFFFFFFF AND PUSH20 0xFFFFFFFFFFFFFFFFFFFFFFFFFFFFFFFFFFFFFFFF AND PUSH20 0xFFFFFFFFFFFFFFFFFFFFFFFFFFFFFFFFFFFFFFFF AND DUP2 MSTORE PUSH1 0x20 ADD PUSH1 0x4 DUP3 ADD PUSH1 0x14 SWAP1 SLOAD SWAP1 PUSH2 0x100 EXP SWAP1 DIV PUSH8 0xFFFFFFFFFFFFFFFF AND PUSH8 0xFFFFFFFFFFFFFFFF AND PUSH8 0xFFFFFFFFFFFFFFFF AND DUP2 MSTORE PUSH1 0x20 ADD PUSH1 0x4 DUP3 ADD PUSH1 0x1C SWAP1 SLOAD SWAP1 PUSH2 0x100 EXP SWAP1 DIV PUSH4 0xFFFFFFFF AND PUSH4 0xFFFFFFFF AND PUSH4 0xFFFFFFFF AND DUP2 MSTORE PUSH1 0x20 ADD PUSH1 0x5 DUP3 ADD PUSH0 SWAP1 SLOAD SWAP1 PUSH2 0x100 EXP SWAP1 DIV PUSH1 0xFF AND PUSH1 0xFF AND PUSH1 0xFF AND DUP2 MSTORE PUSH1 0x20 ADD PUSH1 0x5 DUP3 ADD PUSH1 0x1 SWAP1 SLOAD SWAP1 PUSH2 0x100 EXP SWAP1 DIV PUSH1 0xFF AND PUSH1 0xFF AND PUSH1 0xFF AND DUP2 MSTORE POP POP SWAP1 POP SWAP2 SWAP1 POP JUMP JUMPDEST PUSH1 0x4 PUSH0 SWAP1 SLOAD SWAP1 PUSH2 0x100 EXP SWAP1 DIV PUSH20 0xFFFFFFFFFFFFFFFFFFFFFFFFFFFFFFFFFFFFFFFF AND DUP2 JUMP JUMPDEST PUSH1 0x6 PUSH0 SWAP1 SLOAD SWAP1 PUSH2 0x100 EXP SWAP1 DIV PUSH20 0xFFFFFFFFFFFFFFFFFFFFFFFFFFFFFFFFFFFFFFFF AND DUP2 JUMP JUMPDEST PUSH2 0x136A PUSH2 0x1D4E JUMP JUMPDEST PUSH0 PUSH2 0x1373 PUSH2 0x1D9B JUMP JUMPDEST SWAP1 POP PUSH1 0x8 DUP7 PUSH1 0xFF AND LT DUP1 PUSH2 0x138A JUMPI POP PUSH1 0x10 DUP7 PUSH1 0xFF AND GT JUMPDEST ISZERO PUSH2 0x13C1 JUMPI PUSH1 0x40 MLOAD PUSH32 0x264097E700000000000000000000000000000000000000000000000000000000 DUP2 MSTORE PUSH1 0x4 ADD PUSH1 0x40 MLOAD DUP1 SWAP2 SUB SWAP1 REVERT JUMPDEST PUSH1 0x3 DUP6 PUSH1 0xFF AND LT PUSH2 0x13FE JUMPI PUSH1 0x40 MLOAD PUSH32 0x376DFD5600000000000000000000000000000000000000000000000000000000 DUP2 MSTORE PUSH1 0x4 ADD PUSH1 0x40 MLOAD DUP1 SWAP2 SUB SWAP1 REVERT JUMPDEST PUSH0 PUSH1 0x7 PUSH0 DUP4 PUSH20 0xFFFFFFFFFFFFFFFFFFFFFFFFFFFFFFFFFFFFFFFF AND PUSH20 0xFFFFFFFFFFFFFFFFFFFFFFFFFFFFFFFFFFFFFFFF AND DUP2 MSTORE PUSH1 0x20 ADD SWAP1 DUP2 MSTORE PUSH1 0x20 ADD PUSH0 KECCAK256 PUSH1 0x3 ADD SLOAD EQ PUSH2 0x14C2 JUMPI PUSH1 0x7 PUSH0 DUP3 PUSH20 0xFFFFFFFFFFFFFFFFFFFFFFFFFFFFFFFFFFFFFFFF AND PUSH20 0xFFFFFFFFFFFFFFFFFFFFFFFFFFFFFFFFFFFFFFFF AND DUP2 MSTORE PUSH1 0x20 ADD SWAP1 DUP2 MSTORE PUSH1 0x20 ADD PUSH0 KECCAK256 PUSH1 0x3 ADD SLOAD PUSH1 0x40 MLOAD PUSH32 0x440DB96E00000000000000000000000000000000000000000000000000000000 DUP2 MSTORE PUSH1 0x4 ADD PUSH2 0x14B9 SWAP2 SWAP1 PUSH2 0x31D6 JUMP JUMPDEST PUSH1 0x40 MLOAD DUP1 SWAP2 SUB SWAP1 REVERT JUMPDEST PUSH0 DUP5 PUSH4 0xFFFFFFFF AND GT DUP1 ISZERO PUSH2 0x14DE JUMPI POP PUSH1 0x64 DUP5 PUSH4 0xFFFFFFFF AND GT ISZERO JUMPDEST PUSH2 0x1520 JUMPI PUSH1 0x64 PUSH1 0x40 MLOAD PUSH32 0x9310749100000000000000000000000000000000000000000000000000000000 DUP2 MSTORE PUSH1 0x4 ADD PUSH2 0x1517 SWAP2 SWAP1 PUSH2 0x3A0F JUMP JUMPDEST PUSH1 0x40 MLOAD DUP1 SWAP2 SUB SWAP1 REVERT JUMPDEST PUSH2 0x152C DUP9 DUP9 DUP9 DUP9 PUSH2 0x1E58 JUMP JUMPDEST PUSH0 PUSH2 0x154D DUP9 DUP7 PUSH4 0xFFFFFFFF AND DUP12 PUSH2 0x1543 SWAP2 SWAP1 PUSH2 0x3690 JUMP JUMPDEST PUSH3 0x1E8480 DUP6 PUSH2 0x2012 JUMP JUMPDEST SWAP1 POP PUSH0 PUSH2 0x1559 DUP7 PUSH2 0x2368 JUMP JUMPDEST SWAP1 POP PUSH1 0x40 MLOAD DUP1 PUSH2 0x120 ADD PUSH1 0x40 MSTORE DUP1 DUP12 DUP2 MSTORE PUSH1 0x20 ADD DUP7 DUP2 MSTORE PUSH1 0x20 ADD DUP6 DUP2 MSTORE PUSH1 0x20 ADD DUP3 DUP2 MSTORE PUSH1 0x20 ADD DUP11 PUSH20 0xFFFFFFFFFFFFFFFFFFFFFFFFFFFFFFFFFFFFFFFF AND DUP2 MSTORE PUSH1 0x20 ADD NUMBER PUSH8 0xFFFFFFFFFFFFFFFF AND DUP2 MSTORE PUSH1 0x20 ADD DUP8 PUSH4 0xFFFFFFFF AND DUP2 MSTORE PUSH1 0x20 ADD DUP9 PUSH1 0xFF AND DUP2 MSTORE PUSH1 0x20 ADD DUP10 PUSH1 0xFF AND DUP2 MSTORE POP PUSH1 0x7 PUSH0 DUP6 PUSH20 0xFFFFFFFFFFFFFFFFFFFFFFFFFFFFFFFFFFFFFFFF AND PUSH20 0xFFFFFFFFFFFFFFFFFFFFFFFFFFFFFFFFFFFFFFFF AND DUP2 MSTORE PUSH1 0x20 ADD SWAP1 DUP2 MSTORE PUSH1 0x20 ADD PUSH0 KECCAK256 PUSH0 DUP3 ADD MLOAD DUP2 PUSH0 ADD SSTORE PUSH1 0x20 DUP3 ADD MLOAD DUP2 PUSH1 0x1 ADD SSTORE PUSH1 0x40 DUP3 ADD MLOAD DUP2 PUSH1 0x2 ADD SSTORE PUSH1 0x60 DUP3 ADD MLOAD DUP2 PUSH1 0x3 ADD SSTORE PUSH1 0x80 DUP3 ADD MLOAD DUP2 PUSH1 0x4 ADD PUSH0 PUSH2 0x100 EXP DUP2 SLOAD DUP2 PUSH20 0xFFFFFFFFFFFFFFFFFFFFFFFFFFFFFFFFFFFFFFFF MUL NOT AND SWAP1 DUP4 PUSH20 0xFFFFFFFFFFFFFFFFFFFFFFFFFFFFFFFFFFFFFFFF AND MUL OR SWAP1 SSTORE POP PUSH1 0xA0 DUP3 ADD MLOAD DUP2 PUSH1 0x4 ADD PUSH1 0x14 PUSH2 0x100 EXP DUP2 SLOAD DUP2 PUSH8 0xFFFFFFFFFFFFFFFF MUL NOT AND SWAP1 DUP4 PUSH8 0xFFFFFFFFFFFFFFFF AND MUL OR SWAP1 SSTORE POP PUSH1 0xC0 DUP3 ADD MLOAD DUP2 PUSH1 0x4 ADD PUSH1 0x1C PUSH2 0x100 EXP DUP2 SLOAD DUP2 PUSH4 0xFFFFFFFF MUL NOT AND SWAP1 DUP4 PUSH4 0xFFFFFFFF AND MUL OR SWAP1 SSTORE POP PUSH1 0xE0 DUP3 ADD MLOAD DUP2 PUSH1 0x5 ADD PUSH0 PUSH2 0x100 EXP DUP2 SLOAD DUP2 PUSH1 0xFF MUL NOT AND SWAP1 DUP4 PUSH1 0xFF AND MUL OR SWAP1 SSTORE POP PUSH2 0x100 DUP3 ADD MLOAD DUP2 PUSH1 0x5 ADD PUSH1 0x1 PUSH2 0x100 EXP DUP2 SLOAD DUP2 PUSH1 0xFF MUL NOT AND SWAP1 DUP4 PUSH1 0xFF AND MUL OR SWAP1 SSTORE POP SWAP1 POP POP DUP3 PUSH1 0x8 PUSH0 DUP4 DUP2 MSTORE PUSH1 0x20 ADD SWAP1 DUP2 MSTORE PUSH1 0x20 ADD PUSH0 KECCAK256 PUSH0 PUSH2 0x100 EXP DUP2 SLOAD DUP2 PUSH20 0xFFFFFFFFFFFFFFFFFFFFFFFFFFFFFFFFFFFFFFFF MUL NOT AND SWAP1 DUP4 PUSH20 0xFFFFFFFFFFFFFFFFFFFFFFFFFFFFFFFFFFFFFFFF AND MUL OR SWAP1 SSTORE POP DUP3 PUSH20 0xFFFFFFFFFFFFFFFFFFFFFFFFFFFFFFFFFFFFFFFF AND PUSH32 0xA609597D378F54CCC88B6D97954F5DC34C0DE8ADEB6C382516A6F8CC1CD24C6B DUP12 DUP12 DUP12 DUP12 DUP12 DUP12 DUP12 DUP11 PUSH1 0x40 MLOAD PUSH2 0x17AE SWAP9 SWAP8 SWAP7 SWAP6 SWAP5 SWAP4 SWAP3 SWAP2 SWAP1 PUSH2 0x3A37 JUMP JUMPDEST PUSH1 0x40 MLOAD DUP1 SWAP2 SUB SWAP1 LOG2 POP POP POP PUSH2 0x17C1 PUSH2 0x1E4F JUMP JUMPDEST POP POP POP POP POP POP POP JUMP JUMPDEST PUSH0 PUSH1 0x8 PUSH0 DUP5 DUP2 MSTORE PUSH1 0x20 ADD SWAP1 DUP2 MSTORE PUSH1 0x20 ADD PUSH0 KECCAK256 PUSH0 SWAP1 SLOAD SWAP1 PUSH2 0x100 EXP SWAP1 DIV PUSH20 0xFFFFFFFFFFFFFFFFFFFFFFFFFFFFFFFFFFFFFFFF AND SWAP1 POP PUSH0 PUSH20 0xFFFFFFFFFFFFFFFFFFFFFFFFFFFFFFFFFFFFFFFF AND DUP2 PUSH20 0xFFFFFFFFFFFFFFFFFFFFFFFFFFFFFFFFFFFFFFFF AND SUB PUSH2 0x1835 JUMPI PUSH0 DUP1 REVERT JUMPDEST PUSH0 PUSH1 0x7 PUSH0 DUP4 PUSH20 0xFFFFFFFFFFFFFFFFFFFFFFFFFFFFFFFFFFFFFFFF AND PUSH20 0xFFFFFFFFFFFFFFFFFFFFFFFFFFFFFFFFFFFFFFFF AND DUP2 MSTORE PUSH1 0x20 ADD SWAP1 DUP2 MSTORE PUSH1 0x20 ADD PUSH0 KECCAK256 SWAP1 POP PUSH2 0x3E8 DUP2 PUSH1 0x4 ADD PUSH1 0x14 SWAP1 SLOAD SWAP1 PUSH2 0x100 EXP SWAP1 DIV PUSH8 0xFFFFFFFFFFFFFFFF AND PUSH2 0x189B SWAP2 SWAP1 PUSH2 0x35FE JUMP JUMPDEST PUSH8 0xFFFFFFFFFFFFFFFF AND NUMBER GT ISZERO PUSH2 0x18B0 JUMPI PUSH0 DUP1 REVERT JUMPDEST PUSH0 DUP2 PUSH1 0x4 ADD PUSH1 0x1C SWAP1 SLOAD SWAP1 PUSH2 0x100 EXP SWAP1 DIV PUSH4 0xFFFFFFFF AND PUSH4 0xFFFFFFFF AND PUSH8 0xFFFFFFFFFFFFFFFF DUP2 GT ISZERO PUSH2 0x18E5 JUMPI PUSH2 0x18E4 PUSH2 0x2BC5 JUMP JUMPDEST JUMPDEST PUSH1 0x40 MLOAD SWAP1 DUP1 DUP3 MSTORE DUP1 PUSH1 0x20 MUL PUSH1 0x20 ADD DUP3 ADD PUSH1 0x40 MSTORE DUP1 ISZERO PUSH2 0x1913 JUMPI DUP2 PUSH1 0x20 ADD PUSH1 0x20 DUP3 MUL DUP1 CALLDATASIZE DUP4 CALLDATACOPY DUP1 DUP3 ADD SWAP2 POP POP SWAP1 POP JUMPDEST POP SWAP1 POP PUSH0 DUP3 PUSH1 0x4 ADD PUSH1 0x1C SWAP1 SLOAD SWAP1 PUSH2 0x100 EXP SWAP1 DIV PUSH4 0xFFFFFFFF AND PUSH4 0xFFFFFFFF AND PUSH8 0xFFFFFFFFFFFFFFFF DUP2 GT ISZERO PUSH2 0x194B JUMPI PUSH2 0x194A PUSH2 0x2BC5 JUMP JUMPDEST JUMPDEST PUSH1 0x40 MLOAD SWAP1 DUP1 DUP3 MSTORE DUP1 PUSH1 0x20 MUL PUSH1 0x20 ADD DUP3 ADD PUSH1 0x40 MSTORE DUP1 ISZERO PUSH2 0x1979 JUMPI DUP2 PUSH1 0x20 ADD PUSH1 0x20 DUP3 MUL DUP1 CALLDATASIZE DUP4 CALLDATACOPY DUP1 DUP3 ADD SWAP2 POP POP SWAP1 POP JUMPDEST POP SWAP1 POP PUSH0 DUP1 PUSH0 DUP1 PUSH0 DUP8 PUSH1 0x4 ADD PUSH0 SWAP1 SLOAD SWAP1 PUSH2 0x100 EXP SWAP1 DIV PUSH20 0xFFFFFFFFFFFFFFFFFFFFFFFFFFFFFFFFFFFFFFFF AND SWAP1 POP PUSH0 SWAP3 POP JUMPDEST DUP8 PUSH1 0x4 ADD PUSH1 0x1C SWAP1 SLOAD SWAP1 PUSH2 0x100 EXP SWAP1 DIV PUSH4 0xFFFFFFFF AND PUSH4 0xFFFFFFFF AND DUP4 PUSH4 0xFFFFFFFF AND LT ISZERO PUSH2 0x1B2E JUMPI DUP8 PUSH1 0x1 ADD SLOAD DUP6 SLT ISZERO PUSH2 0x1B2E JUMPI DUP8 PUSH1 0x2 ADD SLOAD PUSH2 0x19ED SWAP1 PUSH2 0x3AB3 JUMP JUMPDEST DUP6 SGT ISZERO PUSH2 0x1B2E JUMPI PUSH2 0x1A40 DUP11 DUP5 PUSH4 0xFFFFFFFF AND DUP2 MLOAD DUP2 LT PUSH2 0x1A10 JUMPI PUSH2 0x1A0F PUSH2 0x35A9 JUMP JUMPDEST JUMPDEST PUSH1 0x20 MUL PUSH1 0x20 ADD ADD MLOAD DUP10 PUSH1 0x5 ADD PUSH1 0x1 SWAP1 SLOAD SWAP1 PUSH2 0x100 EXP SWAP1 DIV PUSH1 0xFF AND DUP11 PUSH1 0x5 ADD PUSH0 SWAP1 SLOAD SWAP1 PUSH2 0x100 EXP SWAP1 DIV PUSH1 0xFF AND PUSH2 0x2438 JUMP JUMPDEST DUP9 DUP6 PUSH4 0xFFFFFFFF AND DUP2 MLOAD DUP2 LT PUSH2 0x1A59 JUMPI PUSH2 0x1A58 PUSH2 0x35A9 JUMP JUMPDEST JUMPDEST PUSH1 0x20 MUL PUSH1 0x20 ADD ADD DUP2 PUSH2 0xFFFF AND PUSH2 0xFFFF AND DUP2 MSTORE POP DUP2 SWAP4 POP POP POP PUSH1 0x64 DUP3 DUP10 PUSH0 ADD SLOAD PUSH2 0x1A82 SWAP2 SWAP1 PUSH2 0x3690 JUMP JUMPDEST PUSH2 0x1A8C SWAP2 SWAP1 PUSH2 0x3973 JUMP JUMPDEST DUP7 DUP5 PUSH4 0xFFFFFFFF AND DUP2 MLOAD DUP2 LT PUSH2 0x1AA5 JUMPI PUSH2 0x1AA4 PUSH2 0x35A9 JUMP JUMPDEST JUMPDEST PUSH1 0x20 MUL PUSH1 0x20 ADD ADD DUP2 DUP2 MSTORE POP POP DUP6 DUP4 PUSH4 0xFFFFFFFF AND DUP2 MLOAD DUP2 LT PUSH2 0x1ACA JUMPI PUSH2 0x1AC9 PUSH2 0x35A9 JUMP JUMPDEST JUMPDEST PUSH1 0x20 MUL PUSH1 0x20 ADD ADD MLOAD DUP5 PUSH2 0x1ADD SWAP2 SWAP1 PUSH2 0x39A3 JUMP JUMPDEST SWAP4 POP DUP8 PUSH0 ADD SLOAD DUP7 DUP5 PUSH4 0xFFFFFFFF AND DUP2 MLOAD DUP2 LT PUSH2 0x1AFC JUMPI PUSH2 0x1AFB PUSH2 0x35A9 JUMP JUMPDEST JUMPDEST PUSH1 0x20 MUL PUSH1 0x20 ADD ADD MLOAD PUSH2 0x1B0E SWAP2 SWAP1 PUSH2 0x3AF9 JUMP JUMPDEST DUP6 PUSH2 0x1B19 SWAP2 SWAP1 PUSH2 0x3B39 JUMP JUMPDEST SWAP5 POP DUP3 DUP1 PUSH2 0x1B26 SWAP1 PUSH2 0x3B7A JUMP JUMPDEST SWAP4 POP POP PUSH2 0x19AB JUMP JUMPDEST DUP8 PUSH0 ADD SLOAD DUP4 DUP10 PUSH1 0x4 ADD PUSH1 0x1C SWAP1 SLOAD SWAP1 PUSH2 0x100 EXP SWAP1 DIV PUSH4 0xFFFFFFFF AND PUSH2 0x1B52 SWAP2 SWAP1 PUSH2 0x3BA5 JUMP JUMPDEST PUSH4 0xFFFFFFFF AND PUSH2 0x1B62 SWAP2 SWAP1 PUSH2 0x3690 JUMP JUMPDEST DUP5 PUSH2 0x1B6D SWAP2 SWAP1 PUSH2 0x39A3 JUMP JUMPDEST SWAP4 POP DUP9 PUSH20 0xFFFFFFFFFFFFFFFFFFFFFFFFFFFFFFFFFFFFFFFF AND PUSH32 0x8E67907F20E5BA79F864289CAA2EBAE12B7009E941BC3AD33CD47340FD1B523C DUP10 PUSH0 ADD SLOAD DUP7 DUP5 DUP12 DUP14 PUSH1 0x5 ADD PUSH1 0x1 SWAP1 SLOAD SWAP1 PUSH2 0x100 EXP SWAP1 DIV PUSH1 0xFF AND DUP15 PUSH1 0x5 ADD PUSH0 SWAP1 SLOAD SWAP1 PUSH2 0x100 EXP SWAP1 DIV PUSH1 0xFF AND DUP14 DUP12 PUSH1 0x40 MLOAD PUSH2 0x1BE7 SWAP9 SWAP8 SWAP7 SWAP6 SWAP5 SWAP4 SWAP3 SWAP2 SWAP1 PUSH2 0x3D31 JUMP JUMPDEST PUSH1 0x40 MLOAD DUP1 SWAP2 SUB SWAP1 LOG2 PUSH2 0x1C21 DUP2 DUP10 PUSH1 0x4 ADD PUSH1 0x1C SWAP1 SLOAD SWAP1 PUSH2 0x100 EXP SWAP1 DIV PUSH4 0xFFFFFFFF AND PUSH4 0xFFFFFFFF AND DUP11 PUSH0 ADD SLOAD PUSH2 0x1C1C SWAP2 SWAP1 PUSH2 0x3690 JUMP JUMPDEST PUSH2 0x250A JUMP JUMPDEST PUSH1 0x8 PUSH0 DUP13 DUP2 MSTORE PUSH1 0x20 ADD SWAP1 DUP2 MSTORE PUSH1 0x20 ADD PUSH0 KECCAK256 PUSH0 PUSH2 0x100 EXP DUP2 SLOAD SWAP1 PUSH20 0xFFFFFFFFFFFFFFFFFFFFFFFFFFFFFFFFFFFFFFFF MUL NOT AND SWAP1 SSTORE PUSH1 0x7 PUSH0 DUP11 PUSH20 0xFFFFFFFFFFFFFFFFFFFFFFFFFFFFFFFFFFFFFFFF AND PUSH20 0xFFFFFFFFFFFFFFFFFFFFFFFFFFFFFFFFFFFFFFFF AND DUP2 MSTORE PUSH1 0x20 ADD SWAP1 DUP2 MSTORE PUSH1 0x20 ADD PUSH0 KECCAK256 PUSH0 DUP1 DUP3 ADD PUSH0 SWAP1 SSTORE PUSH1 0x1 DUP3 ADD PUSH0 SWAP1 SSTORE PUSH1 0x2 DUP3 ADD PUSH0 SWAP1 SSTORE PUSH1 0x3 DUP3 ADD PUSH0 SWAP1 SSTORE PUSH1 0x4 DUP3 ADD PUSH0 PUSH2 0x100 EXP DUP2 SLOAD SWAP1 PUSH20 0xFFFFFFFFFFFFFFFFFFFFFFFFFFFFFFFFFFFFFFFF MUL NOT AND SWAP1 SSTORE PUSH1 0x4 DUP3 ADD PUSH1 0x14 PUSH2 0x100 EXP DUP2 SLOAD SWAP1 PUSH8 0xFFFFFFFFFFFFFFFF MUL NOT AND SWAP1 SSTORE PUSH1 0x4 DUP3 ADD PUSH1 0x1C PUSH2 0x100 EXP DUP2 SLOAD SWAP1 PUSH4 0xFFFFFFFF MUL NOT AND SWAP1 SSTORE PUSH1 0x5 DUP3 ADD PUSH0 PUSH2 0x100 EXP DUP2 SLOAD SWAP1 PUSH1 0xFF MUL NOT AND SWAP1 SSTORE PUSH1 0x5 DUP3 ADD PUSH1 0x1 PUSH2 0x100 EXP DUP2 SLOAD SWAP1 PUSH1 0xFF MUL NOT AND SWAP1 SSTORE POP POP PUSH0 DUP5 EQ PUSH2 0x1D41 JUMPI PUSH2 0x1D40 DUP10 DUP6 DUP4 PUSH2 0x2654 JUMP JUMPDEST JUMPDEST POP POP POP POP POP POP POP POP POP POP POP JUMP JUMPDEST PUSH1 0x2 PUSH0 SLOAD SUB PUSH2 0x1D92 JUMPI PUSH1 0x40 MLOAD PUSH32 0x8C379A000000000000000000000000000000000000000000000000000000000 DUP2 MSTORE PUSH1 0x4 ADD PUSH2 0x1D89 SWAP1 PUSH2 0x3E15 JUMP JUMPDEST PUSH1 0x40 MLOAD DUP1 SWAP2 SUB SWAP1 REVERT JUMPDEST PUSH1 0x2 PUSH0 DUP2 SWAP1 SSTORE POP JUMP JUMPDEST PUSH0 PUSH1 0x14 PUSH0 CALLDATASIZE SWAP1 POP LT ISZERO DUP1 ISZERO PUSH2 0x1DB5 JUMPI POP PUSH2 0x1DB4 CALLER PUSH2 0xC4D JUMP JUMPDEST JUMPDEST ISZERO PUSH2 0x1DC9 JUMPI PUSH1 0x14 CALLDATASIZE SUB CALLDATALOAD PUSH1 0x60 SHR SWAP1 POP PUSH2 0x1DCD JUMP JUMPDEST CALLER SWAP1 POP JUMPDEST SWAP1 JUMP JUMPDEST PUSH2 0x1E4A DUP4 DUP5 PUSH20 0xFFFFFFFFFFFFFFFFFFFFFFFFFFFFFFFFFFFFFFFF AND PUSH4 0xA9059CBB DUP6 DUP6 PUSH1 0x40 MLOAD PUSH1 0x24 ADD PUSH2 0x1E03 SWAP3 SWAP2 SWAP1 PUSH2 0x3E33 JUMP JUMPDEST PUSH1 0x40 MLOAD PUSH1 0x20 DUP2 DUP4 SUB SUB DUP2 MSTORE SWAP1 PUSH1 0x40 MSTORE SWAP2 POP PUSH1 0xE0 SHL PUSH1 0x20 DUP3 ADD DUP1 MLOAD PUSH28 0xFFFFFFFFFFFFFFFFFFFFFFFFFFFFFFFFFFFFFFFFFFFFFFFFFFFFFFFF DUP4 DUP2 DUP4 AND OR DUP4 MSTORE POP POP POP POP PUSH2 0x26E4 JUMP JUMPDEST POP POP POP JUMP JUMPDEST PUSH1 0x1 PUSH0 DUP2 SWAP1 SSTORE POP JUMP JUMPDEST PUSH0 DUP1 PUSH20 0xFFFFFFFFFFFFFFFFFFFFFFFFFFFFFFFFFFFFFFFF AND DUP5 PUSH20 0xFFFFFFFFFFFFFFFFFFFFFFFFFFFFFFFFFFFFFFFF AND SUB PUSH2 0x1ECC JUMPI PUSH1 0x6 PUSH0 SWAP1 SLOAD SWAP1 PUSH2 0x100 EXP SWAP1 DIV PUSH20 0xFFFFFFFFFFFFFFFFFFFFFFFFFFFFFFFFFFFFFFFF AND PUSH20 0xFFFFFFFFFFFFFFFFFFFFFFFFFFFFFFFFFFFFFFFF AND BALANCE SWAP1 POP PUSH2 0x1F68 JUMP JUMPDEST DUP4 PUSH20 0xFFFFFFFFFFFFFFFFFFFFFFFFFFFFFFFFFFFFFFFF AND PUSH4 0x70A08231 PUSH1 0x6 PUSH0 SWAP1 SLOAD SWAP1 PUSH2 0x100 EXP SWAP1 DIV PUSH20 0xFFFFFFFFFFFFFFFFFFFFFFFFFFFFFFFFFFFFFFFF AND PUSH1 0x40 MLOAD DUP3 PUSH4 0xFFFFFFFF AND PUSH1 0xE0 SHL DUP2 MSTORE PUSH1 0x4 ADD PUSH2 0x1F26 SWAP2 SWAP1 PUSH2 0x2F0E JUMP JUMPDEST PUSH1 0x20 PUSH1 0x40 MLOAD DUP1 DUP4 SUB DUP2 DUP7 GAS STATICCALL ISZERO DUP1 ISZERO PUSH2 0x1F41 JUMPI RETURNDATASIZE PUSH0 DUP1 RETURNDATACOPY RETURNDATASIZE PUSH0 REVERT JUMPDEST POP POP POP POP PUSH1 0x40 MLOAD RETURNDATASIZE PUSH1 0x1F NOT PUSH1 0x1F DUP3 ADD AND DUP3 ADD DUP1 PUSH1 0x40 MSTORE POP DUP2 ADD SWAP1 PUSH2 0x1F65 SWAP2 SWAP1 PUSH2 0x3E5A JUMP JUMPDEST SWAP1 POP JUMPDEST PUSH0 PUSH4 0x5F5E100 PUSH1 0xB DUP5 PUSH1 0xFF AND PUSH1 0x3 DUP2 LT PUSH2 0x1F85 JUMPI PUSH2 0x1F84 PUSH2 0x35A9 JUMP JUMPDEST JUMPDEST PUSH1 0x9 MUL ADD PUSH1 0x8 DUP7 PUSH2 0x1F96 SWAP2 SWAP1 PUSH2 0x3E85 JUMP JUMPDEST PUSH1 0xFF AND PUSH1 0x9 DUP2 LT PUSH2 0x1FAA JUMPI PUSH2 0x1FA9 PUSH2 0x35A9 JUMP JUMPDEST JUMPDEST ADD SLOAD DUP4 PUSH2 0x1FB7 SWAP2 SWAP1 PUSH2 0x3690 JUMP JUMPDEST PUSH2 0x1FC1 SWAP2 SWAP1 PUSH2 0x3973 JUMP JUMPDEST SWAP1 POP DUP1 DUP7 GT ISZERO PUSH2 0x200A JUMPI DUP6 DUP2 PUSH1 0x40 MLOAD PUSH32 0xD53662AA00000000000000000000000000000000000000000000000000000000 DUP2 MSTORE PUSH1 0x4 ADD PUSH2 0x2001 SWAP3 SWAP2 SWAP1 PUSH2 0x3EB9 JUMP JUMPDEST PUSH1 0x40 MLOAD DUP1 SWAP2 SUB SWAP1 REVERT JUMPDEST POP POP POP POP POP POP JUMP JUMPDEST PUSH0 PUSH1 0x6 PUSH0 SWAP1 SLOAD SWAP1 PUSH2 0x100 EXP SWAP1 DIV PUSH20 0xFFFFFFFFFFFFFFFFFFFFFFFFFFFFFFFFFFFFFFFF AND PUSH20 0xFFFFFFFFFFFFFFFFFFFFFFFFFFFFFFFFFFFFFFFF AND PUSH4 0xBFD7F9CC ADDRESS DUP8 PUSH1 0x40 MLOAD DUP4 PUSH4 0xFFFFFFFF AND PUSH1 0xE0 SHL DUP2 MSTORE PUSH1 0x4 ADD PUSH2 0x206F SWAP3 SWAP2 SWAP1 PUSH2 0x3455 JUMP JUMPDEST PUSH1 0x20 PUSH1 0x40 MLOAD DUP1 DUP4 SUB DUP2 DUP7 GAS STATICCALL ISZERO DUP1 ISZERO PUSH2 0x208A JUMPI RETURNDATASIZE PUSH0 DUP1 RETURNDATACOPY RETURNDATASIZE PUSH0 REVERT JUMPDEST POP POP POP POP PUSH1 0x40 MLOAD RETURNDATASIZE PUSH1 0x1F NOT PUSH1 0x1F DUP3 ADD AND DUP3 ADD DUP1 PUSH1 0x40 MSTORE POP DUP2 ADD SWAP1 PUSH2 0x20AE SWAP2 SWAP1 PUSH2 0x3F0A JUMP JUMPDEST PUSH2 0x20E4 JUMPI PUSH1 0x40 MLOAD PUSH32 0x51C3B94F00000000000000000000000000000000000000000000000000000000 DUP2 MSTORE PUSH1 0x4 ADD PUSH1 0x40 MLOAD DUP1 SWAP2 SUB SWAP1 REVERT JUMPDEST PUSH0 DUP5 SUB PUSH2 0x211D JUMPI PUSH1 0x40 MLOAD PUSH32 0x7375C8400000000000000000000000000000000000000000000000000000000 DUP2 MSTORE PUSH1 0x4 ADD PUSH1 0x40 MLOAD DUP1 SWAP2 SUB SWAP1 REVERT JUMPDEST PUSH0 DUP1 PUSH1 0x6 PUSH0 SWAP1 SLOAD SWAP1 PUSH2 0x100 EXP SWAP1 DIV PUSH20 0xFFFFFFFFFFFFFFFFFFFFFFFFFFFFFFFFFFFFFFFF AND PUSH20 0xFFFFFFFFFFFFFFFFFFFFFFFFFFFFFFFFFFFFFFFF AND PUSH4 0xA5748A8 DUP6 PUSH1 0x40 MLOAD DUP3 PUSH4 0xFFFFFFFF AND PUSH1 0xE0 SHL DUP2 MSTORE PUSH1 0x4 ADD PUSH2 0x2179 SWAP2 SWAP1 PUSH2 0x2F0E JUMP JUMPDEST PUSH1 0x40 DUP1 MLOAD DUP1 DUP4 SUB DUP2 DUP7 GAS STATICCALL ISZERO DUP1 ISZERO PUSH2 0x2193 JUMPI RETURNDATASIZE PUSH0 DUP1 RETURNDATACOPY RETURNDATASIZE PUSH0 REVERT JUMPDEST POP POP POP POP PUSH1 0x40 MLOAD RETURNDATASIZE PUSH1 0x1F NOT PUSH1 0x1F DUP3 ADD AND DUP3 ADD DUP1 PUSH1 0x40 MSTORE POP DUP2 ADD SWAP1 PUSH2 0x21B7 SWAP2 SWAP1 PUSH2 0x3F35 JUMP JUMPDEST SWAP2 POP SWAP2 POP DUP2 ISZERO PUSH2 0x21FE JUMPI DUP1 PUSH1 0x40 MLOAD PUSH32 0x6C2775F500000000000000000000000000000000000000000000000000000000 DUP2 MSTORE PUSH1 0x4 ADD PUSH2 0x21F5 SWAP2 SWAP1 PUSH2 0x31D6 JUMP JUMPDEST PUSH1 0x40 MLOAD DUP1 SWAP2 SUB SWAP1 REVERT JUMPDEST PUSH2 0x2207 DUP6 PUSH2 0x1004 JUMP JUMPDEST SWAP3 POP PUSH0 PUSH20 0xFFFFFFFFFFFFFFFFFFFFFFFFFFFFFFFFFFFFFFFF AND DUP8 PUSH20 0xFFFFFFFFFFFFFFFFFFFFFFFFFFFFFFFFFFFFFFFF AND SUB PUSH2 0x22BD JUMPI DUP3 DUP7 PUSH2 0x2248 SWAP2 SWAP1 PUSH2 0x39A3 JUMP JUMPDEST CALLVALUE LT ISZERO PUSH2 0x2299 JUMPI DUP3 DUP7 PUSH2 0x225B SWAP2 SWAP1 PUSH2 0x39A3 JUMP JUMPDEST CALLVALUE PUSH1 0x40 MLOAD PUSH32 0xDE9B74A100000000000000000000000000000000000000000000000000000000 DUP2 MSTORE PUSH1 0x4 ADD PUSH2 0x2290 SWAP3 SWAP2 SWAP1 PUSH2 0x3EB9 JUMP JUMPDEST PUSH1 0x40 MLOAD DUP1 SWAP2 SUB SWAP1 REVERT JUMPDEST PUSH2 0x22B8 DUP7 DUP5 PUSH2 0x22A8 SWAP2 SWAP1 PUSH2 0x39A3 JUMP JUMPDEST CALLVALUE PUSH2 0x22B3 SWAP2 SWAP1 PUSH2 0x3F73 JUMP JUMPDEST PUSH2 0x2779 JUMP JUMPDEST PUSH2 0x2346 JUMP JUMPDEST DUP3 CALLVALUE LT ISZERO PUSH2 0x2304 JUMPI DUP3 CALLVALUE PUSH1 0x40 MLOAD PUSH32 0xDE9B74A100000000000000000000000000000000000000000000000000000000 DUP2 MSTORE PUSH1 0x4 ADD PUSH2 0x22FB SWAP3 SWAP2 SWAP1 PUSH2 0x3EB9 JUMP JUMPDEST PUSH1 0x40 MLOAD DUP1 SWAP2 SUB SWAP1 REVERT JUMPDEST PUSH2 0x2331 DUP5 ADDRESS DUP9 DUP11 PUSH20 0xFFFFFFFFFFFFFFFFFFFFFFFFFFFFFFFFFFFFFFFF AND PUSH2 0x2825 SWAP1 SWAP4 SWAP3 SWAP2 SWAP1 PUSH4 0xFFFFFFFF AND JUMP JUMPDEST PUSH2 0x2345 DUP4 CALLVALUE PUSH2 0x2340 SWAP2 SWAP1 PUSH2 0x3F73 JUMP JUMPDEST PUSH2 0x2779 JUMP JUMPDEST JUMPDEST DUP3 PUSH1 0x1 PUSH0 DUP3 DUP3 SLOAD PUSH2 0x2357 SWAP2 SWAP1 PUSH2 0x39A3 JUMP JUMPDEST SWAP3 POP POP DUP2 SWAP1 SSTORE POP POP POP SWAP5 SWAP4 POP POP POP POP JUMP JUMPDEST PUSH0 PUSH1 0x2 PUSH0 SWAP1 SLOAD SWAP1 PUSH2 0x100 EXP SWAP1 DIV PUSH20 0xFFFFFFFFFFFFFFFFFFFFFFFFFFFFFFFFFFFFFFFF AND PUSH20 0xFFFFFFFFFFFFFFFFFFFFFFFFFFFFFFFFFFFFFFFF AND PUSH4 0x5D3B1D30 PUSH32 0xD729DC84E21AE57FFB6BE0053BF2B0668AA2AAF300A2A7B2DDF7DC0BB6E875A8 PUSH2 0x240 PUSH1 0x3 PUSH3 0x2625A0 DUP8 PUSH1 0x40 MLOAD DUP7 PUSH4 0xFFFFFFFF AND PUSH1 0xE0 SHL DUP2 MSTORE PUSH1 0x4 ADD PUSH2 0x23F1 SWAP6 SWAP5 SWAP4 SWAP3 SWAP2 SWAP1 PUSH2 0x409E JUMP JUMPDEST PUSH1 0x20 PUSH1 0x40 MLOAD DUP1 DUP4 SUB DUP2 PUSH0 DUP8 GAS CALL ISZERO DUP1 ISZERO PUSH2 0x240D JUMPI RETURNDATASIZE PUSH0 DUP1 RETURNDATACOPY RETURNDATASIZE PUSH0 REVERT JUMPDEST POP POP POP POP PUSH1 0x40 MLOAD RETURNDATASIZE PUSH1 0x1F NOT PUSH1 0x1F DUP3 ADD AND DUP3 ADD DUP1 PUSH1 0x40 MSTORE POP DUP2 ADD SWAP1 PUSH2 0x2431 SWAP2 SWAP1 PUSH2 0x3E5A JUMP JUMPDEST SWAP1 POP SWAP2 SWAP1 POP JUMP JUMPDEST PUSH0 DUP1 PUSH0 DUP1 JUMPDEST DUP6 PUSH1 0xFF AND DUP2 PUSH1 0xFF AND LT ISZERO PUSH2 0x24A5 JUMPI PUSH0 PUSH2 0x2459 DUP9 DUP4 PUSH1 0xFF AND PUSH2 0x28A7 JUMP JUMPDEST SWAP1 POP DUP1 ISZERO PUSH2 0x2481 JUMPI PUSH1 0x1 DUP4 PUSH2 0x246E SWAP2 SWAP1 PUSH2 0x40FA JUMP JUMPDEST SWAP3 POP PUSH2 0x247A DUP5 DUP4 PUSH2 0x28BA JUMP JUMPDEST SWAP4 POP PUSH2 0x2491 JUMP JUMPDEST PUSH1 0x1 DUP4 PUSH2 0x248E SWAP2 SWAP1 PUSH2 0x4152 JUMP JUMPDEST SWAP3 POP JUMPDEST POP DUP1 DUP1 PUSH2 0x249D SWAP1 PUSH2 0x35D6 JUMP JUMPDEST SWAP2 POP POP PUSH2 0x243D JUMP JUMPDEST POP PUSH0 PUSH1 0x1 DUP7 DUP4 PUSH2 0x24B5 SWAP2 SWAP1 PUSH2 0x40FA JUMP JUMPDEST PUSH1 0xFF AND SWAP1 SHR SWAP1 POP PUSH1 0x9 PUSH0 DUP7 PUSH1 0xFF AND PUSH1 0xFF AND DUP2 MSTORE PUSH1 0x20 ADD SWAP1 DUP2 MSTORE PUSH1 0x20 ADD PUSH0 KECCAK256 PUSH0 DUP8 PUSH1 0xFF AND PUSH1 0xFF AND DUP2 MSTORE PUSH1 0x20 ADD SWAP1 DUP2 MSTORE PUSH1 0x20 ADD PUSH0 KECCAK256 PUSH0 DUP3 PUSH1 0xFF AND PUSH1 0xFF AND DUP2 MSTORE PUSH1 0x20 ADD SWAP1 DUP2 MSTORE PUSH1 0x20 ADD PUSH0 KECCAK256 SLOAD SWAP4 POP POP POP SWAP4 POP SWAP4 SWAP2 POP POP JUMP JUMPDEST PUSH0 PUSH20 0xFFFFFFFFFFFFFFFFFFFFFFFFFFFFFFFFFFFFFFFF AND DUP3 PUSH20 0xFFFFFFFFFFFFFFFFFFFFFFFFFFFFFFFFFFFFFFFF AND SUB PUSH2 0x2603 JUMPI PUSH0 PUSH1 0x6 PUSH0 SWAP1 SLOAD SWAP1 PUSH2 0x100 EXP SWAP1 DIV PUSH20 0xFFFFFFFFFFFFFFFFFFFFFFFFFFFFFFFFFFFFFFFF AND PUSH20 0xFFFFFFFFFFFFFFFFFFFFFFFFFFFFFFFFFFFFFFFF AND DUP3 PUSH1 0x40 MLOAD PUSH2 0x2583 SWAP1 PUSH2 0x36FE JUMP JUMPDEST PUSH0 PUSH1 0x40 MLOAD DUP1 DUP4 SUB DUP2 DUP6 DUP8 GAS CALL SWAP3 POP POP POP RETURNDATASIZE DUP1 PUSH0 DUP2 EQ PUSH2 0x25BD JUMPI PUSH1 0x40 MLOAD SWAP2 POP PUSH1 0x1F NOT PUSH1 0x3F RETURNDATASIZE ADD AND DUP3 ADD PUSH1 0x40 MSTORE RETURNDATASIZE DUP3 MSTORE RETURNDATASIZE PUSH0 PUSH1 0x20 DUP5 ADD RETURNDATACOPY PUSH2 0x25C2 JUMP JUMPDEST PUSH1 0x60 SWAP2 POP JUMPDEST POP POP SWAP1 POP DUP1 PUSH2 0x25FD JUMPI PUSH1 0x40 MLOAD PUSH32 0xF0C49D4400000000000000000000000000000000000000000000000000000000 DUP2 MSTORE PUSH1 0x4 ADD PUSH1 0x40 MLOAD DUP1 SWAP2 SUB SWAP1 REVERT JUMPDEST POP PUSH2 0x2650 JUMP JUMPDEST PUSH2 0x264F PUSH1 0x6 PUSH0 SWAP1 SLOAD SWAP1 PUSH2 0x100 EXP SWAP1 DIV PUSH20 0xFFFFFFFFFFFFFFFFFFFFFFFFFFFFFFFFFFFFFFFF AND DUP3 DUP5 PUSH20 0xFFFFFFFFFFFFFFFFFFFFFFFFFFFFFFFFFFFFFFFF AND PUSH2 0x1DD0 SWAP1 SWAP3 SWAP2 SWAP1 PUSH4 0xFFFFFFFF AND JUMP JUMPDEST JUMPDEST POP POP JUMP JUMPDEST PUSH1 0x6 PUSH0 SWAP1 SLOAD SWAP1 PUSH2 0x100 EXP SWAP1 DIV PUSH20 0xFFFFFFFFFFFFFFFFFFFFFFFFFFFFFFFFFFFFFFFF AND PUSH20 0xFFFFFFFFFFFFFFFFFFFFFFFFFFFFFFFFFFFFFFFF AND PUSH4 0x6C025EC2 DUP5 DUP5 DUP5 PUSH1 0x40 MLOAD DUP5 PUSH4 0xFFFFFFFF AND PUSH1 0xE0 SHL DUP2 MSTORE PUSH1 0x4 ADD PUSH2 0x26B2 SWAP4 SWAP3 SWAP2 SWAP1 PUSH2 0x41AA JUMP JUMPDEST PUSH0 PUSH1 0x40 MLOAD DUP1 DUP4 SUB DUP2 PUSH0 DUP8 DUP1 EXTCODESIZE ISZERO DUP1 ISZERO PUSH2 0x26C9 JUMPI PUSH0 DUP1 REVERT JUMPDEST POP GAS CALL ISZERO DUP1 ISZERO PUSH2 0x26DB JUMPI RETURNDATASIZE PUSH0 DUP1 RETURNDATACOPY RETURNDATASIZE PUSH0 REVERT JUMPDEST POP POP POP POP POP POP POP JUMP JUMPDEST PUSH0 PUSH2 0x270E DUP3 DUP5 PUSH20 0xFFFFFFFFFFFFFFFFFFFFFFFFFFFFFFFFFFFFFFFF AND PUSH2 0x28D1 SWAP1 SWAP2 SWAP1 PUSH4 0xFFFFFFFF AND JUMP JUMPDEST SWAP1 POP PUSH0 DUP2 MLOAD EQ ISZERO DUP1 ISZERO PUSH2 0x2732 JUMPI POP DUP1 DUP1 PUSH1 0x20 ADD SWAP1 MLOAD DUP2 ADD SWAP1 PUSH2 0x2730 SWAP2 SWAP1 PUSH2 0x3F0A JUMP JUMPDEST ISZERO JUMPDEST ISZERO PUSH2 0x2774 JUMPI DUP3 PUSH1 0x40 MLOAD PUSH32 0x5274AFE700000000000000000000000000000000000000000000000000000000 DUP2 MSTORE PUSH1 0x4 ADD PUSH2 0x276B SWAP2 SWAP1 PUSH2 0x2F0E JUMP JUMPDEST PUSH1 0x40 MLOAD DUP1 SWAP2 SUB SWAP1 REVERT JUMPDEST POP POP POP JUMP JUMPDEST PUSH0 DUP2 SUB ISZERO PUSH2 0x2822 JUMPI PUSH0 CALLER PUSH20 0xFFFFFFFFFFFFFFFFFFFFFFFFFFFFFFFFFFFFFFFF AND DUP3 PUSH1 0x40 MLOAD PUSH2 0x27A6 SWAP1 PUSH2 0x36FE JUMP JUMPDEST PUSH0 PUSH1 0x40 MLOAD DUP1 DUP4 SUB DUP2 DUP6 DUP8 GAS CALL SWAP3 POP POP POP RETURNDATASIZE DUP1 PUSH0 DUP2 EQ PUSH2 0x27E0 JUMPI PUSH1 0x40 MLOAD SWAP2 POP PUSH1 0x1F NOT PUSH1 0x3F RETURNDATASIZE ADD AND DUP3 ADD PUSH1 0x40 MSTORE RETURNDATASIZE DUP3 MSTORE RETURNDATASIZE PUSH0 PUSH1 0x20 DUP5 ADD RETURNDATACOPY PUSH2 0x27E5 JUMP JUMPDEST PUSH1 0x60 SWAP2 POP JUMPDEST POP POP SWAP1 POP DUP1 PUSH2 0x2820 JUMPI PUSH1 0x40 MLOAD PUSH32 0xF0C49D4400000000000000000000000000000000000000000000000000000000 DUP2 MSTORE PUSH1 0x4 ADD PUSH1 0x40 MLOAD DUP1 SWAP2 SUB SWAP1 REVERT JUMPDEST POP JUMPDEST POP JUMP JUMPDEST PUSH2 0x28A1 DUP5 DUP6 PUSH20 0xFFFFFFFFFFFFFFFFFFFFFFFFFFFFFFFFFFFFFFFF AND PUSH4 0x23B872DD DUP7 DUP7 DUP7 PUSH1 0x40 MLOAD PUSH1 0x24 ADD PUSH2 0x285A SWAP4 SWAP3 SWAP2 SWAP1 PUSH2 0x41DF JUMP JUMPDEST PUSH1 0x40 MLOAD PUSH1 0x20 DUP2 DUP4 SUB SUB DUP2 MSTORE SWAP1 PUSH1 0x40 MSTORE SWAP2 POP PUSH1 0xE0 SHL PUSH1 0x20 DUP3 ADD DUP1 MLOAD PUSH28 0xFFFFFFFFFFFFFFFFFFFFFFFFFFFFFFFFFFFFFFFFFFFFFFFFFFFFFFFF DUP4 DUP2 DUP4 AND OR DUP4 MSTORE POP POP POP POP PUSH2 0x26E4 JUMP JUMPDEST POP POP POP POP JUMP JUMPDEST PUSH0 DUP1 DUP3 PUSH1 0x1 SWAP1 SHL DUP5 AND EQ ISZERO SWAP1 POP SWAP3 SWAP2 POP POP JUMP JUMPDEST PUSH0 DUP2 PUSH1 0xFF AND PUSH1 0x1 PUSH2 0xFFFF AND SWAP1 SHL DUP4 OR SWAP1 POP SWAP3 SWAP2 POP POP JUMP JUMPDEST PUSH1 0x60 PUSH2 0x28DE DUP4 DUP4 PUSH0 PUSH2 0x28E6 JUMP JUMPDEST SWAP1 POP SWAP3 SWAP2 POP POP JUMP JUMPDEST PUSH1 0x60 DUP2 SELFBALANCE LT ISZERO PUSH2 0x292D JUMPI ADDRESS PUSH1 0x40 MLOAD PUSH32 0xCD78605900000000000000000000000000000000000000000000000000000000 DUP2 MSTORE PUSH1 0x4 ADD PUSH2 0x2924 SWAP2 SWAP1 PUSH2 0x2F0E JUMP JUMPDEST PUSH1 0x40 MLOAD DUP1 SWAP2 SUB SWAP1 REVERT JUMPDEST PUSH0 DUP1 DUP6 PUSH20 0xFFFFFFFFFFFFFFFFFFFFFFFFFFFFFFFFFFFFFFFF AND DUP5 DUP7 PUSH1 0x40 MLOAD PUSH2 0x2955 SWAP2 SWAP1 PUSH2 0x4276 JUMP JUMPDEST PUSH0 PUSH1 0x40 MLOAD DUP1 DUP4 SUB DUP2 DUP6 DUP8 GAS CALL SWAP3 POP POP POP RETURNDATASIZE DUP1 PUSH0 DUP2 EQ PUSH2 0x298F JUMPI PUSH1 0x40 MLOAD SWAP2 POP PUSH1 0x1F NOT PUSH1 0x3F RETURNDATASIZE ADD AND DUP3 ADD PUSH1 0x40 MSTORE RETURNDATASIZE DUP3 MSTORE RETURNDATASIZE PUSH0 PUSH1 0x20 DUP5 ADD RETURNDATACOPY PUSH2 0x2994 JUMP JUMPDEST PUSH1 0x60 SWAP2 POP JUMPDEST POP SWAP2 POP SWAP2 POP PUSH2 0x29A4 DUP7 DUP4 DUP4 PUSH2 0x29AF JUMP JUMPDEST SWAP3 POP POP POP SWAP4 SWAP3 POP POP POP JUMP JUMPDEST PUSH1 0x60 DUP3 PUSH2 0x29C4 JUMPI PUSH2 0x29BF DUP3 PUSH2 0x2A3C JUMP JUMPDEST PUSH2 0x2A34 JUMP JUMPDEST PUSH0 DUP3 MLOAD EQ DUP1 ISZERO PUSH2 0x29EA JUMPI POP PUSH0 DUP5 PUSH20 0xFFFFFFFFFFFFFFFFFFFFFFFFFFFFFFFFFFFFFFFF AND EXTCODESIZE EQ JUMPDEST ISZERO PUSH2 0x2A2C JUMPI DUP4 PUSH1 0x40 MLOAD PUSH32 0x9996B31500000000000000000000000000000000000000000000000000000000 DUP2 MSTORE PUSH1 0x4 ADD PUSH2 0x2A23 SWAP2 SWAP1 PUSH2 0x2F0E JUMP JUMPDEST PUSH1 0x40 MLOAD DUP1 SWAP2 SUB SWAP1 REVERT JUMPDEST DUP2 SWAP1 POP PUSH2 0x2A35 JUMP JUMPDEST JUMPDEST SWAP4 SWAP3 POP POP POP JUMP JUMPDEST PUSH0 DUP2 MLOAD GT ISZERO PUSH2 0x2A4E JUMPI DUP1 MLOAD DUP1 DUP3 PUSH1 0x20 ADD REVERT JUMPDEST PUSH1 0x40 MLOAD PUSH32 0x1425EA4200000000000000000000000000000000000000000000000000000000 DUP2 MSTORE PUSH1 0x4 ADD PUSH1 0x40 MLOAD DUP1 SWAP2 SUB SWAP1 REVERT JUMPDEST PUSH1 0x40 MLOAD DUP1 PUSH1 0x60 ADD PUSH1 0x40 MSTORE DUP1 PUSH1 0x3 SWAP1 JUMPDEST PUSH2 0x2A97 PUSH2 0x2B1C JUMP JUMPDEST DUP2 MSTORE PUSH1 0x20 ADD SWAP1 PUSH1 0x1 SWAP1 SUB SWAP1 DUP2 PUSH2 0x2A8F JUMPI SWAP1 POP POP SWAP1 JUMP JUMPDEST PUSH1 0x40 MLOAD DUP1 PUSH2 0x120 ADD PUSH1 0x40 MSTORE DUP1 PUSH0 DUP2 MSTORE PUSH1 0x20 ADD PUSH0 DUP2 MSTORE PUSH1 0x20 ADD PUSH0 DUP2 MSTORE PUSH1 0x20 ADD PUSH0 DUP2 MSTORE PUSH1 0x20 ADD PUSH0 PUSH20 0xFFFFFFFFFFFFFFFFFFFFFFFFFFFFFFFFFFFFFFFF AND DUP2 MSTORE PUSH1 0x20 ADD PUSH0 PUSH8 0xFFFFFFFFFFFFFFFF AND DUP2 MSTORE PUSH1 0x20 ADD PUSH0 PUSH4 0xFFFFFFFF AND DUP2 MSTORE PUSH1 0x20 ADD PUSH0 PUSH1 0xFF AND DUP2 MSTORE PUSH1 0x20 ADD PUSH0 PUSH1 0xFF AND DUP2 MSTORE POP SWAP1 JUMP JUMPDEST PUSH1 0x40 MLOAD DUP1 PUSH2 0x120 ADD PUSH1 0x40 MSTORE DUP1 PUSH1 0x9 SWAP1 JUMPDEST PUSH2 0x2B34 PUSH2 0x2B4A JUMP JUMPDEST DUP2 MSTORE PUSH1 0x20 ADD SWAP1 PUSH1 0x1 SWAP1 SUB SWAP1 DUP2 PUSH2 0x2B2C JUMPI SWAP1 POP POP SWAP1 JUMP JUMPDEST PUSH1 0x40 MLOAD DUP1 PUSH2 0x220 ADD PUSH1 0x40 MSTORE DUP1 PUSH1 0x11 SWAP1 PUSH1 0x20 DUP3 MUL DUP1 CALLDATASIZE DUP4 CALLDATACOPY DUP1 DUP3 ADD SWAP2 POP POP SWAP1 POP POP SWAP1 JUMP JUMPDEST PUSH0 PUSH1 0x40 MLOAD SWAP1 POP SWAP1 JUMP JUMPDEST PUSH0 DUP1 REVERT JUMPDEST PUSH0 DUP1 REVERT JUMPDEST PUSH0 DUP2 SWAP1 POP SWAP2 SWAP1 POP JUMP JUMPDEST PUSH2 0x2B90 DUP2 PUSH2 0x2B7E JUMP JUMPDEST DUP2 EQ PUSH2 0x2B9A JUMPI PUSH0 DUP1 REVERT JUMPDEST POP JUMP JUMPDEST PUSH0 DUP2 CALLDATALOAD SWAP1 POP PUSH2 0x2BAB DUP2 PUSH2 0x2B87 JUMP JUMPDEST SWAP3 SWAP2 POP POP JUMP JUMPDEST PUSH0 DUP1 REVERT JUMPDEST PUSH0 PUSH1 0x1F NOT PUSH1 0x1F DUP4 ADD AND SWAP1 POP SWAP2 SWAP1 POP JUMP JUMPDEST PUSH32 0x4E487B7100000000000000000000000000000000000000000000000000000000 PUSH0 MSTORE PUSH1 0x41 PUSH1 0x4 MSTORE PUSH1 0x24 PUSH0 REVERT JUMPDEST PUSH2 0x2BFB DUP3 PUSH2 0x2BB5 JUMP JUMPDEST DUP2 ADD DUP2 DUP2 LT PUSH8 0xFFFFFFFFFFFFFFFF DUP3 GT OR ISZERO PUSH2 0x2C1A JUMPI PUSH2 0x2C19 PUSH2 0x2BC5 JUMP JUMPDEST JUMPDEST DUP1 PUSH1 0x40 MSTORE POP POP POP JUMP JUMPDEST PUSH0 PUSH2 0x2C2C PUSH2 0x2B6D JUMP JUMPDEST SWAP1 POP PUSH2 0x2C38 DUP3 DUP3 PUSH2 0x2BF2 JUMP JUMPDEST SWAP2 SWAP1 POP JUMP JUMPDEST PUSH0 PUSH8 0xFFFFFFFFFFFFFFFF DUP3 GT ISZERO PUSH2 0x2C57 JUMPI PUSH2 0x2C56 PUSH2 0x2BC5 JUMP JUMPDEST JUMPDEST PUSH1 0x20 DUP3 MUL SWAP1 POP PUSH1 0x20 DUP2 ADD SWAP1 POP SWAP2 SWAP1 POP JUMP JUMPDEST PUSH0 DUP1 REVERT JUMPDEST PUSH0 PUSH2 0x2C7E PUSH2 0x2C79 DUP5 PUSH2 0x2C3D JUMP JUMPDEST PUSH2 0x2C23 JUMP JUMPDEST SWAP1 POP DUP1 DUP4 DUP3 MSTORE PUSH1 0x20 DUP3 ADD SWAP1 POP PUSH1 0x20 DUP5 MUL DUP4 ADD DUP6 DUP2 GT ISZERO PUSH2 0x2CA1 JUMPI PUSH2 0x2CA0 PUSH2 0x2C68 JUMP JUMPDEST JUMPDEST DUP4 JUMPDEST DUP2 DUP2 LT ISZERO PUSH2 0x2CCA JUMPI DUP1 PUSH2 0x2CB6 DUP9 DUP3 PUSH2 0x2B9D JUMP JUMPDEST DUP5 MSTORE PUSH1 0x20 DUP5 ADD SWAP4 POP POP PUSH1 0x20 DUP2 ADD SWAP1 POP PUSH2 0x2CA3 JUMP JUMPDEST POP POP POP SWAP4 SWAP3 POP POP POP JUMP JUMPDEST PUSH0 DUP3 PUSH1 0x1F DUP4 ADD SLT PUSH2 0x2CE8 JUMPI PUSH2 0x2CE7 PUSH2 0x2BB1 JUMP JUMPDEST JUMPDEST DUP2 CALLDATALOAD PUSH2 0x2CF8 DUP5 DUP3 PUSH1 0x20 DUP7 ADD PUSH2 0x2C6C JUMP JUMPDEST SWAP2 POP POP SWAP3 SWAP2 POP POP JUMP JUMPDEST PUSH0 DUP1 PUSH1 0x40 DUP4 DUP6 SUB SLT ISZERO PUSH2 0x2D17 JUMPI PUSH2 0x2D16 PUSH2 0x2B76 JUMP JUMPDEST JUMPDEST PUSH0 PUSH2 0x2D24 DUP6 DUP3 DUP7 ADD PUSH2 0x2B9D JUMP JUMPDEST SWAP3 POP POP PUSH1 0x20 DUP4 ADD CALLDATALOAD PUSH8 0xFFFFFFFFFFFFFFFF DUP2 GT ISZERO PUSH2 0x2D45 JUMPI PUSH2 0x2D44 PUSH2 0x2B7A JUMP JUMPDEST JUMPDEST PUSH2 0x2D51 DUP6 DUP3 DUP7 ADD PUSH2 0x2CD4 JUMP JUMPDEST SWAP2 POP POP SWAP3 POP SWAP3 SWAP1 POP JUMP JUMPDEST PUSH0 DUP1 REVERT JUMPDEST PUSH0 DUP1 DUP4 PUSH1 0x1F DUP5 ADD SLT PUSH2 0x2D74 JUMPI PUSH2 0x2D73 PUSH2 0x2BB1 JUMP JUMPDEST JUMPDEST DUP3 CALLDATALOAD SWAP1 POP PUSH8 0xFFFFFFFFFFFFFFFF DUP2 GT ISZERO PUSH2 0x2D91 JUMPI PUSH2 0x2D90 PUSH2 0x2D5B JUMP JUMPDEST JUMPDEST PUSH1 0x20 DUP4 ADD SWAP2 POP DUP4 PUSH1 0x20 DUP3 MUL DUP4 ADD GT ISZERO PUSH2 0x2DAD JUMPI PUSH2 0x2DAC PUSH2 0x2C68 JUMP JUMPDEST JUMPDEST SWAP3 POP SWAP3 SWAP1 POP JUMP JUMPDEST PUSH0 PUSH1 0xFF DUP3 AND SWAP1 POP SWAP2 SWAP1 POP JUMP JUMPDEST PUSH2 0x2DC9 DUP2 PUSH2 0x2DB4 JUMP JUMPDEST DUP2 EQ PUSH2 0x2DD3 JUMPI PUSH0 DUP1 REVERT JUMPDEST POP JUMP JUMPDEST PUSH0 DUP2 CALLDATALOAD SWAP1 POP PUSH2 0x2DE4 DUP2 PUSH2 0x2DC0 JUMP JUMPDEST SWAP3 SWAP2 POP POP JUMP JUMPDEST PUSH0 DUP1 PUSH0 DUP1 PUSH1 0x60 DUP6 DUP8 SUB SLT ISZERO PUSH2 0x2E02 JUMPI PUSH2 0x2E01 PUSH2 0x2B76 JUMP JUMPDEST JUMPDEST PUSH0 DUP6 ADD CALLDATALOAD PUSH8 0xFFFFFFFFFFFFFFFF DUP2 GT ISZERO PUSH2 0x2E1F JUMPI PUSH2 0x2E1E PUSH2 0x2B7A JUMP JUMPDEST JUMPDEST PUSH2 0x2E2B DUP8 DUP3 DUP9 ADD PUSH2 0x2D5F JUMP JUMPDEST SWAP5 POP SWAP5 POP POP PUSH1 0x20 PUSH2 0x2E3E DUP8 DUP3 DUP9 ADD PUSH2 0x2DD6 JUMP JUMPDEST SWAP3 POP POP PUSH1 0x40 PUSH2 0x2E4F DUP8 DUP3 DUP9 ADD PUSH2 0x2DD6 JUMP JUMPDEST SWAP2 POP POP SWAP3 SWAP6 SWAP2 SWAP5 POP SWAP3 POP JUMP JUMPDEST PUSH0 PUSH20 0xFFFFFFFFFFFFFFFFFFFFFFFFFFFFFFFFFFFFFFFF DUP3 AND SWAP1 POP SWAP2 SWAP1 POP JUMP JUMPDEST PUSH0 DUP2 SWAP1 POP SWAP2 SWAP1 POP JUMP JUMPDEST PUSH0 PUSH2 0x2E9D PUSH2 0x2E98 PUSH2 0x2E93 DUP5 PUSH2 0x2E5B JUMP JUMPDEST PUSH2 0x2E7A JUMP JUMPDEST PUSH2 0x2E5B JUMP JUMPDEST SWAP1 POP SWAP2 SWAP1 POP JUMP JUMPDEST PUSH0 PUSH2 0x2EAE DUP3 PUSH2 0x2E83 JUMP JUMPDEST SWAP1 POP SWAP2 SWAP1 POP JUMP JUMPDEST PUSH0 PUSH2 0x2EBF DUP3 PUSH2 0x2EA4 JUMP JUMPDEST SWAP1 POP SWAP2 SWAP1 POP JUMP JUMPDEST PUSH2 0x2ECF DUP2 PUSH2 0x2EB5 JUMP JUMPDEST DUP3 MSTORE POP POP JUMP JUMPDEST PUSH0 PUSH1 0x20 DUP3 ADD SWAP1 POP PUSH2 0x2EE8 PUSH0 DUP4 ADD DUP5 PUSH2 0x2EC6 JUMP JUMPDEST SWAP3 SWAP2 POP POP JUMP JUMPDEST PUSH0 PUSH2 0x2EF8 DUP3 PUSH2 0x2E5B JUMP JUMPDEST SWAP1 POP SWAP2 SWAP1 POP JUMP JUMPDEST PUSH2 0x2F08 DUP2 PUSH2 0x2EEE JUMP JUMPDEST DUP3 MSTORE POP POP JUMP JUMPDEST PUSH0 PUSH1 0x20 DUP3 ADD SWAP1 POP PUSH2 0x2F21 PUSH0 DUP4 ADD DUP5 PUSH2 0x2EFF JUMP JUMPDEST SWAP3 SWAP2 POP POP JUMP JUMPDEST PUSH2 0x2F30 DUP2 PUSH2 0x2EEE JUMP JUMPDEST DUP2 EQ PUSH2 0x2F3A JUMPI PUSH0 DUP1 REVERT JUMPDEST POP JUMP JUMPDEST PUSH0 DUP2 CALLDATALOAD SWAP1 POP PUSH2 0x2F4B DUP2 PUSH2 0x2F27 JUMP JUMPDEST SWAP3 SWAP2 POP POP JUMP JUMPDEST PUSH0 PUSH1 0x20 DUP3 DUP5 SUB SLT ISZERO PUSH2 0x2F66 JUMPI PUSH2 0x2F65 PUSH2 0x2B76 JUMP JUMPDEST JUMPDEST PUSH0 PUSH2 0x2F73 DUP5 DUP3 DUP6 ADD PUSH2 0x2F3D JUMP JUMPDEST SWAP2 POP POP SWAP3 SWAP2 POP POP JUMP JUMPDEST PUSH0 DUP2 ISZERO ISZERO SWAP1 POP SWAP2 SWAP1 POP JUMP JUMPDEST PUSH2 0x2F90 DUP2 PUSH2 0x2F7C JUMP JUMPDEST DUP3 MSTORE POP POP JUMP JUMPDEST PUSH0 PUSH1 0x20 DUP3 ADD SWAP1 POP PUSH2 0x2FA9 PUSH0 DUP4 ADD DUP5 PUSH2 0x2F87 JUMP JUMPDEST SWAP3 SWAP2 POP POP JUMP JUMPDEST PUSH0 PUSH1 0x3 SWAP1 POP SWAP2 SWAP1 POP JUMP JUMPDEST PUSH0 DUP2 SWAP1 POP SWAP3 SWAP2 POP POP JUMP JUMPDEST PUSH0 DUP2 SWAP1 POP SWAP2 SWAP1 POP JUMP JUMPDEST PUSH0 PUSH1 0x9 SWAP1 POP SWAP2 SWAP1 POP JUMP JUMPDEST PUSH0 DUP2 SWAP1 POP SWAP3 SWAP2 POP POP JUMP JUMPDEST PUSH0 DUP2 SWAP1 POP SWAP2 SWAP1 POP JUMP JUMPDEST PUSH0 PUSH1 0x11 SWAP1 POP SWAP2 SWAP1 POP JUMP JUMPDEST PUSH0 DUP2 SWAP1 POP SWAP3 SWAP2 POP POP JUMP JUMPDEST PUSH0 DUP2 SWAP1 POP SWAP2 SWAP1 POP JUMP JUMPDEST PUSH2 0x300F DUP2 PUSH2 0x2B7E JUMP JUMPDEST DUP3 MSTORE POP POP JUMP JUMPDEST PUSH0 PUSH2 0x3020 DUP4 DUP4 PUSH2 0x3006 JUMP JUMPDEST PUSH1 0x20 DUP4 ADD SWAP1 POP SWAP3 SWAP2 POP POP JUMP JUMPDEST PUSH0 PUSH1 0x20 DUP3 ADD SWAP1 POP SWAP2 SWAP1 POP JUMP JUMPDEST PUSH2 0x3041 DUP2 PUSH2 0x2FE9 JUMP JUMPDEST PUSH2 0x304B DUP2 DUP5 PUSH2 0x2FF3 JUMP JUMPDEST SWAP3 POP PUSH2 0x3056 DUP3 PUSH2 0x2FFD JUMP JUMPDEST DUP1 PUSH0 JUMPDEST DUP4 DUP2 LT ISZERO PUSH2 0x3086 JUMPI DUP2 MLOAD PUSH2 0x306D DUP8 DUP3 PUSH2 0x3015 JUMP JUMPDEST SWAP7 POP PUSH2 0x3078 DUP4 PUSH2 0x302C JUMP JUMPDEST SWAP3 POP POP PUSH1 0x1 DUP2 ADD SWAP1 POP PUSH2 0x3059 JUMP JUMPDEST POP POP POP POP POP POP JUMP JUMPDEST PUSH0 PUSH2 0x3099 DUP4 DUP4 PUSH2 0x3038 JUMP JUMPDEST PUSH2 0x220 DUP4 ADD SWAP1 POP SWAP3 SWAP2 POP POP JUMP JUMPDEST PUSH0 PUSH1 0x20 DUP3 ADD SWAP1 POP SWAP2 SWAP1 POP JUMP JUMPDEST PUSH2 0x30BB DUP2 PUSH2 0x2FCC JUMP JUMPDEST PUSH2 0x30C5 DUP2 DUP5 PUSH2 0x2FD6 JUMP JUMPDEST SWAP3 POP PUSH2 0x30D0 DUP3 PUSH2 0x2FE0 JUMP JUMPDEST DUP1 PUSH0 JUMPDEST DUP4 DUP2 LT ISZERO PUSH2 0x3100 JUMPI DUP2 MLOAD PUSH2 0x30E7 DUP8 DUP3 PUSH2 0x308E JUMP JUMPDEST SWAP7 POP PUSH2 0x30F2 DUP4 PUSH2 0x30A6 JUMP JUMPDEST SWAP3 POP POP PUSH1 0x1 DUP2 ADD SWAP1 POP PUSH2 0x30D3 JUMP JUMPDEST POP POP POP POP POP POP JUMP JUMPDEST PUSH0 PUSH2 0x3113 DUP4 DUP4 PUSH2 0x30B2 JUMP JUMPDEST PUSH2 0x1320 DUP4 ADD SWAP1 POP SWAP3 SWAP2 POP POP JUMP JUMPDEST PUSH0 PUSH1 0x20 DUP3 ADD SWAP1 POP SWAP2 SWAP1 POP JUMP JUMPDEST PUSH2 0x3135 DUP2 PUSH2 0x2FAF JUMP JUMPDEST PUSH2 0x313F DUP2 DUP5 PUSH2 0x2FB9 JUMP JUMPDEST SWAP3 POP PUSH2 0x314A DUP3 PUSH2 0x2FC3 JUMP JUMPDEST DUP1 PUSH0 JUMPDEST DUP4 DUP2 LT ISZERO PUSH2 0x317A JUMPI DUP2 MLOAD PUSH2 0x3161 DUP8 DUP3 PUSH2 0x3108 JUMP JUMPDEST SWAP7 POP PUSH2 0x316C DUP4 PUSH2 0x3120 JUMP JUMPDEST SWAP3 POP POP PUSH1 0x1 DUP2 ADD SWAP1 POP PUSH2 0x314D JUMP JUMPDEST POP POP POP POP POP POP JUMP JUMPDEST PUSH0 PUSH2 0x3960 DUP3 ADD SWAP1 POP PUSH2 0x3196 PUSH0 DUP4 ADD DUP5 PUSH2 0x312C JUMP JUMPDEST SWAP3 SWAP2 POP POP JUMP JUMPDEST PUSH0 PUSH1 0x20 DUP3 DUP5 SUB SLT ISZERO PUSH2 0x31B1 JUMPI PUSH2 0x31B0 PUSH2 0x2B76 JUMP JUMPDEST JUMPDEST PUSH0 PUSH2 0x31BE DUP5 DUP3 DUP6 ADD PUSH2 0x2B9D JUMP JUMPDEST SWAP2 POP POP SWAP3 SWAP2 POP POP JUMP JUMPDEST PUSH2 0x31D0 DUP2 PUSH2 0x2B7E JUMP JUMPDEST DUP3 MSTORE POP POP JUMP JUMPDEST PUSH0 PUSH1 0x20 DUP3 ADD SWAP1 POP PUSH2 0x31E9 PUSH0 DUP4 ADD DUP5 PUSH2 0x31C7 JUMP JUMPDEST SWAP3 SWAP2 POP POP JUMP JUMPDEST PUSH2 0x31F8 DUP2 PUSH2 0x2EEE JUMP JUMPDEST DUP3 MSTORE POP POP JUMP JUMPDEST PUSH0 PUSH8 0xFFFFFFFFFFFFFFFF DUP3 AND SWAP1 POP SWAP2 SWAP1 POP JUMP JUMPDEST PUSH2 0x321A DUP2 PUSH2 0x31FE JUMP JUMPDEST DUP3 MSTORE POP POP JUMP JUMPDEST PUSH0 PUSH4 0xFFFFFFFF DUP3 AND SWAP1 POP SWAP2 SWAP1 POP JUMP JUMPDEST PUSH2 0x3238 DUP2 PUSH2 0x3220 JUMP JUMPDEST DUP3 MSTORE POP POP JUMP JUMPDEST PUSH2 0x3247 DUP2 PUSH2 0x2DB4 JUMP JUMPDEST DUP3 MSTORE POP POP JUMP JUMPDEST PUSH2 0x120 DUP3 ADD PUSH0 DUP3 ADD MLOAD PUSH2 0x3262 PUSH0 DUP6 ADD DUP3 PUSH2 0x3006 JUMP JUMPDEST POP PUSH1 0x20 DUP3 ADD MLOAD PUSH2 0x3275 PUSH1 0x20 DUP6 ADD DUP3 PUSH2 0x3006 JUMP JUMPDEST POP PUSH1 0x40 DUP3 ADD MLOAD PUSH2 0x3288 PUSH1 0x40 DUP6 ADD DUP3 PUSH2 0x3006 JUMP JUMPDEST POP PUSH1 0x60 DUP3 ADD MLOAD PUSH2 0x329B PUSH1 0x60 DUP6 ADD DUP3 PUSH2 0x3006 JUMP JUMPDEST POP PUSH1 0x80 DUP3 ADD MLOAD PUSH2 0x32AE PUSH1 0x80 DUP6 ADD DUP3 PUSH2 0x31EF JUMP JUMPDEST POP PUSH1 0xA0 DUP3 ADD MLOAD PUSH2 0x32C1 PUSH1 0xA0 DUP6 ADD DUP3 PUSH2 0x3211 JUMP JUMPDEST POP PUSH1 0xC0 DUP3 ADD MLOAD PUSH2 0x32D4 PUSH1 0xC0 DUP6 ADD DUP3 PUSH2 0x322F JUMP JUMPDEST POP PUSH1 0xE0 DUP3 ADD MLOAD PUSH2 0x32E7 PUSH1 0xE0 DUP6 ADD DUP3 PUSH2 0x323E JUMP JUMPDEST POP PUSH2 0x100 DUP3 ADD MLOAD PUSH2 0x32FC PUSH2 0x100 DUP6 ADD DUP3 PUSH2 0x323E JUMP JUMPDEST POP POP POP POP JUMP JUMPDEST PUSH0 PUSH2 0x120 DUP3 ADD SWAP1 POP PUSH2 0x3316 PUSH0 DUP4 ADD DUP5 PUSH2 0x324D JUMP JUMPDEST SWAP3 SWAP2 POP POP JUMP JUMPDEST PUSH0 PUSH2 0x3326 DUP3 PUSH2 0x2EA4 JUMP JUMPDEST SWAP1 POP SWAP2 SWAP1 POP JUMP JUMPDEST PUSH2 0x3336 DUP2 PUSH2 0x331C JUMP JUMPDEST DUP3 MSTORE POP POP JUMP JUMPDEST PUSH0 PUSH1 0x20 DUP3 ADD SWAP1 POP PUSH2 0x334F PUSH0 DUP4 ADD DUP5 PUSH2 0x332D JUMP JUMPDEST SWAP3 SWAP2 POP POP JUMP JUMPDEST PUSH0 PUSH2 0x335F DUP3 PUSH2 0x2EA4 JUMP JUMPDEST SWAP1 POP SWAP2 SWAP1 POP JUMP JUMPDEST PUSH2 0x336F DUP2 PUSH2 0x3355 JUMP JUMPDEST DUP3 MSTORE POP POP JUMP JUMPDEST PUSH0 PUSH1 0x20 DUP3 ADD SWAP1 POP PUSH2 0x3388 PUSH0 DUP4 ADD DUP5 PUSH2 0x3366 JUMP JUMPDEST SWAP3 SWAP2 POP POP JUMP JUMPDEST PUSH2 0x3397 DUP2 PUSH2 0x3220 JUMP JUMPDEST DUP2 EQ PUSH2 0x33A1 JUMPI PUSH0 DUP1 REVERT JUMPDEST POP JUMP JUMPDEST PUSH0 DUP2 CALLDATALOAD SWAP1 POP PUSH2 0x33B2 DUP2 PUSH2 0x338E JUMP JUMPDEST SWAP3 SWAP2 POP POP JUMP JUMPDEST PUSH0 DUP1 PUSH0 DUP1 PUSH0 DUP1 PUSH0 PUSH1 0xE0 DUP9 DUP11 SUB SLT ISZERO PUSH2 0x33D3 JUMPI PUSH2 0x33D2 PUSH2 0x2B76 JUMP JUMPDEST JUMPDEST PUSH0 PUSH2 0x33E0 DUP11 DUP3 DUP12 ADD PUSH2 0x2B9D JUMP JUMPDEST SWAP8 POP POP PUSH1 0x20 PUSH2 0x33F1 DUP11 DUP3 DUP12 ADD PUSH2 0x2F3D JUMP JUMPDEST SWAP7 POP POP PUSH1 0x40 PUSH2 0x3402 DUP11 DUP3 DUP12 ADD PUSH2 0x2DD6 JUMP JUMPDEST SWAP6 POP POP PUSH1 0x60 PUSH2 0x3413 DUP11 DUP3 DUP12 ADD PUSH2 0x2DD6 JUMP JUMPDEST SWAP5 POP POP PUSH1 0x80 PUSH2 0x3424 DUP11 DUP3 DUP12 ADD PUSH2 0x33A4 JUMP JUMPDEST SWAP4 POP POP PUSH1 0xA0 PUSH2 0x3435 DUP11 DUP3 DUP12 ADD PUSH2 0x2B9D JUMP JUMPDEST SWAP3 POP POP PUSH1 0xC0 PUSH2 0x3446 DUP11 DUP3 DUP12 ADD PUSH2 0x2B9D JUMP JUMPDEST SWAP2 POP POP SWAP3 SWAP6 SWAP9 SWAP2 SWAP5 SWAP8 POP SWAP3 SWAP6 POP JUMP JUMPDEST PUSH0 PUSH1 0x40 DUP3 ADD SWAP1 POP PUSH2 0x3468 PUSH0 DUP4 ADD DUP6 PUSH2 0x2EFF JUMP JUMPDEST PUSH2 0x3475 PUSH1 0x20 DUP4 ADD DUP5 PUSH2 0x2EFF JUMP JUMPDEST SWAP4 SWAP3 POP POP POP JUMP JUMPDEST PUSH0 DUP2 MLOAD SWAP1 POP PUSH2 0x348A DUP2 PUSH2 0x2F27 JUMP JUMPDEST SWAP3 SWAP2 POP POP JUMP JUMPDEST PUSH0 PUSH1 0x20 DUP3 DUP5 SUB SLT ISZERO PUSH2 0x34A5 JUMPI PUSH2 0x34A4 PUSH2 0x2B76 JUMP JUMPDEST JUMPDEST PUSH0 PUSH2 0x34B2 DUP5 DUP3 DUP6 ADD PUSH2 0x347C JUMP JUMPDEST SWAP2 POP POP SWAP3 SWAP2 POP POP JUMP JUMPDEST PUSH2 0x34C4 DUP2 PUSH2 0x2DB4 JUMP JUMPDEST DUP3 MSTORE POP POP JUMP JUMPDEST PUSH0 PUSH1 0x40 DUP3 ADD SWAP1 POP PUSH2 0x34DD PUSH0 DUP4 ADD DUP6 PUSH2 0x34BB JUMP JUMPDEST PUSH2 0x34EA PUSH1 0x20 DUP4 ADD DUP5 PUSH2 0x34BB JUMP JUMPDEST SWAP4 SWAP3 POP POP POP JUMP JUMPDEST PUSH32 0x4E487B7100000000000000000000000000000000000000000000000000000000 PUSH0 MSTORE PUSH1 0x11 PUSH1 0x4 MSTORE PUSH1 0x24 PUSH0 REVERT JUMPDEST PUSH0 PUSH2 0x3528 DUP3 PUSH2 0x2DB4 JUMP JUMPDEST SWAP2 POP PUSH2 0x3533 DUP4 PUSH2 0x2DB4 JUMP JUMPDEST SWAP3 POP DUP3 DUP3 ADD SWAP1 POP PUSH1 0xFF DUP2 GT ISZERO PUSH2 0x354C JUMPI PUSH2 0x354B PUSH2 0x34F1 JUMP JUMPDEST JUMPDEST SWAP3 SWAP2 POP POP JUMP JUMPDEST PUSH0 PUSH2 0x356C PUSH2 0x3567 PUSH2 0x3562 DUP5 PUSH2 0x2DB4 JUMP JUMPDEST PUSH2 0x2E7A JUMP JUMPDEST PUSH2 0x2B7E JUMP JUMPDEST SWAP1 POP SWAP2 SWAP1 POP JUMP JUMPDEST PUSH2 0x357C DUP2 PUSH2 0x3552 JUMP JUMPDEST DUP3 MSTORE POP POP JUMP JUMPDEST PUSH0 PUSH1 0x40 DUP3 ADD SWAP1 POP PUSH2 0x3595 PUSH0 DUP4 ADD DUP6 PUSH2 0x31C7 JUMP JUMPDEST PUSH2 0x35A2 PUSH1 0x20 DUP4 ADD DUP5 PUSH2 0x3573 JUMP JUMPDEST SWAP4 SWAP3 POP POP POP JUMP JUMPDEST PUSH32 0x4E487B7100000000000000000000000000000000000000000000000000000000 PUSH0 MSTORE PUSH1 0x32 PUSH1 0x4 MSTORE PUSH1 0x24 PUSH0 REVERT JUMPDEST PUSH0 PUSH2 0x35E0 DUP3 PUSH2 0x2DB4 JUMP JUMPDEST SWAP2 POP PUSH1 0xFF DUP3 SUB PUSH2 0x35F3 JUMPI PUSH2 0x35F2 PUSH2 0x34F1 JUMP JUMPDEST JUMPDEST PUSH1 0x1 DUP3 ADD SWAP1 POP SWAP2 SWAP1 POP JUMP JUMPDEST PUSH0 PUSH2 0x3608 DUP3 PUSH2 0x31FE JUMP JUMPDEST SWAP2 POP PUSH2 0x3613 DUP4 PUSH2 0x31FE JUMP JUMPDEST SWAP3 POP DUP3 DUP3 ADD SWAP1 POP PUSH8 0xFFFFFFFFFFFFFFFF DUP2 GT ISZERO PUSH2 0x3633 JUMPI PUSH2 0x3632 PUSH2 0x34F1 JUMP JUMPDEST JUMPDEST SWAP3 SWAP2 POP POP JUMP JUMPDEST PUSH0 PUSH2 0x3653 PUSH2 0x364E PUSH2 0x3649 DUP5 PUSH2 0x31FE JUMP JUMPDEST PUSH2 0x2E7A JUMP JUMPDEST PUSH2 0x2B7E JUMP JUMPDEST SWAP1 POP SWAP2 SWAP1 POP JUMP JUMPDEST PUSH2 0x3663 DUP2 PUSH2 0x3639 JUMP JUMPDEST DUP3 MSTORE POP POP JUMP JUMPDEST PUSH0 PUSH1 0x40 DUP3 ADD SWAP1 POP PUSH2 0x367C PUSH0 DUP4 ADD DUP6 PUSH2 0x31C7 JUMP JUMPDEST PUSH2 0x3689 PUSH1 0x20 DUP4 ADD DUP5 PUSH2 0x365A JUMP JUMPDEST SWAP4 SWAP3 POP POP POP JUMP JUMPDEST PUSH0 PUSH2 0x369A DUP3 PUSH2 0x2B7E JUMP JUMPDEST SWAP2 POP PUSH2 0x36A5 DUP4 PUSH2 0x2B7E JUMP JUMPDEST SWAP3 POP DUP3 DUP3 MUL PUSH2 0x36B3 DUP2 PUSH2 0x2B7E JUMP JUMPDEST SWAP2 POP DUP3 DUP3 DIV DUP5 EQ DUP4 ISZERO OR PUSH2 0x36CA JUMPI PUSH2 0x36C9 PUSH2 0x34F1 JUMP JUMPDEST JUMPDEST POP SWAP3 SWAP2 POP POP JUMP JUMPDEST PUSH0 DUP2 SWAP1 POP SWAP3 SWAP2 POP POP JUMP JUMPDEST POP JUMP JUMPDEST PUSH0 PUSH2 0x36E9 PUSH0 DUP4 PUSH2 0x36D1 JUMP JUMPDEST SWAP2 POP PUSH2 0x36F4 DUP3 PUSH2 0x36DB JUMP JUMPDEST PUSH0 DUP3 ADD SWAP1 POP SWAP2 SWAP1 POP JUMP JUMPDEST PUSH0 PUSH2 0x3708 DUP3 PUSH2 0x36DE JUMP JUMPDEST SWAP2 POP DUP2 SWAP1 POP SWAP2 SWAP1 POP JUMP JUMPDEST PUSH0 PUSH1 0x40 DUP3 ADD SWAP1 POP PUSH2 0x3725 PUSH0 DUP4 ADD DUP6 PUSH2 0x31C7 JUMP JUMPDEST PUSH2 0x3732 PUSH1 0x20 DUP4 ADD DUP5 PUSH2 0x2EFF JUMP JUMPDEST SWAP4 SWAP3 POP POP POP JUMP JUMPDEST PUSH0 PUSH10 0xFFFFFFFFFFFFFFFFFFFF DUP3 AND SWAP1 POP SWAP2 SWAP1 POP JUMP JUMPDEST PUSH2 0x3757 DUP2 PUSH2 0x3739 JUMP JUMPDEST DUP2 EQ PUSH2 0x3761 JUMPI PUSH0 DUP1 REVERT JUMPDEST POP JUMP JUMPDEST PUSH0 DUP2 MLOAD SWAP1 POP PUSH2 0x3772 DUP2 PUSH2 0x374E JUMP JUMPDEST SWAP3 SWAP2 POP POP JUMP JUMPDEST PUSH0 DUP2 SWAP1 POP SWAP2 SWAP1 POP JUMP JUMPDEST PUSH2 0x378A DUP2 PUSH2 0x3778 JUMP JUMPDEST DUP2 EQ PUSH2 0x3794 JUMPI PUSH0 DUP1 REVERT JUMPDEST POP JUMP JUMPDEST PUSH0 DUP2 MLOAD SWAP1 POP PUSH2 0x37A5 DUP2 PUSH2 0x3781 JUMP JUMPDEST SWAP3 SWAP2 POP POP JUMP JUMPDEST PUSH0 DUP2 MLOAD SWAP1 POP PUSH2 0x37B9 DUP2 PUSH2 0x2B87 JUMP JUMPDEST SWAP3 SWAP2 POP POP JUMP JUMPDEST PUSH0 DUP1 PUSH0 DUP1 PUSH0 PUSH1 0xA0 DUP7 DUP9 SUB SLT ISZERO PUSH2 0x37D8 JUMPI PUSH2 0x37D7 PUSH2 0x2B76 JUMP JUMPDEST JUMPDEST PUSH0 PUSH2 0x37E5 DUP9 DUP3 DUP10 ADD PUSH2 0x3764 JUMP JUMPDEST SWAP6 POP POP PUSH1 0x20 PUSH2 0x37F6 DUP9 DUP3 DUP10 ADD PUSH2 0x3797 JUMP JUMPDEST SWAP5 POP POP PUSH1 0x40 PUSH2 0x3807 DUP9 DUP3 DUP10 ADD PUSH2 0x37AB JUMP JUMPDEST SWAP4 POP POP PUSH1 0x60 PUSH2 0x3818 DUP9 DUP3 DUP10 ADD PUSH2 0x37AB JUMP JUMPDEST SWAP3 POP POP PUSH1 0x80 PUSH2 0x3829 DUP9 DUP3 DUP10 ADD PUSH2 0x3764 JUMP JUMPDEST SWAP2 POP POP SWAP3 SWAP6 POP SWAP3 SWAP6 SWAP1 SWAP4 POP JUMP JUMPDEST PUSH0 DUP2 MLOAD SWAP1 POP PUSH2 0x3844 DUP2 PUSH2 0x338E JUMP JUMPDEST SWAP3 SWAP2 POP POP JUMP JUMPDEST PUSH0 PUSH3 0xFFFFFF DUP3 AND SWAP1 POP SWAP2 SWAP1 POP JUMP JUMPDEST PUSH2 0x3861 DUP2 PUSH2 0x384A JUMP JUMPDEST DUP2 EQ PUSH2 0x386B JUMPI PUSH0 DUP1 REVERT JUMPDEST POP JUMP JUMPDEST PUSH0 DUP2 MLOAD SWAP1 POP PUSH2 0x387C DUP2 PUSH2 0x3858 JUMP JUMPDEST SWAP3 SWAP2 POP POP JUMP JUMPDEST PUSH0 DUP1 PUSH0 DUP1 PUSH0 DUP1 PUSH0 DUP1 PUSH0 PUSH2 0x120 DUP11 DUP13 SUB SLT ISZERO PUSH2 0x38A0 JUMPI PUSH2 0x389F PUSH2 0x2B76 JUMP JUMPDEST JUMPDEST PUSH0 PUSH2 0x38AD DUP13 DUP3 DUP14 ADD PUSH2 0x3836 JUMP JUMPDEST SWAP10 POP POP PUSH1 0x20 PUSH2 0x38BE DUP13 DUP3 DUP14 ADD PUSH2 0x3836 JUMP JUMPDEST SWAP9 POP POP PUSH1 0x40 PUSH2 0x38CF DUP13 DUP3 DUP14 ADD PUSH2 0x3836 JUMP JUMPDEST SWAP8 POP POP PUSH1 0x60 PUSH2 0x38E0 DUP13 DUP3 DUP14 ADD PUSH2 0x3836 JUMP JUMPDEST SWAP7 POP POP PUSH1 0x80 PUSH2 0x38F1 DUP13 DUP3 DUP14 ADD PUSH2 0x3836 JUMP JUMPDEST SWAP6 POP POP PUSH1 0xA0 PUSH2 0x3902 DUP13 DUP3 DUP14 ADD PUSH2 0x386E JUMP JUMPDEST SWAP5 POP POP PUSH1 0xC0 PUSH2 0x3913 DUP13 DUP3 DUP14 ADD PUSH2 0x386E JUMP JUMPDEST SWAP4 POP POP PUSH1 0xE0 PUSH2 0x3924 DUP13 DUP3 DUP14 ADD PUSH2 0x386E JUMP JUMPDEST SWAP3 POP POP PUSH2 0x100 PUSH2 0x3936 DUP13 DUP3 DUP14 ADD PUSH2 0x386E JUMP JUMPDEST SWAP2 POP POP SWAP3 SWAP6 SWAP9 POP SWAP3 SWAP6 SWAP9 POP SWAP3 SWAP6 SWAP9 JUMP JUMPDEST PUSH32 0x4E487B7100000000000000000000000000000000000000000000000000000000 PUSH0 MSTORE PUSH1 0x12 PUSH1 0x4 MSTORE PUSH1 0x24 PUSH0 REVERT JUMPDEST PUSH0 PUSH2 0x397D DUP3 PUSH2 0x2B7E JUMP JUMPDEST SWAP2 POP PUSH2 0x3988 DUP4 PUSH2 0x2B7E JUMP JUMPDEST SWAP3 POP DUP3 PUSH2 0x3998 JUMPI PUSH2 0x3997 PUSH2 0x3946 JUMP JUMPDEST JUMPDEST DUP3 DUP3 DIV SWAP1 POP SWAP3 SWAP2 POP POP JUMP JUMPDEST PUSH0 PUSH2 0x39AD DUP3 PUSH2 0x2B7E JUMP JUMPDEST SWAP2 POP PUSH2 0x39B8 DUP4 PUSH2 0x2B7E JUMP JUMPDEST SWAP3 POP DUP3 DUP3 ADD SWAP1 POP DUP1 DUP3 GT ISZERO PUSH2 0x39D0 JUMPI PUSH2 0x39CF PUSH2 0x34F1 JUMP JUMPDEST JUMPDEST SWAP3 SWAP2 POP POP JUMP JUMPDEST PUSH0 DUP2 SWAP1 POP SWAP2 SWAP1 POP JUMP JUMPDEST PUSH0 PUSH2 0x39F9 PUSH2 0x39F4 PUSH2 0x39EF DUP5 PUSH2 0x39D6 JUMP JUMPDEST PUSH2 0x2E7A JUMP JUMPDEST PUSH2 0x2B7E JUMP JUMPDEST SWAP1 POP SWAP2 SWAP1 POP JUMP JUMPDEST PUSH2 0x3A09 DUP2 PUSH2 0x39DF JUMP JUMPDEST DUP3 MSTORE POP POP JUMP JUMPDEST PUSH0 PUSH1 0x20 DUP3 ADD SWAP1 POP PUSH2 0x3A22 PUSH0 DUP4 ADD DUP5 PUSH2 0x3A00 JUMP JUMPDEST SWAP3 SWAP2 POP POP JUMP JUMPDEST PUSH2 0x3A31 DUP2 PUSH2 0x3220 JUMP JUMPDEST DUP3 MSTORE POP POP JUMP JUMPDEST PUSH0 PUSH2 0x100 DUP3 ADD SWAP1 POP PUSH2 0x3A4B PUSH0 DUP4 ADD DUP12 PUSH2 0x31C7 JUMP JUMPDEST PUSH2 0x3A58 PUSH1 0x20 DUP4 ADD DUP11 PUSH2 0x2EFF JUMP JUMPDEST PUSH2 0x3A65 PUSH1 0x40 DUP4 ADD DUP10 PUSH2 0x34BB JUMP JUMPDEST PUSH2 0x3A72 PUSH1 0x60 DUP4 ADD DUP9 PUSH2 0x34BB JUMP JUMPDEST PUSH2 0x3A7F PUSH1 0x80 DUP4 ADD DUP8 PUSH2 0x3A28 JUMP JUMPDEST PUSH2 0x3A8C PUSH1 0xA0 DUP4 ADD DUP7 PUSH2 0x31C7 JUMP JUMPDEST PUSH2 0x3A99 PUSH1 0xC0 DUP4 ADD DUP6 PUSH2 0x31C7 JUMP JUMPDEST PUSH2 0x3AA6 PUSH1 0xE0 DUP4 ADD DUP5 PUSH2 0x31C7 JUMP JUMPDEST SWAP10 SWAP9 POP POP POP POP POP POP POP POP POP JUMP JUMPDEST PUSH0 PUSH2 0x3ABD DUP3 PUSH2 0x3778 JUMP JUMPDEST SWAP2 POP PUSH32 0x8000000000000000000000000000000000000000000000000000000000000000 DUP3 SUB PUSH2 0x3AEF JUMPI PUSH2 0x3AEE PUSH2 0x34F1 JUMP JUMPDEST JUMPDEST DUP2 PUSH0 SUB SWAP1 POP SWAP2 SWAP1 POP JUMP JUMPDEST PUSH0 PUSH2 0x3B03 DUP3 PUSH2 0x3778 JUMP JUMPDEST SWAP2 POP PUSH2 0x3B0E DUP4 PUSH2 0x3778 JUMP JUMPDEST SWAP3 POP DUP3 DUP3 SUB SWAP1 POP DUP2 DUP2 SLT PUSH0 DUP5 SLT AND DUP3 DUP3 SGT PUSH0 DUP6 SLT ISZERO AND OR ISZERO PUSH2 0x3B33 JUMPI PUSH2 0x3B32 PUSH2 0x34F1 JUMP JUMPDEST JUMPDEST SWAP3 SWAP2 POP POP JUMP JUMPDEST PUSH0 PUSH2 0x3B43 DUP3 PUSH2 0x3778 JUMP JUMPDEST SWAP2 POP PUSH2 0x3B4E DUP4 PUSH2 0x3778 JUMP JUMPDEST SWAP3 POP DUP3 DUP3 ADD SWAP1 POP DUP3 DUP2 SLT ISZERO PUSH0 DUP4 SLT AND DUP4 DUP3 SLT PUSH0 DUP5 SLT ISZERO AND OR ISZERO PUSH2 0x3B74 JUMPI PUSH2 0x3B73 PUSH2 0x34F1 JUMP JUMPDEST JUMPDEST SWAP3 SWAP2 POP POP JUMP JUMPDEST PUSH0 PUSH2 0x3B84 DUP3 PUSH2 0x3220 JUMP JUMPDEST SWAP2 POP PUSH4 0xFFFFFFFF DUP3 SUB PUSH2 0x3B9A JUMPI PUSH2 0x3B99 PUSH2 0x34F1 JUMP JUMPDEST JUMPDEST PUSH1 0x1 DUP3 ADD SWAP1 POP SWAP2 SWAP1 POP JUMP JUMPDEST PUSH0 PUSH2 0x3BAF DUP3 PUSH2 0x3220 JUMP JUMPDEST SWAP2 POP PUSH2 0x3BBA DUP4 PUSH2 0x3220 JUMP JUMPDEST SWAP3 POP DUP3 DUP3 SUB SWAP1 POP PUSH4 0xFFFFFFFF DUP2 GT ISZERO PUSH2 0x3BD6 JUMPI PUSH2 0x3BD5 PUSH2 0x34F1 JUMP JUMPDEST JUMPDEST SWAP3 SWAP2 POP POP JUMP JUMPDEST PUSH0 DUP2 MLOAD SWAP1 POP SWAP2 SWAP1 POP JUMP JUMPDEST PUSH0 DUP3 DUP3 MSTORE PUSH1 0x20 DUP3 ADD SWAP1 POP SWAP3 SWAP2 POP POP JUMP JUMPDEST PUSH0 DUP2 SWAP1 POP PUSH1 0x20 DUP3 ADD SWAP1 POP SWAP2 SWAP1 POP JUMP JUMPDEST PUSH0 PUSH2 0xFFFF DUP3 AND SWAP1 POP SWAP2 SWAP1 POP JUMP JUMPDEST PUSH2 0x3C1B DUP2 PUSH2 0x3C05 JUMP JUMPDEST DUP3 MSTORE POP POP JUMP JUMPDEST PUSH0 PUSH2 0x3C2C DUP4 DUP4 PUSH2 0x3C12 JUMP JUMPDEST PUSH1 0x20 DUP4 ADD SWAP1 POP SWAP3 SWAP2 POP POP JUMP JUMPDEST PUSH0 PUSH1 0x20 DUP3 ADD SWAP1 POP SWAP2 SWAP1 POP JUMP JUMPDEST PUSH0 PUSH2 0x3C4E DUP3 PUSH2 0x3BDC JUMP JUMPDEST PUSH2 0x3C58 DUP2 DUP6 PUSH2 0x3BE6 JUMP JUMPDEST SWAP4 POP PUSH2 0x3C63 DUP4 PUSH2 0x3BF6 JUMP JUMPDEST DUP1 PUSH0 JUMPDEST DUP4 DUP2 LT ISZERO PUSH2 0x3C93 JUMPI DUP2 MLOAD PUSH2 0x3C7A DUP9 DUP3 PUSH2 0x3C21 JUMP JUMPDEST SWAP8 POP PUSH2 0x3C85 DUP4 PUSH2 0x3C38 JUMP JUMPDEST SWAP3 POP POP PUSH1 0x1 DUP2 ADD SWAP1 POP PUSH2 0x3C66 JUMP JUMPDEST POP DUP6 SWAP4 POP POP POP POP SWAP3 SWAP2 POP POP JUMP JUMPDEST PUSH0 DUP2 MLOAD SWAP1 POP SWAP2 SWAP1 POP JUMP JUMPDEST PUSH0 DUP3 DUP3 MSTORE PUSH1 0x20 DUP3 ADD SWAP1 POP SWAP3 SWAP2 POP POP JUMP JUMPDEST PUSH0 DUP2 SWAP1 POP PUSH1 0x20 DUP3 ADD SWAP1 POP SWAP2 SWAP1 POP JUMP JUMPDEST PUSH0 PUSH1 0x20 DUP3 ADD SWAP1 POP SWAP2 SWAP1 POP JUMP JUMPDEST PUSH0 PUSH2 0x3CDF DUP3 PUSH2 0x3CA0 JUMP JUMPDEST PUSH2 0x3CE9 DUP2 DUP6 PUSH2 0x3CAA JUMP JUMPDEST SWAP4 POP PUSH2 0x3CF4 DUP4 PUSH2 0x3CBA JUMP JUMPDEST DUP1 PUSH0 JUMPDEST DUP4 DUP2 LT ISZERO PUSH2 0x3D24 JUMPI DUP2 MLOAD PUSH2 0x3D0B DUP9 DUP3 PUSH2 0x3015 JUMP JUMPDEST SWAP8 POP PUSH2 0x3D16 DUP4 PUSH2 0x3CC9 JUMP JUMPDEST SWAP3 POP POP PUSH1 0x1 DUP2 ADD SWAP1 POP PUSH2 0x3CF7 JUMP JUMPDEST POP DUP6 SWAP4 POP POP POP POP SWAP3 SWAP2 POP POP JUMP JUMPDEST PUSH0 PUSH2 0x100 DUP3 ADD SWAP1 POP PUSH2 0x3D45 PUSH0 DUP4 ADD DUP12 PUSH2 0x31C7 JUMP JUMPDEST PUSH2 0x3D52 PUSH1 0x20 DUP4 ADD DUP11 PUSH2 0x31C7 JUMP JUMPDEST PUSH2 0x3D5F PUSH1 0x40 DUP4 ADD DUP10 PUSH2 0x2EFF JUMP JUMPDEST DUP2 DUP2 SUB PUSH1 0x60 DUP4 ADD MSTORE PUSH2 0x3D71 DUP2 DUP9 PUSH2 0x3C44 JUMP JUMPDEST SWAP1 POP PUSH2 0x3D80 PUSH1 0x80 DUP4 ADD DUP8 PUSH2 0x34BB JUMP JUMPDEST PUSH2 0x3D8D PUSH1 0xA0 DUP4 ADD DUP7 PUSH2 0x34BB JUMP JUMPDEST DUP2 DUP2 SUB PUSH1 0xC0 DUP4 ADD MSTORE PUSH2 0x3D9F DUP2 DUP6 PUSH2 0x3CD5 JUMP JUMPDEST SWAP1 POP PUSH2 0x3DAE PUSH1 0xE0 DUP4 ADD DUP5 PUSH2 0x3A28 JUMP JUMPDEST SWAP10 SWAP9 POP POP POP POP POP POP POP POP POP JUMP JUMPDEST PUSH0 DUP3 DUP3 MSTORE PUSH1 0x20 DUP3 ADD SWAP1 POP SWAP3 SWAP2 POP POP JUMP JUMPDEST PUSH32 0x5265656E7472616E637947756172643A207265656E7472616E742063616C6C00 PUSH0 DUP3 ADD MSTORE POP JUMP JUMPDEST PUSH0 PUSH2 0x3DFF PUSH1 0x1F DUP4 PUSH2 0x3DBB JUMP JUMPDEST SWAP2 POP PUSH2 0x3E0A DUP3 PUSH2 0x3DCB JUMP JUMPDEST PUSH1 0x20 DUP3 ADD SWAP1 POP SWAP2 SWAP1 POP JUMP JUMPDEST PUSH0 PUSH1 0x20 DUP3 ADD SWAP1 POP DUP2 DUP2 SUB PUSH0 DUP4 ADD MSTORE PUSH2 0x3E2C DUP2 PUSH2 0x3DF3 JUMP JUMPDEST SWAP1 POP SWAP2 SWAP1 POP JUMP JUMPDEST PUSH0 PUSH1 0x40 DUP3 ADD SWAP1 POP PUSH2 0x3E46 PUSH0 DUP4 ADD DUP6 PUSH2 0x2EFF JUMP JUMPDEST PUSH2 0x3E53 PUSH1 0x20 DUP4 ADD DUP5 PUSH2 0x31C7 JUMP JUMPDEST SWAP4 SWAP3 POP POP POP JUMP JUMPDEST PUSH0 PUSH1 0x20 DUP3 DUP5 SUB SLT ISZERO PUSH2 0x3E6F JUMPI PUSH2 0x3E6E PUSH2 0x2B76 JUMP JUMPDEST JUMPDEST PUSH0 PUSH2 0x3E7C DUP5 DUP3 DUP6 ADD PUSH2 0x37AB JUMP JUMPDEST SWAP2 POP POP SWAP3 SWAP2 POP POP JUMP JUMPDEST PUSH0 PUSH2 0x3E8F DUP3 PUSH2 0x2DB4 JUMP JUMPDEST SWAP2 POP PUSH2 0x3E9A DUP4 PUSH2 0x2DB4 JUMP JUMPDEST SWAP3 POP DUP3 DUP3 SUB SWAP1 POP PUSH1 0xFF DUP2 GT ISZERO PUSH2 0x3EB3 JUMPI PUSH2 0x3EB2 PUSH2 0x34F1 JUMP JUMPDEST JUMPDEST SWAP3 SWAP2 POP POP JUMP JUMPDEST PUSH0 PUSH1 0x40 DUP3 ADD SWAP1 POP PUSH2 0x3ECC PUSH0 DUP4 ADD DUP6 PUSH2 0x31C7 JUMP JUMPDEST PUSH2 0x3ED9 PUSH1 0x20 DUP4 ADD DUP5 PUSH2 0x31C7 JUMP JUMPDEST SWAP4 SWAP3 POP POP POP JUMP JUMPDEST PUSH2 0x3EE9 DUP2 PUSH2 0x2F7C JUMP JUMPDEST DUP2 EQ PUSH2 0x3EF3 JUMPI PUSH0 DUP1 REVERT JUMPDEST POP JUMP JUMPDEST PUSH0 DUP2 MLOAD SWAP1 POP PUSH2 0x3F04 DUP2 PUSH2 0x3EE0 JUMP JUMPDEST SWAP3 SWAP2 POP POP JUMP JUMPDEST PUSH0 PUSH1 0x20 DUP3 DUP5 SUB SLT ISZERO PUSH2 0x3F1F JUMPI PUSH2 0x3F1E PUSH2 0x2B76 JUMP JUMPDEST JUMPDEST PUSH0 PUSH2 0x3F2C DUP5 DUP3 DUP6 ADD PUSH2 0x3EF6 JUMP JUMPDEST SWAP2 POP POP SWAP3 SWAP2 POP POP JUMP JUMPDEST PUSH0 DUP1 PUSH1 0x40 DUP4 DUP6 SUB SLT ISZERO PUSH2 0x3F4B JUMPI PUSH2 0x3F4A PUSH2 0x2B76 JUMP JUMPDEST JUMPDEST PUSH0 PUSH2 0x3F58 DUP6 DUP3 DUP7 ADD PUSH2 0x3EF6 JUMP JUMPDEST SWAP3 POP POP PUSH1 0x20 PUSH2 0x3F69 DUP6 DUP3 DUP7 ADD PUSH2 0x37AB JUMP JUMPDEST SWAP2 POP POP SWAP3 POP SWAP3 SWAP1 POP JUMP JUMPDEST PUSH0 PUSH2 0x3F7D DUP3 PUSH2 0x2B7E JUMP JUMPDEST SWAP2 POP PUSH2 0x3F88 DUP4 PUSH2 0x2B7E JUMP JUMPDEST SWAP3 POP DUP3 DUP3 SUB SWAP1 POP DUP2 DUP2 GT ISZERO PUSH2 0x3FA0 JUMPI PUSH2 0x3F9F PUSH2 0x34F1 JUMP JUMPDEST JUMPDEST SWAP3 SWAP2 POP POP JUMP JUMPDEST PUSH0 DUP2 SWAP1 POP SWAP2 SWAP1 POP JUMP JUMPDEST PUSH0 DUP2 SWAP1 POP SWAP2 SWAP1 POP JUMP JUMPDEST PUSH0 DUP2 PUSH0 SHL SWAP1 POP SWAP2 SWAP1 POP JUMP JUMPDEST PUSH0 PUSH2 0x3FDD PUSH2 0x3FD8 PUSH2 0x3FD3 DUP5 PUSH2 0x3FA6 JUMP JUMPDEST PUSH2 0x3FB8 JUMP JUMPDEST PUSH2 0x3FAF JUMP JUMPDEST SWAP1 POP SWAP2 SWAP1 POP JUMP JUMPDEST PUSH2 0x3FED DUP2 PUSH2 0x3FC3 JUMP JUMPDEST DUP3 MSTORE POP POP JUMP JUMPDEST PUSH0 DUP2 SWAP1 POP SWAP2 SWAP1 POP JUMP JUMPDEST PUSH0 PUSH2 0x4016 PUSH2 0x4011 PUSH2 0x400C DUP5 PUSH2 0x3FF3 JUMP JUMPDEST PUSH2 0x2E7A JUMP JUMPDEST PUSH2 0x31FE JUMP JUMPDEST SWAP1 POP SWAP2 SWAP1 POP JUMP JUMPDEST PUSH2 0x4026 DUP2 PUSH2 0x3FFC JUMP JUMPDEST DUP3 MSTORE POP POP JUMP JUMPDEST PUSH0 DUP2 SWAP1 POP SWAP2 SWAP1 POP JUMP JUMPDEST PUSH0 PUSH2 0x404F PUSH2 0x404A PUSH2 0x4045 DUP5 PUSH2 0x402C JUMP JUMPDEST PUSH2 0x2E7A JUMP JUMPDEST PUSH2 0x3C05 JUMP JUMPDEST SWAP1 POP SWAP2 SWAP1 POP JUMP JUMPDEST PUSH2 0x405F DUP2 PUSH2 0x4035 JUMP JUMPDEST DUP3 MSTORE POP POP JUMP JUMPDEST PUSH0 DUP2 SWAP1 POP SWAP2 SWAP1 POP JUMP JUMPDEST PUSH0 PUSH2 0x4088 PUSH2 0x4083 PUSH2 0x407E DUP5 PUSH2 0x4065 JUMP JUMPDEST PUSH2 0x2E7A JUMP JUMPDEST PUSH2 0x3220 JUMP JUMPDEST SWAP1 POP SWAP2 SWAP1 POP JUMP JUMPDEST PUSH2 0x4098 DUP2 PUSH2 0x406E JUMP JUMPDEST DUP3 MSTORE POP POP JUMP JUMPDEST PUSH0 PUSH1 0xA0 DUP3 ADD SWAP1 POP PUSH2 0x40B1 PUSH0 DUP4 ADD DUP9 PUSH2 0x3FE4 JUMP JUMPDEST PUSH2 0x40BE PUSH1 0x20 DUP4 ADD DUP8 PUSH2 0x401D JUMP JUMPDEST PUSH2 0x40CB PUSH1 0x40 DUP4 ADD DUP7 PUSH2 0x4056 JUMP JUMPDEST PUSH2 0x40D8 PUSH1 0x60 DUP4 ADD DUP6 PUSH2 0x408F JUMP JUMPDEST PUSH2 0x40E5 PUSH1 0x80 DUP4 ADD DUP5 PUSH2 0x3A28 JUMP JUMPDEST SWAP7 SWAP6 POP POP POP POP POP POP JUMP JUMPDEST PUSH0 DUP2 PUSH0 SIGNEXTEND SWAP1 POP SWAP2 SWAP1 POP JUMP JUMPDEST PUSH0 PUSH2 0x4104 DUP3 PUSH2 0x40EF JUMP JUMPDEST SWAP2 POP PUSH2 0x410F DUP4 PUSH2 0x40EF JUMP JUMPDEST SWAP3 POP DUP3 DUP3 ADD SWAP1 POP PUSH32 0xFFFFFFFFFFFFFFFFFFFFFFFFFFFFFFFFFFFFFFFFFFFFFFFFFFFFFFFFFFFFFF80 DUP2 SLT PUSH1 0x7F DUP3 SGT OR ISZERO PUSH2 0x414C JUMPI PUSH2 0x414B PUSH2 0x34F1 JUMP JUMPDEST JUMPDEST SWAP3 SWAP2 POP POP JUMP JUMPDEST PUSH0 PUSH2 0x415C DUP3 PUSH2 0x40EF JUMP JUMPDEST SWAP2 POP PUSH2 0x4167 DUP4 PUSH2 0x40EF JUMP JUMPDEST SWAP3 POP DUP3 DUP3 SUB SWAP1 POP PUSH1 0x7F DUP2 SGT PUSH32 0xFFFFFFFFFFFFFFFFFFFFFFFFFFFFFFFFFFFFFFFFFFFFFFFFFFFFFFFFFFFFFF80 DUP3 SLT OR ISZERO PUSH2 0x41A4 JUMPI PUSH2 0x41A3 PUSH2 0x34F1 JUMP JUMPDEST JUMPDEST SWAP3 SWAP2 POP POP JUMP JUMPDEST PUSH0 PUSH1 0x60 DUP3 ADD SWAP1 POP PUSH2 0x41BD PUSH0 DUP4 ADD DUP7 PUSH2 0x2EFF JUMP JUMPDEST PUSH2 0x41CA PUSH1 0x20 DUP4 ADD DUP6 PUSH2 0x31C7 JUMP JUMPDEST PUSH2 0x41D7 PUSH1 0x40 DUP4 ADD DUP5 PUSH2 0x2EFF JUMP JUMPDEST SWAP5 SWAP4 POP POP POP POP JUMP JUMPDEST PUSH0 PUSH1 0x60 DUP3 ADD SWAP1 POP PUSH2 0x41F2 PUSH0 DUP4 ADD DUP7 PUSH2 0x2EFF JUMP JUMPDEST PUSH2 0x41FF PUSH1 0x20 DUP4 ADD DUP6 PUSH2 0x2EFF JUMP JUMPDEST PUSH2 0x420C PUSH1 0x40 DUP4 ADD DUP5 PUSH2 0x31C7 JUMP JUMPDEST SWAP5 SWAP4 POP POP POP POP JUMP JUMPDEST PUSH0 DUP2 MLOAD SWAP1 POP SWAP2 SWAP1 POP JUMP JUMPDEST PUSH0 JUMPDEST DUP4 DUP2 LT ISZERO PUSH2 0x423B JUMPI DUP1 DUP3 ADD MLOAD DUP2 DUP5 ADD MSTORE PUSH1 0x20 DUP2 ADD SWAP1 POP PUSH2 0x4220 JUMP JUMPDEST PUSH0 DUP5 DUP5 ADD MSTORE POP POP POP POP JUMP JUMPDEST PUSH0 PUSH2 0x4250 DUP3 PUSH2 0x4214 JUMP JUMPDEST PUSH2 0x425A DUP2 DUP6 PUSH2 0x36D1 JUMP JUMPDEST SWAP4 POP PUSH2 0x426A DUP2 DUP6 PUSH1 0x20 DUP7 ADD PUSH2 0x421E JUMP JUMPDEST DUP1 DUP5 ADD SWAP2 POP POP SWAP3 SWAP2 POP POP JUMP JUMPDEST PUSH0 PUSH2 0x4281 DUP3 DUP5 PUSH2 0x4246 JUMP JUMPDEST SWAP2 POP DUP2 SWAP1 POP SWAP3 SWAP2 POP POP JUMP INVALID LOG2 PUSH5 0x6970667358 0x22 SLT KECCAK256 MULMOD PUSH14 0x580BD6376343BE1403B6C02FE1BA ORIGIN CALL 0xC5 LOG1 0xDA 0xD0 0xA9 SDIV MSIZE DUP8 0xF9 0x4D RETURN PUSH13 0x1EB964736F6C63430008140033 "
		},
		"gasEstimates": {
			"creation": {
				"codeDepositCost": "3418000",
				"executionCost": "infinite",
				"totalCost": "infinite"
			},
			"external": {
				"Bankroll()": "infinite",
				"ChainLinkVRF()": "2597",
				"IChainLinkVRF()": "infinite",
				"LINK_ETH_FEED()": "infinite",
				"Plinko_GetMultipliers()": "infinite",
				"Plinko_GetState(address)": "infinite",
				"Plinko_Play(uint256,address,uint8,uint8,uint32,uint256,uint256)": "infinite",
				"Plinko_Refund()": "infinite",
				"VRFFees()": "2492",
				"_trustedForwarder()": "2553",
				"getVRFFee(uint256)": "infinite",
				"isTrustedForwarder(address)": "2867",
				"rawFulfillRandomWords(uint256,uint256[])": "infinite",
				"setPlinkoMultipliers(uint256[],uint8,uint8)": "infinite",
				"transferFees(address)": "infinite"
			},
			"internal": {
				"_getBitValue(uint256,uint256)": "53",
				"_kellyWager(uint256,address,uint8,uint8)": "infinite",
				"_plinkoGame(uint256,uint8,uint8)": "infinite",
				"fulfillRandomWords(uint256,uint256[] memory)": "infinite",
				"setBit(uint16,uint8)": "56"
			}
		},
		"methodIdentifiers": {
			"Bankroll()": "d0bcfc0c",
			"ChainLinkVRF()": "953995ea",
			"IChainLinkVRF()": "4dd189d5",
			"LINK_ETH_FEED()": "ad178361",
			"Plinko_GetMultipliers()": "6483adca",
			"Plinko_GetState(address)": "aa73ce1e",
			"Plinko_Play(uint256,address,uint8,uint8,uint32,uint256,uint256)": "f5d37812",
			"Plinko_Refund()": "52ebe739",
			"VRFFees()": "8d7c16d2",
			"_trustedForwarder()": "56c022bb",
			"getVRFFee(uint256)": "8bd16114",
			"isTrustedForwarder(address)": "572b6c05",
			"rawFulfillRandomWords(uint256,uint256[])": "1fe543e3",
			"setPlinkoMultipliers(uint256[],uint8,uint8)": "45b9394f",
			"transferFees(address)": "63dc4ef5"
		}
	},
	"abi": [
		{
			"inputs": [
				{
					"internalType": "address",
					"name": "_bankroll",
					"type": "address"
				},
				{
					"internalType": "address",
					"name": "_vrf",
					"type": "address"
				},
				{
					"internalType": "address",
					"name": "link_eth_feed",
					"type": "address"
				},
				{
					"internalType": "address",
					"name": "_forwarder",
					"type": "address"
				}
			],
			"stateMutability": "nonpayable",
			"type": "constructor"
		},
		{
			"inputs": [
				{
					"internalType": "address",
					"name": "target",
					"type": "address"
				}
			],
			"name": "AddressEmptyCode",
			"type": "error"
		},
		{
			"inputs": [
				{
					"internalType": "address",
					"name": "account",
					"type": "address"
				}
			],
			"name": "AddressInsufficientBalance",
			"type": "error"
		},
		{
			"inputs": [
				{
					"internalType": "uint256",
					"name": "requestID",
					"type": "uint256"
				}
			],
			"name": "AwaitingVRF",
			"type": "error"
		},
		{
			"inputs": [
				{
					"internalType": "uint256",
					"name": "have",
					"type": "uint256"
				},
				{
					"internalType": "uint256",
					"name": "want",
					"type": "uint256"
				}
			],
			"name": "BlockNumberTooLow",
			"type": "error"
		},
		{
			"inputs": [],
			"name": "FailedInnerCall",
			"type": "error"
		},
		{
			"inputs": [
				{
					"internalType": "uint256",
					"name": "maxNumBets",
					"type": "uint256"
				}
			],
			"name": "InvalidNumBets",
			"type": "error"
		},
		{
			"inputs": [],
			"name": "InvalidNumRows",
			"type": "error"
		},
		{
			"inputs": [],
			"name": "InvalidNumberToSet",
			"type": "error"
		},
		{
			"inputs": [],
			"name": "InvalidRisk",
			"type": "error"
		},
		{
			"inputs": [
				{
					"internalType": "uint256",
					"name": "required",
					"type": "uint256"
				},
				{
					"internalType": "uint256",
					"name": "sent",
					"type": "uint256"
				}
			],
			"name": "InvalidValue",
			"type": "error"
		},
		{
			"inputs": [
				{
					"internalType": "uint256",
					"name": "multipliers",
					"type": "uint256"
				},
				{
					"internalType": "uint256",
					"name": "outcome",
					"type": "uint256"
				}
			],
			"name": "MismatchedLength",
			"type": "error"
		},
		{
			"inputs": [
				{
					"internalType": "uint8",
					"name": "numRows",
					"type": "uint8"
				},
				{
					"internalType": "uint8",
					"name": "risk",
					"type": "uint8"
				}
			],
			"name": "MultiplierAlreadySet",
			"type": "error"
		},
		{
			"inputs": [],
			"name": "NotApprovedBankroll",
			"type": "error"
		},
		{
			"inputs": [],
			"name": "NotAwaitingVRF",
			"type": "error"
		},
		{
			"inputs": [
				{
					"internalType": "address",
					"name": "want",
					"type": "address"
				},
				{
					"internalType": "address",
					"name": "have",
					"type": "address"
				}
			],
			"name": "NotOwner",
			"type": "error"
		},
		{
			"inputs": [
				{
					"internalType": "address",
					"name": "have",
					"type": "address"
				},
				{
					"internalType": "address",
					"name": "want",
					"type": "address"
				}
			],
			"name": "OnlyCoordinatorCanFulfill",
			"type": "error"
		},
		{
			"inputs": [
				{
					"internalType": "uint256",
					"name": "suspensionTime",
					"type": "uint256"
				}
			],
			"name": "PlayerSuspended",
			"type": "error"
		},
		{
			"inputs": [],
			"name": "RefundFailed",
			"type": "error"
		},
		{
			"inputs": [
				{
					"internalType": "address",
					"name": "token",
					"type": "address"
				}
			],
			"name": "SafeERC20FailedOperation",
			"type": "error"
		},
		{
			"inputs": [],
			"name": "TransferFailed",
			"type": "error"
		},
		{
			"inputs": [
				{
					"internalType": "uint256",
					"name": "wager",
					"type": "uint256"
				},
				{
					"internalType": "uint256",
					"name": "maxWager",
					"type": "uint256"
				}
			],
			"name": "WagerAboveLimit",
			"type": "error"
		},
		{
			"inputs": [],
			"name": "ZeroWager",
			"type": "error"
		},
		{
			"anonymous": false,
			"inputs": [
				{
					"indexed": true,
					"internalType": "address",
					"name": "playerAddress",
					"type": "address"
				},
				{
					"indexed": false,
					"internalType": "uint256",
					"name": "wager",
					"type": "uint256"
				},
				{
					"indexed": false,
					"internalType": "uint256",
					"name": "payout",
					"type": "uint256"
				},
				{
					"indexed": false,
					"internalType": "address",
					"name": "tokenAddress",
					"type": "address"
				},
				{
					"indexed": false,
					"internalType": "uint16[]",
					"name": "paths",
					"type": "uint16[]"
				},
				{
					"indexed": false,
					"internalType": "uint8",
					"name": "numRows",
					"type": "uint8"
				},
				{
					"indexed": false,
					"internalType": "uint8",
					"name": "risk",
					"type": "uint8"
				},
				{
					"indexed": false,
					"internalType": "uint256[]",
					"name": "payouts",
					"type": "uint256[]"
				},
				{
					"indexed": false,
					"internalType": "uint32",
					"name": "numGames",
					"type": "uint32"
				}
			],
			"name": "Plinko_Outcome_Event",
			"type": "event"
		},
		{
			"anonymous": false,
			"inputs": [
				{
					"indexed": true,
					"internalType": "address",
					"name": "playerAddress",
					"type": "address"
				},
				{
					"indexed": false,
					"internalType": "uint256",
					"name": "wager",
					"type": "uint256"
				},
				{
					"indexed": false,
					"internalType": "address",
					"name": "tokenAddress",
					"type": "address"
				},
				{
					"indexed": false,
					"internalType": "uint8",
					"name": "numRows",
					"type": "uint8"
				},
				{
					"indexed": false,
					"internalType": "uint8",
					"name": "risk",
					"type": "uint8"
				},
				{
					"indexed": false,
					"internalType": "uint32",
					"name": "numBets",
					"type": "uint32"
				},
				{
					"indexed": false,
					"internalType": "uint256",
					"name": "stopGain",
					"type": "uint256"
				},
				{
					"indexed": false,
					"internalType": "uint256",
					"name": "stopLoss",
					"type": "uint256"
				},
				{
					"indexed": false,
					"internalType": "uint256",
					"name": "VRFFee",
					"type": "uint256"
				}
			],
			"name": "Plinko_Play_Event",
			"type": "event"
		},
		{
			"anonymous": false,
			"inputs": [
				{
					"indexed": true,
					"internalType": "address",
					"name": "player",
					"type": "address"
				},
				{
					"indexed": false,
					"internalType": "uint256",
					"name": "wager",
					"type": "uint256"
				},
				{
					"indexed": false,
					"internalType": "address",
					"name": "tokenAddress",
					"type": "address"
				}
			],
			"name": "Plinko_Refund_Event",
			"type": "event"
		},
		{
			"inputs": [],
			"name": "Bankroll",
			"outputs": [
				{
					"internalType": "contract IBankRoll",
					"name": "",
					"type": "address"
				}
			],
			"stateMutability": "view",
			"type": "function"
		},
		{
			"inputs": [],
			"name": "ChainLinkVRF",
			"outputs": [
				{
					"internalType": "address",
					"name": "",
					"type": "address"
				}
			],
			"stateMutability": "view",
			"type": "function"
		},
		{
			"inputs": [],
			"name": "IChainLinkVRF",
			"outputs": [
				{
					"internalType": "contract IVRFCoordinatorV2",
					"name": "",
					"type": "address"
				}
			],
			"stateMutability": "view",
			"type": "function"
		},
		{
			"inputs": [],
			"name": "LINK_ETH_FEED",
			"outputs": [
				{
					"internalType": "contract AggregatorV3Interface",
					"name": "",
					"type": "address"
				}
			],
			"stateMutability": "view",
			"type": "function"
		},
		{
			"inputs": [],
			"name": "Plinko_GetMultipliers",
			"outputs": [
				{
					"internalType": "uint256[17][9][3]",
					"name": "multipliers",
					"type": "uint256[17][9][3]"
				}
			],
			"stateMutability": "view",
			"type": "function"
		},
		{
			"inputs": [
				{
					"internalType": "address",
					"name": "player",
					"type": "address"
				}
			],
			"name": "Plinko_GetState",
			"outputs": [
				{
					"components": [
						{
							"internalType": "uint256",
							"name": "wager",
							"type": "uint256"
						},
						{
							"internalType": "uint256",
							"name": "stopGain",
							"type": "uint256"
						},
						{
							"internalType": "uint256",
							"name": "stopLoss",
							"type": "uint256"
						},
						{
							"internalType": "uint256",
							"name": "requestID",
							"type": "uint256"
						},
						{
							"internalType": "address",
							"name": "tokenAddress",
							"type": "address"
						},
						{
							"internalType": "uint64",
							"name": "blockNumber",
							"type": "uint64"
						},
						{
							"internalType": "uint32",
							"name": "numBets",
							"type": "uint32"
						},
						{
							"internalType": "uint8",
							"name": "risk",
							"type": "uint8"
						},
						{
							"internalType": "uint8",
							"name": "numRows",
							"type": "uint8"
						}
					],
					"internalType": "struct Plinko.PlinkoGame",
					"name": "",
					"type": "tuple"
				}
			],
			"stateMutability": "view",
			"type": "function"
		},
		{
			"inputs": [
				{
					"internalType": "uint256",
					"name": "wager",
					"type": "uint256"
				},
				{
					"internalType": "address",
					"name": "tokenAddress",
					"type": "address"
				},
				{
					"internalType": "uint8",
					"name": "numRows",
					"type": "uint8"
				},
				{
					"internalType": "uint8",
					"name": "risk",
					"type": "uint8"
				},
				{
					"internalType": "uint32",
					"name": "numBets",
					"type": "uint32"
				},
				{
					"internalType": "uint256",
					"name": "stopGain",
					"type": "uint256"
				},
				{
					"internalType": "uint256",
					"name": "stopLoss",
					"type": "uint256"
				}
			],
			"name": "Plinko_Play",
			"outputs": [],
			"stateMutability": "payable",
			"type": "function"
		},
		{
			"inputs": [],
			"name": "Plinko_Refund",
			"outputs": [],
			"stateMutability": "nonpayable",
			"type": "function"
		},
		{
			"inputs": [],
			"name": "VRFFees",
			"outputs": [
				{
					"internalType": "uint256",
					"name": "",
					"type": "uint256"
				}
			],
			"stateMutability": "view",
			"type": "function"
		},
		{
			"inputs": [],
			"name": "_trustedForwarder",
			"outputs": [
				{
					"internalType": "address",
					"name": "",
					"type": "address"
				}
			],
			"stateMutability": "view",
			"type": "function"
		},
		{
			"inputs": [
				{
					"internalType": "uint256",
					"name": "gasAmount",
					"type": "uint256"
				}
			],
			"name": "getVRFFee",
			"outputs": [
				{
					"internalType": "uint256",
					"name": "fee",
					"type": "uint256"
				}
			],
			"stateMutability": "view",
			"type": "function"
		},
		{
			"inputs": [
				{
					"internalType": "address",
					"name": "forwarder",
					"type": "address"
				}
			],
			"name": "isTrustedForwarder",
			"outputs": [
				{
					"internalType": "bool",
					"name": "",
					"type": "bool"
				}
			],
			"stateMutability": "view",
			"type": "function"
		},
		{
			"inputs": [
				{
					"internalType": "uint256",
					"name": "requestId",
					"type": "uint256"
				},
				{
					"internalType": "uint256[]",
					"name": "randomWords",
					"type": "uint256[]"
				}
			],
			"name": "rawFulfillRandomWords",
			"outputs": [],
			"stateMutability": "nonpayable",
			"type": "function"
		},
		{
			"inputs": [
				{
					"internalType": "uint256[]",
					"name": "multipliers",
					"type": "uint256[]"
				},
				{
					"internalType": "uint8",
					"name": "numRows",
					"type": "uint8"
				},
				{
					"internalType": "uint8",
					"name": "risk",
					"type": "uint8"
				}
			],
			"name": "setPlinkoMultipliers",
			"outputs": [],
			"stateMutability": "nonpayable",
			"type": "function"
		},
		{
			"inputs": [
				{
					"internalType": "address",
					"name": "to",
					"type": "address"
				}
			],
			"name": "transferFees",
			"outputs": [],
			"stateMutability": "nonpayable",
			"type": "function"
		}
	]
}