{
	"data": {
		"bytecode": {
			"linkReferences": {},
			"object": "608060405234801562000010575f80fd5b5060405162003e2738038062003e278339818101604052810190620000369190620004d6565b60015f819055508660065f6101000a81548173ffffffffffffffffffffffffffffffffffffffff021916908373ffffffffffffffffffffffffffffffffffffffff1602179055508560055f6101000a81548173ffffffffffffffffffffffffffffffffffffffff021916908373ffffffffffffffffffffffffffffffffffffffff1602179055508460045f6101000a81548173ffffffffffffffffffffffffffffffffffffffff021916908373ffffffffffffffffffffffffffffffffffffffff1602179055508560025f6101000a81548173ffffffffffffffffffffffffffffffffffffffff021916908373ffffffffffffffffffffffffffffffffffffffff1602179055508360035f6101000a81548173ffffffffffffffffffffffffffffffffffffffff021916908373ffffffffffffffffffffffffffffffffffffffff160217905550620001908383836200019d60201b60201c565b505050505050506200064a565b5f5b600a5f9054906101000a900461ffff1661ffff168161ffff161015620001fe5760095f8261ffff1661ffff1681526020019081526020015f205f6101000a81549061ffff02191690558080620001f590620005ef565b9150506200019f565b5080600a5f6101000a81548161ffff021916908361ffff1602179055505f5b83518161ffff161015620002b657838161ffff16815181106200024557620002446200061d565b5b602002602001015160095f858461ffff16815181106200026a57620002696200061d565b5b602002602001015161ffff1661ffff1681526020019081526020015f205f6101000a81548161ffff021916908361ffff1602179055508080620002ad90620005ef565b9150506200021d565b50505050565b5f604051905090565b5f80fd5b5f80fd5b5f73ffffffffffffffffffffffffffffffffffffffff82169050919050565b5f620002f882620002cd565b9050919050565b6200030a81620002ec565b811462000315575f80fd5b50565b5f815190506200032881620002ff565b92915050565b5f80fd5b5f601f19601f8301169050919050565b7f4e487b71000000000000000000000000000000000000000000000000000000005f52604160045260245ffd5b6200037a8262000332565b810181811067ffffffffffffffff821117156200039c576200039b62000342565b5b80604052505050565b5f620003b0620002bc565b9050620003be82826200036f565b919050565b5f67ffffffffffffffff821115620003e057620003df62000342565b5b602082029050602081019050919050565b5f80fd5b5f61ffff82169050919050565b6200040d81620003f5565b811462000418575f80fd5b50565b5f815190506200042b8162000402565b92915050565b5f620004476200044184620003c3565b620003a5565b905080838252602082019050602084028301858111156200046d576200046c620003f1565b5b835b818110156200049a57806200048588826200041b565b8452602084019350506020810190506200046f565b5050509392505050565b5f82601f830112620004bb57620004ba6200032e565b5b8151620004cd84826020860162000431565b91505092915050565b5f805f805f805f60e0888a031215620004f457620004f3620002c5565b5b5f620005038a828b0162000318565b9750506020620005168a828b0162000318565b9650506040620005298a828b0162000318565b95505060606200053c8a828b0162000318565b945050608088015167ffffffffffffffff81111562000560576200055f620002c9565b5b6200056e8a828b01620004a4565b93505060a088015167ffffffffffffffff811115620005925762000591620002c9565b5b620005a08a828b01620004a4565b92505060c0620005b38a828b016200041b565b91505092959891949750929550565b7f4e487b71000000000000000000000000000000000000000000000000000000005f52601160045260245ffd5b5f620005fb82620003f5565b915061ffff8203620006125762000611620005c2565b5b600182019050919050565b7f4e487b71000000000000000000000000000000000000000000000000000000005f52603260045260245ffd5b6137cf80620006585f395ff3fe6080604052600436106100dc575f3560e01c80637127698f1161007e578063953995ea11610058578063953995ea146102a2578063ad178361146102cc578063d0bcfc0c146102f6578063f26c05f214610320576100dc565b80637127698f146102265780638bd161141461023c5780638d7c16d214610278576100dc565b80634dd189d5116100ba5780634dd189d51461016e57806356c022bb14610198578063572b6c05146101c257806363dc4ef5146101fe576100dc565b80631734e50a146100e05780631fe543e31461010a57806344e1373414610132575b5f80fd5b3480156100eb575f80fd5b506100f461033c565b60405161010191906125e8565b60405180910390f35b348015610115575f80fd5b50610130600480360381019061012b919061279c565b610428565b005b34801561013d575f80fd5b5061015860048036038101906101539190612850565b6104ea565b6040516101659190612965565b60405180910390f35b348015610179575f80fd5b50610182610615565b60405161018f91906129d9565b60405180910390f35b3480156101a3575f80fd5b506101ac61063a565b6040516101b99190612a01565b60405180910390f35b3480156101cd575f80fd5b506101e860048036038101906101e39190612850565b61065f565b6040516101f59190612a34565b60405180910390f35b348015610209575f80fd5b50610224600480360381019061021f9190612850565b6106b7565b005b348015610231575f80fd5b5061023a610904565b005b348015610247575f80fd5b50610262600480360381019061025d9190612a4d565b610ce6565b60405161026f9190612a87565b60405180910390f35b348015610283575f80fd5b5061028c610e6a565b6040516102999190612a87565b60405180910390f35b3480156102ad575f80fd5b506102b6610e70565b6040516102c39190612a01565b60405180910390f35b3480156102d7575f80fd5b506102e0610e95565b6040516102ed9190612ac0565b60405180910390f35b348015610301575f80fd5b5061030a610eba565b6040516103179190612af9565b60405180910390f35b61033a60048036038101906103359190612b3c565b610edf565b005b6060600a5f9054906101000a900461ffff1661ffff1667ffffffffffffffff81111561036b5761036a612660565b5b6040519080825280602002602001820160405280156103995781602001602082028036833780820191505090505b5090505f5b600a5f9054906101000a900461ffff1661ffff168161ffff1610156104245760095f8261ffff1661ffff1681526020019081526020015f205f9054906101000a900461ffff16828261ffff16815181106103fb576103fa612bb3565b5b602002602001019061ffff16908161ffff1681525050808061041c90612c0d565b91505061039e565b5090565b60025f9054906101000a900473ffffffffffffffffffffffffffffffffffffffff1673ffffffffffffffffffffffffffffffffffffffff163373ffffffffffffffffffffffffffffffffffffffff16146104dc573360025f9054906101000a900473ffffffffffffffffffffffffffffffffffffffff166040517f1cf993f40000000000000000000000000000000000000000000000000000000081526004016104d3929190612c36565b60405180910390fd5b6104e68282611261565b5050565b6104f26124c8565b60075f8373ffffffffffffffffffffffffffffffffffffffff1673ffffffffffffffffffffffffffffffffffffffff1681526020019081526020015f206040518060e00160405290815f8201548152602001600182015481526020016002820154815260200160038201548152602001600482015f9054906101000a900473ffffffffffffffffffffffffffffffffffffffff1673ffffffffffffffffffffffffffffffffffffffff1673ffffffffffffffffffffffffffffffffffffffff1681526020016004820160149054906101000a900467ffffffffffffffff1667ffffffffffffffff1667ffffffffffffffff16815260200160048201601c9054906101000a900463ffffffff1663ffffffff1663ffffffff16815250509050919050565b60055f9054906101000a900473ffffffffffffffffffffffffffffffffffffffff1681565b60035f9054906101000a900473ffffffffffffffffffffffffffffffffffffffff1681565b5f60035f9054906101000a900473ffffffffffffffffffffffffffffffffffffffff1673ffffffffffffffffffffffffffffffffffffffff168273ffffffffffffffffffffffffffffffffffffffff16149050919050565b6106bf6118cf565b60065f9054906101000a900473ffffffffffffffffffffffffffffffffffffffff1673ffffffffffffffffffffffffffffffffffffffff1663893d20e86040518163ffffffff1660e01b8152600401602060405180830381865afa158015610729573d5f803e3d5ffd5b505050506040513d601f19601f8201168201806040525081019061074d9190612c71565b73ffffffffffffffffffffffffffffffffffffffff163373ffffffffffffffffffffffffffffffffffffffff161461084b5760065f9054906101000a900473ffffffffffffffffffffffffffffffffffffffff1673ffffffffffffffffffffffffffffffffffffffff1663893d20e86040518163ffffffff1660e01b8152600401602060405180830381865afa1580156107e9573d5f803e3d5ffd5b505050506040513d601f19601f8201168201806040525081019061080d9190612c71565b336040517f23295f0e000000000000000000000000000000000000000000000000000000008152600401610842929190612c36565b60405180910390fd5b5f60015490505f6001819055505f8273ffffffffffffffffffffffffffffffffffffffff168260405161087d90612cc9565b5f6040518083038185875af1925050503d805f81146108b7576040519150601f19603f3d011682016040523d82523d5f602084013e6108bc565b606091505b50509050806108f7576040517f90b8ec1800000000000000000000000000000000000000000000000000000000815260040160405180910390fd5b505061090161191c565b50565b61090c6118cf565b5f610915611925565b90505f60075f8373ffffffffffffffffffffffffffffffffffffffff1673ffffffffffffffffffffffffffffffffffffffff1681526020019081526020015f2090505f816003015403610994576040517f49050b3000000000000000000000000000000000000000000000000000000000815260040160405180910390fd5b43600a6103e88360040160149054906101000a900467ffffffffffffffff166109bd9190612cdd565b6109c79190612cdd565b67ffffffffffffffff161115610a475743600a6103e88360040160149054906101000a900467ffffffffffffffff16610a009190612cdd565b610a0a9190612cdd565b6040517fb4ae675a000000000000000000000000000000000000000000000000000000008152600401610a3e929190612d48565b60405180910390fd5b5f81600401601c9054906101000a900463ffffffff1663ffffffff16825f0154610a719190612d6f565b90505f826004015f9054906101000a900473ffffffffffffffffffffffffffffffffffffffff16905060085f846003015481526020019081526020015f205f6101000a81549073ffffffffffffffffffffffffffffffffffffffff021916905560075f8573ffffffffffffffffffffffffffffffffffffffff1673ffffffffffffffffffffffffffffffffffffffff1681526020019081526020015f205f8082015f9055600182015f9055600282015f9055600382015f9055600482015f6101000a81549073ffffffffffffffffffffffffffffffffffffffff02191690556004820160146101000a81549067ffffffffffffffff021916905560048201601c6101000a81549063ffffffff021916905550505f73ffffffffffffffffffffffffffffffffffffffff168173ffffffffffffffffffffffffffffffffffffffff1603610c5c575f8473ffffffffffffffffffffffffffffffffffffffff1683604051610bdc90612cc9565b5f6040518083038185875af1925050503d805f8114610c16576040519150601f19603f3d011682016040523d82523d5f602084013e610c1b565b606091505b5050905080610c56576040517f90b8ec1800000000000000000000000000000000000000000000000000000000815260040160405180910390fd5b50610c88565b610c8784838373ffffffffffffffffffffffffffffffffffffffff1661195a9092919063ffffffff16565b5b8373ffffffffffffffffffffffffffffffffffffffff167f1d349643bcdca147749e5f231209be458850aea573661bed4ab760d2a4eaf0638383604051610cd0929190612db0565b60405180910390a250505050610ce461191c565b565b5f8060045f9054906101000a900473ffffffffffffffffffffffffffffffffffffffff1673ffffffffffffffffffffffffffffffffffffffff1663feaf968c6040518163ffffffff1660e01b815260040160a060405180830381865afa158015610d52573d5f803e3d5ffd5b505050506040513d601f19601f82011682018060405250810190610d769190612e5d565b5050509150505f60055f9054906101000a900473ffffffffffffffffffffffffffffffffffffffff1673ffffffffffffffffffffffffffffffffffffffff16635fbbc0d26040518163ffffffff1660e01b815260040161012060405180830381865afa158015610de8573d5f803e3d5ffd5b505050506040513d601f19601f82011682018060405250810190610e0c9190612f20565b50505050505050509050670de0b6b3a7640000828263ffffffff1664e8d4a51000610e379190612d6f565b610e419190612d6f565b610e4b9190613011565b843a610e579190612d6f565b610e619190613041565b92505050919050565b60015481565b60025f9054906101000a900473ffffffffffffffffffffffffffffffffffffffff1681565b60045f9054906101000a900473ffffffffffffffffffffffffffffffffffffffff1681565b60065f9054906101000a900473ffffffffffffffffffffffffffffffffffffffff1681565b610ee76118cf565b5f610ef0611925565b90505f60075f8373ffffffffffffffffffffffffffffffffffffffff1673ffffffffffffffffffffffffffffffffffffffff1681526020019081526020015f206003015414610fb65760075f8273ffffffffffffffffffffffffffffffffffffffff1673ffffffffffffffffffffffffffffffffffffffff1681526020019081526020015f20600301546040517f440db96e000000000000000000000000000000000000000000000000000000008152600401610fad9190612a87565b60405180910390fd5b5f8463ffffffff16118015610fd2575060648463ffffffff1611155b6110145760646040517f9310749100000000000000000000000000000000000000000000000000000000815260040161100b91906130ad565b60405180910390fd5b61101e86866119d9565b5f61103f868663ffffffff16896110359190612d6f565b6210c8e085611b56565b90505f61104b86611eac565b90506040518060e001604052808981526020018681526020018581526020018281526020018873ffffffffffffffffffffffffffffffffffffffff1681526020014367ffffffffffffffff1681526020018763ffffffff1681525060075f8573ffffffffffffffffffffffffffffffffffffffff1673ffffffffffffffffffffffffffffffffffffffff1681526020019081526020015f205f820151815f01556020820151816001015560408201518160020155606082015181600301556080820151816004015f6101000a81548173ffffffffffffffffffffffffffffffffffffffff021916908373ffffffffffffffffffffffffffffffffffffffff16021790555060a08201518160040160146101000a81548167ffffffffffffffff021916908367ffffffffffffffff16021790555060c082015181600401601c6101000a81548163ffffffff021916908363ffffffff1602179055509050508260085f8381526020019081526020015f205f6101000a81548173ffffffffffffffffffffffffffffffffffffffff021916908373ffffffffffffffffffffffffffffffffffffffff1602179055508273ffffffffffffffffffffffffffffffffffffffff167f84a7b484f1c34e597d3331ce6ffc8714cf38182106d15c73d90ed934299f0c5b898989898988604051611247969594939291906130d5565b60405180910390a250505061125a61191c565b5050505050565b5f60085f8481526020019081526020015f205f9054906101000a900473ffffffffffffffffffffffffffffffffffffffff1690505f73ffffffffffffffffffffffffffffffffffffffff168173ffffffffffffffffffffffffffffffffffffffff16036112cc575f80fd5b5f60075f8373ffffffffffffffffffffffffffffffffffffffff1673ffffffffffffffffffffffffffffffffffffffff1681526020019081526020015f2090506103e88160040160149054906101000a900467ffffffffffffffff166113329190612cdd565b67ffffffffffffffff16431115611347575f80fd5b5f805f8084600401601c9054906101000a900463ffffffff1663ffffffff1667ffffffffffffffff81111561137f5761137e612660565b5b6040519080825280602002602001820160405280156113ad5781602001602082028036833780820191505090505b5090505f85600401601c9054906101000a900463ffffffff1663ffffffff1667ffffffffffffffff8111156113e5576113e4612660565b5b6040519080825280602002602001820160405280156114135781602001602082028036833780820191505090505b5090505f86600401601c9054906101000a900463ffffffff1663ffffffff1667ffffffffffffffff81111561144b5761144a612660565b5b6040519080825280602002602001820160405280156114795781602001602082028036833780820191505090505b5090505f876004015f9054906101000a900473ffffffffffffffffffffffffffffffffffffffff1690505f94505b87600401601c9054906101000a900463ffffffff1663ffffffff168563ffffffff1610156116f95787600101548612156116f95787600201546114e990613134565b8613156116f957600a5f9054906101000a900461ffff1661ffff168a8663ffffffff168151811061151d5761151c612bb3565b5b602002602001015161152f919061317a565b848663ffffffff168151811061154857611547612bb3565b5b602002602001019061ffff16908161ffff168152505060095f858763ffffffff168151811061157a57611579612bb3565b5b602002602001015161ffff1661ffff1681526020019081526020015f205f9054906101000a900461ffff1661ffff16838663ffffffff16815181106115c2576115c1612bb3565b5b6020026020010181815250505f838663ffffffff16815181106115e8576115e7612bb3565b5b6020026020010151146116d457875f0154838663ffffffff168151811061161257611611612bb3565b5b6020026020010151895f01546116289190612d6f565b61163291906131aa565b8661163d91906131ea565b9550828563ffffffff168151811061165857611657612bb3565b5b6020026020010151885f015461166e9190612d6f565b876116799190613041565b9650828563ffffffff168151811061169457611693612bb3565b5b6020026020010151885f01546116aa9190612d6f565b828663ffffffff16815181106116c3576116c2612bb3565b5b6020026020010181815250506116e6565b875f0154866116e391906131aa565b95505b84806116f19061322b565b9550506114a7565b875f01548589600401601c9054906101000a900463ffffffff1661171d9190613256565b63ffffffff1661172d9190612d6f565b876117389190613041565b96508873ffffffffffffffffffffffffffffffffffffffff167f92effafb76f06eb770800ec9b38dbc4c3ad53f950062c07b4c7f9ced43d0f9f8895f015489848888888c60405161178f9796959493929190613335565b60405180910390a26117c98189600401601c9054906101000a900463ffffffff1663ffffffff168a5f01546117c49190612d6f565b611f7c565b60085f8c81526020019081526020015f205f6101000a81549073ffffffffffffffffffffffffffffffffffffffff021916905560075f8a73ffffffffffffffffffffffffffffffffffffffff1673ffffffffffffffffffffffffffffffffffffffff1681526020019081526020015f205f8082015f9055600182015f9055600282015f9055600382015f9055600482015f6101000a81549073ffffffffffffffffffffffffffffffffffffffff02191690556004820160146101000a81549067ffffffffffffffff021916905560048201601c6101000a81549063ffffffff021916905550505f87146118c2576118c18988836120c6565b5b5050505050505050505050565b60025f5403611913576040517f08c379a000000000000000000000000000000000000000000000000000000000815260040161190a90613411565b60405180910390fd5b60025f81905550565b60015f81905550565b5f60145f3690501015801561193f575061193e3361065f565b5b1561195357601436033560601c9050611957565b3390505b90565b6119d4838473ffffffffffffffffffffffffffffffffffffffff1663a9059cbb858560405160240161198d92919061342f565b604051602081830303815290604052915060e01b6020820180517bffffffffffffffffffffffffffffffffffffffffffffffffffffffff8381831617835250505050612156565b505050565b5f8073ffffffffffffffffffffffffffffffffffffffff168273ffffffffffffffffffffffffffffffffffffffff1603611a4d5760065f9054906101000a900473ffffffffffffffffffffffffffffffffffffffff1673ffffffffffffffffffffffffffffffffffffffff16319050611ae9565b8173ffffffffffffffffffffffffffffffffffffffff166370a0823160065f9054906101000a900473ffffffffffffffffffffffffffffffffffffffff166040518263ffffffff1660e01b8152600401611aa79190612a01565b602060405180830381865afa158015611ac2573d5f803e3d5ffd5b505050506040513d601f19601f82011682018060405250810190611ae69190613456565b90505b5f6305f5e10061d9da83611afd9190612d6f565b611b079190613011565b905080841115611b505783816040517fd53662aa000000000000000000000000000000000000000000000000000000008152600401611b47929190613481565b60405180910390fd5b50505050565b5f60065f9054906101000a900473ffffffffffffffffffffffffffffffffffffffff1673ffffffffffffffffffffffffffffffffffffffff1663bfd7f9cc30876040518363ffffffff1660e01b8152600401611bb3929190612c36565b602060405180830381865afa158015611bce573d5f803e3d5ffd5b505050506040513d601f19601f82011682018060405250810190611bf291906134d2565b611c28576040517f51c3b94f00000000000000000000000000000000000000000000000000000000815260040160405180910390fd5b5f8403611c61576040517f07375c8400000000000000000000000000000000000000000000000000000000815260040160405180910390fd5b5f8060065f9054906101000a900473ffffffffffffffffffffffffffffffffffffffff1673ffffffffffffffffffffffffffffffffffffffff16630a5748a8856040518263ffffffff1660e01b8152600401611cbd9190612a01565b6040805180830381865afa158015611cd7573d5f803e3d5ffd5b505050506040513d601f19601f82011682018060405250810190611cfb91906134fd565b915091508115611d4257806040517f6c2775f5000000000000000000000000000000000000000000000000000000008152600401611d399190612a87565b60405180910390fd5b611d4b85610ce6565b92505f73ffffffffffffffffffffffffffffffffffffffff168773ffffffffffffffffffffffffffffffffffffffff1603611e01578286611d8c9190613041565b341015611ddd578286611d9f9190613041565b346040517fde9b74a1000000000000000000000000000000000000000000000000000000008152600401611dd4929190613481565b60405180910390fd5b611dfc8684611dec9190613041565b34611df7919061353b565b6121eb565b611e8a565b82341015611e485782346040517fde9b74a1000000000000000000000000000000000000000000000000000000008152600401611e3f929190613481565b60405180910390fd5b611e758430888a73ffffffffffffffffffffffffffffffffffffffff16612297909392919063ffffffff16565b611e898334611e84919061353b565b6121eb565b5b8260015f828254611e9b9190613041565b925050819055505050949350505050565b5f60025f9054906101000a900473ffffffffffffffffffffffffffffffffffffffff1673ffffffffffffffffffffffffffffffffffffffff16635d3b1d307fd729dc84e21ae57ffb6be0053bf2b0668aa2aaf300a2a7b2ddf7dc0bb6e875a86102406003622625a0876040518663ffffffff1660e01b8152600401611f35959493929190613666565b6020604051808303815f875af1158015611f51573d5f803e3d5ffd5b505050506040513d601f19601f82011682018060405250810190611f759190613456565b9050919050565b5f73ffffffffffffffffffffffffffffffffffffffff168273ffffffffffffffffffffffffffffffffffffffff1603612075575f60065f9054906101000a900473ffffffffffffffffffffffffffffffffffffffff1673ffffffffffffffffffffffffffffffffffffffff1682604051611ff590612cc9565b5f6040518083038185875af1925050503d805f811461202f576040519150601f19603f3d011682016040523d82523d5f602084013e612034565b606091505b505090508061206f576040517ff0c49d4400000000000000000000000000000000000000000000000000000000815260040160405180910390fd5b506120c2565b6120c160065f9054906101000a900473ffffffffffffffffffffffffffffffffffffffff16828473ffffffffffffffffffffffffffffffffffffffff1661195a9092919063ffffffff16565b5b5050565b60065f9054906101000a900473ffffffffffffffffffffffffffffffffffffffff1673ffffffffffffffffffffffffffffffffffffffff16636c025ec28484846040518463ffffffff1660e01b8152600401612124939291906136b7565b5f604051808303815f87803b15801561213b575f80fd5b505af115801561214d573d5f803e3d5ffd5b50505050505050565b5f612180828473ffffffffffffffffffffffffffffffffffffffff1661231990919063ffffffff16565b90505f8151141580156121a45750808060200190518101906121a291906134d2565b155b156121e657826040517f5274afe70000000000000000000000000000000000000000000000000000000081526004016121dd9190612a01565b60405180910390fd5b505050565b5f810315612294575f3373ffffffffffffffffffffffffffffffffffffffff168260405161221890612cc9565b5f6040518083038185875af1925050503d805f8114612252576040519150601f19603f3d011682016040523d82523d5f602084013e612257565b606091505b5050905080612292576040517ff0c49d4400000000000000000000000000000000000000000000000000000000815260040160405180910390fd5b505b50565b612313848573ffffffffffffffffffffffffffffffffffffffff166323b872dd8686866040516024016122cc939291906136ec565b604051602081830303815290604052915060e01b6020820180517bffffffffffffffffffffffffffffffffffffffffffffffffffffffff8381831617835250505050612156565b50505050565b606061232683835f61232e565b905092915050565b60608147101561237557306040517fcd78605900000000000000000000000000000000000000000000000000000000815260040161236c9190612a01565b60405180910390fd5b5f808573ffffffffffffffffffffffffffffffffffffffff16848660405161239d9190613783565b5f6040518083038185875af1925050503d805f81146123d7576040519150601f19603f3d011682016040523d82523d5f602084013e6123dc565b606091505b50915091506123ec8683836123f7565b925050509392505050565b60608261240c5761240782612484565b61247c565b5f825114801561243257505f8473ffffffffffffffffffffffffffffffffffffffff163b145b1561247457836040517f9996b31500000000000000000000000000000000000000000000000000000000815260040161246b9190612a01565b60405180910390fd5b81905061247d565b5b9392505050565b5f815111156124965780518082602001fd5b6040517f1425ea4200000000000000000000000000000000000000000000000000000000815260040160405180910390fd5b6040518060e001604052805f81526020015f81526020015f81526020015f81526020015f73ffffffffffffffffffffffffffffffffffffffff1681526020015f67ffffffffffffffff1681526020015f63ffffffff1681525090565b5f81519050919050565b5f82825260208201905092915050565b5f819050602082019050919050565b5f61ffff82169050919050565b6125638161254d565b82525050565b5f612574838361255a565b60208301905092915050565b5f602082019050919050565b5f61259682612524565b6125a0818561252e565b93506125ab8361253e565b805f5b838110156125db5781516125c28882612569565b97506125cd83612580565b9250506001810190506125ae565b5085935050505092915050565b5f6020820190508181035f830152612600818461258c565b905092915050565b5f604051905090565b5f80fd5b5f80fd5b5f819050919050565b61262b81612619565b8114612635575f80fd5b50565b5f8135905061264681612622565b92915050565b5f80fd5b5f601f19601f8301169050919050565b7f4e487b71000000000000000000000000000000000000000000000000000000005f52604160045260245ffd5b61269682612650565b810181811067ffffffffffffffff821117156126b5576126b4612660565b5b80604052505050565b5f6126c7612608565b90506126d3828261268d565b919050565b5f67ffffffffffffffff8211156126f2576126f1612660565b5b602082029050602081019050919050565b5f80fd5b5f612719612714846126d8565b6126be565b9050808382526020820190506020840283018581111561273c5761273b612703565b5b835b8181101561276557806127518882612638565b84526020840193505060208101905061273e565b5050509392505050565b5f82601f8301126127835761278261264c565b5b8135612793848260208601612707565b91505092915050565b5f80604083850312156127b2576127b1612611565b5b5f6127bf85828601612638565b925050602083013567ffffffffffffffff8111156127e0576127df612615565b5b6127ec8582860161276f565b9150509250929050565b5f73ffffffffffffffffffffffffffffffffffffffff82169050919050565b5f61281f826127f6565b9050919050565b61282f81612815565b8114612839575f80fd5b50565b5f8135905061284a81612826565b92915050565b5f6020828403121561286557612864612611565b5b5f6128728482850161283c565b91505092915050565b61288481612619565b82525050565b61289381612815565b82525050565b5f67ffffffffffffffff82169050919050565b6128b581612899565b82525050565b5f63ffffffff82169050919050565b6128d3816128bb565b82525050565b60e082015f8201516128ed5f85018261287b565b506020820151612900602085018261287b565b506040820151612913604085018261287b565b506060820151612926606085018261287b565b506080820151612939608085018261288a565b5060a082015161294c60a08501826128ac565b5060c082015161295f60c08501826128ca565b50505050565b5f60e0820190506129785f8301846128d9565b92915050565b5f819050919050565b5f6129a161299c612997846127f6565b61297e565b6127f6565b9050919050565b5f6129b282612987565b9050919050565b5f6129c3826129a8565b9050919050565b6129d3816129b9565b82525050565b5f6020820190506129ec5f8301846129ca565b92915050565b6129fb81612815565b82525050565b5f602082019050612a145f8301846129f2565b92915050565b5f8115159050919050565b612a2e81612a1a565b82525050565b5f602082019050612a475f830184612a25565b92915050565b5f60208284031215612a6257612a61612611565b5b5f612a6f84828501612638565b91505092915050565b612a8181612619565b82525050565b5f602082019050612a9a5f830184612a78565b92915050565b5f612aaa826129a8565b9050919050565b612aba81612aa0565b82525050565b5f602082019050612ad35f830184612ab1565b92915050565b5f612ae3826129a8565b9050919050565b612af381612ad9565b82525050565b5f602082019050612b0c5f830184612aea565b92915050565b612b1b816128bb565b8114612b25575f80fd5b50565b5f81359050612b3681612b12565b92915050565b5f805f805f60a08688031215612b5557612b54612611565b5b5f612b6288828901612638565b9550506020612b738882890161283c565b9450506040612b8488828901612b28565b9350506060612b9588828901612638565b9250506080612ba688828901612638565b9150509295509295909350565b7f4e487b71000000000000000000000000000000000000000000000000000000005f52603260045260245ffd5b7f4e487b71000000000000000000000000000000000000000000000000000000005f52601160045260245ffd5b5f612c178261254d565b915061ffff8203612c2b57612c2a612be0565b5b600182019050919050565b5f604082019050612c495f8301856129f2565b612c5660208301846129f2565b9392505050565b5f81519050612c6b81612826565b92915050565b5f60208284031215612c8657612c85612611565b5b5f612c9384828501612c5d565b91505092915050565b5f81905092915050565b50565b5f612cb45f83612c9c565b9150612cbf82612ca6565b5f82019050919050565b5f612cd382612ca9565b9150819050919050565b5f612ce782612899565b9150612cf283612899565b9250828201905067ffffffffffffffff811115612d1257612d11612be0565b5b92915050565b5f612d32612d2d612d2884612899565b61297e565b612619565b9050919050565b612d4281612d18565b82525050565b5f604082019050612d5b5f830185612a78565b612d686020830184612d39565b9392505050565b5f612d7982612619565b9150612d8483612619565b9250828202612d9281612619565b91508282048414831517612da957612da8612be0565b5b5092915050565b5f604082019050612dc35f830185612a78565b612dd060208301846129f2565b9392505050565b5f69ffffffffffffffffffff82169050919050565b612df581612dd7565b8114612dff575f80fd5b50565b5f81519050612e1081612dec565b92915050565b5f819050919050565b612e2881612e16565b8114612e32575f80fd5b50565b5f81519050612e4381612e1f565b92915050565b5f81519050612e5781612622565b92915050565b5f805f805f60a08688031215612e7657612e75612611565b5b5f612e8388828901612e02565b9550506020612e9488828901612e35565b9450506040612ea588828901612e49565b9350506060612eb688828901612e49565b9250506080612ec788828901612e02565b9150509295509295909350565b5f81519050612ee281612b12565b92915050565b5f62ffffff82169050919050565b612eff81612ee8565b8114612f09575f80fd5b50565b5f81519050612f1a81612ef6565b92915050565b5f805f805f805f805f6101208a8c031215612f3e57612f3d612611565b5b5f612f4b8c828d01612ed4565b9950506020612f5c8c828d01612ed4565b9850506040612f6d8c828d01612ed4565b9750506060612f7e8c828d01612ed4565b9650506080612f8f8c828d01612ed4565b95505060a0612fa08c828d01612f0c565b94505060c0612fb18c828d01612f0c565b93505060e0612fc28c828d01612f0c565b925050610100612fd48c828d01612f0c565b9150509295985092959850929598565b7f4e487b71000000000000000000000000000000000000000000000000000000005f52601260045260245ffd5b5f61301b82612619565b915061302683612619565b92508261303657613035612fe4565b5b828204905092915050565b5f61304b82612619565b915061305683612619565b925082820190508082111561306e5761306d612be0565b5b92915050565b5f819050919050565b5f61309761309261308d84613074565b61297e565b612619565b9050919050565b6130a78161307d565b82525050565b5f6020820190506130c05f83018461309e565b92915050565b6130cf816128bb565b82525050565b5f60c0820190506130e85f830189612a78565b6130f560208301886129f2565b61310260408301876130c6565b61310f6060830186612a78565b61311c6080830185612a78565b61312960a0830184612a78565b979650505050505050565b5f61313e82612e16565b91507f800000000000000000000000000000000000000000000000000000000000000082036131705761316f612be0565b5b815f039050919050565b5f61318482612619565b915061318f83612619565b92508261319f5761319e612fe4565b5b828206905092915050565b5f6131b482612e16565b91506131bf83612e16565b925082820390508181125f8412168282135f8512151617156131e4576131e3612be0565b5b92915050565b5f6131f482612e16565b91506131ff83612e16565b92508282019050828112155f8312168382125f84121516171561322557613224612be0565b5b92915050565b5f613235826128bb565b915063ffffffff820361324b5761324a612be0565b5b600182019050919050565b5f613260826128bb565b915061326b836128bb565b9250828203905063ffffffff81111561328757613286612be0565b5b92915050565b5f81519050919050565b5f82825260208201905092915050565b5f819050602082019050919050565b5f6132c1838361287b565b60208301905092915050565b5f602082019050919050565b5f6132e38261328d565b6132ed8185613297565b93506132f8836132a7565b805f5b8381101561332857815161330f88826132b6565b975061331a836132cd565b9250506001810190506132fb565b5085935050505092915050565b5f60e0820190506133485f83018a612a78565b6133556020830189612a78565b61336260408301886129f2565b8181036060830152613374818761258c565b9050818103608083015261338881866132d9565b905081810360a083015261339c81856132d9565b90506133ab60c08301846130c6565b98975050505050505050565b5f82825260208201905092915050565b7f5265656e7472616e637947756172643a207265656e7472616e742063616c6c005f82015250565b5f6133fb601f836133b7565b9150613406826133c7565b602082019050919050565b5f6020820190508181035f830152613428816133ef565b9050919050565b5f6040820190506134425f8301856129f2565b61344f6020830184612a78565b9392505050565b5f6020828403121561346b5761346a612611565b5b5f61347884828501612e49565b91505092915050565b5f6040820190506134945f830185612a78565b6134a16020830184612a78565b9392505050565b6134b181612a1a565b81146134bb575f80fd5b50565b5f815190506134cc816134a8565b92915050565b5f602082840312156134e7576134e6612611565b5b5f6134f4848285016134be565b91505092915050565b5f806040838503121561351357613512612611565b5b5f613520858286016134be565b925050602061353185828601612e49565b9150509250929050565b5f61354582612619565b915061355083612619565b925082820390508181111561356857613567612be0565b5b92915050565b5f819050919050565b5f819050919050565b5f815f1b9050919050565b5f6135a56135a061359b8461356e565b613580565b613577565b9050919050565b6135b58161358b565b82525050565b5f819050919050565b5f6135de6135d96135d4846135bb565b61297e565b612899565b9050919050565b6135ee816135c4565b82525050565b5f819050919050565b5f61361761361261360d846135f4565b61297e565b61254d565b9050919050565b613627816135fd565b82525050565b5f819050919050565b5f61365061364b6136468461362d565b61297e565b6128bb565b9050919050565b61366081613636565b82525050565b5f60a0820190506136795f8301886135ac565b61368660208301876135e5565b613693604083018661361e565b6136a06060830185613657565b6136ad60808301846130c6565b9695505050505050565b5f6060820190506136ca5f8301866129f2565b6136d76020830185612a78565b6136e460408301846129f2565b949350505050565b5f6060820190506136ff5f8301866129f2565b61370c60208301856129f2565b6137196040830184612a78565b949350505050565b5f81519050919050565b5f5b8381101561374857808201518184015260208101905061372d565b5f8484015250505050565b5f61375d82613721565b6137678185612c9c565b935061377781856020860161372b565b80840191505092915050565b5f61378e8284613753565b91508190509291505056fea264697066735822122003628a259356fd116dacdf7e605c0ff61d8124c2b027357a28d531651f0e978c64736f6c63430008140033",
			"opcodes": "PUSH1 0x80 PUSH1 0x40 MSTORE CALLVALUE DUP1 ISZERO PUSH3 0x10 JUMPI PUSH0 DUP1 REVERT JUMPDEST POP PUSH1 0x40 MLOAD PUSH3 0x3E27 CODESIZE SUB DUP1 PUSH3 0x3E27 DUP4 CODECOPY DUP2 DUP2 ADD PUSH1 0x40 MSTORE DUP2 ADD SWAP1 PUSH3 0x36 SWAP2 SWAP1 PUSH3 0x4D6 JUMP JUMPDEST PUSH1 0x1 PUSH0 DUP2 SWAP1 SSTORE POP DUP7 PUSH1 0x6 PUSH0 PUSH2 0x100 EXP DUP2 SLOAD DUP2 PUSH20 0xFFFFFFFFFFFFFFFFFFFFFFFFFFFFFFFFFFFFFFFF MUL NOT AND SWAP1 DUP4 PUSH20 0xFFFFFFFFFFFFFFFFFFFFFFFFFFFFFFFFFFFFFFFF AND MUL OR SWAP1 SSTORE POP DUP6 PUSH1 0x5 PUSH0 PUSH2 0x100 EXP DUP2 SLOAD DUP2 PUSH20 0xFFFFFFFFFFFFFFFFFFFFFFFFFFFFFFFFFFFFFFFF MUL NOT AND SWAP1 DUP4 PUSH20 0xFFFFFFFFFFFFFFFFFFFFFFFFFFFFFFFFFFFFFFFF AND MUL OR SWAP1 SSTORE POP DUP5 PUSH1 0x4 PUSH0 PUSH2 0x100 EXP DUP2 SLOAD DUP2 PUSH20 0xFFFFFFFFFFFFFFFFFFFFFFFFFFFFFFFFFFFFFFFF MUL NOT AND SWAP1 DUP4 PUSH20 0xFFFFFFFFFFFFFFFFFFFFFFFFFFFFFFFFFFFFFFFF AND MUL OR SWAP1 SSTORE POP DUP6 PUSH1 0x2 PUSH0 PUSH2 0x100 EXP DUP2 SLOAD DUP2 PUSH20 0xFFFFFFFFFFFFFFFFFFFFFFFFFFFFFFFFFFFFFFFF MUL NOT AND SWAP1 DUP4 PUSH20 0xFFFFFFFFFFFFFFFFFFFFFFFFFFFFFFFFFFFFFFFF AND MUL OR SWAP1 SSTORE POP DUP4 PUSH1 0x3 PUSH0 PUSH2 0x100 EXP DUP2 SLOAD DUP2 PUSH20 0xFFFFFFFFFFFFFFFFFFFFFFFFFFFFFFFFFFFFFFFF MUL NOT AND SWAP1 DUP4 PUSH20 0xFFFFFFFFFFFFFFFFFFFFFFFFFFFFFFFFFFFFFFFF AND MUL OR SWAP1 SSTORE POP PUSH3 0x190 DUP4 DUP4 DUP4 PUSH3 0x19D PUSH1 0x20 SHL PUSH1 0x20 SHR JUMP JUMPDEST POP POP POP POP POP POP POP PUSH3 0x64A JUMP JUMPDEST PUSH0 JUMPDEST PUSH1 0xA PUSH0 SWAP1 SLOAD SWAP1 PUSH2 0x100 EXP SWAP1 DIV PUSH2 0xFFFF AND PUSH2 0xFFFF AND DUP2 PUSH2 0xFFFF AND LT ISZERO PUSH3 0x1FE JUMPI PUSH1 0x9 PUSH0 DUP3 PUSH2 0xFFFF AND PUSH2 0xFFFF AND DUP2 MSTORE PUSH1 0x20 ADD SWAP1 DUP2 MSTORE PUSH1 0x20 ADD PUSH0 KECCAK256 PUSH0 PUSH2 0x100 EXP DUP2 SLOAD SWAP1 PUSH2 0xFFFF MUL NOT AND SWAP1 SSTORE DUP1 DUP1 PUSH3 0x1F5 SWAP1 PUSH3 0x5EF JUMP JUMPDEST SWAP2 POP POP PUSH3 0x19F JUMP JUMPDEST POP DUP1 PUSH1 0xA PUSH0 PUSH2 0x100 EXP DUP2 SLOAD DUP2 PUSH2 0xFFFF MUL NOT AND SWAP1 DUP4 PUSH2 0xFFFF AND MUL OR SWAP1 SSTORE POP PUSH0 JUMPDEST DUP4 MLOAD DUP2 PUSH2 0xFFFF AND LT ISZERO PUSH3 0x2B6 JUMPI DUP4 DUP2 PUSH2 0xFFFF AND DUP2 MLOAD DUP2 LT PUSH3 0x245 JUMPI PUSH3 0x244 PUSH3 0x61D JUMP JUMPDEST JUMPDEST PUSH1 0x20 MUL PUSH1 0x20 ADD ADD MLOAD PUSH1 0x9 PUSH0 DUP6 DUP5 PUSH2 0xFFFF AND DUP2 MLOAD DUP2 LT PUSH3 0x26A JUMPI PUSH3 0x269 PUSH3 0x61D JUMP JUMPDEST JUMPDEST PUSH1 0x20 MUL PUSH1 0x20 ADD ADD MLOAD PUSH2 0xFFFF AND PUSH2 0xFFFF AND DUP2 MSTORE PUSH1 0x20 ADD SWAP1 DUP2 MSTORE PUSH1 0x20 ADD PUSH0 KECCAK256 PUSH0 PUSH2 0x100 EXP DUP2 SLOAD DUP2 PUSH2 0xFFFF MUL NOT AND SWAP1 DUP4 PUSH2 0xFFFF AND MUL OR SWAP1 SSTORE POP DUP1 DUP1 PUSH3 0x2AD SWAP1 PUSH3 0x5EF JUMP JUMPDEST SWAP2 POP POP PUSH3 0x21D JUMP JUMPDEST POP POP POP POP JUMP JUMPDEST PUSH0 PUSH1 0x40 MLOAD SWAP1 POP SWAP1 JUMP JUMPDEST PUSH0 DUP1 REVERT JUMPDEST PUSH0 DUP1 REVERT JUMPDEST PUSH0 PUSH20 0xFFFFFFFFFFFFFFFFFFFFFFFFFFFFFFFFFFFFFFFF DUP3 AND SWAP1 POP SWAP2 SWAP1 POP JUMP JUMPDEST PUSH0 PUSH3 0x2F8 DUP3 PUSH3 0x2CD JUMP JUMPDEST SWAP1 POP SWAP2 SWAP1 POP JUMP JUMPDEST PUSH3 0x30A DUP2 PUSH3 0x2EC JUMP JUMPDEST DUP2 EQ PUSH3 0x315 JUMPI PUSH0 DUP1 REVERT JUMPDEST POP JUMP JUMPDEST PUSH0 DUP2 MLOAD SWAP1 POP PUSH3 0x328 DUP2 PUSH3 0x2FF JUMP JUMPDEST SWAP3 SWAP2 POP POP JUMP JUMPDEST PUSH0 DUP1 REVERT JUMPDEST PUSH0 PUSH1 0x1F NOT PUSH1 0x1F DUP4 ADD AND SWAP1 POP SWAP2 SWAP1 POP JUMP JUMPDEST PUSH32 0x4E487B7100000000000000000000000000000000000000000000000000000000 PUSH0 MSTORE PUSH1 0x41 PUSH1 0x4 MSTORE PUSH1 0x24 PUSH0 REVERT JUMPDEST PUSH3 0x37A DUP3 PUSH3 0x332 JUMP JUMPDEST DUP2 ADD DUP2 DUP2 LT PUSH8 0xFFFFFFFFFFFFFFFF DUP3 GT OR ISZERO PUSH3 0x39C JUMPI PUSH3 0x39B PUSH3 0x342 JUMP JUMPDEST JUMPDEST DUP1 PUSH1 0x40 MSTORE POP POP POP JUMP JUMPDEST PUSH0 PUSH3 0x3B0 PUSH3 0x2BC JUMP JUMPDEST SWAP1 POP PUSH3 0x3BE DUP3 DUP3 PUSH3 0x36F JUMP JUMPDEST SWAP2 SWAP1 POP JUMP JUMPDEST PUSH0 PUSH8 0xFFFFFFFFFFFFFFFF DUP3 GT ISZERO PUSH3 0x3E0 JUMPI PUSH3 0x3DF PUSH3 0x342 JUMP JUMPDEST JUMPDEST PUSH1 0x20 DUP3 MUL SWAP1 POP PUSH1 0x20 DUP2 ADD SWAP1 POP SWAP2 SWAP1 POP JUMP JUMPDEST PUSH0 DUP1 REVERT JUMPDEST PUSH0 PUSH2 0xFFFF DUP3 AND SWAP1 POP SWAP2 SWAP1 POP JUMP JUMPDEST PUSH3 0x40D DUP2 PUSH3 0x3F5 JUMP JUMPDEST DUP2 EQ PUSH3 0x418 JUMPI PUSH0 DUP1 REVERT JUMPDEST POP JUMP JUMPDEST PUSH0 DUP2 MLOAD SWAP1 POP PUSH3 0x42B DUP2 PUSH3 0x402 JUMP JUMPDEST SWAP3 SWAP2 POP POP JUMP JUMPDEST PUSH0 PUSH3 0x447 PUSH3 0x441 DUP5 PUSH3 0x3C3 JUMP JUMPDEST PUSH3 0x3A5 JUMP JUMPDEST SWAP1 POP DUP1 DUP4 DUP3 MSTORE PUSH1 0x20 DUP3 ADD SWAP1 POP PUSH1 0x20 DUP5 MUL DUP4 ADD DUP6 DUP2 GT ISZERO PUSH3 0x46D JUMPI PUSH3 0x46C PUSH3 0x3F1 JUMP JUMPDEST JUMPDEST DUP4 JUMPDEST DUP2 DUP2 LT ISZERO PUSH3 0x49A JUMPI DUP1 PUSH3 0x485 DUP9 DUP3 PUSH3 0x41B JUMP JUMPDEST DUP5 MSTORE PUSH1 0x20 DUP5 ADD SWAP4 POP POP PUSH1 0x20 DUP2 ADD SWAP1 POP PUSH3 0x46F JUMP JUMPDEST POP POP POP SWAP4 SWAP3 POP POP POP JUMP JUMPDEST PUSH0 DUP3 PUSH1 0x1F DUP4 ADD SLT PUSH3 0x4BB JUMPI PUSH3 0x4BA PUSH3 0x32E JUMP JUMPDEST JUMPDEST DUP2 MLOAD PUSH3 0x4CD DUP5 DUP3 PUSH1 0x20 DUP7 ADD PUSH3 0x431 JUMP JUMPDEST SWAP2 POP POP SWAP3 SWAP2 POP POP JUMP JUMPDEST PUSH0 DUP1 PUSH0 DUP1 PUSH0 DUP1 PUSH0 PUSH1 0xE0 DUP9 DUP11 SUB SLT ISZERO PUSH3 0x4F4 JUMPI PUSH3 0x4F3 PUSH3 0x2C5 JUMP JUMPDEST JUMPDEST PUSH0 PUSH3 0x503 DUP11 DUP3 DUP12 ADD PUSH3 0x318 JUMP JUMPDEST SWAP8 POP POP PUSH1 0x20 PUSH3 0x516 DUP11 DUP3 DUP12 ADD PUSH3 0x318 JUMP JUMPDEST SWAP7 POP POP PUSH1 0x40 PUSH3 0x529 DUP11 DUP3 DUP12 ADD PUSH3 0x318 JUMP JUMPDEST SWAP6 POP POP PUSH1 0x60 PUSH3 0x53C DUP11 DUP3 DUP12 ADD PUSH3 0x318 JUMP JUMPDEST SWAP5 POP POP PUSH1 0x80 DUP9 ADD MLOAD PUSH8 0xFFFFFFFFFFFFFFFF DUP2 GT ISZERO PUSH3 0x560 JUMPI PUSH3 0x55F PUSH3 0x2C9 JUMP JUMPDEST JUMPDEST PUSH3 0x56E DUP11 DUP3 DUP12 ADD PUSH3 0x4A4 JUMP JUMPDEST SWAP4 POP POP PUSH1 0xA0 DUP9 ADD MLOAD PUSH8 0xFFFFFFFFFFFFFFFF DUP2 GT ISZERO PUSH3 0x592 JUMPI PUSH3 0x591 PUSH3 0x2C9 JUMP JUMPDEST JUMPDEST PUSH3 0x5A0 DUP11 DUP3 DUP12 ADD PUSH3 0x4A4 JUMP JUMPDEST SWAP3 POP POP PUSH1 0xC0 PUSH3 0x5B3 DUP11 DUP3 DUP12 ADD PUSH3 0x41B JUMP JUMPDEST SWAP2 POP POP SWAP3 SWAP6 SWAP9 SWAP2 SWAP5 SWAP8 POP SWAP3 SWAP6 POP JUMP JUMPDEST PUSH32 0x4E487B7100000000000000000000000000000000000000000000000000000000 PUSH0 MSTORE PUSH1 0x11 PUSH1 0x4 MSTORE PUSH1 0x24 PUSH0 REVERT JUMPDEST PUSH0 PUSH3 0x5FB DUP3 PUSH3 0x3F5 JUMP JUMPDEST SWAP2 POP PUSH2 0xFFFF DUP3 SUB PUSH3 0x612 JUMPI PUSH3 0x611 PUSH3 0x5C2 JUMP JUMPDEST JUMPDEST PUSH1 0x1 DUP3 ADD SWAP1 POP SWAP2 SWAP1 POP JUMP JUMPDEST PUSH32 0x4E487B7100000000000000000000000000000000000000000000000000000000 PUSH0 MSTORE PUSH1 0x32 PUSH1 0x4 MSTORE PUSH1 0x24 PUSH0 REVERT JUMPDEST PUSH2 0x37CF DUP1 PUSH3 0x658 PUSH0 CODECOPY PUSH0 RETURN INVALID PUSH1 0x80 PUSH1 0x40 MSTORE PUSH1 0x4 CALLDATASIZE LT PUSH2 0xDC JUMPI PUSH0 CALLDATALOAD PUSH1 0xE0 SHR DUP1 PUSH4 0x7127698F GT PUSH2 0x7E JUMPI DUP1 PUSH4 0x953995EA GT PUSH2 0x58 JUMPI DUP1 PUSH4 0x953995EA EQ PUSH2 0x2A2 JUMPI DUP1 PUSH4 0xAD178361 EQ PUSH2 0x2CC JUMPI DUP1 PUSH4 0xD0BCFC0C EQ PUSH2 0x2F6 JUMPI DUP1 PUSH4 0xF26C05F2 EQ PUSH2 0x320 JUMPI PUSH2 0xDC JUMP JUMPDEST DUP1 PUSH4 0x7127698F EQ PUSH2 0x226 JUMPI DUP1 PUSH4 0x8BD16114 EQ PUSH2 0x23C JUMPI DUP1 PUSH4 0x8D7C16D2 EQ PUSH2 0x278 JUMPI PUSH2 0xDC JUMP JUMPDEST DUP1 PUSH4 0x4DD189D5 GT PUSH2 0xBA JUMPI DUP1 PUSH4 0x4DD189D5 EQ PUSH2 0x16E JUMPI DUP1 PUSH4 0x56C022BB EQ PUSH2 0x198 JUMPI DUP1 PUSH4 0x572B6C05 EQ PUSH2 0x1C2 JUMPI DUP1 PUSH4 0x63DC4EF5 EQ PUSH2 0x1FE JUMPI PUSH2 0xDC JUMP JUMPDEST DUP1 PUSH4 0x1734E50A EQ PUSH2 0xE0 JUMPI DUP1 PUSH4 0x1FE543E3 EQ PUSH2 0x10A JUMPI DUP1 PUSH4 0x44E13734 EQ PUSH2 0x132 JUMPI JUMPDEST PUSH0 DUP1 REVERT JUMPDEST CALLVALUE DUP1 ISZERO PUSH2 0xEB JUMPI PUSH0 DUP1 REVERT JUMPDEST POP PUSH2 0xF4 PUSH2 0x33C JUMP JUMPDEST PUSH1 0x40 MLOAD PUSH2 0x101 SWAP2 SWAP1 PUSH2 0x25E8 JUMP JUMPDEST PUSH1 0x40 MLOAD DUP1 SWAP2 SUB SWAP1 RETURN JUMPDEST CALLVALUE DUP1 ISZERO PUSH2 0x115 JUMPI PUSH0 DUP1 REVERT JUMPDEST POP PUSH2 0x130 PUSH1 0x4 DUP1 CALLDATASIZE SUB DUP2 ADD SWAP1 PUSH2 0x12B SWAP2 SWAP1 PUSH2 0x279C JUMP JUMPDEST PUSH2 0x428 JUMP JUMPDEST STOP JUMPDEST CALLVALUE DUP1 ISZERO PUSH2 0x13D JUMPI PUSH0 DUP1 REVERT JUMPDEST POP PUSH2 0x158 PUSH1 0x4 DUP1 CALLDATASIZE SUB DUP2 ADD SWAP1 PUSH2 0x153 SWAP2 SWAP1 PUSH2 0x2850 JUMP JUMPDEST PUSH2 0x4EA JUMP JUMPDEST PUSH1 0x40 MLOAD PUSH2 0x165 SWAP2 SWAP1 PUSH2 0x2965 JUMP JUMPDEST PUSH1 0x40 MLOAD DUP1 SWAP2 SUB SWAP1 RETURN JUMPDEST CALLVALUE DUP1 ISZERO PUSH2 0x179 JUMPI PUSH0 DUP1 REVERT JUMPDEST POP PUSH2 0x182 PUSH2 0x615 JUMP JUMPDEST PUSH1 0x40 MLOAD PUSH2 0x18F SWAP2 SWAP1 PUSH2 0x29D9 JUMP JUMPDEST PUSH1 0x40 MLOAD DUP1 SWAP2 SUB SWAP1 RETURN JUMPDEST CALLVALUE DUP1 ISZERO PUSH2 0x1A3 JUMPI PUSH0 DUP1 REVERT JUMPDEST POP PUSH2 0x1AC PUSH2 0x63A JUMP JUMPDEST PUSH1 0x40 MLOAD PUSH2 0x1B9 SWAP2 SWAP1 PUSH2 0x2A01 JUMP JUMPDEST PUSH1 0x40 MLOAD DUP1 SWAP2 SUB SWAP1 RETURN JUMPDEST CALLVALUE DUP1 ISZERO PUSH2 0x1CD JUMPI PUSH0 DUP1 REVERT JUMPDEST POP PUSH2 0x1E8 PUSH1 0x4 DUP1 CALLDATASIZE SUB DUP2 ADD SWAP1 PUSH2 0x1E3 SWAP2 SWAP1 PUSH2 0x2850 JUMP JUMPDEST PUSH2 0x65F JUMP JUMPDEST PUSH1 0x40 MLOAD PUSH2 0x1F5 SWAP2 SWAP1 PUSH2 0x2A34 JUMP JUMPDEST PUSH1 0x40 MLOAD DUP1 SWAP2 SUB SWAP1 RETURN JUMPDEST CALLVALUE DUP1 ISZERO PUSH2 0x209 JUMPI PUSH0 DUP1 REVERT JUMPDEST POP PUSH2 0x224 PUSH1 0x4 DUP1 CALLDATASIZE SUB DUP2 ADD SWAP1 PUSH2 0x21F SWAP2 SWAP1 PUSH2 0x2850 JUMP JUMPDEST PUSH2 0x6B7 JUMP JUMPDEST STOP JUMPDEST CALLVALUE DUP1 ISZERO PUSH2 0x231 JUMPI PUSH0 DUP1 REVERT JUMPDEST POP PUSH2 0x23A PUSH2 0x904 JUMP JUMPDEST STOP JUMPDEST CALLVALUE DUP1 ISZERO PUSH2 0x247 JUMPI PUSH0 DUP1 REVERT JUMPDEST POP PUSH2 0x262 PUSH1 0x4 DUP1 CALLDATASIZE SUB DUP2 ADD SWAP1 PUSH2 0x25D SWAP2 SWAP1 PUSH2 0x2A4D JUMP JUMPDEST PUSH2 0xCE6 JUMP JUMPDEST PUSH1 0x40 MLOAD PUSH2 0x26F SWAP2 SWAP1 PUSH2 0x2A87 JUMP JUMPDEST PUSH1 0x40 MLOAD DUP1 SWAP2 SUB SWAP1 RETURN JUMPDEST CALLVALUE DUP1 ISZERO PUSH2 0x283 JUMPI PUSH0 DUP1 REVERT JUMPDEST POP PUSH2 0x28C PUSH2 0xE6A JUMP JUMPDEST PUSH1 0x40 MLOAD PUSH2 0x299 SWAP2 SWAP1 PUSH2 0x2A87 JUMP JUMPDEST PUSH1 0x40 MLOAD DUP1 SWAP2 SUB SWAP1 RETURN JUMPDEST CALLVALUE DUP1 ISZERO PUSH2 0x2AD JUMPI PUSH0 DUP1 REVERT JUMPDEST POP PUSH2 0x2B6 PUSH2 0xE70 JUMP JUMPDEST PUSH1 0x40 MLOAD PUSH2 0x2C3 SWAP2 SWAP1 PUSH2 0x2A01 JUMP JUMPDEST PUSH1 0x40 MLOAD DUP1 SWAP2 SUB SWAP1 RETURN JUMPDEST CALLVALUE DUP1 ISZERO PUSH2 0x2D7 JUMPI PUSH0 DUP1 REVERT JUMPDEST POP PUSH2 0x2E0 PUSH2 0xE95 JUMP JUMPDEST PUSH1 0x40 MLOAD PUSH2 0x2ED SWAP2 SWAP1 PUSH2 0x2AC0 JUMP JUMPDEST PUSH1 0x40 MLOAD DUP1 SWAP2 SUB SWAP1 RETURN JUMPDEST CALLVALUE DUP1 ISZERO PUSH2 0x301 JUMPI PUSH0 DUP1 REVERT JUMPDEST POP PUSH2 0x30A PUSH2 0xEBA JUMP JUMPDEST PUSH1 0x40 MLOAD PUSH2 0x317 SWAP2 SWAP1 PUSH2 0x2AF9 JUMP JUMPDEST PUSH1 0x40 MLOAD DUP1 SWAP2 SUB SWAP1 RETURN JUMPDEST PUSH2 0x33A PUSH1 0x4 DUP1 CALLDATASIZE SUB DUP2 ADD SWAP1 PUSH2 0x335 SWAP2 SWAP1 PUSH2 0x2B3C JUMP JUMPDEST PUSH2 0xEDF JUMP JUMPDEST STOP JUMPDEST PUSH1 0x60 PUSH1 0xA PUSH0 SWAP1 SLOAD SWAP1 PUSH2 0x100 EXP SWAP1 DIV PUSH2 0xFFFF AND PUSH2 0xFFFF AND PUSH8 0xFFFFFFFFFFFFFFFF DUP2 GT ISZERO PUSH2 0x36B JUMPI PUSH2 0x36A PUSH2 0x2660 JUMP JUMPDEST JUMPDEST PUSH1 0x40 MLOAD SWAP1 DUP1 DUP3 MSTORE DUP1 PUSH1 0x20 MUL PUSH1 0x20 ADD DUP3 ADD PUSH1 0x40 MSTORE DUP1 ISZERO PUSH2 0x399 JUMPI DUP2 PUSH1 0x20 ADD PUSH1 0x20 DUP3 MUL DUP1 CALLDATASIZE DUP4 CALLDATACOPY DUP1 DUP3 ADD SWAP2 POP POP SWAP1 POP JUMPDEST POP SWAP1 POP PUSH0 JUMPDEST PUSH1 0xA PUSH0 SWAP1 SLOAD SWAP1 PUSH2 0x100 EXP SWAP1 DIV PUSH2 0xFFFF AND PUSH2 0xFFFF AND DUP2 PUSH2 0xFFFF AND LT ISZERO PUSH2 0x424 JUMPI PUSH1 0x9 PUSH0 DUP3 PUSH2 0xFFFF AND PUSH2 0xFFFF AND DUP2 MSTORE PUSH1 0x20 ADD SWAP1 DUP2 MSTORE PUSH1 0x20 ADD PUSH0 KECCAK256 PUSH0 SWAP1 SLOAD SWAP1 PUSH2 0x100 EXP SWAP1 DIV PUSH2 0xFFFF AND DUP3 DUP3 PUSH2 0xFFFF AND DUP2 MLOAD DUP2 LT PUSH2 0x3FB JUMPI PUSH2 0x3FA PUSH2 0x2BB3 JUMP JUMPDEST JUMPDEST PUSH1 0x20 MUL PUSH1 0x20 ADD ADD SWAP1 PUSH2 0xFFFF AND SWAP1 DUP2 PUSH2 0xFFFF AND DUP2 MSTORE POP POP DUP1 DUP1 PUSH2 0x41C SWAP1 PUSH2 0x2C0D JUMP JUMPDEST SWAP2 POP POP PUSH2 0x39E JUMP JUMPDEST POP SWAP1 JUMP JUMPDEST PUSH1 0x2 PUSH0 SWAP1 SLOAD SWAP1 PUSH2 0x100 EXP SWAP1 DIV PUSH20 0xFFFFFFFFFFFFFFFFFFFFFFFFFFFFFFFFFFFFFFFF AND PUSH20 0xFFFFFFFFFFFFFFFFFFFFFFFFFFFFFFFFFFFFFFFF AND CALLER PUSH20 0xFFFFFFFFFFFFFFFFFFFFFFFFFFFFFFFFFFFFFFFF AND EQ PUSH2 0x4DC JUMPI CALLER PUSH1 0x2 PUSH0 SWAP1 SLOAD SWAP1 PUSH2 0x100 EXP SWAP1 DIV PUSH20 0xFFFFFFFFFFFFFFFFFFFFFFFFFFFFFFFFFFFFFFFF AND PUSH1 0x40 MLOAD PUSH32 0x1CF993F400000000000000000000000000000000000000000000000000000000 DUP2 MSTORE PUSH1 0x4 ADD PUSH2 0x4D3 SWAP3 SWAP2 SWAP1 PUSH2 0x2C36 JUMP JUMPDEST PUSH1 0x40 MLOAD DUP1 SWAP2 SUB SWAP1 REVERT JUMPDEST PUSH2 0x4E6 DUP3 DUP3 PUSH2 0x1261 JUMP JUMPDEST POP POP JUMP JUMPDEST PUSH2 0x4F2 PUSH2 0x24C8 JUMP JUMPDEST PUSH1 0x7 PUSH0 DUP4 PUSH20 0xFFFFFFFFFFFFFFFFFFFFFFFFFFFFFFFFFFFFFFFF AND PUSH20 0xFFFFFFFFFFFFFFFFFFFFFFFFFFFFFFFFFFFFFFFF AND DUP2 MSTORE PUSH1 0x20 ADD SWAP1 DUP2 MSTORE PUSH1 0x20 ADD PUSH0 KECCAK256 PUSH1 0x40 MLOAD DUP1 PUSH1 0xE0 ADD PUSH1 0x40 MSTORE SWAP1 DUP2 PUSH0 DUP3 ADD SLOAD DUP2 MSTORE PUSH1 0x20 ADD PUSH1 0x1 DUP3 ADD SLOAD DUP2 MSTORE PUSH1 0x20 ADD PUSH1 0x2 DUP3 ADD SLOAD DUP2 MSTORE PUSH1 0x20 ADD PUSH1 0x3 DUP3 ADD SLOAD DUP2 MSTORE PUSH1 0x20 ADD PUSH1 0x4 DUP3 ADD PUSH0 SWAP1 SLOAD SWAP1 PUSH2 0x100 EXP SWAP1 DIV PUSH20 0xFFFFFFFFFFFFFFFFFFFFFFFFFFFFFFFFFFFFFFFF AND PUSH20 0xFFFFFFFFFFFFFFFFFFFFFFFFFFFFFFFFFFFFFFFF AND PUSH20 0xFFFFFFFFFFFFFFFFFFFFFFFFFFFFFFFFFFFFFFFF AND DUP2 MSTORE PUSH1 0x20 ADD PUSH1 0x4 DUP3 ADD PUSH1 0x14 SWAP1 SLOAD SWAP1 PUSH2 0x100 EXP SWAP1 DIV PUSH8 0xFFFFFFFFFFFFFFFF AND PUSH8 0xFFFFFFFFFFFFFFFF AND PUSH8 0xFFFFFFFFFFFFFFFF AND DUP2 MSTORE PUSH1 0x20 ADD PUSH1 0x4 DUP3 ADD PUSH1 0x1C SWAP1 SLOAD SWAP1 PUSH2 0x100 EXP SWAP1 DIV PUSH4 0xFFFFFFFF AND PUSH4 0xFFFFFFFF AND PUSH4 0xFFFFFFFF AND DUP2 MSTORE POP POP SWAP1 POP SWAP2 SWAP1 POP JUMP JUMPDEST PUSH1 0x5 PUSH0 SWAP1 SLOAD SWAP1 PUSH2 0x100 EXP SWAP1 DIV PUSH20 0xFFFFFFFFFFFFFFFFFFFFFFFFFFFFFFFFFFFFFFFF AND DUP2 JUMP JUMPDEST PUSH1 0x3 PUSH0 SWAP1 SLOAD SWAP1 PUSH2 0x100 EXP SWAP1 DIV PUSH20 0xFFFFFFFFFFFFFFFFFFFFFFFFFFFFFFFFFFFFFFFF AND DUP2 JUMP JUMPDEST PUSH0 PUSH1 0x3 PUSH0 SWAP1 SLOAD SWAP1 PUSH2 0x100 EXP SWAP1 DIV PUSH20 0xFFFFFFFFFFFFFFFFFFFFFFFFFFFFFFFFFFFFFFFF AND PUSH20 0xFFFFFFFFFFFFFFFFFFFFFFFFFFFFFFFFFFFFFFFF AND DUP3 PUSH20 0xFFFFFFFFFFFFFFFFFFFFFFFFFFFFFFFFFFFFFFFF AND EQ SWAP1 POP SWAP2 SWAP1 POP JUMP JUMPDEST PUSH2 0x6BF PUSH2 0x18CF JUMP JUMPDEST PUSH1 0x6 PUSH0 SWAP1 SLOAD SWAP1 PUSH2 0x100 EXP SWAP1 DIV PUSH20 0xFFFFFFFFFFFFFFFFFFFFFFFFFFFFFFFFFFFFFFFF AND PUSH20 0xFFFFFFFFFFFFFFFFFFFFFFFFFFFFFFFFFFFFFFFF AND PUSH4 0x893D20E8 PUSH1 0x40 MLOAD DUP2 PUSH4 0xFFFFFFFF AND PUSH1 0xE0 SHL DUP2 MSTORE PUSH1 0x4 ADD PUSH1 0x20 PUSH1 0x40 MLOAD DUP1 DUP4 SUB DUP2 DUP7 GAS STATICCALL ISZERO DUP1 ISZERO PUSH2 0x729 JUMPI RETURNDATASIZE PUSH0 DUP1 RETURNDATACOPY RETURNDATASIZE PUSH0 REVERT JUMPDEST POP POP POP POP PUSH1 0x40 MLOAD RETURNDATASIZE PUSH1 0x1F NOT PUSH1 0x1F DUP3 ADD AND DUP3 ADD DUP1 PUSH1 0x40 MSTORE POP DUP2 ADD SWAP1 PUSH2 0x74D SWAP2 SWAP1 PUSH2 0x2C71 JUMP JUMPDEST PUSH20 0xFFFFFFFFFFFFFFFFFFFFFFFFFFFFFFFFFFFFFFFF AND CALLER PUSH20 0xFFFFFFFFFFFFFFFFFFFFFFFFFFFFFFFFFFFFFFFF AND EQ PUSH2 0x84B JUMPI PUSH1 0x6 PUSH0 SWAP1 SLOAD SWAP1 PUSH2 0x100 EXP SWAP1 DIV PUSH20 0xFFFFFFFFFFFFFFFFFFFFFFFFFFFFFFFFFFFFFFFF AND PUSH20 0xFFFFFFFFFFFFFFFFFFFFFFFFFFFFFFFFFFFFFFFF AND PUSH4 0x893D20E8 PUSH1 0x40 MLOAD DUP2 PUSH4 0xFFFFFFFF AND PUSH1 0xE0 SHL DUP2 MSTORE PUSH1 0x4 ADD PUSH1 0x20 PUSH1 0x40 MLOAD DUP1 DUP4 SUB DUP2 DUP7 GAS STATICCALL ISZERO DUP1 ISZERO PUSH2 0x7E9 JUMPI RETURNDATASIZE PUSH0 DUP1 RETURNDATACOPY RETURNDATASIZE PUSH0 REVERT JUMPDEST POP POP POP POP PUSH1 0x40 MLOAD RETURNDATASIZE PUSH1 0x1F NOT PUSH1 0x1F DUP3 ADD AND DUP3 ADD DUP1 PUSH1 0x40 MSTORE POP DUP2 ADD SWAP1 PUSH2 0x80D SWAP2 SWAP1 PUSH2 0x2C71 JUMP JUMPDEST CALLER PUSH1 0x40 MLOAD PUSH32 0x23295F0E00000000000000000000000000000000000000000000000000000000 DUP2 MSTORE PUSH1 0x4 ADD PUSH2 0x842 SWAP3 SWAP2 SWAP1 PUSH2 0x2C36 JUMP JUMPDEST PUSH1 0x40 MLOAD DUP1 SWAP2 SUB SWAP1 REVERT JUMPDEST PUSH0 PUSH1 0x1 SLOAD SWAP1 POP PUSH0 PUSH1 0x1 DUP2 SWAP1 SSTORE POP PUSH0 DUP3 PUSH20 0xFFFFFFFFFFFFFFFFFFFFFFFFFFFFFFFFFFFFFFFF AND DUP3 PUSH1 0x40 MLOAD PUSH2 0x87D SWAP1 PUSH2 0x2CC9 JUMP JUMPDEST PUSH0 PUSH1 0x40 MLOAD DUP1 DUP4 SUB DUP2 DUP6 DUP8 GAS CALL SWAP3 POP POP POP RETURNDATASIZE DUP1 PUSH0 DUP2 EQ PUSH2 0x8B7 JUMPI PUSH1 0x40 MLOAD SWAP2 POP PUSH1 0x1F NOT PUSH1 0x3F RETURNDATASIZE ADD AND DUP3 ADD PUSH1 0x40 MSTORE RETURNDATASIZE DUP3 MSTORE RETURNDATASIZE PUSH0 PUSH1 0x20 DUP5 ADD RETURNDATACOPY PUSH2 0x8BC JUMP JUMPDEST PUSH1 0x60 SWAP2 POP JUMPDEST POP POP SWAP1 POP DUP1 PUSH2 0x8F7 JUMPI PUSH1 0x40 MLOAD PUSH32 0x90B8EC1800000000000000000000000000000000000000000000000000000000 DUP2 MSTORE PUSH1 0x4 ADD PUSH1 0x40 MLOAD DUP1 SWAP2 SUB SWAP1 REVERT JUMPDEST POP POP PUSH2 0x901 PUSH2 0x191C JUMP JUMPDEST POP JUMP JUMPDEST PUSH2 0x90C PUSH2 0x18CF JUMP JUMPDEST PUSH0 PUSH2 0x915 PUSH2 0x1925 JUMP JUMPDEST SWAP1 POP PUSH0 PUSH1 0x7 PUSH0 DUP4 PUSH20 0xFFFFFFFFFFFFFFFFFFFFFFFFFFFFFFFFFFFFFFFF AND PUSH20 0xFFFFFFFFFFFFFFFFFFFFFFFFFFFFFFFFFFFFFFFF AND DUP2 MSTORE PUSH1 0x20 ADD SWAP1 DUP2 MSTORE PUSH1 0x20 ADD PUSH0 KECCAK256 SWAP1 POP PUSH0 DUP2 PUSH1 0x3 ADD SLOAD SUB PUSH2 0x994 JUMPI PUSH1 0x40 MLOAD PUSH32 0x49050B3000000000000000000000000000000000000000000000000000000000 DUP2 MSTORE PUSH1 0x4 ADD PUSH1 0x40 MLOAD DUP1 SWAP2 SUB SWAP1 REVERT JUMPDEST NUMBER PUSH1 0xA PUSH2 0x3E8 DUP4 PUSH1 0x4 ADD PUSH1 0x14 SWAP1 SLOAD SWAP1 PUSH2 0x100 EXP SWAP1 DIV PUSH8 0xFFFFFFFFFFFFFFFF AND PUSH2 0x9BD SWAP2 SWAP1 PUSH2 0x2CDD JUMP JUMPDEST PUSH2 0x9C7 SWAP2 SWAP1 PUSH2 0x2CDD JUMP JUMPDEST PUSH8 0xFFFFFFFFFFFFFFFF AND GT ISZERO PUSH2 0xA47 JUMPI NUMBER PUSH1 0xA PUSH2 0x3E8 DUP4 PUSH1 0x4 ADD PUSH1 0x14 SWAP1 SLOAD SWAP1 PUSH2 0x100 EXP SWAP1 DIV PUSH8 0xFFFFFFFFFFFFFFFF AND PUSH2 0xA00 SWAP2 SWAP1 PUSH2 0x2CDD JUMP JUMPDEST PUSH2 0xA0A SWAP2 SWAP1 PUSH2 0x2CDD JUMP JUMPDEST PUSH1 0x40 MLOAD PUSH32 0xB4AE675A00000000000000000000000000000000000000000000000000000000 DUP2 MSTORE PUSH1 0x4 ADD PUSH2 0xA3E SWAP3 SWAP2 SWAP1 PUSH2 0x2D48 JUMP JUMPDEST PUSH1 0x40 MLOAD DUP1 SWAP2 SUB SWAP1 REVERT JUMPDEST PUSH0 DUP2 PUSH1 0x4 ADD PUSH1 0x1C SWAP1 SLOAD SWAP1 PUSH2 0x100 EXP SWAP1 DIV PUSH4 0xFFFFFFFF AND PUSH4 0xFFFFFFFF AND DUP3 PUSH0 ADD SLOAD PUSH2 0xA71 SWAP2 SWAP1 PUSH2 0x2D6F JUMP JUMPDEST SWAP1 POP PUSH0 DUP3 PUSH1 0x4 ADD PUSH0 SWAP1 SLOAD SWAP1 PUSH2 0x100 EXP SWAP1 DIV PUSH20 0xFFFFFFFFFFFFFFFFFFFFFFFFFFFFFFFFFFFFFFFF AND SWAP1 POP PUSH1 0x8 PUSH0 DUP5 PUSH1 0x3 ADD SLOAD DUP2 MSTORE PUSH1 0x20 ADD SWAP1 DUP2 MSTORE PUSH1 0x20 ADD PUSH0 KECCAK256 PUSH0 PUSH2 0x100 EXP DUP2 SLOAD SWAP1 PUSH20 0xFFFFFFFFFFFFFFFFFFFFFFFFFFFFFFFFFFFFFFFF MUL NOT AND SWAP1 SSTORE PUSH1 0x7 PUSH0 DUP6 PUSH20 0xFFFFFFFFFFFFFFFFFFFFFFFFFFFFFFFFFFFFFFFF AND PUSH20 0xFFFFFFFFFFFFFFFFFFFFFFFFFFFFFFFFFFFFFFFF AND DUP2 MSTORE PUSH1 0x20 ADD SWAP1 DUP2 MSTORE PUSH1 0x20 ADD PUSH0 KECCAK256 PUSH0 DUP1 DUP3 ADD PUSH0 SWAP1 SSTORE PUSH1 0x1 DUP3 ADD PUSH0 SWAP1 SSTORE PUSH1 0x2 DUP3 ADD PUSH0 SWAP1 SSTORE PUSH1 0x3 DUP3 ADD PUSH0 SWAP1 SSTORE PUSH1 0x4 DUP3 ADD PUSH0 PUSH2 0x100 EXP DUP2 SLOAD SWAP1 PUSH20 0xFFFFFFFFFFFFFFFFFFFFFFFFFFFFFFFFFFFFFFFF MUL NOT AND SWAP1 SSTORE PUSH1 0x4 DUP3 ADD PUSH1 0x14 PUSH2 0x100 EXP DUP2 SLOAD SWAP1 PUSH8 0xFFFFFFFFFFFFFFFF MUL NOT AND SWAP1 SSTORE PUSH1 0x4 DUP3 ADD PUSH1 0x1C PUSH2 0x100 EXP DUP2 SLOAD SWAP1 PUSH4 0xFFFFFFFF MUL NOT AND SWAP1 SSTORE POP POP PUSH0 PUSH20 0xFFFFFFFFFFFFFFFFFFFFFFFFFFFFFFFFFFFFFFFF AND DUP2 PUSH20 0xFFFFFFFFFFFFFFFFFFFFFFFFFFFFFFFFFFFFFFFF AND SUB PUSH2 0xC5C JUMPI PUSH0 DUP5 PUSH20 0xFFFFFFFFFFFFFFFFFFFFFFFFFFFFFFFFFFFFFFFF AND DUP4 PUSH1 0x40 MLOAD PUSH2 0xBDC SWAP1 PUSH2 0x2CC9 JUMP JUMPDEST PUSH0 PUSH1 0x40 MLOAD DUP1 DUP4 SUB DUP2 DUP6 DUP8 GAS CALL SWAP3 POP POP POP RETURNDATASIZE DUP1 PUSH0 DUP2 EQ PUSH2 0xC16 JUMPI PUSH1 0x40 MLOAD SWAP2 POP PUSH1 0x1F NOT PUSH1 0x3F RETURNDATASIZE ADD AND DUP3 ADD PUSH1 0x40 MSTORE RETURNDATASIZE DUP3 MSTORE RETURNDATASIZE PUSH0 PUSH1 0x20 DUP5 ADD RETURNDATACOPY PUSH2 0xC1B JUMP JUMPDEST PUSH1 0x60 SWAP2 POP JUMPDEST POP POP SWAP1 POP DUP1 PUSH2 0xC56 JUMPI PUSH1 0x40 MLOAD PUSH32 0x90B8EC1800000000000000000000000000000000000000000000000000000000 DUP2 MSTORE PUSH1 0x4 ADD PUSH1 0x40 MLOAD DUP1 SWAP2 SUB SWAP1 REVERT JUMPDEST POP PUSH2 0xC88 JUMP JUMPDEST PUSH2 0xC87 DUP5 DUP4 DUP4 PUSH20 0xFFFFFFFFFFFFFFFFFFFFFFFFFFFFFFFFFFFFFFFF AND PUSH2 0x195A SWAP1 SWAP3 SWAP2 SWAP1 PUSH4 0xFFFFFFFF AND JUMP JUMPDEST JUMPDEST DUP4 PUSH20 0xFFFFFFFFFFFFFFFFFFFFFFFFFFFFFFFFFFFFFFFF AND PUSH32 0x1D349643BCDCA147749E5F231209BE458850AEA573661BED4AB760D2A4EAF063 DUP4 DUP4 PUSH1 0x40 MLOAD PUSH2 0xCD0 SWAP3 SWAP2 SWAP1 PUSH2 0x2DB0 JUMP JUMPDEST PUSH1 0x40 MLOAD DUP1 SWAP2 SUB SWAP1 LOG2 POP POP POP POP PUSH2 0xCE4 PUSH2 0x191C JUMP JUMPDEST JUMP JUMPDEST PUSH0 DUP1 PUSH1 0x4 PUSH0 SWAP1 SLOAD SWAP1 PUSH2 0x100 EXP SWAP1 DIV PUSH20 0xFFFFFFFFFFFFFFFFFFFFFFFFFFFFFFFFFFFFFFFF AND PUSH20 0xFFFFFFFFFFFFFFFFFFFFFFFFFFFFFFFFFFFFFFFF AND PUSH4 0xFEAF968C PUSH1 0x40 MLOAD DUP2 PUSH4 0xFFFFFFFF AND PUSH1 0xE0 SHL DUP2 MSTORE PUSH1 0x4 ADD PUSH1 0xA0 PUSH1 0x40 MLOAD DUP1 DUP4 SUB DUP2 DUP7 GAS STATICCALL ISZERO DUP1 ISZERO PUSH2 0xD52 JUMPI RETURNDATASIZE PUSH0 DUP1 RETURNDATACOPY RETURNDATASIZE PUSH0 REVERT JUMPDEST POP POP POP POP PUSH1 0x40 MLOAD RETURNDATASIZE PUSH1 0x1F NOT PUSH1 0x1F DUP3 ADD AND DUP3 ADD DUP1 PUSH1 0x40 MSTORE POP DUP2 ADD SWAP1 PUSH2 0xD76 SWAP2 SWAP1 PUSH2 0x2E5D JUMP JUMPDEST POP POP POP SWAP2 POP POP PUSH0 PUSH1 0x5 PUSH0 SWAP1 SLOAD SWAP1 PUSH2 0x100 EXP SWAP1 DIV PUSH20 0xFFFFFFFFFFFFFFFFFFFFFFFFFFFFFFFFFFFFFFFF AND PUSH20 0xFFFFFFFFFFFFFFFFFFFFFFFFFFFFFFFFFFFFFFFF AND PUSH4 0x5FBBC0D2 PUSH1 0x40 MLOAD DUP2 PUSH4 0xFFFFFFFF AND PUSH1 0xE0 SHL DUP2 MSTORE PUSH1 0x4 ADD PUSH2 0x120 PUSH1 0x40 MLOAD DUP1 DUP4 SUB DUP2 DUP7 GAS STATICCALL ISZERO DUP1 ISZERO PUSH2 0xDE8 JUMPI RETURNDATASIZE PUSH0 DUP1 RETURNDATACOPY RETURNDATASIZE PUSH0 REVERT JUMPDEST POP POP POP POP PUSH1 0x40 MLOAD RETURNDATASIZE PUSH1 0x1F NOT PUSH1 0x1F DUP3 ADD AND DUP3 ADD DUP1 PUSH1 0x40 MSTORE POP DUP2 ADD SWAP1 PUSH2 0xE0C SWAP2 SWAP1 PUSH2 0x2F20 JUMP JUMPDEST POP POP POP POP POP POP POP POP SWAP1 POP PUSH8 0xDE0B6B3A7640000 DUP3 DUP3 PUSH4 0xFFFFFFFF AND PUSH5 0xE8D4A51000 PUSH2 0xE37 SWAP2 SWAP1 PUSH2 0x2D6F JUMP JUMPDEST PUSH2 0xE41 SWAP2 SWAP1 PUSH2 0x2D6F JUMP JUMPDEST PUSH2 0xE4B SWAP2 SWAP1 PUSH2 0x3011 JUMP JUMPDEST DUP5 GASPRICE PUSH2 0xE57 SWAP2 SWAP1 PUSH2 0x2D6F JUMP JUMPDEST PUSH2 0xE61 SWAP2 SWAP1 PUSH2 0x3041 JUMP JUMPDEST SWAP3 POP POP POP SWAP2 SWAP1 POP JUMP JUMPDEST PUSH1 0x1 SLOAD DUP2 JUMP JUMPDEST PUSH1 0x2 PUSH0 SWAP1 SLOAD SWAP1 PUSH2 0x100 EXP SWAP1 DIV PUSH20 0xFFFFFFFFFFFFFFFFFFFFFFFFFFFFFFFFFFFFFFFF AND DUP2 JUMP JUMPDEST PUSH1 0x4 PUSH0 SWAP1 SLOAD SWAP1 PUSH2 0x100 EXP SWAP1 DIV PUSH20 0xFFFFFFFFFFFFFFFFFFFFFFFFFFFFFFFFFFFFFFFF AND DUP2 JUMP JUMPDEST PUSH1 0x6 PUSH0 SWAP1 SLOAD SWAP1 PUSH2 0x100 EXP SWAP1 DIV PUSH20 0xFFFFFFFFFFFFFFFFFFFFFFFFFFFFFFFFFFFFFFFF AND DUP2 JUMP JUMPDEST PUSH2 0xEE7 PUSH2 0x18CF JUMP JUMPDEST PUSH0 PUSH2 0xEF0 PUSH2 0x1925 JUMP JUMPDEST SWAP1 POP PUSH0 PUSH1 0x7 PUSH0 DUP4 PUSH20 0xFFFFFFFFFFFFFFFFFFFFFFFFFFFFFFFFFFFFFFFF AND PUSH20 0xFFFFFFFFFFFFFFFFFFFFFFFFFFFFFFFFFFFFFFFF AND DUP2 MSTORE PUSH1 0x20 ADD SWAP1 DUP2 MSTORE PUSH1 0x20 ADD PUSH0 KECCAK256 PUSH1 0x3 ADD SLOAD EQ PUSH2 0xFB6 JUMPI PUSH1 0x7 PUSH0 DUP3 PUSH20 0xFFFFFFFFFFFFFFFFFFFFFFFFFFFFFFFFFFFFFFFF AND PUSH20 0xFFFFFFFFFFFFFFFFFFFFFFFFFFFFFFFFFFFFFFFF AND DUP2 MSTORE PUSH1 0x20 ADD SWAP1 DUP2 MSTORE PUSH1 0x20 ADD PUSH0 KECCAK256 PUSH1 0x3 ADD SLOAD PUSH1 0x40 MLOAD PUSH32 0x440DB96E00000000000000000000000000000000000000000000000000000000 DUP2 MSTORE PUSH1 0x4 ADD PUSH2 0xFAD SWAP2 SWAP1 PUSH2 0x2A87 JUMP JUMPDEST PUSH1 0x40 MLOAD DUP1 SWAP2 SUB SWAP1 REVERT JUMPDEST PUSH0 DUP5 PUSH4 0xFFFFFFFF AND GT DUP1 ISZERO PUSH2 0xFD2 JUMPI POP PUSH1 0x64 DUP5 PUSH4 0xFFFFFFFF AND GT ISZERO JUMPDEST PUSH2 0x1014 JUMPI PUSH1 0x64 PUSH1 0x40 MLOAD PUSH32 0x9310749100000000000000000000000000000000000000000000000000000000 DUP2 MSTORE PUSH1 0x4 ADD PUSH2 0x100B SWAP2 SWAP1 PUSH2 0x30AD JUMP JUMPDEST PUSH1 0x40 MLOAD DUP1 SWAP2 SUB SWAP1 REVERT JUMPDEST PUSH2 0x101E DUP7 DUP7 PUSH2 0x19D9 JUMP JUMPDEST PUSH0 PUSH2 0x103F DUP7 DUP7 PUSH4 0xFFFFFFFF AND DUP10 PUSH2 0x1035 SWAP2 SWAP1 PUSH2 0x2D6F JUMP JUMPDEST PUSH3 0x10C8E0 DUP6 PUSH2 0x1B56 JUMP JUMPDEST SWAP1 POP PUSH0 PUSH2 0x104B DUP7 PUSH2 0x1EAC JUMP JUMPDEST SWAP1 POP PUSH1 0x40 MLOAD DUP1 PUSH1 0xE0 ADD PUSH1 0x40 MSTORE DUP1 DUP10 DUP2 MSTORE PUSH1 0x20 ADD DUP7 DUP2 MSTORE PUSH1 0x20 ADD DUP6 DUP2 MSTORE PUSH1 0x20 ADD DUP3 DUP2 MSTORE PUSH1 0x20 ADD DUP9 PUSH20 0xFFFFFFFFFFFFFFFFFFFFFFFFFFFFFFFFFFFFFFFF AND DUP2 MSTORE PUSH1 0x20 ADD NUMBER PUSH8 0xFFFFFFFFFFFFFFFF AND DUP2 MSTORE PUSH1 0x20 ADD DUP8 PUSH4 0xFFFFFFFF AND DUP2 MSTORE POP PUSH1 0x7 PUSH0 DUP6 PUSH20 0xFFFFFFFFFFFFFFFFFFFFFFFFFFFFFFFFFFFFFFFF AND PUSH20 0xFFFFFFFFFFFFFFFFFFFFFFFFFFFFFFFFFFFFFFFF AND DUP2 MSTORE PUSH1 0x20 ADD SWAP1 DUP2 MSTORE PUSH1 0x20 ADD PUSH0 KECCAK256 PUSH0 DUP3 ADD MLOAD DUP2 PUSH0 ADD SSTORE PUSH1 0x20 DUP3 ADD MLOAD DUP2 PUSH1 0x1 ADD SSTORE PUSH1 0x40 DUP3 ADD MLOAD DUP2 PUSH1 0x2 ADD SSTORE PUSH1 0x60 DUP3 ADD MLOAD DUP2 PUSH1 0x3 ADD SSTORE PUSH1 0x80 DUP3 ADD MLOAD DUP2 PUSH1 0x4 ADD PUSH0 PUSH2 0x100 EXP DUP2 SLOAD DUP2 PUSH20 0xFFFFFFFFFFFFFFFFFFFFFFFFFFFFFFFFFFFFFFFF MUL NOT AND SWAP1 DUP4 PUSH20 0xFFFFFFFFFFFFFFFFFFFFFFFFFFFFFFFFFFFFFFFF AND MUL OR SWAP1 SSTORE POP PUSH1 0xA0 DUP3 ADD MLOAD DUP2 PUSH1 0x4 ADD PUSH1 0x14 PUSH2 0x100 EXP DUP2 SLOAD DUP2 PUSH8 0xFFFFFFFFFFFFFFFF MUL NOT AND SWAP1 DUP4 PUSH8 0xFFFFFFFFFFFFFFFF AND MUL OR SWAP1 SSTORE POP PUSH1 0xC0 DUP3 ADD MLOAD DUP2 PUSH1 0x4 ADD PUSH1 0x1C PUSH2 0x100 EXP DUP2 SLOAD DUP2 PUSH4 0xFFFFFFFF MUL NOT AND SWAP1 DUP4 PUSH4 0xFFFFFFFF AND MUL OR SWAP1 SSTORE POP SWAP1 POP POP DUP3 PUSH1 0x8 PUSH0 DUP4 DUP2 MSTORE PUSH1 0x20 ADD SWAP1 DUP2 MSTORE PUSH1 0x20 ADD PUSH0 KECCAK256 PUSH0 PUSH2 0x100 EXP DUP2 SLOAD DUP2 PUSH20 0xFFFFFFFFFFFFFFFFFFFFFFFFFFFFFFFFFFFFFFFF MUL NOT AND SWAP1 DUP4 PUSH20 0xFFFFFFFFFFFFFFFFFFFFFFFFFFFFFFFFFFFFFFFF AND MUL OR SWAP1 SSTORE POP DUP3 PUSH20 0xFFFFFFFFFFFFFFFFFFFFFFFFFFFFFFFFFFFFFFFF AND PUSH32 0x84A7B484F1C34E597D3331CE6FFC8714CF38182106D15C73D90ED934299F0C5B DUP10 DUP10 DUP10 DUP10 DUP10 DUP9 PUSH1 0x40 MLOAD PUSH2 0x1247 SWAP7 SWAP6 SWAP5 SWAP4 SWAP3 SWAP2 SWAP1 PUSH2 0x30D5 JUMP JUMPDEST PUSH1 0x40 MLOAD DUP1 SWAP2 SUB SWAP1 LOG2 POP POP POP PUSH2 0x125A PUSH2 0x191C JUMP JUMPDEST POP POP POP POP POP JUMP JUMPDEST PUSH0 PUSH1 0x8 PUSH0 DUP5 DUP2 MSTORE PUSH1 0x20 ADD SWAP1 DUP2 MSTORE PUSH1 0x20 ADD PUSH0 KECCAK256 PUSH0 SWAP1 SLOAD SWAP1 PUSH2 0x100 EXP SWAP1 DIV PUSH20 0xFFFFFFFFFFFFFFFFFFFFFFFFFFFFFFFFFFFFFFFF AND SWAP1 POP PUSH0 PUSH20 0xFFFFFFFFFFFFFFFFFFFFFFFFFFFFFFFFFFFFFFFF AND DUP2 PUSH20 0xFFFFFFFFFFFFFFFFFFFFFFFFFFFFFFFFFFFFFFFF AND SUB PUSH2 0x12CC JUMPI PUSH0 DUP1 REVERT JUMPDEST PUSH0 PUSH1 0x7 PUSH0 DUP4 PUSH20 0xFFFFFFFFFFFFFFFFFFFFFFFFFFFFFFFFFFFFFFFF AND PUSH20 0xFFFFFFFFFFFFFFFFFFFFFFFFFFFFFFFFFFFFFFFF AND DUP2 MSTORE PUSH1 0x20 ADD SWAP1 DUP2 MSTORE PUSH1 0x20 ADD PUSH0 KECCAK256 SWAP1 POP PUSH2 0x3E8 DUP2 PUSH1 0x4 ADD PUSH1 0x14 SWAP1 SLOAD SWAP1 PUSH2 0x100 EXP SWAP1 DIV PUSH8 0xFFFFFFFFFFFFFFFF AND PUSH2 0x1332 SWAP2 SWAP1 PUSH2 0x2CDD JUMP JUMPDEST PUSH8 0xFFFFFFFFFFFFFFFF AND NUMBER GT ISZERO PUSH2 0x1347 JUMPI PUSH0 DUP1 REVERT JUMPDEST PUSH0 DUP1 PUSH0 DUP1 DUP5 PUSH1 0x4 ADD PUSH1 0x1C SWAP1 SLOAD SWAP1 PUSH2 0x100 EXP SWAP1 DIV PUSH4 0xFFFFFFFF AND PUSH4 0xFFFFFFFF AND PUSH8 0xFFFFFFFFFFFFFFFF DUP2 GT ISZERO PUSH2 0x137F JUMPI PUSH2 0x137E PUSH2 0x2660 JUMP JUMPDEST JUMPDEST PUSH1 0x40 MLOAD SWAP1 DUP1 DUP3 MSTORE DUP1 PUSH1 0x20 MUL PUSH1 0x20 ADD DUP3 ADD PUSH1 0x40 MSTORE DUP1 ISZERO PUSH2 0x13AD JUMPI DUP2 PUSH1 0x20 ADD PUSH1 0x20 DUP3 MUL DUP1 CALLDATASIZE DUP4 CALLDATACOPY DUP1 DUP3 ADD SWAP2 POP POP SWAP1 POP JUMPDEST POP SWAP1 POP PUSH0 DUP6 PUSH1 0x4 ADD PUSH1 0x1C SWAP1 SLOAD SWAP1 PUSH2 0x100 EXP SWAP1 DIV PUSH4 0xFFFFFFFF AND PUSH4 0xFFFFFFFF AND PUSH8 0xFFFFFFFFFFFFFFFF DUP2 GT ISZERO PUSH2 0x13E5 JUMPI PUSH2 0x13E4 PUSH2 0x2660 JUMP JUMPDEST JUMPDEST PUSH1 0x40 MLOAD SWAP1 DUP1 DUP3 MSTORE DUP1 PUSH1 0x20 MUL PUSH1 0x20 ADD DUP3 ADD PUSH1 0x40 MSTORE DUP1 ISZERO PUSH2 0x1413 JUMPI DUP2 PUSH1 0x20 ADD PUSH1 0x20 DUP3 MUL DUP1 CALLDATASIZE DUP4 CALLDATACOPY DUP1 DUP3 ADD SWAP2 POP POP SWAP1 POP JUMPDEST POP SWAP1 POP PUSH0 DUP7 PUSH1 0x4 ADD PUSH1 0x1C SWAP1 SLOAD SWAP1 PUSH2 0x100 EXP SWAP1 DIV PUSH4 0xFFFFFFFF AND PUSH4 0xFFFFFFFF AND PUSH8 0xFFFFFFFFFFFFFFFF DUP2 GT ISZERO PUSH2 0x144B JUMPI PUSH2 0x144A PUSH2 0x2660 JUMP JUMPDEST JUMPDEST PUSH1 0x40 MLOAD SWAP1 DUP1 DUP3 MSTORE DUP1 PUSH1 0x20 MUL PUSH1 0x20 ADD DUP3 ADD PUSH1 0x40 MSTORE DUP1 ISZERO PUSH2 0x1479 JUMPI DUP2 PUSH1 0x20 ADD PUSH1 0x20 DUP3 MUL DUP1 CALLDATASIZE DUP4 CALLDATACOPY DUP1 DUP3 ADD SWAP2 POP POP SWAP1 POP JUMPDEST POP SWAP1 POP PUSH0 DUP8 PUSH1 0x4 ADD PUSH0 SWAP1 SLOAD SWAP1 PUSH2 0x100 EXP SWAP1 DIV PUSH20 0xFFFFFFFFFFFFFFFFFFFFFFFFFFFFFFFFFFFFFFFF AND SWAP1 POP PUSH0 SWAP5 POP JUMPDEST DUP8 PUSH1 0x4 ADD PUSH1 0x1C SWAP1 SLOAD SWAP1 PUSH2 0x100 EXP SWAP1 DIV PUSH4 0xFFFFFFFF AND PUSH4 0xFFFFFFFF AND DUP6 PUSH4 0xFFFFFFFF AND LT ISZERO PUSH2 0x16F9 JUMPI DUP8 PUSH1 0x1 ADD SLOAD DUP7 SLT ISZERO PUSH2 0x16F9 JUMPI DUP8 PUSH1 0x2 ADD SLOAD PUSH2 0x14E9 SWAP1 PUSH2 0x3134 JUMP JUMPDEST DUP7 SGT ISZERO PUSH2 0x16F9 JUMPI PUSH1 0xA PUSH0 SWAP1 SLOAD SWAP1 PUSH2 0x100 EXP SWAP1 DIV PUSH2 0xFFFF AND PUSH2 0xFFFF AND DUP11 DUP7 PUSH4 0xFFFFFFFF AND DUP2 MLOAD DUP2 LT PUSH2 0x151D JUMPI PUSH2 0x151C PUSH2 0x2BB3 JUMP JUMPDEST JUMPDEST PUSH1 0x20 MUL PUSH1 0x20 ADD ADD MLOAD PUSH2 0x152F SWAP2 SWAP1 PUSH2 0x317A JUMP JUMPDEST DUP5 DUP7 PUSH4 0xFFFFFFFF AND DUP2 MLOAD DUP2 LT PUSH2 0x1548 JUMPI PUSH2 0x1547 PUSH2 0x2BB3 JUMP JUMPDEST JUMPDEST PUSH1 0x20 MUL PUSH1 0x20 ADD ADD SWAP1 PUSH2 0xFFFF AND SWAP1 DUP2 PUSH2 0xFFFF AND DUP2 MSTORE POP POP PUSH1 0x9 PUSH0 DUP6 DUP8 PUSH4 0xFFFFFFFF AND DUP2 MLOAD DUP2 LT PUSH2 0x157A JUMPI PUSH2 0x1579 PUSH2 0x2BB3 JUMP JUMPDEST JUMPDEST PUSH1 0x20 MUL PUSH1 0x20 ADD ADD MLOAD PUSH2 0xFFFF AND PUSH2 0xFFFF AND DUP2 MSTORE PUSH1 0x20 ADD SWAP1 DUP2 MSTORE PUSH1 0x20 ADD PUSH0 KECCAK256 PUSH0 SWAP1 SLOAD SWAP1 PUSH2 0x100 EXP SWAP1 DIV PUSH2 0xFFFF AND PUSH2 0xFFFF AND DUP4 DUP7 PUSH4 0xFFFFFFFF AND DUP2 MLOAD DUP2 LT PUSH2 0x15C2 JUMPI PUSH2 0x15C1 PUSH2 0x2BB3 JUMP JUMPDEST JUMPDEST PUSH1 0x20 MUL PUSH1 0x20 ADD ADD DUP2 DUP2 MSTORE POP POP PUSH0 DUP4 DUP7 PUSH4 0xFFFFFFFF AND DUP2 MLOAD DUP2 LT PUSH2 0x15E8 JUMPI PUSH2 0x15E7 PUSH2 0x2BB3 JUMP JUMPDEST JUMPDEST PUSH1 0x20 MUL PUSH1 0x20 ADD ADD MLOAD EQ PUSH2 0x16D4 JUMPI DUP8 PUSH0 ADD SLOAD DUP4 DUP7 PUSH4 0xFFFFFFFF AND DUP2 MLOAD DUP2 LT PUSH2 0x1612 JUMPI PUSH2 0x1611 PUSH2 0x2BB3 JUMP JUMPDEST JUMPDEST PUSH1 0x20 MUL PUSH1 0x20 ADD ADD MLOAD DUP10 PUSH0 ADD SLOAD PUSH2 0x1628 SWAP2 SWAP1 PUSH2 0x2D6F JUMP JUMPDEST PUSH2 0x1632 SWAP2 SWAP1 PUSH2 0x31AA JUMP JUMPDEST DUP7 PUSH2 0x163D SWAP2 SWAP1 PUSH2 0x31EA JUMP JUMPDEST SWAP6 POP DUP3 DUP6 PUSH4 0xFFFFFFFF AND DUP2 MLOAD DUP2 LT PUSH2 0x1658 JUMPI PUSH2 0x1657 PUSH2 0x2BB3 JUMP JUMPDEST JUMPDEST PUSH1 0x20 MUL PUSH1 0x20 ADD ADD MLOAD DUP9 PUSH0 ADD SLOAD PUSH2 0x166E SWAP2 SWAP1 PUSH2 0x2D6F JUMP JUMPDEST DUP8 PUSH2 0x1679 SWAP2 SWAP1 PUSH2 0x3041 JUMP JUMPDEST SWAP7 POP DUP3 DUP6 PUSH4 0xFFFFFFFF AND DUP2 MLOAD DUP2 LT PUSH2 0x1694 JUMPI PUSH2 0x1693 PUSH2 0x2BB3 JUMP JUMPDEST JUMPDEST PUSH1 0x20 MUL PUSH1 0x20 ADD ADD MLOAD DUP9 PUSH0 ADD SLOAD PUSH2 0x16AA SWAP2 SWAP1 PUSH2 0x2D6F JUMP JUMPDEST DUP3 DUP7 PUSH4 0xFFFFFFFF AND DUP2 MLOAD DUP2 LT PUSH2 0x16C3 JUMPI PUSH2 0x16C2 PUSH2 0x2BB3 JUMP JUMPDEST JUMPDEST PUSH1 0x20 MUL PUSH1 0x20 ADD ADD DUP2 DUP2 MSTORE POP POP PUSH2 0x16E6 JUMP JUMPDEST DUP8 PUSH0 ADD SLOAD DUP7 PUSH2 0x16E3 SWAP2 SWAP1 PUSH2 0x31AA JUMP JUMPDEST SWAP6 POP JUMPDEST DUP5 DUP1 PUSH2 0x16F1 SWAP1 PUSH2 0x322B JUMP JUMPDEST SWAP6 POP POP PUSH2 0x14A7 JUMP JUMPDEST DUP8 PUSH0 ADD SLOAD DUP6 DUP10 PUSH1 0x4 ADD PUSH1 0x1C SWAP1 SLOAD SWAP1 PUSH2 0x100 EXP SWAP1 DIV PUSH4 0xFFFFFFFF AND PUSH2 0x171D SWAP2 SWAP1 PUSH2 0x3256 JUMP JUMPDEST PUSH4 0xFFFFFFFF AND PUSH2 0x172D SWAP2 SWAP1 PUSH2 0x2D6F JUMP JUMPDEST DUP8 PUSH2 0x1738 SWAP2 SWAP1 PUSH2 0x3041 JUMP JUMPDEST SWAP7 POP DUP9 PUSH20 0xFFFFFFFFFFFFFFFFFFFFFFFFFFFFFFFFFFFFFFFF AND PUSH32 0x92EFFAFB76F06EB770800EC9B38DBC4C3AD53F950062C07B4C7F9CED43D0F9F8 DUP10 PUSH0 ADD SLOAD DUP10 DUP5 DUP9 DUP9 DUP9 DUP13 PUSH1 0x40 MLOAD PUSH2 0x178F SWAP8 SWAP7 SWAP6 SWAP5 SWAP4 SWAP3 SWAP2 SWAP1 PUSH2 0x3335 JUMP JUMPDEST PUSH1 0x40 MLOAD DUP1 SWAP2 SUB SWAP1 LOG2 PUSH2 0x17C9 DUP2 DUP10 PUSH1 0x4 ADD PUSH1 0x1C SWAP1 SLOAD SWAP1 PUSH2 0x100 EXP SWAP1 DIV PUSH4 0xFFFFFFFF AND PUSH4 0xFFFFFFFF AND DUP11 PUSH0 ADD SLOAD PUSH2 0x17C4 SWAP2 SWAP1 PUSH2 0x2D6F JUMP JUMPDEST PUSH2 0x1F7C JUMP JUMPDEST PUSH1 0x8 PUSH0 DUP13 DUP2 MSTORE PUSH1 0x20 ADD SWAP1 DUP2 MSTORE PUSH1 0x20 ADD PUSH0 KECCAK256 PUSH0 PUSH2 0x100 EXP DUP2 SLOAD SWAP1 PUSH20 0xFFFFFFFFFFFFFFFFFFFFFFFFFFFFFFFFFFFFFFFF MUL NOT AND SWAP1 SSTORE PUSH1 0x7 PUSH0 DUP11 PUSH20 0xFFFFFFFFFFFFFFFFFFFFFFFFFFFFFFFFFFFFFFFF AND PUSH20 0xFFFFFFFFFFFFFFFFFFFFFFFFFFFFFFFFFFFFFFFF AND DUP2 MSTORE PUSH1 0x20 ADD SWAP1 DUP2 MSTORE PUSH1 0x20 ADD PUSH0 KECCAK256 PUSH0 DUP1 DUP3 ADD PUSH0 SWAP1 SSTORE PUSH1 0x1 DUP3 ADD PUSH0 SWAP1 SSTORE PUSH1 0x2 DUP3 ADD PUSH0 SWAP1 SSTORE PUSH1 0x3 DUP3 ADD PUSH0 SWAP1 SSTORE PUSH1 0x4 DUP3 ADD PUSH0 PUSH2 0x100 EXP DUP2 SLOAD SWAP1 PUSH20 0xFFFFFFFFFFFFFFFFFFFFFFFFFFFFFFFFFFFFFFFF MUL NOT AND SWAP1 SSTORE PUSH1 0x4 DUP3 ADD PUSH1 0x14 PUSH2 0x100 EXP DUP2 SLOAD SWAP1 PUSH8 0xFFFFFFFFFFFFFFFF MUL NOT AND SWAP1 SSTORE PUSH1 0x4 DUP3 ADD PUSH1 0x1C PUSH2 0x100 EXP DUP2 SLOAD SWAP1 PUSH4 0xFFFFFFFF MUL NOT AND SWAP1 SSTORE POP POP PUSH0 DUP8 EQ PUSH2 0x18C2 JUMPI PUSH2 0x18C1 DUP10 DUP9 DUP4 PUSH2 0x20C6 JUMP JUMPDEST JUMPDEST POP POP POP POP POP POP POP POP POP POP POP JUMP JUMPDEST PUSH1 0x2 PUSH0 SLOAD SUB PUSH2 0x1913 JUMPI PUSH1 0x40 MLOAD PUSH32 0x8C379A000000000000000000000000000000000000000000000000000000000 DUP2 MSTORE PUSH1 0x4 ADD PUSH2 0x190A SWAP1 PUSH2 0x3411 JUMP JUMPDEST PUSH1 0x40 MLOAD DUP1 SWAP2 SUB SWAP1 REVERT JUMPDEST PUSH1 0x2 PUSH0 DUP2 SWAP1 SSTORE POP JUMP JUMPDEST PUSH1 0x1 PUSH0 DUP2 SWAP1 SSTORE POP JUMP JUMPDEST PUSH0 PUSH1 0x14 PUSH0 CALLDATASIZE SWAP1 POP LT ISZERO DUP1 ISZERO PUSH2 0x193F JUMPI POP PUSH2 0x193E CALLER PUSH2 0x65F JUMP JUMPDEST JUMPDEST ISZERO PUSH2 0x1953 JUMPI PUSH1 0x14 CALLDATASIZE SUB CALLDATALOAD PUSH1 0x60 SHR SWAP1 POP PUSH2 0x1957 JUMP JUMPDEST CALLER SWAP1 POP JUMPDEST SWAP1 JUMP JUMPDEST PUSH2 0x19D4 DUP4 DUP5 PUSH20 0xFFFFFFFFFFFFFFFFFFFFFFFFFFFFFFFFFFFFFFFF AND PUSH4 0xA9059CBB DUP6 DUP6 PUSH1 0x40 MLOAD PUSH1 0x24 ADD PUSH2 0x198D SWAP3 SWAP2 SWAP1 PUSH2 0x342F JUMP JUMPDEST PUSH1 0x40 MLOAD PUSH1 0x20 DUP2 DUP4 SUB SUB DUP2 MSTORE SWAP1 PUSH1 0x40 MSTORE SWAP2 POP PUSH1 0xE0 SHL PUSH1 0x20 DUP3 ADD DUP1 MLOAD PUSH28 0xFFFFFFFFFFFFFFFFFFFFFFFFFFFFFFFFFFFFFFFFFFFFFFFFFFFFFFFF DUP4 DUP2 DUP4 AND OR DUP4 MSTORE POP POP POP POP PUSH2 0x2156 JUMP JUMPDEST POP POP POP JUMP JUMPDEST PUSH0 DUP1 PUSH20 0xFFFFFFFFFFFFFFFFFFFFFFFFFFFFFFFFFFFFFFFF AND DUP3 PUSH20 0xFFFFFFFFFFFFFFFFFFFFFFFFFFFFFFFFFFFFFFFF AND SUB PUSH2 0x1A4D JUMPI PUSH1 0x6 PUSH0 SWAP1 SLOAD SWAP1 PUSH2 0x100 EXP SWAP1 DIV PUSH20 0xFFFFFFFFFFFFFFFFFFFFFFFFFFFFFFFFFFFFFFFF AND PUSH20 0xFFFFFFFFFFFFFFFFFFFFFFFFFFFFFFFFFFFFFFFF AND BALANCE SWAP1 POP PUSH2 0x1AE9 JUMP JUMPDEST DUP2 PUSH20 0xFFFFFFFFFFFFFFFFFFFFFFFFFFFFFFFFFFFFFFFF AND PUSH4 0x70A08231 PUSH1 0x6 PUSH0 SWAP1 SLOAD SWAP1 PUSH2 0x100 EXP SWAP1 DIV PUSH20 0xFFFFFFFFFFFFFFFFFFFFFFFFFFFFFFFFFFFFFFFF AND PUSH1 0x40 MLOAD DUP3 PUSH4 0xFFFFFFFF AND PUSH1 0xE0 SHL DUP2 MSTORE PUSH1 0x4 ADD PUSH2 0x1AA7 SWAP2 SWAP1 PUSH2 0x2A01 JUMP JUMPDEST PUSH1 0x20 PUSH1 0x40 MLOAD DUP1 DUP4 SUB DUP2 DUP7 GAS STATICCALL ISZERO DUP1 ISZERO PUSH2 0x1AC2 JUMPI RETURNDATASIZE PUSH0 DUP1 RETURNDATACOPY RETURNDATASIZE PUSH0 REVERT JUMPDEST POP POP POP POP PUSH1 0x40 MLOAD RETURNDATASIZE PUSH1 0x1F NOT PUSH1 0x1F DUP3 ADD AND DUP3 ADD DUP1 PUSH1 0x40 MSTORE POP DUP2 ADD SWAP1 PUSH2 0x1AE6 SWAP2 SWAP1 PUSH2 0x3456 JUMP JUMPDEST SWAP1 POP JUMPDEST PUSH0 PUSH4 0x5F5E100 PUSH2 0xD9DA DUP4 PUSH2 0x1AFD SWAP2 SWAP1 PUSH2 0x2D6F JUMP JUMPDEST PUSH2 0x1B07 SWAP2 SWAP1 PUSH2 0x3011 JUMP JUMPDEST SWAP1 POP DUP1 DUP5 GT ISZERO PUSH2 0x1B50 JUMPI DUP4 DUP2 PUSH1 0x40 MLOAD PUSH32 0xD53662AA00000000000000000000000000000000000000000000000000000000 DUP2 MSTORE PUSH1 0x4 ADD PUSH2 0x1B47 SWAP3 SWAP2 SWAP1 PUSH2 0x3481 JUMP JUMPDEST PUSH1 0x40 MLOAD DUP1 SWAP2 SUB SWAP1 REVERT JUMPDEST POP POP POP POP JUMP JUMPDEST PUSH0 PUSH1 0x6 PUSH0 SWAP1 SLOAD SWAP1 PUSH2 0x100 EXP SWAP1 DIV PUSH20 0xFFFFFFFFFFFFFFFFFFFFFFFFFFFFFFFFFFFFFFFF AND PUSH20 0xFFFFFFFFFFFFFFFFFFFFFFFFFFFFFFFFFFFFFFFF AND PUSH4 0xBFD7F9CC ADDRESS DUP8 PUSH1 0x40 MLOAD DUP4 PUSH4 0xFFFFFFFF AND PUSH1 0xE0 SHL DUP2 MSTORE PUSH1 0x4 ADD PUSH2 0x1BB3 SWAP3 SWAP2 SWAP1 PUSH2 0x2C36 JUMP JUMPDEST PUSH1 0x20 PUSH1 0x40 MLOAD DUP1 DUP4 SUB DUP2 DUP7 GAS STATICCALL ISZERO DUP1 ISZERO PUSH2 0x1BCE JUMPI RETURNDATASIZE PUSH0 DUP1 RETURNDATACOPY RETURNDATASIZE PUSH0 REVERT JUMPDEST POP POP POP POP PUSH1 0x40 MLOAD RETURNDATASIZE PUSH1 0x1F NOT PUSH1 0x1F DUP3 ADD AND DUP3 ADD DUP1 PUSH1 0x40 MSTORE POP DUP2 ADD SWAP1 PUSH2 0x1BF2 SWAP2 SWAP1 PUSH2 0x34D2 JUMP JUMPDEST PUSH2 0x1C28 JUMPI PUSH1 0x40 MLOAD PUSH32 0x51C3B94F00000000000000000000000000000000000000000000000000000000 DUP2 MSTORE PUSH1 0x4 ADD PUSH1 0x40 MLOAD DUP1 SWAP2 SUB SWAP1 REVERT JUMPDEST PUSH0 DUP5 SUB PUSH2 0x1C61 JUMPI PUSH1 0x40 MLOAD PUSH32 0x7375C8400000000000000000000000000000000000000000000000000000000 DUP2 MSTORE PUSH1 0x4 ADD PUSH1 0x40 MLOAD DUP1 SWAP2 SUB SWAP1 REVERT JUMPDEST PUSH0 DUP1 PUSH1 0x6 PUSH0 SWAP1 SLOAD SWAP1 PUSH2 0x100 EXP SWAP1 DIV PUSH20 0xFFFFFFFFFFFFFFFFFFFFFFFFFFFFFFFFFFFFFFFF AND PUSH20 0xFFFFFFFFFFFFFFFFFFFFFFFFFFFFFFFFFFFFFFFF AND PUSH4 0xA5748A8 DUP6 PUSH1 0x40 MLOAD DUP3 PUSH4 0xFFFFFFFF AND PUSH1 0xE0 SHL DUP2 MSTORE PUSH1 0x4 ADD PUSH2 0x1CBD SWAP2 SWAP1 PUSH2 0x2A01 JUMP JUMPDEST PUSH1 0x40 DUP1 MLOAD DUP1 DUP4 SUB DUP2 DUP7 GAS STATICCALL ISZERO DUP1 ISZERO PUSH2 0x1CD7 JUMPI RETURNDATASIZE PUSH0 DUP1 RETURNDATACOPY RETURNDATASIZE PUSH0 REVERT JUMPDEST POP POP POP POP PUSH1 0x40 MLOAD RETURNDATASIZE PUSH1 0x1F NOT PUSH1 0x1F DUP3 ADD AND DUP3 ADD DUP1 PUSH1 0x40 MSTORE POP DUP2 ADD SWAP1 PUSH2 0x1CFB SWAP2 SWAP1 PUSH2 0x34FD JUMP JUMPDEST SWAP2 POP SWAP2 POP DUP2 ISZERO PUSH2 0x1D42 JUMPI DUP1 PUSH1 0x40 MLOAD PUSH32 0x6C2775F500000000000000000000000000000000000000000000000000000000 DUP2 MSTORE PUSH1 0x4 ADD PUSH2 0x1D39 SWAP2 SWAP1 PUSH2 0x2A87 JUMP JUMPDEST PUSH1 0x40 MLOAD DUP1 SWAP2 SUB SWAP1 REVERT JUMPDEST PUSH2 0x1D4B DUP6 PUSH2 0xCE6 JUMP JUMPDEST SWAP3 POP PUSH0 PUSH20 0xFFFFFFFFFFFFFFFFFFFFFFFFFFFFFFFFFFFFFFFF AND DUP8 PUSH20 0xFFFFFFFFFFFFFFFFFFFFFFFFFFFFFFFFFFFFFFFF AND SUB PUSH2 0x1E01 JUMPI DUP3 DUP7 PUSH2 0x1D8C SWAP2 SWAP1 PUSH2 0x3041 JUMP JUMPDEST CALLVALUE LT ISZERO PUSH2 0x1DDD JUMPI DUP3 DUP7 PUSH2 0x1D9F SWAP2 SWAP1 PUSH2 0x3041 JUMP JUMPDEST CALLVALUE PUSH1 0x40 MLOAD PUSH32 0xDE9B74A100000000000000000000000000000000000000000000000000000000 DUP2 MSTORE PUSH1 0x4 ADD PUSH2 0x1DD4 SWAP3 SWAP2 SWAP1 PUSH2 0x3481 JUMP JUMPDEST PUSH1 0x40 MLOAD DUP1 SWAP2 SUB SWAP1 REVERT JUMPDEST PUSH2 0x1DFC DUP7 DUP5 PUSH2 0x1DEC SWAP2 SWAP1 PUSH2 0x3041 JUMP JUMPDEST CALLVALUE PUSH2 0x1DF7 SWAP2 SWAP1 PUSH2 0x353B JUMP JUMPDEST PUSH2 0x21EB JUMP JUMPDEST PUSH2 0x1E8A JUMP JUMPDEST DUP3 CALLVALUE LT ISZERO PUSH2 0x1E48 JUMPI DUP3 CALLVALUE PUSH1 0x40 MLOAD PUSH32 0xDE9B74A100000000000000000000000000000000000000000000000000000000 DUP2 MSTORE PUSH1 0x4 ADD PUSH2 0x1E3F SWAP3 SWAP2 SWAP1 PUSH2 0x3481 JUMP JUMPDEST PUSH1 0x40 MLOAD DUP1 SWAP2 SUB SWAP1 REVERT JUMPDEST PUSH2 0x1E75 DUP5 ADDRESS DUP9 DUP11 PUSH20 0xFFFFFFFFFFFFFFFFFFFFFFFFFFFFFFFFFFFFFFFF AND PUSH2 0x2297 SWAP1 SWAP4 SWAP3 SWAP2 SWAP1 PUSH4 0xFFFFFFFF AND JUMP JUMPDEST PUSH2 0x1E89 DUP4 CALLVALUE PUSH2 0x1E84 SWAP2 SWAP1 PUSH2 0x353B JUMP JUMPDEST PUSH2 0x21EB JUMP JUMPDEST JUMPDEST DUP3 PUSH1 0x1 PUSH0 DUP3 DUP3 SLOAD PUSH2 0x1E9B SWAP2 SWAP1 PUSH2 0x3041 JUMP JUMPDEST SWAP3 POP POP DUP2 SWAP1 SSTORE POP POP POP SWAP5 SWAP4 POP POP POP POP JUMP JUMPDEST PUSH0 PUSH1 0x2 PUSH0 SWAP1 SLOAD SWAP1 PUSH2 0x100 EXP SWAP1 DIV PUSH20 0xFFFFFFFFFFFFFFFFFFFFFFFFFFFFFFFFFFFFFFFF AND PUSH20 0xFFFFFFFFFFFFFFFFFFFFFFFFFFFFFFFFFFFFFFFF AND PUSH4 0x5D3B1D30 PUSH32 0xD729DC84E21AE57FFB6BE0053BF2B0668AA2AAF300A2A7B2DDF7DC0BB6E875A8 PUSH2 0x240 PUSH1 0x3 PUSH3 0x2625A0 DUP8 PUSH1 0x40 MLOAD DUP7 PUSH4 0xFFFFFFFF AND PUSH1 0xE0 SHL DUP2 MSTORE PUSH1 0x4 ADD PUSH2 0x1F35 SWAP6 SWAP5 SWAP4 SWAP3 SWAP2 SWAP1 PUSH2 0x3666 JUMP JUMPDEST PUSH1 0x20 PUSH1 0x40 MLOAD DUP1 DUP4 SUB DUP2 PUSH0 DUP8 GAS CALL ISZERO DUP1 ISZERO PUSH2 0x1F51 JUMPI RETURNDATASIZE PUSH0 DUP1 RETURNDATACOPY RETURNDATASIZE PUSH0 REVERT JUMPDEST POP POP POP POP PUSH1 0x40 MLOAD RETURNDATASIZE PUSH1 0x1F NOT PUSH1 0x1F DUP3 ADD AND DUP3 ADD DUP1 PUSH1 0x40 MSTORE POP DUP2 ADD SWAP1 PUSH2 0x1F75 SWAP2 SWAP1 PUSH2 0x3456 JUMP JUMPDEST SWAP1 POP SWAP2 SWAP1 POP JUMP JUMPDEST PUSH0 PUSH20 0xFFFFFFFFFFFFFFFFFFFFFFFFFFFFFFFFFFFFFFFF AND DUP3 PUSH20 0xFFFFFFFFFFFFFFFFFFFFFFFFFFFFFFFFFFFFFFFF AND SUB PUSH2 0x2075 JUMPI PUSH0 PUSH1 0x6 PUSH0 SWAP1 SLOAD SWAP1 PUSH2 0x100 EXP SWAP1 DIV PUSH20 0xFFFFFFFFFFFFFFFFFFFFFFFFFFFFFFFFFFFFFFFF AND PUSH20 0xFFFFFFFFFFFFFFFFFFFFFFFFFFFFFFFFFFFFFFFF AND DUP3 PUSH1 0x40 MLOAD PUSH2 0x1FF5 SWAP1 PUSH2 0x2CC9 JUMP JUMPDEST PUSH0 PUSH1 0x40 MLOAD DUP1 DUP4 SUB DUP2 DUP6 DUP8 GAS CALL SWAP3 POP POP POP RETURNDATASIZE DUP1 PUSH0 DUP2 EQ PUSH2 0x202F JUMPI PUSH1 0x40 MLOAD SWAP2 POP PUSH1 0x1F NOT PUSH1 0x3F RETURNDATASIZE ADD AND DUP3 ADD PUSH1 0x40 MSTORE RETURNDATASIZE DUP3 MSTORE RETURNDATASIZE PUSH0 PUSH1 0x20 DUP5 ADD RETURNDATACOPY PUSH2 0x2034 JUMP JUMPDEST PUSH1 0x60 SWAP2 POP JUMPDEST POP POP SWAP1 POP DUP1 PUSH2 0x206F JUMPI PUSH1 0x40 MLOAD PUSH32 0xF0C49D4400000000000000000000000000000000000000000000000000000000 DUP2 MSTORE PUSH1 0x4 ADD PUSH1 0x40 MLOAD DUP1 SWAP2 SUB SWAP1 REVERT JUMPDEST POP PUSH2 0x20C2 JUMP JUMPDEST PUSH2 0x20C1 PUSH1 0x6 PUSH0 SWAP1 SLOAD SWAP1 PUSH2 0x100 EXP SWAP1 DIV PUSH20 0xFFFFFFFFFFFFFFFFFFFFFFFFFFFFFFFFFFFFFFFF AND DUP3 DUP5 PUSH20 0xFFFFFFFFFFFFFFFFFFFFFFFFFFFFFFFFFFFFFFFF AND PUSH2 0x195A SWAP1 SWAP3 SWAP2 SWAP1 PUSH4 0xFFFFFFFF AND JUMP JUMPDEST JUMPDEST POP POP JUMP JUMPDEST PUSH1 0x6 PUSH0 SWAP1 SLOAD SWAP1 PUSH2 0x100 EXP SWAP1 DIV PUSH20 0xFFFFFFFFFFFFFFFFFFFFFFFFFFFFFFFFFFFFFFFF AND PUSH20 0xFFFFFFFFFFFFFFFFFFFFFFFFFFFFFFFFFFFFFFFF AND PUSH4 0x6C025EC2 DUP5 DUP5 DUP5 PUSH1 0x40 MLOAD DUP5 PUSH4 0xFFFFFFFF AND PUSH1 0xE0 SHL DUP2 MSTORE PUSH1 0x4 ADD PUSH2 0x2124 SWAP4 SWAP3 SWAP2 SWAP1 PUSH2 0x36B7 JUMP JUMPDEST PUSH0 PUSH1 0x40 MLOAD DUP1 DUP4 SUB DUP2 PUSH0 DUP8 DUP1 EXTCODESIZE ISZERO DUP1 ISZERO PUSH2 0x213B JUMPI PUSH0 DUP1 REVERT JUMPDEST POP GAS CALL ISZERO DUP1 ISZERO PUSH2 0x214D JUMPI RETURNDATASIZE PUSH0 DUP1 RETURNDATACOPY RETURNDATASIZE PUSH0 REVERT JUMPDEST POP POP POP POP POP POP POP JUMP JUMPDEST PUSH0 PUSH2 0x2180 DUP3 DUP5 PUSH20 0xFFFFFFFFFFFFFFFFFFFFFFFFFFFFFFFFFFFFFFFF AND PUSH2 0x2319 SWAP1 SWAP2 SWAP1 PUSH4 0xFFFFFFFF AND JUMP JUMPDEST SWAP1 POP PUSH0 DUP2 MLOAD EQ ISZERO DUP1 ISZERO PUSH2 0x21A4 JUMPI POP DUP1 DUP1 PUSH1 0x20 ADD SWAP1 MLOAD DUP2 ADD SWAP1 PUSH2 0x21A2 SWAP2 SWAP1 PUSH2 0x34D2 JUMP JUMPDEST ISZERO JUMPDEST ISZERO PUSH2 0x21E6 JUMPI DUP3 PUSH1 0x40 MLOAD PUSH32 0x5274AFE700000000000000000000000000000000000000000000000000000000 DUP2 MSTORE PUSH1 0x4 ADD PUSH2 0x21DD SWAP2 SWAP1 PUSH2 0x2A01 JUMP JUMPDEST PUSH1 0x40 MLOAD DUP1 SWAP2 SUB SWAP1 REVERT JUMPDEST POP POP POP JUMP JUMPDEST PUSH0 DUP2 SUB ISZERO PUSH2 0x2294 JUMPI PUSH0 CALLER PUSH20 0xFFFFFFFFFFFFFFFFFFFFFFFFFFFFFFFFFFFFFFFF AND DUP3 PUSH1 0x40 MLOAD PUSH2 0x2218 SWAP1 PUSH2 0x2CC9 JUMP JUMPDEST PUSH0 PUSH1 0x40 MLOAD DUP1 DUP4 SUB DUP2 DUP6 DUP8 GAS CALL SWAP3 POP POP POP RETURNDATASIZE DUP1 PUSH0 DUP2 EQ PUSH2 0x2252 JUMPI PUSH1 0x40 MLOAD SWAP2 POP PUSH1 0x1F NOT PUSH1 0x3F RETURNDATASIZE ADD AND DUP3 ADD PUSH1 0x40 MSTORE RETURNDATASIZE DUP3 MSTORE RETURNDATASIZE PUSH0 PUSH1 0x20 DUP5 ADD RETURNDATACOPY PUSH2 0x2257 JUMP JUMPDEST PUSH1 0x60 SWAP2 POP JUMPDEST POP POP SWAP1 POP DUP1 PUSH2 0x2292 JUMPI PUSH1 0x40 MLOAD PUSH32 0xF0C49D4400000000000000000000000000000000000000000000000000000000 DUP2 MSTORE PUSH1 0x4 ADD PUSH1 0x40 MLOAD DUP1 SWAP2 SUB SWAP1 REVERT JUMPDEST POP JUMPDEST POP JUMP JUMPDEST PUSH2 0x2313 DUP5 DUP6 PUSH20 0xFFFFFFFFFFFFFFFFFFFFFFFFFFFFFFFFFFFFFFFF AND PUSH4 0x23B872DD DUP7 DUP7 DUP7 PUSH1 0x40 MLOAD PUSH1 0x24 ADD PUSH2 0x22CC SWAP4 SWAP3 SWAP2 SWAP1 PUSH2 0x36EC JUMP JUMPDEST PUSH1 0x40 MLOAD PUSH1 0x20 DUP2 DUP4 SUB SUB DUP2 MSTORE SWAP1 PUSH1 0x40 MSTORE SWAP2 POP PUSH1 0xE0 SHL PUSH1 0x20 DUP3 ADD DUP1 MLOAD PUSH28 0xFFFFFFFFFFFFFFFFFFFFFFFFFFFFFFFFFFFFFFFFFFFFFFFFFFFFFFFF DUP4 DUP2 DUP4 AND OR DUP4 MSTORE POP POP POP POP PUSH2 0x2156 JUMP JUMPDEST POP POP POP POP JUMP JUMPDEST PUSH1 0x60 PUSH2 0x2326 DUP4 DUP4 PUSH0 PUSH2 0x232E JUMP JUMPDEST SWAP1 POP SWAP3 SWAP2 POP POP JUMP JUMPDEST PUSH1 0x60 DUP2 SELFBALANCE LT ISZERO PUSH2 0x2375 JUMPI ADDRESS PUSH1 0x40 MLOAD PUSH32 0xCD78605900000000000000000000000000000000000000000000000000000000 DUP2 MSTORE PUSH1 0x4 ADD PUSH2 0x236C SWAP2 SWAP1 PUSH2 0x2A01 JUMP JUMPDEST PUSH1 0x40 MLOAD DUP1 SWAP2 SUB SWAP1 REVERT JUMPDEST PUSH0 DUP1 DUP6 PUSH20 0xFFFFFFFFFFFFFFFFFFFFFFFFFFFFFFFFFFFFFFFF AND DUP5 DUP7 PUSH1 0x40 MLOAD PUSH2 0x239D SWAP2 SWAP1 PUSH2 0x3783 JUMP JUMPDEST PUSH0 PUSH1 0x40 MLOAD DUP1 DUP4 SUB DUP2 DUP6 DUP8 GAS CALL SWAP3 POP POP POP RETURNDATASIZE DUP1 PUSH0 DUP2 EQ PUSH2 0x23D7 JUMPI PUSH1 0x40 MLOAD SWAP2 POP PUSH1 0x1F NOT PUSH1 0x3F RETURNDATASIZE ADD AND DUP3 ADD PUSH1 0x40 MSTORE RETURNDATASIZE DUP3 MSTORE RETURNDATASIZE PUSH0 PUSH1 0x20 DUP5 ADD RETURNDATACOPY PUSH2 0x23DC JUMP JUMPDEST PUSH1 0x60 SWAP2 POP JUMPDEST POP SWAP2 POP SWAP2 POP PUSH2 0x23EC DUP7 DUP4 DUP4 PUSH2 0x23F7 JUMP JUMPDEST SWAP3 POP POP POP SWAP4 SWAP3 POP POP POP JUMP JUMPDEST PUSH1 0x60 DUP3 PUSH2 0x240C JUMPI PUSH2 0x2407 DUP3 PUSH2 0x2484 JUMP JUMPDEST PUSH2 0x247C JUMP JUMPDEST PUSH0 DUP3 MLOAD EQ DUP1 ISZERO PUSH2 0x2432 JUMPI POP PUSH0 DUP5 PUSH20 0xFFFFFFFFFFFFFFFFFFFFFFFFFFFFFFFFFFFFFFFF AND EXTCODESIZE EQ JUMPDEST ISZERO PUSH2 0x2474 JUMPI DUP4 PUSH1 0x40 MLOAD PUSH32 0x9996B31500000000000000000000000000000000000000000000000000000000 DUP2 MSTORE PUSH1 0x4 ADD PUSH2 0x246B SWAP2 SWAP1 PUSH2 0x2A01 JUMP JUMPDEST PUSH1 0x40 MLOAD DUP1 SWAP2 SUB SWAP1 REVERT JUMPDEST DUP2 SWAP1 POP PUSH2 0x247D JUMP JUMPDEST JUMPDEST SWAP4 SWAP3 POP POP POP JUMP JUMPDEST PUSH0 DUP2 MLOAD GT ISZERO PUSH2 0x2496 JUMPI DUP1 MLOAD DUP1 DUP3 PUSH1 0x20 ADD REVERT JUMPDEST PUSH1 0x40 MLOAD PUSH32 0x1425EA4200000000000000000000000000000000000000000000000000000000 DUP2 MSTORE PUSH1 0x4 ADD PUSH1 0x40 MLOAD DUP1 SWAP2 SUB SWAP1 REVERT JUMPDEST PUSH1 0x40 MLOAD DUP1 PUSH1 0xE0 ADD PUSH1 0x40 MSTORE DUP1 PUSH0 DUP2 MSTORE PUSH1 0x20 ADD PUSH0 DUP2 MSTORE PUSH1 0x20 ADD PUSH0 DUP2 MSTORE PUSH1 0x20 ADD PUSH0 DUP2 MSTORE PUSH1 0x20 ADD PUSH0 PUSH20 0xFFFFFFFFFFFFFFFFFFFFFFFFFFFFFFFFFFFFFFFF AND DUP2 MSTORE PUSH1 0x20 ADD PUSH0 PUSH8 0xFFFFFFFFFFFFFFFF AND DUP2 MSTORE PUSH1 0x20 ADD PUSH0 PUSH4 0xFFFFFFFF AND DUP2 MSTORE POP SWAP1 JUMP JUMPDEST PUSH0 DUP2 MLOAD SWAP1 POP SWAP2 SWAP1 POP JUMP JUMPDEST PUSH0 DUP3 DUP3 MSTORE PUSH1 0x20 DUP3 ADD SWAP1 POP SWAP3 SWAP2 POP POP JUMP JUMPDEST PUSH0 DUP2 SWAP1 POP PUSH1 0x20 DUP3 ADD SWAP1 POP SWAP2 SWAP1 POP JUMP JUMPDEST PUSH0 PUSH2 0xFFFF DUP3 AND SWAP1 POP SWAP2 SWAP1 POP JUMP JUMPDEST PUSH2 0x2563 DUP2 PUSH2 0x254D JUMP JUMPDEST DUP3 MSTORE POP POP JUMP JUMPDEST PUSH0 PUSH2 0x2574 DUP4 DUP4 PUSH2 0x255A JUMP JUMPDEST PUSH1 0x20 DUP4 ADD SWAP1 POP SWAP3 SWAP2 POP POP JUMP JUMPDEST PUSH0 PUSH1 0x20 DUP3 ADD SWAP1 POP SWAP2 SWAP1 POP JUMP JUMPDEST PUSH0 PUSH2 0x2596 DUP3 PUSH2 0x2524 JUMP JUMPDEST PUSH2 0x25A0 DUP2 DUP6 PUSH2 0x252E JUMP JUMPDEST SWAP4 POP PUSH2 0x25AB DUP4 PUSH2 0x253E JUMP JUMPDEST DUP1 PUSH0 JUMPDEST DUP4 DUP2 LT ISZERO PUSH2 0x25DB JUMPI DUP2 MLOAD PUSH2 0x25C2 DUP9 DUP3 PUSH2 0x2569 JUMP JUMPDEST SWAP8 POP PUSH2 0x25CD DUP4 PUSH2 0x2580 JUMP JUMPDEST SWAP3 POP POP PUSH1 0x1 DUP2 ADD SWAP1 POP PUSH2 0x25AE JUMP JUMPDEST POP DUP6 SWAP4 POP POP POP POP SWAP3 SWAP2 POP POP JUMP JUMPDEST PUSH0 PUSH1 0x20 DUP3 ADD SWAP1 POP DUP2 DUP2 SUB PUSH0 DUP4 ADD MSTORE PUSH2 0x2600 DUP2 DUP5 PUSH2 0x258C JUMP JUMPDEST SWAP1 POP SWAP3 SWAP2 POP POP JUMP JUMPDEST PUSH0 PUSH1 0x40 MLOAD SWAP1 POP SWAP1 JUMP JUMPDEST PUSH0 DUP1 REVERT JUMPDEST PUSH0 DUP1 REVERT JUMPDEST PUSH0 DUP2 SWAP1 POP SWAP2 SWAP1 POP JUMP JUMPDEST PUSH2 0x262B DUP2 PUSH2 0x2619 JUMP JUMPDEST DUP2 EQ PUSH2 0x2635 JUMPI PUSH0 DUP1 REVERT JUMPDEST POP JUMP JUMPDEST PUSH0 DUP2 CALLDATALOAD SWAP1 POP PUSH2 0x2646 DUP2 PUSH2 0x2622 JUMP JUMPDEST SWAP3 SWAP2 POP POP JUMP JUMPDEST PUSH0 DUP1 REVERT JUMPDEST PUSH0 PUSH1 0x1F NOT PUSH1 0x1F DUP4 ADD AND SWAP1 POP SWAP2 SWAP1 POP JUMP JUMPDEST PUSH32 0x4E487B7100000000000000000000000000000000000000000000000000000000 PUSH0 MSTORE PUSH1 0x41 PUSH1 0x4 MSTORE PUSH1 0x24 PUSH0 REVERT JUMPDEST PUSH2 0x2696 DUP3 PUSH2 0x2650 JUMP JUMPDEST DUP2 ADD DUP2 DUP2 LT PUSH8 0xFFFFFFFFFFFFFFFF DUP3 GT OR ISZERO PUSH2 0x26B5 JUMPI PUSH2 0x26B4 PUSH2 0x2660 JUMP JUMPDEST JUMPDEST DUP1 PUSH1 0x40 MSTORE POP POP POP JUMP JUMPDEST PUSH0 PUSH2 0x26C7 PUSH2 0x2608 JUMP JUMPDEST SWAP1 POP PUSH2 0x26D3 DUP3 DUP3 PUSH2 0x268D JUMP JUMPDEST SWAP2 SWAP1 POP JUMP JUMPDEST PUSH0 PUSH8 0xFFFFFFFFFFFFFFFF DUP3 GT ISZERO PUSH2 0x26F2 JUMPI PUSH2 0x26F1 PUSH2 0x2660 JUMP JUMPDEST JUMPDEST PUSH1 0x20 DUP3 MUL SWAP1 POP PUSH1 0x20 DUP2 ADD SWAP1 POP SWAP2 SWAP1 POP JUMP JUMPDEST PUSH0 DUP1 REVERT JUMPDEST PUSH0 PUSH2 0x2719 PUSH2 0x2714 DUP5 PUSH2 0x26D8 JUMP JUMPDEST PUSH2 0x26BE JUMP JUMPDEST SWAP1 POP DUP1 DUP4 DUP3 MSTORE PUSH1 0x20 DUP3 ADD SWAP1 POP PUSH1 0x20 DUP5 MUL DUP4 ADD DUP6 DUP2 GT ISZERO PUSH2 0x273C JUMPI PUSH2 0x273B PUSH2 0x2703 JUMP JUMPDEST JUMPDEST DUP4 JUMPDEST DUP2 DUP2 LT ISZERO PUSH2 0x2765 JUMPI DUP1 PUSH2 0x2751 DUP9 DUP3 PUSH2 0x2638 JUMP JUMPDEST DUP5 MSTORE PUSH1 0x20 DUP5 ADD SWAP4 POP POP PUSH1 0x20 DUP2 ADD SWAP1 POP PUSH2 0x273E JUMP JUMPDEST POP POP POP SWAP4 SWAP3 POP POP POP JUMP JUMPDEST PUSH0 DUP3 PUSH1 0x1F DUP4 ADD SLT PUSH2 0x2783 JUMPI PUSH2 0x2782 PUSH2 0x264C JUMP JUMPDEST JUMPDEST DUP2 CALLDATALOAD PUSH2 0x2793 DUP5 DUP3 PUSH1 0x20 DUP7 ADD PUSH2 0x2707 JUMP JUMPDEST SWAP2 POP POP SWAP3 SWAP2 POP POP JUMP JUMPDEST PUSH0 DUP1 PUSH1 0x40 DUP4 DUP6 SUB SLT ISZERO PUSH2 0x27B2 JUMPI PUSH2 0x27B1 PUSH2 0x2611 JUMP JUMPDEST JUMPDEST PUSH0 PUSH2 0x27BF DUP6 DUP3 DUP7 ADD PUSH2 0x2638 JUMP JUMPDEST SWAP3 POP POP PUSH1 0x20 DUP4 ADD CALLDATALOAD PUSH8 0xFFFFFFFFFFFFFFFF DUP2 GT ISZERO PUSH2 0x27E0 JUMPI PUSH2 0x27DF PUSH2 0x2615 JUMP JUMPDEST JUMPDEST PUSH2 0x27EC DUP6 DUP3 DUP7 ADD PUSH2 0x276F JUMP JUMPDEST SWAP2 POP POP SWAP3 POP SWAP3 SWAP1 POP JUMP JUMPDEST PUSH0 PUSH20 0xFFFFFFFFFFFFFFFFFFFFFFFFFFFFFFFFFFFFFFFF DUP3 AND SWAP1 POP SWAP2 SWAP1 POP JUMP JUMPDEST PUSH0 PUSH2 0x281F DUP3 PUSH2 0x27F6 JUMP JUMPDEST SWAP1 POP SWAP2 SWAP1 POP JUMP JUMPDEST PUSH2 0x282F DUP2 PUSH2 0x2815 JUMP JUMPDEST DUP2 EQ PUSH2 0x2839 JUMPI PUSH0 DUP1 REVERT JUMPDEST POP JUMP JUMPDEST PUSH0 DUP2 CALLDATALOAD SWAP1 POP PUSH2 0x284A DUP2 PUSH2 0x2826 JUMP JUMPDEST SWAP3 SWAP2 POP POP JUMP JUMPDEST PUSH0 PUSH1 0x20 DUP3 DUP5 SUB SLT ISZERO PUSH2 0x2865 JUMPI PUSH2 0x2864 PUSH2 0x2611 JUMP JUMPDEST JUMPDEST PUSH0 PUSH2 0x2872 DUP5 DUP3 DUP6 ADD PUSH2 0x283C JUMP JUMPDEST SWAP2 POP POP SWAP3 SWAP2 POP POP JUMP JUMPDEST PUSH2 0x2884 DUP2 PUSH2 0x2619 JUMP JUMPDEST DUP3 MSTORE POP POP JUMP JUMPDEST PUSH2 0x2893 DUP2 PUSH2 0x2815 JUMP JUMPDEST DUP3 MSTORE POP POP JUMP JUMPDEST PUSH0 PUSH8 0xFFFFFFFFFFFFFFFF DUP3 AND SWAP1 POP SWAP2 SWAP1 POP JUMP JUMPDEST PUSH2 0x28B5 DUP2 PUSH2 0x2899 JUMP JUMPDEST DUP3 MSTORE POP POP JUMP JUMPDEST PUSH0 PUSH4 0xFFFFFFFF DUP3 AND SWAP1 POP SWAP2 SWAP1 POP JUMP JUMPDEST PUSH2 0x28D3 DUP2 PUSH2 0x28BB JUMP JUMPDEST DUP3 MSTORE POP POP JUMP JUMPDEST PUSH1 0xE0 DUP3 ADD PUSH0 DUP3 ADD MLOAD PUSH2 0x28ED PUSH0 DUP6 ADD DUP3 PUSH2 0x287B JUMP JUMPDEST POP PUSH1 0x20 DUP3 ADD MLOAD PUSH2 0x2900 PUSH1 0x20 DUP6 ADD DUP3 PUSH2 0x287B JUMP JUMPDEST POP PUSH1 0x40 DUP3 ADD MLOAD PUSH2 0x2913 PUSH1 0x40 DUP6 ADD DUP3 PUSH2 0x287B JUMP JUMPDEST POP PUSH1 0x60 DUP3 ADD MLOAD PUSH2 0x2926 PUSH1 0x60 DUP6 ADD DUP3 PUSH2 0x287B JUMP JUMPDEST POP PUSH1 0x80 DUP3 ADD MLOAD PUSH2 0x2939 PUSH1 0x80 DUP6 ADD DUP3 PUSH2 0x288A JUMP JUMPDEST POP PUSH1 0xA0 DUP3 ADD MLOAD PUSH2 0x294C PUSH1 0xA0 DUP6 ADD DUP3 PUSH2 0x28AC JUMP JUMPDEST POP PUSH1 0xC0 DUP3 ADD MLOAD PUSH2 0x295F PUSH1 0xC0 DUP6 ADD DUP3 PUSH2 0x28CA JUMP JUMPDEST POP POP POP POP JUMP JUMPDEST PUSH0 PUSH1 0xE0 DUP3 ADD SWAP1 POP PUSH2 0x2978 PUSH0 DUP4 ADD DUP5 PUSH2 0x28D9 JUMP JUMPDEST SWAP3 SWAP2 POP POP JUMP JUMPDEST PUSH0 DUP2 SWAP1 POP SWAP2 SWAP1 POP JUMP JUMPDEST PUSH0 PUSH2 0x29A1 PUSH2 0x299C PUSH2 0x2997 DUP5 PUSH2 0x27F6 JUMP JUMPDEST PUSH2 0x297E JUMP JUMPDEST PUSH2 0x27F6 JUMP JUMPDEST SWAP1 POP SWAP2 SWAP1 POP JUMP JUMPDEST PUSH0 PUSH2 0x29B2 DUP3 PUSH2 0x2987 JUMP JUMPDEST SWAP1 POP SWAP2 SWAP1 POP JUMP JUMPDEST PUSH0 PUSH2 0x29C3 DUP3 PUSH2 0x29A8 JUMP JUMPDEST SWAP1 POP SWAP2 SWAP1 POP JUMP JUMPDEST PUSH2 0x29D3 DUP2 PUSH2 0x29B9 JUMP JUMPDEST DUP3 MSTORE POP POP JUMP JUMPDEST PUSH0 PUSH1 0x20 DUP3 ADD SWAP1 POP PUSH2 0x29EC PUSH0 DUP4 ADD DUP5 PUSH2 0x29CA JUMP JUMPDEST SWAP3 SWAP2 POP POP JUMP JUMPDEST PUSH2 0x29FB DUP2 PUSH2 0x2815 JUMP JUMPDEST DUP3 MSTORE POP POP JUMP JUMPDEST PUSH0 PUSH1 0x20 DUP3 ADD SWAP1 POP PUSH2 0x2A14 PUSH0 DUP4 ADD DUP5 PUSH2 0x29F2 JUMP JUMPDEST SWAP3 SWAP2 POP POP JUMP JUMPDEST PUSH0 DUP2 ISZERO ISZERO SWAP1 POP SWAP2 SWAP1 POP JUMP JUMPDEST PUSH2 0x2A2E DUP2 PUSH2 0x2A1A JUMP JUMPDEST DUP3 MSTORE POP POP JUMP JUMPDEST PUSH0 PUSH1 0x20 DUP3 ADD SWAP1 POP PUSH2 0x2A47 PUSH0 DUP4 ADD DUP5 PUSH2 0x2A25 JUMP JUMPDEST SWAP3 SWAP2 POP POP JUMP JUMPDEST PUSH0 PUSH1 0x20 DUP3 DUP5 SUB SLT ISZERO PUSH2 0x2A62 JUMPI PUSH2 0x2A61 PUSH2 0x2611 JUMP JUMPDEST JUMPDEST PUSH0 PUSH2 0x2A6F DUP5 DUP3 DUP6 ADD PUSH2 0x2638 JUMP JUMPDEST SWAP2 POP POP SWAP3 SWAP2 POP POP JUMP JUMPDEST PUSH2 0x2A81 DUP2 PUSH2 0x2619 JUMP JUMPDEST DUP3 MSTORE POP POP JUMP JUMPDEST PUSH0 PUSH1 0x20 DUP3 ADD SWAP1 POP PUSH2 0x2A9A PUSH0 DUP4 ADD DUP5 PUSH2 0x2A78 JUMP JUMPDEST SWAP3 SWAP2 POP POP JUMP JUMPDEST PUSH0 PUSH2 0x2AAA DUP3 PUSH2 0x29A8 JUMP JUMPDEST SWAP1 POP SWAP2 SWAP1 POP JUMP JUMPDEST PUSH2 0x2ABA DUP2 PUSH2 0x2AA0 JUMP JUMPDEST DUP3 MSTORE POP POP JUMP JUMPDEST PUSH0 PUSH1 0x20 DUP3 ADD SWAP1 POP PUSH2 0x2AD3 PUSH0 DUP4 ADD DUP5 PUSH2 0x2AB1 JUMP JUMPDEST SWAP3 SWAP2 POP POP JUMP JUMPDEST PUSH0 PUSH2 0x2AE3 DUP3 PUSH2 0x29A8 JUMP JUMPDEST SWAP1 POP SWAP2 SWAP1 POP JUMP JUMPDEST PUSH2 0x2AF3 DUP2 PUSH2 0x2AD9 JUMP JUMPDEST DUP3 MSTORE POP POP JUMP JUMPDEST PUSH0 PUSH1 0x20 DUP3 ADD SWAP1 POP PUSH2 0x2B0C PUSH0 DUP4 ADD DUP5 PUSH2 0x2AEA JUMP JUMPDEST SWAP3 SWAP2 POP POP JUMP JUMPDEST PUSH2 0x2B1B DUP2 PUSH2 0x28BB JUMP JUMPDEST DUP2 EQ PUSH2 0x2B25 JUMPI PUSH0 DUP1 REVERT JUMPDEST POP JUMP JUMPDEST PUSH0 DUP2 CALLDATALOAD SWAP1 POP PUSH2 0x2B36 DUP2 PUSH2 0x2B12 JUMP JUMPDEST SWAP3 SWAP2 POP POP JUMP JUMPDEST PUSH0 DUP1 PUSH0 DUP1 PUSH0 PUSH1 0xA0 DUP7 DUP9 SUB SLT ISZERO PUSH2 0x2B55 JUMPI PUSH2 0x2B54 PUSH2 0x2611 JUMP JUMPDEST JUMPDEST PUSH0 PUSH2 0x2B62 DUP9 DUP3 DUP10 ADD PUSH2 0x2638 JUMP JUMPDEST SWAP6 POP POP PUSH1 0x20 PUSH2 0x2B73 DUP9 DUP3 DUP10 ADD PUSH2 0x283C JUMP JUMPDEST SWAP5 POP POP PUSH1 0x40 PUSH2 0x2B84 DUP9 DUP3 DUP10 ADD PUSH2 0x2B28 JUMP JUMPDEST SWAP4 POP POP PUSH1 0x60 PUSH2 0x2B95 DUP9 DUP3 DUP10 ADD PUSH2 0x2638 JUMP JUMPDEST SWAP3 POP POP PUSH1 0x80 PUSH2 0x2BA6 DUP9 DUP3 DUP10 ADD PUSH2 0x2638 JUMP JUMPDEST SWAP2 POP POP SWAP3 SWAP6 POP SWAP3 SWAP6 SWAP1 SWAP4 POP JUMP JUMPDEST PUSH32 0x4E487B7100000000000000000000000000000000000000000000000000000000 PUSH0 MSTORE PUSH1 0x32 PUSH1 0x4 MSTORE PUSH1 0x24 PUSH0 REVERT JUMPDEST PUSH32 0x4E487B7100000000000000000000000000000000000000000000000000000000 PUSH0 MSTORE PUSH1 0x11 PUSH1 0x4 MSTORE PUSH1 0x24 PUSH0 REVERT JUMPDEST PUSH0 PUSH2 0x2C17 DUP3 PUSH2 0x254D JUMP JUMPDEST SWAP2 POP PUSH2 0xFFFF DUP3 SUB PUSH2 0x2C2B JUMPI PUSH2 0x2C2A PUSH2 0x2BE0 JUMP JUMPDEST JUMPDEST PUSH1 0x1 DUP3 ADD SWAP1 POP SWAP2 SWAP1 POP JUMP JUMPDEST PUSH0 PUSH1 0x40 DUP3 ADD SWAP1 POP PUSH2 0x2C49 PUSH0 DUP4 ADD DUP6 PUSH2 0x29F2 JUMP JUMPDEST PUSH2 0x2C56 PUSH1 0x20 DUP4 ADD DUP5 PUSH2 0x29F2 JUMP JUMPDEST SWAP4 SWAP3 POP POP POP JUMP JUMPDEST PUSH0 DUP2 MLOAD SWAP1 POP PUSH2 0x2C6B DUP2 PUSH2 0x2826 JUMP JUMPDEST SWAP3 SWAP2 POP POP JUMP JUMPDEST PUSH0 PUSH1 0x20 DUP3 DUP5 SUB SLT ISZERO PUSH2 0x2C86 JUMPI PUSH2 0x2C85 PUSH2 0x2611 JUMP JUMPDEST JUMPDEST PUSH0 PUSH2 0x2C93 DUP5 DUP3 DUP6 ADD PUSH2 0x2C5D JUMP JUMPDEST SWAP2 POP POP SWAP3 SWAP2 POP POP JUMP JUMPDEST PUSH0 DUP2 SWAP1 POP SWAP3 SWAP2 POP POP JUMP JUMPDEST POP JUMP JUMPDEST PUSH0 PUSH2 0x2CB4 PUSH0 DUP4 PUSH2 0x2C9C JUMP JUMPDEST SWAP2 POP PUSH2 0x2CBF DUP3 PUSH2 0x2CA6 JUMP JUMPDEST PUSH0 DUP3 ADD SWAP1 POP SWAP2 SWAP1 POP JUMP JUMPDEST PUSH0 PUSH2 0x2CD3 DUP3 PUSH2 0x2CA9 JUMP JUMPDEST SWAP2 POP DUP2 SWAP1 POP SWAP2 SWAP1 POP JUMP JUMPDEST PUSH0 PUSH2 0x2CE7 DUP3 PUSH2 0x2899 JUMP JUMPDEST SWAP2 POP PUSH2 0x2CF2 DUP4 PUSH2 0x2899 JUMP JUMPDEST SWAP3 POP DUP3 DUP3 ADD SWAP1 POP PUSH8 0xFFFFFFFFFFFFFFFF DUP2 GT ISZERO PUSH2 0x2D12 JUMPI PUSH2 0x2D11 PUSH2 0x2BE0 JUMP JUMPDEST JUMPDEST SWAP3 SWAP2 POP POP JUMP JUMPDEST PUSH0 PUSH2 0x2D32 PUSH2 0x2D2D PUSH2 0x2D28 DUP5 PUSH2 0x2899 JUMP JUMPDEST PUSH2 0x297E JUMP JUMPDEST PUSH2 0x2619 JUMP JUMPDEST SWAP1 POP SWAP2 SWAP1 POP JUMP JUMPDEST PUSH2 0x2D42 DUP2 PUSH2 0x2D18 JUMP JUMPDEST DUP3 MSTORE POP POP JUMP JUMPDEST PUSH0 PUSH1 0x40 DUP3 ADD SWAP1 POP PUSH2 0x2D5B PUSH0 DUP4 ADD DUP6 PUSH2 0x2A78 JUMP JUMPDEST PUSH2 0x2D68 PUSH1 0x20 DUP4 ADD DUP5 PUSH2 0x2D39 JUMP JUMPDEST SWAP4 SWAP3 POP POP POP JUMP JUMPDEST PUSH0 PUSH2 0x2D79 DUP3 PUSH2 0x2619 JUMP JUMPDEST SWAP2 POP PUSH2 0x2D84 DUP4 PUSH2 0x2619 JUMP JUMPDEST SWAP3 POP DUP3 DUP3 MUL PUSH2 0x2D92 DUP2 PUSH2 0x2619 JUMP JUMPDEST SWAP2 POP DUP3 DUP3 DIV DUP5 EQ DUP4 ISZERO OR PUSH2 0x2DA9 JUMPI PUSH2 0x2DA8 PUSH2 0x2BE0 JUMP JUMPDEST JUMPDEST POP SWAP3 SWAP2 POP POP JUMP JUMPDEST PUSH0 PUSH1 0x40 DUP3 ADD SWAP1 POP PUSH2 0x2DC3 PUSH0 DUP4 ADD DUP6 PUSH2 0x2A78 JUMP JUMPDEST PUSH2 0x2DD0 PUSH1 0x20 DUP4 ADD DUP5 PUSH2 0x29F2 JUMP JUMPDEST SWAP4 SWAP3 POP POP POP JUMP JUMPDEST PUSH0 PUSH10 0xFFFFFFFFFFFFFFFFFFFF DUP3 AND SWAP1 POP SWAP2 SWAP1 POP JUMP JUMPDEST PUSH2 0x2DF5 DUP2 PUSH2 0x2DD7 JUMP JUMPDEST DUP2 EQ PUSH2 0x2DFF JUMPI PUSH0 DUP1 REVERT JUMPDEST POP JUMP JUMPDEST PUSH0 DUP2 MLOAD SWAP1 POP PUSH2 0x2E10 DUP2 PUSH2 0x2DEC JUMP JUMPDEST SWAP3 SWAP2 POP POP JUMP JUMPDEST PUSH0 DUP2 SWAP1 POP SWAP2 SWAP1 POP JUMP JUMPDEST PUSH2 0x2E28 DUP2 PUSH2 0x2E16 JUMP JUMPDEST DUP2 EQ PUSH2 0x2E32 JUMPI PUSH0 DUP1 REVERT JUMPDEST POP JUMP JUMPDEST PUSH0 DUP2 MLOAD SWAP1 POP PUSH2 0x2E43 DUP2 PUSH2 0x2E1F JUMP JUMPDEST SWAP3 SWAP2 POP POP JUMP JUMPDEST PUSH0 DUP2 MLOAD SWAP1 POP PUSH2 0x2E57 DUP2 PUSH2 0x2622 JUMP JUMPDEST SWAP3 SWAP2 POP POP JUMP JUMPDEST PUSH0 DUP1 PUSH0 DUP1 PUSH0 PUSH1 0xA0 DUP7 DUP9 SUB SLT ISZERO PUSH2 0x2E76 JUMPI PUSH2 0x2E75 PUSH2 0x2611 JUMP JUMPDEST JUMPDEST PUSH0 PUSH2 0x2E83 DUP9 DUP3 DUP10 ADD PUSH2 0x2E02 JUMP JUMPDEST SWAP6 POP POP PUSH1 0x20 PUSH2 0x2E94 DUP9 DUP3 DUP10 ADD PUSH2 0x2E35 JUMP JUMPDEST SWAP5 POP POP PUSH1 0x40 PUSH2 0x2EA5 DUP9 DUP3 DUP10 ADD PUSH2 0x2E49 JUMP JUMPDEST SWAP4 POP POP PUSH1 0x60 PUSH2 0x2EB6 DUP9 DUP3 DUP10 ADD PUSH2 0x2E49 JUMP JUMPDEST SWAP3 POP POP PUSH1 0x80 PUSH2 0x2EC7 DUP9 DUP3 DUP10 ADD PUSH2 0x2E02 JUMP JUMPDEST SWAP2 POP POP SWAP3 SWAP6 POP SWAP3 SWAP6 SWAP1 SWAP4 POP JUMP JUMPDEST PUSH0 DUP2 MLOAD SWAP1 POP PUSH2 0x2EE2 DUP2 PUSH2 0x2B12 JUMP JUMPDEST SWAP3 SWAP2 POP POP JUMP JUMPDEST PUSH0 PUSH3 0xFFFFFF DUP3 AND SWAP1 POP SWAP2 SWAP1 POP JUMP JUMPDEST PUSH2 0x2EFF DUP2 PUSH2 0x2EE8 JUMP JUMPDEST DUP2 EQ PUSH2 0x2F09 JUMPI PUSH0 DUP1 REVERT JUMPDEST POP JUMP JUMPDEST PUSH0 DUP2 MLOAD SWAP1 POP PUSH2 0x2F1A DUP2 PUSH2 0x2EF6 JUMP JUMPDEST SWAP3 SWAP2 POP POP JUMP JUMPDEST PUSH0 DUP1 PUSH0 DUP1 PUSH0 DUP1 PUSH0 DUP1 PUSH0 PUSH2 0x120 DUP11 DUP13 SUB SLT ISZERO PUSH2 0x2F3E JUMPI PUSH2 0x2F3D PUSH2 0x2611 JUMP JUMPDEST JUMPDEST PUSH0 PUSH2 0x2F4B DUP13 DUP3 DUP14 ADD PUSH2 0x2ED4 JUMP JUMPDEST SWAP10 POP POP PUSH1 0x20 PUSH2 0x2F5C DUP13 DUP3 DUP14 ADD PUSH2 0x2ED4 JUMP JUMPDEST SWAP9 POP POP PUSH1 0x40 PUSH2 0x2F6D DUP13 DUP3 DUP14 ADD PUSH2 0x2ED4 JUMP JUMPDEST SWAP8 POP POP PUSH1 0x60 PUSH2 0x2F7E DUP13 DUP3 DUP14 ADD PUSH2 0x2ED4 JUMP JUMPDEST SWAP7 POP POP PUSH1 0x80 PUSH2 0x2F8F DUP13 DUP3 DUP14 ADD PUSH2 0x2ED4 JUMP JUMPDEST SWAP6 POP POP PUSH1 0xA0 PUSH2 0x2FA0 DUP13 DUP3 DUP14 ADD PUSH2 0x2F0C JUMP JUMPDEST SWAP5 POP POP PUSH1 0xC0 PUSH2 0x2FB1 DUP13 DUP3 DUP14 ADD PUSH2 0x2F0C JUMP JUMPDEST SWAP4 POP POP PUSH1 0xE0 PUSH2 0x2FC2 DUP13 DUP3 DUP14 ADD PUSH2 0x2F0C JUMP JUMPDEST SWAP3 POP POP PUSH2 0x100 PUSH2 0x2FD4 DUP13 DUP3 DUP14 ADD PUSH2 0x2F0C JUMP JUMPDEST SWAP2 POP POP SWAP3 SWAP6 SWAP9 POP SWAP3 SWAP6 SWAP9 POP SWAP3 SWAP6 SWAP9 JUMP JUMPDEST PUSH32 0x4E487B7100000000000000000000000000000000000000000000000000000000 PUSH0 MSTORE PUSH1 0x12 PUSH1 0x4 MSTORE PUSH1 0x24 PUSH0 REVERT JUMPDEST PUSH0 PUSH2 0x301B DUP3 PUSH2 0x2619 JUMP JUMPDEST SWAP2 POP PUSH2 0x3026 DUP4 PUSH2 0x2619 JUMP JUMPDEST SWAP3 POP DUP3 PUSH2 0x3036 JUMPI PUSH2 0x3035 PUSH2 0x2FE4 JUMP JUMPDEST JUMPDEST DUP3 DUP3 DIV SWAP1 POP SWAP3 SWAP2 POP POP JUMP JUMPDEST PUSH0 PUSH2 0x304B DUP3 PUSH2 0x2619 JUMP JUMPDEST SWAP2 POP PUSH2 0x3056 DUP4 PUSH2 0x2619 JUMP JUMPDEST SWAP3 POP DUP3 DUP3 ADD SWAP1 POP DUP1 DUP3 GT ISZERO PUSH2 0x306E JUMPI PUSH2 0x306D PUSH2 0x2BE0 JUMP JUMPDEST JUMPDEST SWAP3 SWAP2 POP POP JUMP JUMPDEST PUSH0 DUP2 SWAP1 POP SWAP2 SWAP1 POP JUMP JUMPDEST PUSH0 PUSH2 0x3097 PUSH2 0x3092 PUSH2 0x308D DUP5 PUSH2 0x3074 JUMP JUMPDEST PUSH2 0x297E JUMP JUMPDEST PUSH2 0x2619 JUMP JUMPDEST SWAP1 POP SWAP2 SWAP1 POP JUMP JUMPDEST PUSH2 0x30A7 DUP2 PUSH2 0x307D JUMP JUMPDEST DUP3 MSTORE POP POP JUMP JUMPDEST PUSH0 PUSH1 0x20 DUP3 ADD SWAP1 POP PUSH2 0x30C0 PUSH0 DUP4 ADD DUP5 PUSH2 0x309E JUMP JUMPDEST SWAP3 SWAP2 POP POP JUMP JUMPDEST PUSH2 0x30CF DUP2 PUSH2 0x28BB JUMP JUMPDEST DUP3 MSTORE POP POP JUMP JUMPDEST PUSH0 PUSH1 0xC0 DUP3 ADD SWAP1 POP PUSH2 0x30E8 PUSH0 DUP4 ADD DUP10 PUSH2 0x2A78 JUMP JUMPDEST PUSH2 0x30F5 PUSH1 0x20 DUP4 ADD DUP9 PUSH2 0x29F2 JUMP JUMPDEST PUSH2 0x3102 PUSH1 0x40 DUP4 ADD DUP8 PUSH2 0x30C6 JUMP JUMPDEST PUSH2 0x310F PUSH1 0x60 DUP4 ADD DUP7 PUSH2 0x2A78 JUMP JUMPDEST PUSH2 0x311C PUSH1 0x80 DUP4 ADD DUP6 PUSH2 0x2A78 JUMP JUMPDEST PUSH2 0x3129 PUSH1 0xA0 DUP4 ADD DUP5 PUSH2 0x2A78 JUMP JUMPDEST SWAP8 SWAP7 POP POP POP POP POP POP POP JUMP JUMPDEST PUSH0 PUSH2 0x313E DUP3 PUSH2 0x2E16 JUMP JUMPDEST SWAP2 POP PUSH32 0x8000000000000000000000000000000000000000000000000000000000000000 DUP3 SUB PUSH2 0x3170 JUMPI PUSH2 0x316F PUSH2 0x2BE0 JUMP JUMPDEST JUMPDEST DUP2 PUSH0 SUB SWAP1 POP SWAP2 SWAP1 POP JUMP JUMPDEST PUSH0 PUSH2 0x3184 DUP3 PUSH2 0x2619 JUMP JUMPDEST SWAP2 POP PUSH2 0x318F DUP4 PUSH2 0x2619 JUMP JUMPDEST SWAP3 POP DUP3 PUSH2 0x319F JUMPI PUSH2 0x319E PUSH2 0x2FE4 JUMP JUMPDEST JUMPDEST DUP3 DUP3 MOD SWAP1 POP SWAP3 SWAP2 POP POP JUMP JUMPDEST PUSH0 PUSH2 0x31B4 DUP3 PUSH2 0x2E16 JUMP JUMPDEST SWAP2 POP PUSH2 0x31BF DUP4 PUSH2 0x2E16 JUMP JUMPDEST SWAP3 POP DUP3 DUP3 SUB SWAP1 POP DUP2 DUP2 SLT PUSH0 DUP5 SLT AND DUP3 DUP3 SGT PUSH0 DUP6 SLT ISZERO AND OR ISZERO PUSH2 0x31E4 JUMPI PUSH2 0x31E3 PUSH2 0x2BE0 JUMP JUMPDEST JUMPDEST SWAP3 SWAP2 POP POP JUMP JUMPDEST PUSH0 PUSH2 0x31F4 DUP3 PUSH2 0x2E16 JUMP JUMPDEST SWAP2 POP PUSH2 0x31FF DUP4 PUSH2 0x2E16 JUMP JUMPDEST SWAP3 POP DUP3 DUP3 ADD SWAP1 POP DUP3 DUP2 SLT ISZERO PUSH0 DUP4 SLT AND DUP4 DUP3 SLT PUSH0 DUP5 SLT ISZERO AND OR ISZERO PUSH2 0x3225 JUMPI PUSH2 0x3224 PUSH2 0x2BE0 JUMP JUMPDEST JUMPDEST SWAP3 SWAP2 POP POP JUMP JUMPDEST PUSH0 PUSH2 0x3235 DUP3 PUSH2 0x28BB JUMP JUMPDEST SWAP2 POP PUSH4 0xFFFFFFFF DUP3 SUB PUSH2 0x324B JUMPI PUSH2 0x324A PUSH2 0x2BE0 JUMP JUMPDEST JUMPDEST PUSH1 0x1 DUP3 ADD SWAP1 POP SWAP2 SWAP1 POP JUMP JUMPDEST PUSH0 PUSH2 0x3260 DUP3 PUSH2 0x28BB JUMP JUMPDEST SWAP2 POP PUSH2 0x326B DUP4 PUSH2 0x28BB JUMP JUMPDEST SWAP3 POP DUP3 DUP3 SUB SWAP1 POP PUSH4 0xFFFFFFFF DUP2 GT ISZERO PUSH2 0x3287 JUMPI PUSH2 0x3286 PUSH2 0x2BE0 JUMP JUMPDEST JUMPDEST SWAP3 SWAP2 POP POP JUMP JUMPDEST PUSH0 DUP2 MLOAD SWAP1 POP SWAP2 SWAP1 POP JUMP JUMPDEST PUSH0 DUP3 DUP3 MSTORE PUSH1 0x20 DUP3 ADD SWAP1 POP SWAP3 SWAP2 POP POP JUMP JUMPDEST PUSH0 DUP2 SWAP1 POP PUSH1 0x20 DUP3 ADD SWAP1 POP SWAP2 SWAP1 POP JUMP JUMPDEST PUSH0 PUSH2 0x32C1 DUP4 DUP4 PUSH2 0x287B JUMP JUMPDEST PUSH1 0x20 DUP4 ADD SWAP1 POP SWAP3 SWAP2 POP POP JUMP JUMPDEST PUSH0 PUSH1 0x20 DUP3 ADD SWAP1 POP SWAP2 SWAP1 POP JUMP JUMPDEST PUSH0 PUSH2 0x32E3 DUP3 PUSH2 0x328D JUMP JUMPDEST PUSH2 0x32ED DUP2 DUP6 PUSH2 0x3297 JUMP JUMPDEST SWAP4 POP PUSH2 0x32F8 DUP4 PUSH2 0x32A7 JUMP JUMPDEST DUP1 PUSH0 JUMPDEST DUP4 DUP2 LT ISZERO PUSH2 0x3328 JUMPI DUP2 MLOAD PUSH2 0x330F DUP9 DUP3 PUSH2 0x32B6 JUMP JUMPDEST SWAP8 POP PUSH2 0x331A DUP4 PUSH2 0x32CD JUMP JUMPDEST SWAP3 POP POP PUSH1 0x1 DUP2 ADD SWAP1 POP PUSH2 0x32FB JUMP JUMPDEST POP DUP6 SWAP4 POP POP POP POP SWAP3 SWAP2 POP POP JUMP JUMPDEST PUSH0 PUSH1 0xE0 DUP3 ADD SWAP1 POP PUSH2 0x3348 PUSH0 DUP4 ADD DUP11 PUSH2 0x2A78 JUMP JUMPDEST PUSH2 0x3355 PUSH1 0x20 DUP4 ADD DUP10 PUSH2 0x2A78 JUMP JUMPDEST PUSH2 0x3362 PUSH1 0x40 DUP4 ADD DUP9 PUSH2 0x29F2 JUMP JUMPDEST DUP2 DUP2 SUB PUSH1 0x60 DUP4 ADD MSTORE PUSH2 0x3374 DUP2 DUP8 PUSH2 0x258C JUMP JUMPDEST SWAP1 POP DUP2 DUP2 SUB PUSH1 0x80 DUP4 ADD MSTORE PUSH2 0x3388 DUP2 DUP7 PUSH2 0x32D9 JUMP JUMPDEST SWAP1 POP DUP2 DUP2 SUB PUSH1 0xA0 DUP4 ADD MSTORE PUSH2 0x339C DUP2 DUP6 PUSH2 0x32D9 JUMP JUMPDEST SWAP1 POP PUSH2 0x33AB PUSH1 0xC0 DUP4 ADD DUP5 PUSH2 0x30C6 JUMP JUMPDEST SWAP9 SWAP8 POP POP POP POP POP POP POP POP JUMP JUMPDEST PUSH0 DUP3 DUP3 MSTORE PUSH1 0x20 DUP3 ADD SWAP1 POP SWAP3 SWAP2 POP POP JUMP JUMPDEST PUSH32 0x5265656E7472616E637947756172643A207265656E7472616E742063616C6C00 PUSH0 DUP3 ADD MSTORE POP JUMP JUMPDEST PUSH0 PUSH2 0x33FB PUSH1 0x1F DUP4 PUSH2 0x33B7 JUMP JUMPDEST SWAP2 POP PUSH2 0x3406 DUP3 PUSH2 0x33C7 JUMP JUMPDEST PUSH1 0x20 DUP3 ADD SWAP1 POP SWAP2 SWAP1 POP JUMP JUMPDEST PUSH0 PUSH1 0x20 DUP3 ADD SWAP1 POP DUP2 DUP2 SUB PUSH0 DUP4 ADD MSTORE PUSH2 0x3428 DUP2 PUSH2 0x33EF JUMP JUMPDEST SWAP1 POP SWAP2 SWAP1 POP JUMP JUMPDEST PUSH0 PUSH1 0x40 DUP3 ADD SWAP1 POP PUSH2 0x3442 PUSH0 DUP4 ADD DUP6 PUSH2 0x29F2 JUMP JUMPDEST PUSH2 0x344F PUSH1 0x20 DUP4 ADD DUP5 PUSH2 0x2A78 JUMP JUMPDEST SWAP4 SWAP3 POP POP POP JUMP JUMPDEST PUSH0 PUSH1 0x20 DUP3 DUP5 SUB SLT ISZERO PUSH2 0x346B JUMPI PUSH2 0x346A PUSH2 0x2611 JUMP JUMPDEST JUMPDEST PUSH0 PUSH2 0x3478 DUP5 DUP3 DUP6 ADD PUSH2 0x2E49 JUMP JUMPDEST SWAP2 POP POP SWAP3 SWAP2 POP POP JUMP JUMPDEST PUSH0 PUSH1 0x40 DUP3 ADD SWAP1 POP PUSH2 0x3494 PUSH0 DUP4 ADD DUP6 PUSH2 0x2A78 JUMP JUMPDEST PUSH2 0x34A1 PUSH1 0x20 DUP4 ADD DUP5 PUSH2 0x2A78 JUMP JUMPDEST SWAP4 SWAP3 POP POP POP JUMP JUMPDEST PUSH2 0x34B1 DUP2 PUSH2 0x2A1A JUMP JUMPDEST DUP2 EQ PUSH2 0x34BB JUMPI PUSH0 DUP1 REVERT JUMPDEST POP JUMP JUMPDEST PUSH0 DUP2 MLOAD SWAP1 POP PUSH2 0x34CC DUP2 PUSH2 0x34A8 JUMP JUMPDEST SWAP3 SWAP2 POP POP JUMP JUMPDEST PUSH0 PUSH1 0x20 DUP3 DUP5 SUB SLT ISZERO PUSH2 0x34E7 JUMPI PUSH2 0x34E6 PUSH2 0x2611 JUMP JUMPDEST JUMPDEST PUSH0 PUSH2 0x34F4 DUP5 DUP3 DUP6 ADD PUSH2 0x34BE JUMP JUMPDEST SWAP2 POP POP SWAP3 SWAP2 POP POP JUMP JUMPDEST PUSH0 DUP1 PUSH1 0x40 DUP4 DUP6 SUB SLT ISZERO PUSH2 0x3513 JUMPI PUSH2 0x3512 PUSH2 0x2611 JUMP JUMPDEST JUMPDEST PUSH0 PUSH2 0x3520 DUP6 DUP3 DUP7 ADD PUSH2 0x34BE JUMP JUMPDEST SWAP3 POP POP PUSH1 0x20 PUSH2 0x3531 DUP6 DUP3 DUP7 ADD PUSH2 0x2E49 JUMP JUMPDEST SWAP2 POP POP SWAP3 POP SWAP3 SWAP1 POP JUMP JUMPDEST PUSH0 PUSH2 0x3545 DUP3 PUSH2 0x2619 JUMP JUMPDEST SWAP2 POP PUSH2 0x3550 DUP4 PUSH2 0x2619 JUMP JUMPDEST SWAP3 POP DUP3 DUP3 SUB SWAP1 POP DUP2 DUP2 GT ISZERO PUSH2 0x3568 JUMPI PUSH2 0x3567 PUSH2 0x2BE0 JUMP JUMPDEST JUMPDEST SWAP3 SWAP2 POP POP JUMP JUMPDEST PUSH0 DUP2 SWAP1 POP SWAP2 SWAP1 POP JUMP JUMPDEST PUSH0 DUP2 SWAP1 POP SWAP2 SWAP1 POP JUMP JUMPDEST PUSH0 DUP2 PUSH0 SHL SWAP1 POP SWAP2 SWAP1 POP JUMP JUMPDEST PUSH0 PUSH2 0x35A5 PUSH2 0x35A0 PUSH2 0x359B DUP5 PUSH2 0x356E JUMP JUMPDEST PUSH2 0x3580 JUMP JUMPDEST PUSH2 0x3577 JUMP JUMPDEST SWAP1 POP SWAP2 SWAP1 POP JUMP JUMPDEST PUSH2 0x35B5 DUP2 PUSH2 0x358B JUMP JUMPDEST DUP3 MSTORE POP POP JUMP JUMPDEST PUSH0 DUP2 SWAP1 POP SWAP2 SWAP1 POP JUMP JUMPDEST PUSH0 PUSH2 0x35DE PUSH2 0x35D9 PUSH2 0x35D4 DUP5 PUSH2 0x35BB JUMP JUMPDEST PUSH2 0x297E JUMP JUMPDEST PUSH2 0x2899 JUMP JUMPDEST SWAP1 POP SWAP2 SWAP1 POP JUMP JUMPDEST PUSH2 0x35EE DUP2 PUSH2 0x35C4 JUMP JUMPDEST DUP3 MSTORE POP POP JUMP JUMPDEST PUSH0 DUP2 SWAP1 POP SWAP2 SWAP1 POP JUMP JUMPDEST PUSH0 PUSH2 0x3617 PUSH2 0x3612 PUSH2 0x360D DUP5 PUSH2 0x35F4 JUMP JUMPDEST PUSH2 0x297E JUMP JUMPDEST PUSH2 0x254D JUMP JUMPDEST SWAP1 POP SWAP2 SWAP1 POP JUMP JUMPDEST PUSH2 0x3627 DUP2 PUSH2 0x35FD JUMP JUMPDEST DUP3 MSTORE POP POP JUMP JUMPDEST PUSH0 DUP2 SWAP1 POP SWAP2 SWAP1 POP JUMP JUMPDEST PUSH0 PUSH2 0x3650 PUSH2 0x364B PUSH2 0x3646 DUP5 PUSH2 0x362D JUMP JUMPDEST PUSH2 0x297E JUMP JUMPDEST PUSH2 0x28BB JUMP JUMPDEST SWAP1 POP SWAP2 SWAP1 POP JUMP JUMPDEST PUSH2 0x3660 DUP2 PUSH2 0x3636 JUMP JUMPDEST DUP3 MSTORE POP POP JUMP JUMPDEST PUSH0 PUSH1 0xA0 DUP3 ADD SWAP1 POP PUSH2 0x3679 PUSH0 DUP4 ADD DUP9 PUSH2 0x35AC JUMP JUMPDEST PUSH2 0x3686 PUSH1 0x20 DUP4 ADD DUP8 PUSH2 0x35E5 JUMP JUMPDEST PUSH2 0x3693 PUSH1 0x40 DUP4 ADD DUP7 PUSH2 0x361E JUMP JUMPDEST PUSH2 0x36A0 PUSH1 0x60 DUP4 ADD DUP6 PUSH2 0x3657 JUMP JUMPDEST PUSH2 0x36AD PUSH1 0x80 DUP4 ADD DUP5 PUSH2 0x30C6 JUMP JUMPDEST SWAP7 SWAP6 POP POP POP POP POP POP JUMP JUMPDEST PUSH0 PUSH1 0x60 DUP3 ADD SWAP1 POP PUSH2 0x36CA PUSH0 DUP4 ADD DUP7 PUSH2 0x29F2 JUMP JUMPDEST PUSH2 0x36D7 PUSH1 0x20 DUP4 ADD DUP6 PUSH2 0x2A78 JUMP JUMPDEST PUSH2 0x36E4 PUSH1 0x40 DUP4 ADD DUP5 PUSH2 0x29F2 JUMP JUMPDEST SWAP5 SWAP4 POP POP POP POP JUMP JUMPDEST PUSH0 PUSH1 0x60 DUP3 ADD SWAP1 POP PUSH2 0x36FF PUSH0 DUP4 ADD DUP7 PUSH2 0x29F2 JUMP JUMPDEST PUSH2 0x370C PUSH1 0x20 DUP4 ADD DUP6 PUSH2 0x29F2 JUMP JUMPDEST PUSH2 0x3719 PUSH1 0x40 DUP4 ADD DUP5 PUSH2 0x2A78 JUMP JUMPDEST SWAP5 SWAP4 POP POP POP POP JUMP JUMPDEST PUSH0 DUP2 MLOAD SWAP1 POP SWAP2 SWAP1 POP JUMP JUMPDEST PUSH0 JUMPDEST DUP4 DUP2 LT ISZERO PUSH2 0x3748 JUMPI DUP1 DUP3 ADD MLOAD DUP2 DUP5 ADD MSTORE PUSH1 0x20 DUP2 ADD SWAP1 POP PUSH2 0x372D JUMP JUMPDEST PUSH0 DUP5 DUP5 ADD MSTORE POP POP POP POP JUMP JUMPDEST PUSH0 PUSH2 0x375D DUP3 PUSH2 0x3721 JUMP JUMPDEST PUSH2 0x3767 DUP2 DUP6 PUSH2 0x2C9C JUMP JUMPDEST SWAP4 POP PUSH2 0x3777 DUP2 DUP6 PUSH1 0x20 DUP7 ADD PUSH2 0x372B JUMP JUMPDEST DUP1 DUP5 ADD SWAP2 POP POP SWAP3 SWAP2 POP POP JUMP JUMPDEST PUSH0 PUSH2 0x378E DUP3 DUP5 PUSH2 0x3753 JUMP JUMPDEST SWAP2 POP DUP2 SWAP1 POP SWAP3 SWAP2 POP POP JUMP INVALID LOG2 PUSH5 0x6970667358 0x22 SLT KECCAK256 SUB PUSH3 0x8A2593 JUMP REVERT GT PUSH14 0xACDF7E605C0FF61D8124C2B02735 PUSH27 0x28D531651F0E978C64736F6C634300081400330000000000000000 "
		},
		"gasEstimates": {
			"creation": {
				"codeDepositCost": "2857400",
				"executionCost": "infinite",
				"totalCost": "infinite"
			},
			"external": {
				"Bankroll()": "infinite",
				"ChainLinkVRF()": "2530",
				"IChainLinkVRF()": "infinite",
				"LINK_ETH_FEED()": "infinite",
				"Slots_GetMultipliers()": "infinite",
				"Slots_GetState(address)": "infinite",
				"Slots_Play(uint256,address,uint32,uint256,uint256)": "infinite",
				"Slots_Refund()": "infinite",
				"VRFFees()": "2492",
				"_trustedForwarder()": "2553",
				"getVRFFee(uint256)": "infinite",
				"isTrustedForwarder(address)": "2867",
				"rawFulfillRandomWords(uint256,uint256[])": "infinite",
				"transferFees(address)": "infinite"
			},
			"internal": {
				"_kellyWager(uint256,address)": "infinite",
				"_setSlotsMultipliers(uint16[] memory,uint16[] memory,uint16)": "infinite",
				"fulfillRandomWords(uint256,uint256[] memory)": "infinite"
			}
		},
		"methodIdentifiers": {
			"Bankroll()": "d0bcfc0c",
			"ChainLinkVRF()": "953995ea",
			"IChainLinkVRF()": "4dd189d5",
			"LINK_ETH_FEED()": "ad178361",
			"Slots_GetMultipliers()": "1734e50a",
			"Slots_GetState(address)": "44e13734",
			"Slots_Play(uint256,address,uint32,uint256,uint256)": "f26c05f2",
			"Slots_Refund()": "7127698f",
			"VRFFees()": "8d7c16d2",
			"_trustedForwarder()": "56c022bb",
			"getVRFFee(uint256)": "8bd16114",
			"isTrustedForwarder(address)": "572b6c05",
			"rawFulfillRandomWords(uint256,uint256[])": "1fe543e3",
			"transferFees(address)": "63dc4ef5"
		}
	},
	"abi": [
		{
			"inputs": [
				{
					"internalType": "address",
					"name": "_bankroll",
					"type": "address"
				},
				{
					"internalType": "address",
					"name": "_vrf",
					"type": "address"
				},
				{
					"internalType": "address",
					"name": "link_eth_feed",
					"type": "address"
				},
				{
					"internalType": "address",
					"name": "_forwarder",
					"type": "address"
				},
				{
					"internalType": "uint16[]",
					"name": "_multipliers",
					"type": "uint16[]"
				},
				{
					"internalType": "uint16[]",
					"name": "_outcomeNum",
					"type": "uint16[]"
				},
				{
					"internalType": "uint16",
					"name": "_numOutcomes",
					"type": "uint16"
				}
			],
			"stateMutability": "nonpayable",
			"type": "constructor"
		},
		{
			"inputs": [
				{
					"internalType": "address",
					"name": "target",
					"type": "address"
				}
			],
			"name": "AddressEmptyCode",
			"type": "error"
		},
		{
			"inputs": [
				{
					"internalType": "address",
					"name": "account",
					"type": "address"
				}
			],
			"name": "AddressInsufficientBalance",
			"type": "error"
		},
		{
			"inputs": [
				{
					"internalType": "uint256",
					"name": "requestID",
					"type": "uint256"
				}
			],
			"name": "AwaitingVRF",
			"type": "error"
		},
		{
			"inputs": [
				{
					"internalType": "uint256",
					"name": "have",
					"type": "uint256"
				},
				{
					"internalType": "uint256",
					"name": "want",
					"type": "uint256"
				}
			],
			"name": "BlockNumberTooLow",
			"type": "error"
		},
		{
			"inputs": [],
			"name": "FailedInnerCall",
			"type": "error"
		},
		{
			"inputs": [
				{
					"internalType": "uint256",
					"name": "maxNumBets",
					"type": "uint256"
				}
			],
			"name": "InvalidNumBets",
			"type": "error"
		},
		{
			"inputs": [
				{
					"internalType": "uint256",
					"name": "required",
					"type": "uint256"
				},
				{
					"internalType": "uint256",
					"name": "sent",
					"type": "uint256"
				}
			],
			"name": "InvalidValue",
			"type": "error"
		},
		{
			"inputs": [],
			"name": "NotApprovedBankroll",
			"type": "error"
		},
		{
			"inputs": [],
			"name": "NotAwaitingVRF",
			"type": "error"
		},
		{
			"inputs": [
				{
					"internalType": "address",
					"name": "want",
					"type": "address"
				},
				{
					"internalType": "address",
					"name": "have",
					"type": "address"
				}
			],
			"name": "NotOwner",
			"type": "error"
		},
		{
			"inputs": [
				{
					"internalType": "address",
					"name": "have",
					"type": "address"
				},
				{
					"internalType": "address",
					"name": "want",
					"type": "address"
				}
			],
			"name": "OnlyCoordinatorCanFulfill",
			"type": "error"
		},
		{
			"inputs": [
				{
					"internalType": "uint256",
					"name": "suspensionTime",
					"type": "uint256"
				}
			],
			"name": "PlayerSuspended",
			"type": "error"
		},
		{
			"inputs": [],
			"name": "RefundFailed",
			"type": "error"
		},
		{
			"inputs": [
				{
					"internalType": "address",
					"name": "token",
					"type": "address"
				}
			],
			"name": "SafeERC20FailedOperation",
			"type": "error"
		},
		{
			"inputs": [],
			"name": "TransferFailed",
			"type": "error"
		},
		{
			"inputs": [
				{
					"internalType": "uint256",
					"name": "wager",
					"type": "uint256"
				},
				{
					"internalType": "uint256",
					"name": "maxWager",
					"type": "uint256"
				}
			],
			"name": "WagerAboveLimit",
			"type": "error"
		},
		{
			"inputs": [],
			"name": "ZeroWager",
			"type": "error"
		},
		{
			"anonymous": false,
			"inputs": [
				{
					"indexed": true,
					"internalType": "address",
					"name": "playerAddress",
					"type": "address"
				},
				{
					"indexed": false,
					"internalType": "uint256",
					"name": "wager",
					"type": "uint256"
				},
				{
					"indexed": false,
					"internalType": "uint256",
					"name": "payout",
					"type": "uint256"
				},
				{
					"indexed": false,
					"internalType": "address",
					"name": "tokenAddress",
					"type": "address"
				},
				{
					"indexed": false,
					"internalType": "uint16[]",
					"name": "slotIDs",
					"type": "uint16[]"
				},
				{
					"indexed": false,
					"internalType": "uint256[]",
					"name": "multipliers",
					"type": "uint256[]"
				},
				{
					"indexed": false,
					"internalType": "uint256[]",
					"name": "payouts",
					"type": "uint256[]"
				},
				{
					"indexed": false,
					"internalType": "uint32",
					"name": "numGames",
					"type": "uint32"
				}
			],
			"name": "Slots_Outcome_Event",
			"type": "event"
		},
		{
			"anonymous": false,
			"inputs": [
				{
					"indexed": true,
					"internalType": "address",
					"name": "playerAddress",
					"type": "address"
				},
				{
					"indexed": false,
					"internalType": "uint256",
					"name": "wager",
					"type": "uint256"
				},
				{
					"indexed": false,
					"internalType": "address",
					"name": "tokenAddress",
					"type": "address"
				},
				{
					"indexed": false,
					"internalType": "uint32",
					"name": "numBets",
					"type": "uint32"
				},
				{
					"indexed": false,
					"internalType": "uint256",
					"name": "stopGain",
					"type": "uint256"
				},
				{
					"indexed": false,
					"internalType": "uint256",
					"name": "stopLoss",
					"type": "uint256"
				},
				{
					"indexed": false,
					"internalType": "uint256",
					"name": "VRFFee",
					"type": "uint256"
				}
			],
			"name": "Slots_Play_Event",
			"type": "event"
		},
		{
			"anonymous": false,
			"inputs": [
				{
					"indexed": true,
					"internalType": "address",
					"name": "player",
					"type": "address"
				},
				{
					"indexed": false,
					"internalType": "uint256",
					"name": "wager",
					"type": "uint256"
				},
				{
					"indexed": false,
					"internalType": "address",
					"name": "tokenAddress",
					"type": "address"
				}
			],
			"name": "Slots_Refund_Event",
			"type": "event"
		},
		{
			"inputs": [],
			"name": "Bankroll",
			"outputs": [
				{
					"internalType": "contract IBankRoll",
					"name": "",
					"type": "address"
				}
			],
			"stateMutability": "view",
			"type": "function"
		},
		{
			"inputs": [],
			"name": "ChainLinkVRF",
			"outputs": [
				{
					"internalType": "address",
					"name": "",
					"type": "address"
				}
			],
			"stateMutability": "view",
			"type": "function"
		},
		{
			"inputs": [],
			"name": "IChainLinkVRF",
			"outputs": [
				{
					"internalType": "contract IVRFCoordinatorV2",
					"name": "",
					"type": "address"
				}
			],
			"stateMutability": "view",
			"type": "function"
		},
		{
			"inputs": [],
			"name": "LINK_ETH_FEED",
			"outputs": [
				{
					"internalType": "contract AggregatorV3Interface",
					"name": "",
					"type": "address"
				}
			],
			"stateMutability": "view",
			"type": "function"
		},
		{
			"inputs": [],
			"name": "Slots_GetMultipliers",
			"outputs": [
				{
					"internalType": "uint16[]",
					"name": "multipliers",
					"type": "uint16[]"
				}
			],
			"stateMutability": "view",
			"type": "function"
		},
		{
			"inputs": [
				{
					"internalType": "address",
					"name": "player",
					"type": "address"
				}
			],
			"name": "Slots_GetState",
			"outputs": [
				{
					"components": [
						{
							"internalType": "uint256",
							"name": "wager",
							"type": "uint256"
						},
						{
							"internalType": "uint256",
							"name": "stopGain",
							"type": "uint256"
						},
						{
							"internalType": "uint256",
							"name": "stopLoss",
							"type": "uint256"
						},
						{
							"internalType": "uint256",
							"name": "requestID",
							"type": "uint256"
						},
						{
							"internalType": "address",
							"name": "tokenAddress",
							"type": "address"
						},
						{
							"internalType": "uint64",
							"name": "blockNumber",
							"type": "uint64"
						},
						{
							"internalType": "uint32",
							"name": "numBets",
							"type": "uint32"
						}
					],
					"internalType": "struct Slots.SlotsGame",
					"name": "",
					"type": "tuple"
				}
			],
			"stateMutability": "view",
			"type": "function"
		},
		{
			"inputs": [
				{
					"internalType": "uint256",
					"name": "wager",
					"type": "uint256"
				},
				{
					"internalType": "address",
					"name": "tokenAddress",
					"type": "address"
				},
				{
					"internalType": "uint32",
					"name": "numBets",
					"type": "uint32"
				},
				{
					"internalType": "uint256",
					"name": "stopGain",
					"type": "uint256"
				},
				{
					"internalType": "uint256",
					"name": "stopLoss",
					"type": "uint256"
				}
			],
			"name": "Slots_Play",
			"outputs": [],
			"stateMutability": "payable",
			"type": "function"
		},
		{
			"inputs": [],
			"name": "Slots_Refund",
			"outputs": [],
			"stateMutability": "nonpayable",
			"type": "function"
		},
		{
			"inputs": [],
			"name": "VRFFees",
			"outputs": [
				{
					"internalType": "uint256",
					"name": "",
					"type": "uint256"
				}
			],
			"stateMutability": "view",
			"type": "function"
		},
		{
			"inputs": [],
			"name": "_trustedForwarder",
			"outputs": [
				{
					"internalType": "address",
					"name": "",
					"type": "address"
				}
			],
			"stateMutability": "view",
			"type": "function"
		},
		{
			"inputs": [
				{
					"internalType": "uint256",
					"name": "gasAmount",
					"type": "uint256"
				}
			],
			"name": "getVRFFee",
			"outputs": [
				{
					"internalType": "uint256",
					"name": "fee",
					"type": "uint256"
				}
			],
			"stateMutability": "view",
			"type": "function"
		},
		{
			"inputs": [
				{
					"internalType": "address",
					"name": "forwarder",
					"type": "address"
				}
			],
			"name": "isTrustedForwarder",
			"outputs": [
				{
					"internalType": "bool",
					"name": "",
					"type": "bool"
				}
			],
			"stateMutability": "view",
			"type": "function"
		},
		{
			"inputs": [
				{
					"internalType": "uint256",
					"name": "requestId",
					"type": "uint256"
				},
				{
					"internalType": "uint256[]",
					"name": "randomWords",
					"type": "uint256[]"
				}
			],
			"name": "rawFulfillRandomWords",
			"outputs": [],
			"stateMutability": "nonpayable",
			"type": "function"
		},
		{
			"inputs": [
				{
					"internalType": "address",
					"name": "to",
					"type": "address"
				}
			],
			"name": "transferFees",
			"outputs": [],
			"stateMutability": "nonpayable",
			"type": "function"
		}
	]
}