{
	"data": {
		"bytecode": {
			"linkReferences": {},
			"object": "608060405234801562000010575f80fd5b5060405162005a3538038062005a358339818101604052810190620000369190620002bb565b60015f819055508360065f6101000a81548173ffffffffffffffffffffffffffffffffffffffff021916908373ffffffffffffffffffffffffffffffffffffffff1602179055508260055f6101000a81548173ffffffffffffffffffffffffffffffffffffffff021916908373ffffffffffffffffffffffffffffffffffffffff1602179055508160045f6101000a81548173ffffffffffffffffffffffffffffffffffffffff021916908373ffffffffffffffffffffffffffffffffffffffff1602179055508260025f6101000a81548173ffffffffffffffffffffffffffffffffffffffff021916908373ffffffffffffffffffffffffffffffffffffffff1602179055508060035f6101000a81548173ffffffffffffffffffffffffffffffffffffffff021916908373ffffffffffffffffffffffffffffffffffffffff1602179055505f5b60048160ff1610156200024b575f600190505b600e8160ff1610156200023457600760405180604001604052808360ff1681526020018460ff16815250908060018154018082558091505060019003905f5260205f20015f909190919091505f820151815f015f6101000a81548160ff021916908360ff1602179055506020820151815f0160016101000a81548160ff021916908360ff160217905550505080806200022b9062000363565b91505062000192565b508080620002429062000363565b9150506200017f565b505050505062000390565b5f80fd5b5f73ffffffffffffffffffffffffffffffffffffffff82169050919050565b5f62000285826200025a565b9050919050565b620002978162000279565b8114620002a2575f80fd5b50565b5f81519050620002b5816200028c565b92915050565b5f805f8060808587031215620002d657620002d562000256565b5b5f620002e587828801620002a5565b9450506020620002f887828801620002a5565b93505060406200030b87828801620002a5565b92505060606200031e87828801620002a5565b91505092959194509250565b7f4e487b71000000000000000000000000000000000000000000000000000000005f52601160045260245ffd5b5f60ff82169050919050565b5f6200036f8262000357565b915060ff82036200038557620003846200032a565b5b600182019050919050565b615697806200039e5f395ff3fe6080604052600436106100e7575f3560e01c80638d7c16d211610089578063e40ea4bc11610058578063e40ea4bc146102cb578063e67ae769146102e7578063ec0f5d8c146102fd578063f2d3444b1461033a576100e7565b80638d7c16d214610223578063953995ea1461024d578063ad17836114610277578063d0bcfc0c146102a1576100e7565b8063572b6c05116100c5578063572b6c051461016757806363dc4ef5146101a35780636c8abecc146101cb5780638bd16114146101e7576100e7565b80631fe543e3146100eb5780634dd189d51461011357806356c022bb1461013d575b5f80fd5b3480156100f6575f80fd5b50610111600480360381019061010c9190614281565b610376565b005b34801561011e575f80fd5b50610127610438565b6040516101349190614355565b60405180910390f35b348015610148575f80fd5b5061015161045d565b60405161015e919061438e565b60405180910390f35b348015610172575f80fd5b5061018d600480360381019061018891906143d1565b610482565b60405161019a9190614416565b60405180910390f35b3480156101ae575f80fd5b506101c960048036038101906101c491906143d1565b6104da565b005b6101e560048036038101906101e0919061442f565b610727565b005b3480156101f2575f80fd5b5061020d6004803603810190610208919061446d565b61099f565b60405161021a91906144a7565b60405180910390f35b34801561022e575f80fd5b50610237610b23565b60405161024491906144a7565b60405180910390f35b348015610258575f80fd5b50610261610b29565b60405161026e919061438e565b60405180910390f35b348015610282575f80fd5b5061028b610b4e565b60405161029891906144e0565b60405180910390f35b3480156102ac575f80fd5b506102b5610b73565b6040516102c29190614519565b60405180910390f35b6102e560048036038101906102e09190614553565b610b98565b005b3480156102f2575f80fd5b506102fb61104d565b005b348015610308575f80fd5b50610323600480360381019061031e91906146b3565b61143a565b6040516103319291906146df565b60405180910390f35b348015610345575f80fd5b50610360600480360381019061035b91906143d1565b612622565b60405161036d9190614960565b60405180910390f35b60025f9054906101000a900473ffffffffffffffffffffffffffffffffffffffff1673ffffffffffffffffffffffffffffffffffffffff163373ffffffffffffffffffffffffffffffffffffffff161461042a573360025f9054906101000a900473ffffffffffffffffffffffffffffffffffffffff166040517f1cf993f400000000000000000000000000000000000000000000000000000000815260040161042192919061497a565b60405180910390fd5b6104348282612830565b5050565b60055f9054906101000a900473ffffffffffffffffffffffffffffffffffffffff1681565b60035f9054906101000a900473ffffffffffffffffffffffffffffffffffffffff1681565b5f60035f9054906101000a900473ffffffffffffffffffffffffffffffffffffffff1673ffffffffffffffffffffffffffffffffffffffff168273ffffffffffffffffffffffffffffffffffffffff16149050919050565b6104e2612f0e565b60065f9054906101000a900473ffffffffffffffffffffffffffffffffffffffff1673ffffffffffffffffffffffffffffffffffffffff1663893d20e86040518163ffffffff1660e01b8152600401602060405180830381865afa15801561054c573d5f803e3d5ffd5b505050506040513d601f19601f8201168201806040525081019061057091906149b5565b73ffffffffffffffffffffffffffffffffffffffff163373ffffffffffffffffffffffffffffffffffffffff161461066e5760065f9054906101000a900473ffffffffffffffffffffffffffffffffffffffff1673ffffffffffffffffffffffffffffffffffffffff1663893d20e86040518163ffffffff1660e01b8152600401602060405180830381865afa15801561060c573d5f803e3d5ffd5b505050506040513d601f19601f8201168201806040525081019061063091906149b5565b336040517f23295f0e00000000000000000000000000000000000000000000000000000000815260040161066592919061497a565b60405180910390fd5b5f60015490505f6001819055505f8273ffffffffffffffffffffffffffffffffffffffff16826040516106a090614a0d565b5f6040518083038185875af1925050503d805f81146106da576040519150601f19603f3d011682016040523d82523d5f602084013e6106df565b606091505b505090508061071a576040517f90b8ec1800000000000000000000000000000000000000000000000000000000815260040160405180910390fd5b5050610724612f5b565b50565b61072f612f0e565b5f610738612f64565b90505f60085f8373ffffffffffffffffffffffffffffffffffffffff1673ffffffffffffffffffffffffffffffffffffffff1681526020019081526020015f2090505f8160010154146107c65780600101546040517f440db96e0000000000000000000000000000000000000000000000000000000081526004016107bd91906144a7565b60405180910390fd5b806009015f9054906101000a900460ff161561080e576040517fc56fb25300000000000000000000000000000000000000000000000000000000815260040160405180910390fd5b6108188484612f99565b5f61082884866207a12086613117565b90505f610835600561346d565b90508360095f8381526020019081526020015f205f6101000a81548173ffffffffffffffffffffffffffffffffffffffff021916908373ffffffffffffffffffffffffffffffffffffffff16021790555084836002015f6101000a81548173ffffffffffffffffffffffffffffffffffffffff021916908373ffffffffffffffffffffffffffffffffffffffff16021790555085835f018190555060018360090160016101000a81548160ff021916908315150217905550808360010181905550438360020160146101000a81548167ffffffffffffffff021916908367ffffffffffffffff1602179055506001836009015f6101000a81548160ff0219169083151502179055508373ffffffffffffffffffffffffffffffffffffffff167fe56d6801294d0abce9ccc7d8ab8034ab36bdd58d638252dfea0f1f34c096738887878560405161098793929190614a21565b60405180910390a25050505061099b612f5b565b5050565b5f8060045f9054906101000a900473ffffffffffffffffffffffffffffffffffffffff1673ffffffffffffffffffffffffffffffffffffffff1663feaf968c6040518163ffffffff1660e01b815260040160a060405180830381865afa158015610a0b573d5f803e3d5ffd5b505050506040513d601f19601f82011682018060405250810190610a2f9190614adc565b5050509150505f60055f9054906101000a900473ffffffffffffffffffffffffffffffffffffffff1673ffffffffffffffffffffffffffffffffffffffff16635fbbc0d26040518163ffffffff1660e01b815260040161012060405180830381865afa158015610aa1573d5f803e3d5ffd5b505050506040513d601f19601f82011682018060405250810190610ac59190614bc4565b50505050505050509050670de0b6b3a7640000828263ffffffff1664e8d4a51000610af09190614cb5565b610afa9190614cb5565b610b049190614d23565b843a610b109190614cb5565b610b1a9190614d53565b92505050919050565b60015481565b60025f9054906101000a900473ffffffffffffffffffffffffffffffffffffffff1681565b60045f9054906101000a900473ffffffffffffffffffffffffffffffffffffffff1681565b60065f9054906101000a900473ffffffffffffffffffffffffffffffffffffffff1681565b610ba0612f0e565b5f610ba9612f64565b90505f60085f8373ffffffffffffffffffffffffffffffffffffffff1673ffffffffffffffffffffffffffffffffffffffff1681526020019081526020015f209050806009015f9054906101000a900460ff16610c32576040517f43050d9600000000000000000000000000000000000000000000000000000000815260040160405180910390fd5b5f816001015414610c7e5780600101546040517f440db96e000000000000000000000000000000000000000000000000000000008152600401610c7591906144a7565b60405180910390fd5b5f805f90505b60058160ff161015610cda57848160ff1660058110610ca657610ca5614d86565b5b602002016020810190610cb99190614ddd565b15610cc75760019150610cda565b8080610cd290614e08565b915050610c84565b508015610de9575f610cee6207a12061353d565b90505f610cfb600561346d565b90508460095f8381526020019081526020015f205f6101000a81548173ffffffffffffffffffffffffffffffffffffffff021916908373ffffffffffffffffffffffffffffffffffffffff1602179055508584600801906005610d5f929190613f09565b50808460010181905550438460020160146101000a81548167ffffffffffffffff021916908367ffffffffffffffff1602179055508473ffffffffffffffffffffffffffffffffffffffff167f49d4f29a92da90b1497635010ae712bcc41f88b5e2be5fbbeaf556a967dfb1aa83604051610dda91906144a7565b60405180910390a2505061103f565b5f3414610e22576040517f0c0682b200000000000000000000000000000000000000000000000000000000815260040160405180910390fd5b5f80610ea684600301600580602002604051908101604052809291905f905b82821015610e9d578382016040518060400160405290815f82015f9054906101000a900460ff1660ff1660ff1681526020015f820160019054906101000a900460ff1660ff1660ff168152505081526020019060010190610e41565b5050505061143a565b915091505f846002015f9054906101000a900473ffffffffffffffffffffffffffffffffffffffff1690505f855f015490508673ffffffffffffffffffffffffffffffffffffffff167fb73b6b634aea9965e3c60d60ac8d2380100c337b6d66167d297351746f4f1ac9828387610f1d9190614cb5565b858a60030188604051610f34959493929190614f58565b60405180910390a2610f4982875f01546135c1565b60085f8873ffffffffffffffffffffffffffffffffffffffff1673ffffffffffffffffffffffffffffffffffffffff1681526020019081526020015f205f8082015f9055600182015f9055600282015f6101000a81549073ffffffffffffffffffffffffffffffffffffffff02191690556002820160146101000a81549067ffffffffffffffff0219169055600382015f610fe49190613fa1565b600882015f610ff39190613fb4565b600982015f6101000a81549060ff02191690556009820160016101000a81549060ff021916905550505f841461103a576110398782866110339190614cb5565b8461370b565b5b505050505b50505061104a612f5b565b50565b611055612f0e565b5f61105e612f64565b90505f60085f8373ffffffffffffffffffffffffffffffffffffffff1673ffffffffffffffffffffffffffffffffffffffff1681526020019081526020015f209050806009015f9054906101000a900460ff166110e7576040517f43050d9600000000000000000000000000000000000000000000000000000000815260040160405180910390fd5b5f816001015403611124576040517f90a7340b00000000000000000000000000000000000000000000000000000000815260040160405180910390fd5b43600a6103e88360020160149054906101000a900467ffffffffffffffff1661114d9190614fab565b6111579190614fab565b67ffffffffffffffff1611156111d75743600a6103e88360020160149054906101000a900467ffffffffffffffff166111909190614fab565b61119a9190614fab565b6040517fb4ae675a0000000000000000000000000000000000000000000000000000000081526004016111ce929190615016565b60405180910390fd5b5f815f015490505f826002015f9054906101000a900473ffffffffffffffffffffffffffffffffffffffff16905060085f8573ffffffffffffffffffffffffffffffffffffffff1673ffffffffffffffffffffffffffffffffffffffff1681526020019081526020015f205f8082015f9055600182015f9055600282015f6101000a81549073ffffffffffffffffffffffffffffffffffffffff02191690556002820160146101000a81549067ffffffffffffffff0219169055600382015f6112a09190613fa1565b600882015f6112af9190613fb4565b600982015f6101000a81549060ff02191690556009820160016101000a81549060ff021916905550505f73ffffffffffffffffffffffffffffffffffffffff168173ffffffffffffffffffffffffffffffffffffffff16036113b0575f8473ffffffffffffffffffffffffffffffffffffffff168360405161133090614a0d565b5f6040518083038185875af1925050503d805f811461136a576040519150601f19603f3d011682016040523d82523d5f602084013e61136f565b606091505b50509050806113aa576040517f90b8ec1800000000000000000000000000000000000000000000000000000000815260040160405180910390fd5b506113dc565b6113db84838373ffffffffffffffffffffffffffffffffffffffff1661379b9092919063ffffffff16565b5b8373ffffffffffffffffffffffffffffffffffffffff167fa961a003e6bad850d2b19455e8db60fa1a37e0fce8259beadbb4f4958f4b8de1838360405161142492919061503d565b60405180910390a250505050611438612f5b565b565b5f805f6114468461381a565b90508060026005811061145c5761145b614d86565b5b60200201515f015160ff168160016005811061147b5761147a614d86565b5b60200201515f015160ff161480156114ce5750806003600581106114a2576114a1614d86565b5b60200201515f015160ff16816002600581106114c1576114c0614d86565b5b60200201515f015160ff16145b1561156b57805f600581106114e6576114e5614d86565b5b60200201515f015160ff168160016005811061150557611504614d86565b5b60200201515f015160ff16148061155757508060046005811061152b5761152a614d86565b5b60200201515f015160ff168160036005811061154a57611549614d86565b5b60200201515f015160ff16145b1561156a57601e6007925092505061261d565b5b805f6005811061157e5761157d614d86565b5b60200201515f015160ff168160016005811061159d5761159c614d86565b5b60200201515f015160ff161480156115f05750806003600581106115c4576115c3614d86565b5b60200201515f015160ff16816004600581106115e3576115e2614d86565b5b60200201515f015160ff16145b1561168e578060026005811061160957611608614d86565b5b60200201515f015160ff168160016005811061162857611627614d86565b5b60200201515f015160ff16148061167a57508060026005811061164e5761164d614d86565b5b60200201515f015160ff168160036005811061166d5761166c614d86565b5b60200201515f015160ff16145b1561168d5760086006925092505061261d565b5b806001600581106116a2576116a1614d86565b5b60200201516020015160ff16815f600581106116c1576116c0614d86565b5b60200201516020015160ff161480156117175750806003600581106116e9576116e8614d86565b5b60200201516020015160ff168160026005811061170957611708614d86565b5b60200201516020015160ff16145b801561175f57508060046005811061173257611731614d86565b5b60200201516020015160ff16815f6005811061175157611750614d86565b5b60200201516020015160ff16145b80156117a857508060016005811061177a57611779614d86565b5b60200201516020015160ff168160026005811061179a57611799614d86565b5b60200201516020015160ff16145b15611c0d576001815f600581106117c2576117c1614d86565b5b60200201515f015160ff161480156117f85750600d816004600581106117eb576117ea614d86565b5b60200201515f015160ff16145b156119025760018160036005811061181357611812614d86565b5b60200201515f01516118259190615064565b60ff168160026005811061183c5761183b614d86565b5b60200201515f015160ff1614801561189b575060018160046005811061186557611864614d86565b5b60200201515f01516118779190615064565b60ff168160036005811061188e5761188d614d86565b5b60200201515f015160ff16145b80156118ee57506001816002600581106118b8576118b7614d86565b5b60200201515f01516118ca9190615064565b60ff16816001600581106118e1576118e0614d86565b5b60200201515f015160ff16145b156119015760646009925092505061261d565b5b6001815f6005811061191757611916614d86565b5b60200201515f015160ff1614801561194d57506002816001600581106119405761193f614d86565b5b60200201515f015160ff16145b15611aa95760018160016005811061196857611967614d86565b5b60200201515f015161197a9190615064565b60ff16815f600581106119905761198f614d86565b5b60200201515f015160ff161480156119ef57506001816003600581106119b9576119b8614d86565b5b60200201515f01516119cb9190615064565b60ff16816002600581106119e2576119e1614d86565b5b60200201515f015160ff16145b8015611a425750600181600460058110611a0c57611a0b614d86565b5b60200201515f0151611a1e9190615064565b60ff1681600360058110611a3557611a34614d86565b5b60200201515f015160ff16145b8015611a955750600181600260058110611a5f57611a5e614d86565b5b60200201515f0151611a719190615064565b60ff1681600160058110611a8857611a87614d86565b5b60200201515f015160ff16145b15611aa85760326008925092505061261d565b5b600181600160058110611abf57611abe614d86565b5b60200201515f0151611ad19190615064565b60ff16815f60058110611ae757611ae6614d86565b5b60200201515f015160ff16148015611b465750600181600360058110611b1057611b0f614d86565b5b60200201515f0151611b229190615064565b60ff1681600260058110611b3957611b38614d86565b5b60200201515f015160ff16145b8015611b995750600181600460058110611b6357611b62614d86565b5b60200201515f0151611b759190615064565b60ff1681600360058110611b8c57611b8b614d86565b5b60200201515f015160ff16145b8015611bec5750600181600260058110611bb657611bb5614d86565b5b60200201515f0151611bc89190615064565b60ff1681600160058110611bdf57611bde614d86565b5b60200201515f015160ff16145b15611bff5760326008925092505061261d565b60066005925092505061261d565b6001815f60058110611c2257611c21614d86565b5b60200201515f015160ff16148015611c585750600281600160058110611c4b57611c4a614d86565b5b60200201515f015160ff16145b15611db457600181600160058110611c7357611c72614d86565b5b60200201515f0151611c859190615064565b60ff16815f60058110611c9b57611c9a614d86565b5b60200201515f015160ff16148015611cfa5750600181600360058110611cc457611cc3614d86565b5b60200201515f0151611cd69190615064565b60ff1681600260058110611ced57611cec614d86565b5b60200201515f015160ff16145b8015611d4d5750600181600460058110611d1757611d16614d86565b5b60200201515f0151611d299190615064565b60ff1681600360058110611d4057611d3f614d86565b5b60200201515f015160ff16145b8015611da05750600181600260058110611d6a57611d69614d86565b5b60200201515f0151611d7c9190615064565b60ff1681600160058110611d9357611d92614d86565b5b60200201515f015160ff16145b15611db35760056004925092505061261d565b5b6001815f60058110611dc957611dc8614d86565b5b60200201515f015160ff16148015611dff5750600d81600460058110611df257611df1614d86565b5b60200201515f015160ff16145b15611f0957600181600360058110611e1a57611e19614d86565b5b60200201515f0151611e2c9190615064565b60ff1681600260058110611e4357611e42614d86565b5b60200201515f015160ff16148015611ea25750600181600460058110611e6c57611e6b614d86565b5b60200201515f0151611e7e9190615064565b60ff1681600360058110611e9557611e94614d86565b5b60200201515f015160ff16145b8015611ef55750600181600260058110611ebf57611ebe614d86565b5b60200201515f0151611ed19190615064565b60ff1681600160058110611ee857611ee7614d86565b5b60200201515f015160ff16145b15611f085760056004925092505061261d565b5b600181600160058110611f1f57611f1e614d86565b5b60200201515f0151611f319190615064565b60ff16815f60058110611f4757611f46614d86565b5b60200201515f015160ff16148015611fa65750600181600260058110611f7057611f6f614d86565b5b60200201515f0151611f829190615064565b60ff1681600160058110611f9957611f98614d86565b5b60200201515f015160ff16145b8015611ff95750600181600360058110611fc357611fc2614d86565b5b60200201515f0151611fd59190615064565b60ff1681600260058110611fec57611feb614d86565b5b60200201515f015160ff16145b801561204c575060018160046005811061201657612015614d86565b5b60200201515f01516120289190615064565b60ff168160036005811061203f5761203e614d86565b5b60200201515f015160ff16145b1561205f5760056004925092505061261d565b8060016005811061207357612072614d86565b5b60200201515f015160ff16815f6005811061209157612090614d86565b5b60200201515f015160ff161480156120e45750806002600581106120b8576120b7614d86565b5b60200201515f015160ff16816001600581106120d7576120d6614d86565b5b60200201515f015160ff16145b156120f657600380925092505061261d565b8060026005811061210a57612109614d86565b5b60200201515f015160ff168160016005811061212957612128614d86565b5b60200201515f015160ff1614801561217c5750806003600581106121505761214f614d86565b5b60200201515f015160ff168160026005811061216f5761216e614d86565b5b60200201515f015160ff16145b1561218e57600380925092505061261d565b806003600581106121a2576121a1614d86565b5b60200201515f015160ff16816002600581106121c1576121c0614d86565b5b60200201515f015160ff161480156122145750806004600581106121e8576121e7614d86565b5b60200201515f015160ff168160036005811061220757612206614d86565b5b60200201515f015160ff16145b1561222657600380925092505061261d565b8060016005811061223a57612239614d86565b5b60200201515f015160ff16815f6005811061225857612257614d86565b5b60200201515f015160ff1603612300578060036005811061227c5761227b614d86565b5b60200201515f015160ff168160026005811061229b5761229a614d86565b5b60200201515f015160ff1614806122ed5750806004600581106122c1576122c0614d86565b5b60200201515f015160ff16816003600581106122e0576122df614d86565b5b60200201515f015160ff16145b156122ff57600280925092505061261d565b5b8060026005811061231457612313614d86565b5b60200201515f015160ff168160016005811061233357612332614d86565b5b60200201515f015160ff1603612394578060046005811061235757612356614d86565b5b60200201515f015160ff168160036005811061237657612375614d86565b5b60200201515f015160ff160361239357600280925092505061261d565b5b806001600581106123a8576123a7614d86565b5b60200201515f015160ff16815f600581106123c6576123c5614d86565b5b60200201515f015160ff160361243257600a815f600581106123eb576123ea614d86565b5b60200201515f015160ff16118061241f57506001815f6005811061241257612411614d86565b5b60200201515f015160ff16145b1561243157600180925092505061261d565b5b8060026005811061244657612445614d86565b5b60200201515f015160ff168160016005811061246557612464614d86565b5b60200201515f015160ff16036124d357600a8160016005811061248b5761248a614d86565b5b60200201515f015160ff1611806124c057506001816001600581106124b3576124b2614d86565b5b60200201515f015160ff16145b156124d257600180925092505061261d565b5b806003600581106124e7576124e6614d86565b5b60200201515f015160ff168160026005811061250657612505614d86565b5b60200201515f015160ff160361257457600a8160026005811061252c5761252b614d86565b5b60200201515f015160ff161180612561575060018160026005811061255457612553614d86565b5b60200201515f015160ff16145b1561257357600180925092505061261d565b5b8060046005811061258857612587614d86565b5b60200201515f015160ff16816003600581106125a7576125a6614d86565b5b60200201515f015160ff160361261557600a816003600581106125cd576125cc614d86565b5b60200201515f015160ff16118061260257506001816003600581106125f5576125f4614d86565b5b60200201515f015160ff16145b1561261457600180925092505061261d565b5b5f8092509250505b915091565b61262a613fba565b60085f8373ffffffffffffffffffffffffffffffffffffffff1673ffffffffffffffffffffffffffffffffffffffff1681526020019081526020015f20604051806101000160405290815f820154815260200160018201548152602001600282015f9054906101000a900473ffffffffffffffffffffffffffffffffffffffff1673ffffffffffffffffffffffffffffffffffffffff1673ffffffffffffffffffffffffffffffffffffffff1681526020016002820160149054906101000a900467ffffffffffffffff1667ffffffffffffffff1667ffffffffffffffff16815260200160038201600580602002604051908101604052809291905f905b82821015612784578382016040518060400160405290815f82015f9054906101000a900460ff1660ff1660ff1681526020015f820160019054906101000a900460ff1660ff1660ff168152505081526020019060010190612728565b505050508152602001600882016005806020026040519081016040528092919082600580156127eb576020028201915f905b82829054906101000a900460ff161515815260200190600101906020825f010492830192600103820291508084116127b65790505b50505050508152602001600982015f9054906101000a900460ff161515151581526020016009820160019054906101000a900460ff1615151515815250509050919050565b5f60095f8481526020019081526020015f205f9054906101000a900473ffffffffffffffffffffffffffffffffffffffff1690505f73ffffffffffffffffffffffffffffffffffffffff168173ffffffffffffffffffffffffffffffffffffffff160361289b575f80fd5b60095f8481526020019081526020015f205f6101000a81549073ffffffffffffffffffffffffffffffffffffffff02191690555f60085f8373ffffffffffffffffffffffffffffffffffffffff1673ffffffffffffffffffffffffffffffffffffffff1681526020019081526020015f2090506103e88160020160149054906101000a900467ffffffffffffffff166129349190614fab565b67ffffffffffffffff16431115612949575f80fd5b8060090160019054906101000a900460ff1615612ab2575f6007805480602002602001604051908101604052809291908181526020015f905b828210156129e5578382905f5260205f20016040518060400160405290815f82015f9054906101000a900460ff1660ff1660ff1681526020015f820160019054906101000a900460ff1660ff1660ff168152505081526020019060010190612982565b5050505090505f5b60058160ff161015612a3557612a2281868360ff1681518110612a1357612a12614d86565b5b60200260200101518685613842565b8080612a2d90614e08565b9150506129ed565b505f82600101819055505f8260090160016101000a81548160ff0219169083151502179055508273ffffffffffffffffffffffffffffffffffffffff167fc3b36130c75d38724a3591fd74cfe9738bf5234994a2bebe0d81ec71e012282a83600301604051612aa49190615098565b60405180910390a250612f08565b5f6007805480602002602001604051908101604052809291908181526020015f905b82821015612b37578382905f5260205f20016040518060400160405290815f82015f9054906101000a900460ff1660ff1660ff1681526020015f820160019054906101000a900460ff1660ff1660ff168152505081526020019060010190612ad4565b5050505090505f5b6005811015612c71575f5b6034811015612c5d57828181518110612b6657612b65614d86565b5b60200260200101515f015160ff16846003018360058110612b8a57612b89614d86565b5b015f015f9054906101000a900460ff1660ff16148015612bf35750828181518110612bb857612bb7614d86565b5b60200260200101516020015160ff16846003018360058110612bdd57612bdc614d86565b5b015f0160019054906101000a900460ff1660ff16145b15612c4a578260018451612c0791906150b2565b81518110612c1857612c17614d86565b5b6020026020010151838281518110612c3357612c32614d86565b5b602002602001018190525060018351038352612c5d565b8080612c55906150e5565b915050612b4a565b508080612c69906150e5565b915050612b3f565b505f5b60058160ff161015612cf157826008018160ff1660058110612c9957612c98614d86565b5b602091828204019190069054906101000a900460ff1615612cde57612cdd81868360ff1681518110612cce57612ccd614d86565b5b60200260200101518685613842565b5b8080612ce990614e08565b915050612c74565b505f825f015490505f836002015f9054906101000a900473ffffffffffffffffffffffffffffffffffffffff1690505f80612da486600301600580602002604051908101604052809291905f905b82821015612d9b578382016040518060400160405290815f82015f9054906101000a900460ff1660ff1660ff1681526020015f820160019054906101000a900460ff1660ff1660ff168152505081526020019060010190612d3f565b5050505061143a565b915091508673ffffffffffffffffffffffffffffffffffffffff167fb73b6b634aea9965e3c60d60ac8d2380100c337b6d66167d297351746f4f1ac9858487612ded9190614cb5565b868a60030186604051612e04959493929190614f58565b60405180910390a2612e1983875f01546135c1565b60085f8873ffffffffffffffffffffffffffffffffffffffff1673ffffffffffffffffffffffffffffffffffffffff1681526020019081526020015f205f8082015f9055600182015f9055600282015f6101000a81549073ffffffffffffffffffffffffffffffffffffffff02191690556002820160146101000a81549067ffffffffffffffff0219169055600382015f612eb49190613fa1565b600882015f612ec39190613fb4565b600982015f6101000a81549060ff02191690556009820160016101000a81549060ff02191690555050612f02878386612efc9190614cb5565b8561370b565b50505050505b50505050565b60025f5403612f52576040517f08c379a0000000000000000000000000000000000000000000000000000000008152600401612f4990615186565b60405180910390fd5b60025f81905550565b60015f81905550565b5f60145f36905010158015612f7e5750612f7d33610482565b5b15612f9257601436033560601c9050612f96565b3390505b90565b5f8073ffffffffffffffffffffffffffffffffffffffff168273ffffffffffffffffffffffffffffffffffffffff160361300d5760065f9054906101000a900473ffffffffffffffffffffffffffffffffffffffff1673ffffffffffffffffffffffffffffffffffffffff163190506130a9565b8173ffffffffffffffffffffffffffffffffffffffff166370a0823160065f9054906101000a900473ffffffffffffffffffffffffffffffffffffffff166040518263ffffffff1660e01b8152600401613067919061438e565b602060405180830381865afa158015613082573d5f803e3d5ffd5b505050506040513d601f19601f820116820180604052508101906130a691906151a4565b90505b5f6305f5e10062020b31836130be9190614cb5565b6130c89190614d23565b9050808411156131115783816040517fd53662aa0000000000000000000000000000000000000000000000000000000081526004016131089291906146df565b60405180910390fd5b50505050565b5f60065f9054906101000a900473ffffffffffffffffffffffffffffffffffffffff1673ffffffffffffffffffffffffffffffffffffffff1663bfd7f9cc30876040518363ffffffff1660e01b815260040161317492919061497a565b602060405180830381865afa15801561318f573d5f803e3d5ffd5b505050506040513d601f19601f820116820180604052508101906131b391906151e3565b6131e9576040517f51c3b94f00000000000000000000000000000000000000000000000000000000815260040160405180910390fd5b5f8403613222576040517f07375c8400000000000000000000000000000000000000000000000000000000815260040160405180910390fd5b5f8060065f9054906101000a900473ffffffffffffffffffffffffffffffffffffffff1673ffffffffffffffffffffffffffffffffffffffff16630a5748a8856040518263ffffffff1660e01b815260040161327e919061438e565b6040805180830381865afa158015613298573d5f803e3d5ffd5b505050506040513d601f19601f820116820180604052508101906132bc919061520e565b91509150811561330357806040517f6c2775f50000000000000000000000000000000000000000000000000000000081526004016132fa91906144a7565b60405180910390fd5b61330c8561099f565b92505f73ffffffffffffffffffffffffffffffffffffffff168773ffffffffffffffffffffffffffffffffffffffff16036133c257828661334d9190614d53565b34101561339e5782866133609190614d53565b346040517fde9b74a10000000000000000000000000000000000000000000000000000000081526004016133959291906146df565b60405180910390fd5b6133bd86846133ad9190614d53565b346133b891906150b2565b613915565b61344b565b823410156134095782346040517fde9b74a10000000000000000000000000000000000000000000000000000000081526004016134009291906146df565b60405180910390fd5b6134368430888a73ffffffffffffffffffffffffffffffffffffffff166139c1909392919063ffffffff16565b61344a833461344591906150b2565b613915565b5b8260015f82825461345c9190614d53565b925050819055505050949350505050565b5f60025f9054906101000a900473ffffffffffffffffffffffffffffffffffffffff1673ffffffffffffffffffffffffffffffffffffffff16635d3b1d307fd729dc84e21ae57ffb6be0053bf2b0668aa2aaf300a2a7b2ddf7dc0bb6e875a86102406003622625a0876040518663ffffffff1660e01b81526004016134f6959493929190615360565b6020604051808303815f875af1158015613512573d5f803e3d5ffd5b505050506040513d601f19601f8201168201806040525081019061353691906151a4565b9050919050565b5f6135478261099f565b9050803410156135905780346040517fde9b74a10000000000000000000000000000000000000000000000000000000081526004016135879291906146df565b60405180910390fd5b6135a4813461359f91906150b2565b613915565b8060015f8282546135b59190614d53565b92505081905550919050565b5f73ffffffffffffffffffffffffffffffffffffffff168273ffffffffffffffffffffffffffffffffffffffff16036136ba575f60065f9054906101000a900473ffffffffffffffffffffffffffffffffffffffff1673ffffffffffffffffffffffffffffffffffffffff168260405161363a90614a0d565b5f6040518083038185875af1925050503d805f8114613674576040519150601f19603f3d011682016040523d82523d5f602084013e613679565b606091505b50509050806136b4576040517ff0c49d4400000000000000000000000000000000000000000000000000000000815260040160405180910390fd5b50613707565b61370660065f9054906101000a900473ffffffffffffffffffffffffffffffffffffffff16828473ffffffffffffffffffffffffffffffffffffffff1661379b9092919063ffffffff16565b5b5050565b60065f9054906101000a900473ffffffffffffffffffffffffffffffffffffffff1673ffffffffffffffffffffffffffffffffffffffff16636c025ec28484846040518463ffffffff1660e01b8152600401613769939291906153b1565b5f604051808303815f87803b158015613780575f80fd5b505af1158015613792573d5f803e3d5ffd5b50505050505050565b613815838473ffffffffffffffffffffffffffffffffffffffff1663a9059cbb85856040516024016137ce9291906153e6565b604051602081830303815290604052915060e01b6020820180517bffffffffffffffffffffffffffffffffffffffffffffffffffffffff8381831617835250505050613a43565b505050565b613822614029565b61383a825f6001600561383591906150b2565b613ad8565b819050919050565b5f815184613850919061540d565b905081818151811061386557613864614d86565b5b602002602001015160085f8573ffffffffffffffffffffffffffffffffffffffff1673ffffffffffffffffffffffffffffffffffffffff1681526020019081526020015f206003018660ff16600581106138c2576138c1614d86565b5b015f820151815f015f6101000a81548160ff021916908360ff1602179055506020820151815f0160016101000a81548160ff021916908360ff16021790555090505061390e8183613d09565b5050505050565b5f8103156139be575f3373ffffffffffffffffffffffffffffffffffffffff168260405161394290614a0d565b5f6040518083038185875af1925050503d805f811461397c576040519150601f19603f3d011682016040523d82523d5f602084013e613981565b606091505b50509050806139bc576040517ff0c49d4400000000000000000000000000000000000000000000000000000000815260040160405180910390fd5b505b50565b613a3d848573ffffffffffffffffffffffffffffffffffffffff166323b872dd8686866040516024016139f69392919061543d565b604051602081830303815290604052915060e01b6020820180517bffffffffffffffffffffffffffffffffffffffffffffffffffffffff8381831617835250505050613a43565b50505050565b5f613a6d828473ffffffffffffffffffffffffffffffffffffffff16613d5a90919063ffffffff16565b90505f815114158015613a91575080806020019051810190613a8f91906151e3565b155b15613ad357826040517f5274afe7000000000000000000000000000000000000000000000000000000008152600401613aca919061438e565b60405180910390fd5b505050565b5f8290505f829050808203613aee575050613d04565b5f8560028686613afe9190615472565b613b0891906154b2565b86613b13919061551a565b60058110613b2457613b23614d86565b5b60200201515f015160ff1690505b818313613cd8575b80868460058110613b4e57613b4d614d86565b5b60200201515f015160ff161015613b72578280613b6a9061555b565b935050613b3a565b5b858260058110613b8657613b85614d86565b5b60200201515f015160ff16811015613bab578180613ba3906155a2565b925050613b73565b818313613cd357858260058110613bc557613bc4614d86565b5b60200201515f0151868460058110613be057613bdf614d86565b5b60200201515f0151878560058110613bfb57613bfa614d86565b5b60200201515f01888560058110613c1557613c14614d86565b5b60200201515f018260ff1660ff168152508260ff1660ff168152505050858260058110613c4557613c44614d86565b5b602002015160200151868460058110613c6157613c60614d86565b5b602002015160200151878560058110613c7d57613c7c614d86565b5b6020020151602001888560058110613c9857613c97614d86565b5b60200201516020018260ff1660ff168152508260ff1660ff1681525050508280613cc19061555b565b9350508180613ccf906155a2565b9250505b613b32565b81851215613cec57613ceb868684613ad8565b5b83831215613d0057613cff868486613ad8565b5b5050505b505050565b8060018251613d1891906150b2565b81518110613d2957613d28614d86565b5b6020026020010151818381518110613d4457613d43614d86565b5b6020026020010181905250600181510381525050565b6060613d6783835f613d6f565b905092915050565b606081471015613db657306040517fcd786059000000000000000000000000000000000000000000000000000000008152600401613dad919061438e565b60405180910390fd5b5f808573ffffffffffffffffffffffffffffffffffffffff168486604051613dde919061564b565b5f6040518083038185875af1925050503d805f8114613e18576040519150601f19603f3d011682016040523d82523d5f602084013e613e1d565b606091505b5091509150613e2d868383613e38565b925050509392505050565b606082613e4d57613e4882613ec5565b613ebd565b5f8251148015613e7357505f8473ffffffffffffffffffffffffffffffffffffffff163b145b15613eb557836040517f9996b315000000000000000000000000000000000000000000000000000000008152600401613eac919061438e565b60405180910390fd5b819050613ebe565b5b9392505050565b5f81511115613ed75780518082602001fd5b6040517f1425ea4200000000000000000000000000000000000000000000000000000000815260040160405180910390fd5b826005601f01602090048101928215613f90579160200282015f5b83821115613f62578335151583826101000a81548160ff02191690831515021790555092602001926001016020815f01049283019260010302613f24565b8015613f8e5782816101000a81549060ff02191690556001016020815f01049283019260010302613f62565b505b509050613f9d9190614056565b5090565b508060050190613fb19190614071565b50565b505f9055565b6040518061010001604052805f81526020015f81526020015f73ffffffffffffffffffffffffffffffffffffffff1681526020015f67ffffffffffffffff168152602001614006614029565b81526020016140136140ad565b81526020015f151581526020015f151581525090565b6040518060a001604052806005905b6140406140cf565b8152602001906001900390816140385790505090565b5b8082111561406d575f815f905550600101614057565b5090565b5b808211156140a9575f8082015f6101000a81549060ff02191690555f820160016101000a81549060ff021916905550600101614072565b5090565b6040518060a00160405280600590602082028036833780820191505090505090565b60405180604001604052805f60ff1681526020015f60ff1681525090565b5f604051905090565b5f80fd5b5f80fd5b5f819050919050565b614110816140fe565b811461411a575f80fd5b50565b5f8135905061412b81614107565b92915050565b5f80fd5b5f601f19601f8301169050919050565b7f4e487b71000000000000000000000000000000000000000000000000000000005f52604160045260245ffd5b61417b82614135565b810181811067ffffffffffffffff8211171561419a57614199614145565b5b80604052505050565b5f6141ac6140ed565b90506141b88282614172565b919050565b5f67ffffffffffffffff8211156141d7576141d6614145565b5b602082029050602081019050919050565b5f80fd5b5f6141fe6141f9846141bd565b6141a3565b90508083825260208201905060208402830185811115614221576142206141e8565b5b835b8181101561424a5780614236888261411d565b845260208401935050602081019050614223565b5050509392505050565b5f82601f83011261426857614267614131565b5b81356142788482602086016141ec565b91505092915050565b5f8060408385031215614297576142966140f6565b5b5f6142a48582860161411d565b925050602083013567ffffffffffffffff8111156142c5576142c46140fa565b5b6142d185828601614254565b9150509250929050565b5f73ffffffffffffffffffffffffffffffffffffffff82169050919050565b5f819050919050565b5f61431d614318614313846142db565b6142fa565b6142db565b9050919050565b5f61432e82614303565b9050919050565b5f61433f82614324565b9050919050565b61434f81614335565b82525050565b5f6020820190506143685f830184614346565b92915050565b5f614378826142db565b9050919050565b6143888161436e565b82525050565b5f6020820190506143a15f83018461437f565b92915050565b6143b08161436e565b81146143ba575f80fd5b50565b5f813590506143cb816143a7565b92915050565b5f602082840312156143e6576143e56140f6565b5b5f6143f3848285016143bd565b91505092915050565b5f8115159050919050565b614410816143fc565b82525050565b5f6020820190506144295f830184614407565b92915050565b5f8060408385031215614445576144446140f6565b5b5f6144528582860161411d565b9250506020614463858286016143bd565b9150509250929050565b5f60208284031215614482576144816140f6565b5b5f61448f8482850161411d565b91505092915050565b6144a1816140fe565b82525050565b5f6020820190506144ba5f830184614498565b92915050565b5f6144ca82614324565b9050919050565b6144da816144c0565b82525050565b5f6020820190506144f35f8301846144d1565b92915050565b5f61450382614324565b9050919050565b614513816144f9565b82525050565b5f60208201905061452c5f83018461450a565b92915050565b5f8190508260206005028201111561454d5761454c6141e8565b5b92915050565b5f60a08284031215614568576145676140f6565b5b5f61457584828501614532565b91505092915050565b5f67ffffffffffffffff82111561459857614597614145565b5b602082029050919050565b5f80fd5b5f60ff82169050919050565b6145bc816145a7565b81146145c6575f80fd5b50565b5f813590506145d7816145b3565b92915050565b5f604082840312156145f2576145f16145a3565b5b6145fc60406141a3565b90505f61460b848285016145c9565b5f83015250602061461e848285016145c9565b60208301525092915050565b5f61463c6146378461457e565b6141a3565b90508060408402830185811115614656576146556141e8565b5b835b8181101561467f578061466b88826145dd565b845260208401935050604081019050614658565b5050509392505050565b5f82601f83011261469d5761469c614131565b5b60056146aa84828561462a565b91505092915050565b5f61014082840312156146c9576146c86140f6565b5b5f6146d684828501614689565b91505092915050565b5f6040820190506146f25f830185614498565b6146ff6020830184614498565b9392505050565b61470f816140fe565b82525050565b61471e8161436e565b82525050565b5f67ffffffffffffffff82169050919050565b61474081614724565b82525050565b5f60059050919050565b5f81905092915050565b5f819050919050565b61476c816145a7565b82525050565b604082015f8201516147865f850182614763565b5060208201516147996020850182614763565b50505050565b5f6147aa8383614772565b60408301905092915050565b5f602082019050919050565b6147cb81614746565b6147d58184614750565b92506147e08261475a565b805f5b838110156148105781516147f7878261479f565b9650614802836147b6565b9250506001810190506147e3565b505050505050565b5f60059050919050565b5f81905092915050565b5f819050919050565b61483e816143fc565b82525050565b5f61484f8383614835565b60208301905092915050565b5f602082019050919050565b61487081614818565b61487a8184614822565b92506148858261482c565b805f5b838110156148b557815161489c8782614844565b96506148a78361485b565b925050600181019050614888565b505050505050565b6102a082015f8201516148d25f850182614706565b5060208201516148e56020850182614706565b5060408201516148f86040850182614715565b50606082015161490b6060850182614737565b50608082015161491e60808501826147c2565b5060a08201516149326101c0850182614867565b5060c0820151614946610260850182614835565b5060e082015161495a610280850182614835565b50505050565b5f6102a0820190506149745f8301846148bd565b92915050565b5f60408201905061498d5f83018561437f565b61499a602083018461437f565b9392505050565b5f815190506149af816143a7565b92915050565b5f602082840312156149ca576149c96140f6565b5b5f6149d7848285016149a1565b91505092915050565b5f81905092915050565b50565b5f6149f85f836149e0565b9150614a03826149ea565b5f82019050919050565b5f614a17826149ed565b9150819050919050565b5f606082019050614a345f830186614498565b614a41602083018561437f565b614a4e6040830184614498565b949350505050565b5f69ffffffffffffffffffff82169050919050565b614a7481614a56565b8114614a7e575f80fd5b50565b5f81519050614a8f81614a6b565b92915050565b5f819050919050565b614aa781614a95565b8114614ab1575f80fd5b50565b5f81519050614ac281614a9e565b92915050565b5f81519050614ad681614107565b92915050565b5f805f805f60a08688031215614af557614af46140f6565b5b5f614b0288828901614a81565b9550506020614b1388828901614ab4565b9450506040614b2488828901614ac8565b9350506060614b3588828901614ac8565b9250506080614b4688828901614a81565b9150509295509295909350565b5f63ffffffff82169050919050565b614b6b81614b53565b8114614b75575f80fd5b50565b5f81519050614b8681614b62565b92915050565b5f62ffffff82169050919050565b614ba381614b8c565b8114614bad575f80fd5b50565b5f81519050614bbe81614b9a565b92915050565b5f805f805f805f805f6101208a8c031215614be257614be16140f6565b5b5f614bef8c828d01614b78565b9950506020614c008c828d01614b78565b9850506040614c118c828d01614b78565b9750506060614c228c828d01614b78565b9650506080614c338c828d01614b78565b95505060a0614c448c828d01614bb0565b94505060c0614c558c828d01614bb0565b93505060e0614c668c828d01614bb0565b925050610100614c788c828d01614bb0565b9150509295985092959850929598565b7f4e487b71000000000000000000000000000000000000000000000000000000005f52601160045260245ffd5b5f614cbf826140fe565b9150614cca836140fe565b9250828202614cd8816140fe565b91508282048414831517614cef57614cee614c88565b5b5092915050565b7f4e487b71000000000000000000000000000000000000000000000000000000005f52601260045260245ffd5b5f614d2d826140fe565b9150614d38836140fe565b925082614d4857614d47614cf6565b5b828204905092915050565b5f614d5d826140fe565b9150614d68836140fe565b9250828201905080821115614d8057614d7f614c88565b5b92915050565b7f4e487b71000000000000000000000000000000000000000000000000000000005f52603260045260245ffd5b614dbc816143fc565b8114614dc6575f80fd5b50565b5f81359050614dd781614db3565b92915050565b5f60208284031215614df257614df16140f6565b5b5f614dff84828501614dc9565b91505092915050565b5f614e12826145a7565b915060ff8203614e2557614e24614c88565b5b600182019050919050565b5f60059050919050565b5f81905092915050565b5f819050919050565b5f815f1c9050919050565b5f60ff82169050919050565b5f614e76614e7183614e4d565b614e58565b9050919050565b5f8160081c9050919050565b5f614e9b614e9683614e7d565b614e58565b9050919050565b604082015f808301549050614eb681614e64565b614ec25f860182614763565b50614ecc81614e89565b614ed96020860182614763565b5050505050565b5f614eeb8383614ea2565b60408301905092915050565b5f600182019050919050565b614f0c81614e30565b614f168184614e3a565b9250614f2182614e44565b805f5b83811015614f505781614f378782614ee0565b9650614f4283614ef7565b925050600181019050614f24565b505050505050565b5f6101c082019050614f6c5f830188614498565b614f796020830187614498565b614f86604083018661437f565b614f936060830185614f03565b614fa16101a0830184614498565b9695505050505050565b5f614fb582614724565b9150614fc083614724565b9250828201905067ffffffffffffffff811115614fe057614fdf614c88565b5b92915050565b5f615000614ffb614ff684614724565b6142fa565b6140fe565b9050919050565b61501081614fe6565b82525050565b5f6040820190506150295f830185614498565b6150366020830184615007565b9392505050565b5f6040820190506150505f830185614498565b61505d602083018461437f565b9392505050565b5f61506e826145a7565b9150615079836145a7565b9250828203905060ff81111561509257615091614c88565b5b92915050565b5f610140820190506150ac5f830184614f03565b92915050565b5f6150bc826140fe565b91506150c7836140fe565b92508282039050818111156150df576150de614c88565b5b92915050565b5f6150ef826140fe565b91507fffffffffffffffffffffffffffffffffffffffffffffffffffffffffffffffff820361512157615120614c88565b5b600182019050919050565b5f82825260208201905092915050565b7f5265656e7472616e637947756172643a207265656e7472616e742063616c6c005f82015250565b5f615170601f8361512c565b915061517b8261513c565b602082019050919050565b5f6020820190508181035f83015261519d81615164565b9050919050565b5f602082840312156151b9576151b86140f6565b5b5f6151c684828501614ac8565b91505092915050565b5f815190506151dd81614db3565b92915050565b5f602082840312156151f8576151f76140f6565b5b5f615205848285016151cf565b91505092915050565b5f8060408385031215615224576152236140f6565b5b5f615231858286016151cf565b925050602061524285828601614ac8565b9150509250929050565b5f819050919050565b5f819050919050565b5f815f1b9050919050565b5f61528361527e6152798461524c565b61525e565b615255565b9050919050565b61529381615269565b82525050565b5f819050919050565b5f6152bc6152b76152b284615299565b6142fa565b614724565b9050919050565b6152cc816152a2565b82525050565b5f819050919050565b5f61ffff82169050919050565b5f6153026152fd6152f8846152d2565b6142fa565b6152db565b9050919050565b615312816152e8565b82525050565b5f819050919050565b5f61533b61533661533184615318565b6142fa565b614b53565b9050919050565b61534b81615321565b82525050565b61535a81614b53565b82525050565b5f60a0820190506153735f83018861528a565b61538060208301876152c3565b61538d6040830186615309565b61539a6060830185615342565b6153a76080830184615351565b9695505050505050565b5f6060820190506153c45f83018661437f565b6153d16020830185614498565b6153de604083018461437f565b949350505050565b5f6040820190506153f95f83018561437f565b6154066020830184614498565b9392505050565b5f615417826140fe565b9150615422836140fe565b92508261543257615431614cf6565b5b828206905092915050565b5f6060820190506154505f83018661437f565b61545d602083018561437f565b61546a6040830184614498565b949350505050565b5f61547c82614a95565b915061548783614a95565b925082820390508181125f8412168282135f8512151617156154ac576154ab614c88565b5b92915050565b5f6154bc82614a95565b91506154c783614a95565b9250826154d7576154d6614cf6565b5b60015f0383147f80000000000000000000000000000000000000000000000000000000000000008314161561550f5761550e614c88565b5b828205905092915050565b5f61552482614a95565b915061552f83614a95565b92508282019050828112155f8312168382125f84121516171561555557615554614c88565b5b92915050565b5f61556582614a95565b91507f7fffffffffffffffffffffffffffffffffffffffffffffffffffffffffffffff820361559757615596614c88565b5b600182019050919050565b5f6155ac82614a95565b91507f800000000000000000000000000000000000000000000000000000000000000082036155de576155dd614c88565b5b600182039050919050565b5f81519050919050565b5f5b838110156156105780820151818401526020810190506155f5565b5f8484015250505050565b5f615625826155e9565b61562f81856149e0565b935061563f8185602086016155f3565b80840191505092915050565b5f615656828461561b565b91508190509291505056fea26469706673582212205afe326c64ee888621b5545a698f589b307b12bc45ffeff1294c4edbe989402364736f6c63430008140033",
			"opcodes": "PUSH1 0x80 PUSH1 0x40 MSTORE CALLVALUE DUP1 ISZERO PUSH3 0x10 JUMPI PUSH0 DUP1 REVERT JUMPDEST POP PUSH1 0x40 MLOAD PUSH3 0x5A35 CODESIZE SUB DUP1 PUSH3 0x5A35 DUP4 CODECOPY DUP2 DUP2 ADD PUSH1 0x40 MSTORE DUP2 ADD SWAP1 PUSH3 0x36 SWAP2 SWAP1 PUSH3 0x2BB JUMP JUMPDEST PUSH1 0x1 PUSH0 DUP2 SWAP1 SSTORE POP DUP4 PUSH1 0x6 PUSH0 PUSH2 0x100 EXP DUP2 SLOAD DUP2 PUSH20 0xFFFFFFFFFFFFFFFFFFFFFFFFFFFFFFFFFFFFFFFF MUL NOT AND SWAP1 DUP4 PUSH20 0xFFFFFFFFFFFFFFFFFFFFFFFFFFFFFFFFFFFFFFFF AND MUL OR SWAP1 SSTORE POP DUP3 PUSH1 0x5 PUSH0 PUSH2 0x100 EXP DUP2 SLOAD DUP2 PUSH20 0xFFFFFFFFFFFFFFFFFFFFFFFFFFFFFFFFFFFFFFFF MUL NOT AND SWAP1 DUP4 PUSH20 0xFFFFFFFFFFFFFFFFFFFFFFFFFFFFFFFFFFFFFFFF AND MUL OR SWAP1 SSTORE POP DUP2 PUSH1 0x4 PUSH0 PUSH2 0x100 EXP DUP2 SLOAD DUP2 PUSH20 0xFFFFFFFFFFFFFFFFFFFFFFFFFFFFFFFFFFFFFFFF MUL NOT AND SWAP1 DUP4 PUSH20 0xFFFFFFFFFFFFFFFFFFFFFFFFFFFFFFFFFFFFFFFF AND MUL OR SWAP1 SSTORE POP DUP3 PUSH1 0x2 PUSH0 PUSH2 0x100 EXP DUP2 SLOAD DUP2 PUSH20 0xFFFFFFFFFFFFFFFFFFFFFFFFFFFFFFFFFFFFFFFF MUL NOT AND SWAP1 DUP4 PUSH20 0xFFFFFFFFFFFFFFFFFFFFFFFFFFFFFFFFFFFFFFFF AND MUL OR SWAP1 SSTORE POP DUP1 PUSH1 0x3 PUSH0 PUSH2 0x100 EXP DUP2 SLOAD DUP2 PUSH20 0xFFFFFFFFFFFFFFFFFFFFFFFFFFFFFFFFFFFFFFFF MUL NOT AND SWAP1 DUP4 PUSH20 0xFFFFFFFFFFFFFFFFFFFFFFFFFFFFFFFFFFFFFFFF AND MUL OR SWAP1 SSTORE POP PUSH0 JUMPDEST PUSH1 0x4 DUP2 PUSH1 0xFF AND LT ISZERO PUSH3 0x24B JUMPI PUSH0 PUSH1 0x1 SWAP1 POP JUMPDEST PUSH1 0xE DUP2 PUSH1 0xFF AND LT ISZERO PUSH3 0x234 JUMPI PUSH1 0x7 PUSH1 0x40 MLOAD DUP1 PUSH1 0x40 ADD PUSH1 0x40 MSTORE DUP1 DUP4 PUSH1 0xFF AND DUP2 MSTORE PUSH1 0x20 ADD DUP5 PUSH1 0xFF AND DUP2 MSTORE POP SWAP1 DUP1 PUSH1 0x1 DUP2 SLOAD ADD DUP1 DUP3 SSTORE DUP1 SWAP2 POP POP PUSH1 0x1 SWAP1 SUB SWAP1 PUSH0 MSTORE PUSH1 0x20 PUSH0 KECCAK256 ADD PUSH0 SWAP1 SWAP2 SWAP1 SWAP2 SWAP1 SWAP2 POP PUSH0 DUP3 ADD MLOAD DUP2 PUSH0 ADD PUSH0 PUSH2 0x100 EXP DUP2 SLOAD DUP2 PUSH1 0xFF MUL NOT AND SWAP1 DUP4 PUSH1 0xFF AND MUL OR SWAP1 SSTORE POP PUSH1 0x20 DUP3 ADD MLOAD DUP2 PUSH0 ADD PUSH1 0x1 PUSH2 0x100 EXP DUP2 SLOAD DUP2 PUSH1 0xFF MUL NOT AND SWAP1 DUP4 PUSH1 0xFF AND MUL OR SWAP1 SSTORE POP POP POP DUP1 DUP1 PUSH3 0x22B SWAP1 PUSH3 0x363 JUMP JUMPDEST SWAP2 POP POP PUSH3 0x192 JUMP JUMPDEST POP DUP1 DUP1 PUSH3 0x242 SWAP1 PUSH3 0x363 JUMP JUMPDEST SWAP2 POP POP PUSH3 0x17F JUMP JUMPDEST POP POP POP POP POP PUSH3 0x390 JUMP JUMPDEST PUSH0 DUP1 REVERT JUMPDEST PUSH0 PUSH20 0xFFFFFFFFFFFFFFFFFFFFFFFFFFFFFFFFFFFFFFFF DUP3 AND SWAP1 POP SWAP2 SWAP1 POP JUMP JUMPDEST PUSH0 PUSH3 0x285 DUP3 PUSH3 0x25A JUMP JUMPDEST SWAP1 POP SWAP2 SWAP1 POP JUMP JUMPDEST PUSH3 0x297 DUP2 PUSH3 0x279 JUMP JUMPDEST DUP2 EQ PUSH3 0x2A2 JUMPI PUSH0 DUP1 REVERT JUMPDEST POP JUMP JUMPDEST PUSH0 DUP2 MLOAD SWAP1 POP PUSH3 0x2B5 DUP2 PUSH3 0x28C JUMP JUMPDEST SWAP3 SWAP2 POP POP JUMP JUMPDEST PUSH0 DUP1 PUSH0 DUP1 PUSH1 0x80 DUP6 DUP8 SUB SLT ISZERO PUSH3 0x2D6 JUMPI PUSH3 0x2D5 PUSH3 0x256 JUMP JUMPDEST JUMPDEST PUSH0 PUSH3 0x2E5 DUP8 DUP3 DUP9 ADD PUSH3 0x2A5 JUMP JUMPDEST SWAP5 POP POP PUSH1 0x20 PUSH3 0x2F8 DUP8 DUP3 DUP9 ADD PUSH3 0x2A5 JUMP JUMPDEST SWAP4 POP POP PUSH1 0x40 PUSH3 0x30B DUP8 DUP3 DUP9 ADD PUSH3 0x2A5 JUMP JUMPDEST SWAP3 POP POP PUSH1 0x60 PUSH3 0x31E DUP8 DUP3 DUP9 ADD PUSH3 0x2A5 JUMP JUMPDEST SWAP2 POP POP SWAP3 SWAP6 SWAP2 SWAP5 POP SWAP3 POP JUMP JUMPDEST PUSH32 0x4E487B7100000000000000000000000000000000000000000000000000000000 PUSH0 MSTORE PUSH1 0x11 PUSH1 0x4 MSTORE PUSH1 0x24 PUSH0 REVERT JUMPDEST PUSH0 PUSH1 0xFF DUP3 AND SWAP1 POP SWAP2 SWAP1 POP JUMP JUMPDEST PUSH0 PUSH3 0x36F DUP3 PUSH3 0x357 JUMP JUMPDEST SWAP2 POP PUSH1 0xFF DUP3 SUB PUSH3 0x385 JUMPI PUSH3 0x384 PUSH3 0x32A JUMP JUMPDEST JUMPDEST PUSH1 0x1 DUP3 ADD SWAP1 POP SWAP2 SWAP1 POP JUMP JUMPDEST PUSH2 0x5697 DUP1 PUSH3 0x39E PUSH0 CODECOPY PUSH0 RETURN INVALID PUSH1 0x80 PUSH1 0x40 MSTORE PUSH1 0x4 CALLDATASIZE LT PUSH2 0xE7 JUMPI PUSH0 CALLDATALOAD PUSH1 0xE0 SHR DUP1 PUSH4 0x8D7C16D2 GT PUSH2 0x89 JUMPI DUP1 PUSH4 0xE40EA4BC GT PUSH2 0x58 JUMPI DUP1 PUSH4 0xE40EA4BC EQ PUSH2 0x2CB JUMPI DUP1 PUSH4 0xE67AE769 EQ PUSH2 0x2E7 JUMPI DUP1 PUSH4 0xEC0F5D8C EQ PUSH2 0x2FD JUMPI DUP1 PUSH4 0xF2D3444B EQ PUSH2 0x33A JUMPI PUSH2 0xE7 JUMP JUMPDEST DUP1 PUSH4 0x8D7C16D2 EQ PUSH2 0x223 JUMPI DUP1 PUSH4 0x953995EA EQ PUSH2 0x24D JUMPI DUP1 PUSH4 0xAD178361 EQ PUSH2 0x277 JUMPI DUP1 PUSH4 0xD0BCFC0C EQ PUSH2 0x2A1 JUMPI PUSH2 0xE7 JUMP JUMPDEST DUP1 PUSH4 0x572B6C05 GT PUSH2 0xC5 JUMPI DUP1 PUSH4 0x572B6C05 EQ PUSH2 0x167 JUMPI DUP1 PUSH4 0x63DC4EF5 EQ PUSH2 0x1A3 JUMPI DUP1 PUSH4 0x6C8ABECC EQ PUSH2 0x1CB JUMPI DUP1 PUSH4 0x8BD16114 EQ PUSH2 0x1E7 JUMPI PUSH2 0xE7 JUMP JUMPDEST DUP1 PUSH4 0x1FE543E3 EQ PUSH2 0xEB JUMPI DUP1 PUSH4 0x4DD189D5 EQ PUSH2 0x113 JUMPI DUP1 PUSH4 0x56C022BB EQ PUSH2 0x13D JUMPI JUMPDEST PUSH0 DUP1 REVERT JUMPDEST CALLVALUE DUP1 ISZERO PUSH2 0xF6 JUMPI PUSH0 DUP1 REVERT JUMPDEST POP PUSH2 0x111 PUSH1 0x4 DUP1 CALLDATASIZE SUB DUP2 ADD SWAP1 PUSH2 0x10C SWAP2 SWAP1 PUSH2 0x4281 JUMP JUMPDEST PUSH2 0x376 JUMP JUMPDEST STOP JUMPDEST CALLVALUE DUP1 ISZERO PUSH2 0x11E JUMPI PUSH0 DUP1 REVERT JUMPDEST POP PUSH2 0x127 PUSH2 0x438 JUMP JUMPDEST PUSH1 0x40 MLOAD PUSH2 0x134 SWAP2 SWAP1 PUSH2 0x4355 JUMP JUMPDEST PUSH1 0x40 MLOAD DUP1 SWAP2 SUB SWAP1 RETURN JUMPDEST CALLVALUE DUP1 ISZERO PUSH2 0x148 JUMPI PUSH0 DUP1 REVERT JUMPDEST POP PUSH2 0x151 PUSH2 0x45D JUMP JUMPDEST PUSH1 0x40 MLOAD PUSH2 0x15E SWAP2 SWAP1 PUSH2 0x438E JUMP JUMPDEST PUSH1 0x40 MLOAD DUP1 SWAP2 SUB SWAP1 RETURN JUMPDEST CALLVALUE DUP1 ISZERO PUSH2 0x172 JUMPI PUSH0 DUP1 REVERT JUMPDEST POP PUSH2 0x18D PUSH1 0x4 DUP1 CALLDATASIZE SUB DUP2 ADD SWAP1 PUSH2 0x188 SWAP2 SWAP1 PUSH2 0x43D1 JUMP JUMPDEST PUSH2 0x482 JUMP JUMPDEST PUSH1 0x40 MLOAD PUSH2 0x19A SWAP2 SWAP1 PUSH2 0x4416 JUMP JUMPDEST PUSH1 0x40 MLOAD DUP1 SWAP2 SUB SWAP1 RETURN JUMPDEST CALLVALUE DUP1 ISZERO PUSH2 0x1AE JUMPI PUSH0 DUP1 REVERT JUMPDEST POP PUSH2 0x1C9 PUSH1 0x4 DUP1 CALLDATASIZE SUB DUP2 ADD SWAP1 PUSH2 0x1C4 SWAP2 SWAP1 PUSH2 0x43D1 JUMP JUMPDEST PUSH2 0x4DA JUMP JUMPDEST STOP JUMPDEST PUSH2 0x1E5 PUSH1 0x4 DUP1 CALLDATASIZE SUB DUP2 ADD SWAP1 PUSH2 0x1E0 SWAP2 SWAP1 PUSH2 0x442F JUMP JUMPDEST PUSH2 0x727 JUMP JUMPDEST STOP JUMPDEST CALLVALUE DUP1 ISZERO PUSH2 0x1F2 JUMPI PUSH0 DUP1 REVERT JUMPDEST POP PUSH2 0x20D PUSH1 0x4 DUP1 CALLDATASIZE SUB DUP2 ADD SWAP1 PUSH2 0x208 SWAP2 SWAP1 PUSH2 0x446D JUMP JUMPDEST PUSH2 0x99F JUMP JUMPDEST PUSH1 0x40 MLOAD PUSH2 0x21A SWAP2 SWAP1 PUSH2 0x44A7 JUMP JUMPDEST PUSH1 0x40 MLOAD DUP1 SWAP2 SUB SWAP1 RETURN JUMPDEST CALLVALUE DUP1 ISZERO PUSH2 0x22E JUMPI PUSH0 DUP1 REVERT JUMPDEST POP PUSH2 0x237 PUSH2 0xB23 JUMP JUMPDEST PUSH1 0x40 MLOAD PUSH2 0x244 SWAP2 SWAP1 PUSH2 0x44A7 JUMP JUMPDEST PUSH1 0x40 MLOAD DUP1 SWAP2 SUB SWAP1 RETURN JUMPDEST CALLVALUE DUP1 ISZERO PUSH2 0x258 JUMPI PUSH0 DUP1 REVERT JUMPDEST POP PUSH2 0x261 PUSH2 0xB29 JUMP JUMPDEST PUSH1 0x40 MLOAD PUSH2 0x26E SWAP2 SWAP1 PUSH2 0x438E JUMP JUMPDEST PUSH1 0x40 MLOAD DUP1 SWAP2 SUB SWAP1 RETURN JUMPDEST CALLVALUE DUP1 ISZERO PUSH2 0x282 JUMPI PUSH0 DUP1 REVERT JUMPDEST POP PUSH2 0x28B PUSH2 0xB4E JUMP JUMPDEST PUSH1 0x40 MLOAD PUSH2 0x298 SWAP2 SWAP1 PUSH2 0x44E0 JUMP JUMPDEST PUSH1 0x40 MLOAD DUP1 SWAP2 SUB SWAP1 RETURN JUMPDEST CALLVALUE DUP1 ISZERO PUSH2 0x2AC JUMPI PUSH0 DUP1 REVERT JUMPDEST POP PUSH2 0x2B5 PUSH2 0xB73 JUMP JUMPDEST PUSH1 0x40 MLOAD PUSH2 0x2C2 SWAP2 SWAP1 PUSH2 0x4519 JUMP JUMPDEST PUSH1 0x40 MLOAD DUP1 SWAP2 SUB SWAP1 RETURN JUMPDEST PUSH2 0x2E5 PUSH1 0x4 DUP1 CALLDATASIZE SUB DUP2 ADD SWAP1 PUSH2 0x2E0 SWAP2 SWAP1 PUSH2 0x4553 JUMP JUMPDEST PUSH2 0xB98 JUMP JUMPDEST STOP JUMPDEST CALLVALUE DUP1 ISZERO PUSH2 0x2F2 JUMPI PUSH0 DUP1 REVERT JUMPDEST POP PUSH2 0x2FB PUSH2 0x104D JUMP JUMPDEST STOP JUMPDEST CALLVALUE DUP1 ISZERO PUSH2 0x308 JUMPI PUSH0 DUP1 REVERT JUMPDEST POP PUSH2 0x323 PUSH1 0x4 DUP1 CALLDATASIZE SUB DUP2 ADD SWAP1 PUSH2 0x31E SWAP2 SWAP1 PUSH2 0x46B3 JUMP JUMPDEST PUSH2 0x143A JUMP JUMPDEST PUSH1 0x40 MLOAD PUSH2 0x331 SWAP3 SWAP2 SWAP1 PUSH2 0x46DF JUMP JUMPDEST PUSH1 0x40 MLOAD DUP1 SWAP2 SUB SWAP1 RETURN JUMPDEST CALLVALUE DUP1 ISZERO PUSH2 0x345 JUMPI PUSH0 DUP1 REVERT JUMPDEST POP PUSH2 0x360 PUSH1 0x4 DUP1 CALLDATASIZE SUB DUP2 ADD SWAP1 PUSH2 0x35B SWAP2 SWAP1 PUSH2 0x43D1 JUMP JUMPDEST PUSH2 0x2622 JUMP JUMPDEST PUSH1 0x40 MLOAD PUSH2 0x36D SWAP2 SWAP1 PUSH2 0x4960 JUMP JUMPDEST PUSH1 0x40 MLOAD DUP1 SWAP2 SUB SWAP1 RETURN JUMPDEST PUSH1 0x2 PUSH0 SWAP1 SLOAD SWAP1 PUSH2 0x100 EXP SWAP1 DIV PUSH20 0xFFFFFFFFFFFFFFFFFFFFFFFFFFFFFFFFFFFFFFFF AND PUSH20 0xFFFFFFFFFFFFFFFFFFFFFFFFFFFFFFFFFFFFFFFF AND CALLER PUSH20 0xFFFFFFFFFFFFFFFFFFFFFFFFFFFFFFFFFFFFFFFF AND EQ PUSH2 0x42A JUMPI CALLER PUSH1 0x2 PUSH0 SWAP1 SLOAD SWAP1 PUSH2 0x100 EXP SWAP1 DIV PUSH20 0xFFFFFFFFFFFFFFFFFFFFFFFFFFFFFFFFFFFFFFFF AND PUSH1 0x40 MLOAD PUSH32 0x1CF993F400000000000000000000000000000000000000000000000000000000 DUP2 MSTORE PUSH1 0x4 ADD PUSH2 0x421 SWAP3 SWAP2 SWAP1 PUSH2 0x497A JUMP JUMPDEST PUSH1 0x40 MLOAD DUP1 SWAP2 SUB SWAP1 REVERT JUMPDEST PUSH2 0x434 DUP3 DUP3 PUSH2 0x2830 JUMP JUMPDEST POP POP JUMP JUMPDEST PUSH1 0x5 PUSH0 SWAP1 SLOAD SWAP1 PUSH2 0x100 EXP SWAP1 DIV PUSH20 0xFFFFFFFFFFFFFFFFFFFFFFFFFFFFFFFFFFFFFFFF AND DUP2 JUMP JUMPDEST PUSH1 0x3 PUSH0 SWAP1 SLOAD SWAP1 PUSH2 0x100 EXP SWAP1 DIV PUSH20 0xFFFFFFFFFFFFFFFFFFFFFFFFFFFFFFFFFFFFFFFF AND DUP2 JUMP JUMPDEST PUSH0 PUSH1 0x3 PUSH0 SWAP1 SLOAD SWAP1 PUSH2 0x100 EXP SWAP1 DIV PUSH20 0xFFFFFFFFFFFFFFFFFFFFFFFFFFFFFFFFFFFFFFFF AND PUSH20 0xFFFFFFFFFFFFFFFFFFFFFFFFFFFFFFFFFFFFFFFF AND DUP3 PUSH20 0xFFFFFFFFFFFFFFFFFFFFFFFFFFFFFFFFFFFFFFFF AND EQ SWAP1 POP SWAP2 SWAP1 POP JUMP JUMPDEST PUSH2 0x4E2 PUSH2 0x2F0E JUMP JUMPDEST PUSH1 0x6 PUSH0 SWAP1 SLOAD SWAP1 PUSH2 0x100 EXP SWAP1 DIV PUSH20 0xFFFFFFFFFFFFFFFFFFFFFFFFFFFFFFFFFFFFFFFF AND PUSH20 0xFFFFFFFFFFFFFFFFFFFFFFFFFFFFFFFFFFFFFFFF AND PUSH4 0x893D20E8 PUSH1 0x40 MLOAD DUP2 PUSH4 0xFFFFFFFF AND PUSH1 0xE0 SHL DUP2 MSTORE PUSH1 0x4 ADD PUSH1 0x20 PUSH1 0x40 MLOAD DUP1 DUP4 SUB DUP2 DUP7 GAS STATICCALL ISZERO DUP1 ISZERO PUSH2 0x54C JUMPI RETURNDATASIZE PUSH0 DUP1 RETURNDATACOPY RETURNDATASIZE PUSH0 REVERT JUMPDEST POP POP POP POP PUSH1 0x40 MLOAD RETURNDATASIZE PUSH1 0x1F NOT PUSH1 0x1F DUP3 ADD AND DUP3 ADD DUP1 PUSH1 0x40 MSTORE POP DUP2 ADD SWAP1 PUSH2 0x570 SWAP2 SWAP1 PUSH2 0x49B5 JUMP JUMPDEST PUSH20 0xFFFFFFFFFFFFFFFFFFFFFFFFFFFFFFFFFFFFFFFF AND CALLER PUSH20 0xFFFFFFFFFFFFFFFFFFFFFFFFFFFFFFFFFFFFFFFF AND EQ PUSH2 0x66E JUMPI PUSH1 0x6 PUSH0 SWAP1 SLOAD SWAP1 PUSH2 0x100 EXP SWAP1 DIV PUSH20 0xFFFFFFFFFFFFFFFFFFFFFFFFFFFFFFFFFFFFFFFF AND PUSH20 0xFFFFFFFFFFFFFFFFFFFFFFFFFFFFFFFFFFFFFFFF AND PUSH4 0x893D20E8 PUSH1 0x40 MLOAD DUP2 PUSH4 0xFFFFFFFF AND PUSH1 0xE0 SHL DUP2 MSTORE PUSH1 0x4 ADD PUSH1 0x20 PUSH1 0x40 MLOAD DUP1 DUP4 SUB DUP2 DUP7 GAS STATICCALL ISZERO DUP1 ISZERO PUSH2 0x60C JUMPI RETURNDATASIZE PUSH0 DUP1 RETURNDATACOPY RETURNDATASIZE PUSH0 REVERT JUMPDEST POP POP POP POP PUSH1 0x40 MLOAD RETURNDATASIZE PUSH1 0x1F NOT PUSH1 0x1F DUP3 ADD AND DUP3 ADD DUP1 PUSH1 0x40 MSTORE POP DUP2 ADD SWAP1 PUSH2 0x630 SWAP2 SWAP1 PUSH2 0x49B5 JUMP JUMPDEST CALLER PUSH1 0x40 MLOAD PUSH32 0x23295F0E00000000000000000000000000000000000000000000000000000000 DUP2 MSTORE PUSH1 0x4 ADD PUSH2 0x665 SWAP3 SWAP2 SWAP1 PUSH2 0x497A JUMP JUMPDEST PUSH1 0x40 MLOAD DUP1 SWAP2 SUB SWAP1 REVERT JUMPDEST PUSH0 PUSH1 0x1 SLOAD SWAP1 POP PUSH0 PUSH1 0x1 DUP2 SWAP1 SSTORE POP PUSH0 DUP3 PUSH20 0xFFFFFFFFFFFFFFFFFFFFFFFFFFFFFFFFFFFFFFFF AND DUP3 PUSH1 0x40 MLOAD PUSH2 0x6A0 SWAP1 PUSH2 0x4A0D JUMP JUMPDEST PUSH0 PUSH1 0x40 MLOAD DUP1 DUP4 SUB DUP2 DUP6 DUP8 GAS CALL SWAP3 POP POP POP RETURNDATASIZE DUP1 PUSH0 DUP2 EQ PUSH2 0x6DA JUMPI PUSH1 0x40 MLOAD SWAP2 POP PUSH1 0x1F NOT PUSH1 0x3F RETURNDATASIZE ADD AND DUP3 ADD PUSH1 0x40 MSTORE RETURNDATASIZE DUP3 MSTORE RETURNDATASIZE PUSH0 PUSH1 0x20 DUP5 ADD RETURNDATACOPY PUSH2 0x6DF JUMP JUMPDEST PUSH1 0x60 SWAP2 POP JUMPDEST POP POP SWAP1 POP DUP1 PUSH2 0x71A JUMPI PUSH1 0x40 MLOAD PUSH32 0x90B8EC1800000000000000000000000000000000000000000000000000000000 DUP2 MSTORE PUSH1 0x4 ADD PUSH1 0x40 MLOAD DUP1 SWAP2 SUB SWAP1 REVERT JUMPDEST POP POP PUSH2 0x724 PUSH2 0x2F5B JUMP JUMPDEST POP JUMP JUMPDEST PUSH2 0x72F PUSH2 0x2F0E JUMP JUMPDEST PUSH0 PUSH2 0x738 PUSH2 0x2F64 JUMP JUMPDEST SWAP1 POP PUSH0 PUSH1 0x8 PUSH0 DUP4 PUSH20 0xFFFFFFFFFFFFFFFFFFFFFFFFFFFFFFFFFFFFFFFF AND PUSH20 0xFFFFFFFFFFFFFFFFFFFFFFFFFFFFFFFFFFFFFFFF AND DUP2 MSTORE PUSH1 0x20 ADD SWAP1 DUP2 MSTORE PUSH1 0x20 ADD PUSH0 KECCAK256 SWAP1 POP PUSH0 DUP2 PUSH1 0x1 ADD SLOAD EQ PUSH2 0x7C6 JUMPI DUP1 PUSH1 0x1 ADD SLOAD PUSH1 0x40 MLOAD PUSH32 0x440DB96E00000000000000000000000000000000000000000000000000000000 DUP2 MSTORE PUSH1 0x4 ADD PUSH2 0x7BD SWAP2 SWAP1 PUSH2 0x44A7 JUMP JUMPDEST PUSH1 0x40 MLOAD DUP1 SWAP2 SUB SWAP1 REVERT JUMPDEST DUP1 PUSH1 0x9 ADD PUSH0 SWAP1 SLOAD SWAP1 PUSH2 0x100 EXP SWAP1 DIV PUSH1 0xFF AND ISZERO PUSH2 0x80E JUMPI PUSH1 0x40 MLOAD PUSH32 0xC56FB25300000000000000000000000000000000000000000000000000000000 DUP2 MSTORE PUSH1 0x4 ADD PUSH1 0x40 MLOAD DUP1 SWAP2 SUB SWAP1 REVERT JUMPDEST PUSH2 0x818 DUP5 DUP5 PUSH2 0x2F99 JUMP JUMPDEST PUSH0 PUSH2 0x828 DUP5 DUP7 PUSH3 0x7A120 DUP7 PUSH2 0x3117 JUMP JUMPDEST SWAP1 POP PUSH0 PUSH2 0x835 PUSH1 0x5 PUSH2 0x346D JUMP JUMPDEST SWAP1 POP DUP4 PUSH1 0x9 PUSH0 DUP4 DUP2 MSTORE PUSH1 0x20 ADD SWAP1 DUP2 MSTORE PUSH1 0x20 ADD PUSH0 KECCAK256 PUSH0 PUSH2 0x100 EXP DUP2 SLOAD DUP2 PUSH20 0xFFFFFFFFFFFFFFFFFFFFFFFFFFFFFFFFFFFFFFFF MUL NOT AND SWAP1 DUP4 PUSH20 0xFFFFFFFFFFFFFFFFFFFFFFFFFFFFFFFFFFFFFFFF AND MUL OR SWAP1 SSTORE POP DUP5 DUP4 PUSH1 0x2 ADD PUSH0 PUSH2 0x100 EXP DUP2 SLOAD DUP2 PUSH20 0xFFFFFFFFFFFFFFFFFFFFFFFFFFFFFFFFFFFFFFFF MUL NOT AND SWAP1 DUP4 PUSH20 0xFFFFFFFFFFFFFFFFFFFFFFFFFFFFFFFFFFFFFFFF AND MUL OR SWAP1 SSTORE POP DUP6 DUP4 PUSH0 ADD DUP2 SWAP1 SSTORE POP PUSH1 0x1 DUP4 PUSH1 0x9 ADD PUSH1 0x1 PUSH2 0x100 EXP DUP2 SLOAD DUP2 PUSH1 0xFF MUL NOT AND SWAP1 DUP4 ISZERO ISZERO MUL OR SWAP1 SSTORE POP DUP1 DUP4 PUSH1 0x1 ADD DUP2 SWAP1 SSTORE POP NUMBER DUP4 PUSH1 0x2 ADD PUSH1 0x14 PUSH2 0x100 EXP DUP2 SLOAD DUP2 PUSH8 0xFFFFFFFFFFFFFFFF MUL NOT AND SWAP1 DUP4 PUSH8 0xFFFFFFFFFFFFFFFF AND MUL OR SWAP1 SSTORE POP PUSH1 0x1 DUP4 PUSH1 0x9 ADD PUSH0 PUSH2 0x100 EXP DUP2 SLOAD DUP2 PUSH1 0xFF MUL NOT AND SWAP1 DUP4 ISZERO ISZERO MUL OR SWAP1 SSTORE POP DUP4 PUSH20 0xFFFFFFFFFFFFFFFFFFFFFFFFFFFFFFFFFFFFFFFF AND PUSH32 0xE56D6801294D0ABCE9CCC7D8AB8034AB36BDD58D638252DFEA0F1F34C0967388 DUP8 DUP8 DUP6 PUSH1 0x40 MLOAD PUSH2 0x987 SWAP4 SWAP3 SWAP2 SWAP1 PUSH2 0x4A21 JUMP JUMPDEST PUSH1 0x40 MLOAD DUP1 SWAP2 SUB SWAP1 LOG2 POP POP POP POP PUSH2 0x99B PUSH2 0x2F5B JUMP JUMPDEST POP POP JUMP JUMPDEST PUSH0 DUP1 PUSH1 0x4 PUSH0 SWAP1 SLOAD SWAP1 PUSH2 0x100 EXP SWAP1 DIV PUSH20 0xFFFFFFFFFFFFFFFFFFFFFFFFFFFFFFFFFFFFFFFF AND PUSH20 0xFFFFFFFFFFFFFFFFFFFFFFFFFFFFFFFFFFFFFFFF AND PUSH4 0xFEAF968C PUSH1 0x40 MLOAD DUP2 PUSH4 0xFFFFFFFF AND PUSH1 0xE0 SHL DUP2 MSTORE PUSH1 0x4 ADD PUSH1 0xA0 PUSH1 0x40 MLOAD DUP1 DUP4 SUB DUP2 DUP7 GAS STATICCALL ISZERO DUP1 ISZERO PUSH2 0xA0B JUMPI RETURNDATASIZE PUSH0 DUP1 RETURNDATACOPY RETURNDATASIZE PUSH0 REVERT JUMPDEST POP POP POP POP PUSH1 0x40 MLOAD RETURNDATASIZE PUSH1 0x1F NOT PUSH1 0x1F DUP3 ADD AND DUP3 ADD DUP1 PUSH1 0x40 MSTORE POP DUP2 ADD SWAP1 PUSH2 0xA2F SWAP2 SWAP1 PUSH2 0x4ADC JUMP JUMPDEST POP POP POP SWAP2 POP POP PUSH0 PUSH1 0x5 PUSH0 SWAP1 SLOAD SWAP1 PUSH2 0x100 EXP SWAP1 DIV PUSH20 0xFFFFFFFFFFFFFFFFFFFFFFFFFFFFFFFFFFFFFFFF AND PUSH20 0xFFFFFFFFFFFFFFFFFFFFFFFFFFFFFFFFFFFFFFFF AND PUSH4 0x5FBBC0D2 PUSH1 0x40 MLOAD DUP2 PUSH4 0xFFFFFFFF AND PUSH1 0xE0 SHL DUP2 MSTORE PUSH1 0x4 ADD PUSH2 0x120 PUSH1 0x40 MLOAD DUP1 DUP4 SUB DUP2 DUP7 GAS STATICCALL ISZERO DUP1 ISZERO PUSH2 0xAA1 JUMPI RETURNDATASIZE PUSH0 DUP1 RETURNDATACOPY RETURNDATASIZE PUSH0 REVERT JUMPDEST POP POP POP POP PUSH1 0x40 MLOAD RETURNDATASIZE PUSH1 0x1F NOT PUSH1 0x1F DUP3 ADD AND DUP3 ADD DUP1 PUSH1 0x40 MSTORE POP DUP2 ADD SWAP1 PUSH2 0xAC5 SWAP2 SWAP1 PUSH2 0x4BC4 JUMP JUMPDEST POP POP POP POP POP POP POP POP SWAP1 POP PUSH8 0xDE0B6B3A7640000 DUP3 DUP3 PUSH4 0xFFFFFFFF AND PUSH5 0xE8D4A51000 PUSH2 0xAF0 SWAP2 SWAP1 PUSH2 0x4CB5 JUMP JUMPDEST PUSH2 0xAFA SWAP2 SWAP1 PUSH2 0x4CB5 JUMP JUMPDEST PUSH2 0xB04 SWAP2 SWAP1 PUSH2 0x4D23 JUMP JUMPDEST DUP5 GASPRICE PUSH2 0xB10 SWAP2 SWAP1 PUSH2 0x4CB5 JUMP JUMPDEST PUSH2 0xB1A SWAP2 SWAP1 PUSH2 0x4D53 JUMP JUMPDEST SWAP3 POP POP POP SWAP2 SWAP1 POP JUMP JUMPDEST PUSH1 0x1 SLOAD DUP2 JUMP JUMPDEST PUSH1 0x2 PUSH0 SWAP1 SLOAD SWAP1 PUSH2 0x100 EXP SWAP1 DIV PUSH20 0xFFFFFFFFFFFFFFFFFFFFFFFFFFFFFFFFFFFFFFFF AND DUP2 JUMP JUMPDEST PUSH1 0x4 PUSH0 SWAP1 SLOAD SWAP1 PUSH2 0x100 EXP SWAP1 DIV PUSH20 0xFFFFFFFFFFFFFFFFFFFFFFFFFFFFFFFFFFFFFFFF AND DUP2 JUMP JUMPDEST PUSH1 0x6 PUSH0 SWAP1 SLOAD SWAP1 PUSH2 0x100 EXP SWAP1 DIV PUSH20 0xFFFFFFFFFFFFFFFFFFFFFFFFFFFFFFFFFFFFFFFF AND DUP2 JUMP JUMPDEST PUSH2 0xBA0 PUSH2 0x2F0E JUMP JUMPDEST PUSH0 PUSH2 0xBA9 PUSH2 0x2F64 JUMP JUMPDEST SWAP1 POP PUSH0 PUSH1 0x8 PUSH0 DUP4 PUSH20 0xFFFFFFFFFFFFFFFFFFFFFFFFFFFFFFFFFFFFFFFF AND PUSH20 0xFFFFFFFFFFFFFFFFFFFFFFFFFFFFFFFFFFFFFFFF AND DUP2 MSTORE PUSH1 0x20 ADD SWAP1 DUP2 MSTORE PUSH1 0x20 ADD PUSH0 KECCAK256 SWAP1 POP DUP1 PUSH1 0x9 ADD PUSH0 SWAP1 SLOAD SWAP1 PUSH2 0x100 EXP SWAP1 DIV PUSH1 0xFF AND PUSH2 0xC32 JUMPI PUSH1 0x40 MLOAD PUSH32 0x43050D9600000000000000000000000000000000000000000000000000000000 DUP2 MSTORE PUSH1 0x4 ADD PUSH1 0x40 MLOAD DUP1 SWAP2 SUB SWAP1 REVERT JUMPDEST PUSH0 DUP2 PUSH1 0x1 ADD SLOAD EQ PUSH2 0xC7E JUMPI DUP1 PUSH1 0x1 ADD SLOAD PUSH1 0x40 MLOAD PUSH32 0x440DB96E00000000000000000000000000000000000000000000000000000000 DUP2 MSTORE PUSH1 0x4 ADD PUSH2 0xC75 SWAP2 SWAP1 PUSH2 0x44A7 JUMP JUMPDEST PUSH1 0x40 MLOAD DUP1 SWAP2 SUB SWAP1 REVERT JUMPDEST PUSH0 DUP1 PUSH0 SWAP1 POP JUMPDEST PUSH1 0x5 DUP2 PUSH1 0xFF AND LT ISZERO PUSH2 0xCDA JUMPI DUP5 DUP2 PUSH1 0xFF AND PUSH1 0x5 DUP2 LT PUSH2 0xCA6 JUMPI PUSH2 0xCA5 PUSH2 0x4D86 JUMP JUMPDEST JUMPDEST PUSH1 0x20 MUL ADD PUSH1 0x20 DUP2 ADD SWAP1 PUSH2 0xCB9 SWAP2 SWAP1 PUSH2 0x4DDD JUMP JUMPDEST ISZERO PUSH2 0xCC7 JUMPI PUSH1 0x1 SWAP2 POP PUSH2 0xCDA JUMP JUMPDEST DUP1 DUP1 PUSH2 0xCD2 SWAP1 PUSH2 0x4E08 JUMP JUMPDEST SWAP2 POP POP PUSH2 0xC84 JUMP JUMPDEST POP DUP1 ISZERO PUSH2 0xDE9 JUMPI PUSH0 PUSH2 0xCEE PUSH3 0x7A120 PUSH2 0x353D JUMP JUMPDEST SWAP1 POP PUSH0 PUSH2 0xCFB PUSH1 0x5 PUSH2 0x346D JUMP JUMPDEST SWAP1 POP DUP5 PUSH1 0x9 PUSH0 DUP4 DUP2 MSTORE PUSH1 0x20 ADD SWAP1 DUP2 MSTORE PUSH1 0x20 ADD PUSH0 KECCAK256 PUSH0 PUSH2 0x100 EXP DUP2 SLOAD DUP2 PUSH20 0xFFFFFFFFFFFFFFFFFFFFFFFFFFFFFFFFFFFFFFFF MUL NOT AND SWAP1 DUP4 PUSH20 0xFFFFFFFFFFFFFFFFFFFFFFFFFFFFFFFFFFFFFFFF AND MUL OR SWAP1 SSTORE POP DUP6 DUP5 PUSH1 0x8 ADD SWAP1 PUSH1 0x5 PUSH2 0xD5F SWAP3 SWAP2 SWAP1 PUSH2 0x3F09 JUMP JUMPDEST POP DUP1 DUP5 PUSH1 0x1 ADD DUP2 SWAP1 SSTORE POP NUMBER DUP5 PUSH1 0x2 ADD PUSH1 0x14 PUSH2 0x100 EXP DUP2 SLOAD DUP2 PUSH8 0xFFFFFFFFFFFFFFFF MUL NOT AND SWAP1 DUP4 PUSH8 0xFFFFFFFFFFFFFFFF AND MUL OR SWAP1 SSTORE POP DUP5 PUSH20 0xFFFFFFFFFFFFFFFFFFFFFFFFFFFFFFFFFFFFFFFF AND PUSH32 0x49D4F29A92DA90B1497635010AE712BCC41F88B5E2BE5FBBEAF556A967DFB1AA DUP4 PUSH1 0x40 MLOAD PUSH2 0xDDA SWAP2 SWAP1 PUSH2 0x44A7 JUMP JUMPDEST PUSH1 0x40 MLOAD DUP1 SWAP2 SUB SWAP1 LOG2 POP POP PUSH2 0x103F JUMP JUMPDEST PUSH0 CALLVALUE EQ PUSH2 0xE22 JUMPI PUSH1 0x40 MLOAD PUSH32 0xC0682B200000000000000000000000000000000000000000000000000000000 DUP2 MSTORE PUSH1 0x4 ADD PUSH1 0x40 MLOAD DUP1 SWAP2 SUB SWAP1 REVERT JUMPDEST PUSH0 DUP1 PUSH2 0xEA6 DUP5 PUSH1 0x3 ADD PUSH1 0x5 DUP1 PUSH1 0x20 MUL PUSH1 0x40 MLOAD SWAP1 DUP2 ADD PUSH1 0x40 MSTORE DUP1 SWAP3 SWAP2 SWAP1 PUSH0 SWAP1 JUMPDEST DUP3 DUP3 LT ISZERO PUSH2 0xE9D JUMPI DUP4 DUP3 ADD PUSH1 0x40 MLOAD DUP1 PUSH1 0x40 ADD PUSH1 0x40 MSTORE SWAP1 DUP2 PUSH0 DUP3 ADD PUSH0 SWAP1 SLOAD SWAP1 PUSH2 0x100 EXP SWAP1 DIV PUSH1 0xFF AND PUSH1 0xFF AND PUSH1 0xFF AND DUP2 MSTORE PUSH1 0x20 ADD PUSH0 DUP3 ADD PUSH1 0x1 SWAP1 SLOAD SWAP1 PUSH2 0x100 EXP SWAP1 DIV PUSH1 0xFF AND PUSH1 0xFF AND PUSH1 0xFF AND DUP2 MSTORE POP POP DUP2 MSTORE PUSH1 0x20 ADD SWAP1 PUSH1 0x1 ADD SWAP1 PUSH2 0xE41 JUMP JUMPDEST POP POP POP POP PUSH2 0x143A JUMP JUMPDEST SWAP2 POP SWAP2 POP PUSH0 DUP5 PUSH1 0x2 ADD PUSH0 SWAP1 SLOAD SWAP1 PUSH2 0x100 EXP SWAP1 DIV PUSH20 0xFFFFFFFFFFFFFFFFFFFFFFFFFFFFFFFFFFFFFFFF AND SWAP1 POP PUSH0 DUP6 PUSH0 ADD SLOAD SWAP1 POP DUP7 PUSH20 0xFFFFFFFFFFFFFFFFFFFFFFFFFFFFFFFFFFFFFFFF AND PUSH32 0xB73B6B634AEA9965E3C60D60AC8D2380100C337B6D66167D297351746F4F1AC9 DUP3 DUP4 DUP8 PUSH2 0xF1D SWAP2 SWAP1 PUSH2 0x4CB5 JUMP JUMPDEST DUP6 DUP11 PUSH1 0x3 ADD DUP9 PUSH1 0x40 MLOAD PUSH2 0xF34 SWAP6 SWAP5 SWAP4 SWAP3 SWAP2 SWAP1 PUSH2 0x4F58 JUMP JUMPDEST PUSH1 0x40 MLOAD DUP1 SWAP2 SUB SWAP1 LOG2 PUSH2 0xF49 DUP3 DUP8 PUSH0 ADD SLOAD PUSH2 0x35C1 JUMP JUMPDEST PUSH1 0x8 PUSH0 DUP9 PUSH20 0xFFFFFFFFFFFFFFFFFFFFFFFFFFFFFFFFFFFFFFFF AND PUSH20 0xFFFFFFFFFFFFFFFFFFFFFFFFFFFFFFFFFFFFFFFF AND DUP2 MSTORE PUSH1 0x20 ADD SWAP1 DUP2 MSTORE PUSH1 0x20 ADD PUSH0 KECCAK256 PUSH0 DUP1 DUP3 ADD PUSH0 SWAP1 SSTORE PUSH1 0x1 DUP3 ADD PUSH0 SWAP1 SSTORE PUSH1 0x2 DUP3 ADD PUSH0 PUSH2 0x100 EXP DUP2 SLOAD SWAP1 PUSH20 0xFFFFFFFFFFFFFFFFFFFFFFFFFFFFFFFFFFFFFFFF MUL NOT AND SWAP1 SSTORE PUSH1 0x2 DUP3 ADD PUSH1 0x14 PUSH2 0x100 EXP DUP2 SLOAD SWAP1 PUSH8 0xFFFFFFFFFFFFFFFF MUL NOT AND SWAP1 SSTORE PUSH1 0x3 DUP3 ADD PUSH0 PUSH2 0xFE4 SWAP2 SWAP1 PUSH2 0x3FA1 JUMP JUMPDEST PUSH1 0x8 DUP3 ADD PUSH0 PUSH2 0xFF3 SWAP2 SWAP1 PUSH2 0x3FB4 JUMP JUMPDEST PUSH1 0x9 DUP3 ADD PUSH0 PUSH2 0x100 EXP DUP2 SLOAD SWAP1 PUSH1 0xFF MUL NOT AND SWAP1 SSTORE PUSH1 0x9 DUP3 ADD PUSH1 0x1 PUSH2 0x100 EXP DUP2 SLOAD SWAP1 PUSH1 0xFF MUL NOT AND SWAP1 SSTORE POP POP PUSH0 DUP5 EQ PUSH2 0x103A JUMPI PUSH2 0x1039 DUP8 DUP3 DUP7 PUSH2 0x1033 SWAP2 SWAP1 PUSH2 0x4CB5 JUMP JUMPDEST DUP5 PUSH2 0x370B JUMP JUMPDEST JUMPDEST POP POP POP POP JUMPDEST POP POP POP PUSH2 0x104A PUSH2 0x2F5B JUMP JUMPDEST POP JUMP JUMPDEST PUSH2 0x1055 PUSH2 0x2F0E JUMP JUMPDEST PUSH0 PUSH2 0x105E PUSH2 0x2F64 JUMP JUMPDEST SWAP1 POP PUSH0 PUSH1 0x8 PUSH0 DUP4 PUSH20 0xFFFFFFFFFFFFFFFFFFFFFFFFFFFFFFFFFFFFFFFF AND PUSH20 0xFFFFFFFFFFFFFFFFFFFFFFFFFFFFFFFFFFFFFFFF AND DUP2 MSTORE PUSH1 0x20 ADD SWAP1 DUP2 MSTORE PUSH1 0x20 ADD PUSH0 KECCAK256 SWAP1 POP DUP1 PUSH1 0x9 ADD PUSH0 SWAP1 SLOAD SWAP1 PUSH2 0x100 EXP SWAP1 DIV PUSH1 0xFF AND PUSH2 0x10E7 JUMPI PUSH1 0x40 MLOAD PUSH32 0x43050D9600000000000000000000000000000000000000000000000000000000 DUP2 MSTORE PUSH1 0x4 ADD PUSH1 0x40 MLOAD DUP1 SWAP2 SUB SWAP1 REVERT JUMPDEST PUSH0 DUP2 PUSH1 0x1 ADD SLOAD SUB PUSH2 0x1124 JUMPI PUSH1 0x40 MLOAD PUSH32 0x90A7340B00000000000000000000000000000000000000000000000000000000 DUP2 MSTORE PUSH1 0x4 ADD PUSH1 0x40 MLOAD DUP1 SWAP2 SUB SWAP1 REVERT JUMPDEST NUMBER PUSH1 0xA PUSH2 0x3E8 DUP4 PUSH1 0x2 ADD PUSH1 0x14 SWAP1 SLOAD SWAP1 PUSH2 0x100 EXP SWAP1 DIV PUSH8 0xFFFFFFFFFFFFFFFF AND PUSH2 0x114D SWAP2 SWAP1 PUSH2 0x4FAB JUMP JUMPDEST PUSH2 0x1157 SWAP2 SWAP1 PUSH2 0x4FAB JUMP JUMPDEST PUSH8 0xFFFFFFFFFFFFFFFF AND GT ISZERO PUSH2 0x11D7 JUMPI NUMBER PUSH1 0xA PUSH2 0x3E8 DUP4 PUSH1 0x2 ADD PUSH1 0x14 SWAP1 SLOAD SWAP1 PUSH2 0x100 EXP SWAP1 DIV PUSH8 0xFFFFFFFFFFFFFFFF AND PUSH2 0x1190 SWAP2 SWAP1 PUSH2 0x4FAB JUMP JUMPDEST PUSH2 0x119A SWAP2 SWAP1 PUSH2 0x4FAB JUMP JUMPDEST PUSH1 0x40 MLOAD PUSH32 0xB4AE675A00000000000000000000000000000000000000000000000000000000 DUP2 MSTORE PUSH1 0x4 ADD PUSH2 0x11CE SWAP3 SWAP2 SWAP1 PUSH2 0x5016 JUMP JUMPDEST PUSH1 0x40 MLOAD DUP1 SWAP2 SUB SWAP1 REVERT JUMPDEST PUSH0 DUP2 PUSH0 ADD SLOAD SWAP1 POP PUSH0 DUP3 PUSH1 0x2 ADD PUSH0 SWAP1 SLOAD SWAP1 PUSH2 0x100 EXP SWAP1 DIV PUSH20 0xFFFFFFFFFFFFFFFFFFFFFFFFFFFFFFFFFFFFFFFF AND SWAP1 POP PUSH1 0x8 PUSH0 DUP6 PUSH20 0xFFFFFFFFFFFFFFFFFFFFFFFFFFFFFFFFFFFFFFFF AND PUSH20 0xFFFFFFFFFFFFFFFFFFFFFFFFFFFFFFFFFFFFFFFF AND DUP2 MSTORE PUSH1 0x20 ADD SWAP1 DUP2 MSTORE PUSH1 0x20 ADD PUSH0 KECCAK256 PUSH0 DUP1 DUP3 ADD PUSH0 SWAP1 SSTORE PUSH1 0x1 DUP3 ADD PUSH0 SWAP1 SSTORE PUSH1 0x2 DUP3 ADD PUSH0 PUSH2 0x100 EXP DUP2 SLOAD SWAP1 PUSH20 0xFFFFFFFFFFFFFFFFFFFFFFFFFFFFFFFFFFFFFFFF MUL NOT AND SWAP1 SSTORE PUSH1 0x2 DUP3 ADD PUSH1 0x14 PUSH2 0x100 EXP DUP2 SLOAD SWAP1 PUSH8 0xFFFFFFFFFFFFFFFF MUL NOT AND SWAP1 SSTORE PUSH1 0x3 DUP3 ADD PUSH0 PUSH2 0x12A0 SWAP2 SWAP1 PUSH2 0x3FA1 JUMP JUMPDEST PUSH1 0x8 DUP3 ADD PUSH0 PUSH2 0x12AF SWAP2 SWAP1 PUSH2 0x3FB4 JUMP JUMPDEST PUSH1 0x9 DUP3 ADD PUSH0 PUSH2 0x100 EXP DUP2 SLOAD SWAP1 PUSH1 0xFF MUL NOT AND SWAP1 SSTORE PUSH1 0x9 DUP3 ADD PUSH1 0x1 PUSH2 0x100 EXP DUP2 SLOAD SWAP1 PUSH1 0xFF MUL NOT AND SWAP1 SSTORE POP POP PUSH0 PUSH20 0xFFFFFFFFFFFFFFFFFFFFFFFFFFFFFFFFFFFFFFFF AND DUP2 PUSH20 0xFFFFFFFFFFFFFFFFFFFFFFFFFFFFFFFFFFFFFFFF AND SUB PUSH2 0x13B0 JUMPI PUSH0 DUP5 PUSH20 0xFFFFFFFFFFFFFFFFFFFFFFFFFFFFFFFFFFFFFFFF AND DUP4 PUSH1 0x40 MLOAD PUSH2 0x1330 SWAP1 PUSH2 0x4A0D JUMP JUMPDEST PUSH0 PUSH1 0x40 MLOAD DUP1 DUP4 SUB DUP2 DUP6 DUP8 GAS CALL SWAP3 POP POP POP RETURNDATASIZE DUP1 PUSH0 DUP2 EQ PUSH2 0x136A JUMPI PUSH1 0x40 MLOAD SWAP2 POP PUSH1 0x1F NOT PUSH1 0x3F RETURNDATASIZE ADD AND DUP3 ADD PUSH1 0x40 MSTORE RETURNDATASIZE DUP3 MSTORE RETURNDATASIZE PUSH0 PUSH1 0x20 DUP5 ADD RETURNDATACOPY PUSH2 0x136F JUMP JUMPDEST PUSH1 0x60 SWAP2 POP JUMPDEST POP POP SWAP1 POP DUP1 PUSH2 0x13AA JUMPI PUSH1 0x40 MLOAD PUSH32 0x90B8EC1800000000000000000000000000000000000000000000000000000000 DUP2 MSTORE PUSH1 0x4 ADD PUSH1 0x40 MLOAD DUP1 SWAP2 SUB SWAP1 REVERT JUMPDEST POP PUSH2 0x13DC JUMP JUMPDEST PUSH2 0x13DB DUP5 DUP4 DUP4 PUSH20 0xFFFFFFFFFFFFFFFFFFFFFFFFFFFFFFFFFFFFFFFF AND PUSH2 0x379B SWAP1 SWAP3 SWAP2 SWAP1 PUSH4 0xFFFFFFFF AND JUMP JUMPDEST JUMPDEST DUP4 PUSH20 0xFFFFFFFFFFFFFFFFFFFFFFFFFFFFFFFFFFFFFFFF AND PUSH32 0xA961A003E6BAD850D2B19455E8DB60FA1A37E0FCE8259BEADBB4F4958F4B8DE1 DUP4 DUP4 PUSH1 0x40 MLOAD PUSH2 0x1424 SWAP3 SWAP2 SWAP1 PUSH2 0x503D JUMP JUMPDEST PUSH1 0x40 MLOAD DUP1 SWAP2 SUB SWAP1 LOG2 POP POP POP POP PUSH2 0x1438 PUSH2 0x2F5B JUMP JUMPDEST JUMP JUMPDEST PUSH0 DUP1 PUSH0 PUSH2 0x1446 DUP5 PUSH2 0x381A JUMP JUMPDEST SWAP1 POP DUP1 PUSH1 0x2 PUSH1 0x5 DUP2 LT PUSH2 0x145C JUMPI PUSH2 0x145B PUSH2 0x4D86 JUMP JUMPDEST JUMPDEST PUSH1 0x20 MUL ADD MLOAD PUSH0 ADD MLOAD PUSH1 0xFF AND DUP2 PUSH1 0x1 PUSH1 0x5 DUP2 LT PUSH2 0x147B JUMPI PUSH2 0x147A PUSH2 0x4D86 JUMP JUMPDEST JUMPDEST PUSH1 0x20 MUL ADD MLOAD PUSH0 ADD MLOAD PUSH1 0xFF AND EQ DUP1 ISZERO PUSH2 0x14CE JUMPI POP DUP1 PUSH1 0x3 PUSH1 0x5 DUP2 LT PUSH2 0x14A2 JUMPI PUSH2 0x14A1 PUSH2 0x4D86 JUMP JUMPDEST JUMPDEST PUSH1 0x20 MUL ADD MLOAD PUSH0 ADD MLOAD PUSH1 0xFF AND DUP2 PUSH1 0x2 PUSH1 0x5 DUP2 LT PUSH2 0x14C1 JUMPI PUSH2 0x14C0 PUSH2 0x4D86 JUMP JUMPDEST JUMPDEST PUSH1 0x20 MUL ADD MLOAD PUSH0 ADD MLOAD PUSH1 0xFF AND EQ JUMPDEST ISZERO PUSH2 0x156B JUMPI DUP1 PUSH0 PUSH1 0x5 DUP2 LT PUSH2 0x14E6 JUMPI PUSH2 0x14E5 PUSH2 0x4D86 JUMP JUMPDEST JUMPDEST PUSH1 0x20 MUL ADD MLOAD PUSH0 ADD MLOAD PUSH1 0xFF AND DUP2 PUSH1 0x1 PUSH1 0x5 DUP2 LT PUSH2 0x1505 JUMPI PUSH2 0x1504 PUSH2 0x4D86 JUMP JUMPDEST JUMPDEST PUSH1 0x20 MUL ADD MLOAD PUSH0 ADD MLOAD PUSH1 0xFF AND EQ DUP1 PUSH2 0x1557 JUMPI POP DUP1 PUSH1 0x4 PUSH1 0x5 DUP2 LT PUSH2 0x152B JUMPI PUSH2 0x152A PUSH2 0x4D86 JUMP JUMPDEST JUMPDEST PUSH1 0x20 MUL ADD MLOAD PUSH0 ADD MLOAD PUSH1 0xFF AND DUP2 PUSH1 0x3 PUSH1 0x5 DUP2 LT PUSH2 0x154A JUMPI PUSH2 0x1549 PUSH2 0x4D86 JUMP JUMPDEST JUMPDEST PUSH1 0x20 MUL ADD MLOAD PUSH0 ADD MLOAD PUSH1 0xFF AND EQ JUMPDEST ISZERO PUSH2 0x156A JUMPI PUSH1 0x1E PUSH1 0x7 SWAP3 POP SWAP3 POP POP PUSH2 0x261D JUMP JUMPDEST JUMPDEST DUP1 PUSH0 PUSH1 0x5 DUP2 LT PUSH2 0x157E JUMPI PUSH2 0x157D PUSH2 0x4D86 JUMP JUMPDEST JUMPDEST PUSH1 0x20 MUL ADD MLOAD PUSH0 ADD MLOAD PUSH1 0xFF AND DUP2 PUSH1 0x1 PUSH1 0x5 DUP2 LT PUSH2 0x159D JUMPI PUSH2 0x159C PUSH2 0x4D86 JUMP JUMPDEST JUMPDEST PUSH1 0x20 MUL ADD MLOAD PUSH0 ADD MLOAD PUSH1 0xFF AND EQ DUP1 ISZERO PUSH2 0x15F0 JUMPI POP DUP1 PUSH1 0x3 PUSH1 0x5 DUP2 LT PUSH2 0x15C4 JUMPI PUSH2 0x15C3 PUSH2 0x4D86 JUMP JUMPDEST JUMPDEST PUSH1 0x20 MUL ADD MLOAD PUSH0 ADD MLOAD PUSH1 0xFF AND DUP2 PUSH1 0x4 PUSH1 0x5 DUP2 LT PUSH2 0x15E3 JUMPI PUSH2 0x15E2 PUSH2 0x4D86 JUMP JUMPDEST JUMPDEST PUSH1 0x20 MUL ADD MLOAD PUSH0 ADD MLOAD PUSH1 0xFF AND EQ JUMPDEST ISZERO PUSH2 0x168E JUMPI DUP1 PUSH1 0x2 PUSH1 0x5 DUP2 LT PUSH2 0x1609 JUMPI PUSH2 0x1608 PUSH2 0x4D86 JUMP JUMPDEST JUMPDEST PUSH1 0x20 MUL ADD MLOAD PUSH0 ADD MLOAD PUSH1 0xFF AND DUP2 PUSH1 0x1 PUSH1 0x5 DUP2 LT PUSH2 0x1628 JUMPI PUSH2 0x1627 PUSH2 0x4D86 JUMP JUMPDEST JUMPDEST PUSH1 0x20 MUL ADD MLOAD PUSH0 ADD MLOAD PUSH1 0xFF AND EQ DUP1 PUSH2 0x167A JUMPI POP DUP1 PUSH1 0x2 PUSH1 0x5 DUP2 LT PUSH2 0x164E JUMPI PUSH2 0x164D PUSH2 0x4D86 JUMP JUMPDEST JUMPDEST PUSH1 0x20 MUL ADD MLOAD PUSH0 ADD MLOAD PUSH1 0xFF AND DUP2 PUSH1 0x3 PUSH1 0x5 DUP2 LT PUSH2 0x166D JUMPI PUSH2 0x166C PUSH2 0x4D86 JUMP JUMPDEST JUMPDEST PUSH1 0x20 MUL ADD MLOAD PUSH0 ADD MLOAD PUSH1 0xFF AND EQ JUMPDEST ISZERO PUSH2 0x168D JUMPI PUSH1 0x8 PUSH1 0x6 SWAP3 POP SWAP3 POP POP PUSH2 0x261D JUMP JUMPDEST JUMPDEST DUP1 PUSH1 0x1 PUSH1 0x5 DUP2 LT PUSH2 0x16A2 JUMPI PUSH2 0x16A1 PUSH2 0x4D86 JUMP JUMPDEST JUMPDEST PUSH1 0x20 MUL ADD MLOAD PUSH1 0x20 ADD MLOAD PUSH1 0xFF AND DUP2 PUSH0 PUSH1 0x5 DUP2 LT PUSH2 0x16C1 JUMPI PUSH2 0x16C0 PUSH2 0x4D86 JUMP JUMPDEST JUMPDEST PUSH1 0x20 MUL ADD MLOAD PUSH1 0x20 ADD MLOAD PUSH1 0xFF AND EQ DUP1 ISZERO PUSH2 0x1717 JUMPI POP DUP1 PUSH1 0x3 PUSH1 0x5 DUP2 LT PUSH2 0x16E9 JUMPI PUSH2 0x16E8 PUSH2 0x4D86 JUMP JUMPDEST JUMPDEST PUSH1 0x20 MUL ADD MLOAD PUSH1 0x20 ADD MLOAD PUSH1 0xFF AND DUP2 PUSH1 0x2 PUSH1 0x5 DUP2 LT PUSH2 0x1709 JUMPI PUSH2 0x1708 PUSH2 0x4D86 JUMP JUMPDEST JUMPDEST PUSH1 0x20 MUL ADD MLOAD PUSH1 0x20 ADD MLOAD PUSH1 0xFF AND EQ JUMPDEST DUP1 ISZERO PUSH2 0x175F JUMPI POP DUP1 PUSH1 0x4 PUSH1 0x5 DUP2 LT PUSH2 0x1732 JUMPI PUSH2 0x1731 PUSH2 0x4D86 JUMP JUMPDEST JUMPDEST PUSH1 0x20 MUL ADD MLOAD PUSH1 0x20 ADD MLOAD PUSH1 0xFF AND DUP2 PUSH0 PUSH1 0x5 DUP2 LT PUSH2 0x1751 JUMPI PUSH2 0x1750 PUSH2 0x4D86 JUMP JUMPDEST JUMPDEST PUSH1 0x20 MUL ADD MLOAD PUSH1 0x20 ADD MLOAD PUSH1 0xFF AND EQ JUMPDEST DUP1 ISZERO PUSH2 0x17A8 JUMPI POP DUP1 PUSH1 0x1 PUSH1 0x5 DUP2 LT PUSH2 0x177A JUMPI PUSH2 0x1779 PUSH2 0x4D86 JUMP JUMPDEST JUMPDEST PUSH1 0x20 MUL ADD MLOAD PUSH1 0x20 ADD MLOAD PUSH1 0xFF AND DUP2 PUSH1 0x2 PUSH1 0x5 DUP2 LT PUSH2 0x179A JUMPI PUSH2 0x1799 PUSH2 0x4D86 JUMP JUMPDEST JUMPDEST PUSH1 0x20 MUL ADD MLOAD PUSH1 0x20 ADD MLOAD PUSH1 0xFF AND EQ JUMPDEST ISZERO PUSH2 0x1C0D JUMPI PUSH1 0x1 DUP2 PUSH0 PUSH1 0x5 DUP2 LT PUSH2 0x17C2 JUMPI PUSH2 0x17C1 PUSH2 0x4D86 JUMP JUMPDEST JUMPDEST PUSH1 0x20 MUL ADD MLOAD PUSH0 ADD MLOAD PUSH1 0xFF AND EQ DUP1 ISZERO PUSH2 0x17F8 JUMPI POP PUSH1 0xD DUP2 PUSH1 0x4 PUSH1 0x5 DUP2 LT PUSH2 0x17EB JUMPI PUSH2 0x17EA PUSH2 0x4D86 JUMP JUMPDEST JUMPDEST PUSH1 0x20 MUL ADD MLOAD PUSH0 ADD MLOAD PUSH1 0xFF AND EQ JUMPDEST ISZERO PUSH2 0x1902 JUMPI PUSH1 0x1 DUP2 PUSH1 0x3 PUSH1 0x5 DUP2 LT PUSH2 0x1813 JUMPI PUSH2 0x1812 PUSH2 0x4D86 JUMP JUMPDEST JUMPDEST PUSH1 0x20 MUL ADD MLOAD PUSH0 ADD MLOAD PUSH2 0x1825 SWAP2 SWAP1 PUSH2 0x5064 JUMP JUMPDEST PUSH1 0xFF AND DUP2 PUSH1 0x2 PUSH1 0x5 DUP2 LT PUSH2 0x183C JUMPI PUSH2 0x183B PUSH2 0x4D86 JUMP JUMPDEST JUMPDEST PUSH1 0x20 MUL ADD MLOAD PUSH0 ADD MLOAD PUSH1 0xFF AND EQ DUP1 ISZERO PUSH2 0x189B JUMPI POP PUSH1 0x1 DUP2 PUSH1 0x4 PUSH1 0x5 DUP2 LT PUSH2 0x1865 JUMPI PUSH2 0x1864 PUSH2 0x4D86 JUMP JUMPDEST JUMPDEST PUSH1 0x20 MUL ADD MLOAD PUSH0 ADD MLOAD PUSH2 0x1877 SWAP2 SWAP1 PUSH2 0x5064 JUMP JUMPDEST PUSH1 0xFF AND DUP2 PUSH1 0x3 PUSH1 0x5 DUP2 LT PUSH2 0x188E JUMPI PUSH2 0x188D PUSH2 0x4D86 JUMP JUMPDEST JUMPDEST PUSH1 0x20 MUL ADD MLOAD PUSH0 ADD MLOAD PUSH1 0xFF AND EQ JUMPDEST DUP1 ISZERO PUSH2 0x18EE JUMPI POP PUSH1 0x1 DUP2 PUSH1 0x2 PUSH1 0x5 DUP2 LT PUSH2 0x18B8 JUMPI PUSH2 0x18B7 PUSH2 0x4D86 JUMP JUMPDEST JUMPDEST PUSH1 0x20 MUL ADD MLOAD PUSH0 ADD MLOAD PUSH2 0x18CA SWAP2 SWAP1 PUSH2 0x5064 JUMP JUMPDEST PUSH1 0xFF AND DUP2 PUSH1 0x1 PUSH1 0x5 DUP2 LT PUSH2 0x18E1 JUMPI PUSH2 0x18E0 PUSH2 0x4D86 JUMP JUMPDEST JUMPDEST PUSH1 0x20 MUL ADD MLOAD PUSH0 ADD MLOAD PUSH1 0xFF AND EQ JUMPDEST ISZERO PUSH2 0x1901 JUMPI PUSH1 0x64 PUSH1 0x9 SWAP3 POP SWAP3 POP POP PUSH2 0x261D JUMP JUMPDEST JUMPDEST PUSH1 0x1 DUP2 PUSH0 PUSH1 0x5 DUP2 LT PUSH2 0x1917 JUMPI PUSH2 0x1916 PUSH2 0x4D86 JUMP JUMPDEST JUMPDEST PUSH1 0x20 MUL ADD MLOAD PUSH0 ADD MLOAD PUSH1 0xFF AND EQ DUP1 ISZERO PUSH2 0x194D JUMPI POP PUSH1 0x2 DUP2 PUSH1 0x1 PUSH1 0x5 DUP2 LT PUSH2 0x1940 JUMPI PUSH2 0x193F PUSH2 0x4D86 JUMP JUMPDEST JUMPDEST PUSH1 0x20 MUL ADD MLOAD PUSH0 ADD MLOAD PUSH1 0xFF AND EQ JUMPDEST ISZERO PUSH2 0x1AA9 JUMPI PUSH1 0x1 DUP2 PUSH1 0x1 PUSH1 0x5 DUP2 LT PUSH2 0x1968 JUMPI PUSH2 0x1967 PUSH2 0x4D86 JUMP JUMPDEST JUMPDEST PUSH1 0x20 MUL ADD MLOAD PUSH0 ADD MLOAD PUSH2 0x197A SWAP2 SWAP1 PUSH2 0x5064 JUMP JUMPDEST PUSH1 0xFF AND DUP2 PUSH0 PUSH1 0x5 DUP2 LT PUSH2 0x1990 JUMPI PUSH2 0x198F PUSH2 0x4D86 JUMP JUMPDEST JUMPDEST PUSH1 0x20 MUL ADD MLOAD PUSH0 ADD MLOAD PUSH1 0xFF AND EQ DUP1 ISZERO PUSH2 0x19EF JUMPI POP PUSH1 0x1 DUP2 PUSH1 0x3 PUSH1 0x5 DUP2 LT PUSH2 0x19B9 JUMPI PUSH2 0x19B8 PUSH2 0x4D86 JUMP JUMPDEST JUMPDEST PUSH1 0x20 MUL ADD MLOAD PUSH0 ADD MLOAD PUSH2 0x19CB SWAP2 SWAP1 PUSH2 0x5064 JUMP JUMPDEST PUSH1 0xFF AND DUP2 PUSH1 0x2 PUSH1 0x5 DUP2 LT PUSH2 0x19E2 JUMPI PUSH2 0x19E1 PUSH2 0x4D86 JUMP JUMPDEST JUMPDEST PUSH1 0x20 MUL ADD MLOAD PUSH0 ADD MLOAD PUSH1 0xFF AND EQ JUMPDEST DUP1 ISZERO PUSH2 0x1A42 JUMPI POP PUSH1 0x1 DUP2 PUSH1 0x4 PUSH1 0x5 DUP2 LT PUSH2 0x1A0C JUMPI PUSH2 0x1A0B PUSH2 0x4D86 JUMP JUMPDEST JUMPDEST PUSH1 0x20 MUL ADD MLOAD PUSH0 ADD MLOAD PUSH2 0x1A1E SWAP2 SWAP1 PUSH2 0x5064 JUMP JUMPDEST PUSH1 0xFF AND DUP2 PUSH1 0x3 PUSH1 0x5 DUP2 LT PUSH2 0x1A35 JUMPI PUSH2 0x1A34 PUSH2 0x4D86 JUMP JUMPDEST JUMPDEST PUSH1 0x20 MUL ADD MLOAD PUSH0 ADD MLOAD PUSH1 0xFF AND EQ JUMPDEST DUP1 ISZERO PUSH2 0x1A95 JUMPI POP PUSH1 0x1 DUP2 PUSH1 0x2 PUSH1 0x5 DUP2 LT PUSH2 0x1A5F JUMPI PUSH2 0x1A5E PUSH2 0x4D86 JUMP JUMPDEST JUMPDEST PUSH1 0x20 MUL ADD MLOAD PUSH0 ADD MLOAD PUSH2 0x1A71 SWAP2 SWAP1 PUSH2 0x5064 JUMP JUMPDEST PUSH1 0xFF AND DUP2 PUSH1 0x1 PUSH1 0x5 DUP2 LT PUSH2 0x1A88 JUMPI PUSH2 0x1A87 PUSH2 0x4D86 JUMP JUMPDEST JUMPDEST PUSH1 0x20 MUL ADD MLOAD PUSH0 ADD MLOAD PUSH1 0xFF AND EQ JUMPDEST ISZERO PUSH2 0x1AA8 JUMPI PUSH1 0x32 PUSH1 0x8 SWAP3 POP SWAP3 POP POP PUSH2 0x261D JUMP JUMPDEST JUMPDEST PUSH1 0x1 DUP2 PUSH1 0x1 PUSH1 0x5 DUP2 LT PUSH2 0x1ABF JUMPI PUSH2 0x1ABE PUSH2 0x4D86 JUMP JUMPDEST JUMPDEST PUSH1 0x20 MUL ADD MLOAD PUSH0 ADD MLOAD PUSH2 0x1AD1 SWAP2 SWAP1 PUSH2 0x5064 JUMP JUMPDEST PUSH1 0xFF AND DUP2 PUSH0 PUSH1 0x5 DUP2 LT PUSH2 0x1AE7 JUMPI PUSH2 0x1AE6 PUSH2 0x4D86 JUMP JUMPDEST JUMPDEST PUSH1 0x20 MUL ADD MLOAD PUSH0 ADD MLOAD PUSH1 0xFF AND EQ DUP1 ISZERO PUSH2 0x1B46 JUMPI POP PUSH1 0x1 DUP2 PUSH1 0x3 PUSH1 0x5 DUP2 LT PUSH2 0x1B10 JUMPI PUSH2 0x1B0F PUSH2 0x4D86 JUMP JUMPDEST JUMPDEST PUSH1 0x20 MUL ADD MLOAD PUSH0 ADD MLOAD PUSH2 0x1B22 SWAP2 SWAP1 PUSH2 0x5064 JUMP JUMPDEST PUSH1 0xFF AND DUP2 PUSH1 0x2 PUSH1 0x5 DUP2 LT PUSH2 0x1B39 JUMPI PUSH2 0x1B38 PUSH2 0x4D86 JUMP JUMPDEST JUMPDEST PUSH1 0x20 MUL ADD MLOAD PUSH0 ADD MLOAD PUSH1 0xFF AND EQ JUMPDEST DUP1 ISZERO PUSH2 0x1B99 JUMPI POP PUSH1 0x1 DUP2 PUSH1 0x4 PUSH1 0x5 DUP2 LT PUSH2 0x1B63 JUMPI PUSH2 0x1B62 PUSH2 0x4D86 JUMP JUMPDEST JUMPDEST PUSH1 0x20 MUL ADD MLOAD PUSH0 ADD MLOAD PUSH2 0x1B75 SWAP2 SWAP1 PUSH2 0x5064 JUMP JUMPDEST PUSH1 0xFF AND DUP2 PUSH1 0x3 PUSH1 0x5 DUP2 LT PUSH2 0x1B8C JUMPI PUSH2 0x1B8B PUSH2 0x4D86 JUMP JUMPDEST JUMPDEST PUSH1 0x20 MUL ADD MLOAD PUSH0 ADD MLOAD PUSH1 0xFF AND EQ JUMPDEST DUP1 ISZERO PUSH2 0x1BEC JUMPI POP PUSH1 0x1 DUP2 PUSH1 0x2 PUSH1 0x5 DUP2 LT PUSH2 0x1BB6 JUMPI PUSH2 0x1BB5 PUSH2 0x4D86 JUMP JUMPDEST JUMPDEST PUSH1 0x20 MUL ADD MLOAD PUSH0 ADD MLOAD PUSH2 0x1BC8 SWAP2 SWAP1 PUSH2 0x5064 JUMP JUMPDEST PUSH1 0xFF AND DUP2 PUSH1 0x1 PUSH1 0x5 DUP2 LT PUSH2 0x1BDF JUMPI PUSH2 0x1BDE PUSH2 0x4D86 JUMP JUMPDEST JUMPDEST PUSH1 0x20 MUL ADD MLOAD PUSH0 ADD MLOAD PUSH1 0xFF AND EQ JUMPDEST ISZERO PUSH2 0x1BFF JUMPI PUSH1 0x32 PUSH1 0x8 SWAP3 POP SWAP3 POP POP PUSH2 0x261D JUMP JUMPDEST PUSH1 0x6 PUSH1 0x5 SWAP3 POP SWAP3 POP POP PUSH2 0x261D JUMP JUMPDEST PUSH1 0x1 DUP2 PUSH0 PUSH1 0x5 DUP2 LT PUSH2 0x1C22 JUMPI PUSH2 0x1C21 PUSH2 0x4D86 JUMP JUMPDEST JUMPDEST PUSH1 0x20 MUL ADD MLOAD PUSH0 ADD MLOAD PUSH1 0xFF AND EQ DUP1 ISZERO PUSH2 0x1C58 JUMPI POP PUSH1 0x2 DUP2 PUSH1 0x1 PUSH1 0x5 DUP2 LT PUSH2 0x1C4B JUMPI PUSH2 0x1C4A PUSH2 0x4D86 JUMP JUMPDEST JUMPDEST PUSH1 0x20 MUL ADD MLOAD PUSH0 ADD MLOAD PUSH1 0xFF AND EQ JUMPDEST ISZERO PUSH2 0x1DB4 JUMPI PUSH1 0x1 DUP2 PUSH1 0x1 PUSH1 0x5 DUP2 LT PUSH2 0x1C73 JUMPI PUSH2 0x1C72 PUSH2 0x4D86 JUMP JUMPDEST JUMPDEST PUSH1 0x20 MUL ADD MLOAD PUSH0 ADD MLOAD PUSH2 0x1C85 SWAP2 SWAP1 PUSH2 0x5064 JUMP JUMPDEST PUSH1 0xFF AND DUP2 PUSH0 PUSH1 0x5 DUP2 LT PUSH2 0x1C9B JUMPI PUSH2 0x1C9A PUSH2 0x4D86 JUMP JUMPDEST JUMPDEST PUSH1 0x20 MUL ADD MLOAD PUSH0 ADD MLOAD PUSH1 0xFF AND EQ DUP1 ISZERO PUSH2 0x1CFA JUMPI POP PUSH1 0x1 DUP2 PUSH1 0x3 PUSH1 0x5 DUP2 LT PUSH2 0x1CC4 JUMPI PUSH2 0x1CC3 PUSH2 0x4D86 JUMP JUMPDEST JUMPDEST PUSH1 0x20 MUL ADD MLOAD PUSH0 ADD MLOAD PUSH2 0x1CD6 SWAP2 SWAP1 PUSH2 0x5064 JUMP JUMPDEST PUSH1 0xFF AND DUP2 PUSH1 0x2 PUSH1 0x5 DUP2 LT PUSH2 0x1CED JUMPI PUSH2 0x1CEC PUSH2 0x4D86 JUMP JUMPDEST JUMPDEST PUSH1 0x20 MUL ADD MLOAD PUSH0 ADD MLOAD PUSH1 0xFF AND EQ JUMPDEST DUP1 ISZERO PUSH2 0x1D4D JUMPI POP PUSH1 0x1 DUP2 PUSH1 0x4 PUSH1 0x5 DUP2 LT PUSH2 0x1D17 JUMPI PUSH2 0x1D16 PUSH2 0x4D86 JUMP JUMPDEST JUMPDEST PUSH1 0x20 MUL ADD MLOAD PUSH0 ADD MLOAD PUSH2 0x1D29 SWAP2 SWAP1 PUSH2 0x5064 JUMP JUMPDEST PUSH1 0xFF AND DUP2 PUSH1 0x3 PUSH1 0x5 DUP2 LT PUSH2 0x1D40 JUMPI PUSH2 0x1D3F PUSH2 0x4D86 JUMP JUMPDEST JUMPDEST PUSH1 0x20 MUL ADD MLOAD PUSH0 ADD MLOAD PUSH1 0xFF AND EQ JUMPDEST DUP1 ISZERO PUSH2 0x1DA0 JUMPI POP PUSH1 0x1 DUP2 PUSH1 0x2 PUSH1 0x5 DUP2 LT PUSH2 0x1D6A JUMPI PUSH2 0x1D69 PUSH2 0x4D86 JUMP JUMPDEST JUMPDEST PUSH1 0x20 MUL ADD MLOAD PUSH0 ADD MLOAD PUSH2 0x1D7C SWAP2 SWAP1 PUSH2 0x5064 JUMP JUMPDEST PUSH1 0xFF AND DUP2 PUSH1 0x1 PUSH1 0x5 DUP2 LT PUSH2 0x1D93 JUMPI PUSH2 0x1D92 PUSH2 0x4D86 JUMP JUMPDEST JUMPDEST PUSH1 0x20 MUL ADD MLOAD PUSH0 ADD MLOAD PUSH1 0xFF AND EQ JUMPDEST ISZERO PUSH2 0x1DB3 JUMPI PUSH1 0x5 PUSH1 0x4 SWAP3 POP SWAP3 POP POP PUSH2 0x261D JUMP JUMPDEST JUMPDEST PUSH1 0x1 DUP2 PUSH0 PUSH1 0x5 DUP2 LT PUSH2 0x1DC9 JUMPI PUSH2 0x1DC8 PUSH2 0x4D86 JUMP JUMPDEST JUMPDEST PUSH1 0x20 MUL ADD MLOAD PUSH0 ADD MLOAD PUSH1 0xFF AND EQ DUP1 ISZERO PUSH2 0x1DFF JUMPI POP PUSH1 0xD DUP2 PUSH1 0x4 PUSH1 0x5 DUP2 LT PUSH2 0x1DF2 JUMPI PUSH2 0x1DF1 PUSH2 0x4D86 JUMP JUMPDEST JUMPDEST PUSH1 0x20 MUL ADD MLOAD PUSH0 ADD MLOAD PUSH1 0xFF AND EQ JUMPDEST ISZERO PUSH2 0x1F09 JUMPI PUSH1 0x1 DUP2 PUSH1 0x3 PUSH1 0x5 DUP2 LT PUSH2 0x1E1A JUMPI PUSH2 0x1E19 PUSH2 0x4D86 JUMP JUMPDEST JUMPDEST PUSH1 0x20 MUL ADD MLOAD PUSH0 ADD MLOAD PUSH2 0x1E2C SWAP2 SWAP1 PUSH2 0x5064 JUMP JUMPDEST PUSH1 0xFF AND DUP2 PUSH1 0x2 PUSH1 0x5 DUP2 LT PUSH2 0x1E43 JUMPI PUSH2 0x1E42 PUSH2 0x4D86 JUMP JUMPDEST JUMPDEST PUSH1 0x20 MUL ADD MLOAD PUSH0 ADD MLOAD PUSH1 0xFF AND EQ DUP1 ISZERO PUSH2 0x1EA2 JUMPI POP PUSH1 0x1 DUP2 PUSH1 0x4 PUSH1 0x5 DUP2 LT PUSH2 0x1E6C JUMPI PUSH2 0x1E6B PUSH2 0x4D86 JUMP JUMPDEST JUMPDEST PUSH1 0x20 MUL ADD MLOAD PUSH0 ADD MLOAD PUSH2 0x1E7E SWAP2 SWAP1 PUSH2 0x5064 JUMP JUMPDEST PUSH1 0xFF AND DUP2 PUSH1 0x3 PUSH1 0x5 DUP2 LT PUSH2 0x1E95 JUMPI PUSH2 0x1E94 PUSH2 0x4D86 JUMP JUMPDEST JUMPDEST PUSH1 0x20 MUL ADD MLOAD PUSH0 ADD MLOAD PUSH1 0xFF AND EQ JUMPDEST DUP1 ISZERO PUSH2 0x1EF5 JUMPI POP PUSH1 0x1 DUP2 PUSH1 0x2 PUSH1 0x5 DUP2 LT PUSH2 0x1EBF JUMPI PUSH2 0x1EBE PUSH2 0x4D86 JUMP JUMPDEST JUMPDEST PUSH1 0x20 MUL ADD MLOAD PUSH0 ADD MLOAD PUSH2 0x1ED1 SWAP2 SWAP1 PUSH2 0x5064 JUMP JUMPDEST PUSH1 0xFF AND DUP2 PUSH1 0x1 PUSH1 0x5 DUP2 LT PUSH2 0x1EE8 JUMPI PUSH2 0x1EE7 PUSH2 0x4D86 JUMP JUMPDEST JUMPDEST PUSH1 0x20 MUL ADD MLOAD PUSH0 ADD MLOAD PUSH1 0xFF AND EQ JUMPDEST ISZERO PUSH2 0x1F08 JUMPI PUSH1 0x5 PUSH1 0x4 SWAP3 POP SWAP3 POP POP PUSH2 0x261D JUMP JUMPDEST JUMPDEST PUSH1 0x1 DUP2 PUSH1 0x1 PUSH1 0x5 DUP2 LT PUSH2 0x1F1F JUMPI PUSH2 0x1F1E PUSH2 0x4D86 JUMP JUMPDEST JUMPDEST PUSH1 0x20 MUL ADD MLOAD PUSH0 ADD MLOAD PUSH2 0x1F31 SWAP2 SWAP1 PUSH2 0x5064 JUMP JUMPDEST PUSH1 0xFF AND DUP2 PUSH0 PUSH1 0x5 DUP2 LT PUSH2 0x1F47 JUMPI PUSH2 0x1F46 PUSH2 0x4D86 JUMP JUMPDEST JUMPDEST PUSH1 0x20 MUL ADD MLOAD PUSH0 ADD MLOAD PUSH1 0xFF AND EQ DUP1 ISZERO PUSH2 0x1FA6 JUMPI POP PUSH1 0x1 DUP2 PUSH1 0x2 PUSH1 0x5 DUP2 LT PUSH2 0x1F70 JUMPI PUSH2 0x1F6F PUSH2 0x4D86 JUMP JUMPDEST JUMPDEST PUSH1 0x20 MUL ADD MLOAD PUSH0 ADD MLOAD PUSH2 0x1F82 SWAP2 SWAP1 PUSH2 0x5064 JUMP JUMPDEST PUSH1 0xFF AND DUP2 PUSH1 0x1 PUSH1 0x5 DUP2 LT PUSH2 0x1F99 JUMPI PUSH2 0x1F98 PUSH2 0x4D86 JUMP JUMPDEST JUMPDEST PUSH1 0x20 MUL ADD MLOAD PUSH0 ADD MLOAD PUSH1 0xFF AND EQ JUMPDEST DUP1 ISZERO PUSH2 0x1FF9 JUMPI POP PUSH1 0x1 DUP2 PUSH1 0x3 PUSH1 0x5 DUP2 LT PUSH2 0x1FC3 JUMPI PUSH2 0x1FC2 PUSH2 0x4D86 JUMP JUMPDEST JUMPDEST PUSH1 0x20 MUL ADD MLOAD PUSH0 ADD MLOAD PUSH2 0x1FD5 SWAP2 SWAP1 PUSH2 0x5064 JUMP JUMPDEST PUSH1 0xFF AND DUP2 PUSH1 0x2 PUSH1 0x5 DUP2 LT PUSH2 0x1FEC JUMPI PUSH2 0x1FEB PUSH2 0x4D86 JUMP JUMPDEST JUMPDEST PUSH1 0x20 MUL ADD MLOAD PUSH0 ADD MLOAD PUSH1 0xFF AND EQ JUMPDEST DUP1 ISZERO PUSH2 0x204C JUMPI POP PUSH1 0x1 DUP2 PUSH1 0x4 PUSH1 0x5 DUP2 LT PUSH2 0x2016 JUMPI PUSH2 0x2015 PUSH2 0x4D86 JUMP JUMPDEST JUMPDEST PUSH1 0x20 MUL ADD MLOAD PUSH0 ADD MLOAD PUSH2 0x2028 SWAP2 SWAP1 PUSH2 0x5064 JUMP JUMPDEST PUSH1 0xFF AND DUP2 PUSH1 0x3 PUSH1 0x5 DUP2 LT PUSH2 0x203F JUMPI PUSH2 0x203E PUSH2 0x4D86 JUMP JUMPDEST JUMPDEST PUSH1 0x20 MUL ADD MLOAD PUSH0 ADD MLOAD PUSH1 0xFF AND EQ JUMPDEST ISZERO PUSH2 0x205F JUMPI PUSH1 0x5 PUSH1 0x4 SWAP3 POP SWAP3 POP POP PUSH2 0x261D JUMP JUMPDEST DUP1 PUSH1 0x1 PUSH1 0x5 DUP2 LT PUSH2 0x2073 JUMPI PUSH2 0x2072 PUSH2 0x4D86 JUMP JUMPDEST JUMPDEST PUSH1 0x20 MUL ADD MLOAD PUSH0 ADD MLOAD PUSH1 0xFF AND DUP2 PUSH0 PUSH1 0x5 DUP2 LT PUSH2 0x2091 JUMPI PUSH2 0x2090 PUSH2 0x4D86 JUMP JUMPDEST JUMPDEST PUSH1 0x20 MUL ADD MLOAD PUSH0 ADD MLOAD PUSH1 0xFF AND EQ DUP1 ISZERO PUSH2 0x20E4 JUMPI POP DUP1 PUSH1 0x2 PUSH1 0x5 DUP2 LT PUSH2 0x20B8 JUMPI PUSH2 0x20B7 PUSH2 0x4D86 JUMP JUMPDEST JUMPDEST PUSH1 0x20 MUL ADD MLOAD PUSH0 ADD MLOAD PUSH1 0xFF AND DUP2 PUSH1 0x1 PUSH1 0x5 DUP2 LT PUSH2 0x20D7 JUMPI PUSH2 0x20D6 PUSH2 0x4D86 JUMP JUMPDEST JUMPDEST PUSH1 0x20 MUL ADD MLOAD PUSH0 ADD MLOAD PUSH1 0xFF AND EQ JUMPDEST ISZERO PUSH2 0x20F6 JUMPI PUSH1 0x3 DUP1 SWAP3 POP SWAP3 POP POP PUSH2 0x261D JUMP JUMPDEST DUP1 PUSH1 0x2 PUSH1 0x5 DUP2 LT PUSH2 0x210A JUMPI PUSH2 0x2109 PUSH2 0x4D86 JUMP JUMPDEST JUMPDEST PUSH1 0x20 MUL ADD MLOAD PUSH0 ADD MLOAD PUSH1 0xFF AND DUP2 PUSH1 0x1 PUSH1 0x5 DUP2 LT PUSH2 0x2129 JUMPI PUSH2 0x2128 PUSH2 0x4D86 JUMP JUMPDEST JUMPDEST PUSH1 0x20 MUL ADD MLOAD PUSH0 ADD MLOAD PUSH1 0xFF AND EQ DUP1 ISZERO PUSH2 0x217C JUMPI POP DUP1 PUSH1 0x3 PUSH1 0x5 DUP2 LT PUSH2 0x2150 JUMPI PUSH2 0x214F PUSH2 0x4D86 JUMP JUMPDEST JUMPDEST PUSH1 0x20 MUL ADD MLOAD PUSH0 ADD MLOAD PUSH1 0xFF AND DUP2 PUSH1 0x2 PUSH1 0x5 DUP2 LT PUSH2 0x216F JUMPI PUSH2 0x216E PUSH2 0x4D86 JUMP JUMPDEST JUMPDEST PUSH1 0x20 MUL ADD MLOAD PUSH0 ADD MLOAD PUSH1 0xFF AND EQ JUMPDEST ISZERO PUSH2 0x218E JUMPI PUSH1 0x3 DUP1 SWAP3 POP SWAP3 POP POP PUSH2 0x261D JUMP JUMPDEST DUP1 PUSH1 0x3 PUSH1 0x5 DUP2 LT PUSH2 0x21A2 JUMPI PUSH2 0x21A1 PUSH2 0x4D86 JUMP JUMPDEST JUMPDEST PUSH1 0x20 MUL ADD MLOAD PUSH0 ADD MLOAD PUSH1 0xFF AND DUP2 PUSH1 0x2 PUSH1 0x5 DUP2 LT PUSH2 0x21C1 JUMPI PUSH2 0x21C0 PUSH2 0x4D86 JUMP JUMPDEST JUMPDEST PUSH1 0x20 MUL ADD MLOAD PUSH0 ADD MLOAD PUSH1 0xFF AND EQ DUP1 ISZERO PUSH2 0x2214 JUMPI POP DUP1 PUSH1 0x4 PUSH1 0x5 DUP2 LT PUSH2 0x21E8 JUMPI PUSH2 0x21E7 PUSH2 0x4D86 JUMP JUMPDEST JUMPDEST PUSH1 0x20 MUL ADD MLOAD PUSH0 ADD MLOAD PUSH1 0xFF AND DUP2 PUSH1 0x3 PUSH1 0x5 DUP2 LT PUSH2 0x2207 JUMPI PUSH2 0x2206 PUSH2 0x4D86 JUMP JUMPDEST JUMPDEST PUSH1 0x20 MUL ADD MLOAD PUSH0 ADD MLOAD PUSH1 0xFF AND EQ JUMPDEST ISZERO PUSH2 0x2226 JUMPI PUSH1 0x3 DUP1 SWAP3 POP SWAP3 POP POP PUSH2 0x261D JUMP JUMPDEST DUP1 PUSH1 0x1 PUSH1 0x5 DUP2 LT PUSH2 0x223A JUMPI PUSH2 0x2239 PUSH2 0x4D86 JUMP JUMPDEST JUMPDEST PUSH1 0x20 MUL ADD MLOAD PUSH0 ADD MLOAD PUSH1 0xFF AND DUP2 PUSH0 PUSH1 0x5 DUP2 LT PUSH2 0x2258 JUMPI PUSH2 0x2257 PUSH2 0x4D86 JUMP JUMPDEST JUMPDEST PUSH1 0x20 MUL ADD MLOAD PUSH0 ADD MLOAD PUSH1 0xFF AND SUB PUSH2 0x2300 JUMPI DUP1 PUSH1 0x3 PUSH1 0x5 DUP2 LT PUSH2 0x227C JUMPI PUSH2 0x227B PUSH2 0x4D86 JUMP JUMPDEST JUMPDEST PUSH1 0x20 MUL ADD MLOAD PUSH0 ADD MLOAD PUSH1 0xFF AND DUP2 PUSH1 0x2 PUSH1 0x5 DUP2 LT PUSH2 0x229B JUMPI PUSH2 0x229A PUSH2 0x4D86 JUMP JUMPDEST JUMPDEST PUSH1 0x20 MUL ADD MLOAD PUSH0 ADD MLOAD PUSH1 0xFF AND EQ DUP1 PUSH2 0x22ED JUMPI POP DUP1 PUSH1 0x4 PUSH1 0x5 DUP2 LT PUSH2 0x22C1 JUMPI PUSH2 0x22C0 PUSH2 0x4D86 JUMP JUMPDEST JUMPDEST PUSH1 0x20 MUL ADD MLOAD PUSH0 ADD MLOAD PUSH1 0xFF AND DUP2 PUSH1 0x3 PUSH1 0x5 DUP2 LT PUSH2 0x22E0 JUMPI PUSH2 0x22DF PUSH2 0x4D86 JUMP JUMPDEST JUMPDEST PUSH1 0x20 MUL ADD MLOAD PUSH0 ADD MLOAD PUSH1 0xFF AND EQ JUMPDEST ISZERO PUSH2 0x22FF JUMPI PUSH1 0x2 DUP1 SWAP3 POP SWAP3 POP POP PUSH2 0x261D JUMP JUMPDEST JUMPDEST DUP1 PUSH1 0x2 PUSH1 0x5 DUP2 LT PUSH2 0x2314 JUMPI PUSH2 0x2313 PUSH2 0x4D86 JUMP JUMPDEST JUMPDEST PUSH1 0x20 MUL ADD MLOAD PUSH0 ADD MLOAD PUSH1 0xFF AND DUP2 PUSH1 0x1 PUSH1 0x5 DUP2 LT PUSH2 0x2333 JUMPI PUSH2 0x2332 PUSH2 0x4D86 JUMP JUMPDEST JUMPDEST PUSH1 0x20 MUL ADD MLOAD PUSH0 ADD MLOAD PUSH1 0xFF AND SUB PUSH2 0x2394 JUMPI DUP1 PUSH1 0x4 PUSH1 0x5 DUP2 LT PUSH2 0x2357 JUMPI PUSH2 0x2356 PUSH2 0x4D86 JUMP JUMPDEST JUMPDEST PUSH1 0x20 MUL ADD MLOAD PUSH0 ADD MLOAD PUSH1 0xFF AND DUP2 PUSH1 0x3 PUSH1 0x5 DUP2 LT PUSH2 0x2376 JUMPI PUSH2 0x2375 PUSH2 0x4D86 JUMP JUMPDEST JUMPDEST PUSH1 0x20 MUL ADD MLOAD PUSH0 ADD MLOAD PUSH1 0xFF AND SUB PUSH2 0x2393 JUMPI PUSH1 0x2 DUP1 SWAP3 POP SWAP3 POP POP PUSH2 0x261D JUMP JUMPDEST JUMPDEST DUP1 PUSH1 0x1 PUSH1 0x5 DUP2 LT PUSH2 0x23A8 JUMPI PUSH2 0x23A7 PUSH2 0x4D86 JUMP JUMPDEST JUMPDEST PUSH1 0x20 MUL ADD MLOAD PUSH0 ADD MLOAD PUSH1 0xFF AND DUP2 PUSH0 PUSH1 0x5 DUP2 LT PUSH2 0x23C6 JUMPI PUSH2 0x23C5 PUSH2 0x4D86 JUMP JUMPDEST JUMPDEST PUSH1 0x20 MUL ADD MLOAD PUSH0 ADD MLOAD PUSH1 0xFF AND SUB PUSH2 0x2432 JUMPI PUSH1 0xA DUP2 PUSH0 PUSH1 0x5 DUP2 LT PUSH2 0x23EB JUMPI PUSH2 0x23EA PUSH2 0x4D86 JUMP JUMPDEST JUMPDEST PUSH1 0x20 MUL ADD MLOAD PUSH0 ADD MLOAD PUSH1 0xFF AND GT DUP1 PUSH2 0x241F JUMPI POP PUSH1 0x1 DUP2 PUSH0 PUSH1 0x5 DUP2 LT PUSH2 0x2412 JUMPI PUSH2 0x2411 PUSH2 0x4D86 JUMP JUMPDEST JUMPDEST PUSH1 0x20 MUL ADD MLOAD PUSH0 ADD MLOAD PUSH1 0xFF AND EQ JUMPDEST ISZERO PUSH2 0x2431 JUMPI PUSH1 0x1 DUP1 SWAP3 POP SWAP3 POP POP PUSH2 0x261D JUMP JUMPDEST JUMPDEST DUP1 PUSH1 0x2 PUSH1 0x5 DUP2 LT PUSH2 0x2446 JUMPI PUSH2 0x2445 PUSH2 0x4D86 JUMP JUMPDEST JUMPDEST PUSH1 0x20 MUL ADD MLOAD PUSH0 ADD MLOAD PUSH1 0xFF AND DUP2 PUSH1 0x1 PUSH1 0x5 DUP2 LT PUSH2 0x2465 JUMPI PUSH2 0x2464 PUSH2 0x4D86 JUMP JUMPDEST JUMPDEST PUSH1 0x20 MUL ADD MLOAD PUSH0 ADD MLOAD PUSH1 0xFF AND SUB PUSH2 0x24D3 JUMPI PUSH1 0xA DUP2 PUSH1 0x1 PUSH1 0x5 DUP2 LT PUSH2 0x248B JUMPI PUSH2 0x248A PUSH2 0x4D86 JUMP JUMPDEST JUMPDEST PUSH1 0x20 MUL ADD MLOAD PUSH0 ADD MLOAD PUSH1 0xFF AND GT DUP1 PUSH2 0x24C0 JUMPI POP PUSH1 0x1 DUP2 PUSH1 0x1 PUSH1 0x5 DUP2 LT PUSH2 0x24B3 JUMPI PUSH2 0x24B2 PUSH2 0x4D86 JUMP JUMPDEST JUMPDEST PUSH1 0x20 MUL ADD MLOAD PUSH0 ADD MLOAD PUSH1 0xFF AND EQ JUMPDEST ISZERO PUSH2 0x24D2 JUMPI PUSH1 0x1 DUP1 SWAP3 POP SWAP3 POP POP PUSH2 0x261D JUMP JUMPDEST JUMPDEST DUP1 PUSH1 0x3 PUSH1 0x5 DUP2 LT PUSH2 0x24E7 JUMPI PUSH2 0x24E6 PUSH2 0x4D86 JUMP JUMPDEST JUMPDEST PUSH1 0x20 MUL ADD MLOAD PUSH0 ADD MLOAD PUSH1 0xFF AND DUP2 PUSH1 0x2 PUSH1 0x5 DUP2 LT PUSH2 0x2506 JUMPI PUSH2 0x2505 PUSH2 0x4D86 JUMP JUMPDEST JUMPDEST PUSH1 0x20 MUL ADD MLOAD PUSH0 ADD MLOAD PUSH1 0xFF AND SUB PUSH2 0x2574 JUMPI PUSH1 0xA DUP2 PUSH1 0x2 PUSH1 0x5 DUP2 LT PUSH2 0x252C JUMPI PUSH2 0x252B PUSH2 0x4D86 JUMP JUMPDEST JUMPDEST PUSH1 0x20 MUL ADD MLOAD PUSH0 ADD MLOAD PUSH1 0xFF AND GT DUP1 PUSH2 0x2561 JUMPI POP PUSH1 0x1 DUP2 PUSH1 0x2 PUSH1 0x5 DUP2 LT PUSH2 0x2554 JUMPI PUSH2 0x2553 PUSH2 0x4D86 JUMP JUMPDEST JUMPDEST PUSH1 0x20 MUL ADD MLOAD PUSH0 ADD MLOAD PUSH1 0xFF AND EQ JUMPDEST ISZERO PUSH2 0x2573 JUMPI PUSH1 0x1 DUP1 SWAP3 POP SWAP3 POP POP PUSH2 0x261D JUMP JUMPDEST JUMPDEST DUP1 PUSH1 0x4 PUSH1 0x5 DUP2 LT PUSH2 0x2588 JUMPI PUSH2 0x2587 PUSH2 0x4D86 JUMP JUMPDEST JUMPDEST PUSH1 0x20 MUL ADD MLOAD PUSH0 ADD MLOAD PUSH1 0xFF AND DUP2 PUSH1 0x3 PUSH1 0x5 DUP2 LT PUSH2 0x25A7 JUMPI PUSH2 0x25A6 PUSH2 0x4D86 JUMP JUMPDEST JUMPDEST PUSH1 0x20 MUL ADD MLOAD PUSH0 ADD MLOAD PUSH1 0xFF AND SUB PUSH2 0x2615 JUMPI PUSH1 0xA DUP2 PUSH1 0x3 PUSH1 0x5 DUP2 LT PUSH2 0x25CD JUMPI PUSH2 0x25CC PUSH2 0x4D86 JUMP JUMPDEST JUMPDEST PUSH1 0x20 MUL ADD MLOAD PUSH0 ADD MLOAD PUSH1 0xFF AND GT DUP1 PUSH2 0x2602 JUMPI POP PUSH1 0x1 DUP2 PUSH1 0x3 PUSH1 0x5 DUP2 LT PUSH2 0x25F5 JUMPI PUSH2 0x25F4 PUSH2 0x4D86 JUMP JUMPDEST JUMPDEST PUSH1 0x20 MUL ADD MLOAD PUSH0 ADD MLOAD PUSH1 0xFF AND EQ JUMPDEST ISZERO PUSH2 0x2614 JUMPI PUSH1 0x1 DUP1 SWAP3 POP SWAP3 POP POP PUSH2 0x261D JUMP JUMPDEST JUMPDEST PUSH0 DUP1 SWAP3 POP SWAP3 POP POP JUMPDEST SWAP2 POP SWAP2 JUMP JUMPDEST PUSH2 0x262A PUSH2 0x3FBA JUMP JUMPDEST PUSH1 0x8 PUSH0 DUP4 PUSH20 0xFFFFFFFFFFFFFFFFFFFFFFFFFFFFFFFFFFFFFFFF AND PUSH20 0xFFFFFFFFFFFFFFFFFFFFFFFFFFFFFFFFFFFFFFFF AND DUP2 MSTORE PUSH1 0x20 ADD SWAP1 DUP2 MSTORE PUSH1 0x20 ADD PUSH0 KECCAK256 PUSH1 0x40 MLOAD DUP1 PUSH2 0x100 ADD PUSH1 0x40 MSTORE SWAP1 DUP2 PUSH0 DUP3 ADD SLOAD DUP2 MSTORE PUSH1 0x20 ADD PUSH1 0x1 DUP3 ADD SLOAD DUP2 MSTORE PUSH1 0x20 ADD PUSH1 0x2 DUP3 ADD PUSH0 SWAP1 SLOAD SWAP1 PUSH2 0x100 EXP SWAP1 DIV PUSH20 0xFFFFFFFFFFFFFFFFFFFFFFFFFFFFFFFFFFFFFFFF AND PUSH20 0xFFFFFFFFFFFFFFFFFFFFFFFFFFFFFFFFFFFFFFFF AND PUSH20 0xFFFFFFFFFFFFFFFFFFFFFFFFFFFFFFFFFFFFFFFF AND DUP2 MSTORE PUSH1 0x20 ADD PUSH1 0x2 DUP3 ADD PUSH1 0x14 SWAP1 SLOAD SWAP1 PUSH2 0x100 EXP SWAP1 DIV PUSH8 0xFFFFFFFFFFFFFFFF AND PUSH8 0xFFFFFFFFFFFFFFFF AND PUSH8 0xFFFFFFFFFFFFFFFF AND DUP2 MSTORE PUSH1 0x20 ADD PUSH1 0x3 DUP3 ADD PUSH1 0x5 DUP1 PUSH1 0x20 MUL PUSH1 0x40 MLOAD SWAP1 DUP2 ADD PUSH1 0x40 MSTORE DUP1 SWAP3 SWAP2 SWAP1 PUSH0 SWAP1 JUMPDEST DUP3 DUP3 LT ISZERO PUSH2 0x2784 JUMPI DUP4 DUP3 ADD PUSH1 0x40 MLOAD DUP1 PUSH1 0x40 ADD PUSH1 0x40 MSTORE SWAP1 DUP2 PUSH0 DUP3 ADD PUSH0 SWAP1 SLOAD SWAP1 PUSH2 0x100 EXP SWAP1 DIV PUSH1 0xFF AND PUSH1 0xFF AND PUSH1 0xFF AND DUP2 MSTORE PUSH1 0x20 ADD PUSH0 DUP3 ADD PUSH1 0x1 SWAP1 SLOAD SWAP1 PUSH2 0x100 EXP SWAP1 DIV PUSH1 0xFF AND PUSH1 0xFF AND PUSH1 0xFF AND DUP2 MSTORE POP POP DUP2 MSTORE PUSH1 0x20 ADD SWAP1 PUSH1 0x1 ADD SWAP1 PUSH2 0x2728 JUMP JUMPDEST POP POP POP POP DUP2 MSTORE PUSH1 0x20 ADD PUSH1 0x8 DUP3 ADD PUSH1 0x5 DUP1 PUSH1 0x20 MUL PUSH1 0x40 MLOAD SWAP1 DUP2 ADD PUSH1 0x40 MSTORE DUP1 SWAP3 SWAP2 SWAP1 DUP3 PUSH1 0x5 DUP1 ISZERO PUSH2 0x27EB JUMPI PUSH1 0x20 MUL DUP3 ADD SWAP2 PUSH0 SWAP1 JUMPDEST DUP3 DUP3 SWAP1 SLOAD SWAP1 PUSH2 0x100 EXP SWAP1 DIV PUSH1 0xFF AND ISZERO ISZERO DUP2 MSTORE PUSH1 0x20 ADD SWAP1 PUSH1 0x1 ADD SWAP1 PUSH1 0x20 DUP3 PUSH0 ADD DIV SWAP3 DUP4 ADD SWAP3 PUSH1 0x1 SUB DUP3 MUL SWAP2 POP DUP1 DUP5 GT PUSH2 0x27B6 JUMPI SWAP1 POP JUMPDEST POP POP POP POP POP DUP2 MSTORE PUSH1 0x20 ADD PUSH1 0x9 DUP3 ADD PUSH0 SWAP1 SLOAD SWAP1 PUSH2 0x100 EXP SWAP1 DIV PUSH1 0xFF AND ISZERO ISZERO ISZERO ISZERO DUP2 MSTORE PUSH1 0x20 ADD PUSH1 0x9 DUP3 ADD PUSH1 0x1 SWAP1 SLOAD SWAP1 PUSH2 0x100 EXP SWAP1 DIV PUSH1 0xFF AND ISZERO ISZERO ISZERO ISZERO DUP2 MSTORE POP POP SWAP1 POP SWAP2 SWAP1 POP JUMP JUMPDEST PUSH0 PUSH1 0x9 PUSH0 DUP5 DUP2 MSTORE PUSH1 0x20 ADD SWAP1 DUP2 MSTORE PUSH1 0x20 ADD PUSH0 KECCAK256 PUSH0 SWAP1 SLOAD SWAP1 PUSH2 0x100 EXP SWAP1 DIV PUSH20 0xFFFFFFFFFFFFFFFFFFFFFFFFFFFFFFFFFFFFFFFF AND SWAP1 POP PUSH0 PUSH20 0xFFFFFFFFFFFFFFFFFFFFFFFFFFFFFFFFFFFFFFFF AND DUP2 PUSH20 0xFFFFFFFFFFFFFFFFFFFFFFFFFFFFFFFFFFFFFFFF AND SUB PUSH2 0x289B JUMPI PUSH0 DUP1 REVERT JUMPDEST PUSH1 0x9 PUSH0 DUP5 DUP2 MSTORE PUSH1 0x20 ADD SWAP1 DUP2 MSTORE PUSH1 0x20 ADD PUSH0 KECCAK256 PUSH0 PUSH2 0x100 EXP DUP2 SLOAD SWAP1 PUSH20 0xFFFFFFFFFFFFFFFFFFFFFFFFFFFFFFFFFFFFFFFF MUL NOT AND SWAP1 SSTORE PUSH0 PUSH1 0x8 PUSH0 DUP4 PUSH20 0xFFFFFFFFFFFFFFFFFFFFFFFFFFFFFFFFFFFFFFFF AND PUSH20 0xFFFFFFFFFFFFFFFFFFFFFFFFFFFFFFFFFFFFFFFF AND DUP2 MSTORE PUSH1 0x20 ADD SWAP1 DUP2 MSTORE PUSH1 0x20 ADD PUSH0 KECCAK256 SWAP1 POP PUSH2 0x3E8 DUP2 PUSH1 0x2 ADD PUSH1 0x14 SWAP1 SLOAD SWAP1 PUSH2 0x100 EXP SWAP1 DIV PUSH8 0xFFFFFFFFFFFFFFFF AND PUSH2 0x2934 SWAP2 SWAP1 PUSH2 0x4FAB JUMP JUMPDEST PUSH8 0xFFFFFFFFFFFFFFFF AND NUMBER GT ISZERO PUSH2 0x2949 JUMPI PUSH0 DUP1 REVERT JUMPDEST DUP1 PUSH1 0x9 ADD PUSH1 0x1 SWAP1 SLOAD SWAP1 PUSH2 0x100 EXP SWAP1 DIV PUSH1 0xFF AND ISZERO PUSH2 0x2AB2 JUMPI PUSH0 PUSH1 0x7 DUP1 SLOAD DUP1 PUSH1 0x20 MUL PUSH1 0x20 ADD PUSH1 0x40 MLOAD SWAP1 DUP2 ADD PUSH1 0x40 MSTORE DUP1 SWAP3 SWAP2 SWAP1 DUP2 DUP2 MSTORE PUSH1 0x20 ADD PUSH0 SWAP1 JUMPDEST DUP3 DUP3 LT ISZERO PUSH2 0x29E5 JUMPI DUP4 DUP3 SWAP1 PUSH0 MSTORE PUSH1 0x20 PUSH0 KECCAK256 ADD PUSH1 0x40 MLOAD DUP1 PUSH1 0x40 ADD PUSH1 0x40 MSTORE SWAP1 DUP2 PUSH0 DUP3 ADD PUSH0 SWAP1 SLOAD SWAP1 PUSH2 0x100 EXP SWAP1 DIV PUSH1 0xFF AND PUSH1 0xFF AND PUSH1 0xFF AND DUP2 MSTORE PUSH1 0x20 ADD PUSH0 DUP3 ADD PUSH1 0x1 SWAP1 SLOAD SWAP1 PUSH2 0x100 EXP SWAP1 DIV PUSH1 0xFF AND PUSH1 0xFF AND PUSH1 0xFF AND DUP2 MSTORE POP POP DUP2 MSTORE PUSH1 0x20 ADD SWAP1 PUSH1 0x1 ADD SWAP1 PUSH2 0x2982 JUMP JUMPDEST POP POP POP POP SWAP1 POP PUSH0 JUMPDEST PUSH1 0x5 DUP2 PUSH1 0xFF AND LT ISZERO PUSH2 0x2A35 JUMPI PUSH2 0x2A22 DUP2 DUP7 DUP4 PUSH1 0xFF AND DUP2 MLOAD DUP2 LT PUSH2 0x2A13 JUMPI PUSH2 0x2A12 PUSH2 0x4D86 JUMP JUMPDEST JUMPDEST PUSH1 0x20 MUL PUSH1 0x20 ADD ADD MLOAD DUP7 DUP6 PUSH2 0x3842 JUMP JUMPDEST DUP1 DUP1 PUSH2 0x2A2D SWAP1 PUSH2 0x4E08 JUMP JUMPDEST SWAP2 POP POP PUSH2 0x29ED JUMP JUMPDEST POP PUSH0 DUP3 PUSH1 0x1 ADD DUP2 SWAP1 SSTORE POP PUSH0 DUP3 PUSH1 0x9 ADD PUSH1 0x1 PUSH2 0x100 EXP DUP2 SLOAD DUP2 PUSH1 0xFF MUL NOT AND SWAP1 DUP4 ISZERO ISZERO MUL OR SWAP1 SSTORE POP DUP3 PUSH20 0xFFFFFFFFFFFFFFFFFFFFFFFFFFFFFFFFFFFFFFFF AND PUSH32 0xC3B36130C75D38724A3591FD74CFE9738BF5234994A2BEBE0D81EC71E012282A DUP4 PUSH1 0x3 ADD PUSH1 0x40 MLOAD PUSH2 0x2AA4 SWAP2 SWAP1 PUSH2 0x5098 JUMP JUMPDEST PUSH1 0x40 MLOAD DUP1 SWAP2 SUB SWAP1 LOG2 POP PUSH2 0x2F08 JUMP JUMPDEST PUSH0 PUSH1 0x7 DUP1 SLOAD DUP1 PUSH1 0x20 MUL PUSH1 0x20 ADD PUSH1 0x40 MLOAD SWAP1 DUP2 ADD PUSH1 0x40 MSTORE DUP1 SWAP3 SWAP2 SWAP1 DUP2 DUP2 MSTORE PUSH1 0x20 ADD PUSH0 SWAP1 JUMPDEST DUP3 DUP3 LT ISZERO PUSH2 0x2B37 JUMPI DUP4 DUP3 SWAP1 PUSH0 MSTORE PUSH1 0x20 PUSH0 KECCAK256 ADD PUSH1 0x40 MLOAD DUP1 PUSH1 0x40 ADD PUSH1 0x40 MSTORE SWAP1 DUP2 PUSH0 DUP3 ADD PUSH0 SWAP1 SLOAD SWAP1 PUSH2 0x100 EXP SWAP1 DIV PUSH1 0xFF AND PUSH1 0xFF AND PUSH1 0xFF AND DUP2 MSTORE PUSH1 0x20 ADD PUSH0 DUP3 ADD PUSH1 0x1 SWAP1 SLOAD SWAP1 PUSH2 0x100 EXP SWAP1 DIV PUSH1 0xFF AND PUSH1 0xFF AND PUSH1 0xFF AND DUP2 MSTORE POP POP DUP2 MSTORE PUSH1 0x20 ADD SWAP1 PUSH1 0x1 ADD SWAP1 PUSH2 0x2AD4 JUMP JUMPDEST POP POP POP POP SWAP1 POP PUSH0 JUMPDEST PUSH1 0x5 DUP2 LT ISZERO PUSH2 0x2C71 JUMPI PUSH0 JUMPDEST PUSH1 0x34 DUP2 LT ISZERO PUSH2 0x2C5D JUMPI DUP3 DUP2 DUP2 MLOAD DUP2 LT PUSH2 0x2B66 JUMPI PUSH2 0x2B65 PUSH2 0x4D86 JUMP JUMPDEST JUMPDEST PUSH1 0x20 MUL PUSH1 0x20 ADD ADD MLOAD PUSH0 ADD MLOAD PUSH1 0xFF AND DUP5 PUSH1 0x3 ADD DUP4 PUSH1 0x5 DUP2 LT PUSH2 0x2B8A JUMPI PUSH2 0x2B89 PUSH2 0x4D86 JUMP JUMPDEST JUMPDEST ADD PUSH0 ADD PUSH0 SWAP1 SLOAD SWAP1 PUSH2 0x100 EXP SWAP1 DIV PUSH1 0xFF AND PUSH1 0xFF AND EQ DUP1 ISZERO PUSH2 0x2BF3 JUMPI POP DUP3 DUP2 DUP2 MLOAD DUP2 LT PUSH2 0x2BB8 JUMPI PUSH2 0x2BB7 PUSH2 0x4D86 JUMP JUMPDEST JUMPDEST PUSH1 0x20 MUL PUSH1 0x20 ADD ADD MLOAD PUSH1 0x20 ADD MLOAD PUSH1 0xFF AND DUP5 PUSH1 0x3 ADD DUP4 PUSH1 0x5 DUP2 LT PUSH2 0x2BDD JUMPI PUSH2 0x2BDC PUSH2 0x4D86 JUMP JUMPDEST JUMPDEST ADD PUSH0 ADD PUSH1 0x1 SWAP1 SLOAD SWAP1 PUSH2 0x100 EXP SWAP1 DIV PUSH1 0xFF AND PUSH1 0xFF AND EQ JUMPDEST ISZERO PUSH2 0x2C4A JUMPI DUP3 PUSH1 0x1 DUP5 MLOAD PUSH2 0x2C07 SWAP2 SWAP1 PUSH2 0x50B2 JUMP JUMPDEST DUP2 MLOAD DUP2 LT PUSH2 0x2C18 JUMPI PUSH2 0x2C17 PUSH2 0x4D86 JUMP JUMPDEST JUMPDEST PUSH1 0x20 MUL PUSH1 0x20 ADD ADD MLOAD DUP4 DUP3 DUP2 MLOAD DUP2 LT PUSH2 0x2C33 JUMPI PUSH2 0x2C32 PUSH2 0x4D86 JUMP JUMPDEST JUMPDEST PUSH1 0x20 MUL PUSH1 0x20 ADD ADD DUP2 SWAP1 MSTORE POP PUSH1 0x1 DUP4 MLOAD SUB DUP4 MSTORE PUSH2 0x2C5D JUMP JUMPDEST DUP1 DUP1 PUSH2 0x2C55 SWAP1 PUSH2 0x50E5 JUMP JUMPDEST SWAP2 POP POP PUSH2 0x2B4A JUMP JUMPDEST POP DUP1 DUP1 PUSH2 0x2C69 SWAP1 PUSH2 0x50E5 JUMP JUMPDEST SWAP2 POP POP PUSH2 0x2B3F JUMP JUMPDEST POP PUSH0 JUMPDEST PUSH1 0x5 DUP2 PUSH1 0xFF AND LT ISZERO PUSH2 0x2CF1 JUMPI DUP3 PUSH1 0x8 ADD DUP2 PUSH1 0xFF AND PUSH1 0x5 DUP2 LT PUSH2 0x2C99 JUMPI PUSH2 0x2C98 PUSH2 0x4D86 JUMP JUMPDEST JUMPDEST PUSH1 0x20 SWAP2 DUP3 DUP3 DIV ADD SWAP2 SWAP1 MOD SWAP1 SLOAD SWAP1 PUSH2 0x100 EXP SWAP1 DIV PUSH1 0xFF AND ISZERO PUSH2 0x2CDE JUMPI PUSH2 0x2CDD DUP2 DUP7 DUP4 PUSH1 0xFF AND DUP2 MLOAD DUP2 LT PUSH2 0x2CCE JUMPI PUSH2 0x2CCD PUSH2 0x4D86 JUMP JUMPDEST JUMPDEST PUSH1 0x20 MUL PUSH1 0x20 ADD ADD MLOAD DUP7 DUP6 PUSH2 0x3842 JUMP JUMPDEST JUMPDEST DUP1 DUP1 PUSH2 0x2CE9 SWAP1 PUSH2 0x4E08 JUMP JUMPDEST SWAP2 POP POP PUSH2 0x2C74 JUMP JUMPDEST POP PUSH0 DUP3 PUSH0 ADD SLOAD SWAP1 POP PUSH0 DUP4 PUSH1 0x2 ADD PUSH0 SWAP1 SLOAD SWAP1 PUSH2 0x100 EXP SWAP1 DIV PUSH20 0xFFFFFFFFFFFFFFFFFFFFFFFFFFFFFFFFFFFFFFFF AND SWAP1 POP PUSH0 DUP1 PUSH2 0x2DA4 DUP7 PUSH1 0x3 ADD PUSH1 0x5 DUP1 PUSH1 0x20 MUL PUSH1 0x40 MLOAD SWAP1 DUP2 ADD PUSH1 0x40 MSTORE DUP1 SWAP3 SWAP2 SWAP1 PUSH0 SWAP1 JUMPDEST DUP3 DUP3 LT ISZERO PUSH2 0x2D9B JUMPI DUP4 DUP3 ADD PUSH1 0x40 MLOAD DUP1 PUSH1 0x40 ADD PUSH1 0x40 MSTORE SWAP1 DUP2 PUSH0 DUP3 ADD PUSH0 SWAP1 SLOAD SWAP1 PUSH2 0x100 EXP SWAP1 DIV PUSH1 0xFF AND PUSH1 0xFF AND PUSH1 0xFF AND DUP2 MSTORE PUSH1 0x20 ADD PUSH0 DUP3 ADD PUSH1 0x1 SWAP1 SLOAD SWAP1 PUSH2 0x100 EXP SWAP1 DIV PUSH1 0xFF AND PUSH1 0xFF AND PUSH1 0xFF AND DUP2 MSTORE POP POP DUP2 MSTORE PUSH1 0x20 ADD SWAP1 PUSH1 0x1 ADD SWAP1 PUSH2 0x2D3F JUMP JUMPDEST POP POP POP POP PUSH2 0x143A JUMP JUMPDEST SWAP2 POP SWAP2 POP DUP7 PUSH20 0xFFFFFFFFFFFFFFFFFFFFFFFFFFFFFFFFFFFFFFFF AND PUSH32 0xB73B6B634AEA9965E3C60D60AC8D2380100C337B6D66167D297351746F4F1AC9 DUP6 DUP5 DUP8 PUSH2 0x2DED SWAP2 SWAP1 PUSH2 0x4CB5 JUMP JUMPDEST DUP7 DUP11 PUSH1 0x3 ADD DUP7 PUSH1 0x40 MLOAD PUSH2 0x2E04 SWAP6 SWAP5 SWAP4 SWAP3 SWAP2 SWAP1 PUSH2 0x4F58 JUMP JUMPDEST PUSH1 0x40 MLOAD DUP1 SWAP2 SUB SWAP1 LOG2 PUSH2 0x2E19 DUP4 DUP8 PUSH0 ADD SLOAD PUSH2 0x35C1 JUMP JUMPDEST PUSH1 0x8 PUSH0 DUP9 PUSH20 0xFFFFFFFFFFFFFFFFFFFFFFFFFFFFFFFFFFFFFFFF AND PUSH20 0xFFFFFFFFFFFFFFFFFFFFFFFFFFFFFFFFFFFFFFFF AND DUP2 MSTORE PUSH1 0x20 ADD SWAP1 DUP2 MSTORE PUSH1 0x20 ADD PUSH0 KECCAK256 PUSH0 DUP1 DUP3 ADD PUSH0 SWAP1 SSTORE PUSH1 0x1 DUP3 ADD PUSH0 SWAP1 SSTORE PUSH1 0x2 DUP3 ADD PUSH0 PUSH2 0x100 EXP DUP2 SLOAD SWAP1 PUSH20 0xFFFFFFFFFFFFFFFFFFFFFFFFFFFFFFFFFFFFFFFF MUL NOT AND SWAP1 SSTORE PUSH1 0x2 DUP3 ADD PUSH1 0x14 PUSH2 0x100 EXP DUP2 SLOAD SWAP1 PUSH8 0xFFFFFFFFFFFFFFFF MUL NOT AND SWAP1 SSTORE PUSH1 0x3 DUP3 ADD PUSH0 PUSH2 0x2EB4 SWAP2 SWAP1 PUSH2 0x3FA1 JUMP JUMPDEST PUSH1 0x8 DUP3 ADD PUSH0 PUSH2 0x2EC3 SWAP2 SWAP1 PUSH2 0x3FB4 JUMP JUMPDEST PUSH1 0x9 DUP3 ADD PUSH0 PUSH2 0x100 EXP DUP2 SLOAD SWAP1 PUSH1 0xFF MUL NOT AND SWAP1 SSTORE PUSH1 0x9 DUP3 ADD PUSH1 0x1 PUSH2 0x100 EXP DUP2 SLOAD SWAP1 PUSH1 0xFF MUL NOT AND SWAP1 SSTORE POP POP PUSH2 0x2F02 DUP8 DUP4 DUP7 PUSH2 0x2EFC SWAP2 SWAP1 PUSH2 0x4CB5 JUMP JUMPDEST DUP6 PUSH2 0x370B JUMP JUMPDEST POP POP POP POP POP JUMPDEST POP POP POP POP JUMP JUMPDEST PUSH1 0x2 PUSH0 SLOAD SUB PUSH2 0x2F52 JUMPI PUSH1 0x40 MLOAD PUSH32 0x8C379A000000000000000000000000000000000000000000000000000000000 DUP2 MSTORE PUSH1 0x4 ADD PUSH2 0x2F49 SWAP1 PUSH2 0x5186 JUMP JUMPDEST PUSH1 0x40 MLOAD DUP1 SWAP2 SUB SWAP1 REVERT JUMPDEST PUSH1 0x2 PUSH0 DUP2 SWAP1 SSTORE POP JUMP JUMPDEST PUSH1 0x1 PUSH0 DUP2 SWAP1 SSTORE POP JUMP JUMPDEST PUSH0 PUSH1 0x14 PUSH0 CALLDATASIZE SWAP1 POP LT ISZERO DUP1 ISZERO PUSH2 0x2F7E JUMPI POP PUSH2 0x2F7D CALLER PUSH2 0x482 JUMP JUMPDEST JUMPDEST ISZERO PUSH2 0x2F92 JUMPI PUSH1 0x14 CALLDATASIZE SUB CALLDATALOAD PUSH1 0x60 SHR SWAP1 POP PUSH2 0x2F96 JUMP JUMPDEST CALLER SWAP1 POP JUMPDEST SWAP1 JUMP JUMPDEST PUSH0 DUP1 PUSH20 0xFFFFFFFFFFFFFFFFFFFFFFFFFFFFFFFFFFFFFFFF AND DUP3 PUSH20 0xFFFFFFFFFFFFFFFFFFFFFFFFFFFFFFFFFFFFFFFF AND SUB PUSH2 0x300D JUMPI PUSH1 0x6 PUSH0 SWAP1 SLOAD SWAP1 PUSH2 0x100 EXP SWAP1 DIV PUSH20 0xFFFFFFFFFFFFFFFFFFFFFFFFFFFFFFFFFFFFFFFF AND PUSH20 0xFFFFFFFFFFFFFFFFFFFFFFFFFFFFFFFFFFFFFFFF AND BALANCE SWAP1 POP PUSH2 0x30A9 JUMP JUMPDEST DUP2 PUSH20 0xFFFFFFFFFFFFFFFFFFFFFFFFFFFFFFFFFFFFFFFF AND PUSH4 0x70A08231 PUSH1 0x6 PUSH0 SWAP1 SLOAD SWAP1 PUSH2 0x100 EXP SWAP1 DIV PUSH20 0xFFFFFFFFFFFFFFFFFFFFFFFFFFFFFFFFFFFFFFFF AND PUSH1 0x40 MLOAD DUP3 PUSH4 0xFFFFFFFF AND PUSH1 0xE0 SHL DUP2 MSTORE PUSH1 0x4 ADD PUSH2 0x3067 SWAP2 SWAP1 PUSH2 0x438E JUMP JUMPDEST PUSH1 0x20 PUSH1 0x40 MLOAD DUP1 DUP4 SUB DUP2 DUP7 GAS STATICCALL ISZERO DUP1 ISZERO PUSH2 0x3082 JUMPI RETURNDATASIZE PUSH0 DUP1 RETURNDATACOPY RETURNDATASIZE PUSH0 REVERT JUMPDEST POP POP POP POP PUSH1 0x40 MLOAD RETURNDATASIZE PUSH1 0x1F NOT PUSH1 0x1F DUP3 ADD AND DUP3 ADD DUP1 PUSH1 0x40 MSTORE POP DUP2 ADD SWAP1 PUSH2 0x30A6 SWAP2 SWAP1 PUSH2 0x51A4 JUMP JUMPDEST SWAP1 POP JUMPDEST PUSH0 PUSH4 0x5F5E100 PUSH3 0x20B31 DUP4 PUSH2 0x30BE SWAP2 SWAP1 PUSH2 0x4CB5 JUMP JUMPDEST PUSH2 0x30C8 SWAP2 SWAP1 PUSH2 0x4D23 JUMP JUMPDEST SWAP1 POP DUP1 DUP5 GT ISZERO PUSH2 0x3111 JUMPI DUP4 DUP2 PUSH1 0x40 MLOAD PUSH32 0xD53662AA00000000000000000000000000000000000000000000000000000000 DUP2 MSTORE PUSH1 0x4 ADD PUSH2 0x3108 SWAP3 SWAP2 SWAP1 PUSH2 0x46DF JUMP JUMPDEST PUSH1 0x40 MLOAD DUP1 SWAP2 SUB SWAP1 REVERT JUMPDEST POP POP POP POP JUMP JUMPDEST PUSH0 PUSH1 0x6 PUSH0 SWAP1 SLOAD SWAP1 PUSH2 0x100 EXP SWAP1 DIV PUSH20 0xFFFFFFFFFFFFFFFFFFFFFFFFFFFFFFFFFFFFFFFF AND PUSH20 0xFFFFFFFFFFFFFFFFFFFFFFFFFFFFFFFFFFFFFFFF AND PUSH4 0xBFD7F9CC ADDRESS DUP8 PUSH1 0x40 MLOAD DUP4 PUSH4 0xFFFFFFFF AND PUSH1 0xE0 SHL DUP2 MSTORE PUSH1 0x4 ADD PUSH2 0x3174 SWAP3 SWAP2 SWAP1 PUSH2 0x497A JUMP JUMPDEST PUSH1 0x20 PUSH1 0x40 MLOAD DUP1 DUP4 SUB DUP2 DUP7 GAS STATICCALL ISZERO DUP1 ISZERO PUSH2 0x318F JUMPI RETURNDATASIZE PUSH0 DUP1 RETURNDATACOPY RETURNDATASIZE PUSH0 REVERT JUMPDEST POP POP POP POP PUSH1 0x40 MLOAD RETURNDATASIZE PUSH1 0x1F NOT PUSH1 0x1F DUP3 ADD AND DUP3 ADD DUP1 PUSH1 0x40 MSTORE POP DUP2 ADD SWAP1 PUSH2 0x31B3 SWAP2 SWAP1 PUSH2 0x51E3 JUMP JUMPDEST PUSH2 0x31E9 JUMPI PUSH1 0x40 MLOAD PUSH32 0x51C3B94F00000000000000000000000000000000000000000000000000000000 DUP2 MSTORE PUSH1 0x4 ADD PUSH1 0x40 MLOAD DUP1 SWAP2 SUB SWAP1 REVERT JUMPDEST PUSH0 DUP5 SUB PUSH2 0x3222 JUMPI PUSH1 0x40 MLOAD PUSH32 0x7375C8400000000000000000000000000000000000000000000000000000000 DUP2 MSTORE PUSH1 0x4 ADD PUSH1 0x40 MLOAD DUP1 SWAP2 SUB SWAP1 REVERT JUMPDEST PUSH0 DUP1 PUSH1 0x6 PUSH0 SWAP1 SLOAD SWAP1 PUSH2 0x100 EXP SWAP1 DIV PUSH20 0xFFFFFFFFFFFFFFFFFFFFFFFFFFFFFFFFFFFFFFFF AND PUSH20 0xFFFFFFFFFFFFFFFFFFFFFFFFFFFFFFFFFFFFFFFF AND PUSH4 0xA5748A8 DUP6 PUSH1 0x40 MLOAD DUP3 PUSH4 0xFFFFFFFF AND PUSH1 0xE0 SHL DUP2 MSTORE PUSH1 0x4 ADD PUSH2 0x327E SWAP2 SWAP1 PUSH2 0x438E JUMP JUMPDEST PUSH1 0x40 DUP1 MLOAD DUP1 DUP4 SUB DUP2 DUP7 GAS STATICCALL ISZERO DUP1 ISZERO PUSH2 0x3298 JUMPI RETURNDATASIZE PUSH0 DUP1 RETURNDATACOPY RETURNDATASIZE PUSH0 REVERT JUMPDEST POP POP POP POP PUSH1 0x40 MLOAD RETURNDATASIZE PUSH1 0x1F NOT PUSH1 0x1F DUP3 ADD AND DUP3 ADD DUP1 PUSH1 0x40 MSTORE POP DUP2 ADD SWAP1 PUSH2 0x32BC SWAP2 SWAP1 PUSH2 0x520E JUMP JUMPDEST SWAP2 POP SWAP2 POP DUP2 ISZERO PUSH2 0x3303 JUMPI DUP1 PUSH1 0x40 MLOAD PUSH32 0x6C2775F500000000000000000000000000000000000000000000000000000000 DUP2 MSTORE PUSH1 0x4 ADD PUSH2 0x32FA SWAP2 SWAP1 PUSH2 0x44A7 JUMP JUMPDEST PUSH1 0x40 MLOAD DUP1 SWAP2 SUB SWAP1 REVERT JUMPDEST PUSH2 0x330C DUP6 PUSH2 0x99F JUMP JUMPDEST SWAP3 POP PUSH0 PUSH20 0xFFFFFFFFFFFFFFFFFFFFFFFFFFFFFFFFFFFFFFFF AND DUP8 PUSH20 0xFFFFFFFFFFFFFFFFFFFFFFFFFFFFFFFFFFFFFFFF AND SUB PUSH2 0x33C2 JUMPI DUP3 DUP7 PUSH2 0x334D SWAP2 SWAP1 PUSH2 0x4D53 JUMP JUMPDEST CALLVALUE LT ISZERO PUSH2 0x339E JUMPI DUP3 DUP7 PUSH2 0x3360 SWAP2 SWAP1 PUSH2 0x4D53 JUMP JUMPDEST CALLVALUE PUSH1 0x40 MLOAD PUSH32 0xDE9B74A100000000000000000000000000000000000000000000000000000000 DUP2 MSTORE PUSH1 0x4 ADD PUSH2 0x3395 SWAP3 SWAP2 SWAP1 PUSH2 0x46DF JUMP JUMPDEST PUSH1 0x40 MLOAD DUP1 SWAP2 SUB SWAP1 REVERT JUMPDEST PUSH2 0x33BD DUP7 DUP5 PUSH2 0x33AD SWAP2 SWAP1 PUSH2 0x4D53 JUMP JUMPDEST CALLVALUE PUSH2 0x33B8 SWAP2 SWAP1 PUSH2 0x50B2 JUMP JUMPDEST PUSH2 0x3915 JUMP JUMPDEST PUSH2 0x344B JUMP JUMPDEST DUP3 CALLVALUE LT ISZERO PUSH2 0x3409 JUMPI DUP3 CALLVALUE PUSH1 0x40 MLOAD PUSH32 0xDE9B74A100000000000000000000000000000000000000000000000000000000 DUP2 MSTORE PUSH1 0x4 ADD PUSH2 0x3400 SWAP3 SWAP2 SWAP1 PUSH2 0x46DF JUMP JUMPDEST PUSH1 0x40 MLOAD DUP1 SWAP2 SUB SWAP1 REVERT JUMPDEST PUSH2 0x3436 DUP5 ADDRESS DUP9 DUP11 PUSH20 0xFFFFFFFFFFFFFFFFFFFFFFFFFFFFFFFFFFFFFFFF AND PUSH2 0x39C1 SWAP1 SWAP4 SWAP3 SWAP2 SWAP1 PUSH4 0xFFFFFFFF AND JUMP JUMPDEST PUSH2 0x344A DUP4 CALLVALUE PUSH2 0x3445 SWAP2 SWAP1 PUSH2 0x50B2 JUMP JUMPDEST PUSH2 0x3915 JUMP JUMPDEST JUMPDEST DUP3 PUSH1 0x1 PUSH0 DUP3 DUP3 SLOAD PUSH2 0x345C SWAP2 SWAP1 PUSH2 0x4D53 JUMP JUMPDEST SWAP3 POP POP DUP2 SWAP1 SSTORE POP POP POP SWAP5 SWAP4 POP POP POP POP JUMP JUMPDEST PUSH0 PUSH1 0x2 PUSH0 SWAP1 SLOAD SWAP1 PUSH2 0x100 EXP SWAP1 DIV PUSH20 0xFFFFFFFFFFFFFFFFFFFFFFFFFFFFFFFFFFFFFFFF AND PUSH20 0xFFFFFFFFFFFFFFFFFFFFFFFFFFFFFFFFFFFFFFFF AND PUSH4 0x5D3B1D30 PUSH32 0xD729DC84E21AE57FFB6BE0053BF2B0668AA2AAF300A2A7B2DDF7DC0BB6E875A8 PUSH2 0x240 PUSH1 0x3 PUSH3 0x2625A0 DUP8 PUSH1 0x40 MLOAD DUP7 PUSH4 0xFFFFFFFF AND PUSH1 0xE0 SHL DUP2 MSTORE PUSH1 0x4 ADD PUSH2 0x34F6 SWAP6 SWAP5 SWAP4 SWAP3 SWAP2 SWAP1 PUSH2 0x5360 JUMP JUMPDEST PUSH1 0x20 PUSH1 0x40 MLOAD DUP1 DUP4 SUB DUP2 PUSH0 DUP8 GAS CALL ISZERO DUP1 ISZERO PUSH2 0x3512 JUMPI RETURNDATASIZE PUSH0 DUP1 RETURNDATACOPY RETURNDATASIZE PUSH0 REVERT JUMPDEST POP POP POP POP PUSH1 0x40 MLOAD RETURNDATASIZE PUSH1 0x1F NOT PUSH1 0x1F DUP3 ADD AND DUP3 ADD DUP1 PUSH1 0x40 MSTORE POP DUP2 ADD SWAP1 PUSH2 0x3536 SWAP2 SWAP1 PUSH2 0x51A4 JUMP JUMPDEST SWAP1 POP SWAP2 SWAP1 POP JUMP JUMPDEST PUSH0 PUSH2 0x3547 DUP3 PUSH2 0x99F JUMP JUMPDEST SWAP1 POP DUP1 CALLVALUE LT ISZERO PUSH2 0x3590 JUMPI DUP1 CALLVALUE PUSH1 0x40 MLOAD PUSH32 0xDE9B74A100000000000000000000000000000000000000000000000000000000 DUP2 MSTORE PUSH1 0x4 ADD PUSH2 0x3587 SWAP3 SWAP2 SWAP1 PUSH2 0x46DF JUMP JUMPDEST PUSH1 0x40 MLOAD DUP1 SWAP2 SUB SWAP1 REVERT JUMPDEST PUSH2 0x35A4 DUP2 CALLVALUE PUSH2 0x359F SWAP2 SWAP1 PUSH2 0x50B2 JUMP JUMPDEST PUSH2 0x3915 JUMP JUMPDEST DUP1 PUSH1 0x1 PUSH0 DUP3 DUP3 SLOAD PUSH2 0x35B5 SWAP2 SWAP1 PUSH2 0x4D53 JUMP JUMPDEST SWAP3 POP POP DUP2 SWAP1 SSTORE POP SWAP2 SWAP1 POP JUMP JUMPDEST PUSH0 PUSH20 0xFFFFFFFFFFFFFFFFFFFFFFFFFFFFFFFFFFFFFFFF AND DUP3 PUSH20 0xFFFFFFFFFFFFFFFFFFFFFFFFFFFFFFFFFFFFFFFF AND SUB PUSH2 0x36BA JUMPI PUSH0 PUSH1 0x6 PUSH0 SWAP1 SLOAD SWAP1 PUSH2 0x100 EXP SWAP1 DIV PUSH20 0xFFFFFFFFFFFFFFFFFFFFFFFFFFFFFFFFFFFFFFFF AND PUSH20 0xFFFFFFFFFFFFFFFFFFFFFFFFFFFFFFFFFFFFFFFF AND DUP3 PUSH1 0x40 MLOAD PUSH2 0x363A SWAP1 PUSH2 0x4A0D JUMP JUMPDEST PUSH0 PUSH1 0x40 MLOAD DUP1 DUP4 SUB DUP2 DUP6 DUP8 GAS CALL SWAP3 POP POP POP RETURNDATASIZE DUP1 PUSH0 DUP2 EQ PUSH2 0x3674 JUMPI PUSH1 0x40 MLOAD SWAP2 POP PUSH1 0x1F NOT PUSH1 0x3F RETURNDATASIZE ADD AND DUP3 ADD PUSH1 0x40 MSTORE RETURNDATASIZE DUP3 MSTORE RETURNDATASIZE PUSH0 PUSH1 0x20 DUP5 ADD RETURNDATACOPY PUSH2 0x3679 JUMP JUMPDEST PUSH1 0x60 SWAP2 POP JUMPDEST POP POP SWAP1 POP DUP1 PUSH2 0x36B4 JUMPI PUSH1 0x40 MLOAD PUSH32 0xF0C49D4400000000000000000000000000000000000000000000000000000000 DUP2 MSTORE PUSH1 0x4 ADD PUSH1 0x40 MLOAD DUP1 SWAP2 SUB SWAP1 REVERT JUMPDEST POP PUSH2 0x3707 JUMP JUMPDEST PUSH2 0x3706 PUSH1 0x6 PUSH0 SWAP1 SLOAD SWAP1 PUSH2 0x100 EXP SWAP1 DIV PUSH20 0xFFFFFFFFFFFFFFFFFFFFFFFFFFFFFFFFFFFFFFFF AND DUP3 DUP5 PUSH20 0xFFFFFFFFFFFFFFFFFFFFFFFFFFFFFFFFFFFFFFFF AND PUSH2 0x379B SWAP1 SWAP3 SWAP2 SWAP1 PUSH4 0xFFFFFFFF AND JUMP JUMPDEST JUMPDEST POP POP JUMP JUMPDEST PUSH1 0x6 PUSH0 SWAP1 SLOAD SWAP1 PUSH2 0x100 EXP SWAP1 DIV PUSH20 0xFFFFFFFFFFFFFFFFFFFFFFFFFFFFFFFFFFFFFFFF AND PUSH20 0xFFFFFFFFFFFFFFFFFFFFFFFFFFFFFFFFFFFFFFFF AND PUSH4 0x6C025EC2 DUP5 DUP5 DUP5 PUSH1 0x40 MLOAD DUP5 PUSH4 0xFFFFFFFF AND PUSH1 0xE0 SHL DUP2 MSTORE PUSH1 0x4 ADD PUSH2 0x3769 SWAP4 SWAP3 SWAP2 SWAP1 PUSH2 0x53B1 JUMP JUMPDEST PUSH0 PUSH1 0x40 MLOAD DUP1 DUP4 SUB DUP2 PUSH0 DUP8 DUP1 EXTCODESIZE ISZERO DUP1 ISZERO PUSH2 0x3780 JUMPI PUSH0 DUP1 REVERT JUMPDEST POP GAS CALL ISZERO DUP1 ISZERO PUSH2 0x3792 JUMPI RETURNDATASIZE PUSH0 DUP1 RETURNDATACOPY RETURNDATASIZE PUSH0 REVERT JUMPDEST POP POP POP POP POP POP POP JUMP JUMPDEST PUSH2 0x3815 DUP4 DUP5 PUSH20 0xFFFFFFFFFFFFFFFFFFFFFFFFFFFFFFFFFFFFFFFF AND PUSH4 0xA9059CBB DUP6 DUP6 PUSH1 0x40 MLOAD PUSH1 0x24 ADD PUSH2 0x37CE SWAP3 SWAP2 SWAP1 PUSH2 0x53E6 JUMP JUMPDEST PUSH1 0x40 MLOAD PUSH1 0x20 DUP2 DUP4 SUB SUB DUP2 MSTORE SWAP1 PUSH1 0x40 MSTORE SWAP2 POP PUSH1 0xE0 SHL PUSH1 0x20 DUP3 ADD DUP1 MLOAD PUSH28 0xFFFFFFFFFFFFFFFFFFFFFFFFFFFFFFFFFFFFFFFFFFFFFFFFFFFFFFFF DUP4 DUP2 DUP4 AND OR DUP4 MSTORE POP POP POP POP PUSH2 0x3A43 JUMP JUMPDEST POP POP POP JUMP JUMPDEST PUSH2 0x3822 PUSH2 0x4029 JUMP JUMPDEST PUSH2 0x383A DUP3 PUSH0 PUSH1 0x1 PUSH1 0x5 PUSH2 0x3835 SWAP2 SWAP1 PUSH2 0x50B2 JUMP JUMPDEST PUSH2 0x3AD8 JUMP JUMPDEST DUP2 SWAP1 POP SWAP2 SWAP1 POP JUMP JUMPDEST PUSH0 DUP2 MLOAD DUP5 PUSH2 0x3850 SWAP2 SWAP1 PUSH2 0x540D JUMP JUMPDEST SWAP1 POP DUP2 DUP2 DUP2 MLOAD DUP2 LT PUSH2 0x3865 JUMPI PUSH2 0x3864 PUSH2 0x4D86 JUMP JUMPDEST JUMPDEST PUSH1 0x20 MUL PUSH1 0x20 ADD ADD MLOAD PUSH1 0x8 PUSH0 DUP6 PUSH20 0xFFFFFFFFFFFFFFFFFFFFFFFFFFFFFFFFFFFFFFFF AND PUSH20 0xFFFFFFFFFFFFFFFFFFFFFFFFFFFFFFFFFFFFFFFF AND DUP2 MSTORE PUSH1 0x20 ADD SWAP1 DUP2 MSTORE PUSH1 0x20 ADD PUSH0 KECCAK256 PUSH1 0x3 ADD DUP7 PUSH1 0xFF AND PUSH1 0x5 DUP2 LT PUSH2 0x38C2 JUMPI PUSH2 0x38C1 PUSH2 0x4D86 JUMP JUMPDEST JUMPDEST ADD PUSH0 DUP3 ADD MLOAD DUP2 PUSH0 ADD PUSH0 PUSH2 0x100 EXP DUP2 SLOAD DUP2 PUSH1 0xFF MUL NOT AND SWAP1 DUP4 PUSH1 0xFF AND MUL OR SWAP1 SSTORE POP PUSH1 0x20 DUP3 ADD MLOAD DUP2 PUSH0 ADD PUSH1 0x1 PUSH2 0x100 EXP DUP2 SLOAD DUP2 PUSH1 0xFF MUL NOT AND SWAP1 DUP4 PUSH1 0xFF AND MUL OR SWAP1 SSTORE POP SWAP1 POP POP PUSH2 0x390E DUP2 DUP4 PUSH2 0x3D09 JUMP JUMPDEST POP POP POP POP POP JUMP JUMPDEST PUSH0 DUP2 SUB ISZERO PUSH2 0x39BE JUMPI PUSH0 CALLER PUSH20 0xFFFFFFFFFFFFFFFFFFFFFFFFFFFFFFFFFFFFFFFF AND DUP3 PUSH1 0x40 MLOAD PUSH2 0x3942 SWAP1 PUSH2 0x4A0D JUMP JUMPDEST PUSH0 PUSH1 0x40 MLOAD DUP1 DUP4 SUB DUP2 DUP6 DUP8 GAS CALL SWAP3 POP POP POP RETURNDATASIZE DUP1 PUSH0 DUP2 EQ PUSH2 0x397C JUMPI PUSH1 0x40 MLOAD SWAP2 POP PUSH1 0x1F NOT PUSH1 0x3F RETURNDATASIZE ADD AND DUP3 ADD PUSH1 0x40 MSTORE RETURNDATASIZE DUP3 MSTORE RETURNDATASIZE PUSH0 PUSH1 0x20 DUP5 ADD RETURNDATACOPY PUSH2 0x3981 JUMP JUMPDEST PUSH1 0x60 SWAP2 POP JUMPDEST POP POP SWAP1 POP DUP1 PUSH2 0x39BC JUMPI PUSH1 0x40 MLOAD PUSH32 0xF0C49D4400000000000000000000000000000000000000000000000000000000 DUP2 MSTORE PUSH1 0x4 ADD PUSH1 0x40 MLOAD DUP1 SWAP2 SUB SWAP1 REVERT JUMPDEST POP JUMPDEST POP JUMP JUMPDEST PUSH2 0x3A3D DUP5 DUP6 PUSH20 0xFFFFFFFFFFFFFFFFFFFFFFFFFFFFFFFFFFFFFFFF AND PUSH4 0x23B872DD DUP7 DUP7 DUP7 PUSH1 0x40 MLOAD PUSH1 0x24 ADD PUSH2 0x39F6 SWAP4 SWAP3 SWAP2 SWAP1 PUSH2 0x543D JUMP JUMPDEST PUSH1 0x40 MLOAD PUSH1 0x20 DUP2 DUP4 SUB SUB DUP2 MSTORE SWAP1 PUSH1 0x40 MSTORE SWAP2 POP PUSH1 0xE0 SHL PUSH1 0x20 DUP3 ADD DUP1 MLOAD PUSH28 0xFFFFFFFFFFFFFFFFFFFFFFFFFFFFFFFFFFFFFFFFFFFFFFFFFFFFFFFF DUP4 DUP2 DUP4 AND OR DUP4 MSTORE POP POP POP POP PUSH2 0x3A43 JUMP JUMPDEST POP POP POP POP JUMP JUMPDEST PUSH0 PUSH2 0x3A6D DUP3 DUP5 PUSH20 0xFFFFFFFFFFFFFFFFFFFFFFFFFFFFFFFFFFFFFFFF AND PUSH2 0x3D5A SWAP1 SWAP2 SWAP1 PUSH4 0xFFFFFFFF AND JUMP JUMPDEST SWAP1 POP PUSH0 DUP2 MLOAD EQ ISZERO DUP1 ISZERO PUSH2 0x3A91 JUMPI POP DUP1 DUP1 PUSH1 0x20 ADD SWAP1 MLOAD DUP2 ADD SWAP1 PUSH2 0x3A8F SWAP2 SWAP1 PUSH2 0x51E3 JUMP JUMPDEST ISZERO JUMPDEST ISZERO PUSH2 0x3AD3 JUMPI DUP3 PUSH1 0x40 MLOAD PUSH32 0x5274AFE700000000000000000000000000000000000000000000000000000000 DUP2 MSTORE PUSH1 0x4 ADD PUSH2 0x3ACA SWAP2 SWAP1 PUSH2 0x438E JUMP JUMPDEST PUSH1 0x40 MLOAD DUP1 SWAP2 SUB SWAP1 REVERT JUMPDEST POP POP POP JUMP JUMPDEST PUSH0 DUP3 SWAP1 POP PUSH0 DUP3 SWAP1 POP DUP1 DUP3 SUB PUSH2 0x3AEE JUMPI POP POP PUSH2 0x3D04 JUMP JUMPDEST PUSH0 DUP6 PUSH1 0x2 DUP7 DUP7 PUSH2 0x3AFE SWAP2 SWAP1 PUSH2 0x5472 JUMP JUMPDEST PUSH2 0x3B08 SWAP2 SWAP1 PUSH2 0x54B2 JUMP JUMPDEST DUP7 PUSH2 0x3B13 SWAP2 SWAP1 PUSH2 0x551A JUMP JUMPDEST PUSH1 0x5 DUP2 LT PUSH2 0x3B24 JUMPI PUSH2 0x3B23 PUSH2 0x4D86 JUMP JUMPDEST JUMPDEST PUSH1 0x20 MUL ADD MLOAD PUSH0 ADD MLOAD PUSH1 0xFF AND SWAP1 POP JUMPDEST DUP2 DUP4 SGT PUSH2 0x3CD8 JUMPI JUMPDEST DUP1 DUP7 DUP5 PUSH1 0x5 DUP2 LT PUSH2 0x3B4E JUMPI PUSH2 0x3B4D PUSH2 0x4D86 JUMP JUMPDEST JUMPDEST PUSH1 0x20 MUL ADD MLOAD PUSH0 ADD MLOAD PUSH1 0xFF AND LT ISZERO PUSH2 0x3B72 JUMPI DUP3 DUP1 PUSH2 0x3B6A SWAP1 PUSH2 0x555B JUMP JUMPDEST SWAP4 POP POP PUSH2 0x3B3A JUMP JUMPDEST JUMPDEST DUP6 DUP3 PUSH1 0x5 DUP2 LT PUSH2 0x3B86 JUMPI PUSH2 0x3B85 PUSH2 0x4D86 JUMP JUMPDEST JUMPDEST PUSH1 0x20 MUL ADD MLOAD PUSH0 ADD MLOAD PUSH1 0xFF AND DUP2 LT ISZERO PUSH2 0x3BAB JUMPI DUP2 DUP1 PUSH2 0x3BA3 SWAP1 PUSH2 0x55A2 JUMP JUMPDEST SWAP3 POP POP PUSH2 0x3B73 JUMP JUMPDEST DUP2 DUP4 SGT PUSH2 0x3CD3 JUMPI DUP6 DUP3 PUSH1 0x5 DUP2 LT PUSH2 0x3BC5 JUMPI PUSH2 0x3BC4 PUSH2 0x4D86 JUMP JUMPDEST JUMPDEST PUSH1 0x20 MUL ADD MLOAD PUSH0 ADD MLOAD DUP7 DUP5 PUSH1 0x5 DUP2 LT PUSH2 0x3BE0 JUMPI PUSH2 0x3BDF PUSH2 0x4D86 JUMP JUMPDEST JUMPDEST PUSH1 0x20 MUL ADD MLOAD PUSH0 ADD MLOAD DUP8 DUP6 PUSH1 0x5 DUP2 LT PUSH2 0x3BFB JUMPI PUSH2 0x3BFA PUSH2 0x4D86 JUMP JUMPDEST JUMPDEST PUSH1 0x20 MUL ADD MLOAD PUSH0 ADD DUP9 DUP6 PUSH1 0x5 DUP2 LT PUSH2 0x3C15 JUMPI PUSH2 0x3C14 PUSH2 0x4D86 JUMP JUMPDEST JUMPDEST PUSH1 0x20 MUL ADD MLOAD PUSH0 ADD DUP3 PUSH1 0xFF AND PUSH1 0xFF AND DUP2 MSTORE POP DUP3 PUSH1 0xFF AND PUSH1 0xFF AND DUP2 MSTORE POP POP POP DUP6 DUP3 PUSH1 0x5 DUP2 LT PUSH2 0x3C45 JUMPI PUSH2 0x3C44 PUSH2 0x4D86 JUMP JUMPDEST JUMPDEST PUSH1 0x20 MUL ADD MLOAD PUSH1 0x20 ADD MLOAD DUP7 DUP5 PUSH1 0x5 DUP2 LT PUSH2 0x3C61 JUMPI PUSH2 0x3C60 PUSH2 0x4D86 JUMP JUMPDEST JUMPDEST PUSH1 0x20 MUL ADD MLOAD PUSH1 0x20 ADD MLOAD DUP8 DUP6 PUSH1 0x5 DUP2 LT PUSH2 0x3C7D JUMPI PUSH2 0x3C7C PUSH2 0x4D86 JUMP JUMPDEST JUMPDEST PUSH1 0x20 MUL ADD MLOAD PUSH1 0x20 ADD DUP9 DUP6 PUSH1 0x5 DUP2 LT PUSH2 0x3C98 JUMPI PUSH2 0x3C97 PUSH2 0x4D86 JUMP JUMPDEST JUMPDEST PUSH1 0x20 MUL ADD MLOAD PUSH1 0x20 ADD DUP3 PUSH1 0xFF AND PUSH1 0xFF AND DUP2 MSTORE POP DUP3 PUSH1 0xFF AND PUSH1 0xFF AND DUP2 MSTORE POP POP POP DUP3 DUP1 PUSH2 0x3CC1 SWAP1 PUSH2 0x555B JUMP JUMPDEST SWAP4 POP POP DUP2 DUP1 PUSH2 0x3CCF SWAP1 PUSH2 0x55A2 JUMP JUMPDEST SWAP3 POP POP JUMPDEST PUSH2 0x3B32 JUMP JUMPDEST DUP2 DUP6 SLT ISZERO PUSH2 0x3CEC JUMPI PUSH2 0x3CEB DUP7 DUP7 DUP5 PUSH2 0x3AD8 JUMP JUMPDEST JUMPDEST DUP4 DUP4 SLT ISZERO PUSH2 0x3D00 JUMPI PUSH2 0x3CFF DUP7 DUP5 DUP7 PUSH2 0x3AD8 JUMP JUMPDEST JUMPDEST POP POP POP JUMPDEST POP POP POP JUMP JUMPDEST DUP1 PUSH1 0x1 DUP3 MLOAD PUSH2 0x3D18 SWAP2 SWAP1 PUSH2 0x50B2 JUMP JUMPDEST DUP2 MLOAD DUP2 LT PUSH2 0x3D29 JUMPI PUSH2 0x3D28 PUSH2 0x4D86 JUMP JUMPDEST JUMPDEST PUSH1 0x20 MUL PUSH1 0x20 ADD ADD MLOAD DUP2 DUP4 DUP2 MLOAD DUP2 LT PUSH2 0x3D44 JUMPI PUSH2 0x3D43 PUSH2 0x4D86 JUMP JUMPDEST JUMPDEST PUSH1 0x20 MUL PUSH1 0x20 ADD ADD DUP2 SWAP1 MSTORE POP PUSH1 0x1 DUP2 MLOAD SUB DUP2 MSTORE POP POP JUMP JUMPDEST PUSH1 0x60 PUSH2 0x3D67 DUP4 DUP4 PUSH0 PUSH2 0x3D6F JUMP JUMPDEST SWAP1 POP SWAP3 SWAP2 POP POP JUMP JUMPDEST PUSH1 0x60 DUP2 SELFBALANCE LT ISZERO PUSH2 0x3DB6 JUMPI ADDRESS PUSH1 0x40 MLOAD PUSH32 0xCD78605900000000000000000000000000000000000000000000000000000000 DUP2 MSTORE PUSH1 0x4 ADD PUSH2 0x3DAD SWAP2 SWAP1 PUSH2 0x438E JUMP JUMPDEST PUSH1 0x40 MLOAD DUP1 SWAP2 SUB SWAP1 REVERT JUMPDEST PUSH0 DUP1 DUP6 PUSH20 0xFFFFFFFFFFFFFFFFFFFFFFFFFFFFFFFFFFFFFFFF AND DUP5 DUP7 PUSH1 0x40 MLOAD PUSH2 0x3DDE SWAP2 SWAP1 PUSH2 0x564B JUMP JUMPDEST PUSH0 PUSH1 0x40 MLOAD DUP1 DUP4 SUB DUP2 DUP6 DUP8 GAS CALL SWAP3 POP POP POP RETURNDATASIZE DUP1 PUSH0 DUP2 EQ PUSH2 0x3E18 JUMPI PUSH1 0x40 MLOAD SWAP2 POP PUSH1 0x1F NOT PUSH1 0x3F RETURNDATASIZE ADD AND DUP3 ADD PUSH1 0x40 MSTORE RETURNDATASIZE DUP3 MSTORE RETURNDATASIZE PUSH0 PUSH1 0x20 DUP5 ADD RETURNDATACOPY PUSH2 0x3E1D JUMP JUMPDEST PUSH1 0x60 SWAP2 POP JUMPDEST POP SWAP2 POP SWAP2 POP PUSH2 0x3E2D DUP7 DUP4 DUP4 PUSH2 0x3E38 JUMP JUMPDEST SWAP3 POP POP POP SWAP4 SWAP3 POP POP POP JUMP JUMPDEST PUSH1 0x60 DUP3 PUSH2 0x3E4D JUMPI PUSH2 0x3E48 DUP3 PUSH2 0x3EC5 JUMP JUMPDEST PUSH2 0x3EBD JUMP JUMPDEST PUSH0 DUP3 MLOAD EQ DUP1 ISZERO PUSH2 0x3E73 JUMPI POP PUSH0 DUP5 PUSH20 0xFFFFFFFFFFFFFFFFFFFFFFFFFFFFFFFFFFFFFFFF AND EXTCODESIZE EQ JUMPDEST ISZERO PUSH2 0x3EB5 JUMPI DUP4 PUSH1 0x40 MLOAD PUSH32 0x9996B31500000000000000000000000000000000000000000000000000000000 DUP2 MSTORE PUSH1 0x4 ADD PUSH2 0x3EAC SWAP2 SWAP1 PUSH2 0x438E JUMP JUMPDEST PUSH1 0x40 MLOAD DUP1 SWAP2 SUB SWAP1 REVERT JUMPDEST DUP2 SWAP1 POP PUSH2 0x3EBE JUMP JUMPDEST JUMPDEST SWAP4 SWAP3 POP POP POP JUMP JUMPDEST PUSH0 DUP2 MLOAD GT ISZERO PUSH2 0x3ED7 JUMPI DUP1 MLOAD DUP1 DUP3 PUSH1 0x20 ADD REVERT JUMPDEST PUSH1 0x40 MLOAD PUSH32 0x1425EA4200000000000000000000000000000000000000000000000000000000 DUP2 MSTORE PUSH1 0x4 ADD PUSH1 0x40 MLOAD DUP1 SWAP2 SUB SWAP1 REVERT JUMPDEST DUP3 PUSH1 0x5 PUSH1 0x1F ADD PUSH1 0x20 SWAP1 DIV DUP2 ADD SWAP3 DUP3 ISZERO PUSH2 0x3F90 JUMPI SWAP2 PUSH1 0x20 MUL DUP3 ADD PUSH0 JUMPDEST DUP4 DUP3 GT ISZERO PUSH2 0x3F62 JUMPI DUP4 CALLDATALOAD ISZERO ISZERO DUP4 DUP3 PUSH2 0x100 EXP DUP2 SLOAD DUP2 PUSH1 0xFF MUL NOT AND SWAP1 DUP4 ISZERO ISZERO MUL OR SWAP1 SSTORE POP SWAP3 PUSH1 0x20 ADD SWAP3 PUSH1 0x1 ADD PUSH1 0x20 DUP2 PUSH0 ADD DIV SWAP3 DUP4 ADD SWAP3 PUSH1 0x1 SUB MUL PUSH2 0x3F24 JUMP JUMPDEST DUP1 ISZERO PUSH2 0x3F8E JUMPI DUP3 DUP2 PUSH2 0x100 EXP DUP2 SLOAD SWAP1 PUSH1 0xFF MUL NOT AND SWAP1 SSTORE PUSH1 0x1 ADD PUSH1 0x20 DUP2 PUSH0 ADD DIV SWAP3 DUP4 ADD SWAP3 PUSH1 0x1 SUB MUL PUSH2 0x3F62 JUMP JUMPDEST POP JUMPDEST POP SWAP1 POP PUSH2 0x3F9D SWAP2 SWAP1 PUSH2 0x4056 JUMP JUMPDEST POP SWAP1 JUMP JUMPDEST POP DUP1 PUSH1 0x5 ADD SWAP1 PUSH2 0x3FB1 SWAP2 SWAP1 PUSH2 0x4071 JUMP JUMPDEST POP JUMP JUMPDEST POP PUSH0 SWAP1 SSTORE JUMP JUMPDEST PUSH1 0x40 MLOAD DUP1 PUSH2 0x100 ADD PUSH1 0x40 MSTORE DUP1 PUSH0 DUP2 MSTORE PUSH1 0x20 ADD PUSH0 DUP2 MSTORE PUSH1 0x20 ADD PUSH0 PUSH20 0xFFFFFFFFFFFFFFFFFFFFFFFFFFFFFFFFFFFFFFFF AND DUP2 MSTORE PUSH1 0x20 ADD PUSH0 PUSH8 0xFFFFFFFFFFFFFFFF AND DUP2 MSTORE PUSH1 0x20 ADD PUSH2 0x4006 PUSH2 0x4029 JUMP JUMPDEST DUP2 MSTORE PUSH1 0x20 ADD PUSH2 0x4013 PUSH2 0x40AD JUMP JUMPDEST DUP2 MSTORE PUSH1 0x20 ADD PUSH0 ISZERO ISZERO DUP2 MSTORE PUSH1 0x20 ADD PUSH0 ISZERO ISZERO DUP2 MSTORE POP SWAP1 JUMP JUMPDEST PUSH1 0x40 MLOAD DUP1 PUSH1 0xA0 ADD PUSH1 0x40 MSTORE DUP1 PUSH1 0x5 SWAP1 JUMPDEST PUSH2 0x4040 PUSH2 0x40CF JUMP JUMPDEST DUP2 MSTORE PUSH1 0x20 ADD SWAP1 PUSH1 0x1 SWAP1 SUB SWAP1 DUP2 PUSH2 0x4038 JUMPI SWAP1 POP POP SWAP1 JUMP JUMPDEST JUMPDEST DUP1 DUP3 GT ISZERO PUSH2 0x406D JUMPI PUSH0 DUP2 PUSH0 SWAP1 SSTORE POP PUSH1 0x1 ADD PUSH2 0x4057 JUMP JUMPDEST POP SWAP1 JUMP JUMPDEST JUMPDEST DUP1 DUP3 GT ISZERO PUSH2 0x40A9 JUMPI PUSH0 DUP1 DUP3 ADD PUSH0 PUSH2 0x100 EXP DUP2 SLOAD SWAP1 PUSH1 0xFF MUL NOT AND SWAP1 SSTORE PUSH0 DUP3 ADD PUSH1 0x1 PUSH2 0x100 EXP DUP2 SLOAD SWAP1 PUSH1 0xFF MUL NOT AND SWAP1 SSTORE POP PUSH1 0x1 ADD PUSH2 0x4072 JUMP JUMPDEST POP SWAP1 JUMP JUMPDEST PUSH1 0x40 MLOAD DUP1 PUSH1 0xA0 ADD PUSH1 0x40 MSTORE DUP1 PUSH1 0x5 SWAP1 PUSH1 0x20 DUP3 MUL DUP1 CALLDATASIZE DUP4 CALLDATACOPY DUP1 DUP3 ADD SWAP2 POP POP SWAP1 POP POP SWAP1 JUMP JUMPDEST PUSH1 0x40 MLOAD DUP1 PUSH1 0x40 ADD PUSH1 0x40 MSTORE DUP1 PUSH0 PUSH1 0xFF AND DUP2 MSTORE PUSH1 0x20 ADD PUSH0 PUSH1 0xFF AND DUP2 MSTORE POP SWAP1 JUMP JUMPDEST PUSH0 PUSH1 0x40 MLOAD SWAP1 POP SWAP1 JUMP JUMPDEST PUSH0 DUP1 REVERT JUMPDEST PUSH0 DUP1 REVERT JUMPDEST PUSH0 DUP2 SWAP1 POP SWAP2 SWAP1 POP JUMP JUMPDEST PUSH2 0x4110 DUP2 PUSH2 0x40FE JUMP JUMPDEST DUP2 EQ PUSH2 0x411A JUMPI PUSH0 DUP1 REVERT JUMPDEST POP JUMP JUMPDEST PUSH0 DUP2 CALLDATALOAD SWAP1 POP PUSH2 0x412B DUP2 PUSH2 0x4107 JUMP JUMPDEST SWAP3 SWAP2 POP POP JUMP JUMPDEST PUSH0 DUP1 REVERT JUMPDEST PUSH0 PUSH1 0x1F NOT PUSH1 0x1F DUP4 ADD AND SWAP1 POP SWAP2 SWAP1 POP JUMP JUMPDEST PUSH32 0x4E487B7100000000000000000000000000000000000000000000000000000000 PUSH0 MSTORE PUSH1 0x41 PUSH1 0x4 MSTORE PUSH1 0x24 PUSH0 REVERT JUMPDEST PUSH2 0x417B DUP3 PUSH2 0x4135 JUMP JUMPDEST DUP2 ADD DUP2 DUP2 LT PUSH8 0xFFFFFFFFFFFFFFFF DUP3 GT OR ISZERO PUSH2 0x419A JUMPI PUSH2 0x4199 PUSH2 0x4145 JUMP JUMPDEST JUMPDEST DUP1 PUSH1 0x40 MSTORE POP POP POP JUMP JUMPDEST PUSH0 PUSH2 0x41AC PUSH2 0x40ED JUMP JUMPDEST SWAP1 POP PUSH2 0x41B8 DUP3 DUP3 PUSH2 0x4172 JUMP JUMPDEST SWAP2 SWAP1 POP JUMP JUMPDEST PUSH0 PUSH8 0xFFFFFFFFFFFFFFFF DUP3 GT ISZERO PUSH2 0x41D7 JUMPI PUSH2 0x41D6 PUSH2 0x4145 JUMP JUMPDEST JUMPDEST PUSH1 0x20 DUP3 MUL SWAP1 POP PUSH1 0x20 DUP2 ADD SWAP1 POP SWAP2 SWAP1 POP JUMP JUMPDEST PUSH0 DUP1 REVERT JUMPDEST PUSH0 PUSH2 0x41FE PUSH2 0x41F9 DUP5 PUSH2 0x41BD JUMP JUMPDEST PUSH2 0x41A3 JUMP JUMPDEST SWAP1 POP DUP1 DUP4 DUP3 MSTORE PUSH1 0x20 DUP3 ADD SWAP1 POP PUSH1 0x20 DUP5 MUL DUP4 ADD DUP6 DUP2 GT ISZERO PUSH2 0x4221 JUMPI PUSH2 0x4220 PUSH2 0x41E8 JUMP JUMPDEST JUMPDEST DUP4 JUMPDEST DUP2 DUP2 LT ISZERO PUSH2 0x424A JUMPI DUP1 PUSH2 0x4236 DUP9 DUP3 PUSH2 0x411D JUMP JUMPDEST DUP5 MSTORE PUSH1 0x20 DUP5 ADD SWAP4 POP POP PUSH1 0x20 DUP2 ADD SWAP1 POP PUSH2 0x4223 JUMP JUMPDEST POP POP POP SWAP4 SWAP3 POP POP POP JUMP JUMPDEST PUSH0 DUP3 PUSH1 0x1F DUP4 ADD SLT PUSH2 0x4268 JUMPI PUSH2 0x4267 PUSH2 0x4131 JUMP JUMPDEST JUMPDEST DUP2 CALLDATALOAD PUSH2 0x4278 DUP5 DUP3 PUSH1 0x20 DUP7 ADD PUSH2 0x41EC JUMP JUMPDEST SWAP2 POP POP SWAP3 SWAP2 POP POP JUMP JUMPDEST PUSH0 DUP1 PUSH1 0x40 DUP4 DUP6 SUB SLT ISZERO PUSH2 0x4297 JUMPI PUSH2 0x4296 PUSH2 0x40F6 JUMP JUMPDEST JUMPDEST PUSH0 PUSH2 0x42A4 DUP6 DUP3 DUP7 ADD PUSH2 0x411D JUMP JUMPDEST SWAP3 POP POP PUSH1 0x20 DUP4 ADD CALLDATALOAD PUSH8 0xFFFFFFFFFFFFFFFF DUP2 GT ISZERO PUSH2 0x42C5 JUMPI PUSH2 0x42C4 PUSH2 0x40FA JUMP JUMPDEST JUMPDEST PUSH2 0x42D1 DUP6 DUP3 DUP7 ADD PUSH2 0x4254 JUMP JUMPDEST SWAP2 POP POP SWAP3 POP SWAP3 SWAP1 POP JUMP JUMPDEST PUSH0 PUSH20 0xFFFFFFFFFFFFFFFFFFFFFFFFFFFFFFFFFFFFFFFF DUP3 AND SWAP1 POP SWAP2 SWAP1 POP JUMP JUMPDEST PUSH0 DUP2 SWAP1 POP SWAP2 SWAP1 POP JUMP JUMPDEST PUSH0 PUSH2 0x431D PUSH2 0x4318 PUSH2 0x4313 DUP5 PUSH2 0x42DB JUMP JUMPDEST PUSH2 0x42FA JUMP JUMPDEST PUSH2 0x42DB JUMP JUMPDEST SWAP1 POP SWAP2 SWAP1 POP JUMP JUMPDEST PUSH0 PUSH2 0x432E DUP3 PUSH2 0x4303 JUMP JUMPDEST SWAP1 POP SWAP2 SWAP1 POP JUMP JUMPDEST PUSH0 PUSH2 0x433F DUP3 PUSH2 0x4324 JUMP JUMPDEST SWAP1 POP SWAP2 SWAP1 POP JUMP JUMPDEST PUSH2 0x434F DUP2 PUSH2 0x4335 JUMP JUMPDEST DUP3 MSTORE POP POP JUMP JUMPDEST PUSH0 PUSH1 0x20 DUP3 ADD SWAP1 POP PUSH2 0x4368 PUSH0 DUP4 ADD DUP5 PUSH2 0x4346 JUMP JUMPDEST SWAP3 SWAP2 POP POP JUMP JUMPDEST PUSH0 PUSH2 0x4378 DUP3 PUSH2 0x42DB JUMP JUMPDEST SWAP1 POP SWAP2 SWAP1 POP JUMP JUMPDEST PUSH2 0x4388 DUP2 PUSH2 0x436E JUMP JUMPDEST DUP3 MSTORE POP POP JUMP JUMPDEST PUSH0 PUSH1 0x20 DUP3 ADD SWAP1 POP PUSH2 0x43A1 PUSH0 DUP4 ADD DUP5 PUSH2 0x437F JUMP JUMPDEST SWAP3 SWAP2 POP POP JUMP JUMPDEST PUSH2 0x43B0 DUP2 PUSH2 0x436E JUMP JUMPDEST DUP2 EQ PUSH2 0x43BA JUMPI PUSH0 DUP1 REVERT JUMPDEST POP JUMP JUMPDEST PUSH0 DUP2 CALLDATALOAD SWAP1 POP PUSH2 0x43CB DUP2 PUSH2 0x43A7 JUMP JUMPDEST SWAP3 SWAP2 POP POP JUMP JUMPDEST PUSH0 PUSH1 0x20 DUP3 DUP5 SUB SLT ISZERO PUSH2 0x43E6 JUMPI PUSH2 0x43E5 PUSH2 0x40F6 JUMP JUMPDEST JUMPDEST PUSH0 PUSH2 0x43F3 DUP5 DUP3 DUP6 ADD PUSH2 0x43BD JUMP JUMPDEST SWAP2 POP POP SWAP3 SWAP2 POP POP JUMP JUMPDEST PUSH0 DUP2 ISZERO ISZERO SWAP1 POP SWAP2 SWAP1 POP JUMP JUMPDEST PUSH2 0x4410 DUP2 PUSH2 0x43FC JUMP JUMPDEST DUP3 MSTORE POP POP JUMP JUMPDEST PUSH0 PUSH1 0x20 DUP3 ADD SWAP1 POP PUSH2 0x4429 PUSH0 DUP4 ADD DUP5 PUSH2 0x4407 JUMP JUMPDEST SWAP3 SWAP2 POP POP JUMP JUMPDEST PUSH0 DUP1 PUSH1 0x40 DUP4 DUP6 SUB SLT ISZERO PUSH2 0x4445 JUMPI PUSH2 0x4444 PUSH2 0x40F6 JUMP JUMPDEST JUMPDEST PUSH0 PUSH2 0x4452 DUP6 DUP3 DUP7 ADD PUSH2 0x411D JUMP JUMPDEST SWAP3 POP POP PUSH1 0x20 PUSH2 0x4463 DUP6 DUP3 DUP7 ADD PUSH2 0x43BD JUMP JUMPDEST SWAP2 POP POP SWAP3 POP SWAP3 SWAP1 POP JUMP JUMPDEST PUSH0 PUSH1 0x20 DUP3 DUP5 SUB SLT ISZERO PUSH2 0x4482 JUMPI PUSH2 0x4481 PUSH2 0x40F6 JUMP JUMPDEST JUMPDEST PUSH0 PUSH2 0x448F DUP5 DUP3 DUP6 ADD PUSH2 0x411D JUMP JUMPDEST SWAP2 POP POP SWAP3 SWAP2 POP POP JUMP JUMPDEST PUSH2 0x44A1 DUP2 PUSH2 0x40FE JUMP JUMPDEST DUP3 MSTORE POP POP JUMP JUMPDEST PUSH0 PUSH1 0x20 DUP3 ADD SWAP1 POP PUSH2 0x44BA PUSH0 DUP4 ADD DUP5 PUSH2 0x4498 JUMP JUMPDEST SWAP3 SWAP2 POP POP JUMP JUMPDEST PUSH0 PUSH2 0x44CA DUP3 PUSH2 0x4324 JUMP JUMPDEST SWAP1 POP SWAP2 SWAP1 POP JUMP JUMPDEST PUSH2 0x44DA DUP2 PUSH2 0x44C0 JUMP JUMPDEST DUP3 MSTORE POP POP JUMP JUMPDEST PUSH0 PUSH1 0x20 DUP3 ADD SWAP1 POP PUSH2 0x44F3 PUSH0 DUP4 ADD DUP5 PUSH2 0x44D1 JUMP JUMPDEST SWAP3 SWAP2 POP POP JUMP JUMPDEST PUSH0 PUSH2 0x4503 DUP3 PUSH2 0x4324 JUMP JUMPDEST SWAP1 POP SWAP2 SWAP1 POP JUMP JUMPDEST PUSH2 0x4513 DUP2 PUSH2 0x44F9 JUMP JUMPDEST DUP3 MSTORE POP POP JUMP JUMPDEST PUSH0 PUSH1 0x20 DUP3 ADD SWAP1 POP PUSH2 0x452C PUSH0 DUP4 ADD DUP5 PUSH2 0x450A JUMP JUMPDEST SWAP3 SWAP2 POP POP JUMP JUMPDEST PUSH0 DUP2 SWAP1 POP DUP3 PUSH1 0x20 PUSH1 0x5 MUL DUP3 ADD GT ISZERO PUSH2 0x454D JUMPI PUSH2 0x454C PUSH2 0x41E8 JUMP JUMPDEST JUMPDEST SWAP3 SWAP2 POP POP JUMP JUMPDEST PUSH0 PUSH1 0xA0 DUP3 DUP5 SUB SLT ISZERO PUSH2 0x4568 JUMPI PUSH2 0x4567 PUSH2 0x40F6 JUMP JUMPDEST JUMPDEST PUSH0 PUSH2 0x4575 DUP5 DUP3 DUP6 ADD PUSH2 0x4532 JUMP JUMPDEST SWAP2 POP POP SWAP3 SWAP2 POP POP JUMP JUMPDEST PUSH0 PUSH8 0xFFFFFFFFFFFFFFFF DUP3 GT ISZERO PUSH2 0x4598 JUMPI PUSH2 0x4597 PUSH2 0x4145 JUMP JUMPDEST JUMPDEST PUSH1 0x20 DUP3 MUL SWAP1 POP SWAP2 SWAP1 POP JUMP JUMPDEST PUSH0 DUP1 REVERT JUMPDEST PUSH0 PUSH1 0xFF DUP3 AND SWAP1 POP SWAP2 SWAP1 POP JUMP JUMPDEST PUSH2 0x45BC DUP2 PUSH2 0x45A7 JUMP JUMPDEST DUP2 EQ PUSH2 0x45C6 JUMPI PUSH0 DUP1 REVERT JUMPDEST POP JUMP JUMPDEST PUSH0 DUP2 CALLDATALOAD SWAP1 POP PUSH2 0x45D7 DUP2 PUSH2 0x45B3 JUMP JUMPDEST SWAP3 SWAP2 POP POP JUMP JUMPDEST PUSH0 PUSH1 0x40 DUP3 DUP5 SUB SLT ISZERO PUSH2 0x45F2 JUMPI PUSH2 0x45F1 PUSH2 0x45A3 JUMP JUMPDEST JUMPDEST PUSH2 0x45FC PUSH1 0x40 PUSH2 0x41A3 JUMP JUMPDEST SWAP1 POP PUSH0 PUSH2 0x460B DUP5 DUP3 DUP6 ADD PUSH2 0x45C9 JUMP JUMPDEST PUSH0 DUP4 ADD MSTORE POP PUSH1 0x20 PUSH2 0x461E DUP5 DUP3 DUP6 ADD PUSH2 0x45C9 JUMP JUMPDEST PUSH1 0x20 DUP4 ADD MSTORE POP SWAP3 SWAP2 POP POP JUMP JUMPDEST PUSH0 PUSH2 0x463C PUSH2 0x4637 DUP5 PUSH2 0x457E JUMP JUMPDEST PUSH2 0x41A3 JUMP JUMPDEST SWAP1 POP DUP1 PUSH1 0x40 DUP5 MUL DUP4 ADD DUP6 DUP2 GT ISZERO PUSH2 0x4656 JUMPI PUSH2 0x4655 PUSH2 0x41E8 JUMP JUMPDEST JUMPDEST DUP4 JUMPDEST DUP2 DUP2 LT ISZERO PUSH2 0x467F JUMPI DUP1 PUSH2 0x466B DUP9 DUP3 PUSH2 0x45DD JUMP JUMPDEST DUP5 MSTORE PUSH1 0x20 DUP5 ADD SWAP4 POP POP PUSH1 0x40 DUP2 ADD SWAP1 POP PUSH2 0x4658 JUMP JUMPDEST POP POP POP SWAP4 SWAP3 POP POP POP JUMP JUMPDEST PUSH0 DUP3 PUSH1 0x1F DUP4 ADD SLT PUSH2 0x469D JUMPI PUSH2 0x469C PUSH2 0x4131 JUMP JUMPDEST JUMPDEST PUSH1 0x5 PUSH2 0x46AA DUP5 DUP3 DUP6 PUSH2 0x462A JUMP JUMPDEST SWAP2 POP POP SWAP3 SWAP2 POP POP JUMP JUMPDEST PUSH0 PUSH2 0x140 DUP3 DUP5 SUB SLT ISZERO PUSH2 0x46C9 JUMPI PUSH2 0x46C8 PUSH2 0x40F6 JUMP JUMPDEST JUMPDEST PUSH0 PUSH2 0x46D6 DUP5 DUP3 DUP6 ADD PUSH2 0x4689 JUMP JUMPDEST SWAP2 POP POP SWAP3 SWAP2 POP POP JUMP JUMPDEST PUSH0 PUSH1 0x40 DUP3 ADD SWAP1 POP PUSH2 0x46F2 PUSH0 DUP4 ADD DUP6 PUSH2 0x4498 JUMP JUMPDEST PUSH2 0x46FF PUSH1 0x20 DUP4 ADD DUP5 PUSH2 0x4498 JUMP JUMPDEST SWAP4 SWAP3 POP POP POP JUMP JUMPDEST PUSH2 0x470F DUP2 PUSH2 0x40FE JUMP JUMPDEST DUP3 MSTORE POP POP JUMP JUMPDEST PUSH2 0x471E DUP2 PUSH2 0x436E JUMP JUMPDEST DUP3 MSTORE POP POP JUMP JUMPDEST PUSH0 PUSH8 0xFFFFFFFFFFFFFFFF DUP3 AND SWAP1 POP SWAP2 SWAP1 POP JUMP JUMPDEST PUSH2 0x4740 DUP2 PUSH2 0x4724 JUMP JUMPDEST DUP3 MSTORE POP POP JUMP JUMPDEST PUSH0 PUSH1 0x5 SWAP1 POP SWAP2 SWAP1 POP JUMP JUMPDEST PUSH0 DUP2 SWAP1 POP SWAP3 SWAP2 POP POP JUMP JUMPDEST PUSH0 DUP2 SWAP1 POP SWAP2 SWAP1 POP JUMP JUMPDEST PUSH2 0x476C DUP2 PUSH2 0x45A7 JUMP JUMPDEST DUP3 MSTORE POP POP JUMP JUMPDEST PUSH1 0x40 DUP3 ADD PUSH0 DUP3 ADD MLOAD PUSH2 0x4786 PUSH0 DUP6 ADD DUP3 PUSH2 0x4763 JUMP JUMPDEST POP PUSH1 0x20 DUP3 ADD MLOAD PUSH2 0x4799 PUSH1 0x20 DUP6 ADD DUP3 PUSH2 0x4763 JUMP JUMPDEST POP POP POP POP JUMP JUMPDEST PUSH0 PUSH2 0x47AA DUP4 DUP4 PUSH2 0x4772 JUMP JUMPDEST PUSH1 0x40 DUP4 ADD SWAP1 POP SWAP3 SWAP2 POP POP JUMP JUMPDEST PUSH0 PUSH1 0x20 DUP3 ADD SWAP1 POP SWAP2 SWAP1 POP JUMP JUMPDEST PUSH2 0x47CB DUP2 PUSH2 0x4746 JUMP JUMPDEST PUSH2 0x47D5 DUP2 DUP5 PUSH2 0x4750 JUMP JUMPDEST SWAP3 POP PUSH2 0x47E0 DUP3 PUSH2 0x475A JUMP JUMPDEST DUP1 PUSH0 JUMPDEST DUP4 DUP2 LT ISZERO PUSH2 0x4810 JUMPI DUP2 MLOAD PUSH2 0x47F7 DUP8 DUP3 PUSH2 0x479F JUMP JUMPDEST SWAP7 POP PUSH2 0x4802 DUP4 PUSH2 0x47B6 JUMP JUMPDEST SWAP3 POP POP PUSH1 0x1 DUP2 ADD SWAP1 POP PUSH2 0x47E3 JUMP JUMPDEST POP POP POP POP POP POP JUMP JUMPDEST PUSH0 PUSH1 0x5 SWAP1 POP SWAP2 SWAP1 POP JUMP JUMPDEST PUSH0 DUP2 SWAP1 POP SWAP3 SWAP2 POP POP JUMP JUMPDEST PUSH0 DUP2 SWAP1 POP SWAP2 SWAP1 POP JUMP JUMPDEST PUSH2 0x483E DUP2 PUSH2 0x43FC JUMP JUMPDEST DUP3 MSTORE POP POP JUMP JUMPDEST PUSH0 PUSH2 0x484F DUP4 DUP4 PUSH2 0x4835 JUMP JUMPDEST PUSH1 0x20 DUP4 ADD SWAP1 POP SWAP3 SWAP2 POP POP JUMP JUMPDEST PUSH0 PUSH1 0x20 DUP3 ADD SWAP1 POP SWAP2 SWAP1 POP JUMP JUMPDEST PUSH2 0x4870 DUP2 PUSH2 0x4818 JUMP JUMPDEST PUSH2 0x487A DUP2 DUP5 PUSH2 0x4822 JUMP JUMPDEST SWAP3 POP PUSH2 0x4885 DUP3 PUSH2 0x482C JUMP JUMPDEST DUP1 PUSH0 JUMPDEST DUP4 DUP2 LT ISZERO PUSH2 0x48B5 JUMPI DUP2 MLOAD PUSH2 0x489C DUP8 DUP3 PUSH2 0x4844 JUMP JUMPDEST SWAP7 POP PUSH2 0x48A7 DUP4 PUSH2 0x485B JUMP JUMPDEST SWAP3 POP POP PUSH1 0x1 DUP2 ADD SWAP1 POP PUSH2 0x4888 JUMP JUMPDEST POP POP POP POP POP POP JUMP JUMPDEST PUSH2 0x2A0 DUP3 ADD PUSH0 DUP3 ADD MLOAD PUSH2 0x48D2 PUSH0 DUP6 ADD DUP3 PUSH2 0x4706 JUMP JUMPDEST POP PUSH1 0x20 DUP3 ADD MLOAD PUSH2 0x48E5 PUSH1 0x20 DUP6 ADD DUP3 PUSH2 0x4706 JUMP JUMPDEST POP PUSH1 0x40 DUP3 ADD MLOAD PUSH2 0x48F8 PUSH1 0x40 DUP6 ADD DUP3 PUSH2 0x4715 JUMP JUMPDEST POP PUSH1 0x60 DUP3 ADD MLOAD PUSH2 0x490B PUSH1 0x60 DUP6 ADD DUP3 PUSH2 0x4737 JUMP JUMPDEST POP PUSH1 0x80 DUP3 ADD MLOAD PUSH2 0x491E PUSH1 0x80 DUP6 ADD DUP3 PUSH2 0x47C2 JUMP JUMPDEST POP PUSH1 0xA0 DUP3 ADD MLOAD PUSH2 0x4932 PUSH2 0x1C0 DUP6 ADD DUP3 PUSH2 0x4867 JUMP JUMPDEST POP PUSH1 0xC0 DUP3 ADD MLOAD PUSH2 0x4946 PUSH2 0x260 DUP6 ADD DUP3 PUSH2 0x4835 JUMP JUMPDEST POP PUSH1 0xE0 DUP3 ADD MLOAD PUSH2 0x495A PUSH2 0x280 DUP6 ADD DUP3 PUSH2 0x4835 JUMP JUMPDEST POP POP POP POP JUMP JUMPDEST PUSH0 PUSH2 0x2A0 DUP3 ADD SWAP1 POP PUSH2 0x4974 PUSH0 DUP4 ADD DUP5 PUSH2 0x48BD JUMP JUMPDEST SWAP3 SWAP2 POP POP JUMP JUMPDEST PUSH0 PUSH1 0x40 DUP3 ADD SWAP1 POP PUSH2 0x498D PUSH0 DUP4 ADD DUP6 PUSH2 0x437F JUMP JUMPDEST PUSH2 0x499A PUSH1 0x20 DUP4 ADD DUP5 PUSH2 0x437F JUMP JUMPDEST SWAP4 SWAP3 POP POP POP JUMP JUMPDEST PUSH0 DUP2 MLOAD SWAP1 POP PUSH2 0x49AF DUP2 PUSH2 0x43A7 JUMP JUMPDEST SWAP3 SWAP2 POP POP JUMP JUMPDEST PUSH0 PUSH1 0x20 DUP3 DUP5 SUB SLT ISZERO PUSH2 0x49CA JUMPI PUSH2 0x49C9 PUSH2 0x40F6 JUMP JUMPDEST JUMPDEST PUSH0 PUSH2 0x49D7 DUP5 DUP3 DUP6 ADD PUSH2 0x49A1 JUMP JUMPDEST SWAP2 POP POP SWAP3 SWAP2 POP POP JUMP JUMPDEST PUSH0 DUP2 SWAP1 POP SWAP3 SWAP2 POP POP JUMP JUMPDEST POP JUMP JUMPDEST PUSH0 PUSH2 0x49F8 PUSH0 DUP4 PUSH2 0x49E0 JUMP JUMPDEST SWAP2 POP PUSH2 0x4A03 DUP3 PUSH2 0x49EA JUMP JUMPDEST PUSH0 DUP3 ADD SWAP1 POP SWAP2 SWAP1 POP JUMP JUMPDEST PUSH0 PUSH2 0x4A17 DUP3 PUSH2 0x49ED JUMP JUMPDEST SWAP2 POP DUP2 SWAP1 POP SWAP2 SWAP1 POP JUMP JUMPDEST PUSH0 PUSH1 0x60 DUP3 ADD SWAP1 POP PUSH2 0x4A34 PUSH0 DUP4 ADD DUP7 PUSH2 0x4498 JUMP JUMPDEST PUSH2 0x4A41 PUSH1 0x20 DUP4 ADD DUP6 PUSH2 0x437F JUMP JUMPDEST PUSH2 0x4A4E PUSH1 0x40 DUP4 ADD DUP5 PUSH2 0x4498 JUMP JUMPDEST SWAP5 SWAP4 POP POP POP POP JUMP JUMPDEST PUSH0 PUSH10 0xFFFFFFFFFFFFFFFFFFFF DUP3 AND SWAP1 POP SWAP2 SWAP1 POP JUMP JUMPDEST PUSH2 0x4A74 DUP2 PUSH2 0x4A56 JUMP JUMPDEST DUP2 EQ PUSH2 0x4A7E JUMPI PUSH0 DUP1 REVERT JUMPDEST POP JUMP JUMPDEST PUSH0 DUP2 MLOAD SWAP1 POP PUSH2 0x4A8F DUP2 PUSH2 0x4A6B JUMP JUMPDEST SWAP3 SWAP2 POP POP JUMP JUMPDEST PUSH0 DUP2 SWAP1 POP SWAP2 SWAP1 POP JUMP JUMPDEST PUSH2 0x4AA7 DUP2 PUSH2 0x4A95 JUMP JUMPDEST DUP2 EQ PUSH2 0x4AB1 JUMPI PUSH0 DUP1 REVERT JUMPDEST POP JUMP JUMPDEST PUSH0 DUP2 MLOAD SWAP1 POP PUSH2 0x4AC2 DUP2 PUSH2 0x4A9E JUMP JUMPDEST SWAP3 SWAP2 POP POP JUMP JUMPDEST PUSH0 DUP2 MLOAD SWAP1 POP PUSH2 0x4AD6 DUP2 PUSH2 0x4107 JUMP JUMPDEST SWAP3 SWAP2 POP POP JUMP JUMPDEST PUSH0 DUP1 PUSH0 DUP1 PUSH0 PUSH1 0xA0 DUP7 DUP9 SUB SLT ISZERO PUSH2 0x4AF5 JUMPI PUSH2 0x4AF4 PUSH2 0x40F6 JUMP JUMPDEST JUMPDEST PUSH0 PUSH2 0x4B02 DUP9 DUP3 DUP10 ADD PUSH2 0x4A81 JUMP JUMPDEST SWAP6 POP POP PUSH1 0x20 PUSH2 0x4B13 DUP9 DUP3 DUP10 ADD PUSH2 0x4AB4 JUMP JUMPDEST SWAP5 POP POP PUSH1 0x40 PUSH2 0x4B24 DUP9 DUP3 DUP10 ADD PUSH2 0x4AC8 JUMP JUMPDEST SWAP4 POP POP PUSH1 0x60 PUSH2 0x4B35 DUP9 DUP3 DUP10 ADD PUSH2 0x4AC8 JUMP JUMPDEST SWAP3 POP POP PUSH1 0x80 PUSH2 0x4B46 DUP9 DUP3 DUP10 ADD PUSH2 0x4A81 JUMP JUMPDEST SWAP2 POP POP SWAP3 SWAP6 POP SWAP3 SWAP6 SWAP1 SWAP4 POP JUMP JUMPDEST PUSH0 PUSH4 0xFFFFFFFF DUP3 AND SWAP1 POP SWAP2 SWAP1 POP JUMP JUMPDEST PUSH2 0x4B6B DUP2 PUSH2 0x4B53 JUMP JUMPDEST DUP2 EQ PUSH2 0x4B75 JUMPI PUSH0 DUP1 REVERT JUMPDEST POP JUMP JUMPDEST PUSH0 DUP2 MLOAD SWAP1 POP PUSH2 0x4B86 DUP2 PUSH2 0x4B62 JUMP JUMPDEST SWAP3 SWAP2 POP POP JUMP JUMPDEST PUSH0 PUSH3 0xFFFFFF DUP3 AND SWAP1 POP SWAP2 SWAP1 POP JUMP JUMPDEST PUSH2 0x4BA3 DUP2 PUSH2 0x4B8C JUMP JUMPDEST DUP2 EQ PUSH2 0x4BAD JUMPI PUSH0 DUP1 REVERT JUMPDEST POP JUMP JUMPDEST PUSH0 DUP2 MLOAD SWAP1 POP PUSH2 0x4BBE DUP2 PUSH2 0x4B9A JUMP JUMPDEST SWAP3 SWAP2 POP POP JUMP JUMPDEST PUSH0 DUP1 PUSH0 DUP1 PUSH0 DUP1 PUSH0 DUP1 PUSH0 PUSH2 0x120 DUP11 DUP13 SUB SLT ISZERO PUSH2 0x4BE2 JUMPI PUSH2 0x4BE1 PUSH2 0x40F6 JUMP JUMPDEST JUMPDEST PUSH0 PUSH2 0x4BEF DUP13 DUP3 DUP14 ADD PUSH2 0x4B78 JUMP JUMPDEST SWAP10 POP POP PUSH1 0x20 PUSH2 0x4C00 DUP13 DUP3 DUP14 ADD PUSH2 0x4B78 JUMP JUMPDEST SWAP9 POP POP PUSH1 0x40 PUSH2 0x4C11 DUP13 DUP3 DUP14 ADD PUSH2 0x4B78 JUMP JUMPDEST SWAP8 POP POP PUSH1 0x60 PUSH2 0x4C22 DUP13 DUP3 DUP14 ADD PUSH2 0x4B78 JUMP JUMPDEST SWAP7 POP POP PUSH1 0x80 PUSH2 0x4C33 DUP13 DUP3 DUP14 ADD PUSH2 0x4B78 JUMP JUMPDEST SWAP6 POP POP PUSH1 0xA0 PUSH2 0x4C44 DUP13 DUP3 DUP14 ADD PUSH2 0x4BB0 JUMP JUMPDEST SWAP5 POP POP PUSH1 0xC0 PUSH2 0x4C55 DUP13 DUP3 DUP14 ADD PUSH2 0x4BB0 JUMP JUMPDEST SWAP4 POP POP PUSH1 0xE0 PUSH2 0x4C66 DUP13 DUP3 DUP14 ADD PUSH2 0x4BB0 JUMP JUMPDEST SWAP3 POP POP PUSH2 0x100 PUSH2 0x4C78 DUP13 DUP3 DUP14 ADD PUSH2 0x4BB0 JUMP JUMPDEST SWAP2 POP POP SWAP3 SWAP6 SWAP9 POP SWAP3 SWAP6 SWAP9 POP SWAP3 SWAP6 SWAP9 JUMP JUMPDEST PUSH32 0x4E487B7100000000000000000000000000000000000000000000000000000000 PUSH0 MSTORE PUSH1 0x11 PUSH1 0x4 MSTORE PUSH1 0x24 PUSH0 REVERT JUMPDEST PUSH0 PUSH2 0x4CBF DUP3 PUSH2 0x40FE JUMP JUMPDEST SWAP2 POP PUSH2 0x4CCA DUP4 PUSH2 0x40FE JUMP JUMPDEST SWAP3 POP DUP3 DUP3 MUL PUSH2 0x4CD8 DUP2 PUSH2 0x40FE JUMP JUMPDEST SWAP2 POP DUP3 DUP3 DIV DUP5 EQ DUP4 ISZERO OR PUSH2 0x4CEF JUMPI PUSH2 0x4CEE PUSH2 0x4C88 JUMP JUMPDEST JUMPDEST POP SWAP3 SWAP2 POP POP JUMP JUMPDEST PUSH32 0x4E487B7100000000000000000000000000000000000000000000000000000000 PUSH0 MSTORE PUSH1 0x12 PUSH1 0x4 MSTORE PUSH1 0x24 PUSH0 REVERT JUMPDEST PUSH0 PUSH2 0x4D2D DUP3 PUSH2 0x40FE JUMP JUMPDEST SWAP2 POP PUSH2 0x4D38 DUP4 PUSH2 0x40FE JUMP JUMPDEST SWAP3 POP DUP3 PUSH2 0x4D48 JUMPI PUSH2 0x4D47 PUSH2 0x4CF6 JUMP JUMPDEST JUMPDEST DUP3 DUP3 DIV SWAP1 POP SWAP3 SWAP2 POP POP JUMP JUMPDEST PUSH0 PUSH2 0x4D5D DUP3 PUSH2 0x40FE JUMP JUMPDEST SWAP2 POP PUSH2 0x4D68 DUP4 PUSH2 0x40FE JUMP JUMPDEST SWAP3 POP DUP3 DUP3 ADD SWAP1 POP DUP1 DUP3 GT ISZERO PUSH2 0x4D80 JUMPI PUSH2 0x4D7F PUSH2 0x4C88 JUMP JUMPDEST JUMPDEST SWAP3 SWAP2 POP POP JUMP JUMPDEST PUSH32 0x4E487B7100000000000000000000000000000000000000000000000000000000 PUSH0 MSTORE PUSH1 0x32 PUSH1 0x4 MSTORE PUSH1 0x24 PUSH0 REVERT JUMPDEST PUSH2 0x4DBC DUP2 PUSH2 0x43FC JUMP JUMPDEST DUP2 EQ PUSH2 0x4DC6 JUMPI PUSH0 DUP1 REVERT JUMPDEST POP JUMP JUMPDEST PUSH0 DUP2 CALLDATALOAD SWAP1 POP PUSH2 0x4DD7 DUP2 PUSH2 0x4DB3 JUMP JUMPDEST SWAP3 SWAP2 POP POP JUMP JUMPDEST PUSH0 PUSH1 0x20 DUP3 DUP5 SUB SLT ISZERO PUSH2 0x4DF2 JUMPI PUSH2 0x4DF1 PUSH2 0x40F6 JUMP JUMPDEST JUMPDEST PUSH0 PUSH2 0x4DFF DUP5 DUP3 DUP6 ADD PUSH2 0x4DC9 JUMP JUMPDEST SWAP2 POP POP SWAP3 SWAP2 POP POP JUMP JUMPDEST PUSH0 PUSH2 0x4E12 DUP3 PUSH2 0x45A7 JUMP JUMPDEST SWAP2 POP PUSH1 0xFF DUP3 SUB PUSH2 0x4E25 JUMPI PUSH2 0x4E24 PUSH2 0x4C88 JUMP JUMPDEST JUMPDEST PUSH1 0x1 DUP3 ADD SWAP1 POP SWAP2 SWAP1 POP JUMP JUMPDEST PUSH0 PUSH1 0x5 SWAP1 POP SWAP2 SWAP1 POP JUMP JUMPDEST PUSH0 DUP2 SWAP1 POP SWAP3 SWAP2 POP POP JUMP JUMPDEST PUSH0 DUP2 SWAP1 POP SWAP2 SWAP1 POP JUMP JUMPDEST PUSH0 DUP2 PUSH0 SHR SWAP1 POP SWAP2 SWAP1 POP JUMP JUMPDEST PUSH0 PUSH1 0xFF DUP3 AND SWAP1 POP SWAP2 SWAP1 POP JUMP JUMPDEST PUSH0 PUSH2 0x4E76 PUSH2 0x4E71 DUP4 PUSH2 0x4E4D JUMP JUMPDEST PUSH2 0x4E58 JUMP JUMPDEST SWAP1 POP SWAP2 SWAP1 POP JUMP JUMPDEST PUSH0 DUP2 PUSH1 0x8 SHR SWAP1 POP SWAP2 SWAP1 POP JUMP JUMPDEST PUSH0 PUSH2 0x4E9B PUSH2 0x4E96 DUP4 PUSH2 0x4E7D JUMP JUMPDEST PUSH2 0x4E58 JUMP JUMPDEST SWAP1 POP SWAP2 SWAP1 POP JUMP JUMPDEST PUSH1 0x40 DUP3 ADD PUSH0 DUP1 DUP4 ADD SLOAD SWAP1 POP PUSH2 0x4EB6 DUP2 PUSH2 0x4E64 JUMP JUMPDEST PUSH2 0x4EC2 PUSH0 DUP7 ADD DUP3 PUSH2 0x4763 JUMP JUMPDEST POP PUSH2 0x4ECC DUP2 PUSH2 0x4E89 JUMP JUMPDEST PUSH2 0x4ED9 PUSH1 0x20 DUP7 ADD DUP3 PUSH2 0x4763 JUMP JUMPDEST POP POP POP POP POP JUMP JUMPDEST PUSH0 PUSH2 0x4EEB DUP4 DUP4 PUSH2 0x4EA2 JUMP JUMPDEST PUSH1 0x40 DUP4 ADD SWAP1 POP SWAP3 SWAP2 POP POP JUMP JUMPDEST PUSH0 PUSH1 0x1 DUP3 ADD SWAP1 POP SWAP2 SWAP1 POP JUMP JUMPDEST PUSH2 0x4F0C DUP2 PUSH2 0x4E30 JUMP JUMPDEST PUSH2 0x4F16 DUP2 DUP5 PUSH2 0x4E3A JUMP JUMPDEST SWAP3 POP PUSH2 0x4F21 DUP3 PUSH2 0x4E44 JUMP JUMPDEST DUP1 PUSH0 JUMPDEST DUP4 DUP2 LT ISZERO PUSH2 0x4F50 JUMPI DUP2 PUSH2 0x4F37 DUP8 DUP3 PUSH2 0x4EE0 JUMP JUMPDEST SWAP7 POP PUSH2 0x4F42 DUP4 PUSH2 0x4EF7 JUMP JUMPDEST SWAP3 POP POP PUSH1 0x1 DUP2 ADD SWAP1 POP PUSH2 0x4F24 JUMP JUMPDEST POP POP POP POP POP POP JUMP JUMPDEST PUSH0 PUSH2 0x1C0 DUP3 ADD SWAP1 POP PUSH2 0x4F6C PUSH0 DUP4 ADD DUP9 PUSH2 0x4498 JUMP JUMPDEST PUSH2 0x4F79 PUSH1 0x20 DUP4 ADD DUP8 PUSH2 0x4498 JUMP JUMPDEST PUSH2 0x4F86 PUSH1 0x40 DUP4 ADD DUP7 PUSH2 0x437F JUMP JUMPDEST PUSH2 0x4F93 PUSH1 0x60 DUP4 ADD DUP6 PUSH2 0x4F03 JUMP JUMPDEST PUSH2 0x4FA1 PUSH2 0x1A0 DUP4 ADD DUP5 PUSH2 0x4498 JUMP JUMPDEST SWAP7 SWAP6 POP POP POP POP POP POP JUMP JUMPDEST PUSH0 PUSH2 0x4FB5 DUP3 PUSH2 0x4724 JUMP JUMPDEST SWAP2 POP PUSH2 0x4FC0 DUP4 PUSH2 0x4724 JUMP JUMPDEST SWAP3 POP DUP3 DUP3 ADD SWAP1 POP PUSH8 0xFFFFFFFFFFFFFFFF DUP2 GT ISZERO PUSH2 0x4FE0 JUMPI PUSH2 0x4FDF PUSH2 0x4C88 JUMP JUMPDEST JUMPDEST SWAP3 SWAP2 POP POP JUMP JUMPDEST PUSH0 PUSH2 0x5000 PUSH2 0x4FFB PUSH2 0x4FF6 DUP5 PUSH2 0x4724 JUMP JUMPDEST PUSH2 0x42FA JUMP JUMPDEST PUSH2 0x40FE JUMP JUMPDEST SWAP1 POP SWAP2 SWAP1 POP JUMP JUMPDEST PUSH2 0x5010 DUP2 PUSH2 0x4FE6 JUMP JUMPDEST DUP3 MSTORE POP POP JUMP JUMPDEST PUSH0 PUSH1 0x40 DUP3 ADD SWAP1 POP PUSH2 0x5029 PUSH0 DUP4 ADD DUP6 PUSH2 0x4498 JUMP JUMPDEST PUSH2 0x5036 PUSH1 0x20 DUP4 ADD DUP5 PUSH2 0x5007 JUMP JUMPDEST SWAP4 SWAP3 POP POP POP JUMP JUMPDEST PUSH0 PUSH1 0x40 DUP3 ADD SWAP1 POP PUSH2 0x5050 PUSH0 DUP4 ADD DUP6 PUSH2 0x4498 JUMP JUMPDEST PUSH2 0x505D PUSH1 0x20 DUP4 ADD DUP5 PUSH2 0x437F JUMP JUMPDEST SWAP4 SWAP3 POP POP POP JUMP JUMPDEST PUSH0 PUSH2 0x506E DUP3 PUSH2 0x45A7 JUMP JUMPDEST SWAP2 POP PUSH2 0x5079 DUP4 PUSH2 0x45A7 JUMP JUMPDEST SWAP3 POP DUP3 DUP3 SUB SWAP1 POP PUSH1 0xFF DUP2 GT ISZERO PUSH2 0x5092 JUMPI PUSH2 0x5091 PUSH2 0x4C88 JUMP JUMPDEST JUMPDEST SWAP3 SWAP2 POP POP JUMP JUMPDEST PUSH0 PUSH2 0x140 DUP3 ADD SWAP1 POP PUSH2 0x50AC PUSH0 DUP4 ADD DUP5 PUSH2 0x4F03 JUMP JUMPDEST SWAP3 SWAP2 POP POP JUMP JUMPDEST PUSH0 PUSH2 0x50BC DUP3 PUSH2 0x40FE JUMP JUMPDEST SWAP2 POP PUSH2 0x50C7 DUP4 PUSH2 0x40FE JUMP JUMPDEST SWAP3 POP DUP3 DUP3 SUB SWAP1 POP DUP2 DUP2 GT ISZERO PUSH2 0x50DF JUMPI PUSH2 0x50DE PUSH2 0x4C88 JUMP JUMPDEST JUMPDEST SWAP3 SWAP2 POP POP JUMP JUMPDEST PUSH0 PUSH2 0x50EF DUP3 PUSH2 0x40FE JUMP JUMPDEST SWAP2 POP PUSH32 0xFFFFFFFFFFFFFFFFFFFFFFFFFFFFFFFFFFFFFFFFFFFFFFFFFFFFFFFFFFFFFFFF DUP3 SUB PUSH2 0x5121 JUMPI PUSH2 0x5120 PUSH2 0x4C88 JUMP JUMPDEST JUMPDEST PUSH1 0x1 DUP3 ADD SWAP1 POP SWAP2 SWAP1 POP JUMP JUMPDEST PUSH0 DUP3 DUP3 MSTORE PUSH1 0x20 DUP3 ADD SWAP1 POP SWAP3 SWAP2 POP POP JUMP JUMPDEST PUSH32 0x5265656E7472616E637947756172643A207265656E7472616E742063616C6C00 PUSH0 DUP3 ADD MSTORE POP JUMP JUMPDEST PUSH0 PUSH2 0x5170 PUSH1 0x1F DUP4 PUSH2 0x512C JUMP JUMPDEST SWAP2 POP PUSH2 0x517B DUP3 PUSH2 0x513C JUMP JUMPDEST PUSH1 0x20 DUP3 ADD SWAP1 POP SWAP2 SWAP1 POP JUMP JUMPDEST PUSH0 PUSH1 0x20 DUP3 ADD SWAP1 POP DUP2 DUP2 SUB PUSH0 DUP4 ADD MSTORE PUSH2 0x519D DUP2 PUSH2 0x5164 JUMP JUMPDEST SWAP1 POP SWAP2 SWAP1 POP JUMP JUMPDEST PUSH0 PUSH1 0x20 DUP3 DUP5 SUB SLT ISZERO PUSH2 0x51B9 JUMPI PUSH2 0x51B8 PUSH2 0x40F6 JUMP JUMPDEST JUMPDEST PUSH0 PUSH2 0x51C6 DUP5 DUP3 DUP6 ADD PUSH2 0x4AC8 JUMP JUMPDEST SWAP2 POP POP SWAP3 SWAP2 POP POP JUMP JUMPDEST PUSH0 DUP2 MLOAD SWAP1 POP PUSH2 0x51DD DUP2 PUSH2 0x4DB3 JUMP JUMPDEST SWAP3 SWAP2 POP POP JUMP JUMPDEST PUSH0 PUSH1 0x20 DUP3 DUP5 SUB SLT ISZERO PUSH2 0x51F8 JUMPI PUSH2 0x51F7 PUSH2 0x40F6 JUMP JUMPDEST JUMPDEST PUSH0 PUSH2 0x5205 DUP5 DUP3 DUP6 ADD PUSH2 0x51CF JUMP JUMPDEST SWAP2 POP POP SWAP3 SWAP2 POP POP JUMP JUMPDEST PUSH0 DUP1 PUSH1 0x40 DUP4 DUP6 SUB SLT ISZERO PUSH2 0x5224 JUMPI PUSH2 0x5223 PUSH2 0x40F6 JUMP JUMPDEST JUMPDEST PUSH0 PUSH2 0x5231 DUP6 DUP3 DUP7 ADD PUSH2 0x51CF JUMP JUMPDEST SWAP3 POP POP PUSH1 0x20 PUSH2 0x5242 DUP6 DUP3 DUP7 ADD PUSH2 0x4AC8 JUMP JUMPDEST SWAP2 POP POP SWAP3 POP SWAP3 SWAP1 POP JUMP JUMPDEST PUSH0 DUP2 SWAP1 POP SWAP2 SWAP1 POP JUMP JUMPDEST PUSH0 DUP2 SWAP1 POP SWAP2 SWAP1 POP JUMP JUMPDEST PUSH0 DUP2 PUSH0 SHL SWAP1 POP SWAP2 SWAP1 POP JUMP JUMPDEST PUSH0 PUSH2 0x5283 PUSH2 0x527E PUSH2 0x5279 DUP5 PUSH2 0x524C JUMP JUMPDEST PUSH2 0x525E JUMP JUMPDEST PUSH2 0x5255 JUMP JUMPDEST SWAP1 POP SWAP2 SWAP1 POP JUMP JUMPDEST PUSH2 0x5293 DUP2 PUSH2 0x5269 JUMP JUMPDEST DUP3 MSTORE POP POP JUMP JUMPDEST PUSH0 DUP2 SWAP1 POP SWAP2 SWAP1 POP JUMP JUMPDEST PUSH0 PUSH2 0x52BC PUSH2 0x52B7 PUSH2 0x52B2 DUP5 PUSH2 0x5299 JUMP JUMPDEST PUSH2 0x42FA JUMP JUMPDEST PUSH2 0x4724 JUMP JUMPDEST SWAP1 POP SWAP2 SWAP1 POP JUMP JUMPDEST PUSH2 0x52CC DUP2 PUSH2 0x52A2 JUMP JUMPDEST DUP3 MSTORE POP POP JUMP JUMPDEST PUSH0 DUP2 SWAP1 POP SWAP2 SWAP1 POP JUMP JUMPDEST PUSH0 PUSH2 0xFFFF DUP3 AND SWAP1 POP SWAP2 SWAP1 POP JUMP JUMPDEST PUSH0 PUSH2 0x5302 PUSH2 0x52FD PUSH2 0x52F8 DUP5 PUSH2 0x52D2 JUMP JUMPDEST PUSH2 0x42FA JUMP JUMPDEST PUSH2 0x52DB JUMP JUMPDEST SWAP1 POP SWAP2 SWAP1 POP JUMP JUMPDEST PUSH2 0x5312 DUP2 PUSH2 0x52E8 JUMP JUMPDEST DUP3 MSTORE POP POP JUMP JUMPDEST PUSH0 DUP2 SWAP1 POP SWAP2 SWAP1 POP JUMP JUMPDEST PUSH0 PUSH2 0x533B PUSH2 0x5336 PUSH2 0x5331 DUP5 PUSH2 0x5318 JUMP JUMPDEST PUSH2 0x42FA JUMP JUMPDEST PUSH2 0x4B53 JUMP JUMPDEST SWAP1 POP SWAP2 SWAP1 POP JUMP JUMPDEST PUSH2 0x534B DUP2 PUSH2 0x5321 JUMP JUMPDEST DUP3 MSTORE POP POP JUMP JUMPDEST PUSH2 0x535A DUP2 PUSH2 0x4B53 JUMP JUMPDEST DUP3 MSTORE POP POP JUMP JUMPDEST PUSH0 PUSH1 0xA0 DUP3 ADD SWAP1 POP PUSH2 0x5373 PUSH0 DUP4 ADD DUP9 PUSH2 0x528A JUMP JUMPDEST PUSH2 0x5380 PUSH1 0x20 DUP4 ADD DUP8 PUSH2 0x52C3 JUMP JUMPDEST PUSH2 0x538D PUSH1 0x40 DUP4 ADD DUP7 PUSH2 0x5309 JUMP JUMPDEST PUSH2 0x539A PUSH1 0x60 DUP4 ADD DUP6 PUSH2 0x5342 JUMP JUMPDEST PUSH2 0x53A7 PUSH1 0x80 DUP4 ADD DUP5 PUSH2 0x5351 JUMP JUMPDEST SWAP7 SWAP6 POP POP POP POP POP POP JUMP JUMPDEST PUSH0 PUSH1 0x60 DUP3 ADD SWAP1 POP PUSH2 0x53C4 PUSH0 DUP4 ADD DUP7 PUSH2 0x437F JUMP JUMPDEST PUSH2 0x53D1 PUSH1 0x20 DUP4 ADD DUP6 PUSH2 0x4498 JUMP JUMPDEST PUSH2 0x53DE PUSH1 0x40 DUP4 ADD DUP5 PUSH2 0x437F JUMP JUMPDEST SWAP5 SWAP4 POP POP POP POP JUMP JUMPDEST PUSH0 PUSH1 0x40 DUP3 ADD SWAP1 POP PUSH2 0x53F9 PUSH0 DUP4 ADD DUP6 PUSH2 0x437F JUMP JUMPDEST PUSH2 0x5406 PUSH1 0x20 DUP4 ADD DUP5 PUSH2 0x4498 JUMP JUMPDEST SWAP4 SWAP3 POP POP POP JUMP JUMPDEST PUSH0 PUSH2 0x5417 DUP3 PUSH2 0x40FE JUMP JUMPDEST SWAP2 POP PUSH2 0x5422 DUP4 PUSH2 0x40FE JUMP JUMPDEST SWAP3 POP DUP3 PUSH2 0x5432 JUMPI PUSH2 0x5431 PUSH2 0x4CF6 JUMP JUMPDEST JUMPDEST DUP3 DUP3 MOD SWAP1 POP SWAP3 SWAP2 POP POP JUMP JUMPDEST PUSH0 PUSH1 0x60 DUP3 ADD SWAP1 POP PUSH2 0x5450 PUSH0 DUP4 ADD DUP7 PUSH2 0x437F JUMP JUMPDEST PUSH2 0x545D PUSH1 0x20 DUP4 ADD DUP6 PUSH2 0x437F JUMP JUMPDEST PUSH2 0x546A PUSH1 0x40 DUP4 ADD DUP5 PUSH2 0x4498 JUMP JUMPDEST SWAP5 SWAP4 POP POP POP POP JUMP JUMPDEST PUSH0 PUSH2 0x547C DUP3 PUSH2 0x4A95 JUMP JUMPDEST SWAP2 POP PUSH2 0x5487 DUP4 PUSH2 0x4A95 JUMP JUMPDEST SWAP3 POP DUP3 DUP3 SUB SWAP1 POP DUP2 DUP2 SLT PUSH0 DUP5 SLT AND DUP3 DUP3 SGT PUSH0 DUP6 SLT ISZERO AND OR ISZERO PUSH2 0x54AC JUMPI PUSH2 0x54AB PUSH2 0x4C88 JUMP JUMPDEST JUMPDEST SWAP3 SWAP2 POP POP JUMP JUMPDEST PUSH0 PUSH2 0x54BC DUP3 PUSH2 0x4A95 JUMP JUMPDEST SWAP2 POP PUSH2 0x54C7 DUP4 PUSH2 0x4A95 JUMP JUMPDEST SWAP3 POP DUP3 PUSH2 0x54D7 JUMPI PUSH2 0x54D6 PUSH2 0x4CF6 JUMP JUMPDEST JUMPDEST PUSH1 0x1 PUSH0 SUB DUP4 EQ PUSH32 0x8000000000000000000000000000000000000000000000000000000000000000 DUP4 EQ AND ISZERO PUSH2 0x550F JUMPI PUSH2 0x550E PUSH2 0x4C88 JUMP JUMPDEST JUMPDEST DUP3 DUP3 SDIV SWAP1 POP SWAP3 SWAP2 POP POP JUMP JUMPDEST PUSH0 PUSH2 0x5524 DUP3 PUSH2 0x4A95 JUMP JUMPDEST SWAP2 POP PUSH2 0x552F DUP4 PUSH2 0x4A95 JUMP JUMPDEST SWAP3 POP DUP3 DUP3 ADD SWAP1 POP DUP3 DUP2 SLT ISZERO PUSH0 DUP4 SLT AND DUP4 DUP3 SLT PUSH0 DUP5 SLT ISZERO AND OR ISZERO PUSH2 0x5555 JUMPI PUSH2 0x5554 PUSH2 0x4C88 JUMP JUMPDEST JUMPDEST SWAP3 SWAP2 POP POP JUMP JUMPDEST PUSH0 PUSH2 0x5565 DUP3 PUSH2 0x4A95 JUMP JUMPDEST SWAP2 POP PUSH32 0x7FFFFFFFFFFFFFFFFFFFFFFFFFFFFFFFFFFFFFFFFFFFFFFFFFFFFFFFFFFFFFFF DUP3 SUB PUSH2 0x5597 JUMPI PUSH2 0x5596 PUSH2 0x4C88 JUMP JUMPDEST JUMPDEST PUSH1 0x1 DUP3 ADD SWAP1 POP SWAP2 SWAP1 POP JUMP JUMPDEST PUSH0 PUSH2 0x55AC DUP3 PUSH2 0x4A95 JUMP JUMPDEST SWAP2 POP PUSH32 0x8000000000000000000000000000000000000000000000000000000000000000 DUP3 SUB PUSH2 0x55DE JUMPI PUSH2 0x55DD PUSH2 0x4C88 JUMP JUMPDEST JUMPDEST PUSH1 0x1 DUP3 SUB SWAP1 POP SWAP2 SWAP1 POP JUMP JUMPDEST PUSH0 DUP2 MLOAD SWAP1 POP SWAP2 SWAP1 POP JUMP JUMPDEST PUSH0 JUMPDEST DUP4 DUP2 LT ISZERO PUSH2 0x5610 JUMPI DUP1 DUP3 ADD MLOAD DUP2 DUP5 ADD MSTORE PUSH1 0x20 DUP2 ADD SWAP1 POP PUSH2 0x55F5 JUMP JUMPDEST PUSH0 DUP5 DUP5 ADD MSTORE POP POP POP POP JUMP JUMPDEST PUSH0 PUSH2 0x5625 DUP3 PUSH2 0x55E9 JUMP JUMPDEST PUSH2 0x562F DUP2 DUP6 PUSH2 0x49E0 JUMP JUMPDEST SWAP4 POP PUSH2 0x563F DUP2 DUP6 PUSH1 0x20 DUP7 ADD PUSH2 0x55F3 JUMP JUMPDEST DUP1 DUP5 ADD SWAP2 POP POP SWAP3 SWAP2 POP POP JUMP JUMPDEST PUSH0 PUSH2 0x5656 DUP3 DUP5 PUSH2 0x561B JUMP JUMPDEST SWAP2 POP DUP2 SWAP1 POP SWAP3 SWAP2 POP POP JUMP INVALID LOG2 PUSH5 0x6970667358 0x22 SLT KECCAK256 GAS INVALID ORIGIN PUSH13 0x64EE888621B5545A698F589B30 PUSH28 0x12BC45FFEFF1294C4EDBE989402364736F6C63430008140033000000 "
		},
		"gasEstimates": {
			"creation": {
				"codeDepositCost": "4433400",
				"executionCost": "infinite",
				"totalCost": "infinite"
			},
			"external": {
				"Bankroll()": "infinite",
				"ChainLinkVRF()": "2553",
				"IChainLinkVRF()": "infinite",
				"LINK_ETH_FEED()": "infinite",
				"VRFFees()": "2448",
				"VideoPoker_GetState(address)": "infinite",
				"VideoPoker_Refund()": "infinite",
				"VideoPoker_Replace(bool[5])": "infinite",
				"VideoPoker_Start(uint256,address)": "infinite",
				"_determineHandPayout((uint8,uint8)[5])": "infinite",
				"_trustedForwarder()": "2576",
				"getVRFFee(uint256)": "infinite",
				"isTrustedForwarder(address)": "2823",
				"rawFulfillRandomWords(uint256,uint256[])": "infinite",
				"transferFees(address)": "infinite"
			},
			"internal": {
				"_kellyWager(uint256,address)": "infinite",
				"_pickCard(uint8,uint256,address,struct VideoPoker.Card memory[] memory)": "infinite",
				"_quickSort(struct VideoPoker.Card memory[5] memory,int256,int256)": "infinite",
				"_removeCardFromDeck(uint256,struct VideoPoker.Card memory[] memory)": "infinite",
				"_sort(struct VideoPoker.Card memory[5] memory)": "infinite",
				"fulfillRandomWords(uint256,uint256[] memory)": "infinite"
			}
		},
		"methodIdentifiers": {
			"Bankroll()": "d0bcfc0c",
			"ChainLinkVRF()": "953995ea",
			"IChainLinkVRF()": "4dd189d5",
			"LINK_ETH_FEED()": "ad178361",
			"VRFFees()": "8d7c16d2",
			"VideoPoker_GetState(address)": "f2d3444b",
			"VideoPoker_Refund()": "e67ae769",
			"VideoPoker_Replace(bool[5])": "e40ea4bc",
			"VideoPoker_Start(uint256,address)": "6c8abecc",
			"_determineHandPayout((uint8,uint8)[5])": "ec0f5d8c",
			"_trustedForwarder()": "56c022bb",
			"getVRFFee(uint256)": "8bd16114",
			"isTrustedForwarder(address)": "572b6c05",
			"rawFulfillRandomWords(uint256,uint256[])": "1fe543e3",
			"transferFees(address)": "63dc4ef5"
		}
	},
	"abi": [
		{
			"inputs": [
				{
					"internalType": "address",
					"name": "_bankroll",
					"type": "address"
				},
				{
					"internalType": "address",
					"name": "_vrf",
					"type": "address"
				},
				{
					"internalType": "address",
					"name": "link_eth_feed",
					"type": "address"
				},
				{
					"internalType": "address",
					"name": "_forwarder",
					"type": "address"
				}
			],
			"stateMutability": "nonpayable",
			"type": "constructor"
		},
		{
			"inputs": [
				{
					"internalType": "address",
					"name": "target",
					"type": "address"
				}
			],
			"name": "AddressEmptyCode",
			"type": "error"
		},
		{
			"inputs": [
				{
					"internalType": "address",
					"name": "account",
					"type": "address"
				}
			],
			"name": "AddressInsufficientBalance",
			"type": "error"
		},
		{
			"inputs": [],
			"name": "AlreadyInGame",
			"type": "error"
		},
		{
			"inputs": [
				{
					"internalType": "uint256",
					"name": "requestID",
					"type": "uint256"
				}
			],
			"name": "AwaitingVRF",
			"type": "error"
		},
		{
			"inputs": [
				{
					"internalType": "uint256",
					"name": "have",
					"type": "uint256"
				},
				{
					"internalType": "uint256",
					"name": "want",
					"type": "uint256"
				}
			],
			"name": "BlockNumberTooLow",
			"type": "error"
		},
		{
			"inputs": [],
			"name": "FailedInnerCall",
			"type": "error"
		},
		{
			"inputs": [
				{
					"internalType": "uint256",
					"name": "required",
					"type": "uint256"
				},
				{
					"internalType": "uint256",
					"name": "sent",
					"type": "uint256"
				}
			],
			"name": "InvalidValue",
			"type": "error"
		},
		{
			"inputs": [],
			"name": "NoFeeRequired",
			"type": "error"
		},
		{
			"inputs": [],
			"name": "NoRequestPending",
			"type": "error"
		},
		{
			"inputs": [],
			"name": "NotApprovedBankroll",
			"type": "error"
		},
		{
			"inputs": [],
			"name": "NotInGame",
			"type": "error"
		},
		{
			"inputs": [
				{
					"internalType": "address",
					"name": "want",
					"type": "address"
				},
				{
					"internalType": "address",
					"name": "have",
					"type": "address"
				}
			],
			"name": "NotOwner",
			"type": "error"
		},
		{
			"inputs": [
				{
					"internalType": "address",
					"name": "have",
					"type": "address"
				},
				{
					"internalType": "address",
					"name": "want",
					"type": "address"
				}
			],
			"name": "OnlyCoordinatorCanFulfill",
			"type": "error"
		},
		{
			"inputs": [
				{
					"internalType": "uint256",
					"name": "suspensionTime",
					"type": "uint256"
				}
			],
			"name": "PlayerSuspended",
			"type": "error"
		},
		{
			"inputs": [],
			"name": "RefundFailed",
			"type": "error"
		},
		{
			"inputs": [
				{
					"internalType": "address",
					"name": "token",
					"type": "address"
				}
			],
			"name": "SafeERC20FailedOperation",
			"type": "error"
		},
		{
			"inputs": [],
			"name": "TransferFailed",
			"type": "error"
		},
		{
			"inputs": [
				{
					"internalType": "uint256",
					"name": "wager",
					"type": "uint256"
				},
				{
					"internalType": "uint256",
					"name": "maxWager",
					"type": "uint256"
				}
			],
			"name": "WagerAboveLimit",
			"type": "error"
		},
		{
			"inputs": [],
			"name": "ZeroWager",
			"type": "error"
		},
		{
			"anonymous": false,
			"inputs": [
				{
					"indexed": true,
					"internalType": "address",
					"name": "playerAddress",
					"type": "address"
				},
				{
					"indexed": false,
					"internalType": "uint256",
					"name": "VRFFee",
					"type": "uint256"
				}
			],
			"name": "VideoPoker_Fee_Event",
			"type": "event"
		},
		{
			"anonymous": false,
			"inputs": [
				{
					"indexed": true,
					"internalType": "address",
					"name": "playerAddress",
					"type": "address"
				},
				{
					"indexed": false,
					"internalType": "uint256",
					"name": "wager",
					"type": "uint256"
				},
				{
					"indexed": false,
					"internalType": "uint256",
					"name": "payout",
					"type": "uint256"
				},
				{
					"indexed": false,
					"internalType": "address",
					"name": "tokenAddress",
					"type": "address"
				},
				{
					"components": [
						{
							"internalType": "uint8",
							"name": "number",
							"type": "uint8"
						},
						{
							"internalType": "uint8",
							"name": "suit",
							"type": "uint8"
						}
					],
					"indexed": false,
					"internalType": "struct VideoPoker.Card[5]",
					"name": "playerHand",
					"type": "tuple[5]"
				},
				{
					"indexed": false,
					"internalType": "uint256",
					"name": "outcome",
					"type": "uint256"
				}
			],
			"name": "VideoPoker_Outcome_Event",
			"type": "event"
		},
		{
			"anonymous": false,
			"inputs": [
				{
					"indexed": true,
					"internalType": "address",
					"name": "playerAddress",
					"type": "address"
				},
				{
					"indexed": false,
					"internalType": "uint256",
					"name": "wager",
					"type": "uint256"
				},
				{
					"indexed": false,
					"internalType": "address",
					"name": "tokenAddress",
					"type": "address"
				},
				{
					"indexed": false,
					"internalType": "uint256",
					"name": "VRFFee",
					"type": "uint256"
				}
			],
			"name": "VideoPoker_Play_Event",
			"type": "event"
		},
		{
			"anonymous": false,
			"inputs": [
				{
					"indexed": true,
					"internalType": "address",
					"name": "player",
					"type": "address"
				},
				{
					"indexed": false,
					"internalType": "uint256",
					"name": "wager",
					"type": "uint256"
				},
				{
					"indexed": false,
					"internalType": "address",
					"name": "tokenAddress",
					"type": "address"
				}
			],
			"name": "VideoPoker_Refund_Event",
			"type": "event"
		},
		{
			"anonymous": false,
			"inputs": [
				{
					"indexed": true,
					"internalType": "address",
					"name": "playerAddress",
					"type": "address"
				},
				{
					"components": [
						{
							"internalType": "uint8",
							"name": "number",
							"type": "uint8"
						},
						{
							"internalType": "uint8",
							"name": "suit",
							"type": "uint8"
						}
					],
					"indexed": false,
					"internalType": "struct VideoPoker.Card[5]",
					"name": "playerHand",
					"type": "tuple[5]"
				}
			],
			"name": "VideoPoker_Start_Event",
			"type": "event"
		},
		{
			"inputs": [],
			"name": "Bankroll",
			"outputs": [
				{
					"internalType": "contract IBankRoll",
					"name": "",
					"type": "address"
				}
			],
			"stateMutability": "view",
			"type": "function"
		},
		{
			"inputs": [],
			"name": "ChainLinkVRF",
			"outputs": [
				{
					"internalType": "address",
					"name": "",
					"type": "address"
				}
			],
			"stateMutability": "view",
			"type": "function"
		},
		{
			"inputs": [],
			"name": "IChainLinkVRF",
			"outputs": [
				{
					"internalType": "contract IVRFCoordinatorV2",
					"name": "",
					"type": "address"
				}
			],
			"stateMutability": "view",
			"type": "function"
		},
		{
			"inputs": [],
			"name": "LINK_ETH_FEED",
			"outputs": [
				{
					"internalType": "contract AggregatorV3Interface",
					"name": "",
					"type": "address"
				}
			],
			"stateMutability": "view",
			"type": "function"
		},
		{
			"inputs": [],
			"name": "VRFFees",
			"outputs": [
				{
					"internalType": "uint256",
					"name": "",
					"type": "uint256"
				}
			],
			"stateMutability": "view",
			"type": "function"
		},
		{
			"inputs": [
				{
					"internalType": "address",
					"name": "player",
					"type": "address"
				}
			],
			"name": "VideoPoker_GetState",
			"outputs": [
				{
					"components": [
						{
							"internalType": "uint256",
							"name": "wager",
							"type": "uint256"
						},
						{
							"internalType": "uint256",
							"name": "requestID",
							"type": "uint256"
						},
						{
							"internalType": "address",
							"name": "tokenAddress",
							"type": "address"
						},
						{
							"internalType": "uint64",
							"name": "blockNumber",
							"type": "uint64"
						},
						{
							"components": [
								{
									"internalType": "uint8",
									"name": "number",
									"type": "uint8"
								},
								{
									"internalType": "uint8",
									"name": "suit",
									"type": "uint8"
								}
							],
							"internalType": "struct VideoPoker.Card[5]",
							"name": "cardsInHand",
							"type": "tuple[5]"
						},
						{
							"internalType": "bool[5]",
							"name": "toReplace",
							"type": "bool[5]"
						},
						{
							"internalType": "bool",
							"name": "ingame",
							"type": "bool"
						},
						{
							"internalType": "bool",
							"name": "isFirstRequest",
							"type": "bool"
						}
					],
					"internalType": "struct VideoPoker.VideoPokerGame",
					"name": "videopokerState",
					"type": "tuple"
				}
			],
			"stateMutability": "view",
			"type": "function"
		},
		{
			"inputs": [],
			"name": "VideoPoker_Refund",
			"outputs": [],
			"stateMutability": "nonpayable",
			"type": "function"
		},
		{
			"inputs": [
				{
					"internalType": "bool[5]",
					"name": "toReplace",
					"type": "bool[5]"
				}
			],
			"name": "VideoPoker_Replace",
			"outputs": [],
			"stateMutability": "payable",
			"type": "function"
		},
		{
			"inputs": [
				{
					"internalType": "uint256",
					"name": "wager",
					"type": "uint256"
				},
				{
					"internalType": "address",
					"name": "tokenAddress",
					"type": "address"
				}
			],
			"name": "VideoPoker_Start",
			"outputs": [],
			"stateMutability": "payable",
			"type": "function"
		},
		{
			"inputs": [
				{
					"components": [
						{
							"internalType": "uint8",
							"name": "number",
							"type": "uint8"
						},
						{
							"internalType": "uint8",
							"name": "suit",
							"type": "uint8"
						}
					],
					"internalType": "struct VideoPoker.Card[5]",
					"name": "cardsInHand",
					"type": "tuple[5]"
				}
			],
			"name": "_determineHandPayout",
			"outputs": [
				{
					"internalType": "uint256",
					"name": "",
					"type": "uint256"
				},
				{
					"internalType": "uint256",
					"name": "",
					"type": "uint256"
				}
			],
			"stateMutability": "pure",
			"type": "function"
		},
		{
			"inputs": [],
			"name": "_trustedForwarder",
			"outputs": [
				{
					"internalType": "address",
					"name": "",
					"type": "address"
				}
			],
			"stateMutability": "view",
			"type": "function"
		},
		{
			"inputs": [
				{
					"internalType": "uint256",
					"name": "gasAmount",
					"type": "uint256"
				}
			],
			"name": "getVRFFee",
			"outputs": [
				{
					"internalType": "uint256",
					"name": "fee",
					"type": "uint256"
				}
			],
			"stateMutability": "view",
			"type": "function"
		},
		{
			"inputs": [
				{
					"internalType": "address",
					"name": "forwarder",
					"type": "address"
				}
			],
			"name": "isTrustedForwarder",
			"outputs": [
				{
					"internalType": "bool",
					"name": "",
					"type": "bool"
				}
			],
			"stateMutability": "view",
			"type": "function"
		},
		{
			"inputs": [
				{
					"internalType": "uint256",
					"name": "requestId",
					"type": "uint256"
				},
				{
					"internalType": "uint256[]",
					"name": "randomWords",
					"type": "uint256[]"
				}
			],
			"name": "rawFulfillRandomWords",
			"outputs": [],
			"stateMutability": "nonpayable",
			"type": "function"
		},
		{
			"inputs": [
				{
					"internalType": "address",
					"name": "to",
					"type": "address"
				}
			],
			"name": "transferFees",
			"outputs": [],
			"stateMutability": "nonpayable",
			"type": "function"
		}
	]
}