{
  "_format": "hh-sol-artifact-1",
  "contractName": "Slots",
  "sourceName": "contracts/OneArm.sol",
  "abi": [
    {
      "inputs": [
        {
          "internalType": "address",
          "name": "_bankroll",
          "type": "address"
        },
        {
          "internalType": "address",
          "name": "_vrf",
          "type": "address"
        },
        {
          "internalType": "address",
          "name": "link_eth_feed",
          "type": "address"
        },
        {
          "internalType": "address",
          "name": "_forwarder",
          "type": "address"
        },
        {
          "internalType": "uint16[]",
          "name": "_multipliers",
          "type": "uint16[]"
        },
        {
          "internalType": "uint16[]",
          "name": "_outcomeNum",
          "type": "uint16[]"
        },
        {
          "internalType": "uint16",
          "name": "_numOutcomes",
          "type": "uint16"
        }
      ],
      "stateMutability": "nonpayable",
      "type": "constructor"
    },
    {
      "inputs": [
        {
          "internalType": "address",
          "name": "target",
          "type": "address"
        }
      ],
      "name": "AddressEmptyCode",
      "type": "error"
    },
    {
      "inputs": [
        {
          "internalType": "address",
          "name": "account",
          "type": "address"
        }
      ],
      "name": "AddressInsufficientBalance",
      "type": "error"
    },
    {
      "inputs": [
        {
          "internalType": "uint256",
          "name": "requestID",
          "type": "uint256"
        }
      ],
      "name": "AwaitingVRF",
      "type": "error"
    },
    {
      "inputs": [
        {
          "internalType": "uint256",
          "name": "have",
          "type": "uint256"
        },
        {
          "internalType": "uint256",
          "name": "want",
          "type": "uint256"
        }
      ],
      "name": "BlockNumberTooLow",
      "type": "error"
    },
    {
      "inputs": [],
      "name": "FailedInnerCall",
      "type": "error"
    },
    {
      "inputs": [
        {
          "internalType": "uint256",
          "name": "maxNumBets",
          "type": "uint256"
        }
      ],
      "name": "InvalidNumBets",
      "type": "error"
    },
    {
      "inputs": [
        {
          "internalType": "uint256",
          "name": "required",
          "type": "uint256"
        },
        {
          "internalType": "uint256",
          "name": "sent",
          "type": "uint256"
        }
      ],
      "name": "InvalidValue",
      "type": "error"
    },
    {
      "inputs": [],
      "name": "NotApprovedBankroll",
      "type": "error"
    },
    {
      "inputs": [],
      "name": "NotAwaitingVRF",
      "type": "error"
    },
    {
      "inputs": [
        {
          "internalType": "address",
          "name": "want",
          "type": "address"
        },
        {
          "internalType": "address",
          "name": "have",
          "type": "address"
        }
      ],
      "name": "NotOwner",
      "type": "error"
    },
    {
      "inputs": [
        {
          "internalType": "address",
          "name": "have",
          "type": "address"
        },
        {
          "internalType": "address",
          "name": "want",
          "type": "address"
        }
      ],
      "name": "OnlyCoordinatorCanFulfill",
      "type": "error"
    },
    {
      "inputs": [
        {
          "internalType": "uint256",
          "name": "suspensionTime",
          "type": "uint256"
        }
      ],
      "name": "PlayerSuspended",
      "type": "error"
    },
    {
      "inputs": [],
      "name": "RefundFailed",
      "type": "error"
    },
    {
      "inputs": [
        {
          "internalType": "address",
          "name": "token",
          "type": "address"
        }
      ],
      "name": "SafeERC20FailedOperation",
      "type": "error"
    },
    {
      "inputs": [],
      "name": "TransferFailed",
      "type": "error"
    },
    {
      "inputs": [
        {
          "internalType": "uint256",
          "name": "wager",
          "type": "uint256"
        },
        {
          "internalType": "uint256",
          "name": "maxWager",
          "type": "uint256"
        }
      ],
      "name": "WagerAboveLimit",
      "type": "error"
    },
    {
      "inputs": [],
      "name": "ZeroWager",
      "type": "error"
    },
    {
      "anonymous": false,
      "inputs": [
        {
          "indexed": true,
          "internalType": "address",
          "name": "playerAddress",
          "type": "address"
        },
        {
          "indexed": false,
          "internalType": "uint256",
          "name": "wager",
          "type": "uint256"
        },
        {
          "indexed": false,
          "internalType": "uint256",
          "name": "payout",
          "type": "uint256"
        },
        {
          "indexed": false,
          "internalType": "address",
          "name": "tokenAddress",
          "type": "address"
        },
        {
          "indexed": false,
          "internalType": "uint16[]",
          "name": "slotIDs",
          "type": "uint16[]"
        },
        {
          "indexed": false,
          "internalType": "uint256[]",
          "name": "multipliers",
          "type": "uint256[]"
        },
        {
          "indexed": false,
          "internalType": "uint256[]",
          "name": "payouts",
          "type": "uint256[]"
        },
        {
          "indexed": false,
          "internalType": "uint32",
          "name": "numGames",
          "type": "uint32"
        }
      ],
      "name": "Slots_Outcome_Event",
      "type": "event"
    },
    {
      "anonymous": false,
      "inputs": [
        {
          "indexed": true,
          "internalType": "address",
          "name": "playerAddress",
          "type": "address"
        },
        {
          "indexed": false,
          "internalType": "uint256",
          "name": "wager",
          "type": "uint256"
        },
        {
          "indexed": false,
          "internalType": "address",
          "name": "tokenAddress",
          "type": "address"
        },
        {
          "indexed": false,
          "internalType": "uint32",
          "name": "numBets",
          "type": "uint32"
        },
        {
          "indexed": false,
          "internalType": "uint256",
          "name": "stopGain",
          "type": "uint256"
        },
        {
          "indexed": false,
          "internalType": "uint256",
          "name": "stopLoss",
          "type": "uint256"
        },
        {
          "indexed": false,
          "internalType": "uint256",
          "name": "VRFFee",
          "type": "uint256"
        }
      ],
      "name": "Slots_Play_Event",
      "type": "event"
    },
    {
      "anonymous": false,
      "inputs": [
        {
          "indexed": true,
          "internalType": "address",
          "name": "player",
          "type": "address"
        },
        {
          "indexed": false,
          "internalType": "uint256",
          "name": "wager",
          "type": "uint256"
        },
        {
          "indexed": false,
          "internalType": "address",
          "name": "tokenAddress",
          "type": "address"
        }
      ],
      "name": "Slots_Refund_Event",
      "type": "event"
    },
    {
      "inputs": [],
      "name": "Bankroll",
      "outputs": [
        {
          "internalType": "contract IBankRoll",
          "name": "",
          "type": "address"
        }
      ],
      "stateMutability": "view",
      "type": "function"
    },
    {
      "inputs": [],
      "name": "ChainLinkVRF",
      "outputs": [
        {
          "internalType": "address",
          "name": "",
          "type": "address"
        }
      ],
      "stateMutability": "view",
      "type": "function"
    },
    {
      "inputs": [],
      "name": "IChainLinkVRF",
      "outputs": [
        {
          "internalType": "contract IVRFCoordinatorV2",
          "name": "",
          "type": "address"
        }
      ],
      "stateMutability": "view",
      "type": "function"
    },
    {
      "inputs": [],
      "name": "LINK_ETH_FEED",
      "outputs": [
        {
          "internalType": "contract AggregatorV3Interface",
          "name": "",
          "type": "address"
        }
      ],
      "stateMutability": "view",
      "type": "function"
    },
    {
      "inputs": [],
      "name": "Slots_GetMultipliers",
      "outputs": [
        {
          "internalType": "uint16[]",
          "name": "multipliers",
          "type": "uint16[]"
        }
      ],
      "stateMutability": "view",
      "type": "function"
    },
    {
      "inputs": [
        {
          "internalType": "address",
          "name": "player",
          "type": "address"
        }
      ],
      "name": "Slots_GetState",
      "outputs": [
        {
          "components": [
            {
              "internalType": "uint256",
              "name": "wager",
              "type": "uint256"
            },
            {
              "internalType": "uint256",
              "name": "stopGain",
              "type": "uint256"
            },
            {
              "internalType": "uint256",
              "name": "stopLoss",
              "type": "uint256"
            },
            {
              "internalType": "uint256",
              "name": "requestID",
              "type": "uint256"
            },
            {
              "internalType": "address",
              "name": "tokenAddress",
              "type": "address"
            },
            {
              "internalType": "uint64",
              "name": "blockNumber",
              "type": "uint64"
            },
            {
              "internalType": "uint32",
              "name": "numBets",
              "type": "uint32"
            }
          ],
          "internalType": "struct Slots.SlotsGame",
          "name": "",
          "type": "tuple"
        }
      ],
      "stateMutability": "view",
      "type": "function"
    },
    {
      "inputs": [
        {
          "internalType": "uint256",
          "name": "wager",
          "type": "uint256"
        },
        {
          "internalType": "address",
          "name": "tokenAddress",
          "type": "address"
        },
        {
          "internalType": "uint32",
          "name": "numBets",
          "type": "uint32"
        },
        {
          "internalType": "uint256",
          "name": "stopGain",
          "type": "uint256"
        },
        {
          "internalType": "uint256",
          "name": "stopLoss",
          "type": "uint256"
        }
      ],
      "name": "Slots_Play",
      "outputs": [],
      "stateMutability": "payable",
      "type": "function"
    },
    {
      "inputs": [],
      "name": "Slots_Refund",
      "outputs": [],
      "stateMutability": "nonpayable",
      "type": "function"
    },
    {
      "inputs": [],
      "name": "VRFFees",
      "outputs": [
        {
          "internalType": "uint256",
          "name": "",
          "type": "uint256"
        }
      ],
      "stateMutability": "view",
      "type": "function"
    },
    {
      "inputs": [],
      "name": "_trustedForwarder",
      "outputs": [
        {
          "internalType": "address",
          "name": "",
          "type": "address"
        }
      ],
      "stateMutability": "view",
      "type": "function"
    },
    {
      "inputs": [
        {
          "internalType": "uint256",
          "name": "gasAmount",
          "type": "uint256"
        }
      ],
      "name": "getVRFFee",
      "outputs": [
        {
          "internalType": "uint256",
          "name": "fee",
          "type": "uint256"
        }
      ],
      "stateMutability": "view",
      "type": "function"
    },
    {
      "inputs": [
        {
          "internalType": "address",
          "name": "forwarder",
          "type": "address"
        }
      ],
      "name": "isTrustedForwarder",
      "outputs": [
        {
          "internalType": "bool",
          "name": "",
          "type": "bool"
        }
      ],
      "stateMutability": "view",
      "type": "function"
    },
    {
      "inputs": [
        {
          "internalType": "uint256",
          "name": "requestId",
          "type": "uint256"
        },
        {
          "internalType": "uint256[]",
          "name": "randomWords",
          "type": "uint256[]"
        }
      ],
      "name": "rawFulfillRandomWords",
      "outputs": [],
      "stateMutability": "nonpayable",
      "type": "function"
    },
    {
      "inputs": [
        {
          "internalType": "address",
          "name": "to",
          "type": "address"
        }
      ],
      "name": "transferFees",
      "outputs": [],
      "stateMutability": "nonpayable",
      "type": "function"
    }
  ],
  "bytecode": "0x60806040523480156200001157600080fd5b5060405162003fd238038062003fd28339818101604052810190620000379190620004fa565b600160008190555086600660006101000a81548173ffffffffffffffffffffffffffffffffffffffff021916908373ffffffffffffffffffffffffffffffffffffffff16021790555085600560006101000a81548173ffffffffffffffffffffffffffffffffffffffff021916908373ffffffffffffffffffffffffffffffffffffffff16021790555084600460006101000a81548173ffffffffffffffffffffffffffffffffffffffff021916908373ffffffffffffffffffffffffffffffffffffffff16021790555085600260006101000a81548173ffffffffffffffffffffffffffffffffffffffff021916908373ffffffffffffffffffffffffffffffffffffffff16021790555083600360006101000a81548173ffffffffffffffffffffffffffffffffffffffff021916908373ffffffffffffffffffffffffffffffffffffffff16021790555062000197838383620001a460201b60201c565b5050505050505062000678565b60005b600a60009054906101000a900461ffff1661ffff168161ffff1610156200020a57600960008261ffff1661ffff16815260200190815260200160002060006101000a81549061ffff0219169055808062000201906200061a565b915050620001a7565b5080600a60006101000a81548161ffff021916908361ffff16021790555060005b83518161ffff161015620002c757838161ffff168151811062000253576200025262000649565b5b602002602001015160096000858461ffff168151811062000279576200027862000649565b5b602002602001015161ffff1661ffff16815260200190815260200160002060006101000a81548161ffff021916908361ffff1602179055508080620002be906200061a565b9150506200022b565b50505050565b6000604051905090565b600080fd5b600080fd5b600073ffffffffffffffffffffffffffffffffffffffff82169050919050565b60006200030e82620002e1565b9050919050565b620003208162000301565b81146200032c57600080fd5b50565b600081519050620003408162000315565b92915050565b600080fd5b6000601f19601f8301169050919050565b7f4e487b7100000000000000000000000000000000000000000000000000000000600052604160045260246000fd5b62000396826200034b565b810181811067ffffffffffffffff82111715620003b857620003b76200035c565b5b80604052505050565b6000620003cd620002cd565b9050620003db82826200038b565b919050565b600067ffffffffffffffff821115620003fe57620003fd6200035c565b5b602082029050602081019050919050565b600080fd5b600061ffff82169050919050565b6200042d8162000414565b81146200043957600080fd5b50565b6000815190506200044d8162000422565b92915050565b60006200046a6200046484620003e0565b620003c1565b9050808382526020820190506020840283018581111562000490576200048f6200040f565b5b835b81811015620004bd5780620004a888826200043c565b84526020840193505060208101905062000492565b5050509392505050565b600082601f830112620004df57620004de62000346565b5b8151620004f184826020860162000453565b91505092915050565b600080600080600080600060e0888a0312156200051c576200051b620002d7565b5b60006200052c8a828b016200032f565b97505060206200053f8a828b016200032f565b9650506040620005528a828b016200032f565b9550506060620005658a828b016200032f565b945050608088015167ffffffffffffffff811115620005895762000588620002dc565b5b620005978a828b01620004c7565b93505060a088015167ffffffffffffffff811115620005bb57620005ba620002dc565b5b620005c98a828b01620004c7565b92505060c0620005dc8a828b016200043c565b91505092959891949750929550565b7f4e487b7100000000000000000000000000000000000000000000000000000000600052601160045260246000fd5b6000620006278262000414565b915061ffff82036200063e576200063d620005eb565b5b600182019050919050565b7f4e487b7100000000000000000000000000000000000000000000000000000000600052603260045260246000fd5b61394a80620006886000396000f3fe6080604052600436106100dd5760003560e01c80637127698f1161007f578063953995ea11610059578063953995ea146102ae578063ad178361146102d9578063d0bcfc0c14610304578063f26c05f21461032f576100dd565b80637127698f1461022f5780638bd16114146102465780638d7c16d214610283576100dd565b80634dd189d5116100bb5780634dd189d51461017357806356c022bb1461019e578063572b6c05146101c957806363dc4ef514610206576100dd565b80631734e50a146100e25780631fe543e31461010d57806344e1373414610136575b600080fd5b3480156100ee57600080fd5b506100f761034b565b60405161010491906126b8565b60405180910390f35b34801561011957600080fd5b50610134600480360381019061012f919061287d565b61043d565b005b34801561014257600080fd5b5061015d60048036038101906101589190612937565b610501565b60405161016a9190612a52565b60405180910390f35b34801561017f57600080fd5b50610188610630565b6040516101959190612acc565b60405180910390f35b3480156101aa57600080fd5b506101b3610656565b6040516101c09190612af6565b60405180910390f35b3480156101d557600080fd5b506101f060048036038101906101eb9190612937565b61067c565b6040516101fd9190612b2c565b60405180910390f35b34801561021257600080fd5b5061022d60048036038101906102289190612937565b6106d6565b005b34801561023b57600080fd5b5061024461092f565b005b34801561025257600080fd5b5061026d60048036038101906102689190612b47565b610d2a565b60405161027a9190612b83565b60405180910390f35b34801561028f57600080fd5b50610298610eb6565b6040516102a59190612b83565b60405180910390f35b3480156102ba57600080fd5b506102c3610ebc565b6040516102d09190612af6565b60405180910390f35b3480156102e557600080fd5b506102ee610ee2565b6040516102fb9190612bbf565b60405180910390f35b34801561031057600080fd5b50610319610f08565b6040516103269190612bfb565b60405180910390f35b61034960048036038101906103449190612c42565b610f2e565b005b6060600a60009054906101000a900461ffff1661ffff1667ffffffffffffffff81111561037b5761037a61273a565b5b6040519080825280602002602001820160405280156103a95781602001602082028036833780820191505090505b50905060005b600a60009054906101000a900461ffff1661ffff168161ffff16101561043957600960008261ffff1661ffff16815260200190815260200160002060009054906101000a900461ffff16828261ffff16815181106104105761040f612cbd565b5b602002602001019061ffff16908161ffff1681525050808061043190612d1b565b9150506103af565b5090565b600260009054906101000a900473ffffffffffffffffffffffffffffffffffffffff1673ffffffffffffffffffffffffffffffffffffffff163373ffffffffffffffffffffffffffffffffffffffff16146104f35733600260009054906101000a900473ffffffffffffffffffffffffffffffffffffffff166040517f1cf993f40000000000000000000000000000000000000000000000000000000081526004016104ea929190612d45565b60405180910390fd5b6104fd82826112c1565b5050565b610509612589565b600760008373ffffffffffffffffffffffffffffffffffffffff1673ffffffffffffffffffffffffffffffffffffffff1681526020019081526020016000206040518060e0016040529081600082015481526020016001820154815260200160028201548152602001600382015481526020016004820160009054906101000a900473ffffffffffffffffffffffffffffffffffffffff1673ffffffffffffffffffffffffffffffffffffffff1673ffffffffffffffffffffffffffffffffffffffff1681526020016004820160149054906101000a900467ffffffffffffffff1667ffffffffffffffff1667ffffffffffffffff16815260200160048201601c9054906101000a900463ffffffff1663ffffffff1663ffffffff16815250509050919050565b600560009054906101000a900473ffffffffffffffffffffffffffffffffffffffff1681565b600360009054906101000a900473ffffffffffffffffffffffffffffffffffffffff1681565b6000600360009054906101000a900473ffffffffffffffffffffffffffffffffffffffff1673ffffffffffffffffffffffffffffffffffffffff168273ffffffffffffffffffffffffffffffffffffffff16149050919050565b6106de611959565b600660009054906101000a900473ffffffffffffffffffffffffffffffffffffffff1673ffffffffffffffffffffffffffffffffffffffff1663893d20e86040518163ffffffff1660e01b8152600401602060405180830381865afa15801561074b573d6000803e3d6000fd5b505050506040513d601f19601f8201168201806040525081019061076f9190612d83565b73ffffffffffffffffffffffffffffffffffffffff163373ffffffffffffffffffffffffffffffffffffffff161461087057600660009054906101000a900473ffffffffffffffffffffffffffffffffffffffff1673ffffffffffffffffffffffffffffffffffffffff1663893d20e86040518163ffffffff1660e01b8152600401602060405180830381865afa15801561080e573d6000803e3d6000fd5b505050506040513d601f19601f820116820180604052508101906108329190612d83565b336040517f23295f0e000000000000000000000000000000000000000000000000000000008152600401610867929190612d45565b60405180910390fd5b60006001549050600060018190555060008273ffffffffffffffffffffffffffffffffffffffff16826040516108a590612de1565b60006040518083038185875af1925050503d80600081146108e2576040519150601f19603f3d011682016040523d82523d6000602084013e6108e7565b606091505b5050905080610922576040517f90b8ec1800000000000000000000000000000000000000000000000000000000815260040160405180910390fd5b505061092c6119a8565b50565b610937611959565b60006109416119b2565b90506000600760008373ffffffffffffffffffffffffffffffffffffffff1673ffffffffffffffffffffffffffffffffffffffff168152602001908152602001600020905060008160030154036109c4576040517f49050b3000000000000000000000000000000000000000000000000000000000815260040160405180910390fd5b43600a6103e88360040160149054906101000a900467ffffffffffffffff166109ed9190612df6565b6109f79190612df6565b67ffffffffffffffff161115610a775743600a6103e88360040160149054906101000a900467ffffffffffffffff16610a309190612df6565b610a3a9190612df6565b6040517fb4ae675a000000000000000000000000000000000000000000000000000000008152600401610a6e929190612e63565b60405180910390fd5b600081600401601c9054906101000a900463ffffffff1663ffffffff168260000154610aa39190612e8c565b905060008260040160009054906101000a900473ffffffffffffffffffffffffffffffffffffffff169050600860008460030154815260200190815260200160002060006101000a81549073ffffffffffffffffffffffffffffffffffffffff0219169055600760008573ffffffffffffffffffffffffffffffffffffffff1673ffffffffffffffffffffffffffffffffffffffff1681526020019081526020016000206000808201600090556001820160009055600282016000905560038201600090556004820160006101000a81549073ffffffffffffffffffffffffffffffffffffffff02191690556004820160146101000a81549067ffffffffffffffff021916905560048201601c6101000a81549063ffffffff02191690555050600073ffffffffffffffffffffffffffffffffffffffff168173ffffffffffffffffffffffffffffffffffffffff1603610ca05760008473ffffffffffffffffffffffffffffffffffffffff1683604051610c1d90612de1565b60006040518083038185875af1925050503d8060008114610c5a576040519150601f19603f3d011682016040523d82523d6000602084013e610c5f565b606091505b5050905080610c9a576040517f90b8ec1800000000000000000000000000000000000000000000000000000000815260040160405180910390fd5b50610ccc565b610ccb84838373ffffffffffffffffffffffffffffffffffffffff166119e99092919063ffffffff16565b5b8373ffffffffffffffffffffffffffffffffffffffff167f1d349643bcdca147749e5f231209be458850aea573661bed4ab760d2a4eaf0638383604051610d14929190612ece565b60405180910390a250505050610d286119a8565b565b600080600460009054906101000a900473ffffffffffffffffffffffffffffffffffffffff1673ffffffffffffffffffffffffffffffffffffffff1663feaf968c6040518163ffffffff1660e01b815260040160a060405180830381865afa158015610d9a573d6000803e3d6000fd5b505050506040513d601f19601f82011682018060405250810190610dbe9190612f84565b5050509150506000600560009054906101000a900473ffffffffffffffffffffffffffffffffffffffff1673ffffffffffffffffffffffffffffffffffffffff16635fbbc0d26040518163ffffffff1660e01b815260040161012060405180830381865afa158015610e34573d6000803e3d6000fd5b505050506040513d601f19601f82011682018060405250810190610e58919061304f565b50505050505050509050670de0b6b3a7640000828263ffffffff1664e8d4a51000610e839190612e8c565b610e8d9190612e8c565b610e979190613148565b843a610ea39190612e8c565b610ead9190613179565b92505050919050565b60015481565b600260009054906101000a900473ffffffffffffffffffffffffffffffffffffffff1681565b600460009054906101000a900473ffffffffffffffffffffffffffffffffffffffff1681565b600660009054906101000a900473ffffffffffffffffffffffffffffffffffffffff1681565b610f36611959565b6000610f406119b2565b90506000600760008373ffffffffffffffffffffffffffffffffffffffff1673ffffffffffffffffffffffffffffffffffffffff168152602001908152602001600020600301541461100b57600760008273ffffffffffffffffffffffffffffffffffffffff1673ffffffffffffffffffffffffffffffffffffffff168152602001908152602001600020600301546040517f440db96e0000000000000000000000000000000000000000000000000000000081526004016110029190612b83565b60405180910390fd5b60008463ffffffff16118015611028575060648463ffffffff1611155b61106a5760646040517f9310749100000000000000000000000000000000000000000000000000000000815260040161106191906131e8565b60405180910390fd5b6110748686611a68565b6000611096868663ffffffff168961108c9190612e8c565b6210c8e085611beb565b905060006110a386611f4c565b90506040518060e001604052808981526020018681526020018581526020018281526020018873ffffffffffffffffffffffffffffffffffffffff1681526020014367ffffffffffffffff1681526020018763ffffffff16815250600760008573ffffffffffffffffffffffffffffffffffffffff1673ffffffffffffffffffffffffffffffffffffffff1681526020019081526020016000206000820151816000015560208201518160010155604082015181600201556060820151816003015560808201518160040160006101000a81548173ffffffffffffffffffffffffffffffffffffffff021916908373ffffffffffffffffffffffffffffffffffffffff16021790555060a08201518160040160146101000a81548167ffffffffffffffff021916908367ffffffffffffffff16021790555060c082015181600401601c6101000a81548163ffffffff021916908363ffffffff160217905550905050826008600083815260200190815260200160002060006101000a81548173ffffffffffffffffffffffffffffffffffffffff021916908373ffffffffffffffffffffffffffffffffffffffff1602179055508273ffffffffffffffffffffffffffffffffffffffff167f84a7b484f1c34e597d3331ce6ffc8714cf38182106d15c73d90ed934299f0c5b8989898989886040516112a796959493929190613212565b60405180910390a25050506112ba6119a8565b5050505050565b60006008600084815260200190815260200160002060009054906101000a900473ffffffffffffffffffffffffffffffffffffffff169050600073ffffffffffffffffffffffffffffffffffffffff168173ffffffffffffffffffffffffffffffffffffffff160361133257600080fd5b6000600760008373ffffffffffffffffffffffffffffffffffffffff1673ffffffffffffffffffffffffffffffffffffffff16815260200190815260200160002090506103e88160040160149054906101000a900467ffffffffffffffff1661139b9190612df6565b67ffffffffffffffff164311156113b157600080fd5b60008060008084600401601c9054906101000a900463ffffffff1663ffffffff1667ffffffffffffffff8111156113eb576113ea61273a565b5b6040519080825280602002602001820160405280156114195781602001602082028036833780820191505090505b509050600085600401601c9054906101000a900463ffffffff1663ffffffff1667ffffffffffffffff8111156114525761145161273a565b5b6040519080825280602002602001820160405280156114805781602001602082028036833780820191505090505b509050600086600401601c9054906101000a900463ffffffff1663ffffffff1667ffffffffffffffff8111156114b9576114b861273a565b5b6040519080825280602002602001820160405280156114e75781602001602082028036833780820191505090505b50905060008760040160009054906101000a900473ffffffffffffffffffffffffffffffffffffffff169050600094505b87600401601c9054906101000a900463ffffffff1663ffffffff168563ffffffff16101561177457876001015486121561177457876002015461155a90613273565b86131561177457600a60009054906101000a900461ffff1661ffff168a8663ffffffff168151811061158f5761158e612cbd565b5b60200260200101516115a191906132bb565b848663ffffffff16815181106115ba576115b9612cbd565b5b602002602001019061ffff16908161ffff168152505060096000858763ffffffff16815181106115ed576115ec612cbd565b5b602002602001015161ffff1661ffff16815260200190815260200160002060009054906101000a900461ffff1661ffff16838663ffffffff168151811061163757611636612cbd565b5b6020026020010181815250506000838663ffffffff168151811061165e5761165d612cbd565b5b60200260200101511461174e578760000154838663ffffffff168151811061168957611688612cbd565b5b602002602001015189600001546116a09190612e8c565b6116aa91906132ec565b866116b5919061332f565b9550828563ffffffff16815181106116d0576116cf612cbd565b5b602002602001015188600001546116e79190612e8c565b876116f29190613179565b9650828563ffffffff168151811061170d5761170c612cbd565b5b602002602001015188600001546117249190612e8c565b828663ffffffff168151811061173d5761173c612cbd565b5b602002602001018181525050611761565b87600001548661175e91906132ec565b95505b848061176c90613373565b955050611518565b87600001548589600401601c9054906101000a900463ffffffff16611799919061339f565b63ffffffff166117a99190612e8c565b876117b49190613179565b96508873ffffffffffffffffffffffffffffffffffffffff167f92effafb76f06eb770800ec9b38dbc4c3ad53f950062c07b4c7f9ced43d0f9f8896000015489848888888c60405161180c9796959493929190613486565b60405180910390a26118478189600401601c9054906101000a900463ffffffff1663ffffffff168a600001546118429190612e8c565b612021565b600860008c815260200190815260200160002060006101000a81549073ffffffffffffffffffffffffffffffffffffffff0219169055600760008a73ffffffffffffffffffffffffffffffffffffffff1673ffffffffffffffffffffffffffffffffffffffff1681526020019081526020016000206000808201600090556001820160009055600282016000905560038201600090556004820160006101000a81549073ffffffffffffffffffffffffffffffffffffffff02191690556004820160146101000a81549067ffffffffffffffff021916905560048201601c6101000a81549063ffffffff021916905550506000871461194c5761194b898883612172565b5b5050505050505050505050565b60026000540361199e576040517f08c379a000000000000000000000000000000000000000000000000000000000815260040161199590613567565b60405180910390fd5b6002600081905550565b6001600081905550565b600060146000369050101580156119ce57506119cd3361067c565b5b156119e257601436033560601c90506119e6565b3390505b90565b611a63838473ffffffffffffffffffffffffffffffffffffffff1663a9059cbb8585604051602401611a1c929190613587565b604051602081830303815290604052915060e01b6020820180517bffffffffffffffffffffffffffffffffffffffffffffffffffffffff8381831617835250505050612208565b505050565b60008073ffffffffffffffffffffffffffffffffffffffff168273ffffffffffffffffffffffffffffffffffffffff1603611ade57600660009054906101000a900473ffffffffffffffffffffffffffffffffffffffff1673ffffffffffffffffffffffffffffffffffffffff16319050611b7d565b8173ffffffffffffffffffffffffffffffffffffffff166370a08231600660009054906101000a900473ffffffffffffffffffffffffffffffffffffffff166040518263ffffffff1660e01b8152600401611b399190612af6565b602060405180830381865afa158015611b56573d6000803e3d6000fd5b505050506040513d601f19601f82011682018060405250810190611b7a91906135b0565b90505b60006305f5e10061d9da83611b929190612e8c565b611b9c9190613148565b905080841115611be55783816040517fd53662aa000000000000000000000000000000000000000000000000000000008152600401611bdc9291906135dd565b60405180910390fd5b50505050565b6000600660009054906101000a900473ffffffffffffffffffffffffffffffffffffffff1673ffffffffffffffffffffffffffffffffffffffff1663bfd7f9cc30876040518363ffffffff1660e01b8152600401611c4a929190612d45565b602060405180830381865afa158015611c67573d6000803e3d6000fd5b505050506040513d601f19601f82011682018060405250810190611c8b9190613632565b611cc1576040517f51c3b94f00000000000000000000000000000000000000000000000000000000815260040160405180910390fd5b60008403611cfb576040517f07375c8400000000000000000000000000000000000000000000000000000000815260040160405180910390fd5b600080600660009054906101000a900473ffffffffffffffffffffffffffffffffffffffff1673ffffffffffffffffffffffffffffffffffffffff16630a5748a8856040518263ffffffff1660e01b8152600401611d599190612af6565b6040805180830381865afa158015611d75573d6000803e3d6000fd5b505050506040513d601f19601f82011682018060405250810190611d99919061365f565b915091508115611de057806040517f6c2775f5000000000000000000000000000000000000000000000000000000008152600401611dd79190612b83565b60405180910390fd5b611de985610d2a565b9250600073ffffffffffffffffffffffffffffffffffffffff168773ffffffffffffffffffffffffffffffffffffffff1603611ea0578286611e2b9190613179565b341015611e7c578286611e3e9190613179565b346040517fde9b74a1000000000000000000000000000000000000000000000000000000008152600401611e739291906135dd565b60405180910390fd5b611e9b8684611e8b9190613179565b34611e96919061369f565b61229f565b611f29565b82341015611ee75782346040517fde9b74a1000000000000000000000000000000000000000000000000000000008152600401611ede9291906135dd565b60405180910390fd5b611f148430888a73ffffffffffffffffffffffffffffffffffffffff16612350909392919063ffffffff16565b611f288334611f23919061369f565b61229f565b5b8260016000828254611f3b9190613179565b925050819055505050949350505050565b6000600260009054906101000a900473ffffffffffffffffffffffffffffffffffffffff1673ffffffffffffffffffffffffffffffffffffffff16635d3b1d307fd729dc84e21ae57ffb6be0053bf2b0668aa2aaf300a2a7b2ddf7dc0bb6e875a86102406003622625a0876040518663ffffffff1660e01b8152600401611fd79594939291906137d6565b6020604051808303816000875af1158015611ff6573d6000803e3d6000fd5b505050506040513d601f19601f8201168201806040525081019061201a91906135b0565b9050919050565b600073ffffffffffffffffffffffffffffffffffffffff168273ffffffffffffffffffffffffffffffffffffffff1603612120576000600660009054906101000a900473ffffffffffffffffffffffffffffffffffffffff1673ffffffffffffffffffffffffffffffffffffffff168260405161209d90612de1565b60006040518083038185875af1925050503d80600081146120da576040519150601f19603f3d011682016040523d82523d6000602084013e6120df565b606091505b505090508061211a576040517ff0c49d4400000000000000000000000000000000000000000000000000000000815260040160405180910390fd5b5061216e565b61216d600660009054906101000a900473ffffffffffffffffffffffffffffffffffffffff16828473ffffffffffffffffffffffffffffffffffffffff166119e99092919063ffffffff16565b5b5050565b600660009054906101000a900473ffffffffffffffffffffffffffffffffffffffff1673ffffffffffffffffffffffffffffffffffffffff16636c025ec28484846040518463ffffffff1660e01b81526004016121d193929190613829565b600060405180830381600087803b1580156121eb57600080fd5b505af11580156121ff573d6000803e3d6000fd5b50505050505050565b6000612233828473ffffffffffffffffffffffffffffffffffffffff166123d290919063ffffffff16565b905060008151141580156122585750808060200190518101906122569190613632565b155b1561229a57826040517f5274afe70000000000000000000000000000000000000000000000000000000081526004016122919190612af6565b60405180910390fd5b505050565b600081031561234d5760003373ffffffffffffffffffffffffffffffffffffffff16826040516122ce90612de1565b60006040518083038185875af1925050503d806000811461230b576040519150601f19603f3d011682016040523d82523d6000602084013e612310565b606091505b505090508061234b576040517ff0c49d4400000000000000000000000000000000000000000000000000000000815260040160405180910390fd5b505b50565b6123cc848573ffffffffffffffffffffffffffffffffffffffff166323b872dd86868660405160240161238593929190613860565b604051602081830303815290604052915060e01b6020820180517bffffffffffffffffffffffffffffffffffffffffffffffffffffffff8381831617835250505050612208565b50505050565b60606123e0838360006123e8565b905092915050565b60608147101561242f57306040517fcd7860590000000000000000000000000000000000000000000000000000000081526004016124269190612af6565b60405180910390fd5b6000808573ffffffffffffffffffffffffffffffffffffffff16848660405161245891906138fd565b60006040518083038185875af1925050503d8060008114612495576040519150601f19603f3d011682016040523d82523d6000602084013e61249a565b606091505b50915091506124aa8683836124b5565b925050509392505050565b6060826124ca576124c582612544565b61253c565b600082511480156124f2575060008473ffffffffffffffffffffffffffffffffffffffff163b145b1561253457836040517f9996b31500000000000000000000000000000000000000000000000000000000815260040161252b9190612af6565b60405180910390fd5b81905061253d565b5b9392505050565b6000815111156125575780518082602001fd5b6040517f1425ea4200000000000000000000000000000000000000000000000000000000815260040160405180910390fd5b6040518060e0016040528060008152602001600081526020016000815260200160008152602001600073ffffffffffffffffffffffffffffffffffffffff168152602001600067ffffffffffffffff168152602001600063ffffffff1681525090565b600081519050919050565b600082825260208201905092915050565b6000819050602082019050919050565b600061ffff82169050919050565b61262f81612618565b82525050565b60006126418383612626565b60208301905092915050565b6000602082019050919050565b6000612665826125ec565b61266f81856125f7565b935061267a83612608565b8060005b838110156126ab5781516126928882612635565b975061269d8361264d565b92505060018101905061267e565b5085935050505092915050565b600060208201905081810360008301526126d2818461265a565b905092915050565b6000604051905090565b600080fd5b600080fd5b6000819050919050565b612701816126ee565b811461270c57600080fd5b50565b60008135905061271e816126f8565b92915050565b600080fd5b6000601f19601f8301169050919050565b7f4e487b7100000000000000000000000000000000000000000000000000000000600052604160045260246000fd5b61277282612729565b810181811067ffffffffffffffff821117156127915761279061273a565b5b80604052505050565b60006127a46126da565b90506127b08282612769565b919050565b600067ffffffffffffffff8211156127d0576127cf61273a565b5b602082029050602081019050919050565b600080fd5b60006127f96127f4846127b5565b61279a565b9050808382526020820190506020840283018581111561281c5761281b6127e1565b5b835b818110156128455780612831888261270f565b84526020840193505060208101905061281e565b5050509392505050565b600082601f83011261286457612863612724565b5b81356128748482602086016127e6565b91505092915050565b60008060408385031215612894576128936126e4565b5b60006128a28582860161270f565b925050602083013567ffffffffffffffff8111156128c3576128c26126e9565b5b6128cf8582860161284f565b9150509250929050565b600073ffffffffffffffffffffffffffffffffffffffff82169050919050565b6000612904826128d9565b9050919050565b612914816128f9565b811461291f57600080fd5b50565b6000813590506129318161290b565b92915050565b60006020828403121561294d5761294c6126e4565b5b600061295b84828501612922565b91505092915050565b61296d816126ee565b82525050565b61297c816128f9565b82525050565b600067ffffffffffffffff82169050919050565b61299f81612982565b82525050565b600063ffffffff82169050919050565b6129be816129a5565b82525050565b60e0820160008201516129da6000850182612964565b5060208201516129ed6020850182612964565b506040820151612a006040850182612964565b506060820151612a136060850182612964565b506080820151612a266080850182612973565b5060a0820151612a3960a0850182612996565b5060c0820151612a4c60c08501826129b5565b50505050565b600060e082019050612a6760008301846129c4565b92915050565b6000819050919050565b6000612a92612a8d612a88846128d9565b612a6d565b6128d9565b9050919050565b6000612aa482612a77565b9050919050565b6000612ab682612a99565b9050919050565b612ac681612aab565b82525050565b6000602082019050612ae16000830184612abd565b92915050565b612af0816128f9565b82525050565b6000602082019050612b0b6000830184612ae7565b92915050565b60008115159050919050565b612b2681612b11565b82525050565b6000602082019050612b416000830184612b1d565b92915050565b600060208284031215612b5d57612b5c6126e4565b5b6000612b6b8482850161270f565b91505092915050565b612b7d816126ee565b82525050565b6000602082019050612b986000830184612b74565b92915050565b6000612ba982612a99565b9050919050565b612bb981612b9e565b82525050565b6000602082019050612bd46000830184612bb0565b92915050565b6000612be582612a99565b9050919050565b612bf581612bda565b82525050565b6000602082019050612c106000830184612bec565b92915050565b612c1f816129a5565b8114612c2a57600080fd5b50565b600081359050612c3c81612c16565b92915050565b600080600080600060a08688031215612c5e57612c5d6126e4565b5b6000612c6c8882890161270f565b9550506020612c7d88828901612922565b9450506040612c8e88828901612c2d565b9350506060612c9f8882890161270f565b9250506080612cb08882890161270f565b9150509295509295909350565b7f4e487b7100000000000000000000000000000000000000000000000000000000600052603260045260246000fd5b7f4e487b7100000000000000000000000000000000000000000000000000000000600052601160045260246000fd5b6000612d2682612618565b915061ffff8203612d3a57612d39612cec565b5b600182019050919050565b6000604082019050612d5a6000830185612ae7565b612d676020830184612ae7565b9392505050565b600081519050612d7d8161290b565b92915050565b600060208284031215612d9957612d986126e4565b5b6000612da784828501612d6e565b91505092915050565b600081905092915050565b50565b6000612dcb600083612db0565b9150612dd682612dbb565b600082019050919050565b6000612dec82612dbe565b9150819050919050565b6000612e0182612982565b9150612e0c83612982565b9250828201905067ffffffffffffffff811115612e2c57612e2b612cec565b5b92915050565b6000612e4d612e48612e4384612982565b612a6d565b6126ee565b9050919050565b612e5d81612e32565b82525050565b6000604082019050612e786000830185612b74565b612e856020830184612e54565b9392505050565b6000612e97826126ee565b9150612ea2836126ee565b9250828202612eb0816126ee565b91508282048414831517612ec757612ec6612cec565b5b5092915050565b6000604082019050612ee36000830185612b74565b612ef06020830184612ae7565b9392505050565b600069ffffffffffffffffffff82169050919050565b612f1681612ef7565b8114612f2157600080fd5b50565b600081519050612f3381612f0d565b92915050565b6000819050919050565b612f4c81612f39565b8114612f5757600080fd5b50565b600081519050612f6981612f43565b92915050565b600081519050612f7e816126f8565b92915050565b600080600080600060a08688031215612fa057612f9f6126e4565b5b6000612fae88828901612f24565b9550506020612fbf88828901612f5a565b9450506040612fd088828901612f6f565b9350506060612fe188828901612f6f565b9250506080612ff288828901612f24565b9150509295509295909350565b60008151905061300e81612c16565b92915050565b600062ffffff82169050919050565b61302c81613014565b811461303757600080fd5b50565b60008151905061304981613023565b92915050565b60008060008060008060008060006101208a8c031215613072576130716126e4565b5b60006130808c828d01612fff565b99505060206130918c828d01612fff565b98505060406130a28c828d01612fff565b97505060606130b38c828d01612fff565b96505060806130c48c828d01612fff565b95505060a06130d58c828d0161303a565b94505060c06130e68c828d0161303a565b93505060e06130f78c828d0161303a565b9250506101006131098c828d0161303a565b9150509295985092959850929598565b7f4e487b7100000000000000000000000000000000000000000000000000000000600052601260045260246000fd5b6000613153826126ee565b915061315e836126ee565b92508261316e5761316d613119565b5b828204905092915050565b6000613184826126ee565b915061318f836126ee565b92508282019050808211156131a7576131a6612cec565b5b92915050565b6000819050919050565b60006131d26131cd6131c8846131ad565b612a6d565b6126ee565b9050919050565b6131e2816131b7565b82525050565b60006020820190506131fd60008301846131d9565b92915050565b61320c816129a5565b82525050565b600060c0820190506132276000830189612b74565b6132346020830188612ae7565b6132416040830187613203565b61324e6060830186612b74565b61325b6080830185612b74565b61326860a0830184612b74565b979650505050505050565b600061327e82612f39565b91507f800000000000000000000000000000000000000000000000000000000000000082036132b0576132af612cec565b5b816000039050919050565b60006132c6826126ee565b91506132d1836126ee565b9250826132e1576132e0613119565b5b828206905092915050565b60006132f782612f39565b915061330283612f39565b925082820390508181126000841216828213600085121516171561332957613328612cec565b5b92915050565b600061333a82612f39565b915061334583612f39565b92508282019050828112156000831216838212600084121516171561336d5761336c612cec565b5b92915050565b600061337e826129a5565b915063ffffffff820361339457613393612cec565b5b600182019050919050565b60006133aa826129a5565b91506133b5836129a5565b9250828203905063ffffffff8111156133d1576133d0612cec565b5b92915050565b600081519050919050565b600082825260208201905092915050565b6000819050602082019050919050565b600061340f8383612964565b60208301905092915050565b6000602082019050919050565b6000613433826133d7565b61343d81856133e2565b9350613448836133f3565b8060005b838110156134795781516134608882613403565b975061346b8361341b565b92505060018101905061344c565b5085935050505092915050565b600060e08201905061349b600083018a612b74565b6134a86020830189612b74565b6134b56040830188612ae7565b81810360608301526134c7818761265a565b905081810360808301526134db8186613428565b905081810360a08301526134ef8185613428565b90506134fe60c0830184613203565b98975050505050505050565b600082825260208201905092915050565b7f5265656e7472616e637947756172643a207265656e7472616e742063616c6c00600082015250565b6000613551601f8361350a565b915061355c8261351b565b602082019050919050565b6000602082019050818103600083015261358081613544565b9050919050565b600060408201905061359c6000830185612ae7565b6135a96020830184612b74565b9392505050565b6000602082840312156135c6576135c56126e4565b5b60006135d484828501612f6f565b91505092915050565b60006040820190506135f26000830185612b74565b6135ff6020830184612b74565b9392505050565b61360f81612b11565b811461361a57600080fd5b50565b60008151905061362c81613606565b92915050565b600060208284031215613648576136476126e4565b5b60006136568482850161361d565b91505092915050565b60008060408385031215613676576136756126e4565b5b60006136848582860161361d565b925050602061369585828601612f6f565b9150509250929050565b60006136aa826126ee565b91506136b5836126ee565b92508282039050818111156136cd576136cc612cec565b5b92915050565b6000819050919050565b6000819050919050565b60008160001b9050919050565b600061370f61370a613705846136d3565b6136e7565b6136dd565b9050919050565b61371f816136f4565b82525050565b6000819050919050565b600061374a61374561374084613725565b612a6d565b612982565b9050919050565b61375a8161372f565b82525050565b6000819050919050565b600061378561378061377b84613760565b612a6d565b612618565b9050919050565b6137958161376a565b82525050565b6000819050919050565b60006137c06137bb6137b68461379b565b612a6d565b6129a5565b9050919050565b6137d0816137a5565b82525050565b600060a0820190506137eb6000830188613716565b6137f86020830187613751565b613805604083018661378c565b61381260608301856137c7565b61381f6080830184613203565b9695505050505050565b600060608201905061383e6000830186612ae7565b61384b6020830185612b74565b6138586040830184612ae7565b949350505050565b60006060820190506138756000830186612ae7565b6138826020830185612ae7565b61388f6040830184612b74565b949350505050565b600081519050919050565b60005b838110156138c05780820151818401526020810190506138a5565b60008484015250505050565b60006138d782613897565b6138e18185612db0565b93506138f18185602086016138a2565b80840191505092915050565b600061390982846138cc565b91508190509291505056fea264697066735822122050a2525694de2837a2479e3d1208794a288c05b0570094c6fa72f8bf2d72a2dd64736f6c63430008140033",
  "linkReferences": {},
  "deployedLinkReferences": {}
}