{
  "_format": "hh-sol-artifact-1",
  "contractName": "CoinCoin",
  "sourceName": "contracts/CoinCoin.sol",
  "abi": [
    {
      "inputs": [
        {
          "internalType": "address",
          "name": "_bankroll",
          "type": "address"
        },
        {
          "internalType": "address",
          "name": "_vrf",
          "type": "address"
        },
        {
          "internalType": "address",
          "name": "link_eth_feed",
          "type": "address"
        },
        {
          "internalType": "address",
          "name": "_forwarder",
          "type": "address"
        },
        {
          "internalType": "address",
          "name": "_token",
          "type": "address"
        }
      ],
      "stateMutability": "nonpayable",
      "type": "constructor"
    },
    {
      "inputs": [
        {
          "internalType": "address",
          "name": "target",
          "type": "address"
        }
      ],
      "name": "AddressEmptyCode",
      "type": "error"
    },
    {
      "inputs": [
        {
          "internalType": "address",
          "name": "account",
          "type": "address"
        }
      ],
      "name": "AddressInsufficientBalance",
      "type": "error"
    },
    {
      "inputs": [
        {
          "internalType": "uint256",
          "name": "requestID",
          "type": "uint256"
        }
      ],
      "name": "AwaitingVRF",
      "type": "error"
    },
    {
      "inputs": [
        {
          "internalType": "uint256",
          "name": "have",
          "type": "uint256"
        },
        {
          "internalType": "uint256",
          "name": "want",
          "type": "uint256"
        }
      ],
      "name": "BlockNumberTooLow",
      "type": "error"
    },
    {
      "inputs": [],
      "name": "FailedInnerCall",
      "type": "error"
    },
    {
      "inputs": [
        {
          "internalType": "uint256",
          "name": "maxNumBets",
          "type": "uint256"
        }
      ],
      "name": "InvalidNumBets",
      "type": "error"
    },
    {
      "inputs": [
        {
          "internalType": "uint256",
          "name": "required",
          "type": "uint256"
        },
        {
          "internalType": "uint256",
          "name": "sent",
          "type": "uint256"
        }
      ],
      "name": "InvalidValue",
      "type": "error"
    },
    {
      "inputs": [],
      "name": "NotApprovedBankroll",
      "type": "error"
    },
    {
      "inputs": [],
      "name": "NotAwaitingVRF",
      "type": "error"
    },
    {
      "inputs": [
        {
          "internalType": "address",
          "name": "want",
          "type": "address"
        },
        {
          "internalType": "address",
          "name": "have",
          "type": "address"
        }
      ],
      "name": "NotOwner",
      "type": "error"
    },
    {
      "inputs": [
        {
          "internalType": "address",
          "name": "have",
          "type": "address"
        },
        {
          "internalType": "address",
          "name": "want",
          "type": "address"
        }
      ],
      "name": "OnlyCoordinatorCanFulfill",
      "type": "error"
    },
    {
      "inputs": [
        {
          "internalType": "uint256",
          "name": "suspensionTime",
          "type": "uint256"
        }
      ],
      "name": "PlayerSuspended",
      "type": "error"
    },
    {
      "inputs": [],
      "name": "RefundFailed",
      "type": "error"
    },
    {
      "inputs": [
        {
          "internalType": "address",
          "name": "token",
          "type": "address"
        }
      ],
      "name": "SafeERC20FailedOperation",
      "type": "error"
    },
    {
      "inputs": [],
      "name": "TransferFailed",
      "type": "error"
    },
    {
      "inputs": [
        {
          "internalType": "uint256",
          "name": "wager",
          "type": "uint256"
        },
        {
          "internalType": "uint256",
          "name": "maxWager",
          "type": "uint256"
        }
      ],
      "name": "WagerAboveLimit",
      "type": "error"
    },
    {
      "inputs": [],
      "name": "ZeroWager",
      "type": "error"
    },
    {
      "anonymous": false,
      "inputs": [
        {
          "indexed": true,
          "internalType": "address",
          "name": "playerAddress",
          "type": "address"
        },
        {
          "indexed": false,
          "internalType": "uint256",
          "name": "wager",
          "type": "uint256"
        },
        {
          "indexed": false,
          "internalType": "uint256",
          "name": "payout",
          "type": "uint256"
        },
        {
          "indexed": false,
          "internalType": "address",
          "name": "tokenAddress",
          "type": "address"
        },
        {
          "indexed": false,
          "internalType": "uint8[]",
          "name": "coinOutcomes",
          "type": "uint8[]"
        },
        {
          "indexed": false,
          "internalType": "uint256[]",
          "name": "payouts",
          "type": "uint256[]"
        },
        {
          "indexed": false,
          "internalType": "uint32",
          "name": "numGames",
          "type": "uint32"
        }
      ],
      "name": "CoinFlip_Outcome_Event",
      "type": "event"
    },
    {
      "anonymous": false,
      "inputs": [
        {
          "indexed": true,
          "internalType": "address",
          "name": "playerAddress",
          "type": "address"
        },
        {
          "indexed": false,
          "internalType": "uint256",
          "name": "wager",
          "type": "uint256"
        },
        {
          "indexed": false,
          "internalType": "address",
          "name": "tokenAddress",
          "type": "address"
        },
        {
          "indexed": false,
          "internalType": "bool",
          "name": "isHeads",
          "type": "bool"
        },
        {
          "indexed": false,
          "internalType": "uint32",
          "name": "numBets",
          "type": "uint32"
        },
        {
          "indexed": false,
          "internalType": "uint256",
          "name": "stopGain",
          "type": "uint256"
        },
        {
          "indexed": false,
          "internalType": "uint256",
          "name": "stopLoss",
          "type": "uint256"
        },
        {
          "indexed": false,
          "internalType": "uint256",
          "name": "VRFFee",
          "type": "uint256"
        }
      ],
      "name": "CoinFlip_Play_Event",
      "type": "event"
    },
    {
      "anonymous": false,
      "inputs": [
        {
          "indexed": true,
          "internalType": "address",
          "name": "player",
          "type": "address"
        },
        {
          "indexed": false,
          "internalType": "uint256",
          "name": "wager",
          "type": "uint256"
        },
        {
          "indexed": false,
          "internalType": "address",
          "name": "tokenAddress",
          "type": "address"
        }
      ],
      "name": "CoinFlip_Refund_Event",
      "type": "event"
    },
    {
      "anonymous": false,
      "inputs": [
        {
          "indexed": true,
          "internalType": "address",
          "name": "referrer",
          "type": "address"
        },
        {
          "indexed": true,
          "internalType": "address",
          "name": "referee",
          "type": "address"
        },
        {
          "indexed": false,
          "internalType": "uint256",
          "name": "reward",
          "type": "uint256"
        }
      ],
      "name": "ReferralReward",
      "type": "event"
    },
    {
      "anonymous": false,
      "inputs": [
        {
          "indexed": true,
          "internalType": "address",
          "name": "player",
          "type": "address"
        },
        {
          "indexed": false,
          "internalType": "uint256",
          "name": "amount",
          "type": "uint256"
        }
      ],
      "name": "TokensEarned",
      "type": "event"
    },
    {
      "inputs": [],
      "name": "Bankroll",
      "outputs": [
        {
          "internalType": "contract IBankRoll",
          "name": "",
          "type": "address"
        }
      ],
      "stateMutability": "view",
      "type": "function"
    },
    {
      "inputs": [],
      "name": "ChainLinkVRF",
      "outputs": [
        {
          "internalType": "address",
          "name": "",
          "type": "address"
        }
      ],
      "stateMutability": "view",
      "type": "function"
    },
    {
      "inputs": [
        {
          "internalType": "address",
          "name": "player",
          "type": "address"
        }
      ],
      "name": "CoinFlip_GetState",
      "outputs": [
        {
          "components": [
            {
              "internalType": "uint256",
              "name": "wager",
              "type": "uint256"
            },
            {
              "internalType": "uint256",
              "name": "stopGain",
              "type": "uint256"
            },
            {
              "internalType": "uint256",
              "name": "stopLoss",
              "type": "uint256"
            },
            {
              "internalType": "uint256",
              "name": "requestID",
              "type": "uint256"
            },
            {
              "internalType": "address",
              "name": "tokenAddress",
              "type": "address"
            },
            {
              "internalType": "uint64",
              "name": "blockNumber",
              "type": "uint64"
            },
            {
              "internalType": "uint32",
              "name": "numBets",
              "type": "uint32"
            },
            {
              "internalType": "bool",
              "name": "isHeads",
              "type": "bool"
            }
          ],
          "internalType": "struct CoinCoin.CoinFlipGame",
          "name": "",
          "type": "tuple"
        }
      ],
      "stateMutability": "view",
      "type": "function"
    },
    {
      "inputs": [
        {
          "internalType": "uint256",
          "name": "wager",
          "type": "uint256"
        },
        {
          "internalType": "address",
          "name": "tokenAddress",
          "type": "address"
        },
        {
          "internalType": "bool",
          "name": "isHeads",
          "type": "bool"
        },
        {
          "internalType": "uint32",
          "name": "numBets",
          "type": "uint32"
        },
        {
          "internalType": "uint256",
          "name": "stopGain",
          "type": "uint256"
        },
        {
          "internalType": "uint256",
          "name": "stopLoss",
          "type": "uint256"
        }
      ],
      "name": "CoinFlip_Play",
      "outputs": [],
      "stateMutability": "payable",
      "type": "function"
    },
    {
      "inputs": [],
      "name": "CoinFlip_Refund",
      "outputs": [],
      "stateMutability": "nonpayable",
      "type": "function"
    },
    {
      "inputs": [],
      "name": "IChainLinkVRF",
      "outputs": [
        {
          "internalType": "contract IVRFCoordinatorV2",
          "name": "",
          "type": "address"
        }
      ],
      "stateMutability": "view",
      "type": "function"
    },
    {
      "inputs": [],
      "name": "LINK_ETH_FEED",
      "outputs": [
        {
          "internalType": "contract AggregatorV3Interface",
          "name": "",
          "type": "address"
        }
      ],
      "stateMutability": "view",
      "type": "function"
    },
    {
      "inputs": [],
      "name": "VRFFees",
      "outputs": [
        {
          "internalType": "uint256",
          "name": "",
          "type": "uint256"
        }
      ],
      "stateMutability": "view",
      "type": "function"
    },
    {
      "inputs": [],
      "name": "_trustedForwarder",
      "outputs": [
        {
          "internalType": "address",
          "name": "",
          "type": "address"
        }
      ],
      "stateMutability": "view",
      "type": "function"
    },
    {
      "inputs": [
        {
          "internalType": "uint256",
          "name": "gasAmount",
          "type": "uint256"
        }
      ],
      "name": "getVRFFee",
      "outputs": [
        {
          "internalType": "uint256",
          "name": "fee",
          "type": "uint256"
        }
      ],
      "stateMutability": "view",
      "type": "function"
    },
    {
      "inputs": [
        {
          "internalType": "address",
          "name": "forwarder",
          "type": "address"
        }
      ],
      "name": "isTrustedForwarder",
      "outputs": [
        {
          "internalType": "bool",
          "name": "",
          "type": "bool"
        }
      ],
      "stateMutability": "view",
      "type": "function"
    },
    {
      "inputs": [
        {
          "internalType": "uint256",
          "name": "",
          "type": "uint256"
        }
      ],
      "name": "leaderboard",
      "outputs": [
        {
          "internalType": "address",
          "name": "",
          "type": "address"
        }
      ],
      "stateMutability": "view",
      "type": "function"
    },
    {
      "inputs": [
        {
          "internalType": "address",
          "name": "",
          "type": "address"
        }
      ],
      "name": "playerEarnedTokens",
      "outputs": [
        {
          "internalType": "uint256",
          "name": "",
          "type": "uint256"
        }
      ],
      "stateMutability": "view",
      "type": "function"
    },
    {
      "inputs": [
        {
          "internalType": "address",
          "name": "",
          "type": "address"
        }
      ],
      "name": "playerEarnings",
      "outputs": [
        {
          "internalType": "uint256",
          "name": "",
          "type": "uint256"
        }
      ],
      "stateMutability": "view",
      "type": "function"
    },
    {
      "inputs": [
        {
          "internalType": "address",
          "name": "",
          "type": "address"
        }
      ],
      "name": "playerReferrers",
      "outputs": [
        {
          "internalType": "address",
          "name": "",
          "type": "address"
        }
      ],
      "stateMutability": "view",
      "type": "function"
    },
    {
      "inputs": [
        {
          "internalType": "uint256",
          "name": "requestId",
          "type": "uint256"
        },
        {
          "internalType": "uint256[]",
          "name": "randomWords",
          "type": "uint256[]"
        }
      ],
      "name": "rawFulfillRandomWords",
      "outputs": [],
      "stateMutability": "nonpayable",
      "type": "function"
    },
    {
      "inputs": [],
      "name": "token",
      "outputs": [
        {
          "internalType": "contract IERC20",
          "name": "",
          "type": "address"
        }
      ],
      "stateMutability": "view",
      "type": "function"
    },
    {
      "inputs": [
        {
          "internalType": "address",
          "name": "to",
          "type": "address"
        }
      ],
      "name": "transferFees",
      "outputs": [],
      "stateMutability": "nonpayable",
      "type": "function"
    }
  ],
  "bytecode": "0x60806040523480156200001157600080fd5b5060405162003dcf38038062003dcf83398181016040528101906200003791906200023a565b600160008190555084600660006101000a81548173ffffffffffffffffffffffffffffffffffffffff021916908373ffffffffffffffffffffffffffffffffffffffff16021790555083600560006101000a81548173ffffffffffffffffffffffffffffffffffffffff021916908373ffffffffffffffffffffffffffffffffffffffff16021790555082600460006101000a81548173ffffffffffffffffffffffffffffffffffffffff021916908373ffffffffffffffffffffffffffffffffffffffff16021790555083600260006101000a81548173ffffffffffffffffffffffffffffffffffffffff021916908373ffffffffffffffffffffffffffffffffffffffff16021790555081600360006101000a81548173ffffffffffffffffffffffffffffffffffffffff021916908373ffffffffffffffffffffffffffffffffffffffff16021790555080600760006101000a81548173ffffffffffffffffffffffffffffffffffffffff021916908373ffffffffffffffffffffffffffffffffffffffff1602179055505050505050620002c2565b600080fd5b600073ffffffffffffffffffffffffffffffffffffffff82169050919050565b60006200020282620001d5565b9050919050565b6200021481620001f5565b81146200022057600080fd5b50565b600081519050620002348162000209565b92915050565b600080600080600060a08688031215620002595762000258620001d0565b5b6000620002698882890162000223565b95505060206200027c8882890162000223565b94505060406200028f8882890162000223565b9350506060620002a28882890162000223565b9250506080620002b58882890162000223565b9150509295509295909350565b613afd80620002d26000396000f3fe6080604052600436106101095760003560e01c80637df3128411610095578063ad17836111610064578063ad17836114610370578063bf3683991461039b578063d0bcfc0c146103d8578063f77a1fcb14610403578063fc0c546a1461044057610109565b80637df31284146102a05780638bd16114146102dd5780638d7c16d21461031a578063953995ea1461034557610109565b806356c022bb116100dc57806356c022bb146101b6578063572b6c05146101e157806363dc4ef51461021e57806369f92773146102475780636d9747731461028457610109565b80631ba4a7ec1461010e5780631fe543e31461014b5780634dd189d514610174578063522d2c241461019f575b600080fd5b34801561011a57600080fd5b50610135600480360381019061013091906127d0565b61046b565b6040516101429190612816565b60405180910390f35b34801561015757600080fd5b50610172600480360381019061016d91906129b6565b610483565b005b34801561018057600080fd5b50610189610547565b6040516101969190612a71565b60405180910390f35b3480156101ab57600080fd5b506101b461056d565b005b3480156101c257600080fd5b506101cb61099e565b6040516101d89190612a9b565b60405180910390f35b3480156101ed57600080fd5b50610208600480360381019061020391906127d0565b6109c4565b6040516102159190612ad1565b60405180910390f35b34801561022a57600080fd5b50610245600480360381019061024091906127d0565b610a1e565b005b34801561025357600080fd5b5061026e600480360381019061026991906127d0565b610c77565b60405161027b9190612816565b60405180910390f35b61029e60048036038101906102999190612b54565b610c8f565b005b3480156102ac57600080fd5b506102c760048036038101906102c291906127d0565b61104e565b6040516102d49190612ce2565b60405180910390f35b3480156102e957600080fd5b5061030460048036038101906102ff9190612cfe565b611199565b6040516103119190612816565b60405180910390f35b34801561032657600080fd5b5061032f611325565b60405161033c9190612816565b60405180910390f35b34801561035157600080fd5b5061035a61132b565b6040516103679190612a9b565b60405180910390f35b34801561037c57600080fd5b50610385611351565b6040516103929190612d4c565b60405180910390f35b3480156103a757600080fd5b506103c260048036038101906103bd9190612cfe565b611377565b6040516103cf9190612a9b565b60405180910390f35b3480156103e457600080fd5b506103ed6113b6565b6040516103fa9190612d88565b60405180910390f35b34801561040f57600080fd5b5061042a600480360381019061042591906127d0565b6113dc565b6040516104379190612a9b565b60405180910390f35b34801561044c57600080fd5b5061045561140f565b6040516104629190612dc4565b60405180910390f35b60086020528060005260406000206000915090505481565b600260009054906101000a900473ffffffffffffffffffffffffffffffffffffffff1673ffffffffffffffffffffffffffffffffffffffff163373ffffffffffffffffffffffffffffffffffffffff16146105395733600260009054906101000a900473ffffffffffffffffffffffffffffffffffffffff166040517f1cf993f4000000000000000000000000000000000000000000000000000000008152600401610530929190612ddf565b60405180910390fd5b6105438282611435565b5050565b600560009054906101000a900473ffffffffffffffffffffffffffffffffffffffff1681565b610575611ac0565b600061057f611b0f565b90506000600c60008373ffffffffffffffffffffffffffffffffffffffff1673ffffffffffffffffffffffffffffffffffffffff16815260200190815260200160002090506000816003015403610602576040517f49050b3000000000000000000000000000000000000000000000000000000000815260040160405180910390fd5b43600a6103e88360040160149054906101000a900467ffffffffffffffff1661062b9190612e37565b6106359190612e37565b67ffffffffffffffff1611156106b55743600a6103e88360040160149054906101000a900467ffffffffffffffff1661066e9190612e37565b6106789190612e37565b6040517fb4ae675a0000000000000000000000000000000000000000000000000000000081526004016106ac929190612ea4565b60405180910390fd5b600081600401601c9054906101000a900463ffffffff1663ffffffff1682600001546106e19190612ecd565b905060008260040160009054906101000a900473ffffffffffffffffffffffffffffffffffffffff169050600d60008460030154815260200190815260200160002060006101000a81549073ffffffffffffffffffffffffffffffffffffffff0219169055600c60008573ffffffffffffffffffffffffffffffffffffffff1673ffffffffffffffffffffffffffffffffffffffff1681526020019081526020016000206000808201600090556001820160009055600282016000905560038201600090556004820160006101000a81549073ffffffffffffffffffffffffffffffffffffffff02191690556004820160146101000a81549067ffffffffffffffff021916905560048201601c6101000a81549063ffffffff02191690556005820160006101000a81549060ff02191690555050600073ffffffffffffffffffffffffffffffffffffffff168173ffffffffffffffffffffffffffffffffffffffff16036108f25760008473ffffffffffffffffffffffffffffffffffffffff168360405161086f90612f40565b60006040518083038185875af1925050503d80600081146108ac576040519150601f19603f3d011682016040523d82523d6000602084013e6108b1565b606091505b50509050806108ec576040517f90b8ec1800000000000000000000000000000000000000000000000000000000815260040160405180910390fd5b50610940565b61093f8483600760009054906101000a900473ffffffffffffffffffffffffffffffffffffffff1673ffffffffffffffffffffffffffffffffffffffff16611b469092919063ffffffff16565b5b8373ffffffffffffffffffffffffffffffffffffffff167f60f5ec2f86c0cf8ae72815b61b05473a9382c1c34a74749680302b342c04138a8383604051610988929190612f55565b60405180910390a25050505061099c611bc5565b565b600360009054906101000a900473ffffffffffffffffffffffffffffffffffffffff1681565b6000600360009054906101000a900473ffffffffffffffffffffffffffffffffffffffff1673ffffffffffffffffffffffffffffffffffffffff168273ffffffffffffffffffffffffffffffffffffffff16149050919050565b610a26611ac0565b600660009054906101000a900473ffffffffffffffffffffffffffffffffffffffff1673ffffffffffffffffffffffffffffffffffffffff1663893d20e86040518163ffffffff1660e01b8152600401602060405180830381865afa158015610a93573d6000803e3d6000fd5b505050506040513d601f19601f82011682018060405250810190610ab79190612f93565b73ffffffffffffffffffffffffffffffffffffffff163373ffffffffffffffffffffffffffffffffffffffff1614610bb857600660009054906101000a900473ffffffffffffffffffffffffffffffffffffffff1673ffffffffffffffffffffffffffffffffffffffff1663893d20e86040518163ffffffff1660e01b8152600401602060405180830381865afa158015610b56573d6000803e3d6000fd5b505050506040513d601f19601f82011682018060405250810190610b7a9190612f93565b336040517f23295f0e000000000000000000000000000000000000000000000000000000008152600401610baf929190612ddf565b60405180910390fd5b60006001549050600060018190555060008273ffffffffffffffffffffffffffffffffffffffff1682604051610bed90612f40565b60006040518083038185875af1925050503d8060008114610c2a576040519150601f19603f3d011682016040523d82523d6000602084013e610c2f565b606091505b5050905080610c6a576040517f90b8ec1800000000000000000000000000000000000000000000000000000000815260040160405180910390fd5b5050610c74611bc5565b50565b600b6020528060005260406000206000915090505481565b610c97611ac0565b6000610ca1611b0f565b90506000600c60008373ffffffffffffffffffffffffffffffffffffffff1673ffffffffffffffffffffffffffffffffffffffff1681526020019081526020016000206003015414610d6c57600c60008273ffffffffffffffffffffffffffffffffffffffff1673ffffffffffffffffffffffffffffffffffffffff168152602001908152602001600020600301546040517f440db96e000000000000000000000000000000000000000000000000000000008152600401610d639190612816565b60405180910390fd5b60008463ffffffff16118015610d89575060648463ffffffff1611155b610dcb5760646040517f93107491000000000000000000000000000000000000000000000000000000008152600401610dc29190612ffb565b60405180910390fd5b610dd58787611bcf565b6000610df7878663ffffffff168a610ded9190612ecd565b620f424085611d53565b90506000610e04866120b4565b90506040518061010001604052808a81526020018681526020018581526020018281526020018973ffffffffffffffffffffffffffffffffffffffff1681526020014367ffffffffffffffff1681526020018763ffffffff168152602001881515815250600c60008573ffffffffffffffffffffffffffffffffffffffff1673ffffffffffffffffffffffffffffffffffffffff1681526020019081526020016000206000820151816000015560208201518160010155604082015181600201556060820151816003015560808201518160040160006101000a81548173ffffffffffffffffffffffffffffffffffffffff021916908373ffffffffffffffffffffffffffffffffffffffff16021790555060a08201518160040160146101000a81548167ffffffffffffffff021916908367ffffffffffffffff16021790555060c082015181600401601c6101000a81548163ffffffff021916908363ffffffff16021790555060e08201518160050160006101000a81548160ff02191690831515021790555090505082600d600083815260200190815260200160002060006101000a81548173ffffffffffffffffffffffffffffffffffffffff021916908373ffffffffffffffffffffffffffffffffffffffff1602179055508273ffffffffffffffffffffffffffffffffffffffff167f9802308245dc39ec39c453355c93a84c961f728db54b5adeaad1cd29aa6f3f738a8a8a8a8a8a896040516110339796959493929190613025565b60405180910390a2505050611046611bc5565b505050505050565b6110566126f1565b600c60008373ffffffffffffffffffffffffffffffffffffffff1673ffffffffffffffffffffffffffffffffffffffff16815260200190815260200160002060405180610100016040529081600082015481526020016001820154815260200160028201548152602001600382015481526020016004820160009054906101000a900473ffffffffffffffffffffffffffffffffffffffff1673ffffffffffffffffffffffffffffffffffffffff1673ffffffffffffffffffffffffffffffffffffffff1681526020016004820160149054906101000a900467ffffffffffffffff1667ffffffffffffffff1667ffffffffffffffff16815260200160048201601c9054906101000a900463ffffffff1663ffffffff1663ffffffff1681526020016005820160009054906101000a900460ff1615151515815250509050919050565b600080600460009054906101000a900473ffffffffffffffffffffffffffffffffffffffff1673ffffffffffffffffffffffffffffffffffffffff1663feaf968c6040518163ffffffff1660e01b815260040160a060405180830381865afa158015611209573d6000803e3d6000fd5b505050506040513d601f19601f8201168201806040525081019061122d9190613121565b5050509150506000600560009054906101000a900473ffffffffffffffffffffffffffffffffffffffff1673ffffffffffffffffffffffffffffffffffffffff16635fbbc0d26040518163ffffffff1660e01b815260040161012060405180830381865afa1580156112a3573d6000803e3d6000fd5b505050506040513d601f19601f820116820180604052508101906112c791906131ec565b50505050505050509050670de0b6b3a7640000828263ffffffff1664e8d4a510006112f29190612ecd565b6112fc9190612ecd565b61130691906132e5565b843a6113129190612ecd565b61131c9190613316565b92505050919050565b60015481565b600260009054906101000a900473ffffffffffffffffffffffffffffffffffffffff1681565b600460009054906101000a900473ffffffffffffffffffffffffffffffffffffffff1681565b600a818154811061138757600080fd5b906000526020600020016000915054906101000a900473ffffffffffffffffffffffffffffffffffffffff1681565b600660009054906101000a900473ffffffffffffffffffffffffffffffffffffffff1681565b60096020528060005260406000206000915054906101000a900473ffffffffffffffffffffffffffffffffffffffff1681565b600760009054906101000a900473ffffffffffffffffffffffffffffffffffffffff1681565b6000600d600084815260200190815260200160002060009054906101000a900473ffffffffffffffffffffffffffffffffffffffff169050600073ffffffffffffffffffffffffffffffffffffffff168173ffffffffffffffffffffffffffffffffffffffff16036114a657600080fd5b6000600c60008373ffffffffffffffffffffffffffffffffffffffff1673ffffffffffffffffffffffffffffffffffffffff16815260200190815260200160002090506103e88160040160149054906101000a900467ffffffffffffffff1661150f9190612e37565b67ffffffffffffffff1643111561152557600080fd5b60008060008084600401601c9054906101000a900463ffffffff1663ffffffff1667ffffffffffffffff81111561155f5761155e612873565b5b60405190808252806020026020018201604052801561158d5781602001602082028036833780820191505090505b509050600085600401601c9054906101000a900463ffffffff1663ffffffff1667ffffffffffffffff8111156115c6576115c5612873565b5b6040519080825280602002602001820160405280156115f45781602001602082028036833780820191505090505b50905060008660040160009054906101000a900473ffffffffffffffffffffffffffffffffffffffff169050600093505b86600401601c9054906101000a900463ffffffff1663ffffffff168463ffffffff1610156118ca5786600101548612156118ca5786600201546116679061334a565b8613156118ca576002898563ffffffff168151811061168957611688613392565b5b602002602001015161169b91906133c1565b838563ffffffff16815181106116b4576116b3613392565b5b602002602001019060ff16908160ff16815250506001838563ffffffff16815181106116e3576116e2613392565b5b602002602001015160ff161480156117105750600115158760050160009054906101000a900460ff161515145b156117b657612710612648886000015461172a9190612ecd565b61173491906132e5565b8661173f91906133f2565b9550612710614d5888600001546117569190612ecd565b61176091906132e5565b8561176b9190613316565b9450612710614d5888600001546117829190612ecd565b61178c91906132e5565b828563ffffffff16815181106117a5576117a4613392565b5b6020026020010181815250506118b7565b6000838563ffffffff16815181106117d1576117d0613392565b5b602002602001015160ff161480156117fe5750600015158760050160009054906101000a900460ff161515145b156118a45761271061264888600001546118189190612ecd565b61182291906132e5565b8661182d91906133f2565b9550612710614d5888600001546118449190612ecd565b61184e91906132e5565b856118599190613316565b9450612710614d5888600001546118709190612ecd565b61187a91906132e5565b828563ffffffff168151811061189357611892613392565b5b6020026020010181815250506118b7565b8660000154866118b49190613436565b95505b83806118c290613479565b945050611625565b86600001548488600401601c9054906101000a900463ffffffff166118ef91906134a5565b63ffffffff166118ff9190612ecd565b8561190a9190613316565b94508773ffffffffffffffffffffffffffffffffffffffff167f063ba2c91a70f945b84c24531b0de813d66f430987169cb7d878431c04cb00048860000154878487878a60405161196096959493929190613657565b60405180910390a261199b8188600401601c9054906101000a900463ffffffff1663ffffffff1689600001546119969190612ecd565b612189565b600d60008b815260200190815260200160002060006101000a81549073ffffffffffffffffffffffffffffffffffffffff0219169055600c60008973ffffffffffffffffffffffffffffffffffffffff1673ffffffffffffffffffffffffffffffffffffffff1681526020019081526020016000206000808201600090556001820160009055600282016000905560038201600090556004820160006101000a81549073ffffffffffffffffffffffffffffffffffffffff02191690556004820160146101000a81549067ffffffffffffffff021916905560048201601c6101000a81549063ffffffff02191690556005820160006101000a81549060ff0219169055505060008514611ab457611ab38886836122da565b5b50505050505050505050565b600260005403611b05576040517f08c379a0000000000000000000000000000000000000000000000000000000008152600401611afc90613723565b60405180910390fd5b6002600081905550565b60006014600036905010158015611b2b5750611b2a336109c4565b5b15611b3f57601436033560601c9050611b43565b3390505b90565b611bc0838473ffffffffffffffffffffffffffffffffffffffff1663a9059cbb8585604051602401611b79929190613743565b604051602081830303815290604052915060e01b6020820180517bffffffffffffffffffffffffffffffffffffffffffffffffffffffff8381831617835250505050612370565b505050565b6001600081905550565b60008073ffffffffffffffffffffffffffffffffffffffff168273ffffffffffffffffffffffffffffffffffffffff1603611c4557600660009054906101000a900473ffffffffffffffffffffffffffffffffffffffff1673ffffffffffffffffffffffffffffffffffffffff16319050611ce4565b8173ffffffffffffffffffffffffffffffffffffffff166370a08231600660009054906101000a900473ffffffffffffffffffffffffffffffffffffffff166040518263ffffffff1660e01b8152600401611ca09190612a9b565b602060405180830381865afa158015611cbd573d6000803e3d6000fd5b505050506040513d601f19601f82011682018060405250810190611ce1919061376c565b90505b60006305f5e1006211209083611cfa9190612ecd565b611d0491906132e5565b905080841115611d4d5783816040517fd53662aa000000000000000000000000000000000000000000000000000000008152600401611d44929190613799565b60405180910390fd5b50505050565b6000600660009054906101000a900473ffffffffffffffffffffffffffffffffffffffff1673ffffffffffffffffffffffffffffffffffffffff1663bfd7f9cc30876040518363ffffffff1660e01b8152600401611db2929190612ddf565b602060405180830381865afa158015611dcf573d6000803e3d6000fd5b505050506040513d601f19601f82011682018060405250810190611df391906137d7565b611e29576040517f51c3b94f00000000000000000000000000000000000000000000000000000000815260040160405180910390fd5b60008403611e63576040517f07375c8400000000000000000000000000000000000000000000000000000000815260040160405180910390fd5b600080600660009054906101000a900473ffffffffffffffffffffffffffffffffffffffff1673ffffffffffffffffffffffffffffffffffffffff16630a5748a8856040518263ffffffff1660e01b8152600401611ec19190612a9b565b6040805180830381865afa158015611edd573d6000803e3d6000fd5b505050506040513d601f19601f82011682018060405250810190611f019190613804565b915091508115611f4857806040517f6c2775f5000000000000000000000000000000000000000000000000000000008152600401611f3f9190612816565b60405180910390fd5b611f5185611199565b9250600073ffffffffffffffffffffffffffffffffffffffff168773ffffffffffffffffffffffffffffffffffffffff1603612008578286611f939190613316565b341015611fe4578286611fa69190613316565b346040517fde9b74a1000000000000000000000000000000000000000000000000000000008152600401611fdb929190613799565b60405180910390fd5b6120038684611ff39190613316565b34611ffe9190613844565b612407565b612091565b8234101561204f5782346040517fde9b74a1000000000000000000000000000000000000000000000000000000008152600401612046929190613799565b60405180910390fd5b61207c8430888a73ffffffffffffffffffffffffffffffffffffffff166124b8909392919063ffffffff16565b612090833461208b9190613844565b612407565b5b82600160008282546120a39190613316565b925050819055505050949350505050565b6000600260009054906101000a900473ffffffffffffffffffffffffffffffffffffffff1673ffffffffffffffffffffffffffffffffffffffff16635d3b1d307fd729dc84e21ae57ffb6be0053bf2b0668aa2aaf300a2a7b2ddf7dc0bb6e875a86102406003622625a0876040518663ffffffff1660e01b815260040161213f959493929190613989565b6020604051808303816000875af115801561215e573d6000803e3d6000fd5b505050506040513d601f19601f82011682018060405250810190612182919061376c565b9050919050565b600073ffffffffffffffffffffffffffffffffffffffff168273ffffffffffffffffffffffffffffffffffffffff1603612288576000600660009054906101000a900473ffffffffffffffffffffffffffffffffffffffff1673ffffffffffffffffffffffffffffffffffffffff168260405161220590612f40565b60006040518083038185875af1925050503d8060008114612242576040519150601f19603f3d011682016040523d82523d6000602084013e612247565b606091505b5050905080612282576040517ff0c49d4400000000000000000000000000000000000000000000000000000000815260040160405180910390fd5b506122d6565b6122d5600660009054906101000a900473ffffffffffffffffffffffffffffffffffffffff16828473ffffffffffffffffffffffffffffffffffffffff16611b469092919063ffffffff16565b5b5050565b600660009054906101000a900473ffffffffffffffffffffffffffffffffffffffff1673ffffffffffffffffffffffffffffffffffffffff16636c025ec28484846040518463ffffffff1660e01b8152600401612339939291906139dc565b600060405180830381600087803b15801561235357600080fd5b505af1158015612367573d6000803e3d6000fd5b50505050505050565b600061239b828473ffffffffffffffffffffffffffffffffffffffff1661253a90919063ffffffff16565b905060008151141580156123c05750808060200190518101906123be91906137d7565b155b1561240257826040517f5274afe70000000000000000000000000000000000000000000000000000000081526004016123f99190612a9b565b60405180910390fd5b505050565b60008103156124b55760003373ffffffffffffffffffffffffffffffffffffffff168260405161243690612f40565b60006040518083038185875af1925050503d8060008114612473576040519150601f19603f3d011682016040523d82523d6000602084013e612478565b606091505b50509050806124b3576040517ff0c49d4400000000000000000000000000000000000000000000000000000000815260040160405180910390fd5b505b50565b612534848573ffffffffffffffffffffffffffffffffffffffff166323b872dd8686866040516024016124ed93929190613a13565b604051602081830303815290604052915060e01b6020820180517bffffffffffffffffffffffffffffffffffffffffffffffffffffffff8381831617835250505050612370565b50505050565b606061254883836000612550565b905092915050565b60608147101561259757306040517fcd78605900000000000000000000000000000000000000000000000000000000815260040161258e9190612a9b565b60405180910390fd5b6000808573ffffffffffffffffffffffffffffffffffffffff1684866040516125c09190613ab0565b60006040518083038185875af1925050503d80600081146125fd576040519150601f19603f3d011682016040523d82523d6000602084013e612602565b606091505b509150915061261286838361261d565b925050509392505050565b6060826126325761262d826126ac565b6126a4565b6000825114801561265a575060008473ffffffffffffffffffffffffffffffffffffffff163b145b1561269c57836040517f9996b3150000000000000000000000000000000000000000000000000000000081526004016126939190612a9b565b60405180910390fd5b8190506126a5565b5b9392505050565b6000815111156126bf5780518082602001fd5b6040517f1425ea4200000000000000000000000000000000000000000000000000000000815260040160405180910390fd5b60405180610100016040528060008152602001600081526020016000815260200160008152602001600073ffffffffffffffffffffffffffffffffffffffff168152602001600067ffffffffffffffff168152602001600063ffffffff1681526020016000151581525090565b6000604051905090565b600080fd5b600080fd5b600073ffffffffffffffffffffffffffffffffffffffff82169050919050565b600061279d82612772565b9050919050565b6127ad81612792565b81146127b857600080fd5b50565b6000813590506127ca816127a4565b92915050565b6000602082840312156127e6576127e5612768565b5b60006127f4848285016127bb565b91505092915050565b6000819050919050565b612810816127fd565b82525050565b600060208201905061282b6000830184612807565b92915050565b61283a816127fd565b811461284557600080fd5b50565b60008135905061285781612831565b92915050565b600080fd5b6000601f19601f8301169050919050565b7f4e487b7100000000000000000000000000000000000000000000000000000000600052604160045260246000fd5b6128ab82612862565b810181811067ffffffffffffffff821117156128ca576128c9612873565b5b80604052505050565b60006128dd61275e565b90506128e982826128a2565b919050565b600067ffffffffffffffff82111561290957612908612873565b5b602082029050602081019050919050565b600080fd5b600061293261292d846128ee565b6128d3565b905080838252602082019050602084028301858111156129555761295461291a565b5b835b8181101561297e578061296a8882612848565b845260208401935050602081019050612957565b5050509392505050565b600082601f83011261299d5761299c61285d565b5b81356129ad84826020860161291f565b91505092915050565b600080604083850312156129cd576129cc612768565b5b60006129db85828601612848565b925050602083013567ffffffffffffffff8111156129fc576129fb61276d565b5b612a0885828601612988565b9150509250929050565b6000819050919050565b6000612a37612a32612a2d84612772565b612a12565b612772565b9050919050565b6000612a4982612a1c565b9050919050565b6000612a5b82612a3e565b9050919050565b612a6b81612a50565b82525050565b6000602082019050612a866000830184612a62565b92915050565b612a9581612792565b82525050565b6000602082019050612ab06000830184612a8c565b92915050565b60008115159050919050565b612acb81612ab6565b82525050565b6000602082019050612ae66000830184612ac2565b92915050565b612af581612ab6565b8114612b0057600080fd5b50565b600081359050612b1281612aec565b92915050565b600063ffffffff82169050919050565b612b3181612b18565b8114612b3c57600080fd5b50565b600081359050612b4e81612b28565b92915050565b60008060008060008060c08789031215612b7157612b70612768565b5b6000612b7f89828a01612848565b9650506020612b9089828a016127bb565b9550506040612ba189828a01612b03565b9450506060612bb289828a01612b3f565b9350506080612bc389828a01612848565b92505060a0612bd489828a01612848565b9150509295509295509295565b612bea816127fd565b82525050565b612bf981612792565b82525050565b600067ffffffffffffffff82169050919050565b612c1c81612bff565b82525050565b612c2b81612b18565b82525050565b612c3a81612ab6565b82525050565b61010082016000820151612c576000850182612be1565b506020820151612c6a6020850182612be1565b506040820151612c7d6040850182612be1565b506060820151612c906060850182612be1565b506080820151612ca36080850182612bf0565b5060a0820151612cb660a0850182612c13565b5060c0820151612cc960c0850182612c22565b5060e0820151612cdc60e0850182612c31565b50505050565b600061010082019050612cf86000830184612c40565b92915050565b600060208284031215612d1457612d13612768565b5b6000612d2284828501612848565b91505092915050565b6000612d3682612a3e565b9050919050565b612d4681612d2b565b82525050565b6000602082019050612d616000830184612d3d565b92915050565b6000612d7282612a3e565b9050919050565b612d8281612d67565b82525050565b6000602082019050612d9d6000830184612d79565b92915050565b6000612dae82612a3e565b9050919050565b612dbe81612da3565b82525050565b6000602082019050612dd96000830184612db5565b92915050565b6000604082019050612df46000830185612a8c565b612e016020830184612a8c565b9392505050565b7f4e487b7100000000000000000000000000000000000000000000000000000000600052601160045260246000fd5b6000612e4282612bff565b9150612e4d83612bff565b9250828201905067ffffffffffffffff811115612e6d57612e6c612e08565b5b92915050565b6000612e8e612e89612e8484612bff565b612a12565b6127fd565b9050919050565b612e9e81612e73565b82525050565b6000604082019050612eb96000830185612807565b612ec66020830184612e95565b9392505050565b6000612ed8826127fd565b9150612ee3836127fd565b9250828202612ef1816127fd565b91508282048414831517612f0857612f07612e08565b5b5092915050565b600081905092915050565b50565b6000612f2a600083612f0f565b9150612f3582612f1a565b600082019050919050565b6000612f4b82612f1d565b9150819050919050565b6000604082019050612f6a6000830185612807565b612f776020830184612a8c565b9392505050565b600081519050612f8d816127a4565b92915050565b600060208284031215612fa957612fa8612768565b5b6000612fb784828501612f7e565b91505092915050565b6000819050919050565b6000612fe5612fe0612fdb84612fc0565b612a12565b6127fd565b9050919050565b612ff581612fca565b82525050565b60006020820190506130106000830184612fec565b92915050565b61301f81612b18565b82525050565b600060e08201905061303a600083018a612807565b6130476020830189612a8c565b6130546040830188612ac2565b6130616060830187613016565b61306e6080830186612807565b61307b60a0830185612807565b61308860c0830184612807565b98975050505050505050565b600069ffffffffffffffffffff82169050919050565b6130b381613094565b81146130be57600080fd5b50565b6000815190506130d0816130aa565b92915050565b6000819050919050565b6130e9816130d6565b81146130f457600080fd5b50565b600081519050613106816130e0565b92915050565b60008151905061311b81612831565b92915050565b600080600080600060a0868803121561313d5761313c612768565b5b600061314b888289016130c1565b955050602061315c888289016130f7565b945050604061316d8882890161310c565b935050606061317e8882890161310c565b925050608061318f888289016130c1565b9150509295509295909350565b6000815190506131ab81612b28565b92915050565b600062ffffff82169050919050565b6131c9816131b1565b81146131d457600080fd5b50565b6000815190506131e6816131c0565b92915050565b60008060008060008060008060006101208a8c03121561320f5761320e612768565b5b600061321d8c828d0161319c565b995050602061322e8c828d0161319c565b985050604061323f8c828d0161319c565b97505060606132508c828d0161319c565b96505060806132618c828d0161319c565b95505060a06132728c828d016131d7565b94505060c06132838c828d016131d7565b93505060e06132948c828d016131d7565b9250506101006132a68c828d016131d7565b9150509295985092959850929598565b7f4e487b7100000000000000000000000000000000000000000000000000000000600052601260045260246000fd5b60006132f0826127fd565b91506132fb836127fd565b92508261330b5761330a6132b6565b5b828204905092915050565b6000613321826127fd565b915061332c836127fd565b925082820190508082111561334457613343612e08565b5b92915050565b6000613355826130d6565b91507f8000000000000000000000000000000000000000000000000000000000000000820361338757613386612e08565b5b816000039050919050565b7f4e487b7100000000000000000000000000000000000000000000000000000000600052603260045260246000fd5b60006133cc826127fd565b91506133d7836127fd565b9250826133e7576133e66132b6565b5b828206905092915050565b60006133fd826130d6565b9150613408836130d6565b9250828201905082811215600083121683821260008412151617156134305761342f612e08565b5b92915050565b6000613441826130d6565b915061344c836130d6565b925082820390508181126000841216828213600085121516171561347357613472612e08565b5b92915050565b600061348482612b18565b915063ffffffff820361349a57613499612e08565b5b600182019050919050565b60006134b082612b18565b91506134bb83612b18565b9250828203905063ffffffff8111156134d7576134d6612e08565b5b92915050565b600081519050919050565b600082825260208201905092915050565b6000819050602082019050919050565b600060ff82169050919050565b61351f81613509565b82525050565b60006135318383613516565b60208301905092915050565b6000602082019050919050565b6000613555826134dd565b61355f81856134e8565b935061356a836134f9565b8060005b8381101561359b5781516135828882613525565b975061358d8361353d565b92505060018101905061356e565b5085935050505092915050565b600081519050919050565b600082825260208201905092915050565b6000819050602082019050919050565b60006135e08383612be1565b60208301905092915050565b6000602082019050919050565b6000613604826135a8565b61360e81856135b3565b9350613619836135c4565b8060005b8381101561364a57815161363188826135d4565b975061363c836135ec565b92505060018101905061361d565b5085935050505092915050565b600060c08201905061366c6000830189612807565b6136796020830188612807565b6136866040830187612a8c565b8181036060830152613698818661354a565b905081810360808301526136ac81856135f9565b90506136bb60a0830184613016565b979650505050505050565b600082825260208201905092915050565b7f5265656e7472616e637947756172643a207265656e7472616e742063616c6c00600082015250565b600061370d601f836136c6565b9150613718826136d7565b602082019050919050565b6000602082019050818103600083015261373c81613700565b9050919050565b60006040820190506137586000830185612a8c565b6137656020830184612807565b9392505050565b60006020828403121561378257613781612768565b5b60006137908482850161310c565b91505092915050565b60006040820190506137ae6000830185612807565b6137bb6020830184612807565b9392505050565b6000815190506137d181612aec565b92915050565b6000602082840312156137ed576137ec612768565b5b60006137fb848285016137c2565b91505092915050565b6000806040838503121561381b5761381a612768565b5b6000613829858286016137c2565b925050602061383a8582860161310c565b9150509250929050565b600061384f826127fd565b915061385a836127fd565b925082820390508181111561387257613871612e08565b5b92915050565b6000819050919050565b6000819050919050565b60008160001b9050919050565b60006138b46138af6138aa84613878565b61388c565b613882565b9050919050565b6138c481613899565b82525050565b6000819050919050565b60006138ef6138ea6138e5846138ca565b612a12565b612bff565b9050919050565b6138ff816138d4565b82525050565b6000819050919050565b600061ffff82169050919050565b600061393861393361392e84613905565b612a12565b61390f565b9050919050565b6139488161391d565b82525050565b6000819050919050565b600061397361396e6139698461394e565b612a12565b612b18565b9050919050565b61398381613958565b82525050565b600060a08201905061399e60008301886138bb565b6139ab60208301876138f6565b6139b8604083018661393f565b6139c5606083018561397a565b6139d26080830184613016565b9695505050505050565b60006060820190506139f16000830186612a8c565b6139fe6020830185612807565b613a0b6040830184612a8c565b949350505050565b6000606082019050613a286000830186612a8c565b613a356020830185612a8c565b613a426040830184612807565b949350505050565b600081519050919050565b60005b83811015613a73578082015181840152602081019050613a58565b60008484015250505050565b6000613a8a82613a4a565b613a948185612f0f565b9350613aa4818560208601613a55565b80840191505092915050565b6000613abc8284613a7f565b91508190509291505056fea264697066735822122066e8ffb31b4442eecb599e34a6b1aa64738d44242b5040dd534295bcc7791ff464736f6c63430008140033",
  "linkReferences": {},
  "deployedLinkReferences": {}
}